:02000002B0004C
:1040000000400B0098DA0B00000006000D000502CE
:084010000401A30F00000000F1
:044018007CC40B0059
:1040200009480A49884208B505D0094A824202D0A7
:10403000121A08F029F80748074A0021121A08F056
:104040004BF8014808BD00BF78DD0320A8D80B005D
:1040500040DF032040DF0320EDE7032070B5074E6B
:10406000074C07F089F9A41BA4080025AC4200D135
:1040700070BD56F8043B98470135F7E744D80B006C
:104080007CD80B0000F094BC08B500F05BF9BDE8EB
:10409000084007F029B904F047BC04F045BC04F01F
:1040A0004BBC000008B5034A03490C2004F010FB88
:1040B000FEE700BF21830B0090C40B000078B0FA2C
:1040C00080F0400970470123037070477047006A11
:1040D0000368DB6818470000014B1A60704700BF97
:1040E00078DD0320014B01221A707047BFDF0320E7
:1040F00030B585B00446089860B1406850B1856815
:1041000045B1CDE90241CDE90023C46801AB6A465F
:1041100002A9A04705B030BD10B5084C23782BB1DB
:10412000074B01221A700023237010BD01F06CFAB6
:1041300001F061FB0128F3D00123F5E754DF0320F0
:10414000BDDF032030B585B0006813680193D1E965
:1041500000458368CDE902450BB907F08BFAC368C7
:1041600001AA02A9984705B030BD012A02D1016019
:1041700000207047022A04BF0B680360F8E7036859
:104180001268D1E9000118470A4B10B504460360D4
:1041900005F0A2FA214605F0DAFC07F05DF807F019
:1041A0004DF82046044B40F8043B05F06BFB2046DD
:1041B00010BD00BFF0C60B00D8C60B0010B50446FA
:1041C000FFF7E2FF20462421FFF769FF204610BDDC
:1041D00010B58368044613B1032201469847204670
:1041E00010BD10B5044638B1FFF7F2FF204610218C
:1041F000BDE81040FFF753BF10BD0000F8B5037DC8
:1042000005460F4616468BB10368DB6883B19A8872
:10421000012A06D09B68F9E79B684BB19A88012A6E
:10422000FAD12BB19A89BA42F6D19E732846F8BDCD
:104230000A49102007F01AFA044668B1102200213A
:1042400007F04AFF064B23600123A3802B69A3607C
:10425000A781A6732C61E9E72875E7E720D60B0054
:10426000100003000EB400B58CB00DAA4FF0200C66
:1042700052F8041B0392CDE900120023016804AA3E
:104280001E20CDE904C304F033FA0CB05DF804EB52
:1042900003B0704770B5134E134C3278134D022A99
:1042A000C2B017D106F0C8FE32782B7804EB0212A8
:1042B000009204EB031398B90D4A4FF4807102A8E1
:1042C00004F052FB33780B482B7002A9FFF7CAFFAA
:1042D00042B070BD2B7804EB0212009204EB031382
:1042E000054AEAE7BEDF03207CDD0320BCDF0320B4
:1042F000A5C40B0058E60320C5C40B0038B501F077
:1043000083F901F0E5FA054606F096FE3C24B8B1C3
:1043100006F0AFFE6543B0FBF5F404FB15002C1A64
:10432000AC4228BF2C4601F06FF901F05AFA092877
:1043300006D801F069F901F054FA0A2313FB00448E
:10434000204638BD2DE9F04FA34C2378013B8DB0BA
:10435000032B00F2E080DFE813F0A4010400240046
:1043600022019E4B1B78022B01D0FFF793FF06F032
:1043700063FE60B106F09AFE054601F0B9F901F05E
:10438000FDFA06F055FD854201D001F02BFB01F04E
:10439000AFF901F03FFA10B101232370BBE0042311
:1043A000FBE78E4B1B78032B01D0FFF773FFFFF762
:1043B000A5FF074601F028F901F04AF9884BB3F848
:1043C00000B018B90121584607F057F801F01CF960
:1043D00001F07EFA064606F02FFE0546002841D081
:1043E00006F047FEC219D31708A806F03DFDDDF818
:1043F000208001F009F901F02BF97A4A7A4B7B49C8
:10440000002808BF1346CDE9008379483B46324671
:10441000FFF728FF15B108A806F01EFB754B1A7DA3
:104420000AB102221A72744B7248B3F8009000224B
:104430004946FFF7E3FE714BB3F800A00122514655
:10444000FFF7DCFE037D06461BB303684FF47A7862
:10445000DB6808FB07F843B19A88042A00F0F98169
:104460009B68F8E7DFF8C081C3E76549102007F0D3
:10447000FDF80546002800F0EA811022002107F02F
:104480002BFE604B2B600423AB803369C5E90238F7
:10449000356106F0FFFD18B15B48002101F062FEB6
:1044A000544905A806F0FCFB002003F051FF42F23E
:1044B00010760546002003F04BFF401B61F1000120
:1044C000B04271F1000307D206F0C6FE06F0B9FE55
:1044D00010B904F099F9EDE706F0BEFE06F0B1FE62
:1044E0004FF0FF31484801F03DFE0021584606F0EC
:1044F000C4FF059B63B39A88012A29D19B899945FA
:1045000029D142493A48FFF7ADFE042305982370AC
:1045100008B104F011FA3C483D4C02F0CFF901F02B
:10452000E7F801F000F901F06FF801F088F823785E
:1045300023B101F0A1FB08B100232370354B1B68A8
:10454000002BC0F289810DB0BDE8F04F06F0A5BB8D
:104550004FF6FF73D3E79A450BD12F492448FFF755
:1045600081FE01F089FB10B1294B00221A70032350
:10457000CCE706F07EFDC219D31708A806F074FC3C
:10458000089A039206F0ECFB039A24490346184864
:10459000FFF768FE08A806F05FFA0223B6E70F4BA4
:1045A0001B78042B42D0FFF775FE00F0E9FB00F00A
:1045B0006FFC01F071FC06F05CFD194BC217C3E9FA
:1045C000000200F0DDFB00F079FC78BB15490848DB
:1045D000FFF748FE9FE700BFBEDF0320BCDF0320DC
:1045E00062CC0B00D6C40B00D3C40B00DAC40B00A2
:1045F00058E6032078DF03205ECC0B0060CC0B0074
:1046000020D60B001000030058DF032036C50B0036
:10461000BDDF032078DD032059C50B008EC50B00DC
:1046200090DF0320AFC50B003ACD0B0003F080FEF6
:1046300041F28736054603F07BFE401BB04223D88B
:1046400000F09EFB00F098FE0028F4D001F050F836
:1046500001F0E0F8054620B901F04AF8294601F0DA
:104660006AF900F0D1FF054606F003FD0246C317C4
:10467000284601F0ACF906F0FCFC01230246009349
:10468000C317774802F00AF900F07AFB00F010FC3B
:1046900001F02EF801F0BEF808B102237DE60323F5
:1046A0007BE6704B1B78012B01D0FFF7F3FD01F087
:1046B0001FF801F0AFF802284CD0032800F09580D5
:1046C000012840F0BA8000F05BFB00F051FD0028AB
:1046D00000F0868003F02CFEDFF8A481624F634E69
:1046E000054640F6B73903F023FE401B484577D80E
:1046F00000F046FB00F040FE0028F4D0414638466A
:10470000FFF7B0FD06F0B5FCC317C6E9000300F0E3
:104710007BFF814606F0ADFC0246C317484601F018
:1047200056F900F0E5FF814606F0A3FC0246C317E8
:10473000484601F07BF900F0DBFF002101F0ABF807
:1047400006F097FC012302460093C317444802F089
:10475000A5F8C6E700F014FB00F0B0FD00283FD03C
:1047600003F0E6FDDFF81C813F4F404E054603F0A5
:10477000DFFD40F6B733401B984231D800F000FB14
:1047800000F0FAFD38B306F074FCC317C6E9000365
:1047900000F03AFF814606F06CFC0246C31748461B
:1047A00001F015F900F0A4FF814606F062FC024614
:1047B000C317484601F03AF900F09AFF002101F0D2
:1047C0006AF806F056FC012302460093C3172448FA
:1047D00002F064F8CBE741463846FFF743FDC6E7F1
:1047E00000F0CEFA00F064FB57E7214C214D23780E
:1047F000BFF35B8F13F0010F09D12046FFF75EFC7A
:1048000028B103F095FD28602046FFF75CFC03F01B
:104810008FFD2B68C01A47F2305398427FF67BAE6B
:1048200015491148FFF71EFD4FF4FA6004F0ECF84B
:104830001E210B4801F0F0FD6DE610490A48FFF714
:1048400011FD00F055FF002101F025F825E7307536
:104850001FE6C3F80C801CE60DB0BDE8F08F00BF6A
:1048600058DF0320BCDF032058E6032090DF03203D
:104870004CDF032050DF0320F0C50B0001C60B0006
:10488000C3C50B00DBC50B0038B5002383608B6804
:1048900004460D462BB102229847EB68E360AB68F3
:1048A000A360204638BD00002DE9F04395B00546D1
:1048B0001C9904A890461F460CAEFFF7E5FF04A91B
:1048C00008A8FFF7E1FF08A93046FFF7DDFF4FF02A
:1048D00000091020CDF84890FFF7DDFB0446A0B199
:1048E00096E8030001AB83E8030094E8030086E840
:1048F000030093E803000E9BE268A36084E80300D2
:104900000F9BCDF838900F92E360244B1393244B08
:104910001293002200234FF00009C5E90023214B28
:10492000C5F8089010201094CDE90139CDF80C900D
:10493000FFF7B1FB0446D8B1129BC0F8089033B121
:10494000022210A99847139BE360129BA360164BA9
:104950000393164A029401AB4046394603F002FF26
:10496000B0B12046FFF734FC10212046FFF797FB3B
:1049700010A8FFF72DFC3046FFF72AFC08A8FFF728
:1049800027FC04A8FFF724FC284615B0BDE8F083F7
:10499000029BAB60C5E90087EAE700BF45410B0019
:1049A000514B0B0002000C00E3410B00F1400B00E7
:1049B00030B500208DB003F0CBFC42F210750446F8
:1049C000002003F0C5FC001B61F10001A84271F159
:1049D000000307D206F040FC06F033FC10B903F0E8
:1049E00013FFEDE706F038FC06F02BFC01F03CF875
:1049F00001F066F800F07CFE03681B68984700F041
:104A000003FE03681B68984701F092F842480823A8
:104A10000121438101F0A4FF7C213F4801F0A2FB6A
:104A20003E4B08933E4B0B9308AC3E4B0A934FF41E
:104A30008022002304A80094FFF736FF2046FFF7EA
:104A4000C7FB00F09DF9002100F0ACF9002842D12D
:104A500000F04EFE032100F01EFF00F049FE044668
:104A600006F007FB0246C317204600F0DFFF00F008
:104A70003FFE00F0CFFE2C4902462C48FFF7F2FB28
:104A800001F00AFA2A482B49008800244FF0FF332E
:104A90000122009404F04AFA27482849008800942B
:104AA0004FF0FF33224604F041FA254B1A780AB939
:104AB00003221A7000F01CFE00F0ACFE21490246F1
:104AC0001A48FFF7CFFB204B188800210DB0BDE836
:104AD000304006F0D2BC00F097FD00F082FE0A28BC
:104AE00014D900F005FE012100F0D5FE00F08CFD88
:104AF00000F077FE039000F0FBFD00F08BFE039AC0
:104B0000124903460948FFF7ADFBB9E706F094FAEE
:104B10000028E6D0B4E700BF58DF0320D9400B00DF
:104B20007F410B006B410B0017C60B0058E60320BA
:104B300060CC0B0019410B005ECC0B00E5400B0074
:104B4000BEDF03209CC60B005CCC0B0055C60B00DF
:104B5000012A37B5044604D10B680360002003B076
:104B600030BD022A0CD0032AF8D10468002CF5D0FD
:104B70002046FFF72DFB10212046FFF790FAEDE7C6
:104B8000096801911020FFF786FA054610B10199D6
:104B9000FFF77AFE2560E1E770B5D0E900531426EF
:104BA000044606FB0356AE4204D0284605F054FFE7
:104BB0001435F8E7206803F0BFFE204670BD884238
:104BC000F8B504460D46164616D9904215D2A2F104
:104BD0001406751AA1F114072C44B7421CD02CB14D
:104BE0003146204605F0B4FF337C2374304605F08F
:104BF00033FF143E143CF0E70ED0B5420CD02CB17C
:104C00002946204605F0A4FF2B7C2374284605F096
:104C100023FF14351434F0E7F8BD2DE9F0410023EB
:104C2000C0E9003383604F689F4204460E4623DD8F
:104C30004FF0140808FB07F003F076FE0546D8B1E4
:104C4000D4E9001208FB0212FFF7B9FF206803F055
:104C500073FE2560A760D6E9007308FB0378B845AA
:104C600008D03946284605F08DFF3B7C2B7414375D
:104C70001435F4E7736863602046BDE8F0810000F6
:104C8000F0B5314B314A9A6000248DB0C3E900443D
:104C9000022003F057FD2146012003F06BFD0121A6
:104CA000042003F02DFBCDE90044029406F0D4FA71
:104CB000274D0646694603A8FFF7AFFF2F4603A915
:104CC00006A8FFF7AAFF234B47F8043B06A909A84B
:104CD000FFF7A3FF09AA1E21384605F01BF809A813
:104CE000FFF75AFF06A8FFF757FF1B4B2B6003A8DF
:104CF0002E62FFF751FF194B2B6006F0ADFA4FF40F
:104D0000165106F097FA04F0E7FC294604F0D8FEA5
:104D10006846FFF741FF124B1A1D1A60114A5A608C
:104D20000122C3E902441C611A7506F017FC6922CE
:104D300001460D4801F018F906F09BF90B4BC2171C
:104D4000C3E900020DB0F0BD40DF03200000FFFF0B
:104D500098DF0320D8C60B00C0D40B00F0C60B00B0
:104D600078DF03201000030058DF032090DF0320CA
:104D7000704710B504210446FFF791F9204610BD95
:104D800010B5064C236833B90420FFF784F908B145
:104D9000034B03602060206810BD00BFC4DF032008
:104DA00088CB0B0030B5314887B00D4602F03BFC94
:104DB000044630B92E492F48FFF754FA204607B071
:104DC00030BD9FED2D0A2D4802F026FF2B48002212
:104DD000172103F09BF88DB100F016FC002100F0C4
:104DE0003CFD02A803F020FD029A25492148FFF767
:104DF00039FA02A805F030FE2C46DFE700F004FC8B
:104E000000F0EFFCF0B100F0FFFB00F0EAFC0A2834
:104E100018D800F0F9FB00F0E4FC0146194801F055
:104E20002EFF184801F011FF019002A803F0FCFCCE
:104E3000DDE9012314490F48FFF714FA02A805F031
:104E40000BFEBBE700F0E0FB0B2100F006FD0B21A1
:104E50000C4801F014FF0B4801F0F7FE019002A886
:104E600003F0E2FCDDE901230849E4E700E2032066
:104E700000C70B0058E6032000C06444D0E00320C4
:104E80000CC70B0004E2032046C70B007DC70B00D4
:104E900010B5064CC0B00DF1030201A9204602F086
:104EA00037FE0028F7D140B010BD00BFD0E003208E
:104EB000014802F01ABE00BFD0E00320784B2DE974
:104EC000F7431E88DFF80482764D774C0121304687
:104ED00006F0D3FA98F800202B6874497448013220
:104EE0000133D2B288F800202B60FFF7BBF900F045
:104EF0008BFB00F0E8FC000A207000F085FB00F05E
:104F0000E2FC01276070A77000F0F2FB00F0E5FC06
:104F1000000AE07000F0ECFB00F0DFFC207100F014
:104F2000E7FB00F0DFFC000A607100F0E1FB00F03D
:104F3000D9FCA07100F068FB00F05DFCE07100F0AE
:104F4000D7FB00F05DFC207200F0D2FB00F0F4FB18
:104F500051EC100B07F026F8607200F0C9FB00F06E
:104F600054FCA07200F050FB00F040FC98F80030B8
:104F700023730323E072214600934E48DFF85081EB
:104F800000230D2202F014F9044618BBD8F80000E3
:104F90003844C8F8000006F0C3FC804628688946FB
:104FA00006F0BEFC02460B464046494606F04CFE63
:104FB000414B002206F01EFD02460B463C483F498D
:104FC000FFF750F93046214606F057FA384603B04D
:104FD000BDE8F083022825D100F016FB00F001FCAB
:104FE0000446D8F8000006F09BFC804628688946F5
:104FF00006F096FC02460B464046494606F024FE63
:105000002D4B002206F0F6FCCDE900012C490023CF
:1050100022462748FFF726F93046002106F02DFAF0
:105020000020D4E705281DD100F0EEFA00F0D9FBEE
:105030000446D8F8000006F073FC804628688946CC
:1050400006F06EFC02460B464046494606F0FCFD63
:10505000194B002206F0CEFC0023CDE900012246C8
:105060001849D6E700F0D0FA00F0BBFB0446D8F8A8
:10507000000006F055FC80462868894606F050FC82
:1050800002460B464046494606F0DEFD0A4B00222A
:1050900006F0B0FC0023CDE9000122460A49B8E73A
:1050A0005CCC0B00D0DF0320D4DF0320C4C70B008F
:1050B00058E6032000E2032000005940E2C70B003D
:1050C0000DC80B005DC80B00B6C80B00C8DF03207D
:1050D000CCDF032037B51D4C257A002D30D100F0F0
:1050E00093FA294600F0C6FA19491A48FFF7BAF8A8
:1050F00000F078FC637A6BB100F0FAFA617A00F0A4
:10510000CAFB00F081FA0B2100F0A7FB12480B212B
:1051100001F0B5FD207A114A114B617A012818BFC0
:1051200013461048104ACDE90031002918BF024645
:10513000A37A0E490748FFF795F8012003B030BD68
:1051400000F062FA012100F095FAD3E7D4DF0320E2
:105150001FC90B0058E6032004E2032018C90B0006
:1051600013C90B0006C90B000BC90B0041C90B008A
:10517000F0B52F4B2F4D1E888FB00121304606F021
:105180007CF903A803F050FB0023192207A903A808
:1051900005F003FD03A805F05FFC00F035FA00F010
:1051A00092FB000A287000F02FFA00F08CFB0DAF84
:1051B000687007ABAA1C1C4603CCBC42106051604F
:1051C000234602F10802F6D12378137000F01CFA8E
:1051D00000F011FBE87600F017FA00F002FB164928
:1051E000164A01240A2888BF0A4615491548FFF7C0
:1051F00039F810491448009400231C2201F0D8FF0C
:10520000054650B911490F48FFF72CF8304629469A
:1052100006F033F920460FB0F0BD0D490948FFF7FD
:1052200021F83046002106F028F90020F3E700BFFE
:105230005CCC0B00D4DF032092C90B00A9C90B0082
:10524000BEC90B0058E6032000E20320DEC90B00B4
:1052500008CA0B0010B514491448154CFFF702F8A2
:1052600000F0D2F900F0BDFA0A2804D900F0CCF918
:10527000217A00F0F2FA00F0C7F900F0B2FA0D4915
:1052800002460A48FEF7EEFF00F0BEF900F0A9FA68
:105290000146094801F0F3FC00F0B6F9617A00F02C
:1052A000E8FA012010BD00BF27CA0B0058E6032012
:1052B000D4DF032043CA0B0004E203201E4B37B5A2
:1052C0001D881E4C0121284606F0D7F800F09CF9F5
:1052D00000F0F9FA000A207000F096F900F0F3FAF5
:1052E000607000F005FA00F095FA0523A0702146E1
:1052F000009313480023032201F05AFF044680B9AB
:1053000000F0F6F900F086FA0E49024623460E48F0
:10531000FEF7A8FF2846214606F0AFF8012003B0AB
:1053200030BD0A490848FEF79DFF2846002106F0D7
:10533000A4F80020F3E700BF5CCC0B00D4DF03200F
:1053400000E2032073CA0B0058E60320ABCA0B002F
:1053500008B500F0CDF9054B997800F09CFA0449A6
:105360000448FEF77FFF012008BD00BFD4DF032003
:10537000D6CA0B0058E60320F0B58DB0F9238DF89E
:105380001A300DF11F0303930DF11E0302933D4EDE
:105390003D480DF11D03019307AB00930DF11A0277
:1053A0000DF11B03314601F037FF044618B9002404
:1053B00020460DB0F0BD9DF81A300027F75435880F
:1053C00000F022F900F07FFA6DBAADB2A84204D025
:1053D0002E492F48FEF746FFE9E72E4D9DF81E3077
:1053E0009DF81B202C482B70059201F0C6FC2B4920
:1053F000059A0346287801EB0011009124482849BA
:10540000FEF730FFD6F8020000BAC11705F018FD0C
:1054100000F0FAF8F18849BA89B200F086FA05F08E
:1054200028FEC317024608A805F01EFD089A05923B
:1054300000F0EAF800F04CFA059A1A4903461448BD
:10544000FEF710FF08A805F007FB2B78042B11D0FE
:105450002B78022B05D1FFF793FCFFF7FBFE00280A
:10546000A6D12B78062BA2D1FFF78AFCFFF770FF9D
:1054700004469DE7FFF784FCFFF72CFE0028E7D0E9
:1054800096E700BFD4DF032000E20320F0CA0B0040
:1054900058E60320C0DF0320D0E003200CDE032009
:1054A00019CB0B004BCB0B0010B5084A084C09492F
:1054B00012780978084B204602F070FB2146074815
:1054C000BDE81040002201F069BE00BF66CC0B00B1
:1054D000D0E0032064CC0B00F0E3032000E20320C3
:1054E00010B5044B03600446406808B102F0E8FEC2
:1054F000204610BD20D30B0010B50446FFF7F0FF87
:1055000020467821FEF7CBFD204610BD10B5034B99
:105510000360044601F086FA204610BDBCCB0B00A8
:1055200010B50446FFF7F2FF20461021FEF7B7FD45
:10553000204610BD10B5044B03600446406808B116
:1055400002F0BEFE204610BD20D30B0010B504466D
:10555000FFF7F0FF20465821FEF7A1FD204610BDC1
:1055600010B5036804460BB902F0A2FE2068BDE83E
:10557000104002F0ADBE38B504460430FFF7F0FF2E
:10558000206A616A0368DD68D4E90223A84760687D
:10559000BDE8384002F0A4BE38B504460430FFF739
:1055A000DFFF206A616A03689D68D4E90223A84787
:1055B000A2682368D1885B692046984718B9236898
:1055C00020469B699847606802F08AFE012038BD3A
:1055D00000F12801816009494FF0300CC0E903C196
:1055E000012181824FF47A71C16105490022C0E92D
:1055F000081242608261034A02607047749EA920CB
:10560000BCE30320D8CB0B0010B5064C23683BB994
:105610005820FEF740FD034608B1FFF7D9FF23608D
:10562000206810BDB4E3032010B5006A01F010FA41
:10563000FFF7EAFF0368BDE810405B68184710B544
:10564000FFF7E2FF0368BDE81040DB680021184760
:1056500038B504460430FFF783FFE3686068013B18
:105660002C2B86BFA36893F82D50002502F038FE3E
:10567000284638BD38B5044604300D46FFF770FFA4
:10568000E368013B2C2B0FD9A36893F82D20AA4285
:105690000AD083F82D502046A56802F087FDA86047
:1056A000236820461B6998476068BDE8384002F0CF
:1056B00017BE0000002200F12801426082614FF411
:1056C0007A728160C2610749074A02624FF0500C4A
:1056D0003222C0E903C142620121044A8182026090
:1056E000704700BF739EA920BCE3032004CC0B00CD
:1056F00010B5064C23683BB97820FEF7CCFC034676
:1057000008B1FFF7D7FF2360206810BDB8E303207E
:1057100010B5006A01F09CF9FFF7EAFF0368BDE8E5
:1057200010405B68184710B5FFF7E2FF0368BDE85B
:105730001040DB680021184710B504462DED028BA0
:105740000430FFF70DFFE368083B172B0CD9A36863
:1057500093ED068B606802F0C3FDB0EE480AF0EEF0
:10576000680ABDEC028B10BD9FED018BF2E700BF14
:105770000000000000000000F8B50446043057ECBB
:10578000106BFFF7EDFEE368083B172B12D9A568F5
:105790003046D5E90623394606F094FB50B9C5E9F1
:1057A00006672046A56802F001FDA8602368204630
:1057B0001B6998476068BDE8F84002F091BD38B5B4
:1057C000044604300D46FFF7CBFEE3686068013BFA
:1057D000AB4226BFA3685D5D002502F081FD28462F
:1057E00038BD08B51021FFF7EAFF08BD08B517213D
:1057F000FFF7E5FF08BD08B52C21FFF7E0FF08BD66
:1058000008B51021FFF7DBFF08BD08B52021FFF721
:10581000D6FF08BD08B54421FFF7D1FF08BD70B51C
:10582000044604300D461646FFF79AFEE368013B36
:10583000AB420DD3A3685A5DB24209D05E552046F3
:10584000A56802F0B3FCA860236820461B6998474E
:105850006068BDE8704002F043BD08B50A461021FB
:10586000FFF7DDFF08BD08B50A461721FFF7D7FF90
:1058700008BD08B50A462C21FFF7D1FF08BD08B5C1
:105880000A461021FFF7CBFF08BD08B50A462021C4
:10589000FFF7C5FF08BD08B50A464421FFF7BFFF63
:1058A00008BD38B5044604300D46FFF759FEE368DD
:1058B0006068023BAB4226BFA3685D5B002502F037
:1058C0000FFD284638BD08B51421FFF7EAFF08BDD3
:1058D00008B52A21FFF7E5FF08BD08B54021FFF70D
:1058E000E0FF08BD08B54221FFF7DBFF08BD70B53A
:1058F000044604300D461646FFF732FEE368023BCD
:10590000AB420DD3A3685A5BB24209D05E53204626
:10591000A56802F04BFCA860236820461B699847E5
:105920006068BDE8704002F0DBBC08B50A462A2179
:10593000FFF7DDFF08BD08B50A464021FFF7D7FF96
:1059400008BD08B50A464221FFF7D1FF08BDF8B5EA
:10595000044604300D46FFF703FEE3686068083B29
:10596000AB4223BFA1684919D1E90067002638BFBF
:10597000002702F0B5FC30463946F8BD08B538219D
:10598000FFF7E5FF08BDF8B5044604300D461E4696
:105990001746FFF7E5FDE368083BAB4212D3A36867
:1059A0005A1958595168B14208BFB8420AD05F51DC
:1059B00020465660A56802F0F9FBA86023682046DF
:1059C0001B6998476068BDE8F84002F089BC08B5DB
:1059D0002021FFF7D8FF08BD08B53821FFF7D3FF16
:1059E00008BD000010B50F490F48FEF73BFCFFF75C
:1059F0007FFE0121FFF7A5FFFFF77AFE0121FFF7E8
:105A00009AFFFFF775FE044605F033FB0246C31705
:105A10002046FFF7E1FFFFF7F7FDBDE8104000214A
:105A2000FFF721BF90CB0B0058E6032008B54821B3
:105A3000FFF7A9FF08BD0000084B012210B51A703E
:105A400005F08CFD064C014600234FF40052204621
:105A500000F0F4FF034B236010BD00BFB0E3032050
:105A6000BCE30320BCCB0B0008B513491348FEF779
:105A7000F9FB0221042005F0EFFC0021082005F0CD
:105A8000EBFC0121072005F0E7FC0021122005F0C6
:105A9000E3FC0121112005F0DFFC0121102005F0BD
:105AA000DBFC0021102005F0E8FC0021112005F0AE
:105AB000E4FC012008BD00BF28CC0B0058E6032001
:105AC00010B51849184890B02024FEF7CBFB2246A9
:105AD0000021684606F000FB224600210DEB040081
:105AE0008DF8054006F0F8FA00210DEB04008DF862
:105AF000254002F06BFE41F2D833ADF806300B4B77
:105B0000029341F27003ADF80C30009B002143F486
:105B100000736846009302F059FE003818BF012058
:105B200010B010BD41CC0B0058E603208403840361
:105B300008B505490548FEF795FBFFF765FDBDE88B
:105B400008400121FFF795BE6ACC0B0058E6032000
:105B500010B503682F2B044604D9074A07490A20C9
:105B600002F0B6FD23681F2B83BF03F01F03044818
:105B700023604FF0A04010BD21830B00FFCC0B0031
:105B80000003005007EE900A9FED097AF8EEE77ADD
:105B900067EE877A9FED077A87EE870ADFED067A50
:105BA00070EE677AB2EE040A87EE800A704700BF93
:105BB00000404E4500F07F450000FA4313B5012137
:105BC00001A804F05AFCFFF793FDFFF719FEFFF759
:105BD0008FFDFFF715FE252801A80DD904F0E0FC84
:105BE000FFF786FD0121FFF750FE002401A804F015
:105BF00053FC204602B010BD04F0B7FC0124F5E7C9
:105C000030B5194D0FCD97B00CAC0FC40FCD0FC4EC
:105C100095E8030084E80300144904A802F062FF39
:105C200004A802F0A2FF044604A802F0D7FF04A8CB
:105C300010EE105A03F002F816AB10EE100A03EB48
:105C4000840405F07FFECDE90201284605F07AFEC6
:105C5000CDE90001064A54F8283C0648402102F0EC
:105C600083FE17B030BD00BF84CD0B0014E60320C7
:105C700023CD0B008CDE0320F0B54F4E4F4C337814
:105C8000BFF35B8F13F0010F85B009D13046FEF7EB
:105C900015FA28B102F074FB20603046FEF713FAC3
:105CA000474B1D8823682D015B5D5F013378BFF38F
:105CB0005B8FD90709D44048FEF700FA28B102F0FB
:105CC0005FFB20603C48FEF7FEF923682B4403A8E5
:105CD0005B7803F01F033B430393FFF739FF039AFD
:105CE00001239340C0F80835FFF702FD074605F091
:105CF000C0F90246C3173846FFF76EFEFFF7F8FCFF
:105D00000746FFF7F5FCFFF7E8FD013081B23846A2
:105D1000FFF711FEFFF7ECFC0746FFF7E9FCFFF782
:105D2000E1FD013081B23846FFF70BFEFFF7E0FCE2
:105D3000FFF7D3FD0190FFF7DBFCFFF7D3FD019ADE
:105D4000204903462048FEF78DFAC82002F05CFE89
:105D50003378BFF35B8FDA0709D41748FEF7AEF943
:105D600028B102F00DFB20601348FEF7ACF9236860
:105D70005B5D5F013378BFF35B8FDB0709D40E48AF
:105D8000FEF79CF928B102F0FBFA20600A48FEF702
:105D90009AF923681D4403A86B7803F01F033B4363
:105DA0000393FFF7D5FE039B012202FA03F3C0F829
:105DB0000C35104605B0F0BDCCE30320D0E3032042
:105DC0005CCC0B003CCD0B0058E6032030B585B011
:105DD0000D4600226946009202F0A2FC90B9009C98
:105DE0000CB1236923B9084A08490A2002F070FC63
:105DF0000C23CDE901350423039301AA2369012172
:105E00002046984705B030BD21830B0059CD0B00CB
:105E100013B5FFF76DFC01A904460720FFF7D6FF75
:105E2000011EA8BF01992046C9B2FFF72EFD1848F0
:105E300002F0CEFF4FF4FA7002F0E6FDFFF758FCD7
:105E400001A904460320FFF7C1FFE8B9BDF80430FB
:105E500007EE903AFBEECC7A17EE900A05F072FD51
:105E600041EC100B2046FFF787FCFFF741FCFFF7E2
:105E700063FC084B51EC100B002206F04BF8003885
:105E800018BF012002B010BDFFEE007AE4E700BFAA
:105E9000D4E3032000004E4013B5FFF729FC114B5B
:105EA0000446188805F015FBFFF76CFEFDEEC07A7E
:105EB0002046CDED017A9DF80410FFF7E0FCFFF7D6
:105EC00017FCFFF79DFC084A03461021074802F023
:105ED0004BFDFFF79DFFFFF771FEFFF791FE0120DD
:105EE00002B010BD68CC0B007FCD0B007CDE032020
:105EF0000148002102F028BFD4E30320704710B509
:105F000020210446FEF7CBF8204610BD10B504460C
:105F10008AB008464FF0200C0021CDE90023CDE9DE
:105F200002C10B4602AA216802F0E2FB0AB010BDD2
:105F30000EB403B503AB322153F8042B0193FFF7E2
:105F4000E5FF02B05DF804EB03B070470EB403B593
:105F500003AB012153F8042B0193FFF7D7FF02B0E5
:105F60005DF804EB03B0704710B50272FF22428166
:105F70000022C0E9032242610276C261024A034C58
:105F80001060C0E9004110BDE0E30320FCCF0B002E
:105F90002DE9F8439DF820800446894616461F46A1
:105FA000B8F1000F02D0406802F0ACFF217A6068BF
:105FB00002F085FF6068036849469B6898476068FF
:105FC000002102F09BFF054600BB0123217A606897
:105FD0003A4602F062FF8742034609D13744BE4287
:105FE0001CD0606803685B69984706F8010BF6E708
:105FF0000B490C484A46FFF79BFFB8F1000F02D04F
:10600000606802F088FF2846BDE8F8830346064929
:1060100004484A46FFF78CFF0025EEE70125ECE730
:10602000ACCD0B00DCE30320D1CD0B0007B5009312
:106030000123FFF7ADFF03B05DF804FB73B543899F
:10604000FF2B044610D0194E194D02F071F9B0F52E
:106050007A7F09D2608905F029FA012804D03146F7
:106060002846FEF7FFF8F0E701230DF1070228218B
:106070002046FFF7DBFF30B90D480E49FEF7F2F876
:10608000002002B070BD9DF80730182BF4D1012319
:106090000DF1070229212046FFF7C8FF0028EBD0A9
:1060A0009DF80730052BE7D1EBE700BFF5CD0B00DE
:1060B000DCE303200ACE0B0007B5134600228DF85F
:1060C00007200DF10702FFF7B1FF9DF8070003B0AD
:1060D0005DF804FB2DE9F0419DF8188004460F4659
:1060E00015461E46B8F1000F02D0406802F00AFFC4
:1060F000217A606802F0E3FE6068036839469B68B5
:1061000098472E44B542606805D0036815F8011B16
:106110009B689847F6E7012102F0F0FE034670B154
:10612000084909483A46FFF703FF0025B8F1000F78
:1061300002D0606802F0EFFE2846BDE8F08101253C
:10614000F4E700BF17CE0B00DCE303201FB58DF88A
:106150000F2000930DF10F020123FFF7BBFF05B0E5
:106160005DF804FBF8B50A460C4605461A491B487B
:10617000FEF778F8002CB8BFEC687CB90123224602
:106180001B212846FFF7E2FF154902460646134841
:10619000FFF7DCFEEC606C613046F8BD032C19DDC6
:1061A000A7101F2FA8BF1F27BA0062F07C0201238F
:1061B000D2B21B212846FFF7C9FF3A4603460949D8
:1061C00006460648FFF7C2FE4FF4FA635F43EC60F1
:1061D0006F61E1E70127E7E73CCE0B00DCE303203A
:1061E00046CE0B0062CE0B00064B1A684AB1A0F5F2
:1061F00000630B4305D1D3681BB100211046FFF7A4
:10620000B1BF7047E0E303202DE9FF419DF82880EE
:10621000054616461F46B8F1000F04D040680191AC
:1062200002F070FE0199019100230DF10F02284642
:10623000FFF7FCFE044660B19DF80F3003EA06024A
:106240003A43934205D0019900232846FFF77EFF89
:106250000446B8F1000F02D0686802F05CFE2046E8
:1062600004B0BDE8F08113B514460DF10702FFF745
:10627000DDFE28B19DF807301C420CBF0120002034
:1062800002B010BD13B514460DF10702FFF7CEFEA4
:1062900028B19DF807301C4214BF0120002002B035
:1062A00010BD07B5D2430093D2B20023FFF7ACFF75
:1062B00003B05DF804FB000037B501230DF10702C0
:1062C0000F210446FFF7B2FE054638B91E491F48A4
:1062D000AD22FFF72DFE284603B030BD9DF80730F4
:1062E00013F0200F4FF001030BD02022E3610F21A8
:1062F0002046FFF7D6FF164A16491448FDF7B2FFAD
:10630000E9E7082217212046FFF7BCFF18B1022356
:10631000114AE361F0E79DF807301A0709D5032316
:10632000E361082201230F212046FFF7BAFF0B4A41
:10633000E2E75B07CFD50422E26101230F2120466B
:10634000FFF7AFFF064AD7E7B5CE0B00DCE303202B
:1063500086CE0B00D4CE0B008FCE0B009FCE0B0051
:10636000AFCE0B0007B500931346FF22FFF74CFF9B
:1063700003B05DF804FB0000F8B50F461646012394
:1063800000220F210546FFF7E1FE044638B94FF41D
:1063900025721F491F48FFF7CBFD2046F8BD01239A
:1063A000232218212846FFF7D1FE044610B940F2F7
:1063B0009B22EEE7FF2FA8BFFF27012FB8BF0127C1
:1063C0000123FAB219212846FFF7C0FE044610B98E
:1063D0004FF42A72DDE70123082212212846FFF735
:1063E000C1FF044610B940F2AF22D2E7002E14BF1D
:1063F00003220222012342F0800218212846FFF7DF
:10640000A5FE04460028C8D140F2B922C1E700BF6A
:10641000E5CE0B00DCE303202DE9F7430A460546F1
:106420000F464F484F49FDF71DFF00212846FFF753
:1064300099FE044648B940F2F7124B494848FFF725
:1064400077FD204603B0BDE8F08301231A463021D2
:106450002846FFF787FF044610B940F20522ECE713
:106460001022012311462846FFF71BFF044610B9EE
:106470004FF40372E1E70123262213212846FFF798
:1064800065FE044610B940F21322D6E701260096B5
:106490003346FC2211212846FFF7B6FE044610B908
:1064A00040F21B22C9E7002239462846FFF764FF65
:1064B000044610B940F22222BFE700960223772259
:1064C00010212846FFF7A0FE044610B940F22B2207
:1064D000B3E7334604221C212846FFF743FF044656
:1064E00010B940F23222A8E700961823E3221121C6
:1064F0002846FFF789FE044610B940F239229CE78E
:106500003346C02217212846FFF720FE044610B963
:106510004FF4107291E701F00BFFDFF85490DFF8B1
:1065200040804FF47A7106464F4301F001FF801B13
:10653000B8420ED2012217212846FFF7BDFD494679
:1065400002464046FDF78EFE4FF47A7002F05CFA88
:10655000EBE706490248FFF7EBFC04F09EFB70E70F
:10656000DCE3032010CF0B0005CF0B0036CF0B0070
:1065700021CF0B002DE9F3479DF828A005460C46D6
:1065800091461F46BAF1000F02D0406802F0BAFCF3
:1065900007B3202F3E4628BF20267F2C26D833194C
:1065A000802B01D9C4F18006012304223F21284613
:1065B000FFF777FE002364F07F0100934A463346DD
:1065C000C9B22846FFF7E4FC804628B13444BF1B1B
:1065D000B144DDE74FF00108BAF1000F02D068685E
:1065E00002F099FC404602B0BDE8F0870123042286
:1065F0003F212846FFF7B6FEDCE72DE9F3479DF87B
:1066000028A005460C4691461F46BAF1000F02D05D
:10661000406802F077FC07B31F2F3E4628BF1F26B5
:106620007F2C26D83319802B01D9C4F18006012391
:1066300004223F212846FFF734FE002364F07F0147
:1066400000934A463346C9B22846FFF743FD8046C9
:1066500028B13444BF1BB144DDE74FF00108BAF163
:10666000000F02D0686802F056FC404602B0BDE858
:10667000F087012304223F212846FFF773FEDCE761
:1066800030B585B00D68D1E9043203954D680295A7
:106690008D680195C96800910133044902F26C725A
:1066A000044604F093FA204605B030BD48CF0B00F5
:1066B00003090A2200F00F0002FB0300704738B5FF
:1066C000044600781546FFF7F3FF08606078FFF78F
:1066D000EFFF4860A078FFF7EBFF8860E078FFF7F6
:1066E000E7FFC8602079FFF7E3FF013808612DB9A3
:1066F000651D2878FFF7DCFF886138BD6079FFF7FA
:10670000D7FF6430A51D4861F3E7000070B5012391
:1067100088B00D461A4610210446FFF7A4FDF0B1DB
:1067200008230126204600960DEB03020021FFF707
:106730002FFC044698B1324629460DF10900FFF7B7
:10674000BEFF04A8FFF79CFF0848049A0849FDF71C
:1067500089FD04A804F080F9204608B070BD242209
:106760000021284605F0B8FC0024F5E7DCE303200F
:1067700066CF0B0030B58BB00D4601A9FFF7C6FF01
:10678000044620B101A802F037F9C5E9000120460E
:106790000BB030BD0A2390FBF3F103FB110091FB1A
:1067A000F3F203FB121240EA0210C0B2704770B558
:1067B000054600680C461646FFF7ECFF2070686837
:1067C000FFF7E8FF6070A868FFF7E4FFA070E868D3
:1067D000FFF7E0FFE07028690130FFF7DBFF207171
:1067E0002EB9661DA869FFF7D5FF307070BD6A69C4
:1067F000642392FBF3F003FB1020FFF7CBFFA61DF1
:106800006071EFE7F0B587B0054602A816460C4662
:10681000FFF736FF1E48029A1E49FDF723FD02A826
:1068200004F01AF916B1686802F06CFB20460122E8
:106830000DF1090100278DF80870FFF7B8FF01235B
:106840001A4610212846FFF78DFD0446E8B10823BB
:1068500000970DEB030239462846FFF73BFC044640
:1068600060B101231A4610212846FFF71AFD16B120
:10687000686802F050FB204607B0F0BD4FF48D72FF
:1068800005490348FFF754FBF1E74FF48F72F7E730
:10689000DCE3032074CF0B0082CF0B0013B504465A
:1068A0006846CDE9002305F0C9FB9DF8102001469C
:1068B0002046FFF7A7FF02B010BD0000F0B5057E2F
:1068C00089B0044675BB04F0B7FB58B30026002717
:1068D00004A92846CDE9046701F0B6FF10B30125ED
:1068E000257604F0C6FBC317CDE9020302460095E6
:1068F0002046FFF7D3FF02A92046CDE90267FFF744
:1069000039FF134B13491B68009304A8DDE90223E8
:1069100004F050FB1048049A1049FDF7A3FC04A8AA
:1069200004F09AF863698BB101F002FD2369C01A83
:10693000636998420AD301F0FBFC4FF0FF312061FC
:10694000204609B0BDE8F040FFF70CBC09B0F0BD2F
:10695000D4DE0320ACE60320DCE303209DCF0B0054
:1069600030B504468BB011B1406802F079FA204688
:10697000FFF764FB06AD002837D02046FFF79CFCEC
:1069800001231A4610212046FFF76DFCD8B104F010
:1069900053FBC0B902A92046FFF7ECFEDDE9020176
:1069A00004F04EFA134B14491B6800932846DDE9A6
:1069B000022304F0FFFA1148069A1149FDF752FC30
:1069C000284604F049F80F4B06930F4B09930F4BE1
:1069D00008934FF40062002302A80095FDF764FFBE
:1069E0002846FDF7F5FB0BB030BD09490348FFF71A
:1069F0009FFAE8E7D4DE0320ACE60320DCE30320C3
:106A0000B3CF0B00E9610B007F410B006B410B0022
:106A1000D0CF0B00014B024A1A607047DCE3032021
:106A2000E8CF0B00704710B510210446FDF737FB87
:106A3000204610BD0368C9B29B68184730B5034DA6
:106A4000C0E90223C0E9005130BD00BF14D00B00E3
:106A5000406802F005BA10B50446006802F05BFA1F
:106A6000204610BD2DE9F7430446406801900D46CD
:106A700016461F4602F046FAA7B1E168606841F089
:106A8000500102F020FA290A6068FFF7D3FF294677
:106A90006068FFF7CFFF6068002102F02FFA48B16D
:106AA000002400E0012401A8FFF7D5FF204603B031
:106AB000BDE8F083202F217B6068B84628BF4FF0E7
:106AC00020080123424641F0500102F0E6F904F0AB
:106AD00045FD03681B6998474045E1DB06EB080963
:106AE00004F03CFD03685B69984706F8010B4E45CE
:106AF000F6D14544A7EB0807BEE72DE9F74F04465A
:106B0000406801900E4690461D4602F0FBF94FF09A
:106B10000109B9F1000F2AD04DB3E168606841F076
:106B2000500102F0D0F9310A6068FFF783FF606816
:106B30003146FFF77FFFA5F11E0A4746A6EB080B7B
:106B4000606817F8011B0368013D9B68984755452D
:106B50000BEB0706B84601D0002DF1D1606801218A
:106B600002F0CCF90028D7D04FF00009D1E701A8F6
:106B7000FFF771FF484603B0BDE8F08F2DE9F04301
:106B80008BB00E4615468046406801901C4602F0C8
:106B9000B9F9AE4229D2264425448CB11E2C274691
:106BA000D8F8003028BF1E27F61BD3F8089002AA99
:106BB0003B4631464046ED1BC84748B9002400E03B
:106BC000012401A8FFF747FF20460BB0BDE8F08382
:106BD000D8F8003002AAD3F80C9029463B4640462C
:106BE000C8470028EAD0E41BD7E7E9D9002CE7D052
:106BF000D8F800301E2C274628BF1E27D3F808904F
:106C000002AA3B4631464046C8470028D6D0D8F8AD
:106C1000003002AAD3F80C9029463B464046C847AC
:106C20000028CBD03E443D44E41BDFE70160027105
:106C3000704700680368DB681847006803681B6AD0
:106C40001847006803689B6A184700797047006816
:106C500003689B6B184737B505460C4619460192E9
:106C6000FFF7F5FF2868019A03685B69214603B0C6
:106C7000BDE83040184700680368DB6B184738B53B
:106C80000446006803680D465B6B9847294620461A
:106C9000FFF7F1FF257138BD38B504460068036879
:106CA0009B689847054618B121792046FFF7E7FF12
:106CB000284638BD006803681B6C184700680368E5
:106CC0005B6C184700680368DB6C18470068036852
:106CD0001B6D1847006803685B6D18470068036800
:106CE0009B6D18472DE9F843044600680A9F1E462D
:106CF00003681B69DDE9089898470546C8B11EB1CD
:106D00002046FFF7E3FF3070B9F1000F04D02046B2
:106D1000FFF7D8FF89F80000B8F1000F04D0204633
:106D2000FFF7D8FF88F800001FB12046FFF7D6FF15
:106D300038702846BDE8F883012070470379032B9B
:106D4000FCD001207047002070478171704741716D
:106D50007047C17270470173704741737047837BFE
:106D600023EA0202114381737047C0797047007AA9
:106D70007047407A7047807A7047008A00B2704747
:106D80000079704701717047408A80B27047808AED
:106D900080B27047C08A80B2704738B505460C464D
:106DA0002B682846DB68984728B9002CF8D0204685
:106DB00001F02AFEF4E738BDF8B505460F46144643
:106DC00001F0B6FA064601F0B3FA801BB8420AD2C7
:106DD0002B682846DB68984730B9002CF3D0204652
:106DE00001F012FEEFE70020F8BD70B504460E4634
:106DF00001F09EFA054601F09BFA401BB04204D216
:106E00002379032BF7D0012070BD0020FCE770B57B
:106E1000C3690446B3B101F08BFA642605462368C2
:106E200020461B6B984768B101F082FAE369401B6A
:106E3000984209D80A21012003F037FD704301F080
:106E4000E3FDECE7012070BD0020FCE7064A02608C
:106E5000FF210022027141714282C17282828181CE
:106E60008273C282C261704730D00B007047704796
:106E70007047704770474171704781717047017169
:106E80007047000030B5034D056001714271837198
:106E900030BD00BFB0D00B00704710B510210446C4
:106EA000FDF7FDF8204610BD0EB403B503AB00217D
:106EB00053F8042B019303F0BCFC02B05DF804EB23
:106EC00003B0704773B5044608462279A36832B10F
:106ED000A3B90B4902B0BDE8704003F0A1BB094A59
:106EE000267B094D0949647B012E18BF2946CDE94F
:106EF00000140749FFF7D8FF02B070BD054AEFE75D
:106F0000EDD00B0089D40B00E9D00B00E5D00B00CD
:106F100003D10B00DCD00B0010B50446FFF7B2FF25
:106F2000054B2360054BA3600123237300232361DA
:106F3000A382204610BD00BF3CD10B0028D10B001E
:106F400013B50B4C2178BFF35B8F11F001010BD10E
:106F500020460191FDF7B2F8019928B1054803F0E8
:106F6000BBFC2046FDF7AFF8024802B010BD00BFE1
:106F7000E4E30320E8E3032007B50191FFF7E0FF16
:106F8000019903B05DF804EB03F05EBD08B5FFF7AF
:106F9000D7FFBDE8084003F05DBD08B5FFF7D0FF9F
:106FA000BDE8084003F057BD10B50379042B20D08D
:106FB000032B20D0022B20D0114A1249012B18BFDD
:106FC0000A4641798379013918BF012133B1012B78
:106FD00004D0022B02D0032B18BF0023002404731B
:106FE000026101754375FFF7ABFFBDE8104003F088
:106FF0007DBC054AE5E7054AE3E7054AE1E700BF4E
:1070000080841E0040420F000024F40000127A0029
:1070100000093D0008B5FFF793FFBDE8084003F005
:1070200079BC10B50446FFF78BFF04F10801BDE8F9
:10703000104003F09BBC08B5FFF782FFBDE8084095
:1070400003F07ABC08B5FFF77BFF08BD00230248B8
:107050001A461946FFF760BFF0E30320012A05D165
:10706000007A0B781B1A584258417047002070472D
:107070002DE9F047254C012386B02370637000236F
:107080000F46A17000930322FF232146064600F01D
:10709000B7FB20B10025284606B0BDE8F087FA23EB
:1070A0008DF8173001F044F906F10409804608F51F
:1070B0007A6501F03DF9291A0029EBDD002289B239
:1070C0004846FFF7BEFD0028F3D00023CDE9023388
:1070D000CDE900330DF117022146304600F09AFB4E
:1070E00005460028E3D09DF81730012BDFD994F82E
:1070F00000A0BAF1020FDAD14846FFF7E7FD534688
:1071000002463946304600F0F3FAC4E708E40320AB
:10711000012A2DE9F34107460E4614463BD94D7925
:10712000022D30D100F10408C97901914046FFF7E2
:10713000CDFD083C2B4602460199384600F0D8FAAE
:10714000E5B206F1080300242246954204F1010449
:10715000E4B204D913F8012B397A9142F4D104F145
:1071600008010E44A54216D916F8011B01914046AC
:10717000FFF7ACFD01340246019902233846E4B220
:1071800000F0B6FAEEE7032D05D1897902B0BDE82B
:10719000F04100F096BA02B0BDE8F08110B50446A7
:1071A00000F0E6FA014B2360204610BD70D10B00C1
:1071B0002DE9F047F92A9DF8209006460F4614461F
:1071C0001D4625D8FF2B14D1DFF848804046002308
:1071D0002246394600F8013B04F056FF621CCDF808
:1071E00020902B4641463046D2B2BDE8F04700F031
:1071F00007BB194600F021FA0028E5D1336829467B
:107200009B68304698470028DED10220BDE8F08711
:107210000120FBE708E403202DE9F04F89B09846F0
:10722000FA238DF81A300DF11F0303930DF11E039D
:1072300002935D4E0DF11D03019307AB0093894648
:1072400017460DF11B030DF11A023146DDE912BAA2
:10725000054600F0DFFA044620B90024204609B0B4
:10726000BDE8F08F9DF81A3073B3327862BBB8F185
:10727000000F03D09DF81B2088F80020BBF1000F01
:1072800003D09DF81C208BF80020BAF1000F03D02A
:107290009DF81D208AF80020149A1AB114999DF8BF
:1072A0001E200A70159A1AB115999DF81F200A70B0
:1072B0003A783E49013BDBB29A4288BF3B703A784C
:1072C000484604F0E1FEC9E79DF81C20FF2AC4D11E
:1072D000012BC2D93278012ABFD12A7A9DF81B40EE
:1072E000A242BAD0DF1E3249FFB200235FFA83F810
:1072F000474506D911F8010B824203F10103F5D18C
:10730000ABE705F104094846FFF7E0FC022302461B
:107310002146284600F0ECF995F8173193B1224C3C
:10732000A31BDBB29F420CD9E17805914846FFF7D9
:10733000CDFC059902460223284600F0D9F9013414
:10734000EEE7B8462B687278DB681A4928469847FA
:10735000044660B10223002433709DF81A209DF882
:107360001B3011490094284600F04AFA76E795F858
:10737000163143457FF671AF95F81731002B3FF476
:107380006CAF9DF81A202B7A07493E440132F37006
:107390009DF81B300190D2B200932846FF238DF850
:1073A0001A2000F0F7F959E708E4032009E4032064
:1073B0000BE403200AE40320F0B585B00546043051
:1073C0000E460392FFF782FC039A07463146284691
:1073D00000F04AF90228044601D005281BD1317873
:1073E000284600F06EF972782B7A9A4213D00B4C33
:1073F0000323237033786370717802233A4628465A
:1074000000F076F900230093214673780222284683
:1074100000F0F6F90446204605B0F0BD08E403206C
:1074200010B50446FFF702FCC8230021E3810323C3
:10743000A160217323744FF4807204F1110004F0F1
:107440004BFE204610BD1FB504460192FFF732FCEB
:10745000204600228021FFF731FC2122019B8DF87C
:107460000F200DF10F0101222046FFF7F4FB20460B
:10747000FFF7E3FB04B010BD2DE9F04F057B0135AC
:10748000EDB287B0044689469246984605730027B8
:10749000227C3B469A4207F10107FFB26BD3294693
:1074A0002046FFF707FC012F0DBFC022802240219C
:1074B00000212046FFF702FC43465246494620463B
:1074C000FFF7C9FB2046FFF7B8FBB8F1FF0F54D018
:1074D000012F82BFA3680133A36000F029FF4FF49E
:1074E000807183460020E68903F0DFF9704348BFCE
:1074F000FF3006EB20261BFA86F600F019FF301A43
:107500000028C5DD81B200222046FFF79AFB002843
:10751000F3D00DF1170302930DF11603019300222E
:107520000DF115030093114605AB2046FFF7DAFB7A
:107530000028E2D09DF814209DF9173042450ED165
:1075400094F804C09DF815108C4508D1002B08DA7A
:107550009DF81630AB42D0D107B0BDE8F08F002BBC
:10756000CBDBA1189DF81630497C9942C5D1204645
:10757000FFF769FFC1E70020EEE70120ECE72DE906
:10758000F04389B0CDE90421DDE91098129F04464B
:107590001E46FFF74EFBDDE9042120B900252846F1
:1075A00009B0BDE8F0830DF11F0302930DF11E0336
:1075B00001930DF11D030093204607ABFFF792FBEB
:1075C00005460028EAD09DF91F30002BE6DB227922
:1075D0009DF81D309A4206D19DF81C209DF81E1082
:1075E0002046FFF730FF9DF81F209DF81C109DF8E6
:1075F0001E3012F0400F0C4402D0607C9842CDD077
:1076000006B13170B9F1000F03D09DF81D1089F853
:107610000010B8F1000F01D088F8003007B13A70BF
:107620006374BCE7704710B504460430FFF734FBC1
:1076300010B11E2384F8163110BD10B50246002388
:1076400092F818418C4208D192F81A412CB103EB00
:10765000430303F58C73184410BD0133322B02F140
:107660000302EDD10020F7E737B50B78FF2B054675
:107670000C4606D019460192FFF7DFFF58B1437858
:10768000019A2146281DFFF7F7FE002814BF0020AD
:10769000052003B030BD0220FBE710B501EB41032C
:1076A0000446C1F1310203F58C7003F21B1102EBA9
:1076B00042022144204404F0E7FC002384F8AD3169
:1076C00010BD38B50A46002300F58C7403EB430562
:1076D000D9B2655D954203D1FFF7DFFF012038BDC8
:1076E0000133322BF2D10020F9E70021FFF7D5BF9B
:1076F000F8B516461F4604460D46002300F58C7269
:1077000003EB4300115CA94205D1204480F81961C4
:1077100080F81A71F8BD0133322BF1D1002304F542
:107720008D7203EB4300115C19B9204480F81851A5
:10773000ECE70133322BF4D12046FFF7D6FF204689
:1077400004F1960390F81A212AB980F8185180F8AC
:10775000196180F81A7103309842F3D1DAE700F129
:107760009603002280F81A2103309842FAD170471C
:1077700010B504460430FFF753FE054B23604FF469
:107780008F732046A4F81631FFF7E9FF204610BD9D
:1077900088D10B002DE9F3470446406801911F464C
:1077A00003689DF828A09B699DF82C901646984781
:1077B00006F1050880451CD8104D019985F801A0F7
:1077C0000023AB7094F81531EB705A1C84F8152126
:1077D000681D32462F7085F8049004F055FC23682C
:1077E0005B685FFA88F22946204602B0BDE8F047A0
:1077F0001847012002B0BDE8F08700BF02E5032072
:1078000013B59DF810400194047A0094FFF7C2FF6D
:1078100002B010BD2DE9F04F87B01F46FF238DF851
:1078200013300DF117030293DFF8D0900DF116031A
:1078300001930DF11503009304468846164605ABE7
:107840000DF1130249460430DDE910BAFFF797FE47
:10785000054608B9002538E023689DF813201B6809
:1078600049462046984799F80030227A9A4201D03A
:10787000FF2B2ED117B1214B5B783B70BBF1000F72
:1078800003D01E4B1B788BF80030BAF1000F03D0E9
:107890001A4BDB788AF80030129B1BB1174B129AF7
:1078A0001B791370139B1BB1144B139A9B781370A5
:1078B0009DF8133032781249053BDBB29A4288BFFB
:1078C00033703278404604F0DFFB284607B0BDE84D
:1078D000F08F99F802305A1C89F8022094F816218A
:1078E0009A42B7D994F81731002BB3D023689DF88A
:1078F00013205B68494620469847ABE702E5032022
:1079000007E5032010B50446006A0368DB68984762
:1079100094F82400FF2802D0012103F09DFD236884
:107920002046DB6F9847642001F06EF8012010BDFF
:1079300090F82400002103F0A0BD90F8240001215C
:1079400003F09BBD70B504460D461646FFF77EFA60
:10795000034B2360266284F82450204670BD00BF8C
:1079600098D10B0038B50446006A03681B6A0D46BF
:107970009847236820469B6F9847206A036805F064
:107980007F011B689847206A036800211B6898479D
:1079900023680546DB6F20469847206A03685B6AC8
:1079A0009847284638BD70B50446006A03681B6ACC
:1079B00016460D469847236820469B6F9847206AD5
:1079C000036845F080011B6898470546206A0368F4
:1079D00031461B689847012000F0A2FC236820462E
:1079E000DB6F9847206A03685B6A9847284670BD3A
:1079F000F8B50446006A1E4603681B6A0F46154622
:107A00009847236820469B6F9847206A036807F0D1
:107A10007F011B6898472E440746B54207D0206A6D
:107A2000036800211B68984705F8010BF5E72368F8
:107A30002046DB6F9847206A03685B6A98473846A0
:107A4000F8BDF8B50446006A1E4603681B6A0F4677
:107A500015469847236820469B6F9847206A03681D
:107A600047F080011B6898472E440746B54206D070
:107A7000206A15F8011B03681B689847F6E723681E
:107A80002046DB6F9847206A03685B6A9847384650
:107A9000F8BD006A03689B6A184701207047FB2005
:107AA0007047704710B50379052B044610D0036862
:107AB0000521D3F880309847072201212046FFF79F
:107AC00072FF802240212046FFF76DFF05232371BE
:107AD0002379052BFCD0207E10BD10B54FF4987192
:107AE0000446FCF7DCFA204610BD10B50379012BE3
:107AF00004460BD003680121D3F880309847002258
:107B000001212046FFF74FFF01232371012010BD03
:107B1000F8B50368DB6804460F46154698470646E5
:107B2000B0B187B17DB194F828302A78033B9342F5
:107B3000DEBF94F82830043B2B702A7804F12D0125
:107B4000384604F0A1FA002384F8283184F828305C
:107B50003046F8BD142938B505460C4614DC012919
:107B600014DD112913DD07224D212846FFF71BFFE5
:107B7000033C64B2A21E62F07F022846D2B2BDE886
:107B800038400921FFF70FBF1424ECE70224042238
:107B90004D212846FFF707FFECE7000038B5044603
:107BA00015461A46FFF7CEFE094B2360FF2200233D
:107BB00084F82720012284F8283184F82C3184F8B5
:107BC000265084F82B2184F82530204638BD00BF8C
:107BD00030D20B0090F82830032B1BD990F82930B5
:107BE000C37190F82A30037290F82B30437290F8EA
:107BF0002C308372837933B9C37942799A4202D0A7
:107C0000C379FF2B06D1838A01339BB28382012380
:107C100080F828317047000038B504462DED028BFE
:107C200010EE100AB0EE408A03F08CFE17A3D3E9E1
:107C3000002303F0DFFE17A3D3E9002304F004F8C8
:107C400004F0B0F906210546C0F307422046FFF7CD
:107C5000AAFEC5F3072207212046FFF7A4FEEAB2D9
:107C600008212046FFF79FFEDFED077AB4EEE78A92
:107C7000BDEC028BF1EE10FAACBF01230023012012
:107C800084F8293138BD00BF00C042440000000024
:107C900080842E410000000080844E4010B503799E
:107CA000022B04460BD003680221D3F8803098479A
:107CB000012211462046FFF776FE0223237110BDF4
:107CC00070B512210446FFF74DFE1C2105462046E3
:107CD000FFF748FEFF22064612212046FFF763FE0B
:107CE0002379042B07D115F0A00F17D194F82B316D
:107CF0000BB1700612D52379042B01D1690622D469
:107D00002379032B01D12A0768D42379052B0ED1BF
:107D10006B070CD505F00105257663E0638A013316
:107D20009BB26382002384F8283184F82830FF2234
:107D300012212046FFF737FE2046FF22BDE87040A3
:107D40001221FFF730BE13212046FFF70BFE102152
:107D500005462046FFF706FE0D2102462046FFF7A6
:107D600022FE04F129022B4600212046FFF740FEA7
:107D7000192184F828502046FFF7F4FD40B200286E
:107D8000B8BF0330801084F82A011A212046FFF77B
:107D9000E9FD94F92A3100B2002B2082A9BF238A81
:107DA000228A1BB21B01B2BF9B180F2293FBF2F376
:107DB0001BB2238294F829316BB1238A9D3B1BB2FD
:107DC00023822046FFF706FF94F82831002BAED01F
:107DD000FFF764FFABE7238AA43BF0E7E38A0133B4
:107DE0009BB2E3822046F3E7024B186808B1FFF725
:107DF00067BF704704E60320024B586808B1FFF7DD
:107E00005FBF704704E60320024B986808B1FFF794
:107E100057BF704704E6032010B50379042B0446CE
:107E200010D003680421D3F880309847052201213F
:107E30002046FFF7B8FD002240212046FFF7B3FDA2
:107E40000423237110BD10B50379032B044605D01C
:107E5000FFF7E2FF94F82801C0B210BD0020FCE754
:107E600010B50379032B044610D003680321D3F81F
:107E700080309847032201212046FFF794FD4022DD
:107E800011462046FFF78FFD0323237110BDFB2A07
:107E9000F8B504460F46154602D900263046F8BD0F
:107EA00003681B6A98472046FFF7F8FE23682046C0
:107EB000DB6A984706460028EFD000220D212046B5
:107EC000FFF771FDE27A00212046FFF76CFD227B6F
:107ED00000212046FFF767FD627B00212046FFF767
:107EE00062FDA27B00212046FFF75DFD2B463A464E
:107EF00000212046FFF7A5FD2A1DD2B222212046EF
:107F0000FFF751FD2046FFF7ABFFC7E710B504466A
:107F100080F8252072B181F3040242F07002D2B2DF
:107F20000921FFF740FD20460422BDE810404D2105
:107F3000FFF739BDBDE81040FFF70CBE38B50C4661
:107F400005460A781D21FFF72EFD62781E2128467E
:107F5000FFF729FDA27828462621BDE83840FFF723
:107F600022BD0000052913B50FD8094B01EB4101D3
:107F70005C185A5AA378ADF8042001A98DF8063090
:107F8000FFF7DCFF012002B010BD0020FBE700BFBF
:107F900018D20B0038B50A0A05460C462021FFF717
:107FA00002FDE2B228462121BDE83840FFF7FBBCC4
:107FB00073B50446FFF7A6FC064618B900263046FE
:107FC00002B070BD94F82650FF2D54D029462046AB
:107FD000FFF75FFD802201212046FFF7E4FC0A2025
:107FE00000F012FD01212046FFF7BCFC8028E5D1FE
:107FF00094F82600FF281CD0002103F02DFA94F8F5
:108000002730FF2B07D1264A1378032BD6D8591CCB
:10801000117084F8273094F82720224B43F822402F
:1080200062BB214900924FF0FF330122A8B200F059
:108030007DFF00220E212046FFF7B5FC00220F2114
:108040002046FFF7B0FC2046FFF728FE002120461F
:10805000FFF788FF08212046FFF79CFF9FED130ADA
:108060002046FFF7D9FD002384F825300D21204656
:10807000FFF770FDA3E74FF0FF35ABE7012A4FF0A4
:10808000000304D100930A494FF0FF33CEE7022AE0
:1080900094D1009307494FF0FF330122C6E700BF98
:1080A00001E6032004E60320E97D0B000000D9432C
:1080B000F97D0B00097E0B00704703685B68184769
:1080C00010B58369044633B131B1236820469B68FB
:1080D00098470023A36110BD00F02AF9A369C01AD4
:1080E000E3699842F1D2F6E710B5C36904461BB1C3
:1080F00000F01EF9A06110BD0368BDE810409B6848
:10810000184700F0EDB810B504460430FDF728FA22
:108110002368E1685B692046984718B923682046C0
:108120009B6998476068FFF7ECFF012010BD0000D5
:10813000F0B521F00304184F184E194D0444A04225
:108140000CD050F8043B7B434FEA734373435A40CF
:108150004FEAF24202EB82022A44F0E701F0030404
:1081600004440023A04204D014F8015D45EA03232F
:10817000F8E70948434309484FEA73434A405843E4
:108180005040084B80EA10405843074B80EA50307B
:10819000584380EA1040F0BD512D9ECC9335871B8B
:1081A000646B54E66BCAEB8535AEB2C2F8B50446D3
:1081B0000430FDF7D5F9A36800229F689A60A6688D
:1081C000054AF1883046FFF7B3FFB760054660689F
:1081D000FFF797FF2846F8BD3F2A1C8573B50D466B
:1081E0000446FFF7E3FF0B2D064623D9A368226957
:1081F000196891421FD19988A28A91421BD1D988CE
:10820000AAB2914217D89A68824214D1E268AA426F
:1082100005D900215955E2680135AA42FAD8D4E9B6
:1082200002322046DA80A568FFF7C0FFA86001206F
:1082300002B070BD9DB1A1680A6892B188688B8850
:108240000190C988084800910849FDF77FFECDE9F3
:108250000056A38A226906490348FDF777FE0020ED
:10826000E6E71046E4E700BF58E60320B4D20B006F
:10827000E5D20B0038B50446C2688068002103F0DF
:108280002BFFA36822691A60A368A28A9A80D4E9A6
:1082900002322046DA80A568FFF788FFA86038BD63
:1082A00008B5024B1B685B6C019308BD74020300A8
:1082B00008B5024B1B685B6C019308BD48020300C4
:1082C00008B5024B1B689B6C019308BD4802030074
:1082D00008B5024B1B68DB6C019308BD4802030024
:1082E00008B5024B1B685B6D019308BD4802030093
:1082F00008B5024B1B685B6D019308BD3402030097
:1083000008B5024B1B685B6E019308BD3402030085
:1083100008B5024B1B685B68019308BD1802030097
:1083200008B5024B1B68DB68019308BD1802030007
:1083300008B5024B1B685B69019308BD1802030076
:1083400008B5024B1B689B6D019308BD1802030022
:1083500008B5024B1B68DB6D019308BD18020300D2
:1083600008B5024B1B685B6E019308BD1802030041
:1083700008B5024B1B689B6E019308BD18020300F1
:1083800008B5024B1B681B68019308BD2C02030053
:1083900008B5024B1B685B68019308BD2C02030003
:1083A00008B5024B1B689B68019308BD2C020300B3
:1083B00008B5024B1B68DB68019308BD2C02030063
:1083C00008B5024B1B681B69019308BD2C02030012
:1083D00008B5024B1B685B69019308BD2C020300C2
:1083E00008B5024B1B689B69019308BD2C02030072
:1083F00008B5024B1B68DB69019308BD2C02030022
:1084000008B5024B1B681B6B019308BD2C020300CF
:1084100008B5024B1B68DB68019308BD2802030006
:1084200008B5024B1B689B69019308BD2802030035
:1084300008B5024B1B68DB69019308BD28020300E5
:1084400008B5024B1B681B6A019308BD2802030094
:1084500008B5024B1B685B6A019308BD2802030044
:1084600008B5024B1B689B6A019308BD28020300F4
:1084700008B5024B1B68DB6A019308BD28020300A4
:1084800008B5024B1B681B6B019308BD2802030053
:1084900008B5024B1B685B6B019308BD2802030003
:1084A00008B5024B1B681B6C019308BD2802030032
:1084B00008B5024B1B689B6C019308BD28020300A2
:1084C00008B5024B1B68DB6C019308BD2802030052
:1084D00008B5024B1B681B6D019308BD2802030001
:1084E00008B5024B1B685B69019308BD6402030079
:1084F00008B5024B1B689B68019308BD6802030026
:1085000008B5024B1B68DB68019308BD68020300D5
:1085100008B5024B1B681B68019308BD30020300BD
:1085200008B5024B1B685B68019308BD300203006D
:1085300008B5024B1B685B69019308BD300203005C
:1085400008B5024B1B68DB69019308BD30020300CC
:1085500008B5024B1B681B6A019308BD300203007B
:1085600008B5024B1B685B6A019308BD300203002B
:1085700008B5024B1B68DB6B019308BD300203009A
:1085800008B5024B1B681B6C019308BD3002030049
:1085900008B5024B1B685B6C019308BD30020300F9
:1085A00008B5024B1B689B68019308BD3C020300A1
:1085B00008B5024B1B68DB68019308BD3C02030051
:1085C00008B5024B1B681B69019308BD3C02030000
:1085D00008B5024B1B685B69019308BD3C020300B0
:1085E00008B5024B1B689B69019308BD3C02030060
:1085F00008B5024B1B68DB69019308BD3C02030010
:1086000008B5024B1B681B6A019308BD3C020300BE
:1086100008B5024B1B689B6A019308BD3C0203002E
:1086200008B5024B1B68DB6A019308BD3C020300DE
:1086300008B5024B1B681B6C019308BD3C0203008C
:1086400008B5024B1B681B68019308BD4C02030070
:1086500008B5024B1B685B68019308BD4C02030020
:1086600008B5024B1B689B68019308BD4C020300D0
:1086700008B5024B1B681B69019308BD4C0203003F
:1086800008B5024B1B685B69019308BD4C020300EF
:1086900008B5024B1B689B69019308BD4C0203009F
:1086A00008B5024B1B68DB69019308BD4C0203004F
:1086B00008B5024B1B681B6A019308BD4C020300FE
:1086C00008B5024B1B689B6A019308BD4C0203006E
:1086D00008B5024B1B685B6B019308BD6002030089
:1086E00008B5024B1B681B6D019308BD60020300B7
:1086F00008B5024B1B685B6D019308BD6002030067
:1087000008B5024B1B68DB6E019308BD60020300D5
:1087100008B5024B1B681B6F019308BD6002030084
:1087200008B5034B1B68D3F89830019308BD0000CF
:108730006002030008B5024B1B681B68019308BD6B
:108740002002030008B5024B1B685B68019308BD5B
:108750002002030008B5024B1B685B69019308BD4A
:108760002002030008B5024B1B681B6A019308BD79
:108770002002030008B5024B1B68DB6A019308BDA9
:108780002002030008B5024B1B689B6D019308BDD6
:108790002002030008B5024B1B68DB6D019308BD86
:1087A0002002030008B5034B1B68D3F888300193FF
:1087B00008BD00002002030008B5034B1B68D3F876
:1087C0009430019308BD00002002030008B5034B5C
:1087D0001B68D3F8A830019308BD000020020300F5
:1087E00008B5034B1B68D3F8AC30019308BD0000FB
:1087F0002002030008B5034B1B68D3F8B030019387
:1088000008BD00002002030008B5024B1B689B68EE
:10881000019308BD4402030008B5024B1B685B6965
:10882000019308BD4402030008B5024B1B68DB69D5
:10883000019308BD4402030008B5024B1B681B6B83
:10884000019308BD4402030008B5024B1B685B6B33
:10885000019308BD4402030008B5024B1B68DB6BA3
:10886000019308BD4402030008B5024B1B685B6816
:10887000019308BD4002030008B5024B1B689B68CA
:10888000019308BD4002030008B5024B1B68DB687A
:10889000019308BD4002030008B5024B1B681B6929
:1088A000019308BD4002030008B5024B1B685B69D9
:1088B000019308BD4002030008B5024B1B689B6989
:1088C000019308BD4002030008B5024B1B68DB6939
:1088D000019308BD4002030008B5024B1B681B6AE8
:1088E000019308BD4002030008B5024B1B681B6BD7
:1088F000019308BD4002030008B5024B1B685B6B87
:10890000019308BD4002030008B5024B1B681B6CB5
:10891000019308BD4002030008B5024B1B685B6C65
:10892000019308BD4002030008B5024B1B681B6899
:10893000019308BD1C02030008B5024B1B685B686D
:10894000019308BD1C02030008B5024B1B689B681D
:10895000019308BD1C02030008B5024B1B681B698C
:10896000019308BD1C02030008B5024B1B68DB69BC
:10897000019308BD1C02030008B5024B1B685B6A2B
:10898000019308BD1C02030008B5024B1B68DB6A9B
:10899000019308BD1C02030008B5024B1B68DB6B8A
:1089A000019308BD1C02030008B5024B1B681B6C39
:1089B000019308BD1C02030008B5024B1B685B6CE9
:1089C000019308BD1C02030008B5024B1B689B6C99
:1089D000019308BD1C02030008B5024B1B68DB6C49
:1089E000019308BD1C02030008B5024B1B681B6DF8
:1089F000019308BD1C02030008B5024B1B685B6DA8
:108A0000019308BD1C0203000021FFF7A3BE10B5AF
:108A10004368013B0446436063B903689B68984719
:108A2000A368013BA3602BB923682046DB68BDE83F
:108A30001040184710BD70B5D0E90053044605EB4F
:108A40000316AE4204D0284602F006F81035F8E7C7
:108A50002068FFF771FF204670BD10B5044600681E
:108A600008B1FFF7D4FF204610BD000002480023E4
:108A70000360FFF71DBC00BF10E603200022406822
:108A80001146FFF709BF002240681146FFF724BFD7
:108A9000002240681146FFF72FBF40680022FFF711
:108AA00023BF4068002281F00101FFF70DBF0023C2
:108AB00040681A461946FFF7FFBE002340681A4671
:108AC0001946FFF7F1BE002240681146FFF7D4BEF9
:108AD000406800220221FFF7D7BE002340681A46F3
:108AE000FFF7C2BE70B5134B03601825303386B054
:108AF0000E4643602A4600210446083003F0ECFA93
:108B0000002270681146FFF7C7FE78B100212A469F
:108B1000684603F0E1FA69460020ADF80050FFF71F
:108B2000BFFB18B96946204600F0B8F8204606B0E9
:108B300070BD00BF80D30B00084B10B5282422461F
:108B40001846002103F0C8FA054B04804FF0FF32AD
:108B5000426004225A60034A1A6010BD1CE60320DA
:108B600014E6032044D30B007047007B7047037B5F
:108B70004BB10369B3F1004F05D08069B0F10040FB
:108B800018BF012070470020704703681B6A184710
:108B900070B503680D461B690646984702212846B2
:108BA00001F038FE2C210446284601F03DFD3368D3
:108BB00004449B69304698470221284601F02AFE6A
:108BC000204470BDA0F10400FFF7E2BF10B52021E2
:108BD0000446FBF764FA204610BD0000037B7BB11E
:108BE0004369002B0CDB07EE903A9FED077AF8EE15
:108BF000E77A87EE870ADFED057A20EE270A7047CD
:108C0000BFEE000A704700BF00FF7F470000C84268
:108C1000037B63B10369B3F1004F08D007EE903ACC
:108C20009FED047AF8EEE77A87EE870A70479FEDAA
:108C3000020A70470000C84200000000037B7BB1BD
:108C4000C369002B0CDB07EE903A9FED077AF8EE34
:108C5000E77A87EE870ADFED057A20EE270A70476C
:108C6000BFEE000A704700BF00FF7F470000C84208
:108C7000037B63B18369B3F1004F08D007EE903AEC
:108C80009FED047AF8EEE77A87EE870A70479FED4A
:108C9000020A70470000C8420000000030B50D46CF
:108CA00000F108040FCD0FC495E8030084E8030029
:108CB000012030BD002240681146FFF70DBE0022A2
:108CC00040681146FFF718BE40680022FFF70CBE4F
:108CD0004068002281F00101FFF7F6BD00234068E3
:108CE0001A461946FFF7E8BD002340681A461946A0
:108CF000FFF7DABD002240681146FFF7CDBD002224
:108D000040681146FFF7B8BD406800220221FFF716
:108D1000BBBD002340681A46FFF7A6BD024B0322E5
:108D20005A60024A1A60704744E60320BCD30B0025
:108D3000006800F0E7B810B50446016002710AB19E
:108D4000FFF7F6FF204610BD13B50446019102F06F
:108D500029FC019A01462046FFF7EDFF204602B0AC
:108D600010BD006800F0D7B82DE9FF4104461D464C
:108D70000F461646FFF7DCFF36220023CDE900231D
:108D800020684FF001080A236946CDE9028300F00C
:108D90009DF82068036839469B68984720680368F7
:108DA00031469B6898472068036829469B68984726
:108DB0004146206800F0A2F8002820460CBF00259C
:108DC0006FF09F05FFF7CDFF284604B0BDE8F081A6
:108DD00008B5402200230621FFF7C6FF00EAE07035
:108DE00008BD7047F8B5064615460C468F18BC42BC
:108DF00006D0336814F8011B9B6830469847F6E7A5
:108E00002846F8BD007C0022FFF71ABB007C002139
:108E1000FFF71EBB007C0021FFF722BB007C002176
:108E2000FFF726BB007C0021FFF72ABB10B51421F9
:108E30000446FBF734F9204610BD000010B54FF48E
:108E40007A73044608460021C4E90113034B2360EA
:108E500020741146FFF724FB204610BDF8D30B0009
:108E60000023007C1A461946FFF7D2BA7FB50022CC
:108E70001423CDE90122ADF804300B788DF80830C9
:108E80004B680393CB680493007C0B7A059301A98C
:108E9000FFF71EFB07B05DF804FB1FB5003B8DF824
:108EA00000104FF06401039118BF0123694601923D
:108EB0008DF80830FFF7DAFF05B05DF804FB007CA1
:108EC0000022FFF7ADBAC9B2FFF7F9BF7FB50023A3
:108ED000CDE901334A6803921423CA68ADF804301F
:108EE0000B7804920A7A0592007C8DF8083001AA6A
:108EF0001946FFF795FA07B05DF804FB007C0022E5
:108F0000FFF796BA08B50021007CFFF7D1FAB0FA56
:108F100080F0400908BD08B50021007CFFF7D0FAB9
:108F2000B0FA80F0400908BD004700002DE9FF417C
:108F300000241D460F4690460646FFF759FAA54203
:108F40004FF00403ADF80D408DF80C308DF80F4054
:108F5000A2BF9DF828308DF80E3003AC074900946D
:108F600043463A463046A8BF8DF80D50FFF738FA11
:108F7000B0FA80F0400904B0BDE8F081298F0B0001
:108F8000704710B518210446FBF789F8204610BD3C
:108F9000F0B5037D062B8DB00E4600F104074FF0AF
:108FA000000412D000F1080515F8011D0A22304610
:108FB00001F049FBAF42044419D0002CF4D02E211B
:108FC000304601F031FB0444EEE72F236A46394670
:108FD0000A208DF80040FFF783FA684603F019F97C
:108FE00033680246DB6869463046984704462046A7
:108FF0000DB0F0BD10B5054B0446112240F8043BFE
:10900000002103F069F8204610BD00BF20D40B00FA
:109010000346074A10B543F8042B01F1100251F83A
:10902000044B43F8044B9142F9D10A781A7010BDF1
:1090300020D40B0010B59DF8084044EA032343EA0E
:10904000024242EA016104234160037510BD000041
:1090500007B5064B0360CB7800938B784A78097884
:10906000FFF7E8FF03B05DF804FB00BF20D40B005E
:1090700000F11003012213F8101C0129184608D131
:1090800053F8041C02EB4102013A03F11003F2D140
:109090007047022904BF53F8041C5218F4E70EB4B9
:1090A000F0B588B000AF07F13405102155F8042B56
:1090B0007A6004462B467818FD60FFF75DFC0F28A8
:1090C0007A681AD900F1080323F007036E46ADEB66
:1090D000030D411C2B466846FD60FFF74DFC021E48
:1090E00004DD236869469B6820469847B5462037CB
:1090F000BD46BDE8F04003B070470028F7D02368B4
:1091000002469B6807F1100120469847EFE738B503
:109110000B6803604D6843689D42044608D015B152
:109120006B6801336B60606808B1FFF770FC6560C5
:1091300038BD07B503688DF807109B6801220DF153
:109140000701984703B05DF804FB0B461146002267
:1091500010B5C0E90022044683600BB9204610BD5B
:10916000FFF7D5FFFAE78368EBB11A78032A1AD81C
:10917000DFE802F00417021B0520704702685B68F5
:109180005268D05C2D2812D0A0F13003092B0ED9E3
:1091900074280ED066280CD0A0F16E0358425841B6
:1091A0007047062070470020704704207047032056
:1091B00070470220704710B50446FFF7D4FF02281D
:1091C0000ED0C31EDBB2012B14D82268A3685068EE
:1091D0005B68BDE810400A220021184403F0DEB8A5
:1091E0002268A36852685B68D05CA0F1740358429F
:1091F000584110BD0020FCE738B50023C0E900331A
:1092000004460E48C4E90203A9B10B78032B06D02B
:109210008BB9136858684B68C35C6E2B07D0136812
:109220004D6858688B6828445B1BA060E36011465A
:109230002046FFF76CFF204638BD00BF89D40B00E5
:1092400038B500250B46C0E90055C0E90255C0E914
:109250000455044611464BB11A78012A06D103F190
:109260001002DB6882604361FFF751FF204638BD82
:1092700010B54369044663B18068E060013B10307B
:10928000A0602061636113B1FFF7F2FEA0600120CE
:1092900000E0184610BD10B57D210446FFF749FFD8
:1092A00001232371204610BD08B50379012B02D09C
:1092B000022B04D008BD2C21FFF73BFFFAE73A212F
:1092C000FAE710B50446FFF7EFFF20467B21FFF7D2
:1092D00030FF00232371204610BD000013B5044663
:1092E0000191FFF7E1FF2368019ADB6803492046FB
:1092F000984701232046237102B010BD43CE0B00D6
:1093000013B504460191FFF7CFFF2368019ADB688C
:1093100003492046984701232046237102B010BD1F
:10932000CECD0B002DE9F0470D4622219046044694
:10933000FFF7FFFEDFF8A490A8442F464745BA4642
:109340003DD017F8016B222E06D05C2E04D030469B
:1093500002F092FE0028F1D12368AAEB05029B6877
:109360002946204698475C212046FFF7E2FE0D2E55
:109370000AD8072E1CD9A6F10803052B18D8DFE858
:1093800003F00D0F11171315222E01D05C2E0FD1F3
:1093900031462046FFF7CDFE3D46CFE76221F8E794
:1093A0007421F6E76E21F4E76621F2E77221F0E717
:1093B00023683246DB68494620469847ECE7BD42C1
:1093C00005D023687A1B9B682946204698472221AE
:1093D0002046FFF7AEFEBDE8F08700BF2CD40B009F
:1093E00013B50446CDE90021FFF75EFF2046DDE915
:1093F0000021FFF797FF02232046237102B010BD22
:1094000013B50446CDE90021FFF74EFF2046DDE904
:109410000021FFF787FF01232046237102B010BD12
:1094200080680368DB6818477047084611B10B680D
:109430005B6818477047704770477047704738B58A
:1094400004460D4600682E2102F0C7FE2368C31AA9
:109450002B6023B1037803B10130236820601846E4
:1094600038BD10B50C210446FAF719FE204610BD90
:1094700010B504210446FAF712FE204610BD10B5BF
:1094800004210446FAF70BFE204610BDFEF720BF6C
:1094900008B502F0ACFEB0FA80F0400908BD704794
:1094A00010B50C4601F0D8FE844210D002F0BAF894
:1094B000844205D102F0B6F8BDE8104001F065BE67
:1094C0002CB1236820465B68BDE81040184710BDEA
:1094D0000B6803604B68436013B15A6801325A60ED
:1094E000704713B504460846019102F092FE0199B7
:1094F0000246204602B0BDE81040FFF781BF13B519
:1095000004460846019102F084FE23680199DB6855
:109510000246204602B0BDE81040184707B5036870
:109520008DF80710DB6801220DF10701984703B0A1
:109530005DF804FB0EB403B503AB002153F8042B14
:10954000006A019301F075F902B05DF804EB03B015
:1095500070470A6802604A6842600022C0E902223D
:1095600010B502618C688460CC68C4600C698A6044
:10957000CA6004610A6110BD2DE9F74FD0E900848B
:109580004FF0140A00930AFB04F4184BA41017467A
:109590005C434546002C21DD66100AFB06F005EB16
:1095A00000093A46B9F804B0285801915F4528BF30
:1095B0005A4602F036FE002801994FF001030BD104
:1095C0005F4503D1009A13703446E3E7FCD9A61B2C
:1095D00009F11405013EF7E7F9DBF5E7A5EB08050E
:1095E0000248AD10684303B0BDE8F08FCDCCCCCCC1
:1095F0007FB50369057E019103B3F9B1002600F13F
:109600000C04039603A901A8FFF719FF0146A8B1AE
:109610000DF10B03039A8DF80B602046FFF7ACFFAA
:109620009DF80B3053B12368142404FB0034083434
:1096300034F9023C002BA8BFDDB2E3E7284604B0B2
:1096400070BD000010B5094C2378BFF35B8FDB07BA
:1096500009D42046FAF732FD28B12046FAF733FD47
:10966000034802F0E5FC034810BD00BF50E60320AC
:1096700037940B00CCDE032010B5094C2378BFF3E0
:109680005B8FDB0709D42046FAF718FD28B1204686
:10969000FAF719FD034802F0CBFC034810BD00BFE8
:1096A00054E603209F940B00D0DE032038B500253C
:1096B0000446C0E90055C0E904558560856140F85D
:1096C000245FFEF7F5FDFFF7BDFFE061FFF7D4FF74
:1096D00025732062204638BD10B50A4C2378BFF3AD
:1096E0005B8FDB070CD42046FAF7E8FC40B1064854
:1096F000FFF7DCFF2046FAF7E6FC044802F098FC8E
:10970000014810BD4CE603205CE603202D9C0B00B5
:10971000024A034903480023FEF7FABF119A0B00DF
:109720009D990B001D990B0000231A4619461846F7
:10973000FEF7EEBF37B58D6804466846FFF7C8FEF2
:109740006A4629462046FFF77BFD01A8FFF785F909
:10975000204603B030BD37B5CD6804466846FFF7F4
:10976000B7FE6A4629462046FFF746FD01A8FFF7E7
:1097700074F9204603B030BD37B50D69044668461C
:10978000FFF7A6FE6A4629462046FFF7DEFC01A841
:10979000FFF763F9204603B030BD000070B58AB012
:1097A0000D46014604A8FFF7C5FF144E04A8FFF7B5
:1097B0005FFDE8B104A96846FFF7CDFF0298314686
:1097C000FFF766FE044610B12C1E18BF012401A845
:1097D000FFF743F9002CE9D004A96846FFF7CCFF56
:1097E0006846FFF7E8FC286001A8FFF736F9DDE7D7
:1097F00005A8FFF732F90AB070BD00BF32D40B00E4
:1098000037B50C4620461349154602F0F0FC50B916
:1098100001F022FD4FF4165101F00CFD03B0BDE83C
:10982000304001F019BD0C49204602F0E0FC78B947
:109830004FF4165301A928460193FFF7AFFF01F03B
:10984000F1FE019901F09EFC01F0ECFE03B030BD89
:109850000020FBE737D40B003ED40B0070B5D0E9F5
:1098600000531426044606FB0356AE4205D005F10C
:109870000800FFF7F3FF1435F7E72068FFF75CF8FF
:10988000204670BD10B504460C30FFF7E7FF2046B8
:10989000FFF7D1F8204610BD10B5044B044640F840
:1098A000043BFFF7EFFF204610BD00BFD8C60B00FA
:1098B00010B50446FFF7F0FF20462421FAF7EFFB2E
:1098C000204610BD10B5034B03600446FFF7E4FFCC
:1098D000204610BDD8D40B0010B50446FFF7F2FFA8
:1098E00020462421FAF7DBFB204610BD0022C0E908
:1098F000002210B582600C6804604C6844608C687B
:109900000A604A6084608A6010BD10B5036804462E
:109910001868FEF7E5FC204610BD00002DE9F04F69
:1099200087B0804603931C4B5B68C3F308038946EA
:1099300016466BB9FFF7D0FE044600F12403406AD7
:109940000593FFF7A3FD237B2BB105A8FFF7DDFFF0
:1099500007B0BDE8F08F01232373D4E900535FFA09
:1099600089F905EB830AAA4512D055F8047B3146E4
:10997000381DFFF73DFE8145F5D33B68039A009201
:10998000D3F808B04A46334641463846D847EAE756
:1099900000232373D9E700BF00ED00E02DE9F74F66
:1099A0009B461A4B5B68C3F30803804689461646FC
:1099B0006BB9FFF791FE044600F12403406A01935E
:1099C000FFF764FD237B2BB101A8FFF79EFF03B0D7
:1099D000BDE8F08F01232373D4E90053F6B205EB01
:1099E000830A55450ED055F8047B5946381DFFF7BC
:1099F000FFFD8642F5D33B684A46DB684146384660
:109A00009847EEE700232373DEE700BF00ED00E098
:109A10002DE9F341164B5B68C3F3080305460F4677
:109A20001BBBFFF759FE00F124030446406A019373
:109A3000FFF72CFDD4E90063462406EB8308B0450C
:109A400009D101A8FFF761FFA542B4BF00200120A2
:109A500002B0BDE8F08156F8040B39460430FFF738
:109A6000C7FD8442A8BF0446E9E70020F0E700BF35
:109A700000ED00E0F8B5D0E901539D4204460E46E2
:109A80000DDB6F1C002F006804DDB900FEF75CFFE2
:109A900018B9F8BDFEF750FF00202060A7602768C6
:109AA000626807EB85019200A2EB8502081D02F0B7
:109AB000F9FA47F825606368013363600120E8E73D
:109AC00037B500F124030446406A01930D46FFF7C1
:109AD000DDFCD4E9003203EB8202934219460BD03D
