:02000002B0004C
:1040000000400B0078D70B00000006000D000502F1
:084010000401A30F00000000F1
:0440180030C20B00A7
:1040200009480A49884208B505D0094A824202D0A7
:10403000121A07F0E5FE0748074A0021121A07F096
:1040400007FF014808BD00BF2CDD032088D50B0009
:10405000F0DE0320F0DE0320EDE7032070B5074E0D
:10406000074C07F02DF8A41BA4080025AC4200D192
:1040700070BD56F8043B98470135F7E718D50B009B
:1040800054D50B0000F09EB808B500F0ABF9BDE8C0
:10409000084006F0CDBF03F0D3BF03F0D1BF03F05B
:1040A000D7BF000008B5034A03490C2003F08CFE7B
:1040B000FEE700BF397A0B0044C20B000078B0FA6B
:1040C00080F040097047012303707047014B0122C3
:1040D0001A7070474CDF0320074B1A781AB9074A49
:1040E00092F824202AB1064A0121117000221A7088
:1040F00070470122FBE700BFF0DE0320A0E30320AE
:104100004ADF032010B5034B0360044602F0A2F817
:10411000204610BD50C40B0010B50446FFF7F2FF57
:1041200020461021FFF7BBFF204610BDF8B5037DE8
:1041300005460F4616468BB10368DB6883B19A8843
:10414000012A06D09B68F9E79B684BB19A88012A3F
:10415000FAD12BB19A89BA42F6D19E732846F8BD9E
:104160000A49102007F03EF9044668B110220021E8
:1041700007F06EFE064B23600123A3802B69A3602A
:10418000A781A6732C61E9E72875E7E7F4D20B0055
:10419000100003000EB400B58CB00DAA4FF0200C37
:1041A00052F8041B0392CDE900120023016804AA0F
:1041B0001E20CDE904C303F017FE0CB05DF804EB3C
:1041C00003B0704730B541F2883089B003F0B0FFDA
:1041D00000F0F4FD00F01EFE01F0CCF84148424D25
:1041E00008230121438101F0AFFF7C213D4801F00C
:1041F00017FC002000F022FB06F0D0FD3B4B002214
:10420000002808BF1D4604A90320049203F004FE01
:10421000002863D1049C0CB1236923B9344A354981
:104220000A2003F0D1FD0C2305936B44069304236D
:10423000079305AA236901212046984700284DD1FC
:10424000BDF80C3007EE903AFBEECC7A17EE900AF0
:1042500007F034FA2A46CDE9000127492748284CBF
:10426000FFF798FF06F0C8FD00210546E06906F05B
:1042700091FC854201D000F0C5FF224B5A88092AE3
:104280009FBF012284F824200A225A8301F09AF960
:104290001D481E49008800254FF0FF33012200957C
:1042A00004F00CFD1A481B49008800954FF0FF33BD
:1042B0002A4604F003FD184B1A780AB904221A7032
:1042C00094F8242015490D48FFF764FF144B188813
:1042D000002109B0BDE8304006F08BBFFFEE007A48
:1042E000B4E700BFF4DE03205BC20B0059C20B0031
:1042F000397A0B0061C20B0087C20B0054E6032021
:1043000070E30320A0E3032040C80B00D9400B005A
:104310003EC80B00CD400B004BDF0320BCC20B009E
:104320003CC80B0070B51B4E1B4C32781B4D022A4B
:10433000C2B026D106F032FD32782B7858B904EBA2
:1043400002120092164A04EB03134FF4807102A884
:1043500003F096FE0DE0134904EB0212498B019124
:10436000009204EB0313104A4FF4807102A803F08B
:1043700087FE33780D482B7002A9FFF70BFF42B080
:1043800070BD2B7804EB0212009204EB0313084A71
:10439000DBE700BF4BDF03202CDD032048DF0320D9
:1043A000EDC20B00A0E303200DC30B0054E6032075
:1043B0002AC30B0070B506F0F1FC08B93C2070BDB3
:1043C000074D6E8B06F007FD6C69001B8642F5D920
:1043D0006D8B06F000FD05342C44201AEFE700BF7A
:1043E000A0E303202DE9F0479F4D2B78013B8AB0D5
:1043F000032B00F2C780DFE813F0690104002600F8
:10440000EE009A4B1B78022B01D0FFF78BFF06F0D2
:10441000E2FC9749D1E90021C317801A954A528BD3
:1044200063EB010382424FF0000272EB030308DAF0
:10443000914B93F8243013B101232B70A2E0042395
:10444000FBE70323F9E7894B1B78032B01D0FFF728
:1044500069FF0021894801F0E3FAFFF7ABFF074647
:1044600006F09CFC0446002838D006F0B4FCC219C3
:10447000D31706A806F0AAFB069B814981483A4655
:10448000FFF788FE14B106A806F0B0F94FF4FA6001
:1044900003F04EFE7C4B1A7D0AB102221A727B4B4E
:1044A0007948B3F8009000224946FFF73FFE784B69
:1044B000B3F800A001225146FFF738FE037D0646FF
:1044C00013B303684FF47A78DB6808FB07F83BB155
:1044D0009A88042A00F061819B68F8E76D4BCCE76D
:1044E0006D49102006F07EFF0446002800F053813D
:1044F0001022002107F0ACFC684B23600423A3804A
:104500003369C4E9023834615F4903A806F07AFAD6
:104510005A484FF0FF3101F083FA039B002B51D032
:104520009A88012A4ED19B8999454ED15C4906A8AB
:1045300006F0A7F906A800F0EDFC06A806F056F96B
:1045400058495048FFF726FE022342F210702B70A4
:1045500003F0EEFD06F03FFCC219D31706A806F0E3
:1045600035FB069A019206F0ADFA019A4E490346D0
:104570004448FFF70FFE06A806F038F9039808B183
:1045800003F066FD3D4801F0F9FC00F05BFE474B8F
:104590001A785AB100221A70364B3A481A723C21E6
:1045A00059834349FFF7F6FD02232B70414B1A78DC
:1045B000002A00F0F58000221A700AB0BDE8F0472A
:1045C00001F02EB84FF6FF73AEE79A4502BF394BA4
:1045D00001221A70B8E7254B344C1B78042B14D0F9
:1045E000FFF7A0FE00F0EEFF06F0F5FB204BC21730
:1045F000C3E9000200F078F938B901232E4A2F49A7
:1046000020482370FFF7C6FDBCE703F01DFADFF872
:10461000A890DFF8B4801B4F064603F015FA42F26B
:104620000F73801B9842ADD800F050FB98B1124A2E
:1046300000231384237006F0CEFB0E4B21785861C3
:104640001D4A1F4B0F48002908BF1A461D49FFF796
:10465000A1FD0223F1E601234A4641463846237074
:10466000FFF798FDD9E700BF4BDF032048DF0320A9
:1046700040DF0320A0E3032070E30320F4DE0320E7
:104680003FC30B0054E6032014DF03203EC80B0099
:1046900040C80B00BCCA0B00F4D20B001000030092
:1046A00068C30B006AC30B0094C30B0049DF0320EF
:1046B0001CC40B004ADF032038C30B00B5C30B003A
:1046C0003BC30B00D5C30B00FDC30B00364B1B785F
:1046D000012B01D0FFF726FE344C94F82430012B37
:1046E0002BD0022BB5D100F051FA00284FD003F0A7
:1046F000ABF92F4FDFF8BC90DFF8BC80064640F6E0
:10470000B73A03F0A1F9801B5045A2D800F0DEFAB9
:104710000028F6D006F05FFB4FF0000AC317C7E988
:10472000000389F800A006F056FBC8F8140006F054
:1047300052FB84F824A0A062E1E700F089F930B3CD
:1047400003F082F91A4FDFF86C90DFF86C800646B0
:1047500040F6B73A03F078F9801B50453FF679AF41
:1047600000F0B4FA0028F5D006F035FB4FF0000A4F
:10477000C317C7E9000389F800A006F02CFBC8F8AE
:10478000140006F028FB84F824A0A062E0E7094B9F
:1047900001221A705DE73075B6E6C3F80C80B3E607
:1047A0000AB0BDE8F08700BF48DF032070E30320B4
:1047B00040DF032049DF0320A0E3032038B506F0E3
:1047C000B1FC00231A46194606F0BCFC06F0AAFC10
:1047D00000231A460D2106F0ADFC124A124D131D9E
:1047E0001360124B5360002401231375C2E9024485
:1047F000146106F06FFD4FF400520146234628462F
:1048000001F034FD0A4B2B6006F064FD692201467D
:10481000084801F015F806F0DEFA074BC217C3E9A5
:10482000000238BD14DF03202CDF0320100003003A
:1048300050C40B00F4DE032040DF032073B50646AE
:10484000204802F06EFB054630B91F491F48FFF7AC
:10485000A1FC284602B070BD9FED1D0A1D481E4CEC
:1048600002F05AFE1B480022172102F0CFFF2379E5
:10487000802B11D0606905F0EAFE4FF6FF71012030
:1048800005F0DBFE2080BEB114491048FFF782FC22
:104890000023638080232371A178114801F03FFE3B
:1048A0000F4801F022FE23790093024623880D4928
:1048B0000648FFF76FFCCCE7FF210A2005F0BDFE9C
:1048C0006080E7E778E1032064C40B0054E603202E
:1048D00000C0644448E00320A0E3032070C40B0040
:1048E0007CE103208FC40B00F7B52E492E482F4ED4
:1048F0002F4CFFF74FFC2F4B1F880121384606F045
:1049000078FC338863701A0A73882270E3701A0A7D
:10491000294BA2701A8CA271110A5A8C61712272F1
:10492000110A1A7962729A681B7BE3720125F36897
:10493000E171A272237325716573204801F06DFE49
:104940000012A0731D4801F068FE1D4BE0731A7839
:1049500022745119197014481A49FFF71BFC0323DC
:104960000093112221461848002302F071F8728842
:10497000044658B9034615490B48FFF70BFC384667
:10498000214606F036FC284603B0F0BD1049064823
:104990000023FFF7FFFB3846002106F02AFC002029
:1049A000F2E700BFE6C40B0054E60320A0E30320B7
:1049B0004FDF03203CC80B0070E3032048E00320D6
:1049C0004EDF032005C50B0078E103201FC50B0057
:1049D00055C50B00F0B5194D194E6A8819498BB0B1
:1049E0003046FFF7D7FB184AB2F80730D2F801403B
:1049F0005BBA24BA6B8300231946204606F0D2F82E
:104A0000224602A8002306F0E1F86D8B029F2A19C6
:104A100006A8002306F0DAF8069B0C4900933A46F4
:104A20002B463046FFF7B6FB06A805F0DFFE02A8CE
:104A300005F0DCFE01200BB0F0BD00BFA0E30320B9
:104A400054E6032085C50B004FDF0320B6C50B00DD
:104A500073B524492448254D254CFFF79BFB254B76
:104A60001E880121304606F0C4FB2B8863701A0AA9
:104A70006B882270E3701A0A2B79A27023711E488A
:104A800001F0CBFD001260711B4801F0C6FD698882
:104A90001A4B1B4AA071092988BF1A4612481949A6
:104AA0000125FFF777FB21461748009500230722D1
:104AB00001F0CEFF044650B914490B48FFF76AFBDA
:104AC0003046214606F095FB284602B070BD1049DD
:104AD0000548FFF75FFB3046002106F08AFB002007
:104AE000F3E700BFE6C40B0054E60320A0E3032075
:104AF0004FDF03203CC80B0048E0032003C60B0037
:104B0000ECC50B0018C60B0078E1032038C60B007B
:104B100061C60B0010B5184C1849194888B0FFF74A
:104B200039FB6388092B174B06D81A78802A03D1E2
:104B3000B3F8052052BA6280B3F8072052BA6283F4
:104B4000D3F8012012BA10460021039206F02AF889
:104B5000039A04A8002306F039F8638B049A0A49E3
:104B6000009307486388FFF715FB04A805F03EFE95
:104B7000012008B010BD00BFA0E3032084C60B00D5
:104B800054E603204FDF0320ACC60B0073B52A495F
:104B90002A482B4CFFF7FEFA2A4B1E88012130468B
:104BA00006F027FB284B1A885B886270110A0025E3
:104BB0001A0A2170A270E370257106F00CF9001634
:104BC000607106F008F90014A07106F004F90012F3
:104BD000E07106F000F920721C4801F01EFD001281
:104BE00060721A4801F019FD194AA07292F8242047
:104BF000184912482B46FFF7CDFA052300932146AA
:104C000015482B460B2201F023FF044650B91349E7
:104C10000A48FFF7BFFA3046214606F0EAFA0120BB
:104C200002B070BD0E490548FFF7B4FA3046294678
:104C300006F0DFFA2846F3E7E8C60B0054E6032047
:104C40004FDF03203CC80B00A0E3032048E0032013
:104C500070E303200FC70B0078E103203FC70B0070
:104C600070C70B0030B5144D1449154C89B0284657
:104C7000FFF790FA134BD3F80120B3F805305BBA75
:104C800012BA6383002319461046039205F08AFF87
:104C9000039A04A8002305F099FF638B049A0A493C
:104CA000009328466388FFF775FA04A805F09EFD77
:104CB000012009B030BD00BF54E603209BC70B00A4
:104CC000A0E303204FDF0320ACC60B0070B58AB011
:104CD000F92300268DF82530234D244804960DF144
:104CE0002703CDE902630DF12603009301964FF4EB
:104CF0007A730DF12502294601F0AEFF044618B97A
:104D0000002420460AB070BD9DF825309DF826206D
:104D1000EE54174D9DF8273016482B70079201F07E
:104D20007CFC0196034614492878079A01EB001190
:104D3000009112481249FFF72DFA2B78042B0DD061
:104D40002B78022B03D1FFF7E5FE0028D9D12B7871
:104D5000062BD5D1FFF786FF0446D2E7FFF73AFED0
:104D60000028EDD0CDE700BF4FDF032078E103201E
:104D70004DDF032048E00320BCDD032054E6032080
:104D8000C3C70B0010B5084A084C094912780978C6
:104D9000084B204602F080FB21460748BDE8104042
:104DA000002201F04BBE00BF44C80B0048E00320C6
:104DB00042C80B00ECE3032078E1032008B5134957
:104DC0001348FFF7E7F90221042006F001FA002159
:104DD000082006F0FDF90121072006F0F9F900216D
:104DE000122006F0F5F90121112006F0F1F9012158
:104DF000102006F0EDF90021102006F0FAF900214C
:104E0000112006F0F6F9012008BD00BF08C80B000C
:104E100054E6032010B51849184890B02024FFF735
:104E2000B9F922460021684607F012F8224600210F
:104E30000DEB04008DF8054007F00AF800210DEB9A
:104E400004008DF8254003F04DF841F2D833ADF859
:104E500006300B4B029341F27003ADF80C30009B0F
:104E6000002143F400736846009303F03BF80038D8
:104E700018BF012010B010BD21C80B0054E603205C
:104E800084038403024B002283F82420704700BF70
:104E9000A0E303207047006A0368DB68184700003E
:104EA0000A4B10B50446036004F0DEFA214604F014
:104EB00016FD06F075F806F067F82046044B40F83A
:104EC000043B04F0A7FB204610BD00BFBCC80B008C
:104ED000A4C80B0010B50446FFF7E2FF20462421CA
:104EE000FFF7DDF8204610BD38B5046805467CB1F3
:104EF0006368013B63605BB9236820469B68984701
:104F0000A368013BA3601BB923682046DB68984770
:104F1000284638BD30B5224995B0044605F007FD56
:104F200038B120461E491F4C05F001FD48B92072DA
:104F300033E01D49204605F0FAFC0028F1D115B0F8
:104F400030BDA38B01250B2B25721BD9174B184A9B
:104F5000402104A803F094F8164804A9FFF71AF9B1
:104F600002F0E6FF60B1144B14491B788DF8003055
:104F700002A83C2304AA03F07BFB03A8FFF7B4FFBD
:104F80000120DCE70E490B48FFF704F90C23A3834B
:104F90000C4B1D70237A002BD8D10B4BD7E700BFE9
:104FA0004CCA0B00A0E3032068C30B0048C80B00E9
:104FB0007CC80B0054E6032034E3032096C80B00A2
:104FC0004FC80B0035E303204CC80B0070B5D0E987
:104FD00000531426044606FB0356AE4204D028466E
:104FE00005F004FC1435F8E7206803F031F820469A
:104FF00070BD8842F8B504460D46164616D9904253
:1050000015D2A2F11406751AA1F114072C44B74267
:105010001CD02CB13146204605F064FC337C23744F
:10502000304605F0E3FB143E143CF0E70ED0B542E9
:105030000CD02CB12946204605F054FC2B7C23745F
:10504000284605F0D3FB14351434F0E7F8BD2DE9FC
:10505000F0410023C0E9003383604F689F4204465B
:105060000E4623DD4FF0140808FB07F002F0E8FFBE
:105070000546D8B1D4E9001208FB0212FFF7B9FFC8
:10508000206802F0E5FF2560A760D6E9007308FB01
:105090000378B84508D03946284605F03DFC3B7CEE
:1050A0002B7414371435F4E7736863602046BDE849
:1050B000F081000070B5274B274A01251D70274B52
:1050C00000248CB09A60C3E90044022002F0B6FECE
:1050D0002146284602F0CAFE2946042002F09CFC24
:1050E000CDE90044029405F05BFF1D4C054669467E
:1050F00003A8FFF7ACFF264603A906A8FFF7A7FF02
:10510000184B46F8043B06A909A8FFF7A0FF09AA17
:105110001E21304604F0C6FC09A8FFF757FF06A879
:10512000FFF754FF104B2360256203A8FFF74EFFE3
:105130000E4B236005F034FF4FF4165105F020FFAD
:1051400004F092F9214604F083FB6846FFF73EFF26
:105150000CB070BD34E303200000FFFF28E3032000
:1051600038E30320A4C80B0094D10B00BCC80B008B
:105170001FB502F0DDFED8B11C4B1D4A1B788DF81F
:1051800000301C493C2302A803F072FA039C7CB156
:105190006368013B63605BB9236820469B6898475E
:1051A000A368013BA3601BB923682046DB689847CE
:1051B00011491248FEF7EEFF114B02225A8040F2CD
:1051C00001129A800122DA711A720022C3E90322C5
:1051D0009A771A6206223C2183F8252016229983A9
:1051E000DA8404B0BDE81040FFF74CBE5CE3032056
:1051F000CCC80B0096C80B00E4C80B0054E6032093
:10520000A0E3032038B5084D084909480024FEF7FB
:10521000C1FF2C6205F0DFFD064BE861DC6085F81C
:105220002440AC6238BD00BF70E30320FCC80B0013
:1052300054E60320A0E30320014B01221A707047BB
:105240005CE30320F8B5424C05F0C5FDD4E900212C
:10525000C317801A63EB01033D2873F1000375DB6C
:1052600002F0F2FB054605F0B6FD3A4A3A4EC31786
:10527000C4E90003D2E904341C44136A1C441388B3
:105280001C4453881C4413791C4453791C4493795F
:105290001C44D3791C44137A1C44D3681C44138BDC
:1052A0001C44938B1C44538B1C44937F1C4492F8E6
:1052B00024301C4492F825301C4492F826301C44BB
:1052C00092F827301C4433689C423DD028230121AA
:1052D000224801F062F8346002F0B6FB2049421B1C
:1052E0002048FEF757FF02F0AFFB054601201E4E97
:1052F0001E4F738834881C44B36A1C4433791C44A1
:10530000B3681C44337B1C4433691C44338B1C44FA
:10531000B37E1C44338C1C44738C1C4496F824309C
:105320001C443B689C420ED002F08EFB1049421B8D
:105330000C48FEF72FFF094830233246502101F078
:105340002CF83C600120F8BD0020D0E70020FAE7EF
:1053500060E30320A0E303206CE303202CDF0320A1
:105360001DC90B0054E6032070E3032068E303200B
:1053700051C90B0013B521492148FEF70BFF214805
:1053800000F07EFF1F4801230DF10702002100F00D
:10539000B9FF9DF80740012C1CD01B491848FEF7A7
:1053A000F9FE184800F076FF184A16480423002139
:1053B00000F0F3FF134801230DF10702002100F074
:1053C000A1FF9DF80740012C15D1FFF7D1FE204623
:1053D00002B010BD0E490A48FEF7DCFE21460D4A18
:1053E0000848282300F08EFF0B4A0648302350213E
:1053F00000F088FFEBE70020EAE700BF84C90B005C
:1054000054E603202CDF0320A2C90B0004CA0B00C2
:10541000DFC90B00A0E3032070E3032010B503688D
:105420002F2B044604D9074A07490A2002F0CCFC76
:1054300023681F2B83BF03F01F03044823604FF032
:10544000A04010BD397A0B0081CA0B000003005048
:1054500007EE900A9FED097AF8EEE77A67EE877A11
:105460009FED077A87EE870ADFED067A70EE677A9E
:10547000B2EE040A87EE800A704700BF00404E4536
:1054800000F07F450000FA4310B586B0002202A963
:105490000720029202F0C0FC98B9029C0CB123696B
:1054A00023B9174A17490A2002F08EFC0C230393F4
:1054B00001AB04930423059303AA23690121204629
:1054C0009847114B114C1B7A0028A8BF01982073F4
:1054D00033B10F4803F044FB4FF4FA7002F028FE9A
:1054E0000B4803F0DBFAFDEEC07A17EE900A3C2879
:1054F000D4BF00200120C4ED027A06B010BD00BF69
:10550000397A0B0061C20B00A0E3032070E3032093
:10551000D0E3032037B50C4D012101A804F075FE3E
:105520002B79252B01A84FF0010409D904F000FFC5
:105530002C73002401A804F077FE204603B030BD90
:1055400004F0DBFEF6E700BF70E3032030B5194D31
:105550000FCD97B00CAC0FC40FCD0FC495E803006E
:1055600084E80300144904A802F06EFE04A802F0C7
:10557000AEFE044604A802F0E3FE04A810EE105AA2
:1055800002F00EFF16AB10EE100A03EB840406F0D7
:1055900095F8CDE90201284606F090F8CDE9000122
:1055A000064A54F8283C0648402102F069FD17B02D
:1055B00030BD00BFFCCA0B0010E60320A5CA0B00DB
:1055C0003CDE0320104B10B51888104C05F03DFE52
:1055D000FFF73EFFFDEEC07A0D4A17EE903A10211C
:1055E00013712046DBB20B4A02F04AFD0A490B4810
:1055F0002246FEF7CFFDFFF747FFFFF78BFFFFF7D0
:10560000A5FF012010BD00BF46C80B002CDE032003
:1056100070E30320BECA0B00C3CA0B0054E603208C
:10562000F7B53D4E3D4C3378BFF35B8F13F0010F60
:1056300009D13046FEF742FD28B102F025FA20607C
:105640003046FEF740FD364B1D8823682D015B5D1B
:105650005F013378BFF35B8FD90709D42E48FEF77B
:105660002DFD28B102F010FA20602B48FEF72BFD2B
:1056700023682B4401A85B7803F01F033B4301938D
:10568000FFF7CCFE019A01239340C0F8083505F0DE
:10569000A2FB24490A8C4B8CC8610132013392B2BF
:1056A0009BB20A844B8420482049FEF773FDC82032
:1056B00002F03EFD3378BFF35B8FDA0709D416485A
:1056C000FEF7FCFC28B102F0DFF920601248FEF77B
:1056D000FAFC23685B5D5F013378BFF35B8FDB0708
:1056E00009D40D48FEF7EAFC28B102F0CDF920609C
:1056F0000948FEF7E8FC23681D4401A86B7803F015
:105700001F033B430193FFF789FE019A0123934056
:10571000C0F80C3503B0F0BDC8E30320CCE3032090
:105720003CC80B0070E3032054E60320DECA0B00E4
:105730000148002103F066B9D0E30320704710B59B
:1057400020210446FEF7ABFC204610BD30B585B0E5
:105750000446089860B1406850B1856845B1CDE90C
:105760000241CDE90023C46801AB6A4602A9A04703
:1057700005B030BD30B585B0006813680193D1E93C
:1057800000458368CDE902450BB905F02FFEC368DB
:1057900001AA02A9984705B030BD012A02D10160D3
:1057A00000207047022A04BF0B680360F8E7036813
:1057B0001268D1E90001184710B58368044613B197
:1057C000032201469847204610BD10B5044638B163
:1057D000FFF7F2FF20461021BDE81040FEF75FBC46
:1057E00010BD10B504468AB008464FF0200C0021C9
:1057F000CDE90023CDE902C10B4602AA216802F0DF
:10580000F3FA0AB010BD0EB403B503AB322153F85E
:10581000042B0193FFF7E5FF02B05DF804EB03B042
:1058200070470EB403B503AB012153F8042B019369
:10583000FFF7D7FF02B05DF804EB03B0704700003C
:1058400010B50272FF2242810022C0E903224261A8
:105850000276C261024A034C1060C0E9004110BDEB
:10586000DCE3032010CD0B002DE9F8439DF82080E8
:105870000446894616461F46B8F1000F02D040681C
:1058800003F008FA217A606803F0E1F960680368C0
:1058900049469B6898476068002103F0F7F9054680
:1058A00000BB0123217A60683A4603F0BEF98742C3
:1058B000034609D13744BE421CD0606803685B6967
:1058C000984706F8010BF6E70B490C484A46FFF7E4
:1058D0009AFFB8F1000F02D0606803F0E4F928469F
:1058E000BDE8F8830346064904484A46FFF78BFFA4
:1058F0000025EEE70125ECE724CB0B00D8E30320DD
:1059000049CB0B0007B500930123FFF7ADFF03B0B0
:105910005DF804FB73B54389FF2B044610D0194E84
:10592000194D02F091F8B0F57A7F09D2608905F03F
:1059300079FC012804D031462846FEF72BFCF0E71D
:1059400001230DF1070228212046FFF7DBFF30B9C4
:105950000D480E49FEF71EFC002002B070BD9DF8F8
:105960000730182BF4D101230DF10702292120461D
:10597000FFF7C8FF0028EBD09DF80730052BE7D1D3
:10598000EBE700BF6DCB0B00D8E3032082CB0B000D
:105990002DE9F0419DF8188004460F4615461E4635
:1059A000B8F1000F02D0406803F074F9217A606802
:1059B00003F04DF96068036839469B6898472E44A8
:1059C000B542606805D0036815F8011B9B689847CD
:1059D000F6E7012103F05AF9034670B10849094876
:1059E0003A46FFF710FF0025B8F1000F02D06068BB
:1059F00003F059F92846BDE8F0810125F4E700BF1E
:105A00008FCB0B00D8E303201FB58DF80F20009338
:105A10000DF10F020123FFF7BBFF05B05DF804FB9A
:105A2000F8B50A460C4605461A491B48FEF7B2FB74
:105A3000002CB8BFEC687CB9012322461B21284604
:105A4000FFF7E2FF1549024606461348FFF7E9FE55
:105A5000EC606C613046F8BD032C19DDA7101F2FD8
:105A6000A8BF1F27BA0062F07C020123D2B21B211B
:105A70002846FFF7C9FF3A46034609490646064845
:105A8000FFF7CFFE4FF4FA635F43EC606F61E1E72D
:105A90000127E7E7B4CB0B00D8E30320BECB0B0014
:105AA000DACB0B00064B1A684AB1A0F500630B4332
:105AB00005D1D3681BB100211046FFF7B1BF704775
:105AC000DCE303202DE9FF419DF8288005461646BA
:105AD0001F46B8F1000F04D04068019103F0DAF8D6
:105AE0000199019100230DF10F022846FFF70AFFEB
:105AF000044660B19DF80F3003EA06023A43934230
:105B000005D0019900232846FFF77EFF0446B8F12F
:105B1000000F02D0686803F0C6F8204604B0BDE864
:105B2000F08113B514460DF10702FFF7EBFE28B123
:105B30009DF807301C420CBF0120002002B010BDB0
:105B400013B514460DF10702FFF7DCFE28B19DF8EE
:105B500007301C4214BF0120002002B010BD07B561
:105B6000D2430093D2B20023FFF7ACFF03B05DF83D
:105B700004FB000037B501230DF107020F21044695
:105B8000FFF7C0FE054638B91E491F48AD22FFF792
:105B90003AFE284603B030BD9DF8073013F0200FC1
:105BA0004FF001030BD02022E3610F212046FFF7C5
:105BB000D6FF164A16491448FEF7ECFAE9E7082220
:105BC00017212046FFF7BCFF18B10223114AE361F9
:105BD000F0E79DF807301A0709D50323E36108228F
:105BE00001230F212046FFF7BAFF0B4AE2E75B07CC
:105BF000CFD50422E26101230F212046FFF7AFFF3A
:105C0000064AD7E72DCC0B00D8E30320FECB0B00D0
:105C10004CCC0B0007CC0B0017CC0B0027CC0B0097
:105C200007B500931346FF22FFF74CFF03B05DF862
:105C300004FB2DE9F3479DF828A005460C46914644
:105C40001F46BAF1000F02D0406803F023F807B3F3
:105C5000202F3E4628BF20267F2C26D83319802BA4
:105C600001D9C4F18006012304223F212846FFF711
:105C700076FF002364F07F0100934A463346C9B2A1
:105C80002846FFF7F1FD804628B13444BF1BB144DC
:105C9000DDE74FF00108BAF1000F02D0686803F0A9
:105CA00002F8404602B0BDE8F087012304223F21FC
:105CB0002846FFF7B5FFDCE72DE9F3479DF828A05C
:105CC00005460C4691461F46BAF1000F02D04068C7
:105CD00002F0E0FF07B31F2F3E4628BF1F267F2C90
:105CE00026D83319802B01D9C4F180060123042260
:105CF0003F212846FFF733FF002364F07F01009324
:105D00004A463346C9B22846FFF742FE804628B1CC
:105D10003444BF1BB144DDE74FF00108BAF1000F76
:105D200002D0686802F0BFFF404602B0BDE8F087CD
:105D3000012304223F212846FFF772FFDCE7000021
:105D400030B585B00D68D1E9043203954D680295F0
:105D50008D680195C96800910133044902F26C72A3
:105D6000044604F0F7FD204605B030BD5DCC0B00C5
:105D700003090A2200F00F0002FB0300704738B548
:105D8000044600781546FFF7F3FF08606078FFF7D8
:105D9000EFFF4860A078FFF7EBFF8860E078FFF73F
:105DA000E7FFC8602079FFF7E3FF013808612DB9EC
:105DB000651D2878FFF7DCFF886138BD6079FFF743
:105DC000D7FF6430A51D4861F3E7000070B50123DB
:105DD00088B00D461A4610210446FFF7A2FEF0B126
:105DE00008230126204600960DEB03020021FFF751
:105DF0003BFD044698B1324629460DF10900FFF7F4
:105E0000BEFF04A8FFF79CFF0848049A0849FEF764
:105E1000C1F904A804F0EAFC204608B070BD2422B1
:105E20000021284606F014F80024F5E7D8E3032003
:105E30007BCC0B0030B58BB00D4601A9FFF7C6FF38
:105E4000044620B101A802F06BF9C5E90001204623
:105E50000BB030BD0A2390FBF3F103FB110091FB63
:105E6000F3F203FB121240EA0210C0B2704770B5A1
:105E7000054600680C461646FFF7ECFF2070686880
:105E8000FFF7E8FF6070A868FFF7E4FFA070E8681C
:105E9000FFF7E0FFE07028690130FFF7DBFF2071BA
:105EA0002EB9661DA869FFF7D5FF307070BD6A690D
:105EB000642392FBF3F003FB1020FFF7CBFFA61D3A
:105EC0006071EFE7F0B587B0054602A816460C46AC
:105ED000FFF736FF1E48029A1E49FEF75BF902A83B
:105EE00004F084FC16B1686802F0D4FE204601225A
:105EF0000DF1090100278DF80870FFF7B8FF0123A5
:105F00001A4610212846FFF78BFE0446E8B1082305
:105F100000970DEB030239462846FFF739FD04468A
:105F200060B101231A4610212846FFF718FE16B16A
:105F3000686802F0B8FE204607B0F0BD4FF48D72DD
:105F400005490348FFF75FFCF1E74FF48F72F7E76D
:105F5000D8E3032089CC0B0097CC0B0013B5044683
:105F60006846CDE9002305F025FF9DF81020014685
:105F70002046FFF7A7FF02B010BD0000F0B5057E78
:105F800089B0044675BB04F009FF58B3002600270A
:105F900004A92846CDE9046701F0E2FF10B301250A
:105FA000257604F018FFC317CDE9020302460095D9
:105FB0002046FFF7D3FF02A92046CDE90267FFF78D
:105FC00039FF134B13491B68009304A8DDE9022332
:105FD00004F0A2FE1048049A1049FEF7DBF804A86A
:105FE00004F004FC63698BB101F02EFD2369C01A33
:105FF000636998420AD301F027FD4FF0FF31206119
:10600000204609B0BDE8F040FFF70ABD09B0F0BD79
:1060100084DE0320A8E60320D8E30320B2CC0B00E3
:1060200038B5002383608B6804460D462BB10222ED
:106030009847EB68E360AB68A360204638BD00007A
:106040002DE9F04395B005461C9904A890461F46DB
:106050000CAEFFF7E5FF04A908A8FFF7E1FF08A9C8
:106060003046FFF7DDFF4FF000091020CDF84890D3
:10607000FEF711F80446A0B196E8030001AB83E8EF
:10608000030094E8030086E8030093E803000E9BF6
:10609000E268A36084E803000F9BCDF838900F926C
:1060A000E360244B1393244B1293002200234FF000
:1060B0000009C5E90023214BC5F808901020109471
:1060C000CDE90139CDF80C90FDF7E5FF0446D8B1D4
:1060D000129BC0F8089033B1022210A99847139B75
:1060E000E360129BA360164B0393164A029401AB24
:1060F0004046394601F0B2FEB0B12046FFF75CFBE6
:1061000010212046FDF7CBFF10A8FFF755FB3046C6
:10611000FFF752FB08A8FFF74FFB04A8FFF74CFB63
:10612000284615B0BDE8F083029BAB60C5E9008747
:10613000EAE700BF75570B00FD610B0002000C0081
:10614000CB570B004D570B0030B504468BB011B147
:10615000406802F04DFD2046FFF7DCFB06AD00284D
:1061600037D02046FFF706FD01231A4610212046AE
:10617000FFF7D7FCD8B104F011FEC0B902A9204640
:10618000FFF758FEDDE9020104F00CFD134B144942
:106190001B6800932846DDE9022304F0BDFD114889
:1061A000069A1149FDF7F6FF284604F01FFB0F4B36
:1061B00006930F4B09930F4B08934FF40062002393
:1061C00002A80095FFF73CFF2846FFF7F5FA0BB051
:1061D00030BD09490348FFF716FBE8E784DE0320DA
:1061E000A8E60320D8E30320C8CC0B00A55A0B0077
:1061F000AF570B009B570B00E5CC0B00012A37B5BE
:10620000044604D10B680360002003B030BD022AAD
:106210000CD0032AF8D10468002CF5D02046FFF7F3
:10622000CBFA10212046FDF73AFFEDE7096801910E
:106230001020FDF730FF054610B10199FFF7F0FE81
:106240002560E1E7014B024A1A607047D8E303205A
:10625000FDCC0B00704710B510210446FDF71FFF61
:10626000204610BD0368C9B29B68184730B5034D7E
:10627000C0E90223C0E9005130BD00BF54CD0B007E
:10628000406802F0B5BC10B50446006802F00BFD92
:10629000204610BD2DE9F0418AB0044640680190C7
:1062A00002F0F8FC1E22002102A8A76805F0D0FD2C
:1062B0000026EFB123681E2FB84628BF4FF01E08F6
:1062C000DD6802AA434631462046A847054658B92C
:1062D0000A480B493246FDF75DFF01A8FFF7D3FFDF
:1062E00028460AB0BDE8F081A7EB08074644E0E77E
:1062F00001A8FFF7C8FF0125F2E700BF54E603201D
:1063000020CD0B002DE9F7430446406801900D466F
:1063100016461F4602F0BEFCA7B1E168606841F076
:10632000500102F098FC290A6068FFF79BFF29469C
:106330006068FFF797FF6068002102F0A7FC48B192
:10634000002400E0012401A8FFF79DFF204603B0D0
:10635000BDE8F083202F217B6068B84628BF4FF04E
:1063600020080123424641F0500102F05EFC04F097
:10637000B1FF03681B6998474045E1DB06EB08095C
:1063800004F0A8FF03685B69984706F8010B4E45C7
:10639000F6D14544A7EB0807BEE72DE9F74F0446C1
:1063A000406801900E4690461D4602F073FC4FF087
:1063B0000109B9F1000F2AD04DB3E168606841F0DE
:1063C000500102F048FC310A6068FFF74BFF60683B
:1063D0003146FFF747FFA5F11E0A4746A6EB080B1B
:1063E000606817F8011B0368013D9B689847554595
:1063F0000BEB0706B84601D0002DF1D160680121F2
:1064000002F044FC0028D7D04FF00009D1E701A8E2
:10641000FFF739FF484603B0BDE8F08F2DE9F043A0
:106420008BB00E4615468046406801901C4602F02F
:1064300031FCAE4229D2264425448CB11E2C27467D
:10644000D8F8003028BF1E27F61BD3F8089002AA00
:106450003B4631464046ED1BC84748B9002400E0A2
:10646000012401A8FFF70FFF20460BB0BDE8F08321
:10647000D8F8003002AAD3F80C9029463B46404693
:10648000C8470028EAD0E41BD7E7E9D9002CE7D0B9
:10649000D8F800301E2C274628BF1E27D3F80890B6
:1064A00002AA3B4631464046C8470028D6D0D8F815
:1064B000003002AAD3F80C9029463B464046C84714
:1064C0000028CBD03E443D44E41BDFE7016002716D
:1064D000704700680368DB681847006803681B6A38
:1064E0001847006803689B6A18470079704700687E
:1064F00003689B6B184737B505460C461946019251
:10650000FFF7F5FF2868019A03685B69214603B02D
:10651000BDE83040184700680368DB6B184738B5A2
:106520000446006803680D465B6B98472946204681
:10653000FFF7F1FF257138BD38B5044600680368E0
:106540009B689847054618B121792046FFF7E7FF79
:10655000284638BD006803681B6C1847006803684C
:106560005B6C184700680368DB6C184700680368B9
:106570001B6D1847006803685B6D18470068036867
:106580009B6D18472DE9F843044600680A9F1E4694
:1065900003681B69DDE9089898470546C8B11EB134
:1065A0002046FFF7E3FF3070B9F1000F04D020461A
:1065B000FFF7D8FF89F80000B8F1000F04D020469B
:1065C000FFF7D8FF88F800001FB12046FFF7D6FF7D
:1065D00038702846BDE8F883012070470379032B03
:1065E000FCD00120704700207047817170474171D5
:1065F0007047C17270470173704741737047837B66
:1066000023EA0202114381737047C0797047007A10
:106610007047407A7047807A7047008A00B27047AE
:106620000079704701717047408A80B27047808A54
:1066300080B27047C08A80B2704738B505460C46B4
:106640002B682846DB68984728B9002CF8D02046EC
:1066500001F06EFDF4E738BDF8B505460F46144667
:1066600001F0F2F9064601F0EFF9801BB8420AD2B8
:106670002B682846DB68984730B9002CF3D02046B9
:1066800001F056FDEFE70020F8BD70B504460E4658
:1066900001F0DAF9054601F0D7F9401BB04204D207
:1066A0002379032BF7D0012070BD0020FCE770B5E3
:1066B000C3690446B3B101F0C7F9642605462368EF
:1066C00020461B6B984768B101F0BEF9E369401B97
:1066D000984209D80A21012003F0AFFF704301F06E
:1066E00027FDECE7012070BD0020FCE7064A0260B0
:1066F000FF210022027141714282C1728282818136
:106700008273C282C261704770CD0B0070477047C0
:1067100070477047704741717047817170470171D0
:106720007047000030B5034D0560017142718371FF
:1067300030BD00BFF0CD0B00704710B510210446EE
:10674000FDF7ADFC204610BD0EB403B503AB002130
:1067500053F8042B019303F034FF02B05DF804EB0F
:1067600003B0704773B5044608462279A36832B176
:10677000A3B90B4902B0BDE8704003F019BE094A45
:10678000267B094D0949647B012E18BF2946CDE9B6
:1067900000140749FFF7D8FF02B070BD054AEFE7C4
:1067A0002DCE0B005DD10B0029CE0B0025CE0B00AA
:1067B00043CE0B001CCE0B0010B50446FFF7B2FF12
:1067C000054B2360054BA360012323730023236142
:1067D000A382204610BD00BF7CCE0B0068CE0B000C
:1067E00013B50B4C2178BFF35B8F11F001010BD176
:1067F00020460191FDF762FC019928B1054803F09C
:1068000035FF2046FDF75FFC024802B010BD00BF17
:10681000E0E30320E4E3032007B50191FFF7E0FF85
:10682000019903B05DF804EB03F0D8BF08B5FFF79A
:10683000D7FFBDE8084003F0D7BF08B5FFF7D0FF8A
:10684000BDE8084003F0D1BF10B50379042B20D078
:10685000032B20D0022B20D0114A1249012B18BF44
:106860000A4641798379013918BF012133B1012BDF
:1068700004D0022B02D0032B18BF00230024047382
:10688000026101754375FFF7ABFFBDE8104003F0EF
:10689000F7BE054AE5E7054AE3E7054AE1E700BF39
:1068A00080841E0040420F000024F40000127A0091
:1068B00000093D0008B5FFF793FFBDE8084003F06D
:1068C000F3BE10B50446FFF78BFF04F10801BDE8E5
:1068D000104003F015BF08B5FFF782FFBDE8084080
:1068E00003F0F4BE08B5FFF77BFF08BD00230248A4
:1068F0001A461946FFF760BFECE30320012A05D1D1
:10690000007A0B781B1A5842584170470020704794
:106910002DE9F047254C012386B0237063700023D6
:106920000F46A17000930322FF232146064600F084
:10693000E5FB20B10025284606B0BDE8F087FA2324
:106940008DF8173001F080F806F10409804608F54B
:106950007A6501F079F8291A0029EBDD002289B265
:106960004846FFF7BEFD0028F3D00023CDE90233EF
:10697000CDE900330DF117022146304600F0C8FB87
:1069800005460028E3D09DF81730012BDFD994F895
:1069900000A0BAF1020FDAD14846FFF7E7FD5346EF
:1069A00002463946304600F021FBC4E704E40320E8
:1069B000012A2DE9F34107460E4614463BD94D798D
:1069C000022D30D100F10408C97901914046FFF74A
:1069D000CDFD083C2B4602460199384600F006FBE7
:1069E000E5B206F1080300242246954204F10104B1
:1069F000E4B204D913F8012B397A9142F4D104F1AD
:106A000008010E44A54216D916F8011B0191404613
:106A1000FFF7ACFD01340246019902233846E4B287
:106A200000F0E4FAEEE7032D05D1897902B0BDE864
:106A3000F04100F0C4BA02B0BDE8F08110B50446E0
:106A400000F014FB014B2360204610BDB0CE0B00BC
:106A50002DE9F047F92A9DF8209006460F46144686
:106A60001D4625D8FF2B14D1DFF84880404600236F
:106A70002246394600F8013B05F0C2F9621CCDF808
:106A800020902B4641463046D2B2BDE8F04700F098
:106A900035BB194600F04FFA0028E5D13368294686
:106AA0009B68304698470028DED10220BDE8F08779
:106AB0000120FBE704E403202DE9F04F89B098465C
:106AC000FA238DF81A300DF11F0303930DF11E0305
:106AD00002935D4E0DF11D03019307AB00938946B0
:106AE00017460DF11B030DF11A023146DDE912BA0A
:106AF000054600F00DFB044620B90024204609B0ED
:106B0000BDE8F08F9DF81A3073B3327862BBB8F1EC
:106B1000000F03D09DF81B2088F80020BBF1000F68
:106B200003D09DF81C208BF80020BAF1000F03D091
:106B30009DF81D208AF80020149A1AB114999DF826
:106B40001E200A70159A1AB115999DF81F200A7017
:106B50003A783E49013BDBB29A4288BF3B703A78B3
:106B6000484605F04DF9C9E79DF81C20FF2AC4D11D
:106B7000012BC2D93278012ABFD12A7A9DF81B4055
:106B8000A242BAD0DF1E3249FFB200235FFA83F877
:106B9000474506D911F8010B824203F10103F5D1F3
:106BA000ABE705F104094846FFF7E0FC0223024683
:106BB0002146284600F01AFA95F8173193B1224C75
:106BC000A31BDBB29F420CD9E17805914846FFF741
:106BD000CDFC059902460223284600F007FA01344D
:106BE000EEE7B8462B687278DB681A492846984762
:106BF000044660B10223002433709DF81A209DF8EA
:106C00001B3011490094284600F078FA76E795F891
:106C1000163143457FF671AF95F81731002B3FF4DD
:106C20006CAF9DF81A202B7A07493E440132F3706D
:106C30009DF81B300190D2B200932846FF238DF8B7
:106C40001A2000F025FA59E704E4032005E40320A4
:106C500007E4032006E403202DE9F04F85B08046C9
:106C60001C46DDE91056129F8946924600F0ECFE64
:106C700008F1040B044400F0E7FE201A002816DD9A
:106C800081B200225846FFF72CFC0028F3D00F9B5E
:106C90000093CDE902670E9B019552464946404656
:106CA000FFF70AFF0028E6D005B0BDE8F08F00200E
:106CB000FAE70000F0B585B0054604300E460392B1
:106CC000FFF754FC039A07463146284600F04AF97C
:106CD0000228044601D005281BD13178284600F04F
:106CE0006EF972782B7A9A4213D00B4C03232370DF
:106CF00033786370717802233A46284600F076F9BB
:106D000000230093214673780222284600F0F6F90A
:106D10000446204605B0F0BD04E4032010B5044647
:106D2000FFF7D4FBC8230021E3810323A160217373
:106D300023744FF4807204F1110005F089F82046A5
:106D400010BD1FB504460192FFF704FC2046002247
:106D50008021FFF703FC2122019B8DF80F200DF10C
:106D60000F0101222046FFF7C6FB2046FFF7B5FBC7
:106D700004B010BD2DE9F04F057B0135EDB287B0B1
:106D8000044689469246984605730027227C3B4676
:106D90009A4207F10107FFB26BD329462046FFF75D
:106DA000D9FB012F0DBFC0228022402100212046A7
:106DB000FFF7D4FB4346524649462046FFF79BFB6C
:106DC0002046FFF78AFBB8F1FF0F54D0012F82BF96
:106DD000A3680133A36000F037FE4FF4807183464F
:106DE0000020E68903F029FC704348BFFF3006EB22
:106DF00020261BFA86F600F027FE301A0028C5DD93
:106E000081B200222046FFF76CFB0028F3D00DF181
:106E1000170302930DF11603019300220DF11503E0
:106E20000093114605AB2046FFF7ACFB0028E2D0EB
:106E30009DF814209DF9173042450ED194F804C0F6
:106E40009DF815108C4508D1002B08DA9DF81630F6
:106E5000AB42D0D107B0BDE8F08F002BCBDBA1183F
:106E60009DF81630497C9942C5D12046FFF769FF4D
:106E7000C1E70020EEE70120ECE72DE9F04389B0FF
:106E8000CDE90421DDE91098129F04461E46FFF764
:106E900020FBDDE9042120B90025284609B0BDE822
:106EA000F0830DF11F0302930DF11E0301930DF109
:106EB0001D030093204607ABFFF764FB054600283F
:106EC000EAD09DF91F30002BE6DB22799DF81D30BA
:106ED0009A4206D19DF81C209DF81E102046FFF70F
:106EE00030FF9DF81F209DF81C109DF81E3012F0F9
:106EF000400F0C4402D0607C9842CDD006B1317076
:106F0000B9F1000F03D09DF81D1089F80010B8F1F9
:106F1000000F01D088F8003007B13A706374BCE705
:106F2000704710B504460430FFF706FB10B11E236E
:106F300084F8163110BD10B50246002392F81841AE
:106F40008C4208D192F81A412CB103EB430303F5AC
:106F50008C73184410BD0133322B02F10302EDD1C2
:106F60000020F7E737B50B78FF2B05460C4606D017
:106F700019460192FFF7DFFF58B14378019A214685
:106F8000281DFFF7F7FE002814BF0020052003B0DE
:106F900030BD0220FBE710B501EB41030446C1F10F
:106FA000310203F58C7003F21B1102EB4202214403
:106FB000204404F025FF002384F8AD3110BD38B51E
:106FC0000A46002300F58C7403EB4305D9B2655DD6
:106FD000954203D1FFF7DFFF012038BD0133322B8B
:106FE000F2D10020F9E70021FFF7D5BFF8B516462A
:106FF0001F4604460D46002300F58C7203EB430048
:10700000115CA94205D1204480F8196180F81A71F9
:10701000F8BD0133322BF1D1002304F58D7203EB5F
:107020004300115C19B9204480F81851ECE7013392
:10703000322BF4D12046FFF7D6FF204604F1960309
:1070400090F81A212AB980F8185180F8196180F84F
:107050001A7103309842F3D1DAE700F19603002267
:1070600080F81A2103309842FAD1704710B50446CF
:107070000430FFF753FE054B23604FF48F73204617
:10708000A4F81631FFF7E9FF204610BDC8CE0B006B
:107090002DE9F3470446406801911F4603689DF8B7
:1070A00028A09B699DF82C901646984706F1050884
:1070B00080451CD8104D019985F801A00023AB70C4
:1070C00094F81531EB705A1C84F81521681D32466E
:1070D0002F7085F8049004F093FE23685B685FFAD4
:1070E00088F22946204602B0BDE8F0471847012043
:1070F00002B0BDE8F08700BFFEE4032013B59DF8A1
:1071000010400194047A0094FFF7C2FF02B010BD52
:107110002DE9F04F87B01F46FF238DF813300DF196
:1071200017030293DFF8D0900DF1160301930DF1D0
:107130001503009304468846164605AB0DF113026D
:1071400049460430DDE910BAFFF797FE054608B955
:10715000002538E023689DF813201B684946204627
:10716000984799F80030227A9A4201D0FF2B2ED10D
:1071700017B1214B5B783B70BBF1000F03D01E4B66
:107180001B788BF80030BAF1000F03D01A4BDB7874
:107190008AF80030129B1BB1174B129A1B7913709F
:1071A000139B1BB1144B139A9B7813709DF81330EB
:1071B00032781249053BDBB29A4288BF337032788D
:1071C000404604F01DFE284607B0BDE8F08F99F850
:1071D00002305A1C89F8022094F816219A42B7D935
:1071E00094F81731002BB3D023689DF813205B6807
:1071F000494620469847ABE7FEE4032003E5032019
:1072000010B50446006A0368DB68984794F82400C8
:10721000FF2802D0012103F0DBFF23682046DB6F4B
:107220009847642000F084FF012010BD90F82400EE
:10723000002103F0DEBF90F82400012103F0D9BF44
:1072400070B504460D461646FFF750FA034B23600F
:10725000266284F82450204670BD00BFD8CE0B00B3
:1072600038B50446006A03681B6A0D4698472368D0
:1072700020469B6F9847206A036805F07F011B68D2
:107280009847206A036800211B68984723680546D1
:10729000DB6F20469847206A03685B6A9847284658
:1072A00038BD70B50446006A03681B6A16460D4671
:1072B0009847236820469B6F9847206A036845F0EB
:1072C00080011B6898470546206A036831461B68A1
:1072D0009847012000F0B0FB23682046DB6F9847F9
:1072E000206A03685B6A9847284670BDF8B5044673
:1072F000006A1E4603681B6A0F46154698472368B6
:1073000020469B6F9847206A036807F07F011B683F
:1073100098472E440746B54207D0206A03680021EB
:107320001B68984705F8010BF5E723682046DB6FDB
:107330009847206A03685B6A98473846F8BDF8B5F5
:107340000446006A1E4603681B6A0F4615469847A6
:10735000236820469B6F9847206A036847F08001A6
:107360001B6898472E440746B54206D0206A15F898
:10737000011B03681B689847F6E723682046DB6F0C
:107380009847206A03685B6A98473846F8BD006AE8
:1073900003689B6A184701207047FB2070477047BD
:1073A00010B50379052B044610D003680521D3F8E6
:1073B00080309847072201212046FFF772FF802284
:1073C00040212046FFF76DFF052323712379052B0C
:1073D000FCD0207E10BD10B54FF498710446FCF728
:1073E0005EFE204610BD10B50379012B04460BD07C
:1073F00003680121D3F880309847002201212046FC
:10740000FFF74FFF01232371012010BDF8B503687A
:10741000DB6804460F46154698470646B0B187B16B
:107420007DB194F828302A78033B9342DEBF94F86C
:107430002830043B2B702A7804F12D01384604F0E3
:10744000DFFC002384F8283184F828303046F8BD6A
:10745000142938B505460C4614DC012914DD112920
:1074600013DD07224D212846FFF71BFF033C64B2C2
:10747000A21E62F07F022846D2B2BDE83840092140
:10748000FFF70FBF1424ECE7022404224D21284605
:10749000FFF707FFECE7000038B5044615461A462B
:1074A000FFF7CEFE094B2360FF22002384F827203C
:1074B000012284F8283184F82C3184F8265084F88D
:1074C0002B2184F82530204638BD00BF70CF0B003B
:1074D00090F82830032B1BD990F82930C37190F80D
:1074E0002A30037290F82B30437290F82C3083725C
:1074F000837933B9C37942799A4202D0C379FF2B99
:1075000006D1838A01339BB28382012380F828311C
:10751000704700000000000038B504462DED028BD6
:1075200010EE100AB0EE408A04F0C8F817A3D3E9B1
:10753000002304F01BF917A3D3E9002304F040FA59
:1075400004F0ECFB06210546C0F307422046FFF796
:10755000A8FEC5F3072207212046FFF7A2FEEAB2E4
:1075600008212046FFF79DFEDFED077AB4EEE78A9B
:10757000BDEC028BF1EE10FAACBF01230023012019
:1075800084F8293138BD00BF00C04244000000002B
:1075900080842E410000000080844E4010B50379A5
:1075A000022B04460BD003680221D3F880309847A1
:1075B000012211462046FFF774FE0223237110BDFD
:1075C00070B512210446FFF74BFE1C2105462046EC
:1075D000FFF746FEFF22064612212046FFF761FE16
:1075E0002379042B07D115F0A00F17D194F82B3174
:1075F0000BB1700612D52379042B01D1690622D470
:107600002379032B01D12A0768D42379052B0ED1C6
:107610006B070CD505F00105257663E0638A01331D
:107620009BB26382002384F8283184F82830FF223B
:1076300012212046FFF735FE2046FF22BDE87040AC
:107640001221FFF72EBE13212046FFF709FE10215D
:1076500005462046FFF704FE0D2102462046FFF7AF
:1076600020FE04F129022B4600212046FFF73EFEB2
:10767000192184F828502046FFF7F2FD40B2002877
:10768000B8BF0330801084F82A011A212046FFF782
:10769000E7FD94F92A3100B2002B2082A9BF238A8A
:1076A000228A1BB21B01B2BF9B180F2293FBF2F37D
:1076B0001BB2238294F829316BB1238A9D3B1BB204
:1076C00023822046FFF704FF94F82831002BAED028
:1076D000FFF764FFABE7238AA43BF0E7E38A0133BB
:1076E0009BB2E3822046F3E7024B186808B1FFF72C
:1076F00067BF704700E60320024B586808B1FFF7E8
:107700005FBF704700E60320024B986808B1FFF79F
:1077100057BF704700E6032010B50379042B0446D9
:1077200010D003680421D3F8803098470522012146
:107730002046FFF7B6FD002240212046FFF7B1FDAD
:107740000423237110BD10B50379032B044605D023
:10775000FFF7E2FF94F82801C0B210BD0020FCE75B
:1077600010B50379032B044610D003680321D3F826
:1077700080309847032201212046FFF792FD4022E6
:1077800011462046FFF78DFD0323237110BDFB2A10
:10779000F8B504460F46154602D900263046F8BD16
:1077A00003681B6A98472046FFF7F8FE23682046C7
:1077B000DB6A984706460028EFD000220D212046BC
:1077C000FFF76FFDE27A00212046FFF76AFD227B7A
:1077D00000212046FFF765FD627B00212046FFF770
:1077E00060FDA27B00212046FFF75BFD2B463A4659
:1077F00000212046FFF7A3FD2A1DD2B222212046F8
:10780000FFF74FFD2046FFF7ABFFC7E710B5044673
:1078100080F8252072B181F3040242F07002D2B2E6
:107820000921FFF73EFD20460422BDE810404D210E
:10783000FFF737BDBDE81040FFF70ABE38B50C466C
:1078400005460A781D21FFF72CFD62781E21284687
:10785000FFF727FDA27828462621BDE83840FFF72C
:1078600020BD0000052913B50FD8094B01EB4101DC
:107870005C185A5AA378ADF8042001A98DF8063097
:10788000FFF7DCFF012002B010BD0020FBE700BFC6
:1078900058CF0B0038B50A0A05460C462021FFF7E1
:1078A00000FDE2B228462121BDE83840FFF7F9BCCF
:1078B00073B50446FFF7A4FC064618B90026304607
:1078C00002B070BD94F82650FF2D54D029462046B2
:1078D000FFF75DFD802201212046FFF7E2FC0A2030
:1078E00000F026FC01212046FFF7BAFC8028E5D1F4
:1078F00094F82600FF281CD0002103F069FC94F8BE
:107900002730FF2B07D1264A1378032BD6D8591CD2
:10791000117084F8273094F82720224B43F8224036
:1079200062BB214900924FF0FF330122A8B201F05F
:10793000C5F900220E212046FFF7B3FC00220F21DB
:107940002046FFF7AEFC2046FFF728FE0021204628
:10795000FFF788FF08212046FFF79CFF9FED130AE1
:107960002046FFF7D9FD002384F825300D2120465D
:10797000FFF76EFDA3E74FF0FF35ABE7012A4FF0AD
:10798000000304D100930A494FF0FF33CEE7022AE7
:1079900094D1009307494FF0FF330122C6E700BF9F
:1079A000FDE5032000E60320E9760B000000D94343
:1079B000F9760B0009770B0008B5024B1B685B6C6E
:1079C000019308BD7402030008B5024B1B685B6C91
:1079D000019308BD4802030008B5024B1B689B6C6D
:1079E000019308BD4802030008B5024B1B68DB6C1D
:1079F000019308BD4802030008B5024B1B685B6D8C
:107A0000019308BD4802030008B5024B1B685B6D7B
:107A1000019308BD3402030008B5024B1B685B6E7E
:107A2000019308BD3402030008B5024B1B685B6874
:107A3000019308BD1802030008B5024B1B68DB6800
:107A4000019308BD1802030008B5024B1B685B696F
:107A5000019308BD1802030008B5024B1B689B6D1B
:107A6000019308BD1802030008B5024B1B685B6E4A
:107A7000019308BD1802030008B5024B1B689B6EFA
:107A8000019308BD1802030008B5024B1B681B6870
:107A9000019308BD2C02030008B5024B1B685B680C
:107AA000019308BD2C02030008B5024B1B689B68BC
:107AB000019308BD2C02030008B5024B1B68DB686C
:107AC000019308BD2C02030008B5024B1B681B691B
:107AD000019308BD2C02030008B5024B1B685B69CB
:107AE000019308BD2C02030008B5024B1B689B697B
:107AF000019308BD2C02030008B5024B1B68DB692B
:107B0000019308BD2C02030008B5024B1B681B6BD8
:107B1000019308BD2C02030008B5024B1B68DB680B
:107B2000019308BD2802030008B5024B1B689B693E
:107B3000019308BD2802030008B5024B1B68DB69EE
:107B4000019308BD2802030008B5024B1B681B6A9D
:107B5000019308BD2802030008B5024B1B685B6A4D
:107B6000019308BD2802030008B5024B1B689B6AFD
:107B7000019308BD2802030008B5024B1B68DB6AAD
:107B8000019308BD2802030008B5024B1B681B6B5C
:107B9000019308BD2802030008B5024B1B685B6B0C
:107BA000019308BD2802030008B5024B1B681B6C3B
:107BB000019308BD2802030008B5024B1B689B6CAB
:107BC000019308BD2802030008B5024B1B68DB6C5B
:107BD000019308BD2802030008B5024B1B681B6D0A
:107BE000019308BD2802030008B5024B1B685B69BE
:107BF000019308BD6402030008B5024B1B689B6833
:107C0000019308BD6802030008B5024B1B68DB68DE
:107C1000019308BD6802030008B5024B1B681B688E
:107C2000019308BD3002030008B5024B1B685B6876
:107C3000019308BD3002030008B5024B1B685B6965
:107C4000019308BD3002030008B5024B1B68DB69D5
:107C5000019308BD3002030008B5024B1B681B6A84
:107C6000019308BD3002030008B5024B1B685B6A34
:107C7000019308BD3002030008B5024B1B68DB6BA3
:107C8000019308BD3002030008B5024B1B681B6C52
:107C9000019308BD3002030008B5024B1B685B6C02
:107CA000019308BD3002030008B5024B1B689B68B6
:107CB000019308BD3C02030008B5024B1B68DB685A
:107CC000019308BD3C02030008B5024B1B681B6909
:107CD000019308BD3C02030008B5024B1B685B69B9
:107CE000019308BD3C02030008B5024B1B689B6969
:107CF000019308BD3C02030008B5024B1B68DB6919
:107D0000019308BD3C02030008B5024B1B681B6AC7
:107D1000019308BD3C02030008B5024B1B689B6A37
:107D2000019308BD3C02030008B5024B1B68DB6AE7
:107D3000019308BD3C02030008B5024B1B681B6C95
:107D4000019308BD3C02030008B5024B1B681B6889
:107D5000019308BD4C02030008B5024B1B685B6829
:107D6000019308BD4C02030008B5024B1B689B68D9
:107D7000019308BD4C02030008B5024B1B681B6948
:107D8000019308BD4C02030008B5024B1B685B69F8
:107D9000019308BD4C02030008B5024B1B689B69A8
:107DA000019308BD4C02030008B5024B1B68DB6958
:107DB000019308BD4C02030008B5024B1B681B6A07
:107DC000019308BD4C02030008B5024B1B685B6BB6
:107DD000019308BD6002030008B5024B1B681B6DD0
:107DE000019308BD6002030008B5024B1B685B6D80
:107DF000019308BD6002030008B5024B1B68DB6EEF
:107E0000019308BD6002030008B5024B1B681B6F9D
:107E1000019308BD6002030008B5034B1B68D3F84B
:107E20009830019308BD00006002030008B5024BC2
:107E30001B681B68019308BD2002030008B5024BB4
:107E40001B685B68019308BD2002030008B5024B64
:107E50001B685B69019308BD2002030008B5024B53
:107E60001B681B6A019308BD2002030008B5024B82
:107E70001B68DB6A019308BD2002030008B5024BB2
:107E80001B68DB6C019308BD2002030008B5024BA0
:107E90001B685B6D019308BD2002030008B5024B0F
:107EA0001B689B6D019308BD2002030008B5024BBF
:107EB0001B68DB6D019308BD2002030008B5034B6E
:107EC0001B68D3F88830019308BD0000200203002E
:107ED00008B5034B1B68D3F89430019308BD00002C
:107EE0002002030008B5034B1B68D3F8A8300193A8
:107EF00008BD00002002030008B5034B1B68D3F83F
:107F0000AC30019308BD00002002030008B5034B0C
:107F10001B68D3F8B430019308BD000020020300B1
:107F200008B5024B1B689B68019308BD440203001F
:107F300008B5024B1B685B69019308BD440203004E
:107F400008B5024B1B681B6A019308BD440203007D
:107F500008B5024B1B681B6B019308BD440203006C
:107F600008B5024B1B685B6B019308BD440203001C
:107F700008B5024B1B68DB6B019308BD440203008C
:107F800008B5024B1B685B68019308BD4002030003
:107F900008B5024B1B689B68019308BD40020300B3
:107FA00008B5024B1B68DB68019308BD4002030063
:107FB00008B5024B1B681B69019308BD4002030012
:107FC00008B5024B1B685B69019308BD40020300C2
:107FD00008B5024B1B689B69019308BD4002030072
:107FE00008B5024B1B68DB69019308BD4002030022
:107FF00008B5024B1B681B6A019308BD40020300D1
:1080000008B5024B1B681B6B019308BD40020300BF
:1080100008B5024B1B685B6B019308BD400203006F
:1080200008B5024B1B681B6C019308BD400203009E
:1080300008B5024B1B685B6C019308BD400203004E
:1080400008B5024B1B681B68019308BD1C020300A6
:1080500008B5024B1B685B68019308BD1C02030056
:1080600008B5024B1B689B68019308BD1C02030006
:1080700008B5024B1B681B69019308BD1C02030075
:1080800008B5024B1B68DB69019308BD1C020300A5
:1080900008B5024B1B685B6A019308BD1C02030014
:1080A00008B5024B1B68DB6A019308BD1C02030084
:1080B00008B5024B1B681B6B019308BD1C02030033
:1080C00008B5024B1B68DB6B019308BD1C02030063
:1080D00008B5024B1B681B6C019308BD1C02030012
:1080E00008B5024B1B685B6C019308BD1C020300C2
:1080F00008B5024B1B689B6C019308BD1C02030072
:1081000008B5024B1B68DB6C019308BD1C02030021
:1081100008B5024B1B681B6D019308BD1C020300D0
:1081200008B5024B1B685B6D019308BD1C02030080
:108130000021FFF78BBE10B5836804460BB903F02E
:1081400055F9C3689847A3681BB10322214620460E
:10815000984720461021BDE81040FBF7A0BF10B59E
:108160004368013B0446436063B903689B689847D2
:10817000A368013BA3602BB923682046DB68BDE8F8
:108180001040184710BD70B5D0E90053044605EB08
:108190000316AE4204D0284602F028FB1035F8E75B
:1081A0002068FFF755FF204670BD13B50B46024609
:1081B000D0E900016C4684E8030093E8030082E8FC
:1081C000030094E8030083E8030002B010BD000040
:1081D000024800230360FFF7F7BB00BF0CE6032053
:1081E000002240681146FFF7E3BE002240681146B6
:1081F000FFF7FEBE002240681146FFF709BF406846
:108200000022FFF7FDBE4068002281F00101FFF768
:10821000E7BE002340681A461946FFF7D9BE00237F
:1082200040681A461946FFF7CBBE00224068114647
:10823000FFF7AEBE406800220221FFF7B1BE002367
:1082400040681A46FFF79CBE70B5134B03601825B3
:10825000303386B00E4643602A460021044608307B
:1082600003F0F6FD002270681146FFF7A1FE78B119
:1082700000212A46684603F0EBFD69460020ADF870
:108280000050FFF799FB18B96946204600F0B8F88E
:10829000204606B070BD00BF38D00B00084B10B5AB
:1082A000282422461846002103F0D2FD054B048005
:1082B0004FF0FF32426004225A60034A1A6010BD38
:1082C00018E6032010E60320FCCF0B007047007B6C
:1082D0007047037B4BB10369B3F1004F05D0806950
:1082E000B0F1004018BF01207047002070470368BC
:1082F0001B6A184770B503680D461B690646984708
:108300000221284602F04EF92C210446284602F0AC
:1083100053F8336804449B69304698470221284645
:1083200002F040F9204470BDA0F10400FFF7E2BF65
:1083300010B520210446FBF7B2FE204610BD000018
:10834000037B7BB14369002B0CDB07EE903A9FED7A
:10835000077AF8EEE77A87EE870ADFED057A20EEF6
:10836000270A7047BFEE000A704700BF00FF7F4733
:108370000000C842037B63B10369B3F1004F08D02A
:1083800007EE903A9FED047AF8EEE77A87EE870AD7
:1083900070479FED020A70470000C84200000000CD
:1083A000037B7BB1C369002B0CDB07EE903A9FED9A
:1083B000077AF8EEE77A87EE870ADFED057A20EE96
:1083C000270A7047BFEE000A704700BF00FF7F47D3
:1083D0000000C842037B63B18369B3F1004F08D04A
:1083E00007EE903A9FED047AF8EEE77A87EE870A77
:1083F00070479FED020A70470000C842000000006D
:1084000030B50D4600F108040FCD0FC495E8030008
:1084100084E80300012030BD70470020704710B58C
:1084200010210446FBF73BFE204610BD08B5FFF7C0
:10843000F6FF08BD30B500224FF69C7402608480C0
:108440008D888C800C68858004600A6030BD10B512
:1084500004460068FFF7FCFD204610BD38B5C4682F
:10846000F4B12378022B03D104F10C00FFF7EFFFE6
:10847000656835B12846FDF79FF910212846FBF7BE
:108480000EFEA56835B12846FDF796F9102128465D
:10849000FBF705FE20461421BDE83840FBF7FFBD81
:1084A00038BD0B6803604B68436013B15A680132F2
:1084B0005A60704737B5044668460D46FFF7F1FF2E
:1084C000009B019A23606260002301A8019300933E
:1084D000FCF70AFD35B1281DFCF706FD08212846EA
:1084E000FBF7DDFD204603B030BD826810B50AB948
:1084F00002F07CFFBDE81040C368184708B500686B
:1085000000F11001FFF7F1FF08BD826810B50AB94C
:1085100002F06CFFBDE81040C368184708B500685A
:1085200000F11001FFF7F1FF08BD000038B500238E
:108530000446036010200D46FBF7ADFD28B1012372
:10854000C0E90133024B0360C5602060204638BD9E
:1085500074D00B0038B5002383608B6804460D4649
:108560002BB102229847EB68E360AB68A36020461A
:1085700038BD0000F0B589B004686846FFF75AFFBF
:108580004FF00203D4E84F2F002A03D1C4E8413F43
:108590000029F7D125D104F10C0569462846FFF7DB
:1085A00049FFBFF35B8F01236370002004F10803D0
:1085B000BFF35B8F53E8006F43E80002002AF9D154
:1085C000BFF35B8F6EB1FFF759FC78B12946304697
:1085D000FFF78BFF3046FDF7EFF810213046FBF731
:1085E0005EFD6846FFF733FF09B0F0BD314602A8D3
:1085F000FFF7B0FFE068B4F9105008B103F0C6FC13
:1086000006901020ADF81C50FBF745FD0546E8B17B
:10861000002787601820FBF73EFD044688B101461D
:10862000876002A8FFF7C1FD049BA268A360059BB9
:10863000049206A9E268E36004F110000592FFF7D6
:10864000F9FE084BEB60084B2C60AB6006A8FFF707
:10865000FEFE02A8FDF7B0F8002229460348FFF706
:1086600015FCB7E7FD840B0081870B0037810B00F9
:108670002DE9F04F8BB005469DF850A00F4690466F
:108680009946FFF755FC07AE834638BB4FF62E736D
:10869000059005A93046ADF81830FFF7CBFE142041
:1086A000FBF7F9FC044648B1022303700123C0E93B
:1086B00001BB437031460C30FFF7BCFE2846214613
:1086C00040F8044BFFF732FF3046FFF7C0FE05A825
:1086D000FFF7BDFE28460BB0BDE8F08F0C23002449
:1086E0001420CDE908440793FBF7D5FC014618B1E7
:1086F000C0E901440470447004A80391FFF716FF19
:108700001E4B08930820FBF7C6FC044610B103A9D2
:10871000FFF7C7FE00965FFA8AF34A46414638469D
:108720000994FFF70DFCB8B9039B5B7803F0FF02D7
:1087300093B94FF69C7305A903A80592ADF81830BC
:10874000FFF718FF05A8FFF782FE05A80999FFF7B4
:10875000B1FE06A8FCF7C8FB03A905A8FFF7A1FE18
:10876000059B069A2B606A60002306A80693059372
:10877000FCF7BAFB04A8FCF7B7FBABE7FD870B00DF
:10878000012AF8B5054603D10B6803600020F8BD47
:10879000022A10D0032AF9D10468002CF6D004F183
:1087A0001000FFF754FE2046FDF706F8182120467A
:1087B000FBF775FCEAE718200E68FBF76CFC044633
:1087C00050B13146FFF7C6FE3069B6F9147008B1F2
:1087D00003F0DCFB2061A7822C60D7E738B50023CB
:1087E00083608B6804460D462BB102229847EB68E4
:1087F000E360AB68A360204638BD0000F0B589B0E7
:1088000004460D4601A81146FFF754FEA4B124B258
:108810001DB1284603F0BAFB054601A803A903953C
:10882000ADF81040FFF7A6FE03A8FFF710FE02A860
:10883000FCF75AFB09B0F0BD019D0123D5E84F2F8D
:10884000002A03D1C5E8413F0029F7D1EFD12B73AE
:10885000BFF35B8F6B702B1DBFF35B8F53E8006F13
:1088600043E80042002AF9D1BFF35B8F002EDED02F
:108870002046FFF703FB074660B105F10C013046C7
:10888000FFF743FE3046FCF797FF10213046FBF719
:1088900006FCCCE7314603A8FFF7A0FF2B7B8DF841
:1088A0001C301020FBF7F7FB0546D0B18760142081
:1088B000FBF7F1FB044678B18760014603A8FFF798
:1088C00074FC059BA268A360069B0592E268E360C6
:1088D0009DF81C3006922374064BEB60064B2C600F
:1088E000AB6003A8FCF768FF002229460348FFF7A6
:1088F000CDFAC7E71D850B0001890B0037810B00FE
:10890000012A70B5044603D10B680360002070BDD6
:10891000022A0CD0032AF9D10468002CF6D0204694
:10892000FCF74AFF14212046FBF7B9FBEEE71420C1
:108930000E68FBF7B0FB054620B13146FFF74EFF4E
:10894000337C2B742560E1E7002240681146FFF775
:108950004FBB002240681146FFF75ABB4068002217
:10896000FFF74EBB4068002281F00101FFF738BBE2
:10897000002340681A461946FFF72ABB00234068C7
:108980001A461946FFF71CBB002240681146FFF744
:108990000FBB002240681146FFF7FABA4068002278
:1089A0000221FFF7FDBA002340681A46FFF7E8BA34
:1089B000024B03225A60024A1A60704740E60320C5
:1089C00090D00B0001EB002300EE103A132A0CBFED
:1089D000DFED047ADFED047AB8EEC00A20EE270A54
:1089E000704700BF0000003B0000803B006800F0C3
:1089F00051B910B50446016002710AB1FFF7F6FFE4
:108A0000204610BD13B50446019102F087FC019A7F
:108A100001462046FFF7EDFF204602B010BD00687A
:108A200000F041B92DE9FF4104460D4617461E46A8
:108A3000FFF7DCFF36220023CDE9002320680A235C
:108A40004FF001086946CDE9028300F007F920687C
:108A5000036829469B6898472068414600F016F94C
:108A6000054640B16FF09F052046FFF7D8FF284626
:108A700004B0BDE8F081022320680193694600F04C
:108A8000BDF80228EED1206803685B69984738700A
:108A9000206803685B6998473070E5E710B58CB0D3
:108AA00000238DF80E308DF80F3004210DF10F03E7
:108AB0000DF10E02FFF7B6FF0146C8B92024019060
:108AC000224604A803F0C4F901998DF8154004A8C2
:108AD000FFF71CFA50B99DF81E209DF80F109DF865
:108AE0000E000CB0BDE81040FFF76CBF1222F4E797
:108AF000BFEE000A0CB010BD2DE9FF4104461D4633
:108B00000F461646FFF772FF36220023CDE90023F9
:108B100020684FF001080A236946CDE9028300F07E
:108B20009DF82068036839469B6898472068036869
:108B300031469B6898472068036829469B68984798
:108B40004146206800F0A2F8002820460CBF00250E
:108B50006FF09F05FFF763FF284604B0BDE8F08182
:108B600008B5402200230621FFF7C6FF00EAE070A7
:108B700008BD7047F8B5064615460C468F18BC422E
:108B800006D0336814F8011B9B6830469847F6E717
:108B90002846F8BD007C0022FEF7D6BF007C0021ED
:108BA000FEF7DABF007C0021FEF7DEBF007C00216B
:108BB000FEF7E2BF007C0021FEF7E6BF10B51421EE
:108BC0000446FBF76CFA204610BD000010B54FF4C8
:108BD0007A73044608460021C4E90113034B23605D
:108BE00020741146FEF7E0FF204610BDCCD00B00EC
:108BF0000023007C1A461946FEF78EBF7FB500227F
:108C00001423CDE90122ADF804300B788DF808303B
:108C10004B680393CB680493007C0B7A059301A9FE
:108C2000FEF7DAFF07B05DF804FB1FB5003B8DF8D7
:108C300000104FF06401039118BF012369460192AF
:108C40008DF80830FFF7DAFF05B05DF804FB007C13
:108C50000022FEF769BFC9B2FFF7F9BF7FB5002355
:108C6000CDE901334A6803921423CA68ADF8043091
:108C70000B7804920A7A0592007C8DF8083001AADC
:108C80001946FEF751FF07B05DF804FB007C002297
:108C9000FEF752BF08B50021007CFEF78DFFB0FA49
:108CA00080F0400908BD08B50021007CFEF78CFF6C
:108CB000B0FA80F0400908BD004700002DE9FF41EF
:108CC00000241D460F4690460646FEF715FFA542B6
:108CD0004FF00403ADF80D408DF80C308DF80F40C7
:108CE000A2BF9DF828308DF80E3003AC07490094E0
:108CF00043463A463046A8BF8DF80D50FEF7F4FEC5
:108D0000B0FA80F0400904B0BDE8F081B98C0B00E6
:108D1000704710B518210446FBF7C1F9204610BD75
:108D2000F0B5037D062B8DB00E4600F104074FF021
:108D3000000412D000F1080515F8011D0A22304682
:108D400001F049FBAF42044419D0002CF4D02E218D
:108D5000304601F031FB0444EEE72F236A463946E2
:108D60000A208DF80040FEF73FFF684603F02BF91C
:108D700033680246DB686946304698470446204619
:108D80000DB0F0BD10B5054B0446112240F8043B70
:108D9000002103F05DF8204610BD00BFF4D00B00A9
:108DA0000346074A10B543F8042B01F1100251F8AD
:108DB000044B43F8044B9142F9D10A781A7010BD64
:108DC000F4D00B0010B59DF8084044EA032343EAB1
:108DD000024242EA016104234160037510BD0000B4
:108DE00007B5064B0360CB7800938B784A780978F7
:108DF000FFF7E8FF03B05DF804FB00BFF4D00B0001
:108E000000F11003012213F8101C0129184608D1A3
:108E100053F8041C02EB4102013A03F11003F2D1B2
:108E20007047022904BF53F8041C5218F4E70EB42B
:108E3000F0B588B000AF07F13405102155F8042BC8
:108E40007A6004462B467818FD60FFF721F90F2859
:108E50007A681AD900F1080323F007036E46ADEBD8
:108E6000030D411C2B466846FD60FFF711F9021EF9
:108E700004DD236869469B6820469847B54620373D
:108E8000BD46BDE8F04003B070470028F7D0236826
:108E900002469B6807F1100120469847EFE738B576
:108EA0000B6803604D6843689D42044608D015B1C5
:108EB0006B6801336B60606808B1FFF750F965605B
:108EC00038BD07B503688DF807109B6801220DF1C6
:108ED0000701984703B05DF804FB0B4611460022DA
:108EE00010B5C0E90022044683600BB9204610BDCE
:108EF000FFF7D5FFFAE78368EBB11A78032A1AD88F
:108F0000DFE802F00417021B0520704702685B6867
:108F10005268D05C2D2812D0A0F13003092B0ED955
:108F200074280ED066280CD0A0F16E035842584128
:108F300070470620704700207047042070470320C8
:108F400070470220704710B50446FFF7D4FF02288F
:108F50000ED0C31EDBB2012B14D82268A368506860
:108F60005B68BDE810400A220021184403F0F0B805
:108F70002268A36852685B68D05CA0F17403584211
:108F8000584110BD0020FCE738B50023C0E900338C
:108F900004460E48C4E90203A9B10B78032B06D09E
:108FA0008BB9136858684B68C35C6E2B07D0136885
:108FB0004D6858688B6828445B1BA060E3601146CD
:108FC0002046FFF76CFF204638BD00BF5DD10B0087
:108FD00038B500250B46C0E90055C0E90255C0E987
:108FE0000455044611464BB11A78012A06D103F103
:108FF0001002DB6882604361FFF751FF204638BDF5
:1090000010B54369044663B18068E060013B1030ED
:10901000A0602061636113B1FFF7F2FEA060012040
:1090200000E0184610BD10B57D210446FFF749FF4A
:1090300001232371204610BD08B50379012B02D00E
:10904000022B04D008BD2C21FFF73BFFFAE73A21A1
:10905000FAE710B50446FFF7EFFF20467B21FFF744
:1090600030FF00232371204610BD000013B50446D5
:109070000191FFF7E1FF2368019ADB68034920466D
:10908000984701232046237102B010BDBBCB0B00D3
:1090900013B504460191FFF7CFFF2368019ADB68FF
:1090A00003492046984701232046237102B010BD92
:1090B00047CD0B002DE9F0470D462221904604468E
:1090C000FFF7FFFEDFF8A490A8442F464745BA46B5
:1090D0003DD017F8016B222E06D05C2E04D030460E
:1090E00002F086FE0028F1D12368AAEB05029B68F6
:1090F0002946204698475C212046FFF7E2FE0D2EC8
:109100000AD8072E1CD9A6F10803052B18D8DFE8CA
:1091100003F00D0F11171315222E01D05C2E0FD165
:1091200031462046FFF7CDFE3D46CFE76221F8E706
:109130007421F6E76E21F4E76621F2E77221F0E789
:1091400023683246DB68494620469847ECE7BD4233
:1091500005D023687A1B9B68294620469847222120
:109160002046FFF7AEFEBDE8F08700BF00D10B0040
:1091700013B50446CDE90021FFF75EFF2046DDE987
:109180000021FFF797FF02232046237102B010BD94
:1091900013B50446CDE90021FFF74EFF2046DDE977
:1091A0000021FFF787FF01232046237102B010BD85
:1091B00080680368DB6818477047084611B10B6880
:1091C0005B6818477047704770477047704738B5FD
:1091D00004460D4600682E2102F0BBFE2368C31A28
:1091E0002B6023B1037803B1013023682060184657
:1091F00038BD10B50C210446FAF751FF204610BDCA
:1092000010B504210446FAF74AFF204610BD10B5F8
:1092100004210446FAF743FF204610BDFEF7E4BBE5
:1092200008B502F0A0FEB0FA80F0400908BD704712
:1092300010B50C4601F0B4FE844210D002F0AEF836
:10924000844205D102F0AAF8BDE8104001F043BE07
:109250002CB1236820465B68BDE81040184710BD5C
:109260000B6803604B68436013B15A6801325A605F
:10927000704713B504460846019102F0A4FE019917
:109280000246204602B0BDE81040FFF781BF13B58B
:1092900004460846019102F096FE23680199DB68B6
:1092A0000246204602B0BDE81040184707B50368E3
:1092B0008DF80710DB6801220DF10701984703B014
:1092C0005DF804FB0EB403B503AB002153F8042B87
:1092D000006A019301F075F902B05DF804EB03B088
:1092E00070470A6802604A6842600022C0E90222B0
:1092F00010B502618C688460CC68C4600C698A60B7
:10930000CA6004610A6110BD2DE9F74FD0E90084FD
:109310004FF0140A00930AFB04F4184BA4101746EC
:109320005C434546002C21DD66100AFB06F005EB88
:1093300000093A46B9F804B0285801915F4528BFA2
:109340005A4602F048FE002801994FF001030BD164
:109350005F4503D1009A13703446E3E7FCD9A61B9E
:1093600009F11405013EF7E7F9DBF5E7A5EB080580
:109370000248AD10684303B0BDE8F08FCDCCCCCC33
:109380007FB50369057E019103B3F9B1002600F1B1
:109390000C04039603A901A8FFF719FF0146A8B121
:1093A0000DF10B03039A8DF80B602046FFF7ACFF1D
:1093B0009DF80B3053B12368142404FB00340834A7
:1093C00034F9023C002BA8BFDDB2E3E7284604B025
:1093D00070BD000010B5094C2378BFF35B8FDB072D
:1093E00009D42046FAF76AFE28B12046FAF76BFE48
:1093F000034802F0D9FC034810BD00BF4CE603202F
:10940000C7910B007CDE032010B5094C2378BFF315
:109410005B8FDB0709D42046FAF750FE28B12046BF
:10942000FAF751FE034802F0BFFC034810BD00BF2D
:1094300050E603202F920B0080DE032038B5002574
:109440000446C0E90055C0E904558560856140F8CF
:10945000245FFEF7B9FAFFF7BDFFE061FFF7D4FF25
:1094600025732062204638BD10B50A4C2378BFF31F
:109470005B8FDB070CD42046FAF720FE40B106488C
:10948000FFF7DCFF2046FAF71EFE044802F08CFCD2
:10949000014810BD48E6032058E60320BD990B00A3
:1094A000024A034903480023FEF7AEBCA1970B0014
:1094B0002D970B00AD960B0000231A46194618464F
:1094C000FEF7A2BC37B58D6804466846FFF7C8FEB4
:1094D0006A4629462046FFF77BFD01A8FBF704FDFD
:1094E000204603B030BD37B5CD6804466846FFF767
:1094F000B7FE6A4629462046FFF746FD01A8FBF75E
:10950000F3FC204603B030BD37B50D69044668460C
:10951000FFF7A6FE6A4629462046FFF7DEFC01A8B3
:10952000FBF7E2FC204603B030BD000070B58AB006
:109530000D46014604A8FFF7C5FF144E04A8FFF727
:109540005FFDE8B104A96846FFF7CDFF02983146F8
:10955000FFF766FE044610B12C1E18BF012401A8B7
:10956000FBF7C2FC002CE9D004A96846FFF7CCFF4A
:109570006846FFF7E8FC286001A8FBF7B5FCDDE7CB
:1095800005A8FBF7B1FC0AB070BD00BF06D10B0007
:1095900037B50C4620461349154602F0E4FC50B995
:1095A00001F0FEFC4FF4165101F0EAFC03B0BDE8F7
:1095B000304001F0F5BC0C49204602F0D4FC78B9EB
:1095C0004FF4165301A928460193FFF7AFFF01F0AE
:1095D000E5FE019901F07CFC01F0E0FE03B030BD36
:1095E0000020FBE70BD10B0012D10B0070B5D0E9C6
:1095F00000531426044606FB0356AE4205D005F17F
:109600000800FFF7F3FF1435F7E72068FEF720FDA9
:10961000204670BD10B504460C30FFF7E7FF20462A
:10962000FEF7B1FD204610BD10B5044B044640F8CE
:10963000043BFFF7EFFF204610BD00BFA4C80B009E
:1096400010B50446FFF7F0FF20462421FAF727FD66
:10965000204610BD10B5034B03600446FFF7E4FF3E
:10966000204610BDACD10B0010B50446FFF7F2FF49
:1096700020462421FAF713FD204610BD0022C0E940
:10968000002210B582600C6804604C6844608C68ED
:109690000A604A6084608A6010BD10B503680446A1
:1096A0001868FEF7A9F9204610BD00002DE9F04F1B
:1096B00087B0804603931C4B5B68C3F3080389465D
:1096C00016466BB9FFF7D0FE044600F12403406A4A
:1096D0000593FFF7A3FD237B2BB105A8FFF7DDFF63
:1096E00007B0BDE8F08F01232373D4E900535FFA7C
:1096F00089F905EB830AAA4512D055F8047B314657
:10970000381DFFF73DFE8145F5D33B68039A009273
:10971000D3F808B04A46334641463846D847EAE7C8
:1097200000232373D9E700BF00ED00E02DE9F74FD8
:109730009B461A4B5B68C3F308038046894616466E
:109740006BB9FFF791FE044600F12403406A0193D0
:10975000FFF764FD237B2BB101A8FFF79EFF03B049
:10976000BDE8F08F01232373D4E90053F6B205EB73
:10977000830A55450ED055F8047B5946381DFFF72E
:10978000FFFD8642F5D33B684A46DB6841463846D2
:109790009847EEE700232373DEE700BF00ED00E00B
:1097A0002DE9F341164B5B68C3F3080305460F46EA
:1097B0001BBBFFF759FE00F124030446406A0193E6
:1097C000FFF72CFDD4E90063462406EB8308B0457F
:1097D00009D101A8FFF761FFA542B4BF0020012015
:1097E00002B0BDE8F08156F8040B39460430FFF7AB
:1097F000C7FD8442A8BF0446E9E70020F0E700BFA8
:1098000000ED00E0F8B5D0E901539D4204460E4654
:109810000DDB6F1C002F006804DDB900FEF720FC93
:1098200018B9F8BDFEF714FC00202060A760276877
:10983000626807EB85019200A2EB8502081D02F029
:10984000EDFA47F825606368013363600120E8E7BB
:1098500037B500F124030446406A01930D46FFF733
:10986000DDFCD4E9003203EB8202934219460BD0AF
:109870000968A94203F10403F7D101A8FFF70DFF1E
:109880000025284603B030BD29462046FFF7BAFF21
:1098900005460028F1D06368012B01D1FFF700FED7
:1098A00001A8FFF7FAFEECE770B50446D0E9000224
:1098B0000B4600EB820282420FD001461D6851F830
:1098C000046BAE4207D1521A02F0A8FA6368013B5A
:1098D0006360012070BD0846EDE70020FAE71FB580
:1098E00000F124030446406A01910393FFF796FCBC
:1098F00001A92046FFF7D8FF18B163680BB9FFF73D
:10990000DBFD03A8FFF7C9FE04B010BD70B5D0E9B8
:1099100004561823044603FB0656AE4215D005F143
:1099200010012046FFF7C0FF63680BB9FFF7C4FDC5
:10993000E06929690368DB689847696919B1206A99
:109940000368DB6898471835E7E7D4E9045318261D
:1099500006FB0356AE4204D0284600F047FF1835F8
:10996000F8E70023636170BD73B50446FFF7A4FDFB
:1099700004F12403606A0193FFF750FC2046FFF7CF
:10998000C5FF01A8FFF789FE606A08B1FEF724F859
:10999000D4E90453182606FB0356AE4204D02846E9
:1099A00000F024FF1835F8E72069FEF751FB206826
:1099B000FEF74EFB204602B070BD00000148FFF7E5
:1099C000D3BF00BF58E603208842F8B504460D46D1
:1099D000164615D9904214D2A2F11406751AA1F1B7
:1099E00014072C44B7421AD01CB131462046FFF769
:1099F00078FC06F10800FFF7F9FD143E143CF1E78E
:109A00000DD0B5420BD01CB129462046FFF769FCAA
:109A100005F10800FFF7EAFD14351434F1E7F8BD4D
:109A20008842F8B504460D46164614D9904213D222
:109A3000A2F11006751AA1F110072C44B74218D0F4
:109A40001CB13146204600F04DFF304600F0CEFEFE
:109A5000103E103CF2E70CD0B5420AD01CB12946AA
:109A6000204600F03FFF284600F0C0FE10351034BD
:109A7000F2E7F8BD70B50E1E054611DD3001FEF7A8
:109A8000DFFA044658B1D5E9001201EB0212FFF7E4
:109A9000C7FF2868FEF7DCFA2C60AE60012070BDBD
:109AA0000024F6E72DE9F04F904695B0002303918E
:109AB000D8F804100A9346229942C0E90033C0E95D
:109AC0000233C0E90433CDE908330446027623DCCF
:109AD000D8E90057142303FB0757AF423BD0294670
