:02000002B0004C
:1040000000400B0038DE0B00000006000D0005022A
:084010000401A30F00000000F1
:044018002CC90B00A4
:1040200009480A49884208B505D0094A824202D0A7
:10403000121A08F063FA0748074A0021121A08F01A
:1040400085FA014808BD00BF4CDE032048DC0B00A8
:1040500010E0032010E00320EDE7032070B5074EC9
:10406000074C07F0ABFBA41BA4080025AC4200D111
:1040700070BD56F8043B98470135F7E7DCDB0B00D1
:1040800018DC0B0000F08AB808B500F0D3F9BDE8E1
:10409000084007F04BBB04F0CDBB04F0CBBB04F0F1
:1040A000D1BB000008B5034A03490C2004F090FA84
:1040B000FEE700BF21820B0040C90B000078B0FA78
:1040C00080F040097047012303707047014B0122C3
:1040D0001A7070475CE0032010B5084C23782BB1B0
:1040E000074B01221A700023237010BD01F01AF84B
:1040F00001F0B5F90028F3D10123F5E710E0032022
:104100005AE00320F8B5037D05460F4616468BB1ED
:104110000368DB6883B19A88012A06D09B68F9E7B7
:104120009B684BB19A88012AFAD12BB19A89BA427D
:10413000F6D19E732846F8BD0A49102007F0D0FC3E
:10414000044668B11022002108F000FA064B2360F3
:104150000123A3802B69A360A781A6732C61E9E7E3
:104160002875E7E7B8D90B00100003000EB400B5BE
:104170008CB00DAA4FF0200C52F8041B0392CDE92D
:1041800000120023016804AA1E20CDE904C304F034
:104190002FFA0CB05DF804EB03B0704730B5002087
:1041A00089B004F055F842F210750446002004F07E
:1041B0004FF8001B61F10001A84271F1000307D222
:1041C00007F06CFA07F05FFA10B904F0A3FAEDE714
:1041D00007F064FA07F057FA01F010FA01F03AFA22
:1041E00000F0F0FF03684B4D1B68984700F09AFF02
:1041F00003681B689847484808230121438102F05F
:10420000DBFA7C21444801F043FF00F089FB0021E8
:1042100000F098FB07F03EF9404B0022002808BF51
:104220001D4604A90320049204F0FAF900286ED177
:10423000049C0CB1236923B9394A3A490A2004F095
:10424000C7F90C2305936B4406930423079305AA2F
:104250002369012120469847002858D1BDF80C3029
:1042600007EE903AFBEECC7A17EE900A07F0A4FD29
:104270002A46CDE900012C492C48FFF777FF07F0CB
:1042800037F9044600F09EFF01F034F906F0FEFF16
:10429000844201D001F066F900F044FF01F006F815
:1042A000092809D800F08EFF012101F0BBF800F0C9
:1042B00039FF0A2101F03DF801F03CFD1C481D4981
:1042C000008800244FF0FF330122009405F072F8BB
:1042D00019481A49008800944FF0FF33224605F030
:1042E00069F8174B1A780AB904221A7000F06AFFAD
:1042F00001F05DF8134902460C48FFF737FF124BF7
:104300001888002109B0BDE8304007F0F0BAFFEE90
:10431000007AA9E757C90B0014E0032055C90B0028
:1043200021820B005DC90B0083C90B0054E60320FA
:10433000C8CF0B00D9400B00C6CF0B00CD400B00FF
:104340005BE00320B8C90B00C4CF0B0070B51D4E55
:104350001D4C32781D4D022AC4B02AD107F09AF8BC
:1043600032782B7858B904EB02120092184A04EB09
:1043700003134FF4807104A804F07CFA11E004EBFD
:104380000313039304EB021400F0CCFE00F093FF40
:10439000039B104ACDE900404FF4807104A804F05B
:1043A00069FA33780C482B7004A9FFF7DFFE44B09C
:1043B00070BD2B7804EB0212009204EB0313074A42
:1043C000D7E700BF5BE003204CDE032058E003206A
:1043D000E9C90B0009CA0B0054E6032026CA0B00EA
:1043E00038B507F057F808B93C2038BD00F09AFE00
:1043F00000F061FF054607F06AF8044600F092FEFF
:1044000001F073F8E317241A63EB0103AC4273F174
:104410000003E9DA00F086FE00F04DFF044600F0EC
:1044200081FE01F062F8054607F051F82C4405348E
:10443000201ADAE72DE9F0479B4D2B78013B8AB033
:10444000032B00F2E880DFE813F09101040027005D
:104450001201964B1B78022B01D0FFF777FF07F074
:1044600036F8934BD3E90043C617041B66EB0306EB
:1044700000F058FE00F01FFF0023A042B34109DA0C
:1044800000F0A0FE00F093FF10B101232B70C2E0FA
:104490000423FBE70323F9E7844B1B78032B01D0AC
:1044A000FFF754FF0021834801F0F2FDFFF798FF6A
:1044B000074606F0EFFF0446002838D007F007F85B
:1044C000C219D31706A806F0FDFE069B7A497B4861
:1044D0003A46FFF74BFE14B106A806F003FD4FF471
:1044E000FA6004F01FFA764B1A7D0AB102221A72A2
:1044F000744B7348B3F8009000224946FFF702FE60
:10450000714BB3F800A001225146FFF7FBFD037D7C
:10451000064613B303684FF47A78DB6808FB07F8A4
:104520003BB19A88042A00F0AC819B68F8E7674B9E
:10453000CCE76749102007F0D3FA0446002800F0C2
:104540009E811022002108F001F8624B23600423B1
:10455000A3803369C4E902383461594903A806F0DD
:10456000CDFD54484FF0FF3101F092FD039B6BB33A
:104570009A88012A2AD19B8999452AD1564906A8A9
:1045800006F0FBFC06A801F0F3F806A806F0AAFC6A
:1045900052494A48FFF7EAFD022300202B7003F03E
:1045A00057FE42F210760446002003F051FE001B35
:1045B00061F10001B04271F1000310D207F06EF812
:1045C00007F061F858B904F0A5F8EDE74FF6FF736E
:1045D000D2E79A4502BF424B01221A70DCE707F08E
:1045E0005DF807F050F806F072FFC219D31706A85D
:1045F00006F068FE069A019206F0E0FD019A39493C
:1046000003462E48FFF7B2FD06A806F06BFC0398A0
:1046100008B104F017F9274801F0E8FF00F0D2FDD7
:1046200000F0E0FD00F07EFD00F0A4FD2E4B1A78B6
:104630008AB100241C7000F075FD3C2100F079FE69
:1046400000F070FD214600F02DFF28491B48FFF7C0
:104650008DFD02232B70224B1A78002A00F0148162
:1046600000221A700AB0BDE8F04701F051BA0F4BB2
:104670001D4C1B78042B3FD0FFF768FE01F05AFB5E
:1046800006F025FF0A4BC217C3E9000200F048F903
:1046900000F0CEF980BB0123154A16490748237064
:1046A000FFF764FDB7E700BF5BE0032058E003209D
:1046B00050E0032014E003203BCA0B0054E6032023
:1046C00034E00320C6CF0B00C8CF0B0024D10B0071
:1046D000B8D90B001000030064CA0B0066CA0B00B7
:1046E0005AE0032090CA0B0059E0032018CB0B00BE
:1046F00034CA0B00B1CA0B0003F09AFDDFF89491A5
:10470000DFF8A881624F064603F092FD42F20F7374
:10471000801B98423FF67FAF00F002F900F0F0FBFB
:10472000E0B100F04FFD002100F00FFE00232370E8
:1047300000F0F8FC064606F0CAFE0246C3173046F3
:1047400000F001FF2178534A534B5148002908BF1C
:104750001A465249FFF70AFD022397E601234A460B
:10476000414638462370FFF701FDCDE74C4B1B78DF
:10477000012B01D0FFF7EAFD00F024FD00F017FE49
:1047800001283DD00228E7D100F0CAF800F0FEFA77
:10479000002870D003F04CFD424FDFF80C81064634
:1047A00040F6B73903F044FD801B4845D4D800F0EB
:1047B000B7F800F0A5FB0028F4D006F088FE4FF013
:1047C000000AC317C7E9000388F800A000F0AAFC9C
:1047D000044606F07CFE0246C317204600F0B3FEF6
:1047E00000F0F0FC044606F072FE0246C3172046B5
:1047F00000F0B3FE00F0E6FC514600F013FED1E7F6
:1048000000F08EF800F002FAA8B303F011FD254F76
:10481000DFF89480064640F6B73903F009FD801BA7
:10482000484599D800F07CF800F06AFB0028F4D0E5
:1048300006F04DFE4FF0000AC317C7E9000388F8E1
:1048400000A000F06FFC044606F041FE0246C317CC
:10485000204600F078FE00F0B5FC044606F037FE76
:104860000246C317204600F078FE00F0ABFC51462C
:1048700000F0D8FDD1E70C4B01221A706CE73075BF
:104880006BE6C3F80C8068E60AB0BDE8F08700BFAD
:1048900054E6032034CA0B0037CA0B00D1CA0B0000
:1048A00058E0032050E0032059E00320F9CA0B0030
:1048B00008B506F0B5FF00231A46194606F0C0FFFA
:1048C00006F0AEFF00231A460D2106F0B1FF0C4B97
:1048D0001A1D1A600B4A5A600022C3E902221A61AB
:1048E00001221A7507F074F869220146064801F0A2
:1048F000DFFA06F0ECFD054BC217C3E9000208BD64
:1049000034E003201000030014E0032050E00320F3
:10491000704710B504210446FFF7C1FB204610BDC7
:1049200010B5064C236833B90420FFF7B4FB08B177
:10493000034B03602060206810BD00BF60E00320CF
:10494000F0CE0B007FB532480D4602F0EAFD04467A
:1049500030B930493048FFF709FC204604B070BD3B
:104960009FED2E0A2E4803F0D7F8002217212C487D
:1049700003F04CFA00F0D6FB00F005FD802820D0B3
:1049800000F0D0FB00F0B1FD06F0DDF900F0CAFB4D
:104990004FF6FF710646012006F0CBF981B2304692
:1049A00000F0BBFC55B31F491B48FFF7DFFB00F0CD
:1049B000B9FB002100F0B7FC00F0B4FB802100F04F
:1049C00019FD00F0AFFB00F071FCC1B2164802F017
:1049D000A6F8154802F089F8039000F0A3FB00F058
:1049E00060FC029000F09EFB00F0CDFCDDE902329D
:1049F00000900E490848FFF7B9FBAEE700F092FBC4
:104A0000FF2105460A2006F094F981B22846D1E735
:104A1000C8E1032041CB0B0054E6032000C06444EE
:104A200098E003204DCB0B00CCE103206CCB0B00B6
:104A300073B547494748484CFFF798FB474B1E88DA
:104A40000121304606F053FF00F06CFB00F029FC1A
:104A5000000A207000F066FB00F023FC607000F09C
:104A600061FB00F023FC000AA07000F05BFB00F08B
:104A70001DFC0125E070257100F0A4FB00F025FC71
:104A8000000A607100F09EFB00F01FFCA07100F0B6
:104A900099FB00F01FFC000AE07100F093FB00F0AE
:104AA00019FC207200F08EFB00F077FC607200F0C1
:104AB00089FB00F0A1FB51EC100B07F0ADFCA072DC
:104AC00000F080FB00F06EFCE07200F02BFB00F0C9
:104AD0005FFC65732073224802F09FF80012A073F8
:104AE0001F4802F09AF81F4BE0731A78227451198C
:104AF000197018481C49FFF739FB0323009321461E
:104B00001A480023112202F0A3FA044680B900F0EB
:104B100009FB00F0CBFB1649024623460D48FFF780
:104B200025FB3046214606F0E2FE284602B070BD65
:104B300000F0F8FA00F0BAFB0E49024600230548DF
:104B4000FFF714FB3046002106F0D1FE0020EDE710
:104B5000C3CB0B0054E6032065E00320C4CF0B0059
:104B600098E0032064E00320E2CB0B00C8E10320BF
:104B7000FCCB0B0032CC0B00F0B58BB000F0D2FABE
:104B800000F094FB1D4E1E4C1E4902463046FFF7B6
:104B9000EDFA00F0C7FAB4F8071049BA89B200F08C
:104BA000C8FBD4F80140002324BA1946204606F079
:104BB00075FB2246002302A806F084FB029F00F04A
:104BC000B1FA00F078FB054600F0ACFA00F073FB98
:104BD0000023021906A806F075FB069B0A490093FC
:104BE0003A462B463046FFF7C1FA06A806F07AF996
:104BF00002A806F077F901200BB0F0BD54E60320BF
:104C000065E0032062CC0B0093CC0B0073B52D49FB
:104C10002D482E4CFFF7AAFA2D4B1E880121304655
:104C200006F065FE00F07EFA00F03BFB000A207003
:104C300000F078FA00F035FB607000F073FA00F0D5
:104C400035FB000AA07000F06DFA00F02FFBE07059
:104C500000F068FA00F097FB20711E4801F0DDFFBC
:104C6000001260711B4801F0D8FFA07100F05AFAE1
:104C700000F01CFB1849194A0125092898BF0A466B
:104C800017491148FFF772FA21461648009500238C
:104C9000072202F0DDF9044650B913490A48FFF72C
:104CA00065FA3046214606F022FE284602B070BD65
:104CB0000E490548FFF75AFA3046002106F017FE64
:104CC0000020F3E7C3CB0B0054E6032065E003208C
:104CD000C4CF0B0098E00320C9CC0B00E0CC0B0044
:104CE000F5CC0B00C8E1032015CD0B003ECD0B0029
:104CF00010B522492248234C88B0FFF737FA00F05C
:104D000011FA00F0D3FA09280AD82378802B07D1AA
:104D100000F008FAB4F8051049BA89B200F003FBB4
:104D200000F000FAB4F8071049BA89B200F001FBAC
:104D3000D4F8012012BA00211046029206F0AEFA11
:104D40000023029A04A806F0BDFA049A039200F028
:104D5000E9F900F0ABFA029000F0E4F900F0ABFAE8
:104D6000DDE90232084900900548FFF7FFF904A881
:104D700006F0B8F8012008B010BD00BF61CD0B00EF
:104D800054E6032065E0032089CD0B0073B5344958
:104D90003448354CFFF7EAF9344B1E880121304680
:104DA00006F0A5FD00F0BEF900F07BFA000A2070C5
:104DB00000F0B8F900F075FA607000F0B3F900F097
:104DC00075FA000AA07000F0ADF900F06FFAE0701B
:104DD00000F0F8F9002500F0EAFA257106F077FBFB
:104DE0000016607106F073FB0014A07106F06FFBF3
:104DF0000012E07106F06BFB20721D4801F00DFF00
:104E0000001260721A4801F008FFA07200F0DAF98F
:104E100000F0CDFA174902462B461248FFF7A6F9D3
:104E200005230093214614482B460B2202F010F96B
:104E3000044650B911490B48FFF798F9304621460E
:104E400006F055FD012002B070BD0D490548FFF781
:104E50008DF93046294606F04AFD2846F3E700BFA3
:104E6000C5CD0B0054E6032065E00320C4CF0B0042
:104E700098E00320ECCD0B00C8E103201CCE0B0012
:104E80004DCE0B0070B51A4D1A4E1B4988B02846FE
:104E9000FFF76CF9D6F8014000F044F9B6F80510B8
:104EA00049BA89B200F045FA24BA002319462046CF
:104EB00006F0F4F90023224604A806F003FA049A47
:104EC000039200F02FF900F0F1F9029000F02AF9B6
:104ED00000F0F1F9DDE90232084900902846FFF7B9
:104EE00045F904A805F0FEFF012008B070BD00BF21
:104EF00054E6032065E0032078CE0B0089CD0B003B
:104F000070B58AB0322300268DF82530264D27480B
:104F100004960DF12703CDE902630DF126030093FA
:104F200001964FF47A730DF12502294602F094F9A7
:104F3000044618B9002420460AB070BD9DF82530FB
:104F40009DF82620EE541A4D9DF8273019482B70F5
:104F5000079201F062FE0196034617492878079AE6
:104F600001EB0011009115481549FFF7FFF82B7868
:104F7000042B11D02B78022B05D1FFF7D1FCFFF7C2
:104F8000B7FE0028D7D12B78062BD3D1FFF7C8FC6A
:104F9000FFF778FF0446CEE7FFF7C2FCFFF7ECFD12
:104FA0000028E7D0C7E700BF65E00320C8E1032081
:104FB0005DE0032098E00320DCDE032054E60320BC
:104FC000A0CE0B0010B5084A084C094912780978A0
:104FD000084B204602F060FD21460748BDE810401E
:104FE000002202F02BB800BFCCCF0B0098E00320CA
:104FF000CACF0B00ECE30320C8E1032010B5044B3B
:1050000003600446406808B103F0DAF8204610BD9A
:105010009CD60B0010B50446FFF7F0FF2046782120
:10502000FFF73DF8204610BD10B5034B0360044662
:1050300001F048FC204610BD24CF0B0010B50446FB
:10504000FFF7F2FF20461021FFF729F8204610BD98
:1050500010B5044B03600446406808B103F0B0F893
:10506000204610BD9CD60B0010B50446FFF7F0FF9C
:1050700020467021FFF713F8204610BD10B50368D5
:1050800004460BB903F094F82068BDE8104003F023
:105090009FB838B504460430FFF7F0FF206A616A14
:1050A0000368DD68D4E90223A8476068BDE838409A
:1050B00003F096B838B504460430FFF7DFFF206AE6
:1050C000616A03689D68D4E90223A847A26823683F
:1050D000D1885B692046984718B9236820469B69A8
:1050E0009847606803F07CF8012038BD00F1280182
:1050F000816009494FF0480CC0E903C10121818258
:105100004FF47A71C16105490022C0E9081242607A
:105110008261034A02607047739EA92084E30320E2
:1051200040CF0B0010B5064C23683BB97020FEF74A
:10513000B2FF034608B1FFF7D9FF2360206810BD16
:105140007CE3032008B5006A01F0D2FBFFF7EAFF19
:1051500003685B689847BDE8084000F0B3BA10B533
:10516000006A01F0C5FBFFF7DDFF0368BDE81040F2
:105170005B68184710B5FFF7D5FF0368BDE810401E
:10518000DB68002118470000002200F1280142607E
:1051900082614FF47A728160C2610749074A0262F4
:1051A0004FF0500C3222C0E903C142620121044A8F
:1051B00081820260704700BF739EA92084E30320B0
:1051C0006CCF0B0010B5064C23683BB97820FEF776
:1051D00062FF034608B1FFF7D7FF2360206810BDC8
:1051E00080E3032010B5FFF79DFF0368BDE8104082
:1051F000DB6800211847000010B504462DED028B36
:105200000430FFF73BFFE368083B172B0CD9A3687A
:1052100093ED068B606802F0E3FFB0EE480AF0EE13
:10522000680ABDEC028B10BD9FED018BF2E700BF59
:105230000000000000000000F8B50446043057EC00
:10524000106BFFF71BFFE368083B172B12D9A5680B
:105250003046D5E90623394607F06EF850B9C5E95E
:1052600006672046A56802F021FFA8602368204653
:105270001B6998476068BDE8F84002F0B1BF38B5D7
:10528000044604300D46FFF7F9FEE3686068023B10
:10529000AB4226BFA3685D5B002502F0A1FF284654
:1052A00038BD08B51021FFF7EAFF08BD08B5122187
:1052B000FFF7E5FF08BD08B53221FFF7E0FF08BDA5
:1052C00008B53421FFF7DBFF08BD08B54021FFF723
:1052D000D6FF08BD08B54221FFF7D1FF08BD70B564
:1052E000044604300D461646FFF7C8FEE368023B4D
:1052F000AB420DD3A3685A5BB24209D05E5320463D
:10530000A56802F0D3FEA860236820461B69984771
:105310006068BDE8704002F063BF08B50A4610211E
:10532000FFF7DDFF08BD08B50A461221FFF7D7FFDA
:1053300008BD08B50A463221FFF7D1FF08BD08B500
:105340000A463421FFF7CBFF08BD08B50A464021C5
:10535000FFF7C5FF08BD08B50A464221FFF7BFFFAA
:1053600008BD38B5044604300D46FFF787FEE368F4
:105370006068013BAB4226BFA3685D5D002502F07B
:105380002FFF284638BD08B51421FFF7EAFF08BDF6
:1053900008B51821FFF7E5FF08BD08B51421FFF790
:1053A000E0FF08BD08B52021FFF7DBFF08BD08B509
:1053B0004421FFF7D6FF08BD70B5044604300D4602
:1053C0001646FFF75BFEE368013BAB420DD3A368D3
:1053D0005A5DB24209D05E552046A56802F066FECD
:1053E000A860236820461B6998476068BDE8704044
:1053F00002F0F6BE08B50A461421FFF7DDFF08BD2E
:1054000008B50A461821FFF7D7FF08BD08B50A46B8
:105410001421FFF7D1FF08BD08B50A462021FFF788
:10542000CBFF08BD08B50A464421FFF7C5FF08BDFC
:1054300038B5044604300D46FFF720FEE368606887
:10544000013BAB4226BFA3685D5D002502F0C8FEAC
:10545000284638BD08B51721FFF7EAFF08BD08B593
:105460004021FFF7E5FF08BD70B5044604300D4646
:105470001646FFF703FEE368013BAB420DD3A3687A
:105480005A5DB24209D05E552046A56802F00EFE74
:10549000A860236820461B6998476068BDE8704093
:1054A00002F09EBE08B50A461721FFF7DDFF08BDD2
:1054B00008B50A464021FFF7D7FF08BDF8B50446F6
:1054C00004300D46FFF7DAFDE3686068083BAB4245
:1054D00023BFA1684919D1E90067002638BF00271A
:1054E00002F07EFE30463946F8BD08B52821FFF7A8
:1054F000E5FF08BD08B53821FFF7E0FF08BDF8B5A6
:10550000044604300D461E461746FFF7B7FDE36814
:10551000083BAB4212D3A3685A1958595168B1429B
:1055200008BFB8420AD05F5120465660A56802F015
:10553000BDFDA860236820461B6998476068BDE8E8
:10554000F84002F04DBE08B52821FFF7D8FF08BD8E
:1055500008B53821FFF7D3FF08BD08B54821FFF78C
:10556000CEFF08BD10B517491748FEF7FFFDFFF73E
:1055700029FE0021FFF7EFFEFFF724FE0021FFF7D1
:10558000E4FEFFF71FFE044605F0A1FF0246C31725
:105590002046FFF7DDFFFFF715FE0021FFF742FF72
:1055A000FFF710FE044605F092FF0246C31720469F
:1055B000FFF7D3FFFFF7B6FDBDE810400021FFF76E
:1055C0001FBF00BFF8CE0B0054E60320084B01229A
:1055D00010B51A7006F0FCF9064C014600234FF492
:1055E0000052204601F07AF9034B236010BD00BF42
:1055F00078E3032084E3032024CF0B0008B513498C
:105600001348FEF7B3FD0221042006F05FF90021E4
:10561000082006F05BF90121072006F057F9002168
:10562000122006F053F90121112006F04FF9012153
:10563000102006F04BF90021102006F058F9002147
:10564000112006F054F9012008BD00BF90CF0B00D7
:1056500054E6032010B51849184890B02024FEF7EE
:1056600085FD22460021684606F070FF2246002193
:105670000DEB04008DF8054006F068FF00210DEBEE
:1056800004008DF8254003F031F841F2D833ADF82D
:1056900006300B4B029341F27003ADF80C30009BC7
:1056A000002143F400736846009303F01FF80038AC
:1056B00018BF012010B010BDA9CF0B0054E6032085
:1056C0008403840308B508490848FEF74FFDFFF737
:1056D00029FD0121FFF7ECFEFFF724FDBDE808409E
:1056E00047F69451FFF719BED0CF0B0054E60320C4
:1056F0007047006A0368DB68184700000A4B10B562
:105700000446036004F02CFA214604F064FC05F022
:10571000C5FF05F0B5FF2046044B40F8043B04F0FC
:10572000F5FA204610BD00BF60D00B0048D00B003A
:1057300010B50446FFF7E2FF20462421FEF7AFFC38
:10574000204610BD38B5046805467CB16368013B4E
:1057500063605BB9236820469B689847A368013B58
:10576000A3601BB923682046DB689847284638BDEC
:1057700010B52A4994B0044605F055FC58B12046AE
:10578000264905F050FC044668B9FFF7CBFC2146DA
:10579000FFF788FE1EE02249204605F044FC002861
:1057A000EDD114B010BDFFF7BDFC0121FFF77AFE6B
:1057B000FFF7B8FCFFF784FD0B280BD819491A48EE
:1057C000FEF7D4FCFFF7AEFC0C21FFF7B8FD174B3A
:1057D00001221A70FFF7A6FCFFF73CFE1449154B97
:1057E000154A002818BF0B46402104A803F042F8D0
:1057F0000D4804A9FEF7BAFC02F094FF60B10F4B0C
:105800000F491B788DF8003002A83C2304AA03F04E
:1058100029FB03A8FFF796FF0120C2E7B4D00B00D5
:1058200064CA0B00F3CF0B0054E60320A1E303206E
:10583000ECCF0B00F0CF0B0020D00B00A0E3032037
:105840003AD00B0070B5D0E900531426044606FB8D
:105850000356AE4204D0284605F044FB1435F8E761
:10586000206802F0EFFF204670BD8842F8B504467C
:105870000D46164616D9904215D2A2F11406751A95
:10588000A1F114072C44B7421CD02CB1314620465C
:1058900005F0A4FB337C2374304605F023FB143E53
:1058A000143CF0E70ED0B5420CD02CB1294620466E
:1058B00005F094FB2B7C2374284605F013FB14356C
:1058C0001434F0E7F8BD2DE9F0410023C0E90033BE
:1058D00083604F689F4204460E4623DD4FF0140854
:1058E00008FB07F002F0A6FF0546D8B1D4E9001284
:1058F00008FB0212FFF7B9FF206802F0A3FF256042
:10590000A760D6E9007308FB0378B84508D039468C
:10591000284605F07DFB3B7C2B7414371435F4E7E7
:10592000736863602046BDE8F081000070B5274BC6
:10593000274A01251D70274B00248CB09A60C3E9CB
:105940000044022002F07EFE2146284602F092FE2C
:105950002946042002F054FCCDE90044029405F0ED
:105960009DFE1D4C0546694603A8FFF7ACFF264681
:1059700003A906A8FFF7A7FF184B46F8043B06A9A2
:1059800009A8FFF7A0FF09AA1E21304604F006FC73
:1059900009A8FFF757FF06A8FFF754FF104B236035
:1059A000256203A8FFF74EFF0E4B236005F076FE3D
:1059B0004FF4165105F060FE04F0D2F8214604F0D1
:1059C000C3FA6846FFF73EFF0CB070BDA0E30320AA
:1059D0000000FFFF94E30320A4E3032048D00B0062
:1059E00058D80B0060D00B0010B503682F2B04466D
:1059F00004D9074A07490A2002F0EAFD23681F2B51
:105A000083BF03F01F03044823604FF0A04010BD84
:105A100021820B00E9D00B000003005007EE900A32
:105A20009FED097AF8EEE77A67EE877A9FED077ABD
:105A300087EE870ADFED067A70EE677AB2EE040A27
:105A400087EE800A704700BF00404E4500F07F455A
:105A50000000FA4313B5012101A804F052FFFFF73B
:105A6000B1FBFFF79AFCFFF7ADFBFFF796FC25288B
:105A700001A80DD904F0D8FFFFF7A4FB0121FFF71F
:105A8000CBFC002401A804F04BFF204602B010BD5F
:105A900004F0AFFF0124F5E730B5194D0FCD97B0F5
:105AA0000CAC0FC40FCD0FC495E8030084E80300CD
:105AB000144904A802F0C2FF04A803F002F8044647
:105AC00004A803F037F804A810EE105A03F062F8A7
:105AD00016AB10EE100A03EB840406F06DF9CDE965
:105AE0000201284606F068F9CDE90001064A54F89B
:105AF000283C0648402102F0BDFE17B030BD00BF73
:105B000064D10B0010E603200DD10B005CDF0320F5
:105B1000F0B54E4E4E4C3378BFF35B8F13F0010F50
:105B200085B009D13046FEF7C9FA28B102F0A8FBCA
:105B300020603046FEF7C7FA464B1D8823682D01CA
:105B40005B5D5F013378BFF35B8FD90709D43F48B2
:105B5000FEF7B4FA28B102F093FB20603B48FEF751
:105B6000B2FA23682B4403A85B7803F01F033B437E
:105B70000393FFF739FF039A01239340C0F80835D8
:105B8000FFF720FB074605F0A2FC0246C317384684
:105B9000FFF7DEFCFFF716FB0746FFF713FBFFF7E7
:105BA00094FB013081B23846FFF7CFFBFFF70AFBC9
:105BB0000746FFF707FBFFF78DFB013081B2384640
:105BC000FFF7C9FBFFF7FEFAFFF77FFB0190FFF736
:105BD000F9FAFFF77FFB019A1F4903461F48FEF7BA
:105BE000C5FAC82002F09EFE3378BFF35B8FDA0758
:105BF00009D41648FEF762FA28B102F041FB206092
:105C00001248FEF760FA23685B5D5F013378BFF3EB
:105C10005B8FDB0709D40D48FEF750FA28B102F07C
:105C20002FFB20600948FEF74EFA23681D4403A8A5
:105C30006B7803F01F033B430393FFF7D5FE039AF2
:105C400001239340C0F80C3505B0F0BDC8E3032034
:105C5000CCE30320C4CF0B0026D10B0054E6032075
:105C600030B585B00D4600226946009202F0D8FC9E
:105C700090B9009C0CB1236923B9084A08490A204D
:105C800002F0A6FC0C23CDE901350423039301AAFD
:105C9000236901212046984705B030BD21820B00C1
:105CA0005DC90B0013B5FFF78DFA01A90446072063
:105CB000FFF7D6FF011EA8BF01992046C9B2FFF722
:105CC000ABFBFFF72FFAFFF7C5FB30B1174803F026
:105CD000C3FA4FF4FA7002F025FEFFF773FA01A938
:105CE00004460320FFF7BCFFE8B9BDF8043007EE17
:105CF000903AFBEECC7A17EE900A06F05DF841EC94
:105D0000100B2046FFF798FAFFF75CFAFFF774FADA
:105D1000074B51EC100B002206F036FB003818BF81
:105D2000012002B010BDFFEE007AE4E7D0E30320CB
:105D300000004E4013B5FFF745FA144B044618888F
:105D400005F001FEFFF76AFEFDEEC07A2046CDEDBC
:105D5000017A9DF804100E4CFFF758FBFFF732FA5A
:105D6000FFF71BFB0B4A03461021204602F082FD81
:105D700009490A482246FEF7F9F9FFF793FFFFF7B2
:105D800069FEFFF789FE012002B010BDCECF0B00E7
:105D90004CDF032043D10B0048D10B0054E6032015
:105DA0000148002103F014BAD0E30320704710B576
:105DB00020210446FEF773F9204610BD30B585B0AA
:105DC0000446089860B1406850B1856845B1CDE996
:105DD0000241CDE90023C46801AB6A4602A9A0478D
:105DE00005B030BD30B585B0006813680193D1E9C6
:105DF00000458368CDE902450BB905F075FEC3681F
:105E000001AA02A9984705B030BD012A02D101605C
:105E100000207047022A04BF0B680360F8E703689C
:105E20001268D1E90001184710B58368044613B120
:105E3000032201469847204610BD10B5044638B1EC
:105E4000FFF7F2FF20461021BDE81040FEF727B90A
:105E500010BD10B504468AB008464FF0200C002152
:105E6000CDE90023CDE902C10B4602AA216802F068
:105E7000BFFB0AB010BD0EB403B503AB322153F81B
:105E8000042B0193FFF7E5FF02B05DF804EB03B0CC
:105E900070470EB403B503AB012153F8042B0193F3
:105EA000FFF7D7FF02B05DF804EB03B070470000C6
:105EB00010B50272FF2242810022C0E90322426132
:105EC0000276C261024A034C1060C0E9004110BD75
:105ED000DCE3032078D30B002DE9F8439DF8208004
:105EE0000446894616461F46B8F1000F02D04068A6
:105EF00003F04CFA217A606803F025FA60680368C1
:105F000049469B6898476068002103F03BFA0546C4
:105F100000BB0123217A60683A4603F002FA874207
:105F2000034609D13744BE421CD0606803685B69F0
:105F3000984706F8010BF6E70B490C484A46FFF76D
:105F40009AFFB8F1000F02D0606803F028FA2846E3
:105F5000BDE8F8830346064904484A46FFF78BFF2D
:105F60000025EEE70125ECE78CD10B00D8E30320F8
:105F7000B1D10B0007B500930123FFF7ADFF03B0CC
:105F80005DF804FB73B54389FF2B044610D0194E0E
:105F9000194D02F04DF9B0F57A7F09D2608905F00C
:105FA000BFFC012804D031462846FEF7DFF8F0E7B1
:105FB00001230DF1070228212046FFF7DBFF30B94E
:105FC0000D480E49FEF7D2F8002002B070BD9DF8D2
:105FD0000730182BF4D101230DF1070229212046A7
:105FE000FFF7C8FF0028EBD09DF80730052BE7D15D
:105FF000EBE700BFD5D10B00D8E30320EAD10B00BB
:106000002DE9F0419DF8188004460F4615461E46BE
:10601000B8F1000F02D0406803F0B8F9217A606847
:1060200003F091F96068036839469B6898472E44ED
:10603000B542606805D0036815F8011B9B68984756
:10604000F6E7012103F09EF9034670B108490948BB
:106050003A46FFF710FF0025B8F1000F02D0606844
:1060600003F09DF92846BDE8F0810125F4E700BF63
:10607000F7D10B00D8E303201FB58DF80F20009354
:106080000DF10F020123FFF7BBFF05B05DF804FB24
:10609000F8B50A460C4605461A491B48FEF766F84D
:1060A000002CB8BFEC687CB9012322461B2128468E
:1060B000FFF7E2FF1549024606461348FFF7E9FEDF
:1060C000EC606C613046F8BD032C19DDA7101F2F62
:1060D000A8BF1F27BA0062F07C020123D2B21B21A5
:1060E0002846FFF7C9FF3A460346094906460648CF
:1060F000FFF7CFFE4FF4FA635F43EC606F61E1E7B7
:106100000127E7E71CD20B00D8E3032026D20B00BF
:1061100042D20B00064B1A684AB1A0F500630B434C
:1061200005D1D3681BB100211046FFF7B1BF7047FE
:10613000DCE303202DE9FF419DF828800546164643
:106140001F46B8F1000F04D04068019103F01EF91A
:106150000199019100230DF10F022846FFF70AFF74
:10616000044660B19DF80F3003EA06023A439342B9
:1061700005D0019900232846FFF77EFF0446B8F1B9
:10618000000F02D0686803F00AF9204604B0BDE8A9
:10619000F08113B514460DF10702FFF7EBFE28B1AD
:1061A0009DF807301C420CBF0120002002B010BD3A
:1061B00013B514460DF10702FFF7DCFE28B19DF878
:1061C00007301C4214BF0120002002B010BD07B5EB
:1061D000D2430093D2B20023FFF7ACFF03B05DF8C7
:1061E00004FB000037B501230DF107020F2104461F
:1061F000FFF7C0FE054638B91E491F48AD22FFF71C
:106200003AFE284603B030BD9DF8073013F0200F4A
:106210004FF001030BD02022E3610F212046FFF74E
:10622000D6FF164A16491448FDF7A0FFE9E70822F1
:1062300017212046FFF7BCFF18B10223114AE36182
:10624000F0E79DF807301A0709D50323E361082218
:1062500001230F212046FFF7BAFF0B4AE2E75B0755
:10626000CFD50422E26101230F212046FFF7AFFFC3
:10627000064AD7E795D20B00D8E3032066D20B007D
:10628000B4D20B006FD20B007FD20B008FD20B0069
:1062900007B500931346FF22FFF74CFF03B05DF8EC
:1062A00004FB2DE9F3479DF828A005460C469146CE
:1062B0001F46BAF1000F02D0406803F067F807B339
:1062C000202F3E4628BF20267F2C26D83319802B2E
:1062D00001D9C4F18006012304223F212846FFF79B
:1062E00076FF002364F07F0100934A463346C9B22B
:1062F0002846FFF7F1FD804628B13444BF1BB14466
:10630000DDE74FF00108BAF1000F02D0686803F032
:1063100046F8404602B0BDE8F087012304223F2141
:106320002846FFF7B5FFDCE72DE9F3479DF828A0E5
:1063300005460C4691461F46BAF1000F02D0406850
:1063400003F024F807B31F2F3E4628BF1F267F2CDB
:1063500026D83319802B01D9C4F1800601230422E9
:106360003F212846FFF733FF002364F07F010093AD
:106370004A463346C9B22846FFF742FE804628B156
:106380003444BF1BB144DDE74FF00108BAF1000F00
:1063900002D0686803F003F8404602B0BDE8F08719
:1063A000012304223F212846FFF772FFDCE70000AB
:1063B00030B585B00D68D1E9043203954D6802957A
:1063C0008D680195C96800910133044902F26C722D
:1063D000044604F03BFE204605B030BDC5D20B009C
:1063E00003090A2200F00F0002FB0300704738B5D2
:1063F000044600781546FFF7F3FF08606078FFF762
:10640000EFFF4860A078FFF7EBFF8860E078FFF7C8
:10641000E7FFC8602079FFF7E3FF013808612DB975
:10642000651D2878FFF7DCFF886138BD6079FFF7CC
:10643000D7FF6430A51D4861F3E7000070B5012364
:1064400088B00D461A4610210446FFF7A2FEF0B1AF
:1064500008230126204600960DEB03020021FFF7DA
:106460003BFD044698B1324629460DF10900FFF77D
:10647000BEFF04A8FFF79CFF0848049A0849FDF7EF
:1064800075FE04A804F02EFD204608B070BD24223D
:106490000021284606F05AF80024F5E7D8E3032047
:1064A000E3D20B0030B58BB00D4601A9FFF7C6FF54
:1064B000044620B101A802F02DFAC5E900012046EA
:1064C0000BB030BD0A2390FBF3F103FB110091FBED
:1064D000F3F203FB121240EA0210C0B2704770B52B
:1064E000054600680C461646FFF7ECFF207068680A
:1064F000FFF7E8FF6070A868FFF7E4FFA070E868A6
:10650000FFF7E0FFE07028690130FFF7DBFF207143
:106510002EB9661DA869FFF7D5FF307070BD6A6996
:10652000642392FBF3F003FB1020FFF7CBFFA61DC3
:106530006071EFE7F0B587B0054602A816460C4635
:10654000FFF736FF1E48029A1E49FDF70FFE02A80C
:1065500004F0C8FC16B1686802F018FF204601225A
:106560000DF1090100278DF80870FFF7B8FF01232E
:106570001A4610212846FFF78BFE0446E8B108238F
:1065800000970DEB030239462846FFF739FD044614
:1065900060B101231A4610212846FFF718FE16B1F4
:1065A000686802F0FCFE204607B0F0BD4FF48D7223
:1065B00005490348FFF75FFCF1E74FF48F72F7E7F7
:1065C000D8E30320F1D20B00FFD20B0013B5044631
:1065D0006846CDE9002305F06BFF9DF810200146C9
:1065E0002046FFF7A7FF02B010BD0000F0B5057E02
:1065F00089B0044675BB04F04DFF58B30026002750
:1066000004A92846CDE9046702F0A4F810B30125D7
:10661000257604F05CFFC317CDE90203024600951E
:106620002046FFF7D3FF02A92046CDE90267FFF716
:1066300039FF134B13491B68009304A8DDE90223BB
:1066400004F0E6FE1048049A1049FDF78FFD04A8F7
:1066500004F048FC63698BB101F0EAFD2369C01ABC
:10666000636998420AD301F0E3FD4FF0FF312061E6
:10667000204609B0BDE8F040FFF70ABD09B0F0BD03
:10668000A4DF0320A8E60320D8E303201AD30B00DD
:1066900038B5002383608B6804460D462BB1022277
:1066A0009847EB68E360AB68A360204638BD000004
:1066B0002DE9F04395B005461C9904A890461F4665
:1066C0000CAEFFF7E5FF04A908A8FFF7E1FF08A952
:1066D0003046FFF7DDFF4FF000091020CDF848905D
:1066E000FDF7D9FC0446A0B196E8030001AB83E8AE
:1066F000030094E8030086E8030093E803000E9B80
:10670000E268A36084E803000F9BCDF838900F92F5
:10671000E360244B1393244B1293002200234FF089
:106720000009C5E90023214BC5F8089010201094FA
:10673000CDE90139CDF80C90FDF7ADFC0446D8B198
:10674000129BC0F8089033B1022210A99847139BFE
:10675000E360129BA360164B0393164A029401ABAD
:106760004046394601F07EFFB0B12046FFF75CFBA2
:1067700010212046FDF793FC10A8FFF755FB30468B
:10678000FFF752FB08A8FFF74FFB04A8FFF74CFBED
:10679000284615B0BDE8F083029BAB60C5E90087D1
:1067A000EAE700BFE55D0B006D680B0002000C001E
:1067B0003B5E0B00BD5D0B0030B504468BB011B1E4
:1067C000406802F091FD2046FFF7DCFB06AD002893
:1067D00037D02046FFF706FD01231A461021204638
:1067E000FFF7D7FCD8B104F055FEC0B902A9204686
:1067F000FFF758FEDDE9020104F050FD134B144988
:106800001B6800932846DDE9022304F001FE1148CD
:10681000069A1149FDF7AAFC284604F063FB0F4BCA
:1068200006930F4B09930F4B08934FF4006200231C
:1068300002A80095FFF73CFF2846FFF7F5FA0BB0DA
:1068400030BD09490348FFF716FBE8E7A4DF032042
:10685000A8E60320D8E3032030D30B0015610B001A
:106860001F5E0B000B5E0B004DD30B00012A37B5EA
:10687000044604D10B680360002003B030BD022A37
:106880000CD0032AF8D10468002CF5D02046FFF77D
:10689000CBFA10212046FDF702FCEDE709680191D3
:1068A0001020FDF7F8FB054610B10199FFF7F0FE47
:1068B0002560E1E7014B024A1A607047D8E30320E4
:1068C00065D30B00704710B510210446FDF7E7FBB8
:1068D000204610BD0368C9B29B68184730B5034D08
:1068E000C0E90223C0E9005130BD00BF90D30B00C6
:1068F000406802F0F9BC10B50446006802F04FFD94
:10690000204610BD2DE9F7430446406801900D462E
:1069100016461F4602F03AFDA7B1E168606841F0F3
:10692000500102F014FD290A6068FFF7D3FF2946E1
:106930006068FFF7CFFF6068002102F023FD48B1D7
:10694000002400E0012401A8FFF7D5FF204603B092
:10695000BDE8F083202F217B6068B84628BF4FF048
:1069600020080123424641F0500102F0DAFC05F014
:106970002FF803681B6998474045E1DB06EB0809DF
:1069800005F026F803685B69984706F8010B4E4549
:10699000F6D14544A7EB0807BEE72DE9F74F0446BB
:1069A000406801900E4690461D4602F0EFFC4FF005
:1069B0000109B9F1000F2AD04DB3E168606841F0D8
:1069C000500102F0C4FC310A6068FFF783FF606881
:1069D0003146FFF77FFFA5F11E0A4746A6EB080BDD
:1069E000606817F8011B0368013D9B68984755458F
:1069F0000BEB0706B84601D0002DF1D160680121EC
:106A000002F0C0FC0028D7D04FF00009D1E701A860
:106A1000FFF771FF484603B0BDE8F08F2DE9F04362
:106A20008BB00E4615468046406801901C4602F029
:106A3000ADFCAE4229D2264425448CB11E2C2746FB
:106A4000D8F8003028BF1E27F61BD3F8089002AAFA
:106A50003B4631464046ED1BC84748B9002400E09C
:106A6000012401A8FFF747FF20460BB0BDE8F083E3
:106A7000D8F8003002AAD3F80C9029463B4640468D
:106A8000C8470028EAD0E41BD7E7E9D9002CE7D0B3
:106A9000D8F800301E2C274628BF1E27D3F80890B0
:106AA00002AA3B4631464046C8470028D6D0D8F80F
:106AB000003002AAD3F80C9029463B464046C8470E
:106AC0000028CBD03E443D44E41BDFE70160027167
:106AD000704700680368DB681847006803681B6A32
:106AE0001847006803689B6A184700797047006878
:106AF00003689B6B184737B505460C46194601924B
:106B0000FFF7F5FF2868019A03685B69214603B027
:106B1000BDE83040184700680368DB6B184738B59C
:106B20000446006803680D465B6B9847294620467B
:106B3000FFF7F1FF257138BD38B5044600680368DA
:106B40009B689847054618B121792046FFF7E7FF73
:106B5000284638BD006803681B6C18470068036846
:106B60005B6C184700680368DB6C184700680368B3
:106B70001B6D1847006803685B6D18470068036861
:106B80009B6D18472DE9F843044600680A9F1E468E
:106B900003681B69DDE9089898470546C8B11EB12E
:106BA0002046FFF7E3FF3070B9F1000F04D0204614
:106BB000FFF7D8FF89F80000B8F1000F04D0204695
:106BC000FFF7D8FF88F800001FB12046FFF7D6FF77
:106BD00038702846BDE8F883012070470379032BFD
:106BE000FCD00120704700207047817170474171CF
:106BF0007047C17270470173704741737047837B60
:106C000023EA0202114381737047C0797047007A0A
:106C10007047407A7047807A7047008A00B27047A8
:106C20000079704701717047408A80B27047808A4E
:106C300080B27047C08A80B2704738B505460C46AE
:106C40002B682846DB68984728B9002CF8D02046E6
:106C500001F068FEF4E738BDF8B505460F46144666
:106C600001F0E6FA064601F0E3FA801BB8420AD2C8
:106C70002B682846DB68984730B9002CF3D02046B3
:106C800001F050FEEFE70020F8BD70B504460E4657
:106C900001F0CEFA054601F0CBFA401BB04204D217
:106CA0002379032BF7D0012070BD0020FCE770B5DD
:106CB000C3690446B3B101F0BBFA642605462368F4
:106CC00020461B6B984768B101F0B2FAE369401B9C
:106CD000984209D80A21012004F02BF8704301F0F2
:106CE00021FEECE7012070BD0020FCE7064A0260AF
:106CF000FF210022027141714282C1728282818130
:106D00008273C282C2617047ACD30B007047704778
:106D100070477047704741717047817170470171CA
:106D20007047000030B5034D0560017142718371F9
:106D300030BD00BF2CD40B00704710B510210446A5
:106D4000FDF7ADF9204610BD0EB403B503AB00212D
:106D500053F8042B019303F0B0FF02B05DF804EB8D
:106D600003B0704773B5044608462279A36832B170
:106D7000A3B90B4902B0BDE8704003F095BE094AC3
:106D8000267B094D0949647B012E18BF2946CDE9B0
:106D900000140749FFF7D8FF02B070BD054AEFE7BE
:106DA00069D40B0021D80B0065D40B0061D40B0013
:106DB0007FD40B0058D40B0010B50446FFF7B2FF88
:106DC000054B2360054BA36001232373002323613C
:106DD000A382204610BD00BFB8D40B00A4D40B0082
:106DE00013B50B4C2178BFF35B8F11F001010BD170
:106DF00020460191FDF762F9019928B1054803F099
:106E0000B1FF2046FDF75FF9024802B010BD00BF98
:106E1000E0E30320E4E3032007B50191FFF7E0FF7F
:106E2000019903B05DF804EB04F054B808B5FFF71E
:106E3000D7FFBDE8084004F053B808B5FFF7D0FF0E
:106E4000BDE8084004F04DB810B50379042B20D0FC
:106E5000032B20D0022B20D0114A1249012B18BF3E
:106E60000A4641798379013918BF012133B1012BD9
:106E700004D0022B02D0032B18BF0023002404737C
:106E8000026101754375FFF7ABFFBDE8104003F0E9
:106E900073BF054AE5E7054AE3E7054AE1E700BFB6
:106EA00080841E0040420F000024F40000127A008B
:106EB00000093D0008B5FFF793FFBDE8084003F067
:106EC0006FBF10B50446FFF78BFF04F10801BDE862
:106ED000104003F091BF08B5FFF782FFBDE80840FE
:106EE00003F070BF08B5FFF77BFF08BD0023024821
:106EF0001A461946FFF760BFECE30320012A05D1CB
:106F0000007A0B781B1A584258417047002070478E
:106F10002DE9F047254C012386B0237063700023D0
:106F20000F46A17000930322FF232146064600F07E
:106F3000E5FB20B10025284606B0BDE8F087FA231E
:106F40008DF8173001F074F906F10409804608F550
:106F50007A6501F06DF9291A0029EBDD002289B26A
:106F60004846FFF7BEFD0028F3D00023CDE90233E9
:106F7000CDE900330DF117022146304600F0C8FB81
:106F800005460028E3D09DF81730012BDFD994F88F
:106F900000A0BAF1020FDAD14846FFF7E7FD5346E9
:106FA00002463946304600F021FBC4E704E40320E2
:106FB000012A2DE9F34107460E4614463BD94D7987
:106FC000022D30D100F10408C97901914046FFF744
:106FD000CDFD083C2B4602460199384600F006FBE1
:106FE000E5B206F1080300242246954204F10104AB
:106FF000E4B204D913F8012B397A9142F4D104F1A7
:1070000008010E44A54216D916F8011B019140460D
:10701000FFF7ACFD01340246019902233846E4B281
:1070200000F0E4FAEEE7032D05D1897902B0BDE85E
:10703000F04100F0C4BA02B0BDE8F08110B50446DA
:1070400000F014FB014B2360204610BDECD40B0074
:107050002DE9F047F92A9DF8209006460F46144680
:107060001D4625D8FF2B14D1DFF848804046002369
:107070002246394600F8013B05F040FA621CCDF883
:1070800020902B4641463046D2B2BDE8F04700F092
:1070900035BB194600F04FFA0028E5D13368294680
:1070A0009B68304698470028DED10220BDE8F08773
:1070B0000120FBE704E403202DE9F04F89B0984656
:1070C000FA238DF81A300DF11F0303930DF11E03FF
:1070D00002935D4E0DF11D03019307AB00938946AA
:1070E00017460DF11B030DF11A023146DDE912BA04
:1070F000054600F00DFB044620B90024204609B0E7
:10710000BDE8F08F9DF81A3073B3327862BBB8F1E6
:10711000000F03D09DF81B2088F80020BBF1000F62
:1071200003D09DF81C208BF80020BAF1000F03D08B
:107130009DF81D208AF80020149A1AB114999DF820
:107140001E200A70159A1AB115999DF81F200A7011
:107150003A783E49013BDBB29A4288BF3B703A78AD
:10716000484605F0CBF9C9E79DF81C20FF2AC4D199
:10717000012BC2D93278012ABFD12A7A9DF81B404F
:10718000A242BAD0DF1E3249FFB200235FFA83F871
:10719000474506D911F8010B824203F10103F5D1ED
:1071A000ABE705F104094846FFF7E0FC022302467D
:1071B0002146284600F01AFA95F8173193B1224C6F
:1071C000A31BDBB29F420CD9E17805914846FFF73B
:1071D000CDFC059902460223284600F007FA013447
:1071E000EEE7B8462B687278DB681A49284698475C
:1071F000044660B10223002433709DF81A209DF8E4
:107200001B3011490094284600F078FA76E795F88B
:10721000163143457FF671AF95F81731002B3FF4D7
:107220006CAF9DF81A202B7A07493E440132F37067
:107230009DF81B300190D2B200932846FF238DF8B1
:107240001A2000F025FA59E704E4032005E403209E
:1072500007E4032006E403202DE9F04F85B08046C3
:107260001C46DDE91056129F8946924600F0E0FF69
:1072700008F1040B044400F0DBFF201A002816DD9F
:1072800081B200225846FFF72CFC0028F3D00F9B58
:107290000093CDE902670E9B019552464946404650
:1072A000FFF70AFF0028E6D005B0BDE8F08F002008
:1072B000FAE70000F0B585B0054604300E460392AB
:1072C000FFF754FC039A07463146284600F04AF976
:1072D0000228044601D005281BD13178284600F049
:1072E0006EF972782B7A9A4213D00B4C03232370D9
:1072F00033786370717802233A46284600F076F9B5
:1073000000230093214673780222284600F0F6F904
:107310000446204605B0F0BD04E4032010B5044641
:10732000FFF7D4FBC8230021E3810323A16021736D
:1073300023744FF4807204F1110005F007F9204620
:1073400010BD1FB504460192FFF704FC2046002241
:107350008021FFF703FC2122019B8DF80F200DF106
:107360000F0101222046FFF7C6FB2046FFF7B5FBC1
:1073700004B010BD2DE9F04F057B0135EDB287B0AB
:10738000044689469246984605730027227C3B4670
:107390009A4207F10107FFB26BD329462046FFF757
:1073A000D9FB012F0DBFC0228022402100212046A1
:1073B000FFF7D4FB4346524649462046FFF79BFB66
:1073C0002046FFF78AFBB8F1FF0F54D0012F82BF90
:1073D000A3680133A36000F02BFF4FF48071834654
:1073E0000020E68903F0A5FC704348BFFF3006EBA0
:1073F00020261BFA86F600F01BFF301A0028C5DD98
:1074000081B200222046FFF76CFB0028F3D00DF17B
:10741000170302930DF11603019300220DF11503DA
:107420000093114605AB2046FFF7ACFB0028E2D0E5
:107430009DF814209DF9173042450ED194F804C0F0
:107440009DF815108C4508D1002B08DA9DF81630F0
:10745000AB42D0D107B0BDE8F08F002BCBDBA11839
:107460009DF81630497C9942C5D12046FFF769FF47
:10747000C1E70020EEE70120ECE72DE9F04389B0F9
:10748000CDE90421DDE91098129F04461E46FFF75E
:1074900020FBDDE9042120B90025284609B0BDE81C
:1074A000F0830DF11F0302930DF11E0301930DF103
:1074B0001D030093204607ABFFF764FB0546002839
:1074C000EAD09DF91F30002BE6DB22799DF81D30B4
:1074D0009A4206D19DF81C209DF81E102046FFF709
:1074E00030FF9DF81F209DF81C109DF81E3012F0F3
:1074F000400F0C4402D0607C9842CDD006B1317070
:10750000B9F1000F03D09DF81D1089F80010B8F1F3
:10751000000F01D088F8003007B13A706374BCE7FF
:10752000704710B504460430FFF706FB10B11E2368
:1075300084F8163110BD10B50246002392F81841A8
:107540008C4208D192F81A412CB103EB430303F5A6
:107550008C73184410BD0133322B02F10302EDD1BC
:107560000020F7E737B50B78FF2B05460C4606D011
:1075700019460192FFF7DFFF58B14378019A21467F
:10758000281DFFF7F7FE002814BF0020052003B0D8
:1075900030BD0220FBE710B501EB41030446C1F109
:1075A000310203F58C7003F21B1102EB42022144FD
:1075B000204404F0A3FF002384F8AD3110BD38B59A
:1075C0000A46002300F58C7403EB4305D9B2655DD0
:1075D000954203D1FFF7DFFF012038BD0133322B85
:1075E000F2D10020F9E70021FFF7D5BFF8B5164624
:1075F0001F4604460D46002300F58C7203EB430042
:10760000115CA94205D1204480F8196180F81A71F3
:10761000F8BD0133322BF1D1002304F58D7203EB59
:107620004300115C19B9204480F81851ECE701338C
:10763000322BF4D12046FFF7D6FF204604F1960303
:1076400090F81A212AB980F8185180F8196180F849
:107650001A7103309842F3D1DAE700F19603002261
:1076600080F81A2103309842FAD1704710B50446C9
:107670000430FFF753FE054B23604FF48F73204611
:10768000A4F81631FFF7E9FF204610BD04D50B0022
:107690002DE9F3470446406801911F4603689DF8B1
:1076A00028A09B699DF82C901646984706F105087E
:1076B00080451CD8104D019985F801A00023AB70BE
:1076C00094F81531EB705A1C84F81521681D324668
:1076D0002F7085F8049004F011FF23685B685FFA4F
:1076E00088F22946204602B0BDE8F047184701203D
:1076F00002B0BDE8F08700BFFEE4032013B59DF89B
:1077000010400194047A0094FFF7C2FF02B010BD4C
:107710002DE9F04F87B01F46FF238DF813300DF190
:1077200017030293DFF8D0900DF1160301930DF1CA
:107730001503009304468846164605AB0DF1130267
:1077400049460430DDE910BAFFF797FE054608B94F
:10775000002538E023689DF813201B684946204621
:10776000984799F80030227A9A4201D0FF2B2ED107
:1077700017B1214B5B783B70BBF1000F03D01E4B60
:107780001B788BF80030BAF1000F03D01A4BDB786E
:107790008AF80030129B1BB1174B129A1B79137099
:1077A000139B1BB1144B139A9B7813709DF81330E5
:1077B00032781249053BDBB29A4288BF3370327887
:1077C000404604F09BFE284607B0BDE8F08F99F8CC
:1077D00002305A1C89F8022094F816219A42B7D92F
:1077E00094F81731002BB3D023689DF813205B6801
:1077F000494620469847ABE7FEE4032003E5032013
:1078000010B50446006A0368DB68984794F82400C2
:10781000FF2802D0012104F059F823682046DB6FCD
:107820009847642001F07EF8012010BD90F82400F4
:10783000002104F05CB890F82400012104F057B84E
:1078400070B504460D461646FFF750FA034B236009
:10785000266284F82450204670BD00BF14D50B006A
:1078600038B50446006A03681B6A0D4698472368CA
:1078700020469B6F9847206A036805F07F011B68CC
:107880009847206A036800211B68984723680546CB
:10789000DB6F20469847206A03685B6A9847284652
:1078A00038BD70B50446006A03681B6A16460D466B
:1078B0009847236820469B6F9847206A036845F0E5
:1078C00080011B6898470546206A036831461B689B
:1078D0009847012000F0A4FC23682046DB6F9847FE
:1078E000206A03685B6A9847284670BDF8B504466D
:1078F000006A1E4603681B6A0F46154698472368B0
:1079000020469B6F9847206A036807F07F011B6839
:1079100098472E440746B54207D0206A03680021E5
:107920001B68984705F8010BF5E723682046DB6FD5
:107930009847206A03685B6A98473846F8BDF8B5EF
:107940000446006A1E4603681B6A0F4615469847A0
:10795000236820469B6F9847206A036847F08001A0
:107960001B6898472E440746B54206D0206A15F892
:10797000011B03681B689847F6E723682046DB6F06
:107980009847206A03685B6A98473846F8BD006AE2
:1079900003689B6A184701207047FB2070477047B7
:1079A00010B50379052B044610D003680521D3F8E0
:1079B00080309847072201212046FFF772FF80227E
:1079C00040212046FFF76DFF052323712379052B06
:1079D000FCD0207E10BD10B54FF498710446FCF722
:1079E0005EFB204610BD10B50379012B04460BD079
:1079F00003680121D3F880309847002201212046F6
:107A0000FFF74FFF01232371012010BDF8B5036874
:107A1000DB6804460F46154698470646B0B187B165
:107A20007DB194F828302A78033B9342DEBF94F866
:107A30002830043B2B702A7804F12D01384604F0DD
:107A40005DFD002384F8283184F828303046F8BDE5
:107A5000142938B505460C4614DC012914DD11291A
:107A600013DD07224D212846FFF71BFF033C64B2BC
:107A7000A21E62F07F022846D2B2BDE8384009213A
:107A8000FFF70FBF1424ECE7022404224D212846FF
:107A9000FFF707FFECE7000038B5044615461A4625
:107AA000FFF7CEFE094B2360FF22002384F8272036
:107AB000012284F8283184F82C3184F8265084F887
:107AC0002B2184F82530204638BD00BFACD50B00F3
:107AD00090F82830032B1BD990F82930C37190F807
:107AE0002A30037290F82B30437290F82C30837256
:107AF000837933B9C37942799A4202D0C379FF2B93
:107B000006D1838A01339BB28382012380F8283116
:107B1000704700000000000038B504462DED028BD0
:107B200010EE100AB0EE408A04F046F917A3D3E92C
:107B3000002304F099F917A3D3E9002304F0BEFA57
:107B400004F06AFC06210546C0F307422046FFF711
:107B5000A8FEC5F3072207212046FFF7A2FEEAB2DE
:107B600008212046FFF79DFEDFED077AB4EEE78A95
:107B7000BDEC028BF1EE10FAACBF01230023012013
:107B800084F8293138BD00BF00C042440000000025
:107B900080842E410000000080844E4010B503799F
:107BA000022B04460BD003680221D3F8803098479B
:107BB000012211462046FFF774FE0223237110BDF7
:107BC00070B512210446FFF74BFE1C2105462046E6
:107BD000FFF746FEFF22064612212046FFF761FE10
:107BE0002379042B07D115F0A00F17D194F82B316E
:107BF0000BB1700612D52379042B01D1690622D46A
:107C00002379032B01D12A0768D42379052B0ED1C0
:107C10006B070CD505F00105257663E0638A013317
:107C20009BB26382002384F8283184F82830FF2235
:107C300012212046FFF735FE2046FF22BDE87040A6
:107C40001221FFF72EBE13212046FFF709FE102157
:107C500005462046FFF704FE0D2102462046FFF7A9
:107C600020FE04F129022B4600212046FFF73EFEAC
:107C7000192184F828502046FFF7F2FD40B2002871
:107C8000B8BF0330801084F82A011A212046FFF77C
:107C9000E7FD94F92A3100B2002B2082A9BF238A84
:107CA000228A1BB21B01B2BF9B180F2293FBF2F377
:107CB0001BB2238294F829316BB1238A9D3B1BB2FE
:107CC00023822046FFF704FF94F82831002BAED022
:107CD000FFF764FFABE7238AA43BF0E7E38A0133B5
:107CE0009BB2E3822046F3E7024B186808B1FFF726
:107CF00067BF704700E60320024B586808B1FFF7E2
:107D00005FBF704700E60320024B986808B1FFF799
:107D100057BF704700E6032010B50379042B0446D3
:107D200010D003680421D3F8803098470522012140
:107D30002046FFF7B6FD002240212046FFF7B1FDA7
:107D40000423237110BD10B50379032B044605D01D
:107D5000FFF7E2FF94F82801C0B210BD0020FCE755
:107D600010B50379032B044610D003680321D3F820
:107D700080309847032201212046FFF792FD4022E0
:107D800011462046FFF78DFD0323237110BDFB2A0A
:107D9000F8B504460F46154602D900263046F8BD10
:107DA00003681B6A98472046FFF7F8FE23682046C1
:107DB000DB6A984706460028EFD000220D212046B6
:107DC000FFF76FFDE27A00212046FFF76AFD227B74
:107DD00000212046FFF765FD627B00212046FFF76A
:107DE00060FDA27B00212046FFF75BFD2B463A4653
:107DF00000212046FFF7A3FD2A1DD2B222212046F2
:107E0000FFF74FFD2046FFF7ABFFC7E710B504466D
:107E100080F8252072B181F3040242F07002D2B2E0
:107E20000921FFF73EFD20460422BDE810404D2108
:107E3000FFF737BDBDE81040FFF70ABE38B50C4666
:107E400005460A781D21FFF72CFD62781E21284681
:107E5000FFF727FDA27828462621BDE83840FFF726
:107E600020BD0000052913B50FD8094B01EB4101D6
:107E70005C185A5AA378ADF8042001A98DF8063091
:107E8000FFF7DCFF012002B010BD0020FBE700BFC0
:107E900094D50B0038B50A0A05460C462021FFF799
:107EA00000FDE2B228462121BDE83840FFF7F9BCC9
:107EB00073B50446FFF7A4FC064618B90026304601
:107EC00002B070BD94F82650FF2D54D029462046AC
:107ED000FFF75DFD802201212046FFF7E2FC0A202A
:107EE00000F020FD01212046FFF7BAFC8028E5D1F3
:107EF00094F82600FF281CD0002103F0E7FC94F83A
:107F00002730FF2B07D1264A1378032BD6D8591CCC
:107F1000117084F8273094F82720224B43F8224030
:107F200062BB214900924FF0FF330122A8B201F059
:107F300041FA00220E212046FFF7B3FC00220F2158
:107F40002046FFF7AEFC2046FFF728FE0021204622
:107F5000FFF788FF08212046FFF79CFF9FED130ADB
:107F60002046FFF7D9FD002384F825300D21204657
:107F7000FFF76EFDA3E74FF0FF35ABE7012A4FF0A7
:107F8000000304D100930A494FF0FF33CEE7022AE1
:107F900094D1009307494FF0FF330122C6E700BF99
:107FA000FDE5032000E60320E97C0B000000D94337
:107FB000F97C0B00097D0B00704703685B6818476C
:107FC00010B58369044633B131B1236820469B68FC
:107FD00098470023A36110BD00F02AF9A369C01AD5
:107FE000E3699842F1D2F6E710B5C36904461BB1C4
:107FF00000F01EF9A06110BD0368BDE810409B6849
:10800000184700F0EDB810B504460430FDF736F817
:108010002368E1685B692046984718B923682046C1
:108020009B6998476068FFF7ECFF012010BD0000D6
:10803000F0B521F00304184F184E194D0444A04226
:108040000CD050F8043B7B434FEA734373435A40D0
:108050004FEAF24202EB82022A44F0E701F0030405
:1080600004440023A04204D014F8015D45EA032330
:10807000F8E70948434309484FEA73434A405843E5
:108080005040084B80EA10405843074B80EA50307C
:10809000584380EA1040F0BD512D9ECC9335871B8C
:1080A000646B54E66BCAEB8535AEB2C2F8B50446D4
:1080B0000430FCF7E3FFA36800229F689A60A6687B
:1080C000054AF1883046FFF7B3FFB76005466068A0
:1080D000FFF797FF2846F8BD3F2A1C8573B50D466C
:1080E0000446FFF7E3FF0B2D064623D9A368226958
:1080F000196891421FD19988A28A91421BD1D988CF
:10810000AAB2914217D89A68824214D1E268AA4270
:1081100005D900215955E2680135AA42FAD8D4E9B7
:1081200002322046DA80A568FFF7C0FFA860012070
:1081300002B070BD9DB1A1680A6892B188688B8851
:108140000190C988084800910849FDF7A2FECDE9D1
:108150000056A38A226906490348FDF79AFE0020CB
:10816000E6E71046E4E700BF54E6032030D60B00F4
:1081700061D60B0038B50446C2688068002104F05F
:10818000E5F9A36822691A60A368A28A9A80D4E9F3
:1081900002322046DA80A568FFF788FFA86038BD64
:1081A00008B5024B1B685B6C019308BD74020300A9
:1081B00008B5024B1B685B6C019308BD48020300C5
:1081C00008B5024B1B689B6C019308BD4802030075
:1081D00008B5024B1B68DB6C019308BD4802030025
:1081E00008B5024B1B685B6D019308BD4802030094
:1081F00008B5024B1B685B6D019308BD3402030098
:1082000008B5024B1B685B6E019308BD3402030086
:1082100008B5024B1B685B68019308BD1802030098
:1082200008B5024B1B68DB68019308BD1802030008
:1082300008B5024B1B685B69019308BD1802030077
:1082400008B5024B1B689B6D019308BD1802030023
:1082500008B5024B1B68DB6D019308BD18020300D3
:1082600008B5024B1B685B6E019308BD1802030042
:1082700008B5024B1B689B6E019308BD18020300F2
:1082800008B5024B1B681B68019308BD2C02030054
:1082900008B5024B1B685B68019308BD2C02030004
:1082A00008B5024B1B689B68019308BD2C020300B4
:1082B00008B5024B1B68DB68019308BD2C02030064
:1082C00008B5024B1B681B69019308BD2C02030013
:1082D00008B5024B1B685B69019308BD2C020300C3
:1082E00008B5024B1B689B69019308BD2C02030073
:1082F00008B5024B1B68DB69019308BD2C02030023
:1083000008B5024B1B681B6B019308BD2C020300D0
:1083100008B5024B1B68DB68019308BD2802030007
:1083200008B5024B1B689B69019308BD2802030036
:1083300008B5024B1B68DB69019308BD28020300E6
:1083400008B5024B1B681B6A019308BD2802030095
:1083500008B5024B1B685B6A019308BD2802030045
:1083600008B5024B1B689B6A019308BD28020300F5
:1083700008B5024B1B68DB6A019308BD28020300A5
:1083800008B5024B1B681B6B019308BD2802030054
:1083900008B5024B1B685B6B019308BD2802030004
:1083A00008B5024B1B681B6C019308BD2802030033
:1083B00008B5024B1B689B6C019308BD28020300A3
:1083C00008B5024B1B68DB6C019308BD2802030053
:1083D00008B5024B1B681B6D019308BD2802030002
:1083E00008B5024B1B685B69019308BD640203007A
:1083F00008B5024B1B689B68019308BD6802030027
:1084000008B5024B1B68DB68019308BD68020300D6
:1084100008B5024B1B681B68019308BD30020300BE
:1084200008B5024B1B685B68019308BD300203006E
:1084300008B5024B1B685B69019308BD300203005D
:1084400008B5024B1B68DB69019308BD30020300CD
:1084500008B5024B1B681B6A019308BD300203007C
:1084600008B5024B1B685B6A019308BD300203002C
:1084700008B5024B1B68DB6B019308BD300203009B
:1084800008B5024B1B681B6C019308BD300203004A
:1084900008B5024B1B685B6C019308BD30020300FA
:1084A00008B5024B1B689B68019308BD3C020300A2
:1084B00008B5024B1B68DB68019308BD3C02030052
:1084C00008B5024B1B681B69019308BD3C02030001
:1084D00008B5024B1B685B69019308BD3C020300B1
:1084E00008B5024B1B689B69019308BD3C02030061
:1084F00008B5024B1B68DB69019308BD3C02030011
:1085000008B5024B1B681B6A019308BD3C020300BF
:1085100008B5024B1B689B6A019308BD3C0203002F
:1085200008B5024B1B68DB6A019308BD3C020300DF
:1085300008B5024B1B681B6C019308BD3C0203008D
:1085400008B5024B1B681B68019308BD4C02030071
:1085500008B5024B1B685B68019308BD4C02030021
:1085600008B5024B1B689B68019308BD4C020300D1
:1085700008B5024B1B681B69019308BD4C02030040
:1085800008B5024B1B685B69019308BD4C020300F0
:1085900008B5024B1B689B69019308BD4C020300A0
:1085A00008B5024B1B68DB69019308BD4C02030050
:1085B00008B5024B1B681B6A019308BD4C020300FF
:1085C00008B5024B1B689B6A019308BD4C0203006F
:1085D00008B5024B1B685B6B019308BD600203008A
:1085E00008B5024B1B681B6D019308BD60020300B8
:1085F00008B5024B1B685B6D019308BD6002030068
:1086000008B5024B1B68DB6E019308BD60020300D6
:1086100008B5024B1B681B6F019308BD6002030085
:1086200008B5034B1B68D3F89830019308BD0000D0
:108630006002030008B5024B1B681B68019308BD6C
:108640002002030008B5024B1B685B68019308BD5C
:108650002002030008B5024B1B685B69019308BD4B
:108660002002030008B5024B1B681B6A019308BD7A
:108670002002030008B5024B1B68DB6A019308BDAA
:108680002002030008B5024B1B68DB6C019308BD98
:108690002002030008B5024B1B685B6D019308BD07
:1086A0002002030008B5024B1B689B6D019308BDB7
:1086B0002002030008B5024B1B68DB6D019308BD67
:1086C0002002030008B5034B1B68D3F888300193E0
:1086D00008BD00002002030008B5034B1B68D3F857
:1086E0009430019308BD00002002030008B5034B3D
:1086F0001B68D3F8A830019308BD000020020300D6
:1087000008B5034B1B68D3F8AC30019308BD0000DB
:108710002002030008B5024B1B689B68019308BD4B
:108720004402030008B5024B1B685B69019308BD56
:108730004402030008B5024B1B681B6A019308BD85
:108740004402030008B5024B1B681B6B019308BD74
:108750004402030008B5024B1B685B6B019308BD24
:108760004402030008B5024B1B68DB6B019308BD94
:108770004402030008B5024B1B685B68019308BD07
:108780004002030008B5024B1B689B68019308BDBB
:108790004002030008B5024B1B68DB68019308BD6B
:1087A0004002030008B5024B1B681B69019308BD1A
:1087B0004002030008B5024B1B685B69019308BDCA
:1087C0004002030008B5024B1B689B69019308BD7A
:1087D0004002030008B5024B1B68DB69019308BD2A
:1087E0004002030008B5024B1B681B6A019308BDD9
:1087F0004002030008B5024B1B681B6B019308BDC8
:108800004002030008B5024B1B685B6B019308BD77
:108810004002030008B5024B1B681B6C019308BDA6
:108820004002030008B5024B1B685B6C019308BD56
:108830004002030008B5024B1B681B68019308BD8A
:108840001C02030008B5024B1B685B68019308BD5E
:108850001C02030008B5024B1B689B68019308BD0E
:108860001C02030008B5024B1B681B69019308BD7D
:108870001C02030008B5024B1B68DB69019308BDAD
:108880001C02030008B5024B1B685B6A019308BD1C
:108890001C02030008B5024B1B68DB6A019308BD8C
:1088A0001C02030008B5024B1B681B6B019308BD3B
:1088B0001C02030008B5024B1B68DB6B019308BD6B
:1088C0001C02030008B5024B1B681B6C019308BD1A
:1088D0001C02030008B5024B1B685B6C019308BDCA
:1088E0001C02030008B5024B1B689B6C019308BD7A
:1088F0001C02030008B5024B1B68DB6C019308BD2A
:108900001C02030008B5024B1B681B6D019308BDD8
:108910001C02030008B5024B1B685B6D019308BD88
:108920001C0203000021FFF795BE10B583680446C2
:108930000BB903F0D9F8C3689847A3681BB10322A9
:1089400021462046984720461021BDE81040FBF7FD
:10895000A6BB10B54368013B0446436063B9036896
:108960009B689847A368013BA3602BB92368204606
:10897000DB68BDE81040184710BD70B5D0E9005362
:10898000044605EB0316AE4204D0284602F0AAFACC
:108990001035F8E72068FFF755FF204670BD13B586
:1089A0000B460246D0E900016C4684E8030093E8D8
:1089B000030082E8030094E8030083E8030002B0A8
:1089C00010BD0000024800230360FFF7F1BB00BFA9
:1089D0000CE60320002240681146FFF7E3BE0022A8
:1089E00040681146FFF7FEBE002240681146FFF7BF
:1089F00009BF40680022FFF7FDBE4068002281F0F9
:108A00000101FFF7E7BE002340681A461946FFF749
:108A1000D9BE002340681A461946FFF7CBBE002294
:108A200040681146FFF7AEBE406800220221FFF702
:108A3000B1BE002340681A46FFF79CBE70B5134BC9
:108A400003601825303386B00E4643602A46002165
:108A50000446083003F07AFD002270681146FFF7E3
:108A6000A1FE78B100212A46684603F06FFD6946F1
:108A70000020ADF80050FFF793FB18B96946204677
:108A800000F0B8F8204606B070BD00BFFCD60B0061
:108A9000084B10B5282422461846002103F056FD45
:108AA000054B04804FF0FF32426004225A60034AB3
:108AB0001A6010BD18E6032010E60320C0D60B0094
:108AC0007047007B7047037B4BB10369B3F1004FE4
:108AD00005D08069B0F1004018BF01207047002028
:108AE000704703681B6A184770B503680D461B6919
:108AF000064698470221284602F0D0F82C21044669
:108B0000284601F0D5FF336804449B6930469847F6
:108B10000221284602F0C2F8204470BDA0F10400F2
:108B2000FFF7E2BF10B520210446FBF7B8FA204654
:108B300010BD0000037B7BB14369002B0CDB07EE0B
:108B4000903A9FED077AF8EEE77A87EE870ADFED35
:108B5000057A20EE270A7047BFEE000A704700BF73
:108B600000FF7F470000C842037B63B10369B3F194
:108B7000004F08D007EE903A9FED047AF8EEE77ABE
:108B800087EE870A70479FED020A70470000C842CF
:108B900000000000037B7BB1C369002B0CDB07EEF8
:108BA000903A9FED077AF8EEE77A87EE870ADFEDD5
:108BB000057A20EE270A7047BFEE000A704700BF13
:108BC00000FF7F470000C842037B63B18369B3F1B4
:108BD000004F08D007EE903A9FED047AF8EEE77A5E
:108BE00087EE870A70479FED020A70470000C8426F
:108BF0000000000030B50D4600F108040FCD0FC491
:108C000095E8030084E80300012030BD7047002090
:108C1000704710B510210446FBF741FA204610BDFD
:108C200008B5FFF7F6FF08BD30B500224FF69C747B
:108C3000026084808D888C800C68858004600A6066
:108C400030BD10B504460068FFF7FCFD204610BD9E
:108C500038B5C468F4B12378022B03D104F10C00B9
:108C6000FFF7EFFF656835B12846FDF7DDF8102105
:108C70002846FBF714FAA56835B12846FDF7D4F865
:108C800010212846FBF70BFA20461421BDE8384096
:108C9000FBF705BA38BD0B6803604B68436013B13E
:108CA0005A6801325A60704737B5044668460D4627
:108CB000FFF7F1FF009B019A23606260002301A887
:108CC00001930093FCF73EFD35B1281DFCF73AFDFA
:108CD00008212846FBF7E3F9204603B030BD82683F
:108CE00010B50AB902F000FFBDE81040C36818478C
:108CF00008B5006800F11001FFF7F1FF08BD8268B8
:108D000010B50AB902F0F0FEBDE81040C36818477C
:108D100008B5006800F11001FFF7F1FF08BD000081
:108D200038B500230446036010200D46FBF7B3F965
:108D300028B10123C0E90133024B0360C560206004
:108D4000204638BD38D70B0038B5002383608B68C8
:108D500004460D462BB102229847EB68E360AB68EE
:108D6000A360204638BD0000F0B589B004686846AD
:108D7000FFF75AFF4FF00203D4E84F2F002A03D128
:108D8000C4E8413F0029F7D125D104F10C0569461B
:108D90002846FFF749FFBFF35B8F01236370002074
:108DA00004F10803BFF35B8F53E8006F43E8000250
:108DB000002AF9D1BFF35B8F6EB1FFF763FC78B186
:108DC00029463046FFF78BFF3046FDF72DF810217E
:108DD0003046FBF764F96846FFF733FF09B0F0BD92
:108DE000314602A8FFF7B0FFE068B4F9105008B1AF
:108DF00003F04AFC06901020ADF81C50FBF74BF92D
:108E00000546E8B1002787601820FBF744F90446BF
:108E100088B10146876002A8FFF7C1FD049BA268E4
:108E2000A360059B049206A9E268E36004F11000C8
:108E30000592FFF7F9FE084BEB60084B2C60AB6026
:108E400006A8FFF7FEFE02A8FCF7EEFF0022294667
:108E50000348FFF71FFCB7E7F18C0B00758F0B0081
:108E60002B890B002DE9F04F8BB005469DF850A0E3
:108E70000F4690469946FFF755FC07AE834638BB30
:108E80004FF62E73059005A93046ADF81830FFF760
:108E9000CBFE1420FBF7FFF8044648B10223037011
:108EA0000123C0E901BB437031460C30FFF7BCFE23
:108EB0002846214640F8044BFFF732FF3046FFF7C3
:108EC000C0FE05A8FFF7BDFE28460BB0BDE8F08F39
:108ED0000C2300241420CDE908440793FBF7DBF8AA
:108EE000014618B1C0E901440470447004A803911C
:108EF000FFF716FF1E4B08930820FBF7CCF804463B
:108F000010B103A9FFF7C7FE00965FFA8AF34A463D
:108F1000414638460994FFF70DFCB8B9039B5B78CE
:108F200003F0FF0293B94FF69C7305A903A80592BD
:108F3000ADF81830FFF718FF05A8FFF782FE05A867
:108F40000999FFF7B1FE06A8FCF7FCFB03A905A8E9
:108F5000FFF7A1FE059B069A2B606A60002306A816
:108F600006930593FCF7EEFB04A8FCF7EBFBABE7DD
:108F7000F18F0B00012AF8B5054603D10B68036099
:108F80000020F8BD022A10D0032AF9D10468002C71
:108F9000F6D004F11000FFF754FE2046FCF744FF22
:108FA00018212046FBF77BF8EAE718200E68FBF74C
:108FB00072F8044650B13146FFF7C6FE3069B6F983
:108FC000147008B103F060FB2061A7822C60D7E722
:108FD00038B5002383608B6804460D462BB102220E
:108FE0009847EB68E360AB68A360204638BD00009B
:108FF000F0B589B004460D4601A81146FFF754FEAE
:10900000A4B124B21DB1284603F03EFB054601A8D9
:1090100003A90395ADF81040FFF7A6FE03A8FFF7DC
:1090200010FE02A8FCF78EFB09B0F0BD019D0123E4
:10903000D5E84F2F002A03D1C5E8413F0029F7D1D9
:10904000EFD12B73BFF35B8F6B702B1DBFF35B8F67
:1090500053E8006F43E80042002AF9D1BFF35B8F69
:10906000002EDED02046FFF70DFB074660B105F16C
:109070000C013046FFF743FE3046FCF7D5FE1021C9
:109080003046FBF70CF8CCE7314603A8FFF7A0FF0A
:109090002B7B8DF81C301020FAF7FDFF0546D0B170
:1090A00087601420FAF7F7FF044678B1876001461D
:1090B00003A8FFF774FC059BA268A360069B0592BA
:1090C000E268E3609DF81C3006922374064BEB6067
:1090D000064B2C60AB6003A8FCF7A6FE00222946D5
:1090E0000348FFF7D7FAC7E7118D0B00F5900B0087
:1090F0002B890B00012A70B5044603D10B6803606D
:10910000002070BD022A0CD0032AF9D10468002C7B
:10911000F6D02046FCF788FE14212046FAF7BFFF60
:10912000EEE714200E68FAF7B6FF054620B1314687
:10913000FFF74EFF337C2B742560E1E70022406887
:109140001146FFF74FBB002240681146FFF75ABB9C
:1091500040680022FFF74EBB4068002281F0010109
:10916000FFF738BB002340681A461946FFF72ABBB1
:10917000002340681A461946FFF71CBB00224068CE
:109180001146FFF70FBB002240681146FFF7FABAFD
:10919000406800220221FFF7FDBA002340681A460A
:1091A000FFF7E8BA024B03225A60024A1A6070477E
:1091B00040E6032054D70B00006800F0E7B810B574
:1091C0000446016002710AB1FFF7F6FF204610BDA8
:1091D00013B50446019102F01FFC019A0146204696
:1091E000FFF7EDFF204602B010BD006800F0D7B8D1
:1091F0002DE9FF4104461D460F461646FFF7DCFFEA
:1092000036220023CDE9002320684FF001080A230D
:109210006946CDE9028300F09DF82068036839466D
:109220009B6898472068036831469B689847206888
:10923000036829469B6898474146206800F0A2F8D9
:10924000002820460CBF00256FF09F05FFF7CDFFDB
:10925000284604B0BDE8F08108B54022002306216D
:10926000FFF7C6FF00EAE07008BD7047F8B5064694
:1092700015460C468F18BC4206D0336814F8011B03
:109280009B6830469847F6E72846F8BD007C0022E8
:10929000FFF756B8007C0021FFF75AB8007C002188
:1092A000FFF75EB8007C0021FFF762B8007C002168
:1092B000FFF766B810B514210446FAF7F0FE204611
:1092C00010BD000010B54FF47A7304460846002123
:1092D000C4E90113034B236020741146FFF760F8C3
:1092E000204610BD90D70B000023007C1A4619467B
:1092F000FFF70EB87FB500221423CDE90122ADF8A7
:1093000004300B788DF808304B680393CB680493D6
:10931000007C0B7A059301A9FFF75AF807B05DF8B6
:1093200004FB1FB5003B8DF800104FF06401039162
:1093300018BF0123694601928DF80830FFF7DAFF64
:1093400005B05DF804FB007C0022FEF7E9BFC9B25E
:10935000FFF7F9BF7FB50023CDE901334A680392D7
:109360001423CA68ADF804300B7804920A7A059287
:10937000007C8DF8083001AA1946FEF7D1FF07B02E
:109380005DF804FB007C0022FEF7D2BF08B5002187
:10939000007CFFF70DF8B0FA80F0400908BD08B571
:1093A0000021007CFFF70CF8B0FA80F0400908BDFE
:1093B000004700002DE9FF4100241D460F4690465E
:1093C0000646FEF795FFA5424FF00403ADF80D40A9
:1093D0008DF80C308DF80F40A2BF9DF828308DF825
:1093E0000E3003AC0749009443463A463046A8BFC6
:1093F0008DF80D50FEF774FFB0FA80F0400904B00C
:10940000BDE8F081B1930B00704710B518210446F8
:10941000FAF745FE204610BDF0B5037D062B8DB052
:109420000E4600F104074FF0000412D000F10805C9
:1094300015F8011D0A22304601F049FBAF420444F1
:1094400019D0002CF4D02E21304601F031FB044419
:10945000EEE72F236A4639460A208DF80040FEF7D2
:10946000BFFF684603F02DF933680246DB686946A2
:1094700030469847044620460DB0F0BD10B5054B68
:109480000446112240F8043B002103F05FF8204617
:1094900010BD00BFB8D70B000346074A10B543F80C
:1094A000042B01F1100251F8044B43F8044B914294
:1094B000F9D10A781A7010BDB8D70B0010B59DF815
:1094C000084044EA032343EA024242EA01610423DA
:1094D0004160037510BD000007B5064B0360CB78F3
:1094E00000938B784A780978FFF7E8FF03B05DF8BE
:1094F00004FB00BFB8D70B0000F11003012213F8E2
:10950000101C0129184608D153F8041C02EB410233
:10951000013A03F11003F2D17047022904BF53F856
:10952000041C5218F4E70EB4F0B588B000AF07F190
:109530003405102155F8042B7A6004462B46781820
:10954000FD60FFF79FF90F287A681AD900F1080328
:1095500023F007036E46ADEB030D411C2B46684616
:10956000FD60FFF78FF9021E04DD236869469B68E2
:1095700020469847B5462037BD46BDE8F04003B0C9
:1095800070470028F7D0236802469B6807F1100156
:1095900020469847EFE738B50B6803604D6843688D
:1095A0009D42044608D015B16B6801336B6060685A
:1095B00008B1FFF7CEF9656038BD07B503688DF8CF
:1095C00007109B6801220DF10701984703B05DF871
:1095D00004FB0B461146002210B5C0E900220446E8
:1095E00083600BB9204610BDFFF7D5FFFAE783680B
:1095F000EBB11A78032A1AD8DFE802F00417021B2D
:109600000520704702685B685268D05C2D2812D034
:10961000A0F13003092B0ED974280ED066280CD087
:10962000A0F16E0358425841704706207047002051
:10963000704704207047032070470220704710B520
:109640000446FFF7D4FF02280ED0C31EDBB2012B65
:1096500014D82268A36850685B68BDE810400A22ED
:109660000021184403F0F2B82268A36852685B68CE
:10967000D05CA0F174035842584110BD0020FCE7B3
:1096800038B50023C0E9003304460E48C4E902039C
:10969000A9B10B78032B06D08BB9136858684B68B7
:1096A000C35C6E2B07D013684D6858688B682844DC
:1096B0005B1BA060E36011462046FFF76CFF20466D
:1096C00038BD00BF21D80B0038B500250B46C0E9D6
:1096D0000055C0E90255C0E90455044611464BB196
:1096E0001A78012A06D103F11002DB688260436117
:1096F000FFF751FF204638BD10B54369044663B1FA
:109700008068E060013B1030A0602061636113B1AC
:10971000FFF7F2FEA060012000E0184610BD10B572
:109720007D210446FFF749FF01232371204610BD28
:1097300008B50379012B02D0022B04D008BD2C21DF
:10974000FFF73BFFFAE73A21FAE710B50446FFF7C7
:10975000EFFF20467B21FFF730FF002323712046D7
:1097600010BD000013B504460191FFF7E1FF236827
:10977000019ADB680349204698470123204623715C
:1097800002B010BD23D20B0013B504460191FFF7C0
:10979000CFFF2368019ADB680349204698470123DD
:1097A0002046237102B010BDAED10B002DE9F04769
:1097B0000D46222190460446FFF7FFFEDFF8A490F5
:1097C000A8442F464745BA463DD017F8016B222ED4
:1097D00006D05C2E04D0304602F088FE0028F1D17D
:1097E0002368AAEB05029B682946204698475C211E
:1097F0002046FFF7E2FE0D2E0AD8072E1CD9A6F14F
:109800000803052B18D8DFE803F00D0F1117131507
:10981000222E01D05C2E0FD131462046FFF7CDFE1F
:109820003D46CFE76221F8E77421F6E76E21F4E7C1
:109830006621F2E77221F0E723683246DB68494689
:1098400020469847ECE7BD4205D023687A1B9B6809
:1098500029462046984722212046FFF7AEFEBDE864
:10986000F08700BFC4D70B0013B50446CDE9002133
:10987000FFF75EFF2046DDE90021FFF797FF022397
:109880002046237102B010BD13B50446CDE9002176
:10989000FFF74EFF2046DDE90021FFF787FF012398
:1098A0002046237102B010BD80680368DB6818474A
:1098B0007047084611B10B685B68184770477047DE
:1098C00070477047704738B504460D4600682E2132
:1098D00002F0BDFE2368C31A2B6023B1037803B1E5
:1098E000013023682060184638BD10B50C210446AD
:1098F000FAF7D5FB204610BD10B504210446FAF74F
:10990000CEFB204610BD10B504210446FAF7C7FB74
:10991000204610BDFEF75CBC08B502F0A2FEB0FA0E
:1099200080F0400908BD704710B50C4601F0B6FE46
:10993000844210D002F0B0F8844205D102F0ACF8B5
:10994000BDE8104001F043BE2CB1236820465B689F
:10995000BDE81040184710BD0B6803604B684360BA
:1099600013B15A6801325A60704713B5044608466D
:10997000019102F0A6FE01990246204602B0BDE820
:109980001040FFF781BF13B504460846019102F06D
:1099900098FE23680199DB680246204602B0BDE8C4
:1099A0001040184707B503688DF80710DB680122DF
:1099B0000DF10701984703B05DF804FB0EB403B541
:1099C00003AB002153F8042B006A019301F075F9F1
:1099D00002B05DF804EB03B070470A6802604A68A1
:1099E00042600022C0E9022210B502618C688460E6
:1099F000CC68C4600C698A60CA6004610A6110BDE9
:109A00002DE9F74FD0E900844FF0140A00930AFBC8
:109A100004F4184BA41017465C434546002C21DD86
:109A200066100AFB06F005EB00093A46B9F804B0E7
:109A3000285801915F4528BF5A4602F04AFE002887
:109A400001994FF001030BD15F4503D1009A1370C8
:109A50003446E3E7FCD9A61B09F11405013EF7E7FC
:109A6000F9DBF5E7A5EB08050248AD10684303B044
:109A7000BDE8F08FCDCCCCCC7FB50369057E0191DC
:109A800003B3F9B1002600F10C04039603A901A861
:109A9000FFF719FF0146A8B10DF10B03039A8DF8EA
:109AA0000B602046FFF7ACFF9DF80B3053B12368E5
:109AB000142404FB0034083434F9023C002BA8BF02
:109AC000DDB2E3E7284604B070BD000010B5094CD4
:109AD0002378BFF35B8FDB0709D42046FAF7EEFA51
