:02000002B0004C
:1040000000400B000CEE0B00000006000D00050246
:084010000401A30F00000000F1
:04401800B4D70B000E
:1040200009480A49884208B505D0094A824202D0A7
:10403000121A09F0C5F90748074A0021121A09F0B7
:10404000E7F9014808BD00BF7CDD032018EC0B0038
:1040500048DF032048DF0320EDE7032070B5074E5B
:10406000074C07F04FFAA41BA4080025AC4200D16E
:1040700070BD56F8043B98470135F7E7ACEB0B00F1
:10408000E4EB0B0000F09ABC08B500F0A3F9BDE822
:10409000084007F0EFB904F00BBD04F009BD04F0CF
:1040A0000FBD000008B5034A03490C2004F0D4FBFF
:1040B000FEE700BFA9840B00C8D70B000078B0FA58
:1040C00080F0400970470123037070477047006A11
:1040D0000368DB6818470000014B1A60704700BF97
:1040E0007CDD0320014B01221A707047CFDF0320D3
:1040F00030B585B00446089860B1406850B1856815
:1041000045B1CDE90241CDE90023C46801AB6A465F
:1041100002A9A04705B030BD10B5084C23782BB1DB
:10412000074B01221A700023237010BD01F090FA92
:1041300001F08AFB0128F3D00123F5E76CDF0320AF
:10414000CDDF032030B585B0006813680193D1E955
:1041500000458368CDE902450BB907F051FBC36800
:1041600001AA02A9984705B030BD012A02D1016019
:1041700000207047022A04BF0B680360F8E7036859
:104180001268D1E9000118470A4B10B504460360D4
:1041900005F066FB214605F09EFD07F023F907F0C8
:1041A00013F92046044B40F8043B05F02FFC204651
:1041B00010BD00BF24DA0B000CDA0B0010B504466A
:1041C000FFF7E2FF20462421FFF769FF204610BDDC
:1041D00010B58368044613B1032201469847204670
:1041E00010BD10B5044638B1FFF7F2FF204610218C
:1041F000BDE81040FFF753BF10BD0000F8B5037DC8
:1042000005460F4616468BB10368DB6883B19A8872
:10421000012A06D09B68F9E79B684BB19A88012A6E
:10422000FAD12BB19A89BA42F6D19E732846F8BDCD
:104230000A49102007F0E0FA044668B11022002174
:1042400009F0E6F8064B23600123A3802B69A360E5
:10425000A781A6732C61E9E72875E7E76CE90B00F5
:10426000100003000EB400B58CB00DAA4FF0200C66
:1042700052F8041B0392CDE900120023016804AA3E
:104280001E20CDE904C304F0F7FA0CB05DF804EB8E
:1042900003B0704770B5134E134C3278134D022A99
:1042A000C2B017D106F08EFF32782B7804EB0212E1
:1042B000009204EB031398B90D4A4FF4807102A8E1
:1042C00004F016FC33780B482B7002A9FFF7CAFFE5
:1042D00042B070BD2B7804EB0212009204EB031382
:1042E000054AEAE7CEDF032080DD0320CCDF032090
:1042F000DDD70B0058E60320FDD70B0000000000BF
:104300002DE97343304D2B6873B3022006F086FB12
:104310000646286808F050FC9FED290B41EC110B74
:1043200007F072FA0A2059EC108B704308F034FC45
:1043300042464B4608F0AAFC08F080FF044601F014
:1043400087F901F072FACDE9006402462B681F4933
:104350001F48FFF787FF2B68022B01DD00232B602E
:10436000204602B0BDE8708306F02CFF20B301F0B8
:104370006FF901F05AFA054601F06AF901F0EEFA18
:104380003C2404FB00F606F03AFFB0FBF6F404FB15
:104390001603F41AB44228BF344601F059F901F06B
:1043A00044FA0A28DCD828B200EB80004300B4EBC2
:1043B000400F88BFE418D3E73C20D2E7AFF300807A
:1043C00000000000000000405CDF03200BD80B0061
:1043D00058E603202DE9F04FA74C2378013B8DB020
:1043E000042B00F2DE80DFE813F0F4010500270063
:1043F00025018901A14B1B78022B01D0FFF74AFF51
:1044000006F0E0FE70B106F017FF054601F094F9E2
:1044100001F005FB06F0D2FD854203D001F08CF9D6
:1044200001F09AFB01F014F901F009FA002800F0FC
:10443000EA8101232370B4E0904B1B78032B01D059
:10444000FFF728FFFFF75CFF064606F0D8FE05469B
:1044500006F0B8FE0746F8B1AA19894B00938949BE
:10446000D31708A806F06CFE089D01F0F1F801F0E2
:1044700013F9854B854A8649002808BF1A460092E1
:1044800084482B463246FFF7EDFE17B108A806F028
:10449000A9FB1EB90223CDE77F4DE6E701F0D8F86E
:1044A00001F0FAF87D4BB3F800B018B90121584675
:1044B00007F0A9F87A4B1A7D0AB102221A72794BD9
:1044C0007748B3F8009000224946FFF797FE764BF5
:1044D000B3F800A001225146FFF790FE037D074686
:1044E00003B303684FF47A78DB6808FB06F82BB156
:1044F0009A88042A00F0B3819B68F8E76B49102082
:1045000007F07AF90546002800F0A7811022002163
:1045100008F07EFF664B2B600423AB803B69C5E946
:1045200002383D610021634801F0E0FE5C4905A8C6
:1045300006F07CFC002003F0CFFF42F21077054626
:10454000002003F0C9FF401B61F10001B84271F186
:10455000000307D206F046FF06F039FF10B904F059
:1045600017FAEDE706F03EFF06F031FF4FF0FF319E
:10457000504801F0BBFE0021584607F044F8059B67
:1045800063B39A88012A29D19B89994529D14A493F
:104590004048FFF767FE04230598237008B104F034
:1045A0008FFA4448454C02F04DFA01F0C5F801F08D
:1045B000DEF801F04DF801F066F8237823B101F040
:1045C0001FFC08B1002323703D4B1B68002BC0F279
:1045D00049810DB0BDE8F04F06F025BC4FF6FF73E2
:1045E000D3E79A4511D137492A48FFF73BFE01F03E
:1045F00007FC10B1314B00221A70FFF781FE092829
:1046000001DC0223C8E70323C6E706F0F8FD8219A0
:10461000D31708A806F0EEFC089A039206F066FC91
:10462000039A294903461B48FFF71CFE08A806F019
:10463000D9FAE6E7114B1B78042BB2D0FFF72AFE1C
:1046400000F0A2FB00F028FC01F0EAFC01F000F809
:1046500001F0F5F800283DD100F096FB00F032FCA7
:104660001A4D002846D11A490A48FFF7FBFD2B686E
:1046700001332B600323DDE6CEDF0320CCDF0320F4
:1046800049D80B00ACE6032045D80B0042D80B00FC
:104690004CD80B0058E6032086E00B00AEDF0B0081
:1046A00090DF0320AADF0B00ACDF0B006CE90B00EE
:1046B0001000030070DF032087D80B00CDDF03203C
:1046C0007CDD0320AAD80B00DFD80B005CDF0320C1
:1046D00000D90B0000F0BCFF01F0B1F8012804D1B3
:1046E00000F052FB00F068FDBAE700F04DFB00F06F
:1046F00009FEB5E700232B6005239BE65B4B5C4D71
:104700001B78052B04D0FFF7C5FD03F0D5FE28600C
:1047100041F2873603F0D0FE2B68C01AB0423FF654
:1047200040AF00F031FB00F04BFE0028F2D000F06B
:104730008FFF054606F063FD0246C317284601F0C9
:1047400097F900F085FF01F065F906F07CF906F0B5
:1047500056FD012302460093C317464802F062F952
:1047600000F076FF01F06BF878B100F071FF0546BC
:1047700006F045FD0246C317284601F07EF900F019
:1047800067FF002101F0AFF884E63B4E3B4D3378E4
:10479000BFF35B8F13F0010F09D13046FFF78EFC9A
:1047A00028B106F03DFD28603046FFF78CFC06F08E
:1047B00037FD2B68984207D000F0BEFF002101F0C2
:1047C00006F906F02DFD286000F0DEFA00F074FB1B
:1047D00050E7264B1B78012B01D0FFF75BFD00F063
:1047E00037FF01F02CF803280FD008D80138C0B2E9
:1047F000012808D922492348FFF734FDBFE70428E0
:104800003FF4CFAEF6E7042314E61F4C1F4D237888
:10481000BFF35B8F13F0010F09D12046FFF74EFC69
:1048200028B103F049FE28602046FFF74CFC03F056
:1048300043FE2B68C01A47F2305398427FF6B1AE60
:1048400013491048FFF70EFD4FF4FA6004F0A0F989
:104850001E21084801F0A4FEA3E6387562E6C3F8FD
:104860000C805FE60DB0BDE8F08F00BFCCDF032009
:1048700064DF032070DF032058DF032068DF03209C
:1048800036D90B0058E6032054DF032060DF0320F5
:1048900025D90B0038B5002383608B6804460D468C
:1048A0002BB102229847EB68E360AB68A360204617
:1048B00038BD00002DE9F04395B005461C9904A8C9
:1048C00090461F460CAEFFF7E5FF04A908A8FFF7C6
:1048D000E1FF08A93046FFF7DDFF4FF00009102087
:1048E000CDF84890FFF7D7FB0446A0B196E8030047
:1048F00001AB83E8030094E8030086E8030093E833
:1049000003000E9BE268A36084E803000F9BCDF8D0
:1049100038900F92E360244B1393244B12930022A0
:1049200000234FF00009C5E90023214BC5F808908A
:1049300010201094CDE90139CDF80C90FFF7ABFBB6
:104940000446D8B1129BC0F8089033B1022210A9D6
:104950009847139BE360129BA360164B0393164A80
:10496000029401AB4046394603F0C0FFB0B1204687
:10497000FFF72EFC10212046FFF791FB10A8FFF750
:1049800027FC3046FFF724FC08A8FFF721FC04A809
:10499000FFF71EFC284615B0BDE8F083029BAB6014
:1049A000C5E90087EAE700BF45410B00654B0B00F6
:1049B00002000C00E3410B00F1400B0030B5002079
:1049C0008DB003F089FD42F210750446002003F01B
:1049D00083FD001B61F10001A84271F1000307D2C1
:1049E00006F000FD06F0F3FC10B903F0D1FFEDE78F
:1049F00006F0F8FC06F0EBFC01F0EEF801F018F917
:104A000000F09AFE03681B68984700F021FE0368D7
:104A10001B68984700F01CFE01F06EF801F040F9A9
:104A2000424808230121438102F05EF87C213F487F
:104A300001F05CFC3E4B08933E4B0B9308AC3E4BA5
:104A40000A934FF48022002304A80094FFF732FF5A
:104A50002046FFF7BDFB00F097F9002100F0A6F912
:104A6000002842D100F0F4FD032100F03CFF00F0EB
:104A7000EFFD044606F0C3FB0246C317204600F0D4
:104A8000FCFF00F0E5FD00F0DAFE2C4902462C4860
:104A9000FFF7E8FB01F0C4FA2A482B4900880024FC
:104AA0004FF0FF330122009404F004FB274828490B
:104AB000008800944FF0FF33224604F0FBFA254BA8
:104AC0001A780AB903221A7000F0C2FD00F0B7FE8E
:104AD000214902461A48FFF7C5FB204B18880021E0
:104AE0000DB0BDE8304006F08EBD00F0B1FD00F025
:104AF0009CFE0A2814D900F0ABFD012100F0F3FE62
:104B000000F0A6FD00F091FE039000F0A1FD00F082
:104B100096FE039A124903460948FFF7A3FBB9E73B
:104B200006F050FB0028E6D0B4E700BF70DF03209A
:104B3000D9400B007F410B006B410B004CD90B009F
:104B400058E60320ACDF0B0019410B00AADF0B0075
:104B5000E5400B00CEDF0320D1D90B00A8DF0B000E
:104B60008AD90B00012A37B5044604D10B680360CB
:104B7000002003B030BD022A0CD0032AF8D104680B
:104B8000002CF5D02046FFF723FB10212046FFF72D
:104B900086FAEDE7096801911020FFF77CFA0546D7
:104BA00010B10199FFF776FE2560E1E770B5D0E915
:104BB00000531426044606FB0356AE4204D0284692
:104BC00006F010F81435F8E7206803F079FF204666
:104BD00070BD8842F8B504460D46164616D9904277
:104BE00015D2A2F11406751AA1F114072C44B7428C
:104BF0001CD02CB13146204606F070F8337C23746B
:104C0000304605F0EFFF143E143CF0E70ED0B542FD
:104C10000CD02CB12946204606F060F82B7C23747A
:104C2000284605F0DFFF14351434F0E7F8BD2DE910
:104C3000F0410023C0E9003383604F689F4204467F
:104C40000E4623DD4FF0140808FB07F003F030FF99
:104C50000546D8B1D4E9001208FB0212FFF7B9FFEC
:104C6000206803F02DFF2560A760D6E9007308FBDC
:104C70000378B84508D03946284606F049F83B7C09
:104C80002B7414371435F4E7736863602046BDE86D
:104C9000F0810000F0B52F4B2F4A9A6000248DB0B0
:104CA000C3E90044022003F011FE2146012003F075
:104CB00025FE0121042003F0E7FBCDE90044029426
:104CC00006F090FB254D0646694603A8FFF7AFFFA7
:104CD0002F4603A906A8FFF7AAFF214B47F8043B7C
:104CE00006A909A8FFF7A3FF09AA1E21384605F067
:104CF000D5F809A8FFF75AFF06A8FFF757FF194B89
:104D00002B6003A82E62FFF751FF174B2B6006F0B4
:104D100069FB4FF4165106F053FB04F0A1FD294640
:104D200004F092FF6846FFF741FF104B1A1D1A600E
:104D30000F4A5A6001221A75C3E902441C6106F049
:104D4000D3FC01460B4869220DB0BDE8F04001F0EC
:104D5000CFB900BF48DF03200000FFFFA8DF03201A
:104D60000CDA0B000CE80B0024DA0B0090DF0320B8
:104D70001000030070DF0320704710B504210446C3
:104D8000FFF78DF9204610BD10B5064C236833B9E6
:104D90000420FFF780F908B1034B0360206020680E
:104DA00010BD00BFD4DF0320BCDE0B0030B531489E
:104DB00087B00D4602F0FBFC044630B92E492F485F
:104DC000FFF750FA204607B030BD9FED2D0A2D4861
:104DD00002F0E6FF2B480022172103F05BF98DB1AA
:104DE00000F036FC002100F066FD02A803F0E0FDB3
:104DF000029A25492148FFF735FA02A805F0F2FE8C
:104E00002C46DFE700F024FC00F00FFDF0B100F0CD
:104E10001FFC00F00AFD0A2818D800F019FC00F069
:104E200004FD0146194801F0EEFF184801F0D1FFDA
:104E3000019002A803F0BCFDDDE9012314490F48ED
:104E4000FFF710FA02A805F0CDFEBBE700F000FC6A
:104E50000B2100F030FD0B210C4801F0D4FF0B4872
:104E600001F0B7FF019002A803F0A2FDDDE90123E4
:104E70000849E4E704E2032034DA0B0058E6032093
:104E800000C06444D4E0032040DA0B0008E20320B1
:104E90007ADA0B00B1DA0B0010B5064CC0B00DF198
:104EA000030201A9204602F0F7FE0028F7D140B026
:104EB00010BD00BFD4E00320014802F0DABE00BFFD
:104EC000D4E003202DE9F04385B000F035FC00F07C
:104ED000CFFC044600F030FC00F0C5FC064620463E
:104EE00007F06AFE044630460D4607F065FE0246AE
:104EF0000B462046294607F0F3FF00227C4B07F0C3
:104F0000C5FE08F0BBF97B4B1F88012106463846D9
:104F100006F079FB00F010FC00F0A5FCFF2840F043
:104F2000A38000F009FC002100F0F5FC00F004FC77
:104F3000002100F0F6FC00F0FFFB00F094FC6E494D
:104F40006E4C02466E48FFF78DF900F081FB00F0D1
:104F500000FD000A207000F07BFB00F0FAFC012548
:104F60006070A57000F0E8FB00F0FDFC000AE07046
:104F700000F0E2FB00F0F7FC207100F0DDFB00F038
:104F8000F7FC000A607100F0D7FB00F0F1FCA071A3
:104F900000F05EFB00F058FCE07100F0CDFB00F08B
:104FA00058FC207200F0C8FB00F0EAFB51EC100B3B
:104FB00008F044F9607200F0BFFB00F04FFCA072F3
:104FC00000F046FB00F036FCE07200F0B5FB00F0AC
:104FD0004AFC207300F0B0FB00F04AFC032360732E
:104FE00021460093474800230E2202F0A5F904460B
:104FF000002846D100F0A0FB064600F09DFB00F023
:1050000037FC2844C1B2304600F08BFC00F094FB22
:1050100000F02EFC804600F08FFB00F024FC0646DA
:10502000404607F0C9FD80463046894607F0C4FD7A
:1050300002460B464046494607F052FF2C4B0022E1
:1050400007F024FE08F01AF907F0C8FD02460B46E7
:105050002B482D49FFF706F93846214606F0D3FACA
:10506000284605B0BDE8F08300F066FB044600F07A
:1050700063FB00F0F8FB0130C1B2204600F04BFCAE
:1050800059E7022815D100F0E3FA00F0CEFB0390B7
:10509000304607F0A3FD039ACDE900011B49002328
:1050A0001748FFF7DFF83846002106F0ACFA002079
:1050B000D7E705280DD100F0CBFA00F0B6FB03903E
:1050C000304607F08BFD039ACDE90001002310491B
:1050D000E6E700F0BDFA00F0A8FB0390304607F0C9
:1050E0007DFD039ACDE9000100230A49D8E700BFFE
:1050F00000005940A8DF0B00F8DA0B00D8DF0320CE
:1051000058E6032004E2032016DB0B0041DB0B0012
:1051100091DB0B00EADB0B0037B51E4C257A002D26
:1051200032D100F095FA294600F0C8FA1A491B4816
:10513000FFF798F800F000FB00F00EFD637A6BB10A
:1051400000F086FA617A00F0CEFB00F081FA0B21C4
:1051500000F0B1FB12480B2101F055FE207A114AF4
:10516000114B617A012818BF13461048104ACDE947
:105170000031002918BF0246A37A0E490748FFF7FD
:1051800071F8012003B030BD00F062FA012100F097
:1051900095FAD3E7D8DF032053DC0B0058E6032051
:1051A00008E203204CDC0B0047DC0B003ADC0B0070
:1051B0003FDC0B0075DC0B00F0B52F4B2F4D1E882C
:1051C0008FB00121304606F01EFA03A803F0F0FB71
:1051D0000023192207A903A805F0A5FD03A805F0DF
:1051E00001FD00F035FA00F0B4FB000A287000F071
:1051F0002FFA00F0AEFB0DAF687007ABAA1C1C467F
:1052000003CCBC4210605160234602F10802F6D183
:105210002378137000F01CFA00F016FBE87600F01B
:1052200017FA00F002FB1649164A01240A2888BF23
:105230000A4615491548FFF715F810491448009417
:1052400000231C2202F078F8054650B911490F4896
:10525000FFF708F83046294606F0D5F920460FB08A
:10526000F0BD0D490948FEF7FDFF3046002106F06C
:10527000CAF90020F3E700BFA8DF0B00D8DF032046
:10528000C6DC0B00DDDC0B00F2DC0B0058E6032073
:1052900004E2032012DD0B003CDD0B0010B51449C5
:1052A0001448154CFEF7DEFF00F0D2F900F0BDFA0D
:1052B0000A2804D900F0CCF9217A00F0FCFA00F0B9
:1052C000C7F900F0B2FA0D4902460A48FEF7CAFFD4
:1052D00000F0BEF900F0A9FA0146094801F093FD7B
:1052E00000F0B6F9617A00F004FB012010BD00BFA8
:1052F0005BDD0B0058E60320D8DF032077DD0B00D1
:1053000008E203201E4B37B51D881E4C012128469C
:1053100006F079F900F09CF900F01BFB000A207000
:1053200000F096F900F015FB607000F091F900F0C4
:1053300086FA0523A0702146009313480023032218
:1053400001F0FAFF044680B900F082F900F077FA24
:105350000E49024623460E48FEF784FF28462146A2
:1053600006F051F9012003B030BD0A490848FEF7A4
:1053700079FF2846002106F046F90020F3E700BF38
:10538000A8DF0B00D8DF032004E20320A7DD0B0019
:1053900058E60320DFDD0B0008B500F059F9054B96
:1053A000997800F0A0FA04490448FEF75BFF012059
:1053B00008BD00BFD8DF03200ADE0B0058E603203B
:1053C000F0B58DB0F9238DF81A300DF11F0303935A
:1053D0000DF11E0302933D4E3D480DF11D03019357
:1053E00007AB00930DF11A020DF11B03314601F0DA
:1053F000D7FF044618B9002420460DB0F0BD9DF833
:105400001A300027F754358800F022F900F0A1FA8D
:105410006DBAADB2A84204D02E492F48FEF722FF44
:10542000E9E72E4D9DF81E309DF81B202C482B706F
:10543000059201F066FD2B49059A0346287801EB99
:105440000011009124482849FEF70CFFD6F802000D
:1054500000BAC11705F0BAFD00F0FAF8F18849BAB0
:1054600089B200F0AEFA05F0CAFEC317024608A8DA
:1054700005F0C0FD089A059200F0EAF800F06EFA17
:10548000059A1A4903461448FEF7ECFE08A805F0F1
:10549000A9FB2B78042B11D02B78022B05D1FFF719
:1054A00073FCFFF7FBFE0028A6D12B78062BA2D1B8
:1054B000FFF76AFCFFF770FF04469DE7FFF764FC07
:1054C000FFF72AFE0028E7D096E700BFD8DF0320C9
:1054D00004E2032024DE0B0058E60320D0DF032083
:1054E000D4E0032010DE03204DDE0B007FDE0B0036
:1054F00010B5084A084C094912780978084B20462B
:1055000002F010FC21460748BDE81040002201F0DF
:1055100009BF00BFB2DF0B00D4E00320B0DF0B00F7
:10552000F0E3032004E2032010B5044B03600446BB
:10553000406808B102F088FF204610BD6CE60B0001
:1055400010B50446FFF7F0FF20467021FEF7A7FDD7
:10555000204610BD10B5034B0360044601F026FB46
:10556000204610BD08DF0B0010B50446FFF7F2FF20
:1055700020461021FEF793FD204610BD10B5044BC8
:1055800003600446406808B102F05EFF204610BD8B
:105590006CE60B0010B50446FFF7F0FF20466021D3
:1055A000FEF77DFD204610BD10B5036804460BB91B
:1055B00002F042FF2068BDE8104002F04DBF38B550
:1055C00004460430FFF7F0FF206A616A0368DD6873
:1055D000D4E90223A8476068BDE8384002F044BF20
:1055E00038B504460430FFF7DFFF206A616A0368BC
:1055F0009D68D4E90223A847A2682368D1885B6923
:105600002046984718B9236820469B6998476068E8
:1056100002F02AFF012038BD00F12801816009490C
:105620004FF0380CC0E903C1012181824FF47A7137
:10563000C16105490022C0E9081242608261034A43
:1056400002607047759EA920BCE3032024DF0B0095
:1056500010B5064C23683BB96020FEF71CFD0346DD
:1056600008B1FFF7D9FF2360206810BDB4E3032021
:1056700010B5006A01F0B0FAFFF7EAFF0368BDE871
:1056800010405B68184710B5FFF7E2FF0368BDE8FC
:105690001040DB680021184738B504460430FFF796
:1056A00083FFE3686068013B302B86BFA36893F8F3
:1056B0003150002502F0D8FE284638BD38B50446E2
:1056C00004300D46FFF770FFE368013B302B0FD924
:1056D000A36893F83120AA420AD083F831502046BB
:1056E000A56802F027FEA860236820461B6998473A
:1056F0006068BDE8384002F0B7BE0000002200F14B
:105700002801426082614FF47A728160C261074968
:10571000074A02624FF0480C3222C0E903C14262DC
:105720000121044A81820260704700BF749EA92053
:10573000BCE3032050DF0B0010B5064C23683BB9D7
:105740007020FEF7A8FC034608B1FFF7D7FF2360DF
:10575000206810BDB8E3032010B5006A01F03CFAE0
:10576000FFF7EAFF0368BDE810405B68184710B513
:10577000FFF7E2FF0368BDE81040DB68002118472F
:1057800010B504462DED028B0430FFF70DFFE368E2
:10579000083B172B0CD9A36893ED068B606802F0C9
:1057A00063FEB0EE480AF0EE680ABDEC028B10BD55
:1057B0009FED018BF2E700BF000000000000000039
:1057C000F8B50446043057EC106BFFF7EDFEE368C4
:1057D000083B172B12D9A5683046D5E90623394670
:1057E00007F0BCFC50B9C5E906672046A56802F081
:1057F000A1FDA860236820461B6998476068BDE842
:10580000F84002F031BE38B5044604300D46FFF7CB
:10581000CBFEE3686068013BAB4226BFA3685D5DD9
:10582000002502F021FE284638BD08B51021FFF7FB
:10583000EAFF08BD08B51721FFF7E5FF08BD08B569
:105840002221FFF7E0FF08BD08B53021FFF7DBFF9D
:1058500008BD08B51021FFF7D6FF08BD08B5202107
:10586000FFF7D1FF08BD08B53221FFF7CCFF08BD17
:1058700008B53321FFF7C7FF08BD70B504460430F3
:105880000D461646FFF790FEE368013BAB420DD391
:10589000A3685A5DB24209D05E552046A56802F061
:1058A00049FDA860236820461B6998476068BDE8E9
:1058B000704002F0D9BD08B50A461021FFF7DDFFA0
:1058C00008BD08B50A461221FFF7D7FF08BD08B585
:1058D0000A461621FFF7D1FF08BD08B50A46172171
:1058E000FFF7CBFF08BD08B50A462221FFF7C5FF29
:1058F00008BD08B50A463021FFF7BFFF08BD08B54F
:105900000A461021FFF7B9FF08BD08B50A46202155
:10591000FFF7B3FF08BD08B50A463221FFF7ADFF18
:1059200008BD08B50A463321FFF7A7FF08BD38B503
:10593000044604300D46FFF737FEE3686068023B1B
:10594000AB4226BFA3685D5B002502F08DFD2846B3
:1059500038BD08B51421FFF7EAFF08BD08B52021BE
:10596000FFF7E5FF08BD08B54021FFF7E0FF08BDE0
:1059700008B54221FFF7DBFF08BD70B504460430CF
:105980000D461646FFF710FEE368023BAB420DD30F
:10599000A3685A5BB24209D05E532046A56802F064
:1059A000C9FCA860236820461B6998476068BDE869
:1059B000704002F059BD08B50A461421FFF7DDFF1B
:1059C00008BD08B50A462021FFF7D7FF08BD08B576
:1059D0000A464021FFF7D1FF08BD08B50A4642211B
:1059E000FFF7CBFF08BDF8B5044604300D46FFF7BE
:1059F000DBFDE3686068083BAB4223BFA16849193F
:105A0000D1E90067002638BF002702F02DFD30469F
:105A10003946F8BD08B51821FFF7E5FF08BD08B500
:105A20003821FFF7E0FF08BDF8B5044604300D4605
:105A30001E461746FFF7B8FDE368083BAB4212D39A
:105A4000A3685A1958595168B14208BFB8420AD0E0
:105A50005F5120465660A56802F06CFCA860236880
:105A600020461B6998476068BDE8F84002F0FCBC1E
:105A700008B51821FFF7D8FF08BD08B52821FFF7A2
:105A8000D3FF08BD08B51A491A48FEF7EBFBFFF72C
:105A9000DFFD0B21FFF70FFFFFF7DAFD0121FFF715
:105AA00010FFFFF7D5FD46F6E131FFF784FFFFF762
:105AB000CFFD0121FFF70BFFFFF7CAFD0021FFF724
:105AC0000CFFFFF7C5FD0A21FFF77BFFFFF7C0FDC5
:105AD0000021FFF708FFFFF7BBFD00230022FFF7BF
:105AE000CCFFFFF7B5FDBDE808400121FFF7E6BD9B
:105AF000C4DE0B0058E6032038B50546FFF7A8FDC5
:105B0000FFF72CFFC8B1FFF7A3FDFFF727FF3C28E5
:105B100094BF00240124FFF79BFDFFF795FE70B9A9
:105B20000124FFF795FDFFF780FE0B2800D86CB12C
:105B30002846BDE83840FFF7A5BF0124EBE7FFF793
:105B400087FDFFF781FE0228EAD8EAE738BD08B5ED
:105B50003821FFF769FF08BD10B514491448FEF756
:105B600081FBFFF7E9FD0021FFF737FFFFF7E4FDB9
:105B70000021FFF72CFFFFF7DFFD044605F03FFB98
:105B80000246C3172046FFF7E2FFFFF761FD002141
:105B9000FFF7A3FEFFF7D0FD0021FFF7BCFEFFF7E4
:105BA000CBFDBDE810400021FFF7BBBEDCDE0B00E3
:105BB00058E6032010B505F097FD054C014600237B
:105BC0004FF40052204600F0FDFF024B236010BD51
:105BD000BCE3032008DF0B0008B513491348FEF7A8
:105BE00041FB0221042005F0FDFC0021082005F006
:105BF000F9FC0121072005F0F5FC0021122005F039
:105C0000F1FC0121112005F0EDFC0121102005F02F
:105C1000E9FC0021102005F0F6FC0021112005F020
:105C2000F2FC012008BD00BF74DF0B0058E6032022
:105C300010B51849184890B02024FEF713FB2246EF
:105C40000021684607F0E4FB224600210DEB04002A
:105C50008DF8054007F0DCFB00210DEB04008DF80A
:105C6000254002F077FE41F2D833ADF806300B4BF9
:105C7000029341F27003ADF80C30009B002143F415
:105C800000736846009302F065FE003818BF0120DB
:105C900010B010BD8DDF0B0058E603208403840391
:105CA00008B50B490B48FEF7DDFAFFF7D1FC0121DF
:105CB000FFF71FFEFFF7CCFC0B21FFF7FCFDFFF702
:105CC000C7FCBDE8084046F6E131FFF774BE00BFEF
:105CD000B6DF0B0058E6032010B503682F2B0446EF
:105CE00004D9074A07490A2002F0B6FD23681F2B92
:105CF00083BF03F01F03044823604FF0A04010BD92
:105D0000A9840B004BE00B000003005007EE900A43
:105D10009FED097AF8EEE77A67EE877A9FED077ACA
:105D200087EE870ADFED067A70EE677AB2EE040A34
:105D300087EE800A704700BF00404E4500F07F4567
:105D40000000FA4313B5012101A804F05AFCFFF743
:105D5000F3FCFFF77EFDFFF7EFFCFFF77AFD252848
:105D600001A80DD904F0E0FCFFF7E6FC0121FFF7E4
:105D7000CCFD002401A804F053FC204602B010BD65
:105D800004F0B7FC0124F5E730B5194D0FCD97B0FD
:105D90000CAC0FC40FCD0FC495E8030084E80300DA
:105DA000144904A802F062FF04A802F0A2FF04460E
:105DB00004A802F0D7FF04A810EE105A03F002F86E
:105DC00016AB10EE100A03EB840406F007FFCDE9D2
:105DD0000201284606F002FFCDE90001064A54F808
:105DE000283C0648402102F083FE17B030BD00BFBA
:105DF000D0E00B0014E603206FE00B0090DE0320E0
:105E0000F0B54F4E4F4C3378BFF35B8F13F0010F5B
:105E100085B009D13046FEF751F928B102F074FB84
:105E200020603046FEF74FF9474B1D8823682D014F
:105E30005B5D5F013378BFF35B8FD90709D44048BE
:105E4000FEF73CF928B102F05FFB20603C48FEF70A
:105E50003AF923682B4403A85B7803F01F033B4304
:105E60000393FFF739FF039A01239340C0F80835E5
:105E7000FFF762FC074605F0C2F90246C317384631
:105E8000FFF765FEFFF758FC0746FFF755FCFFF7E5
:105E90006AFD013081B23846FFF799FDFFF74CFCEF
:105EA0000746FFF749FCFFF763FD013081B2384632
:105EB000FFF793FDFFF740FCFFF755FD0190FFF75B
:105EC0003BFCFFF755FD019A204903462048FEF7A9
:105ED000C9F9C82002F05CFE3378BFF35B8FDA07A4
:105EE00009D41748FEF7EAF828B102F00DFB20604C
:105EF0001348FEF7E8F823685B5D5F013378BFF372
:105F00005B8FDB0709D40E48FEF7D8F828B102F002
:105F1000FBFA20600A48FEF7D6F823681D4403A860
:105F20006B7803F01F033B430393FFF7D5FE039BFE
:105F3000012202FA03F3C0F80C35104605B0F0BD9B
:105F4000CCE30320D0E30320A8DF0B0088E00B00A4
:105F500058E6032030B585B00D4600226946009210
:105F600002F0A2FC90B9009C0CB1236923B9084A45
:105F700008490A2002F070FC0C23CDE90135042306
:105F8000039301AA236901212046984705B030BD3B
:105F9000A9840B00A5E00B0013B5FFF7CDFB01A909
:105FA00004460720FFF7D6FF011EA8BF019920462F
:105FB000C9B2FFF7AAFC184802F0CEFF4FF4FA70FE
:105FC00002F0E6FDFFF7B8FB01A904460320FFF746
:105FD000C1FFE8B9BDF8043007EE903AFBEECC7A89
:105FE00017EE900A06F0FAFD41EC100B2046FFF781
:105FF000E7FBFFF7A1FBFFF7C3FB084B51EC100BCE
:10600000002207F0D3F8003818BF012002B010BDFD
:10601000FFEE007AE4E700BFD4E3032000004E4027
:1060200013B5FFF789FB114B0446188805F017FBE1
:10603000FFF76CFEFDEEC07A2046CDED017A9DF8AB
:106040000410FFF75CFCFFF777FBFFF702FC084A40
:1060500003461021074802F04BFDFFF79DFFFFF7B5
:1060600071FEFFF791FE012002B010BDB4DF0B00FE
:10607000CBE00B0080DE03200148002102F028BFA6
:10608000D4E30320704710B520210446FEF707F83B
:10609000204610BD10B504468AB008464FF0200CCB
:1060A0000021CDE90023CDE902C10B4602AA2168F7
:1060B00002F0E2FB0AB010BD0EB403B503AB32210F
:1060C00053F8042B0193FFF7E5FF02B05DF804EBF2
:1060D00003B070470EB403B503AB012153F8042B92
:1060E0000193FFF7D7FF02B05DF804EB03B07047F0
:1060F00010B50272FF2242810022C0E903224261F0
:106100000276C261024A034C1060C0E9004110BD32
:10611000E0E3032048E30B002DE9F8439DF82080DD
:106120000446894616461F46B8F1000F02D0406863
:1061300002F0ACFF217A606802F085FF60680368B6
:1061400049469B6898476068002102F09BFF05461E
:1061500000BB0123217A60683A4602F062FF874261
:10616000034609D13744BE421CD0606803685B69AE
:10617000984706F8010BF6E70B490C484A46FFF72B
:106180009BFFB8F1000F02D0606802F088FF28463C
:10619000BDE8F8830346064904484A46FFF78CFFEA
:1061A0000025EEE70125ECE7F8E00B00DCE3032037
:1061B0001DE10B0007B500930123FFF7ADFF03B00E
:1061C0005DF804FB73B54389FF2B044610D0194ECC
:1061D000194D02F071F9B0F57A7F09D2608905F0A6
:1061E0002BFA012804D031462846FEF73BF8F0E7A9
:1061F00001230DF1070228212046FFF7DBFF30B90C
:106200000D480E49FEF72EF8002002B070BD9DF833
:106210000730182BF4D101230DF107022921204664
:10622000FFF7C8FF0028EBD09DF80730052BE7D11A
:10623000EBE700BF41E10B00DCE3032056E10B007C
:1062400007B5134600228DF807200DF10702FFF76E
:10625000B1FF9DF8070003B05DF804FB2DE9F041A4
:106260009DF8188004460F4615461E46B8F1000FEB
:1062700002D0406802F00AFF217A606802F0E3FE73
:106280006068036839469B6898472E44B542606849
:1062900005D0036815F8011B9B689847F6E70121B4
:1062A00002F0F0FE034670B1084909483A46FFF78C
:1062B00003FF0025B8F1000F02D0606802F0EFFE86
:1062C0002846BDE8F0810125F4E700BF63E10B003B
:1062D000DCE303201FB58DF80F2000930DF10F02B2
:1062E0000123FFF7BBFF05B05DF804FBF8B50A46D4
:1062F0000C4605461A491B48FDF7B4FF002CB8BFF1
:10630000EC687CB9012322461B212846FFF7E2FFF7
:106310001549024606461348FFF7DCFEEC606C6147
:106320003046F8BD032C19DDA7101F2FA8BF1F276B
:10633000BA0062F07C020123D2B21B212846FFF78B
:10634000C9FF3A460346094906460648FFF7C2FE1A
:106350004FF4FA635F43EC606F61E1E70127E7E721
:1063600088E10B00DCE3032092E10B00AEE10B00BF
:10637000064B1A684AB1A0F500630B4305D1D368F8
:106380001BB100211046FFF7B1BF7047E0E30320C7
:106390002DE9FF419DF82880054616461F46B8F1B5
:1063A000000F04D04068019102F070FE0199019144
:1063B00000230DF10F022846FFF7FCFE044660B1F2
:1063C0009DF80F3003EA06023A43934205D0019943
:1063D00000232846FFF77EFF0446B8F1000F02D0E5
:1063E000686802F05CFE204604B0BDE8F08113B599
:1063F00014460DF10702FFF7DDFE28B19DF80730C6
:106400001C420CBF0120002002B010BD13B5144681
:106410000DF10702FFF7CEFE28B19DF807301C42B0
:1064200014BF0120002002B010BD07B5D243009375
:10643000D2B20023FFF7ACFF03B05DF804FB00000D
:1064400037B501230DF107020F210446FFF7B2FE15
:10645000054638B91E491F48AD22FFF72DFE2846D4
:1064600003B030BD9DF8073013F0200F4FF001034B
:106470000BD02022E3610F212046FFF7D6FF164AFA
:1064800016491448FDF7EEFEE9E7082217212046D9
:10649000FFF7BCFF18B10223114AE361F0E79DF852
:1064A00007301A0709D50323E361082201230F21CE
:1064B0002046FFF7BAFF0B4AE2E75B07CFD504227D
:1064C000E26101230F212046FFF7AFFF064AD7E71D
:1064D00001E20B00DCE30320D2E10B0020E20B0021
:1064E000DBE10B00EBE10B00FBE10B0007B50093D8
:1064F0001346FF22FFF74CFF03B05DF804FB0000DA
:10650000F8B50F461646012300220F210546FFF776
:10651000E1FE044638B94FF425721F491F48FFF7C2
:10652000CBFD2046F8BD0123232218212846FFF782
:10653000D1FE044610B940F29B22EEE7FF2FA8BF20
:10654000FF27012FB8BF01270123FAB219212846DE
:10655000FFF7C0FE044610B94FF42A72DDE70123AD
:10656000082212212846FFF7C1FF044610B940F265
:10657000AF22D2E7002E14BF03220222012342F0F1
:10658000800218212846FFF7A5FE04460028C8D13E
:1065900040F2B922C1E700BF31E20B00DCE3032087
:1065A0002DE9F7430A4605460F464F484F49FDF788
:1065B00059FE00212846FFF799FE044648B940F2EB
:1065C000F7124B494848FFF777FD204603B0BDE876
:1065D000F08301231A4630212846FFF787FF04463F
:1065E00010B940F20522ECE710220123114628469B
:1065F000FFF71BFF044610B94FF40372E1E70123D4
:10660000262213212846FFF765FE044610B940F202
:106610001322D6E7012600963346FC221121284694
:10662000FFF7B6FE044610B940F21B22C9E700226C
:1066300039462846FFF764FF044610B940F222228B
:10664000BFE700960223772210212846FFF7A0FE1D
:10665000044610B940F22B22B3E7334604221C2132
:106660002846FFF743FF044610B940F23222A8E75C
:1066700000961823E32211212846FFF789FE0446DD
:1066800010B940F239229CE73346C0221721284630
:10669000FFF720FE044610B94FF4107291E701F0A5
:1066A0000BFFDFF85490DFF840804FF47A71064614
:1066B0004F4301F001FF801BB8420ED20122172187
:1066C0002846FFF7BDFD494602464046FDF7CAFD94
:1066D0004FF47A7002F05CFAEBE706490248FFF7E4
:1066E000EBFC04F0A0FB70E7DCE303205CE20B00B2
:1066F00051E20B0082E20B006DE20B002DE9F34743
:106700009DF828A005460C4691461F46BAF1000F99
:1067100002D0406802F0BAFC07B3202F3E4628BFE3
:1067200020267F2C26D83319802B01D9C4F180066E
:10673000012304223F212846FFF777FE002364F05F
:106740007F0100934A463346C9B22846FFF7E4FC6E
:10675000804628B13444BF1BB144DDE74FF0010847
:10676000BAF1000F02D0686802F099FC404602B00E
:10677000BDE8F087012304223F212846FFF7B6FE3B
:10678000DCE72DE9F3479DF828A005460C46914625
:106790001F46BAF1000F02D0406802F077FC07B341
:1067A0001F2F3E4628BF1F267F2C26D83319802B4B
:1067B00001D9C4F18006012304223F212846FFF7B6
:1067C00034FE002364F07F0100934A463346C9B289
:1067D0002846FFF743FD804628B13444BF1BB1442F
:1067E000DDE74FF00108BAF1000F02D0686802F04F
:1067F00056FC404602B0BDE8F087012304223F2149
:106800002846FFF773FEDCE730B585B00D68D1E9A7
:10681000043203954D6802958D680195C968009111
:106820000133044902F26C72044604F095FA2046E2
:1068300005B030BD94E20B0003090A2200F00F00FE
:1068400002FB0300704738B5044600781546FFF791
:10685000F3FF08606078FFF7EFFF4860A078FFF76C
:10686000EBFF8860E078FFF7E7FFC8602079FFF76B
:10687000E3FF013808612DB9651D2878FFF7DCFFBB
:10688000886138BD6079FFF7D7FF6430A51D486186
:10689000F3E7000070B5012388B00D461A461021B9
:1068A0000446FFF7A4FDF0B1082301262046009618
:1068B0000DEB03020021FFF72FFC044698B132468E
:1068C00029460DF10900FFF7BEFF04A8FFF79CFF62
:1068D0000848049A0849FDF7C5FC04A804F082F9A9
:1068E000204608B070BD24220021284606F090FD05
:1068F0000024F5E7DCE30320B2E20B0030B58BB0F7
:106900000D4601A9FFF7C6FF044620B101A802F019
:1069100037F9C5E9000120460BB030BD0A2390FBD2
:10692000F3F103FB110091FBF3F203FB121240EAB7
:106930000210C0B2704770B5054600680C46164696
:10694000FFF7ECFF20706868FFF7E8FF6070A86849
:10695000FFF7E4FFA070E868FFF7E0FFE070286948
:106960000130FFF7DBFF20712EB9661DA869FFF724
:10697000D5FF307070BD6A69642392FBF3F003FBAE
:106980001020FFF7CBFFA61D6071EFE7F0B587B0D1
:10699000054602A816460C46FFF736FF1E48029A27
:1069A0001E49FDF75FFC02A804F01CF916B16868E7
:1069B00002F06CFB204601220DF1090100278DF841
:1069C0000870FFF7B8FF01231A4610212846FFF789
:1069D0008DFD0446E8B1082300970DEB030239460C
:1069E0002846FFF73BFC044660B101231A461021FC
:1069F0002846FFF71AFD16B1686802F050FB2046E2
:106A000007B0F0BD4FF48D7205490348FFF754FB02
:106A1000F1E74FF48F72F7E7DCE30320C0E20B00ED
:106A2000CEE20B0013B504466846CDE9002306F01C
:106A3000A1FC9DF8102001462046FFF7A7FF02B0F9
:106A400010BD0000F0B5057E89B0044675BB04F0AA
:106A5000B9FB58B30026002704A92846CDE90467EE
:106A600001F0B6FF10B30125257604F0C8FBC3176B
:106A7000CDE90203024600952046FFF7D3FF02A9A5
:106A80002046CDE90267FFF739FF134B13491B6816
:106A9000009304A8DDE9022304F052FB1048049A95
:106AA0001049FDF7DFFB04A804F09CF863698BB183
:106AB00001F002FD2369C01A636998420AD301F00C
:106AC000FBFC4FF0FF312061204609B0BDE8F040EB
:106AD000FFF70CBC09B0F0BDD8DE0320ACE6032004
:106AE000DCE30320E9E20B0030B504468BB011B1C2
:106AF000406802F079FA2046FFF764FB06AD0028F3
:106B000037D02046FFF79CFC01231A46102120466F
:106B1000FFF76DFCD8B104F055FBC0B902A92046BF
:106B2000FFF7ECFEDDE9020104F050FA134B1449C3
:106B30001B6800932846DDE9022304F001FB11489D
:106B4000069A1149FDF78EFB284604F04BF80F4BCF
:106B500006930F4B09930F4B08934FF400620023E9
:106B600002A80095FDF7A6FE2846FDF731FB0BB005
:106B700030BD09490348FFF79FFAE8E7D8DE032054
:106B8000ACE60320DCE30320FFE20B0071630B00A3
:106B90007F410B006B410B001CE30B00014B024AD1
:106BA0001A607047DCE3032034E30B00704710B534
:106BB00010210446FDF773FA204610BD0368C9B2E0
:106BC0009B68184730B5034DC0E90223C0E9005166
:106BD00030BD00BF60E30B00406802F005BA10B59D
:106BE0000446006802F05BFA204610BD2DE9F74329
:106BF0000446406801900D4616461F4602F046FACC
:106C0000A7B1E168606841F0500102F020FA290A5A
:106C10006068FFF7D3FF29466068FFF7CFFF606821
:106C2000002102F02FFA48B1002400E0012401A85D
:106C3000FFF7D5FF204603B0BDE8F083202F217B6E
:106C40006068B84628BF4FF020080123424641F053
:106C5000500102F0E6F904F047FD03681B6998470C
:106C60004045E1DB06EB080904F03EFD03685B6983
:106C7000984706F8010B4E45F6D14544A7EB0807A7
:106C8000BEE72DE9F74F0446406801900E46904656
:106C90001D4602F0FBF94FF00109B9F1000F2AD0AF
:106CA0004DB3E168606841F0500102F0D0F9310A5B
:106CB0006068FFF783FF60683146FFF77FFFA5F14B
:106CC0001E0A4746A6EB080B606817F8011B03680D
:106CD000013D9B68984755450BEB0706B84601D028
:106CE000002DF1D16068012102F0CCF90028D7D045
:106CF0004FF00009D1E701A8FFF771FF484603B044
:106D0000BDE8F08F2DE9F0438BB00E461546804666
:106D1000406801901C4602F0B9F9AE4229D22644DF
:106D200025448CB11E2C2746D8F8003028BF1E27DA
:106D3000F61BD3F8089002AA3B4631464046ED1BAD
:106D4000C84748B9002400E0012401A8FFF747FF25
:106D500020460BB0BDE8F083D8F8003002AAD3F883
:106D60000C9029463B464046C8470028EAD0E41B21
:106D7000D7E7E9D9002CE7D0D8F800301E2C2746F9
:106D800028BF1E27D3F8089002AA3B46314640464A
:106D9000C8470028D6D0D8F8003002AAD3F80C9003
:106DA00029463B464046C8470028CBD03E443D4498
:106DB000E41BDFE701600271704700680368DB686D
:106DC0001847006803681B6A1847006803689B6AD5
:106DD000184700797047006803689B6B184737B500
:106DE00005460C4619460192FFF7F5FF2868019AFF
:106DF00003685B69214603B0BDE83040184700686E
:106E00000368DB6B184738B50446006803680D4615
:106E10005B6B984729462046FFF7F1FF257138BD87
:106E200038B50446006803689B689847054618B162
:106E300021792046FFF7E7FF284638BD0068036840
:106E40001B6C1847006803685B6C18470068036890
:106E5000DB6C1847006803681B6D184700680368FF
:106E60005B6D1847006803689B6D18472DE9F84370
:106E7000044600680A9F1E4603681B69DDE90898FE
:106E800098470546C8B11EB12046FFF7E3FF3070B2
:106E9000B9F1000F04D02046FFF7D8FF89F80000B1
:106EA000B8F1000F04D02046FFF7D8FF88F80000A3
:106EB0001FB12046FFF7D6FF38702846BDE8F8839B
:106EC000012070470379032BFCD00120704700207C
:106ED00070478171704741717047C172704701738B
:106EE000704741737047837B23EA02021143817329
:106EF0007047C0797047007A7047407A7047807A4F
:106F00007047008A00B2704700797047017170477E
:106F1000408A80B27047808A80B27047C08A80B24F
:106F2000704738B505460C462B682846DB689847FD
:106F300028B9002CF8D0204601F02AFEF4E738BD2D
:106F4000F8B505460F46144601F0B6FA064601F0BC
:106F5000B3FA801BB8420AD22B682846DB689847F0
:106F600030B9002CF3D0204601F012FEEFE70020EC
:106F7000F8BD70B504460E4601F09EFA054601F0D4
:106F80009BFA401BB04204D22379032BF7D0012097
:106F900070BD0020FCE770B5C3690446B3B101F0D1
:106FA0008BFA64260546236820461B6B984768B118
:106FB00001F082FAE369401B984209D80A210120B6
:106FC00003F037FD704301F0E3FDECE7012070BDF5
:106FD0000020FCE7064A0260FF2100220271417195
:106FE0004282C172828281818273C282C261704791
:106FF0007CE30B00704770477047704770474171E2
:1070000070478171704701717047000030B5034DC2
:10701000056001714271837130BD00BFFCE30B005C
:10702000704710B510210446FDF739F8204610BD11
:107030000EB403B503AB002153F8042B019303F006
:10704000BCFC02B05DF804EB03B0704773B50446B6
:1070500008462279A36832B1A3B90B4902B0BDE852
:10706000704003F0A1BB094A267B094D0949647BA6
:10707000012E18BF2946CDE900140749FFF7D8FFB4
:1070800002B070BD054AEFE739E40B00D5E70B000D
:1070900035E40B0031E40B004FE40B0028E40B0057
:1070A00010B50446FFF7B2FF054B2360054BA36004
:1070B0000123237300232361A382204610BD00BF58
:1070C00088E40B0074E40B0013B50B4C2178BFF37C
:1070D0005B8F11F001010BD120460191FCF7EEFF0F
:1070E000019928B1054803F0BDFC2046FCF7EBFFF1
:1070F000024802B010BD00BFE4E30320E8E3032030
:1071000007B50191FFF7E0FF019903B05DF804EBCB
:1071100003F060BD08B5FFF7D7FFBDE8084003F0F6
:107120005FBD08B5FFF7D0FFBDE8084003F059BDCB
:1071300010B50379042B20D0032B20D0022B20D0B4
:10714000114A1249012B18BF0A4641798379013946
:1071500018BF012133B1012B04D0022B02D0032B25
:1071600018BF002300240473026101754375FFF703
:10717000ABFFBDE8104003F07FBC054AE5E7054AD8
:10718000E3E7054AE1E700BF80841E0040420F00AC
:107190000024F40000127A0000093D0008B5FFF752
:1071A00093FFBDE8084003F07BBC10B50446FFF731
:1071B0008BFF04F10801BDE8104003F09DBC08B549
:1071C000FFF782FFBDE8084003F07CBC08B5FFF77D
:1071D0007BFF08BD002302481A461946FFF760BF2F
:1071E000F0E30320012A05D1007A0B781B1A5842DC
:1071F00058417047002070472DE9F047254C012386
:1072000086B02370637000230F46A17000930322A1
:10721000FF232146064600F0B7FB20B10025284693
:1072200006B0BDE8F087FA238DF8173001F044F975
:1072300006F10409804608F57A6501F03DF9291A3E
:107240000029EBDD002289B24846FFF7BEFD002889
:10725000F3D00023CDE90233CDE900330DF117025D
:107260002146304600F09AFB05460028E3D09DF801
:107270001730012BDFD994F800A0BAF1020FDAD150
:107280004846FFF7E7FD534602463946304600F0D0
:10729000F3FAC4E708E40320012A2DE9F341074685
:1072A0000E4614463BD94D79022D30D100F1040829
:1072B000C97901914046FFF7CDFD083C2B460246B7
:1072C0000199384600F0D8FAE5B206F10803002427
:1072D0002246954204F10104E4B204D913F8012BCB
:1072E000397A9142F4D104F108010E44A54216D92D
:1072F00016F8011B01914046FFF7ACFD0134024630
:10730000019902233846E4B200F0B6FAEEE7032D05
:1073100005D1897902B0BDE8F04100F096BA02B01B
:10732000BDE8F08110B5044600F0E6FA014B236099
:10733000204610BDBCE40B002DE9F047F92A9DF86A
:10734000209006460F4614461D4625D8FF2B14D123
:10735000DFF84880404600232246394600F8013BCA
:1073600006F02EF8621CCDF820902B4641463046A0
:10737000D2B2BDE8F04700F007BB194600F021FA91
:107380000028E5D1336829469B6830469847002895
:10739000DED10220BDE8F0870120FBE708E40320EE
:1073A0002DE9F04F89B09846FA238DF81A300DF187
:1073B0001F0303930DF11E0302935D4E0DF11D0398
:1073C000019307AB0093894617460DF11B030DF19E
:1073D0001A023146DDE912BA054600F0DFFA04462A
:1073E00020B90024204609B0BDE8F08F9DF81A307E
:1073F00073B3327862BBB8F1000F03D09DF81B2045
:1074000088F80020BBF1000F03D09DF81C208BF8FA
:107410000020BAF1000F03D09DF81D208AF800204B
:10742000149A1AB114999DF81E200A70159A1AB16F
:1074300015999DF81F200A703A783E49013BDBB24E
:107440009A4288BF3B703A78484605F0B9FFC9E7D1
:107450009DF81C20FF2AC4D1012BC2D93278012A01
:10746000BFD12A7A9DF81B40A242BAD0DF1E324912
:10747000FFB200235FFA83F8474506D911F8010BE4
:10748000824203F10103F5D1ABE705F10409484657
:10749000FFF7E0FC022302462146284600F0ECF903
:1074A00095F8173193B1224CA31BDBB29F420CD944
:1074B000E17805914846FFF7CDFC05990246022385
:1074C000284600F0D9F90134EEE7B8462B68727807
:1074D000DB681A4928469847044660B10223002415
:1074E00033709DF81A209DF81B30114900942846EE
:1074F00000F04AFA76E795F8163143457FF671AF0A
:1075000095F81731002B3FF46CAF9DF81A202B7AB9
:1075100007493E440132F3709DF81B300190D2B20E
:1075200000932846FF238DF81A2000F0F7F959E759
:1075300008E4032009E403200BE403200AE4032009
:10754000F0B585B0054604300E460392FFF782FC85
:10755000039A07463146284600F04AF902280446B5
:1075600001D005281BD13178284600F06EF97278D9
:107570002B7A9A4213D00B4C032323703378637019
:10758000717802233A46284600F076F900230093EA
:10759000214673780222284600F0F6F90446204678
:1075A00005B0F0BD08E4032010B50446FFF702FC67
:1075B000C8230021E3810323A160217323744FF4C6
:1075C000807204F1110005F023FF204610BD1FB5A5
:1075D00004460192FFF732FC204600228021FFF78B
:1075E00031FC2122019B8DF80F200DF10F010122AA
:1075F0002046FFF7F4FB2046FFF7E3FB04B010BD85
:107600002DE9F04F057B0135EDB287B00446894680
:107610009246984605730027227C3B469A4207F122
:107620000107FFB26BD329462046FFF707FC012F65
:107630000DBFC0228022402100212046FFF702FC1E
:107640004346524649462046FFF7C9FB2046FFF70E
:10765000B8FBB8F1FF0F54D0012F82BFA3680133EC
:10766000A36000F029FF4FF4807183460020E68973
:1076700003F0DFF9704348BFFF3006EB20261BFA0A
:1076800086F600F019FF301A0028C5DD81B200220D
:107690002046FFF79AFB0028F3D00DF11703029361
:1076A0000DF11603019300220DF11503009311460D
:1076B00005AB2046FFF7DAFB0028E2D09DF8142046
:1076C0009DF9173042450ED194F804C09DF815106D
:1076D0008C4508D1002B08DA9DF81630AB42D0D18A
:1076E00007B0BDE8F08F002BCBDBA1189DF816305A
:1076F000497C9942C5D12046FFF769FFC1E70020C8
:10770000EEE70120ECE72DE9F04389B0CDE9042153
:10771000DDE91098129F04461E46FFF74EFBDDE997
:10772000042120B90025284609B0BDE8F0830DF1F9
:107730001F0302930DF11E0301930DF11D0300932E
:10774000204607ABFFF792FB05460028EAD09DF9DB
:107750001F30002BE6DB22799DF81D309A4206D1BE
:107760009DF81C209DF81E102046FFF730FF9DF865
:107770001F209DF81C109DF81E3012F0400F0C4485
:1077800002D0607C9842CDD006B13170B9F1000FC3
:1077900003D09DF81D1089F80010B8F1000F01D03A
:1077A00088F8003007B13A706374BCE7704710B5D1
:1077B00004460430FFF734FB10B11E2384F8163161
:1077C00010BD10B50246002392F818418C4208D132
:1077D00092F81A412CB103EB430303F58C73184460
:1077E00010BD0133322B02F10302EDD10020F7E787
:1077F00037B50B78FF2B05460C4606D0194601928B
:10780000FFF7DFFF58B14378019A2146281DFFF7A3
:10781000F7FE002814BF0020052003B030BD022071
:10782000FBE710B501EB41030446C1F1310203F55A
:107830008C7003F21B1102EB42022144204405F03C
:10784000BFFD002384F8AD3110BD38B50A460023D2
:1078500000F58C7403EB4305D9B2655D954203D105
:10786000FFF7DFFF012038BD0133322BF2D10020BA
:10787000F9E70021FFF7D5BFF8B516461F460446C5
:107880000D46002300F58C7203EB4300115CA94206
:1078900005D1204480F8196180F81A71F8BD0133D0
:1078A000322BF1D1002304F58D7203EB4300115C00
:1078B00019B9204480F81851ECE70133322BF4D188
:1078C0002046FFF7D6FF204604F1960390F81A21D0
:1078D0002AB980F8185180F8196180F81A710330BC
:1078E0009842F3D1DAE700F19603002280F81A21DA
:1078F00003309842FAD1704710B504460430FFF7C0
:1079000053FE054B23604FF48F732046A4F81631C5
:10791000FFF7E9FF204610BDD4E40B002DE9F34743
:107920000446406801911F4603689DF828A09B69A2
:107930009DF82C901646984706F1050880451CD8FE
:10794000104D019985F801A00023AB7094F8153112
:10795000EB705A1C84F81521681D32462F7085F88B
:10796000049005F02DFD23685B685FFA88F22946D4
:10797000204602B0BDE8F0471847012002B0BDE83C
:10798000F08700BF02E5032013B59DF81040019475
:10799000047A0094FFF7C2FF02B010BD2DE9F04F4A
:1079A00087B01F46FF238DF813300DF117030293A4
:1079B000DFF8D0900DF1160301930DF1150300933C
:1079C00004468846164605AB0DF1130249460430BD
:1079D000DDE910BAFFF797FE054608B9002538E043
:1079E00023689DF813201B6849462046984799F85C
:1079F0000030227A9A4201D0FF2B2ED117B1214BB1
:107A00005B783B70BBF1000F03D01E4B1B788BF8EB
:107A10000030BAF1000F03D01A4BDB788AF800303F
:107A2000129B1BB1174B129A1B791370139B1BB13E
:107A3000144B139A9B7813709DF8133032781249C7
:107A4000053BDBB29A4288BF33703278404605F07E
:107A5000B7FC284607B0BDE8F08F99F802305A1CF1
:107A600089F8022094F816219A42B7D994F8173170
:107A7000002BB3D023689DF813205B68494620464D
:107A80009847ABE702E5032007E5032010B504465D
:107A9000006A0368DB68984794F82400FF2802D046
:107AA000012103F09FFD23682046DB6F9847642087
:107AB00001F06EF8012010BD90F82400002103F0C1
:107AC000A2BD90F82400012103F09DBD70B50446CD
:107AD0000D461646FFF77EFA034B2360266284F8B4
:107AE0002450204670BD00BFE4E40B0038B50446C6
:107AF000006A03681B6A0D469847236820469B6FFF
:107B00009847206A036805F07F011B689847206A40
:107B1000036800211B68984723680546DB6F2046F1
:107B20009847206A03685B6A9847284638BD70B555
:107B30000446006A03681B6A16460D469847236888
:107B400020469B6F9847206A036845F080011B68B8
:107B500098470546206A036831461B68984701200C
:107B600000F0A2FC23682046DB6F9847206A036878
:107B70005B6A9847284670BDF8B50446006A1E4601
:107B800003681B6A0F4615469847236820469B6F7B
:107B90009847206A036807F07F011B6898472E44C6
:107BA0000746B54207D0206A036800211B68984742
:107BB00005F8010BF5E723682046DB6F9847206A3C
:107BC00003685B6A98473846F8BDF8B50446006A12
:107BD0001E4603681B6A0F461546984723682046D1
:107BE0009B6F9847206A036847F080011B6898479D
:107BF0002E440746B54206D0206A15F8011B0368DB
:107C00001B689847F6E723682046DB6F9847206A91
:107C100003685B6A98473846F8BD006A03689B6A48
:107C2000184701207047FB207047704710B5037953
:107C3000052B044610D003680521D3F880309847FF
:107C4000072201212046FFF772FF802240212046B3
:107C5000FFF76DFF052323712379052BFCD0207ED0
:107C600010BD10B54FF498710446FCF718FA204681
:107C700010BD10B50379012B04460BD00368012118
:107C8000D3F880309847002201212046FFF74FFFAC
:107C900001232371012010BDF8B50368DB68044699
:107CA0000F46154698470646B0B187B17DB194F8A6
:107CB00028302A78033B9342DEBF94F82830043BF7
:107CC0002B702A7804F12D01384605F079FB00234A
:107CD00084F8283184F828303046F8BD142938B5A6
:107CE00005460C4614DC012914DD112913DD072299
:107CF0004D212846FFF71BFF033C64B2A21E62F031
:107D00007F022846D2B2BDE838400921FFF70FBFF5
:107D10001424ECE7022404224D212846FFF707FF34
:107D2000ECE7000038B5044615461A46FFF7CEFECC
:107D3000094B2360FF22002384F82720012284F8C6
:107D4000283184F82C3184F8265084F82B2184F8CB
:107D50002530204638BD00BF7CE50B0090F8283068
:107D6000032B1BD990F82930C37190F82A30037285
:107D700090F82B30437290F82C308372837933B9AA
:107D8000C37942799A4202D0C379FF2B06D1838A04
:107D900001339BB28382012380F8283170470000B1
:107DA00038B504462DED028B10EE100AB0EE408A75
:107DB00004F014FF17A3D3E9002304F067FF17A30F
:107DC000D3E9002305F08CF805F038FA06210546C2
:107DD000C0F307422046FFF7AAFEC5F3072207219A
:107DE0002046FFF7A4FEEAB208212046FFF79FFED7
:107DF000DFED077AB4EEE78ABDEC028BF1EE10FA04
:107E0000ACBF01230023012084F8293138BD00BF15
:107E100000C042440000000080842E4100000000A9
:107E200080844E4010B50379022B04460BD00368C2
:107E30000221D3F880309847012211462046FFF7EF
:107E400076FE0223237110BD70B512210446FFF7A0
:107E50004DFE1C2105462046FFF748FEFF22064640
:107E600012212046FFF763FE2379042B07D115F07A
:107E7000A00F17D194F82B310BB1700612D52379CE
:107E8000042B01D1690622D42379032B01D12A07BF
:107E900068D42379052B0ED16B070CD505F00105AD
:107EA000257663E0638A01339BB26382002384F802
:107EB000283184F82830FF2212212046FFF737FEB0
:107EC0002046FF22BDE870401221FFF730BE13218B
:107ED0002046FFF70BFE102105462046FFF706FE61
:107EE0000D2102462046FFF722FE04F129022B460F
:107EF00000212046FFF740FE192184F82850204633
:107F0000FFF7F4FD40B20028B8BF0330801084F8BA
:107F10002A011A212046FFF7E9FD94F92A3100B21F
:107F2000002B2082A9BF238A228A1BB21B01B2BF69
:107F30009B180F2293FBF2F31BB2238294F8293192
:107F40006BB1238A9D3B1BB223822046FFF706FFBD
:107F500094F82831002BAED0FFF764FFABE7238AFB
:107F6000A43BF0E7E38A01339BB2E3822046F3E7C8
:107F7000024B186808B1FFF767BF704704E603209B
:107F8000024B586808B1FFF75FBF704704E6032053
:107F9000024B986808B1FFF757BF704704E603200B
:107FA00010B50379042B044610D003680421D3F8DC
:107FB00080309847052201212046FFF7B8FD0022B6
:107FC00040212046FFF7B3FD0423237110BD10B5F7
:107FD0000379032B044605D0FFF7E2FF94F828014C
:107FE000C0B210BD0020FCE710B50379032B044696
:107FF00010D003680321D3F8803098470322012171
:108000002046FFF794FD402211462046FFF78FFDE2
:108010000323237110BDFB2AF8B504460F4615460D
:1080200002D900263046F8BD03681B6A98472046EF
:10803000FFF7F8FE23682046DB6A984706460028CB
:10804000EFD000220D212046FFF771FDE27A0021DA
:108050002046FFF76CFD227B00212046FFF767FDDD
:10806000627B00212046FFF762FDA27B00212046B3
:10807000FFF75DFD2B463A4600212046FFF7A5FDA0
:108080002A1DD2B222212046FFF751FD2046FFF7DC
:10809000ABFFC7E710B5044680F8252072B181F325
:1080A000040242F07002D2B20921FFF740FD2046DF
:1080B0000422BDE810404D21FFF739BDBDE8104056
:1080C000FFF70CBE38B50C4605460A781D21FFF7B0
:1080D0002EFD62781E212846FFF729FDA27828464A
:1080E0002621BDE83840FFF722BD0000052913B561
:1080F0000FD8094B01EB41015C185A5AA378ADF82F
:10810000042001A98DF80630FFF7DCFF012002B042
:1081100010BD0020FBE700BF64E50B0038B50A0A7C
:1081200005460C462021FFF702FDE2B22846212138
:10813000BDE83840FFF7FBBC73B50446FFF7A6FC6B
:10814000064618B90026304602B070BD94F8265095
:10815000FF2D54D029462046FFF75FFD80220121E4
:108160002046FFF7E4FC0A2000F012FD0121204622
:10817000FFF7BCFC8028E5D194F82600FF281CD02E
:10818000002103F02FFA94F82730FF2B07D1264A5D
:108190001378032BD6D8591C117084F8273094F823
:1081A0002720224B43F8224062BB214900924FF026
:1081B000FF330122A8B200F07DFF00220E212046ED
:1081C000FFF7B5FC00220F212046FFF7B0FC204648
:1081D000FFF728FE00212046FFF788FF08212046F0
:1081E000FFF79CFF9FED130A2046FFF7D9FD002300
:1081F00084F825300D212046FFF770FDA3E74FF0EE
:10820000FF35ABE7012A4FF0000304D100930A4980
:108210004FF0FF33CEE7022A94D1009307494FF085
:10822000FF330122C6E700BF01E6032004E6032076
:10823000717F0B000000D943817F0B00917F0B0001
:10824000704703685B68184710B58369044633B10B
:1082500031B1236820469B6898470023A36110BD75
:1082600000F02AF9A369C01AE3699842F1D2F6E74F
:1082700010B5C36904461BB100F01EF9A06110BD22
:108280000368BDE810409B68184700F0EDB810B5D2
:1082900004460430FDF788F92368E1685B692046ED
:1082A000984718B9236820469B6998476068FFF78C
:1082B000ECFF012010BD0000F0B521F00304184FC1
:1082C000184E194D0444A0420CD050F8043B7B4397
:1082D0004FEA734373435A404FEAF24202EB820281
:1082E0002A44F0E701F0030404440023A04204D030
:1082F00014F8015D45EA0323F8E7094843430948B8
:108300004FEA73434A4058435040084B80EA1040BC
:108310005843074B80EA5030584380EA1040F0BD84
:10832000512D9ECC9335871B646B54E66BCAEB854D
:1083300035AEB2C2F8B504460430FDF735F9A3688E
:1083400000229F689A60A668054AF1883046FFF7C8
:10835000B3FFB76005466068FFF797FF2846F8BD92
:108360003F2A1C8573B50D460446FFF7E3FF0B2D2E
:10837000064623D9A3682269196891421FD19988BA
:10838000A28A91421BD1D988AAB2914217D89A6881
:10839000824214D1E268AA4205D900215955E26807
:1083A0000135AA42FAD8D4E902322046DA80A5681B
:1083B000FFF7C0FFA860012002B070BD9DB1A168A9
:1083C0000A6892B188688B880190C9880848009132
:1083D0000849FDF77FFECDE90056A38A22690649C8
:1083E0000348FDF777FE0020E6E71046E4E700BF0C
:1083F00058E6032000E60B0031E60B0038B50446D2
:10840000C2688068002105F003F8A36822691A6039
:10841000A368A28A9A80D4E902322046DA80A5684D
:10842000FFF788FFA86038BD08B5024B1B685B6C7E
:10843000019308BD7402030008B5024B1B685B6C16
:10844000019308BD4802030008B5024B1B689B6CF2
:10845000019308BD4802030008B5024B1B68DB6CA2
:10846000019308BD4802030008B5024B1B685B6D11
:10847000019308BD4802030008B5024B1B685B6D01
:10848000019308BD3402030008B5024B1B685B6E04
:10849000019308BD3402030008B5024B1B685B68FA
:1084A000019308BD1802030008B5024B1B68DB6886
:1084B000019308BD1802030008B5024B1B685B69F5
:1084C000019308BD1802030008B5024B1B689B6DA1
:1084D000019308BD1802030008B5024B1B68DB6D51
:1084E000019308BD1802030008B5024B1B685B6EC0
:1084F000019308BD1802030008B5024B1B689B6E70
:10850000019308BD1802030008B5024B1B681B68E5
:10851000019308BD2C02030008B5024B1B685B6881
:10852000019308BD2C02030008B5024B1B689B6831
:10853000019308BD2C02030008B5024B1B68DB68E1
:10854000019308BD2C02030008B5024B1B681B6990
:10855000019308BD2C02030008B5024B1B685B6940
:10856000019308BD2C02030008B5024B1B689B69F0
:10857000019308BD2C02030008B5024B1B68DB69A0
:10858000019308BD2C02030008B5024B1B681B6B4E
:10859000019308BD2C02030008B5024B1B68DB6881
:1085A000019308BD2802030008B5024B1B689B69B4
:1085B000019308BD2802030008B5024B1B68DB6964
:1085C000019308BD2802030008B5024B1B681B6A13
:1085D000019308BD2802030008B5024B1B685B6AC3
:1085E000019308BD2802030008B5024B1B689B6A73
:1085F000019308BD2802030008B5024B1B68DB6A23
:10860000019308BD2802030008B5024B1B681B6BD1
:10861000019308BD2802030008B5024B1B685B6B81
:10862000019308BD2802030008B5024B1B681B6CB0
:10863000019308BD2802030008B5024B1B689B6C20
:10864000019308BD2802030008B5024B1B68DB6CD0
:10865000019308BD2802030008B5024B1B681B6D7F
:10866000019308BD2802030008B5024B1B685B6933
:10867000019308BD6402030008B5024B1B689B68A8
:10868000019308BD6802030008B5024B1B68DB6854
:10869000019308BD6802030008B5024B1B681B6804
:1086A000019308BD3002030008B5024B1B685B68EC
:1086B000019308BD3002030008B5024B1B685B69DB
:1086C000019308BD3002030008B5024B1B68DB694B
:1086D000019308BD3002030008B5024B1B681B6AFA
:1086E000019308BD3002030008B5024B1B685B6AAA
:1086F000019308BD3002030008B5024B1B68DB6B19
:10870000019308BD3002030008B5024B1B681B6CC7
:10871000019308BD3002030008B5024B1B685B6C77
:10872000019308BD3002030008B5024B1B689B682B
:10873000019308BD3C02030008B5024B1B68DB68CF
:10874000019308BD3C02030008B5024B1B681B697E
:10875000019308BD3C02030008B5024B1B685B692E
:10876000019308BD3C02030008B5024B1B689B69DE
:10877000019308BD3C02030008B5024B1B68DB698E
:10878000019308BD3C02030008B5024B1B681B6A3D
:10879000019308BD3C02030008B5024B1B689B6AAD
:1087A000019308BD3C02030008B5024B1B68DB6A5D
:1087B000019308BD3C02030008B5024B1B681B6C0B
:1087C000019308BD3C02030008B5024B1B681B68FF
:1087D000019308BD4C02030008B5024B1B685B689F
:1087E000019308BD4C02030008B5024B1B689B684F
:1087F000019308BD4C02030008B5024B1B681B69BE
:10880000019308BD4C02030008B5024B1B685B696D
:10881000019308BD4C02030008B5024B1B689B691D
:10882000019308BD4C02030008B5024B1B68DB69CD
:10883000019308BD4C02030008B5024B1B681B6A7C
:10884000019308BD4C02030008B5024B1B689B6AEC
:10885000019308BD4C02030008B5024B1B685B6B1B
:10886000019308BD6002030008B5024B1B681B6D35
:10887000019308BD6002030008B5024B1B685B6DE5
:10888000019308BD6002030008B5024B1B68DB6E54
:10889000019308BD6002030008B5024B1B681B6F03
:1088A000019308BD6002030008B5034B1B68D3F8B1
:1088B0009830019308BD00006002030008B5024B28
:1088C0001B681B68019308BD2002030008B5024B1A
:1088D0001B685B68019308BD2002030008B5024BCA
:1088E0001B685B69019308BD2002030008B5024BB9
:1088F0001B681B6A019308BD2002030008B5024BE8
:108900001B68DB6A019308BD2002030008B5024B17
:108910001B689B6D019308BD2002030008B5024B44
:108920001B68DB6D019308BD2002030008B5034BF3
:108930001B68D3F88830019308BD000020020300B3
:1089400008B5034B1B68D3F89430019308BD0000B1
:108950002002030008B5034B1B68D3F8A83001932D
:1089600008BD00002002030008B5034B1B68D3F8C4
:10897000AC30019308BD00002002030008B5034B92
:108980001B68D3F8B030019308BD0000200203003B
:1089900008B5024B1B689B68019308BD44020300A5
:1089A00008B5024B1B685B69019308BD44020300D4
:1089B00008B5024B1B68DB69019308BD4402030044
:1089C00008B5024B1B681B6B019308BD44020300F2
:1089D00008B5024B1B685B6B019308BD44020300A2
:1089E00008B5024B1B68DB6B019308BD4402030012
:1089F00008B5024B1B685B68019308BD4002030089
:108A000008B5024B1B689B68019308BD4002030038
:108A100008B5024B1B68DB68019308BD40020300E8
:108A200008B5024B1B681B69019308BD4002030097
:108A300008B5024B1B685B69019308BD4002030047
:108A400008B5024B1B689B69019308BD40020300F7
:108A500008B5024B1B68DB69019308BD40020300A7
:108A600008B5024B1B681B6A019308BD4002030056
:108A700008B5024B1B681B6B019308BD4002030045
:108A800008B5024B1B685B6B019308BD40020300F5
:108A900008B5024B1B681B6C019308BD4002030024
:108AA00008B5024B1B685B6C019308BD40020300D4
:108AB00008B5024B1B681B68019308BD1C0203002C
:108AC00008B5024B1B685B68019308BD1C020300DC
:108AD00008B5024B1B689B68019308BD1C0203008C
:108AE00008B5024B1B681B69019308BD1C020300FB
:108AF00008B5024B1B68DB69019308BD1C0203002B
:108B000008B5024B1B685B6A019308BD1C02030099
:108B100008B5024B1B68DB6A019308BD1C02030009
:108B200008B5024B1B68DB6B019308BD1C020300F8
:108B300008B5024B1B681B6C019308BD1C020300A7
:108B400008B5024B1B685B6C019308BD1C02030057
:108B500008B5024B1B689B6C019308BD1C02030007
:108B600008B5024B1B68DB6C019308BD1C020300B7
:108B700008B5024B1B681B6D019308BD1C02030066
:108B800008B5024B1B685B6D019308BD1C02030016
:108B90000021FFF7A3BE10B54368013B04464360C4
:108BA00063B903689B689847A368013BA3602BB92E
:108BB00023682046DB68BDE81040184710BD70B53B
:108BC000D0E90053044605EB0316AE4204D0284614
:108BD00002F008F81035F8E72068FFF771FF20462B
:108BE00070BD10B50446006808B1FFF7D4FF2046F9
:108BF00010BD0000024800230360FFF71DBC00BF4A
:108C000010E60320002240681146FFF709BF00224A
:108C100040681146FFF724BF002240681146FFF765
:108C20002FBF40680022FFF723BF4068002281F079
:108C30000101FFF70DBF002340681A461946FFF7F0
:108C4000FFBE002340681A461946FFF7F1BE002216
:108C500040681146FFF7D4BE406800220221FFF7AA
:108C6000D7BE002340681A46FFF7C2BE70B5134B4B
:108C700003601825303386B00E4643602A46002133
:108C80000446083004F0C4FB002270681146FFF768
:108C9000C7FE78B100212A46684604F0B9FB694650
:108CA0000020ADF80050FFF7BFFB18B96946204619
:108CB00000F0B8F8204606B070BD00BFCCE60B004F
:108CC000084B10B5282422461846002104F0A0FBCA
:108CD000054B04804FF0FF32426004225A60034A81
:108CE0001A6010BD1CE6032014E6032090E60B007A
:108CF0007047007B7047037B4BB10369B3F1004FB2
:108D000005D08069B0F1004018BF012070470020F5
:108D1000704703681B6A184770B503680D461B69E6
:108D2000064698470221284601F038FE2C210446C9
:108D3000284601F03DFD336804449B69304698475E
:108D40000221284601F02AFE204470BDA0F1040053
:108D5000FFF7E2BF10B520210446FBF7A0F920463B
:108D600010BD0000037B7BB14369002B0CDB07EED9
:108D7000903A9FED077AF8EEE77A87EE870ADFED03
:108D8000057A20EE270A7047BFEE000A704700BF41
:108D900000FF7F470000C842037B63B10369B3F162
:108DA000004F08D007EE903A9FED047AF8EEE77A8C
:108DB00087EE870A70479FED020A70470000C8429D
:108DC00000000000037B7BB1C369002B0CDB07EEC6
:108DD000903A9FED077AF8EEE77A87EE870ADFEDA3
:108DE000057A20EE270A7047BFEE000A704700BFE1
:108DF00000FF7F470000C842037B63B18369B3F182
:108E0000004F08D007EE903A9FED047AF8EEE77A2B
:108E100087EE870A70479FED020A70470000C8423C
:108E20000000000030B50D4600F108040FCD0FC45E
:108E300095E8030084E80300012030BD002240686B
:108E40001146FFF70DBE002240681146FFF718BE1D
:108E500040680022FFF70CBE4068002281F001014B
:108E6000FFF7F6BD002340681A461946FFF7E8BD34
:108E7000002340681A461946FFF7DABD0022406811
:108E80001146FFF7CDBD002240681146FFF7B8BD7F
:108E9000406800220221FFF7BBBD002340681A464C
:108EA000FFF7A6BD024B03225A60024A1A607047C0
:108EB00044E6032008E70B00006800F0E7B810B5AF
:108EC0000446016002710AB1FFF7F6FF204610BDAB
:108ED00013B50446019102F02BFC019A014620468D
:108EE000FFF7EDFF204602B010BD006800F0D7B8D4
:108EF0002DE9FF4104461D460F461646FFF7DCFFED
:108F000036220023CDE9002320684FF001080A2310
:108F10006946CDE9028300F09DF820680368394670
:108F20009B6898472068036831469B68984720688B
:108F3000036829469B6898474146206800F0A2F8DC
:108F4000002820460CBF00256FF09F05FFF7CDFFDE
:108F5000284604B0BDE8F08108B540220023062170
:108F6000FFF7C6FF00EAE07008BD7047F8B5064697
:108F700015460C468F18BC4206D0336814F8011B06
:108F80009B6830469847F6E72846F8BD007C0022EB
:108F9000FFF71ABB007C0021FFF71EBB007C0021FD
:108FA000FFF722BB007C0021FFF726BB007C0021DD
:108FB000FFF72ABB10B514210446FBF770F82046D2
:108FC00010BD000010B54FF47A7304460846002126
:108FD000C4E90113034B236020741146FFF724FBFF
:108FE000204610BD44E70B000023007C1A461946BA
:108FF000FFF7D2BA7FB500221423CDE90122ADF8E4
:1090000004300B788DF808304B680393CB680493D9
:10901000007C0B7A059301A9FFF71EFB07B05DF8F2
:1090200004FB1FB5003B8DF800104FF06401039165
:1090300018BF0123694601928DF80830FFF7DAFF67
:1090400005B05DF804FB007C0022FFF7ADBAC9B2A1
:10905000FFF7F9BF7FB50023CDE901334A680392DA
:109060001423CA68ADF804300B7804920A7A05928A
:10907000007C8DF8083001AA1946FFF795FA07B071
:109080005DF804FB007C0022FFF796BA08B50021CA
:10909000007CFFF7D1FAB0FA80F0400908BD08B5AE
:1090A0000021007CFFF7D0FAB0FA80F0400908BD3B
:1090B000004700002DE9FF4100241D460F46904661
:1090C0000646FFF759FAA5424FF00403ADF80D40EC
:1090D0008DF80C308DF80F40A2BF9DF828308DF828
:1090E0000E3003AC0749009443463A463046A8BFC9
:1090F0008DF80D50FFF738FAB0FA80F0400904B04F
:10910000BDE8F081B1900B00704710B518210446FE
:10911000FAF7C5FF204610BDF0B5037D062B8DB0D4
:109120000E4600F104074FF0000412D000F10805CC
:1091300015F8011D0A22304601F049FBAF420444F4
:1091400019D0002CF4D02E21304601F031FB04441C
:10915000EEE72F236A4639460A208DF80040FFF7D4
:1091600083FA684604F0F1F933680246DB68694621
:1091700030469847044620460DB0F0BD10B5054B6B
:109180000446112240F8043B002104F041F9204636
:1091900010BD00BF6CE70B000346074A10B543F84B
:1091A000042B01F1100251F8044B43F8044B914297
:1091B000F9D10A781A7010BD6CE70B0010B59DF854
:1091C000084044EA032343EA024242EA01610423DD
:1091D0004160037510BD000007B5064B0360CB78F6
:1091E00000938B784A780978FFF7E8FF03B05DF8C1
:1091F00004FB00BF6CE70B0000F11003012213F821
:10920000101C0129184608D153F8041C02EB410236
:10921000013A03F11003F2D17047022904BF53F859
:10922000041C5218F4E70EB4F0B588B000AF07F193
:109230003405102155F8042B7A6004462B46781823
:10924000FD60FFF75DFC0F287A681AD900F108036A
:1092500023F007036E46ADEB030D411C2B46684619
:10926000FD60FFF74DFC021E04DD236869469B6824
:1092700020469847B5462037BD46BDE8F04003B0CC
:1092800070470028F7D0236802469B6807F1100159
:1092900020469847EFE738B50B6803604D68436890
:1092A0009D42044608D015B16B6801336B6060685D
:1092B00008B1FFF770FC656038BD07B503688DF82D
:1092C00007109B6801220DF10701984703B05DF874
:1092D00004FB0B461146002210B5C0E900220446EB
:1092E00083600BB9204610BDFFF7D5FFFAE783680E
:1092F000EBB11A78032A1AD8DFE802F00417021B30
:109300000520704702685B685268D05C2D2812D037
:10931000A0F13003092B0ED974280ED066280CD08A
:10932000A0F16E0358425841704706207047002054
:10933000704704207047032070470220704710B523
:109340000446FFF7D4FF02280ED0C31EDBB2012B68
:1093500014D82268A36850685B68BDE810400A22F0
:109360000021184404F0B6B92268A36852685B680B
:10937000D05CA0F174035842584110BD0020FCE7B6
:1093800038B50023C0E9003304460E48C4E902039F
:10939000A9B10B78032B06D08BB9136858684B68BA
:1093A000C35C6E2B07D013684D6858688B682844DF
:1093B0005B1BA060E36011462046FFF76CFF204670
:1093C00038BD00BFD5E70B0038B500250B46C0E916
:1093D0000055C0E90255C0E90455044611464BB199
:1093E0001A78012A06D103F11002DB68826043611A
:1093F000FFF751FF204638BD10B54369044663B1FD
:109400008068E060013B1030A0602061636113B1AF
:10941000FFF7F2FEA060012000E0184610BD10B575
:109420007D210446FFF749FF01232371204610BD2B
:1094300008B50379012B02D0022B04D008BD2C21E2
:10944000FFF73BFFFAE73A21FAE710B50446FFF7CA
:10945000EFFF20467B21FFF730FF002323712046DA
:1094600010BD000013B504460191FFF7E1FF23682A
:10947000019ADB680349204698470123204623715F
:1094800002B010BD8FE10B0013B504460191FFF748
:10949000CFFF2368019ADB680349204698470123E0
:1094A0002046237102B010BD1AE10B002DE9F047F0
:1094B0000D46222190460446FFF7FFFEDFF8A490F8
:1094C000A8442F464745BA463DD017F8016B222ED7
:1094D00006D05C2E04D0304603F06AFF0028F1D19C
:1094E0002368AAEB05029B682946204698475C2121
:1094F0002046FFF7E2FE0D2E0AD8072E1CD9A6F152
:109500000803052B18D8DFE803F00D0F111713150A
:10951000222E01D05C2E0FD131462046FFF7CDFE22
:109520003D46CFE76221F8E77421F6E76E21F4E7C4
:109530006621F2E77221F0E723683246DB6849468C
:1095400020469847ECE7BD4205D023687A1B9B680C
:1095500029462046984722212046FFF7AEFEBDE867
:10956000F08700BF78E70B0013B50446CDE9002172
:10957000FFF75EFF2046DDE90021FFF797FF02239A
:109580002046237102B010BD13B50446CDE9002179
:10959000FFF74EFF2046DDE90021FFF787FF01239B
:1095A0002046237102B010BD80680368DB6818474D
:1095B0007047084611B10B685B68184770477047E1
:1095C00070477047704738B504460D4600682E2135
:1095D00003F09FFF2368C31A2B6023B1037803B104
:1095E000013023682060184638BD10B50C210446B0
:1095F000FAF755FD204610BD10B504210446FAF7D0
:109600004EFD204610BD10B504210446FAF747FD73
:10961000204610BDFEF720BF08B503F084FFB0FA66
:1096200080F0400908BD704710B50C4601F0DAFE25
:10963000844210D002F0BCF8844205D102F0B8F8A0
:10964000BDE8104001F067BE2CB1236820465B687E
:10965000BDE81040184710BD0B6803604B684360BD
:1096600013B15A6801325A60704713B50446084670
:10967000019103F06AFF01990246204602B0BDE85D
:109680001040FFF781BF13B504460846019103F06F
:109690005CFF23680199DB680246204602B0BDE802
:1096A0001040184707B503688DF80710DB680122E2
:1096B0000DF10701984703B05DF804FB0EB403B544
:1096C00003AB002153F8042B006A019301F075F9F4
:1096D00002B05DF804EB03B070470A6802604A68A4
:1096E00042600022C0E9022210B502618C688460E9
:1096F000CC68C4600C698A60CA6004610A6110BDEC
:109700002DE9F74FD0E900844FF0140A00930AFBCB
:1097100004F4184BA41017465C434546002C21DD89
:1097200066100AFB06F005EB00093A46B9F804B0EA
:10973000285801915F4528BF5A4603F00EFF0028C4
:1097400001994FF001030BD15F4503D1009A1370CB
:109750003446E3E7FCD9A61B09F11405013EF7E7FF
:10976000F9DBF5E7A5EB08050248AD10684303B047
:10977000BDE8F08FCDCCCCCC7FB50369057E0191DF
:1097800003B3F9B1002600F10C04039603A901A864
:10979000FFF719FF0146A8B10DF10B03039A8DF8ED
:1097A0000B602046FFF7ACFF9DF80B3053B12368E8
:1097B000142404FB0034083434F9023C002BA8BF05
:1097C000DDB2E3E7284604B070BD000010B5094CD7
:1097D0002378BFF35B8FDB0709D42046FAF76EFCD2
:1097E00028B12046FAF76FFC034803F0BDFD03489B
:1097F00010BD00BF50E60320BF950B00D0DE032054
:1098000010B5094C2378BFF35B8FDB0709D42046E2
:10981000FAF754FC28B12046FAF755FC034803F048
:10982000A3FD034810BD00BF54E6032027960B009C
:10983000D4DE032038B500250446C0E90055C0E950
:1098400004558560856140F8245FFEF7F5FDFFF75C
:10985000BDFFE061FFF7D4FF25732062204638BDCD
:1098600010B50A4C2378BFF35B8FDB070CD420467E
:10987000FAF724FC40B10648FFF7DCFF2046FAF770
:1098800022FC044803F070FD014810BD4CE60320A3
:109890005CE60320B59D0B00024A03490348002300
:1098A000FEF7FABF999B0B00259B0B00A59A0B00B6
:1098B00000231A4619461846FEF7EEBF37B58D68E5
:1098C00004466846FFF7C8FE6A4629462046FFF769
:1098D0007BFD01A8FFF785F9204603B030BD37B501
:1098E000CD6804466846FFF7B7FE6A46294620461B
:1098F000FFF746FD01A8FFF774F9204603B030BD1D
:1099000037B50D6904466846FFF7A6FE6A46294644
:109910002046FFF7DEFC01A8FFF763F9204603B0FD
:1099200030BD000070B58AB00D46014604A8FFF7AF
:10993000C5FF144E04A8FFF75FFDE8B104A968460F
:10994000FFF7CDFF02983146FFF766FE044610B1DF
:109950002C1E18BF012401A8FFF743F9002CE9D001
:1099600004A96846FFF7CCFF6846FFF7E8FC2860CB
:1099700001A8FFF736F9DDE705A8FFF732F90AB0CD
:1099800070BD00BF7EE70B0037B50C46204613497B
:10999000154603F0C8FD50B901F024FD4FF41651EF
:1099A00001F00EFD03B0BDE8304001F01BBD0C49D5
:1099B000204603F0B8FD78B94FF4165301A92846A4
:1099C0000193FFF7AFFF01F0F3FE019901F0A0FC56
:1099D00001F0EEFE03B030BD0020FBE783E70B0093
:1099E0008AE70B0070B5D0E900531426044606FB45
:1099F0000356AE4205D005F10800FFF7F3FF14351A
:109A0000F7E72068FFF75CF8204670BD10B5044604
:109A10000C30FFF7E7FF2046FFF7D1F8204610BDD6
:109A200010B5044B044640F8043BFFF7EFFF204617
:109A300010BD00BF0CDA0B0010B50446FFF7F0FFB5
:109A400020462421FAF72BFB204610BD10B5034B0E
:109A500003600446FFF7E4FF204610BD24E80B0036
:109A600010B50446FFF7F2FF20462421FAF717FB52
:109A7000204610BD0022C0E9002210B582600C68AB
:109A800004604C6844608C680A604A6084608A6044
:109A900010BD10B5036804461868FEF7E5FC2046C3
:109AA00010BD00002DE9F04F87B0804603931C4B9A
:109AB0005B68C3F30803894616466BB9FFF7D0FE0F
:109AC000044600F12403406A0593FFF7A3FD237BBE
:109AD0002BB105A8FFF7DDFF07B0BDE8F08F01232C
