:02000002B0004C
:1040000000400B0068D80B00000006000D00050200
:084010000401A30F00000000F1
:0440180060C30B0076
:1040200009480A49884208B505D0094A824202D0A7
:10403000121A07F09BFF0748074A0021121A07F0DF
:10404000BDFF014808BD00BF74DD032078D60B001A
:1040500038DF032038DF0320EDE7032070B5074E7B
:10406000074C07F0E3F8A41BA4080025AC4200D1DC
:1040700070BD56F8043B98470135F7E70CD60B00A6
:1040800048D60B0000F08AB808B500F0B3F9BDE8D7
:10409000084007F083B804F0CBBB04F0C9BB04F0C0
:1040A000CFBB000008B5034A03490C2004F09CFA7A
:1040B000FEE700BF39820B0074C30B000078B0FA32
:1040C00080F040097047012303707047014B0122C3
:1040D0001A7070478BDF032010B5084C23782BB182
:1040E000074B01221A700023237010BD00F0BCFFA3
:1040F00001F053F90028F3D10123F5E740DF032055
:1041000089DF0320F8B5037D05460F4616468BB1BF
:104110000368DB6883B19A88012A06D09B68F9E7B7
:104120009B684BB19A88012AFAD12BB19A89BA427D
:10413000F6D19E732846F8BD0A49102007F008FA08
:10414000044668B11022002107F038FF064B2360B7
:104150000123A3802B69A360A781A6732C61E9E7E3
:104160002875E7E7E8D30B00100003000EB400B594
:104170008CB00DAA4FF0200C52F8041B0392CDE92D
:1041800000120023016804AA1E20CDE904C304F034
:104190003BFA0CB05DF804EB03B0704730B500207B
:1041A00085B004F061F842F210750446002004F076
:1041B0005BF8001B61F10001A84271F1000307D216
:1041C00006F0A4FF06F097FF10B904F0A9FAEDE796
:1041D00006F09CFF06F08FFF01F0A8F901F0D2F97C
:1041E00000F092FF03681B68984700F03DFF0368EA
:1041F0001B689847424808230121438102F010FBC5
:104200007C213F4801F07AFE06F0AAFE044600F049
:104210007BFF01F007F906F071FD844201D001F047
:1042200039F900F02FFB002100F03EFB002842D1BD
:1042300000F06AFF032101F093F800F065FF0446E7
:1042400006F07DFE0246C317204601F01EF900F07D
:104250005BFF01F04AF82B4902462B48FFF786FF27
:1042600001F090FC29482A49008800244FF0FF33D0
:104270000122009404F0D6FD2648274900880094C6
:104280004FF0FF33224604F0CDFD244B1A780AB9D3
:1042900002221A7000F038FF01F027F82049024688
:1042A0001948FFF763FF1F4B1888002105B0BDE8D0
:1042B000304007F054B806F025FE28B900F024FF7E
:1042C000022101F04DF8CBE700F0CEFE00F092FFA6
:1042D0000928C5D800F018FF012101F041F800F0CD
:1042E00013FF00F091FF039000F00EFF00F0FDFFC0
:1042F000039A0D4903460448FFF738FFB0E700BFB3
:1043000044DF032089C30B0058E60320B0C90B002B
:10431000D9400B00AEC90B00CD400B008ADF032053
:104320000EC40B00ACC90B00C7C30B0070B5134E15
:10433000134C3278134D022AC2B017D106F0E2FDB9
:1043400032782B7804EB0212009204EB031398B935
:104350000D4A4FF4807102A804F08AFA33780B48B2
:104360002B7002A9FFF702FF42B070BD2B7804EB5F
:104370000212009204EB0313054AEAE78ADF0320E6
:1043800074DD032088DF03203FC40B0058E60320C0
:104390005FC40B0030B585B000F066FE00F02FFF63
:1043A000054606F0AFFD0446D8B106F0C8FD3C2432
:1043B0006543B0FBF5F404FB15002C1AAC4228BF92
:1043C0002C4606F0BCFD0246C317684606F0B2FC58
:1043D0000648009A06492346FFF7C8FE684606F0DD
:1043E000B9FA04F10A0005B030BD00BF58E6032059
:1043F0006DC40B002DE9F047B84D2B78013B8AB016
:10440000032B12D8DFE813F0200104002A00DF009C
:10441000B34B1B78022B01D0FFF788FF00F074FE2E
:1044200000F063FFC0B101232B70AE4802F012F917
:1044300000F06AFE00F078FE00F016FE00F03CFE90
:10444000A94B1A78002A00F0D38100221A700AB012
:10445000BDE8F04701F084BA0423E5E7A04B1B78E0
:10446000032B01D0FFF762FF00219E4801F046FDBB
:10447000FFF790FF074606F045FD0446002835D0BB
:1044800006F05DFDC219D31706A806F053FC069B83
:10449000964997483A46FFF769FE14B106A806F018
:1044A00059FA944B197D02222A7001B11A72924B6B
:1044B0009048B3F8009000224946FFF723FE8F4B47
:1044C000B3F800A001225146FFF71CFE037D06460B
:1044D00013B303684FF47A78DB6808FB07F83BB145
:1044E0009A88042A00F081819B68F8E7844BCFE723
:1044F0008449102007F02CF80446002800F073814E
:104500001022002107F05AFD7F4B23600423A38073
:104510003369C4E902383461764903A806F026FB02
:104520004FF0FF316F4801F0E9FC002003F09CFEE2
:1045300042F210760446002003F096FE001B61F163
:104540000001B04271F1000307D206F0DFFD06F072
:10455000D2FD10B904F0E4F8EDE706F0D7FD06F05F
:10456000CAFD039B33B39A88012A23D19B899945BD
:1045700023D1042365495E482B70FFF7F7FD06F051
:10458000DEFCC219D31706A806F0D4FB069A0192E6
:1045900006F04CFB019A5E4903465548FFF7E6FDDD
:1045A00006A806F0D7F9039800283FF43EAF04F0C0
:1045B00047F93AE74FF6FF73D9E79A4502BF4A4BEE
:1045C00001221A70DBE7464B1B78042B17D0FFF74C
:1045D000ADFE00F057F900F0D7F901F0D3FA06F07C
:1045E000AEFC4C4BC217C3E9000200F04BF900F0DF
:1045F000E1F920B948493E48FFF7B8FD15E703F057
:1046000023FE41F28736044603F01EFE001BB04233
:1046100014D800F037F900F07BFB0028F4D000F04C
:1046200073FD002100F02FFE00F01EFD044606F091
:1046300086FC0246C317204600F01DFF00F022F959
:1046400000F0B2F90323EFE6254B1B78012B01D0D4
:10465000FFF76CFE00F058FD00F047FE02285DD029
:10466000032800F09680012840F0BB8000F00AF992
:1046700000F0BEFA002800F0868003F0E5FD254F2B
:10468000064640F6B73803F0DFFD801B40457AD878
:1046900000F0F8F800F03CFB0028F4D006F04FFCE6
:1046A000C317C7E9000300F0DFFC044606F047FC2F
:1046B0000246C317204600F0DEFE00F025FD04464A
:1046C00006F03DFC0246C317204600F0DEFE00F077
:1046D0001BFD002100F044FED5E700BF8ADF032068
:1046E00088DF032044DF032089DF032099C40B0007
:1046F00058E6032064DF0320AEC90B00B0C90B00ED
:10470000B8CA0B00E8D30B0010000300C2C40B00B2
:10471000E5C40B0080DF032006C50B0000F0B2F8F3
:1047200000F082FB78B303F08FFD334F064640F66E
:10473000B73803F089FD801B404524D800F0A2F86B
:1047400000F0E6FA0028F4D006F0F9FBC317C7E939
:10475000000300F089FC044606F0F1FB0246C31793
:10476000204600F088FE00F0CFFC044606F0E7FB90
:104770000246C317204600F088FE00F0C5FC002169
:1047800000F0EEFDD5E700F07DF800F00DF9022312
:104790004AE61A4C1A4D2378BFF35B8F13F0010FD2
:1047A00009D12046FFF78AFC28B103F04DFD2860AF
:1047B0002046FFF788FC03F047FD2B68C01A47F23C
:1047C000305398427FF631AE0E490F48FFF7CEFCCA
:1047D0004FF4FA6004F09CF81E210C4801F0E8FC4C
:1047E00023E60B4907E7307596E6C3F80C8093E69D
:1047F0000AB0BDE8F08700BF80DF032038DF032068
:104800003CDF03201AC50B0058E6032044DF0320D9
:104810002BC50B0008B506F03BFD00231A461946D0
:1048200006F046FD06F034FD00231A460D2106F081
:1048300037FD0C4B1A1D1A600B4A5A600022C3E95F
:1048400002221A6101221A7506F0FAFD6922014658
:10485000064801F055FA06F072FB054BC217C3E992
:10486000000208BD64DF03201000030044DF0320C2
:1048700080DF0320704710B504210446FFF70FFCCA
:10488000204610BD10B5064C236833B90420FFF74D
:1048900002FC08B1034B03602060206810BD00BF1C
:1048A00090DF0320D8C80B007FB530480D4602F0DA
:1048B0003EFE044630B92E492E48FFF757FC2046ED
:1048C00004B070BD9FED2C0A2C4803F031F9002292
:1048D00017212A4803F0A6FA00F0C6FB00F0F1FC0D
:1048E000802822D000F0C0FB00F097FD05F063FFA8
:1048F00000F0BAFB4FF6FF710646012005F051FFAC
:1049000081B2304600F0ADFC65BB00F0ADFBFF218D
:1049100005460A2005F045FF81B2284600F0A7FCB5
:1049200000F0A2FB802100F003FD00F09DFB00F0F1
:1049300061FCC1B2124802F026F9114802F009F9EF
:10494000039000F091FB00F050FC029000F08CFB13
:1049500000F0B7FCDDE9023200900A490548FFF794
:1049600005FCACE700F080FB0021D7E7CCE1032099
:1049700041C50B0058E6032000C064449CE00320BE
:10498000D0E103204DC50B0010B5064CC0B00DF1B1
:10499000030201A9204603F063F80028F7D140B0D4
:1049A00010BD00BF9CE00320014803F022B800BF07
:1049B0009CE00320804B2DE9F74FB3F800A07F4F18
:1049C0007F4E804C0121504606F0C9FC3A7833688E
:1049D0007D497E4801320133D2B23A703360FFF72D
:1049E000C5FB00F041FB00F000FC000A207000F065
:1049F0003BFB00F0FAFB607000F036FB00F0FAFBC6
:104A0000000AA07000F030FB00F0F4FB0125E0701C
:104A1000257100F079FB00F0FCFB000A607100F0EA
:104A200073FB00F0F6FBA07100F06EFB00F0F6FBEC
:104A3000000AE07100F068FB00F0F0FB207200F06B
:104A400063FB00F048FC607200F05EFB00F078FB56
:104A500051EC100B07F018FAA07200F055FB00F0B3
:104A60003FFCE07200F000FB00F030FC6573207347
:104A7000574802F006F90012A073554802F001F9F8
:104A80003B7823740323E073214600935148524F2F
:104A90000023112202F010FB044648BB3B682B4464
:104AA0003B6000F0E1FA00F0A5FB8346386806F0B1
:104AB000A9FE80463068894606F0A4FE02460B46F1
:104AC0004046494607F032F8444B002206F004FF06
:104AD0002346CDE900015A4641493C48FFF746FBD1
:104AE0005046214606F03BFC284603B0BDE8F08F57
:104AF000022824D100F0B8FA00F07CFB04463868A4
:104B000006F080FE80463068894606F07BFE02464D
:104B10000B464046494607F009F8304B002206F0A4
:104B2000DBFECDE900012F49002322462748FFF78D
:104B30001DFB5046002106F012FC0020D5E7052899
:104B40001CD100F091FA00F055FB0446386806F0DD
:104B500059FE80463068894606F054FE02460B46F0
:104B60004046494606F0E2FF1C4B002206F0B4FE28
:104B70000023CDE9000122461B49D7E700F074FA73
:104B800000F038FB0446386806F03CFE804630688A
:104B9000894606F037FE02460B464046494606F077
:104BA000C5FF0E4B002206F097FE0023CDE9000161
:104BB00022460E49BAE700BFACC90B0094DF0320C0
:104BC0009CDF0320A0DF0320A4C50B0058E60320D0
:104BD0009CE00320CCE1032098DF03200000594033
:104BE000C6C50B0011C60B0061C60B00BAC60B0090
:104BF0002B4B73B51E882B4C0121304606F0AFFBC2
:104C000000F032FA00F0F1FA000A207000F02CFAFD
:104C100000F0EBFA607000F027FA00F0EBFA000AFF
:104C2000A07000F021FA00F0E5FAE07000F01CFA44
:104C300000F047FB20711C4802F023F8001260715D
:104C4000194802F01EF8A07100F00EFA00F0D2FA36
:104C50001649174A0125092898BF0A4615491648DA
:104C6000FFF784FA2146154800950023072202F039
:104C700023FA044650B912490F48FFF777FA304635
:104C8000214606F06CFB284602B070BD0D490A486B
:104C9000FFF76CFA3046002106F061FB0020F3E7D5
:104CA000ACC90B00A0DF03209CE0032023C70B004E
:104CB0003AC70B004FC70B0058E60320CCE1032096
:104CC0006FC70B0098C70B0010B500F0CDF900F0CE
:104CD00091FA09280BD80B4C2378802B07D100F0D0
:104CE000C3F9B4F8071049BA89B200F0C0FA00F06D
:104CF000BBF900F07FFA044902460448FFF736FA90
:104D0000012010BDA0DF0320BBC70B0058E6032025
:104D100070B58CB0F9238DF81A300DF11F03039391
:104D20000DF11E030293364E36480DF11D0301931B
:104D300007AB00930DF11A020DF11B03314602F08F
:104D4000EFF9044618B9002420460CB070BD9DF858
:104D50001A302D4D2D480022F2549DF81E309DF83A
:104D60001B202B70059201F08CFF2949059A034600
:104D7000287801EB0011009126482749FFF7F6F942
:104D8000D6F8010000BAC11705F0C0FF00F06CF9B9
:104D9000B6F8051049BA89B200F06FFA06F0CFF8FC
:104DA000C317024608A805F0C5FF089A059200F04F
:104DB0005BF900F024FA059A184903461548FFF7F5
:104DC000D5F908A805F0C6FD2B78042B06D1FFF70E
:104DD00059FD13490F48FFF7C9F9B5E7022B06D073
:104DE0002B78062BAFD1FFF74DFD0E49F2E7FFF709
:104DF00049FDFFF769FF0028F2D00446A4E700BF91
:104E0000A0DF0320CCE103208CDF03209CE0032003
:104E100004DE032058E60320EBC70B001DC80B007F
:104E20000AC70B0050C80B00304B73B51E88304CBE
:104E30000121304606F093FA00F016F900F0D5F99A
:104E4000000A207000F010F900F0CFF9607000F057
:104E50000BF900F0CFF9000AA07000F005F900F09E
:104E6000C9F9E07000F050F9002500F03EFA257114
:104E700006F065F80016607106F061F80014A07184
:104E800006F05DF80012E07106F059F8207219483A
:104E900001F0F7FE00126072164801F0F2FE0523E1
:104EA000A0722146009314482B460B2202F004F90D
:104EB000044680B900F028F900F017FA0F490246BD
:104EC00023460F48FFF752F93046214606F047FACD
:104ED000012002B070BD0B490948FFF747F9304681
:104EE000294606F03CFA2846F3E700BFACC90B00A0
:104EF000A0DF03209CE00320CCE103206AC80B0064
:104F000058E60320A2C80B0010B5084A084C09490E
:104F100012780978084B204602F0CCFD214607485C
:104F2000BDE81040002202F0BDB800BFB4C90B00BC
:104F30009CE00320B2C90B00F0E30320CCE1032086
:104F400010B5044B03600446406808B103F044F90F
:104F5000204610BDE8D00B0010B50446FFF7F0FF67
:104F600020467821FFF79BF8204610BD10B5034B73
:104F70000360044601F0DAFC204610BD0CC90B00AA
:104F800010B50446FFF7F2FF20461021FFF787F81F
:104F9000204610BD10B5044B03600446406808B1BC
:104FA00003F01AF9204610BDE8D00B0010B50446F6
:104FB000FFF7F0FF20467021FFF771F8204610BD83
:104FC00010B5036804460BB903F0FEF82068BDE88D
:104FD000104003F009B938B504460430FFF7F0FF7C
:104FE000206A616A0368DD68D4E90223A847606823
:104FF000BDE8384003F000B938B504460430FFF787
:10500000DFFF206A616A03689D68D4E90223A8472C
:10501000A2682368D1885B692046984718B923683D
:1050200020469B699847606803F0E6F8012038BD88
:1050300000F12801816009494FF0480CC0E903C123
:10504000012181824FF47A71C16105490022C0E9D2
:10505000081242608261034A02607047739EA92071
:1050600088E3032028C90B0010B5064C23683BB920
:105070007020FFF710F8034608B1FFF7D9FF23604F
:10508000206810BD80E3032008B5006A01F064FCCD
:10509000FFF7EAFF03685B689847BDE8084000F047
:1050A000A9BA10B5006A01F057FCFFF7DDFF0368ED
:1050B000BDE810405B68184710B5FFF7D5FF0368DF
:1050C000BDE81040DB68002118470000002200F115
:1050D0002801426082614FF47A728160C26107499F
:1050E000074A02624FF0500C3222C0E903C142620B
:1050F0000121044A81820260704700BF739EA9208B
:1051000088E3032054C90B0010B5064C23683BB953
:105110007820FEF7C0FF034608B1FFF7D7FF2360F2
:10512000206810BD84E3032010B5FFF79DFF0368DE
:10513000BDE81040DB6800211847000000000000B7
:1051400010B504462DED028B0430FFF739FFE368FC
:10515000083B172B0CD9A36893ED068B606803F00E
:105160004BF8B0EE480AF0EE680ABDEC028B10BDB9
:105170009FED018BF2E700BF00000000000000007F
:10518000F8B50446043057EC106BFFF719FFE368DD
:10519000083B172B12D9A5683046D5E906233946B6
:1051A00006F002FE50B9C5E906672046A56802F080
:1051B00089FFA860236820461B6998476068BDE89E
:1051C000F84003F019B838B5044604300D46FFF72F
:1051D000F7FEE3686068023BAB4226BFA3685D5BF5
:1051E000002503F009F8284638BD08B51021FFF75F
:1051F000EAFF08BD08B51221FFF7E5FF08BD08B5B5
:105200003221FFF7E0FF08BD08B51221FFF7DBFFF1
:1052100008BD08B54021FFF7D6FF08BD08B54221FB
:10522000FFF7D1FF08BD70B5044604300D461646A1
:10523000FFF7C6FEE368023BAB420DD3A3685A5B9F
:10524000B24209D05E532046A56802F03BFFA86039
:10525000236820461B6998476068BDE8704002F0EB
:10526000CBBF08B50A461021FFF7DDFF08BD08B522
:105270000A461221FFF7D7FF08BD08B50A463221BA
:10528000FFF7D1FF08BD08B50A464021FFF7CBFF65
:1052900008BD08B50A464221FFF7C5FF08BD38B56D
:1052A000044604300D46FFF78BFEE3686068013B5F
:1052B000AB4226BFA3685D5D002502F09DFF284636
:1052C00038BD08B51421FFF7EAFF08BD08B518215D
:1052D000FFF7E5FF08BD08B51421FFF7E0FF08BDA3
:1052E00008B52021FFF7DBFF08BD08B54421FFF713
:1052F000D6FF08BD70B5044604300D461646FFF7CC
:105300005FFEE368013BAB420DD3A3685A5DB24236
:1053100009D05E552046A56802F0D4FEA860236837
:1053200020461B6998476068BDE8704002F064BF82
:1053300008B50A461421FFF7DDFF08BD08B50A4687
:105340001821FFF7D7FF08BD08B50A461421FFF75B
:10535000D1FF08BD08B50A462021FFF7CBFF08BDE5
:1053600008B50A464421FFF7C5FF08BD38B5044615
:1053700004300D46FFF724FEE3686068013BAB4252
:1053800026BFA3685D5D002502F036FF284638BDC4
:1053900008B51721FFF7EAFF08BD08B54021FFF760
:1053A000E5FF08BD70B5044604300D461646FFF70C
:1053B00007FEE368013BAB420DD3A3685A5DB242DE
:1053C00009D05E552046A56802F07CFEA8602368DF
:1053D00020461B6998476068BDE8704002F00CBF2A
:1053E00008B50A464021FFF7DDFF08BDF8B50446C1
:1053F00004300D46FFF7E4FDE3686068083BAB420C
:1054000023BFA1684919D1E90067002638BF0027EA
:1054100002F0F2FE30463946F8BD08B52821FFF704
:10542000E5FF08BD08B53821FFF7E0FF08BDF8B576
:10543000044604300D461E461746FFF7C1FDE368DB
:10544000083BAB4212D3A3685A1958595168B1426C
:1054500008BFB8420AD05F5120465660A56802F0E6
:1054600031FEA860236820461B6998476068BDE844
:10547000F84002F0C1BE08B52821FFF7D8FF08BDEB
:1054800008B53821FFF7D3FF08BD08B54821FFF75D
:10549000CEFF08BD10B517491748FEF767FEFFF7A6
:1054A00033FE0021FFF7F5FEFFF72EFE0021FFF788
:1054B000EAFEFFF729FE044605F041FD0246C31748
:1054C0002046FFF7DDFFFFF71FFE0021FFF748FF33
:1054D000FFF71AFE044605F032FD0246C3172046C8
:1054E000FFF7D3FFFFF7C0FDBDE810400021FFF735
:1054F00025BF00BFE0C80B0058E60320084B01227F
:1055000010B51A7005F09CFF064C014600234FF4BD
:105510000052204601F016FA034B236010BD00BF75
:105520007CE3032088E303200CC90B0008B5134972
:105530001348FEF71BFE0221042005F0FFFE0021A8
:10554000082005F0FBFE0121072005F0F7FE0021F1
:10555000122005F0F3FE0121112005F0EFFE0121DC
:10556000102005F0EBFE0021102005F0F8FE0021D0
:10557000112005F0F4FE012008BD00BF78C90B0022
:1055800058E6032010B51849184890B02024FEF7BB
:10559000EDFD22460021684606F010FD224600215E
:1055A0000DEB04008DF8054006F008FD00210DEB21
:1055B00004008DF8254003F095F841F2D833ADF89A
:1055C00006300B4B029341F27003ADF80C30009B98
:1055D000002143F400736846009303F083F8003819
:1055E00018BF012010B010BD91C90B0058E6032070
:1055F0008403840308B505490548FEF7B7FDFFF7A6
:1056000033FDBDE808400121FFF7EABEB8C90B0031
:1056100058E603207047006A0368DB6818470000FB
:105620000A4B10B50446036003F0D2FF214604F094
:105630000AFA05F06BFD05F05BFD2046044B40F8CF
:10564000043B04F09BF8204610BD00BFF4C90B00DA
:10565000DCC90B0010B50446FFF7E2FF2046242109
:10566000FEF71DFD204610BD38B5046805467CB127
:105670006368013B63605BB9236820469B68984779
:10568000A368013BA3601BB923682046DB689847E9
:10569000284638BD70B5D0E900531426044606FBF1
:1056A0000356AE4204D0284605F054F91435F8E705
:1056B000206803F0C5F8204670BD8842F8B504465E
:1056C0000D46164616D9904215D2A2F11406751A47
:1056D000A1F114072C44B7421CD02CB1314620460E
:1056E00005F0B4F9337C2374304605F033F9143EE9
:1056F000143CF0E70ED0B5420CD02CB12946204620
:1057000005F0A4F92B7C2374284605F023F9143501
:105710001434F0E7F8BD2DE9F0410023C0E900336F
:1057200083604F689F4204460E4623DD4FF0140805
:1057300008FB07F003F07CF80546D8B1D4E9001265
:1057400008FB0212FFF7B9FF206803F079F8256023
:10575000A760D6E9007308FB0378B84508D039463E
:10576000284605F08DF93B7C2B7414371435F4E78B
:10577000736863602046BDE8F081000070B5274B78
:10578000274A01251D70274B00248CB09A60C3E97D
:105790000044022002F062FF2146284602F076FF14
:1057A0002946042002F038FDCDE90044029405F0BA
:1057B000ADFC1D4C0546694603A8FFF7ACFF264625
:1057C00003A906A8FFF7A7FF184B46F8043B06A954
:1057D00009A8FFF7A0FF09AA1E21304604F016FA17
:1057E00009A8FFF757FF06A8FFF754FF104B2360E7
:1057F000256203A8FFF74EFF0E4B236005F086FCE1
:105800004FF4165105F070FC03F0E2FE214604F05F
:10581000D3F86846FFF73EFF0CB070BDA4E3032049
:105820000000FFFF98E30320A8E30320DCC90B007E
:1058300088D20B00F4C90B0010B503682F2B044667
:1058400004D9074A07490A2002F0CEFE23681F2B1D
:1058500083BF03F01F03044823604FF0A04010BD36
:1058600039820B007DCA0B000003005007EE900A3E
:105870009FED097AF8EEE77A67EE877A9FED077A6F
:1058800087EE870ADFED067A70EE677AB2EE040AD9
:1058900087EE800A704700BF00404E4500F07F450C
:1058A0000000FA4313B5012101A804F062FDFFF7DF
:1058B0002BFCFFF710FDFFF727FCFFF70CFD252859
:1058C00001A80DD904F0E8FDFFF71EFC0121FFF748
:1058D00041FD002401A804F05BFD204602B010BD8C
:1058E00004F0BFFD0124F5E730B5194D0FCD97B099
:1058F0000CAC0FC40FCD0FC495E8030084E803007F
:10590000144904A803F06AF804A803F0AAF80446AE
:1059100004A803F0DFF804A810EE105A03F00AF907
:1059200016AB10EE100A03EB840405F07DFFCDE901
:105930000201284605F078FFCDE90001064A54F837
:10594000283C0648402102F093FF17B030BD00BF4D
:1059500020CB0B0014E60320A1CA0B0084DE032039
:10596000F0B54E4E4E4C3378BFF35B8F13F0010F02
:1059700085B009D13046FEF7A1FB28B102F08CFCBE
:1059800020603046FEF79FFB464B1D8823682D01A3
:105990005B5D5F013378BFF35B8FD90709D43F4864
:1059A000FEF78CFB28B102F077FC20603B48FEF745
:1059B0008AFB23682B4403A85B7803F01F033B4357
:1059C0000393FFF739FF039A01239340C0F808358A
:1059D000FFF79AFB074605F0B2FA0246C3173846AE
:1059E000FFF74EFDFFF790FB0746FFF78DFBFFF734
:1059F00010FC013081B23846FFF745FCFFF784FB0D
:105A00000746FFF781FBFFF709FC013081B23846FA
:105A1000FFF73FFCFFF778FBFFF7FBFB0190FFF779
:105A200073FBFFF7FBFB019A1F4903461F48FEF774
:105A30009DFBC82002F06CFF3378BFF35B8FDA0761
:105A400009D41648FEF73AFB28B102F025FC206085
:105A50001248FEF738FB23685B5D5F013378BFF3C4
:105A60005B8FDB0709D40D48FEF728FB28B102F055
:105A700013FC20600948FEF726FB23681D4403A899
:105A80006B7803F01F033B430393FFF7D5FE039AA4
:105A900001239340C0F80C3505B0F0BDCCE30320E2
:105AA000D0E30320ACC90B00BACA0B0058E60320B0
:105AB00030B585B00D4600226946009202F0BCFD6B
:105AC00090B9009C0CB1236923B9084A08490A20FF
:105AD00002F08AFD0C23CDE901350423039301AACA
:105AE000236901212046984705B030BD39820B005B
:105AF000D7CA0B0013B5FFF707FB01A9044607201F
:105B0000FFF7D6FF011EA8BF01992046C9B2FFF7D3
:105B100021FCFFF7A9FAFFF73BFC30B1174803F06F
:105B2000D3F84FF4FA7002F0F3FEFFF7EDFA01A993
:105B300004460320FFF7BCFFE8B9BDF8043007EEC8
:105B4000903AFBEECC7A17EE900A05F06DFE41EC30
:105B5000100B2046FFF714FBFFF7D6FAFFF7F0FA19
:105B6000074B51EC100B002206F046F9003818BF25
:105B7000012002B010BDFFEE007AE4E7D4E3032079
:105B800000004E4013B5FFF7BFFA144B04461888C7
:105B900005F011FCFFF76AFEFDEEC07A2046CDED60
:105BA000017A9DF804100E4CFFF7CEFBFFF7ACFA1C
:105BB000FFF791FB0B4A03461021204602F058FEE6
:105BC00009490A482246FEF7D1FAFFF793FFFFF78B
:105BD00069FEFFF789FE012002B010BDB6C90B00B7
:105BE00074DE0320FDCA0B0002CB0B0058E6032035
:105BF0000148002103F024B8D4E30320704710B516
:105C000020210446FEF74BFA204610BD30B585B082
:105C10000446089860B1406850B1856845B1CDE947
:105C20000241CDE90023C46801AB6A4602A9A0473E
:105C300005B030BD30B585B0006813680193D1E977
:105C400000458368CDE902450BB905F085FCC368C2
:105C500001AA02A9984705B030BD012A02D101600E
:105C600000207047022A04BF0B680360F8E703684E
:105C70001268D1E90001184710B58368044613B1D2
:105C8000032201469847204610BD10B5044638B19E
:105C9000FFF7F2FF20461021BDE81040FEF7FFB9E4
:105CA00010BD10B504468AB008464FF0200C002104
:105CB000CDE90023CDE902C10B4602AA216802F01A
:105CC000A3FC0AB010BD0EB403B503AB322153F8E8
:105CD000042B0193FFF7E5FF02B05DF804EB03B07E
:105CE00070470EB403B503AB012153F8042B0193A5
:105CF000FFF7D7FF02B05DF804EB03B07047000078
:105D000010B50272FF2242810022C0E903224261E3
:105D10000276C261024A034C1060C0E9004110BD26
:105D2000E0E3032098CD0B002DE9F8439DF8208097
:105D30000446894616461F46B8F1000F02D0406857
:105D400003F05CF8217A606803F035F86068036856
:105D500049469B6898476068002103F04BF8054668
:105D600000BB0123217A60683A4603F012F88742AB
:105D7000034609D13744BE421CD0606803685B69A2
:105D8000984706F8010BF6E70B490C484A46FFF71F
:105D90009AFFB8F1000F02D0606803F038F8284687
:105DA000BDE8F8830346064904484A46FFF78BFFDF
:105DB0000025EEE70125ECE748CB0B00DCE30320F0
:105DC0006DCB0B0007B500930123FFF7ADFF03B0C8
:105DD0005DF804FB73B54389FF2B044610D0194EC0
:105DE000194D02F031FAB0F57A7F09D2608905F0D9
:105DF000CFFA012804D031462846FEF7B7F9F0E77C
:105E000001230DF1070228212046FFF7DBFF30B9FF
:105E10000D480E49FEF7AAF9002002B070BD9DF8AA
:105E20000730182BF4D101230DF107022921204658
:105E3000FFF7C8FF0028EBD09DF80730052BE7D10E
:105E4000EBE700BF91CB0B00DCE30320A6CB0B00FC
:105E500007B5134600228DF807200DF10702FFF762
:105E6000B1FF9DF8070003B05DF804FB2DE9F04198
:105E70009DF8188004460F4615461E46B8F1000FDF
:105E800002D0406802F0BAFF217A606802F093FF06
:105E90006068036839469B6898472E44B54260683D
:105EA00005D0036815F8011B9B689847F6E70121A8
:105EB00002F0A0FF034670B1084909483A46FFF7CF
:105EC00002FF0025B8F1000F02D0606802F09FFFCA
:105ED0002846BDE8F0810125F4E700BFB3CB0B00F5
:105EE000DCE303201FB58DF80F2000930DF10F02A6
:105EF0000123FFF7BBFF05B05DF804FBF8B50A46C8
:105F00000C4605461A491B48FEF730F9002CB8BF6D
:105F1000EC687CB9012322461B212846FFF7E2FFEB
:105F20001549024606461348FFF7DBFEEC606C613C
:105F30003046F8BD032C19DDA7101F2FA8BF1F275F
:105F4000BA0062F07C020123D2B21B212846FFF77F
:105F5000C9FF3A460346094906460648FFF7C1FE0F
:105F60004FF4FA635F43EC606F61E1E70127E7E715
:105F7000D8CB0B00DCE30320E2CB0B00FECB0B0005
:105F8000064B1A684AB1A0F500630B4305D1D368EC
:105F90001BB100211046FFF7B1BF7047E0E30320BB
:105FA0002DE9FF419DF82880054616461F46B8F1A9
:105FB000000F04D04068019102F020FF0199019187
:105FC00000230DF10F022846FFF7FCFE044660B1E6
:105FD0009DF80F3003EA06023A43934205D0019937
:105FE00000232846FFF77EFF0446B8F1000F02D0D9
:105FF000686802F00CFF204604B0BDE8F08113B5DC
:1060000014460DF10702FFF7DDFE28B19DF80730B9
:106010001C420CBF0120002002B010BD13B5144675
:106020000DF10702FFF7CEFE28B19DF807301C42A4
:1060300014BF0120002002B010BD07B5D243009369
:10604000D2B20023FFF7ACFF03B05DF804FB000001
:1060500037B501230DF107020F210446FFF7B2FE09
:10606000054638B91E491F48AD22FFF72CFE2846C9
:1060700003B030BD9DF8073013F0200F4FF001033F
:106080000BD02022E3610F212046FFF7D6FF164AEE
:1060900016491448FEF76AF8E9E708221721204656
:1060A000FFF7BCFF18B10223114AE361F0E79DF846
:1060B00007301A0709D50323E361082201230F21C2
:1060C0002046FFF7BAFF0B4AE2E75B07CFD5042271
:1060D000E26101230F212046FFF7AFFF064AD7E711
:1060E00051CC0B00DCE3032022CC0B0070CC0B0066
:1060F0002BCC0B003BCC0B004BCC0B0007B500931B
:106100001346FF22FFF74CFF03B05DF804FB0000CD
:10611000F8B50F461646012300220F210546FFF76A
:10612000E1FE044638B94FF425721F491F48FFF7B6
:10613000CAFD2046F8BD0123232218212846FFF777
:10614000D1FE044610B940F29B22EEE7FF2FA8BF14
:10615000FF27012FB8BF01270123FAB219212846D2
:10616000FFF7C0FE044610B94FF42A72DDE70123A1
:10617000082212212846FFF7C1FF044610B940F259
:10618000AF22D2E7002E14BF03220222012342F0E5
:10619000800218212846FFF7A5FE04460028C8D132
:1061A00040F2B922C1E700BF81CC0B00DCE3032041
:1061B0002DE9F7430A4605460F464F484F49FDF77C
:1061C000D5FF00212846FFF799FE044648B940F262
:1061D000F7124B494848FFF776FD204603B0BDE86B
:1061E000F08301231A4630212846FFF787FF044633
:1061F00010B940F20522ECE710220123114628468F
:10620000FFF71BFF044610B94FF40372E1E70123C7
:10621000262213212846FFF765FE044610B940F2F6
:106220001322D6E7012600963346FC221121284688
:10623000FFF7B6FE044610B940F21B22C9E7002260
:1062400039462846FFF764FF044610B940F222227F
:10625000BFE700960223772210212846FFF7A0FE11
:10626000044610B940F22B22B3E7334604221C2126
:106270002846FFF743FF044610B940F23222A8E750
:1062800000961823E32211212846FFF789FE0446D1
:1062900010B940F239229CE73346C0221721284624
:1062A000FFF720FE044610B94FF4107291E701F099
:1062B000CBFFDFF85490DFF840804FF47A71064648
:1062C0004F4301F0C1FF801BB8420ED201221721BB
:1062D0002846FFF7BDFD494602464046FDF746FF0A
:1062E0004FF47A7002F014FBEBE706490248FFF71F
:1062F000EAFC04F038FC70E7DCE30320ACCC0B00D4
:10630000A1CC0B00D2CC0B00BDCC0B002DE9F34788
:106310009DF828A005460C4691461F46BAF1000F8D
:1063200002D0406802F06AFD07B3202F3E4628BF26
:1063300020267F2C26D83319802B01D9C4F1800662
:10634000012304223F212846FFF777FE002364F053
:106350007F0100934A463346C9B22846FFF7E4FC62
:10636000804628B13444BF1BB144DDE74FF001083B
:10637000BAF1000F02D0686802F049FD404602B051
:10638000BDE8F087012304223F212846FFF7B6FE2F
:10639000DCE72DE9F3479DF828A005460C46914619
:1063A0001F46BAF1000F02D0406802F027FD07B384
:1063B0001F2F3E4628BF1F267F2C26D83319802B3F
:1063C00001D9C4F18006012304223F212846FFF7AA
:1063D00034FE002364F07F0100934A463346C9B27D
:1063E0002846FFF743FD804628B13444BF1BB14423
:1063F000DDE74FF00108BAF1000F02D0686802F043
:1064000006FD404602B0BDE8F087012304223F218B
:106410002846FFF773FEDCE730B585B00D68D1E99B
:10642000043203954D6802958D680195C968009105
:106430000133044902F26C72044604F02DFB20463D
:1064400005B030BDE4CC0B0003090A2200F00F00B8
:1064500002FB0300704738B5044600781546FFF785
:10646000F3FF08606078FFF7EFFF4860A078FFF760
:10647000EBFF8860E078FFF7E7FFC8602079FFF75F
:10648000E3FF013808612DB9651D2878FFF7DCFFAF
:10649000886138BD6079FFF7D7FF6430A51D48617A
:1064A000F3E7000070B5012388B00D461A461021AD
:1064B0000446FFF7A4FDF0B108230126204600960C
:1064C0000DEB03020021FFF72FFC044698B1324682
:1064D00029460DF10900FFF7BEFF04A8FFF79CFF56
:1064E0000848049A0849FDF741FE04A804F032FA6E
:1064F000204608B070BD24220021284605F05EFD2C
:106500000024F5E7DCE3032002CD0B0030B58BB0AF
:106510000D4601A9FFF7C6FF044620B101A802F00D
:10652000EFF9C5E9000120460BB030BD0A2390FB0E
:10653000F3F103FB110091FBF3F203FB121240EAAB
:106540000210C0B2704770B5054600680C4616468A
:10655000FFF7ECFF20706868FFF7E8FF6070A8683D
:10656000FFF7E4FFA070E868FFF7E0FFE07028693C
:106570000130FFF7DBFF20712EB9661DA869FFF718
:10658000D5FF307070BD6A69642392FBF3F003FBA2
:106590001020FFF7CBFFA61D6071EFE7F0B587B0C5
:1065A000054602A816460C46FFF736FF1E48029A1B
:1065B0001E49FDF7DBFD02A804F0CCF916B16868AE
:1065C00002F01CFC204601220DF1090100278DF884
:1065D0000870FFF7B8FF01231A4610212846FFF77D
:1065E0008DFD0446E8B1082300970DEB0302394600
:1065F0002846FFF73BFC044660B101231A461021F0
:106600002846FFF71AFD16B1686802F000FC204624
:1066100007B0F0BD4FF48D7205490348FFF753FBF7
:10662000F1E74FF48F72F7E7DCE3032010CD0B00A6
:106630001ECD0B0013B504466846CDE9002305F0D6
:106640006FFC9DF8102001462046FFF7A7FF02B01F
:1066500010BD0000F0B5057E89B0044675BB04F09E
:1066600051FC58B30026002704A92846CDE9046749
:1066700002F06EF810B30125257604F060FCC31714
:10668000CDE90203024600952046FFF7D3FF02A999
:106690002046CDE90267FFF739FF134B13491B680A
:1066A000009304A8DDE9022304F0EAFB1048049AF1
:1066B0001049FDF75BFD04A804F04CF963698BB148
:1066C00001F0C2FD2369C01A636998420AD301F040
:1066D000BBFD4FF0FF312061204609B0BDE8F0401E
:1066E000FFF70CBC09B0F0BDCCDE0320ACE6032004
:1066F000DCE3032039CD0B0038B5002383608B68C1
:1067000004460D462BB102229847EB68E360AB6864
:10671000A360204638BD00002DE9F04395B0054642
:106720001C9904A890461F460CAEFFF7E5FF04A98C
:1067300008A8FFF7E1FF08A93046FFF7DDFF4FF09B
:1067400000091020CDF84890FDF7A5FC0446A0B143
:1067500096E8030001AB83E8030094E8030086E8B1
:10676000030093E803000E9BE268A36084E8030043
:106770000F9BCDF838900F92E360244B1393244B7A
:106780001293002200234FF00009C5E90023214B9A
:10679000C5F8089010201094CDE90139CDF80C907F
:1067A000FDF779FC0446D8B1129BC0F8089033B1CC
:1067B000022210A99847139BE360129BA360164B1B
:1067C0000393164A029401AB4046394601F056FF46
:1067D000B0B12046FFF750FA10212046FDF75FFCCC
:1067E00010A8FFF749FA3046FFF746FA08A8FFF766
:1067F00043FA04A8FFF740FA284615B0BDE8F08335
:10680000029BAB60C5E90087EAE700BF355C0B007F
:10681000D5680B0002000C008B5C0B000D5C0B00BC
:1068200030B504468BB011B1406802F095FA2046AD
:10683000FFF7D0FA06AD002837D02046FFF708FC56
:1068400001231A4610212046FFF7D9FBD8B104F0E6
:1068500059FBC0B902A92046FFF758FEDDE9020145
:1068600004F054FA134B14491B6800932846DDE9E1
:10687000022304F005FB1148069A1149FDF776FC46
:10688000284604F067F80F4B06930F4B09930F4B04
:1068900008934FF40062002302A80095FFF73CFF25
:1068A0002846FFF7E9F90BB030BD09490348FFF767
:1068B0000AFAE8E7CCDE0320ACE60320DCE30320A1
:1068C0004FCD0B00815F0B006F5C0B005B5C0B001E
:1068D0006CCD0B00012A37B5044604D10B68036068
:1068E000002003B030BD022A0CD0032AF8D104687E
:1068F000002CF5D02046FFF7BFF910212046FDF708
:10690000CEFBEDE7096801911020FDF7C4FB0546B9
:1069100010B10199FFF7F0FE2560E1E7014B024A53
:106920001A607047DCE3032084CD0B00704710B57C
:1069300010210446FDF7B3FB204610BD0368C9B221
:106940009B68184730B5034DC0E90223C0E90051E8
:1069500030BD00BFB0CD0B00406802F0FDB910B5EE
:106960000446006802F053FA204610BD2DE9F743B3
:106970000446406801900D4616461F4602F03EFA56
:10698000A7B1E168606841F0500102F018FA290AE5
:106990006068FFF7D3FF29466068FFF7CFFF6068A4
:1069A000002102F027FA48B1002400E0012401A8E8
:1069B000FFF7D5FF204603B0BDE8F083202F217BF1
:1069C0006068B84628BF4FF020080123424641F0D6
:1069D000500102F0DEF904F033FD03681B699847AB
:1069E0004045E1DB06EB080904F02AFD03685B691A
:1069F000984706F8010B4E45F6D14544A7EB08072A
:106A0000BEE72DE9F74F0446406801900E469046D8
:106A10001D4602F0F3F94FF00109B9F1000F2AD039
:106A20004DB3E168606841F0500102F0C8F9310AE5
:106A30006068FFF783FF60683146FFF77FFFA5F1CD
:106A40001E0A4746A6EB080B606817F8011B03688F
:106A5000013D9B68984755450BEB0706B84601D0AA
:106A6000002DF1D16068012102F0C4F90028D7D0CF
:106A70004FF00009D1E701A8FFF771FF484603B0C6
:106A8000BDE8F08F2DE9F0438BB00E4615468046E9
:106A9000406801901C4602F0B1F9AE4229D226446A
:106AA00025448CB11E2C2746D8F8003028BF1E275D
:106AB000F61BD3F8089002AA3B4631464046ED1B30
:106AC000C84748B9002400E0012401A8FFF747FFA8
:106AD00020460BB0BDE8F083D8F8003002AAD3F806
:106AE0000C9029463B464046C8470028EAD0E41BA4
:106AF000D7E7E9D9002CE7D0D8F800301E2C27467C
:106B000028BF1E27D3F8089002AA3B4631464046CC
:106B1000C8470028D6D0D8F8003002AAD3F80C9085
:106B200029463B464046C8470028CBD03E443D441A
:106B3000E41BDFE701600271704700680368DB68EF
:106B40001847006803681B6A1847006803689B6A57
:106B5000184700797047006803689B6B184737B582
:106B600005460C4619460192FFF7F5FF2868019A81
:106B700003685B69214603B0BDE8304018470068F0
:106B80000368DB6B184738B50446006803680D4698
:106B90005B6B984729462046FFF7F1FF257138BD0A
:106BA00038B50446006803689B689847054618B1E5
:106BB00021792046FFF7E7FF284638BD00680368C3
:106BC0001B6C1847006803685B6C18470068036813
:106BD000DB6C1847006803681B6D18470068036882
:106BE0005B6D1847006803689B6D18472DE9F843F3
:106BF000044600680A9F1E4603681B69DDE9089881
:106C000098470546C8B11EB12046FFF7E3FF307034
:106C1000B9F1000F04D02046FFF7D8FF89F8000033
:106C2000B8F1000F04D02046FFF7D8FF88F8000025
:106C30001FB12046FFF7D6FF38702846BDE8F8831D
:106C4000012070470379032BFCD0012070470020FE
:106C500070478171704741717047C172704701730D
:106C6000704741737047837B23EA020211438173AB
:106C70007047C0797047007A7047407A7047807AD1
:106C80007047008A00B27047007970470171704701
:106C9000408A80B27047808A80B27047C08A80B2D2
:106CA000704738B505460C462B682846DB68984780
:106CB00028B9002CF8D0204601F02AFEF4E738BDB0
:106CC000F8B505460F46144601F0BEFA064601F037
:106CD000BBFA801BB8420AD22B682846DB6898476B
:106CE00030B9002CF3D0204601F012FEEFE700206F
:106CF000F8BD70B504460E4601F0A6FA054601F04F
:106D0000A3FA401BB04204D22379032BF7D0012011
:106D100070BD0020FCE770B5C3690446B3B101F053
:106D200093FA64260546236820461B6B984768B192
:106D300001F08AFAE369401B984209D80A21012030
:106D400003F02FFD704301F0E3FDECE7012070BD7F
:106D50000020FCE7064A0260FF2100220271417117
:106D60004282C172828281818273C282C261704713
:106D7000CCCD0B007047704770477047704741712A
:106D800070478171704701717047000030B5034D45
:106D9000056001714271837130BD00BF4CCE0B00A4
:106DA000704710B510210446FDF779F9204610BD53
:106DB0000EB403B503AB002153F8042B019303F089
:106DC000B4FC02B05DF804EB03B0704773B5044641
:106DD00008462279A36832B1A3B90B4902B0BDE8D5
:106DE000704003F099BB094A267B094D0949647B31
:106DF000012E18BF2946CDE900140749FFF7D8FF37
:106E000002B070BD054AEFE789CE0B0051D20B00EE
:106E100085CE0B0081CE0B009FCE0B0078CE0B00F1
:106E200010B50446FFF7B2FF054B2360054BA36086
:106E30000123237300232361A382204610BD00BFDA
:106E4000D8CE0B00C4CE0B0013B50B4C2178BFF38A
:106E50005B8F11F001010BD120460191FDF72EF956
:106E6000019928B1054803F0B5FC2046FDF72BF940
:106E7000024802B010BD00BFE4E30320E8E30320B2
:106E800007B50191FFF7E0FF019903B05DF804EB4E
:106E900003F058BD08B5FFF7D7FFBDE8084003F081
:106EA00057BD08B5FFF7D0FFBDE8084003F051BD5E
:106EB00010B50379042B20D0032B20D0022B20D037
:106EC000114A1249012B18BF0A46417983790139C9
:106ED00018BF012133B1012B04D0022B02D0032BA8
:106EE00018BF002300240473026101754375FFF786
:106EF000ABFFBDE8104003F077BC054AE5E7054A63
:106F0000E3E7054AE1E700BF80841E0040420F002E
:106F10000024F40000127A0000093D0008B5FFF7D4
:106F200093FFBDE8084003F073BC10B50446FFF7BB
:106F30008BFF04F10801BDE8104003F095BC08B5D3
:106F4000FFF782FFBDE8084003F074BC08B5FFF707
:106F50007BFF08BD002302481A461946FFF760BFB1
:106F6000F0E30320012A05D1007A0B781B1A58425E
:106F700058417047002070472DE9F047254C012308
:106F800086B02370637000230F46A1700093032224
:106F9000FF232146064600F0B7FB20B10025284616
:106FA00006B0BDE8F087FA238DF8173001F04CF9F0
:106FB00006F10409804608F57A6501F045F9291AB9
:106FC0000029EBDD002289B24846FFF7BEFD00280C
:106FD000F3D00023CDE90233CDE900330DF11702E0
:106FE0002146304600F09AFB05460028E3D09DF884
:106FF0001730012BDFD994F800A0BAF1020FDAD1D3
:107000004846FFF7E7FD534602463946304600F052
:10701000F3FAC4E708E40320012A2DE9F341074607
:107020000E4614463BD94D79022D30D100F10408AB
:10703000C97901914046FFF7CDFD083C2B46024639
:107040000199384600F0D8FAE5B206F108030024A9
:107050002246954204F10104E4B204D913F8012B4D
:10706000397A9142F4D104F108010E44A54216D9AF
:1070700016F8011B01914046FFF7ACFD01340246B2
:10708000019902233846E4B200F0B6FAEEE7032D88
:1070900005D1897902B0BDE8F04100F096BA02B09E
:1070A000BDE8F08110B5044600F0E6FA014B23601C
:1070B000204610BD0CCF0B002DE9F047F92A9DF8B2
:1070C000209006460F4614461D4625D8FF2B14D1A6
:1070D000DFF84880404600232246394600F8013B4D
:1070E00004F044FF621CCDF820902B464146304608
:1070F000D2B2BDE8F04700F007BB194600F021FA14
:107100000028E5D1336829469B6830469847002817
:10711000DED10220BDE8F0870120FBE708E4032070
:107120002DE9F04F89B09846FA238DF81A300DF109
:107130001F0303930DF11E0302935D4E0DF11D031A
:10714000019307AB0093894617460DF11B030DF120
:107150001A023146DDE912BA054600F0DFFA0446AC
:1071600020B90024204609B0BDE8F08F9DF81A3000
:1071700073B3327862BBB8F1000F03D09DF81B20C7
:1071800088F80020BBF1000F03D09DF81C208BF87D
:107190000020BAF1000F03D09DF81D208AF80020CE
:1071A000149A1AB114999DF81E200A70159A1AB1F2
:1071B00015999DF81F200A703A783E49013BDBB2D1
:1071C0009A4288BF3B703A78484604F0CFFEC9E740
:1071D0009DF81C20FF2AC4D1012BC2D93278012A84
:1071E000BFD12A7A9DF81B40A242BAD0DF1E324995
:1071F000FFB200235FFA83F8474506D911F8010B67
:10720000824203F10103F5D1ABE705F104094846D9
:10721000FFF7E0FC022302462146284600F0ECF985
:1072200095F8173193B1224CA31BDBB29F420CD9C6
:10723000E17805914846FFF7CDFC05990246022307
:10724000284600F0D9F90134EEE7B8462B68727889
:10725000DB681A4928469847044660B10223002497
:1072600033709DF81A209DF81B3011490094284670
:1072700000F04AFA76E795F8163143457FF671AF8C
:1072800095F81731002B3FF46CAF9DF81A202B7A3C
:1072900007493E440132F3709DF81B300190D2B291
:1072A00000932846FF238DF81A2000F0F7F959E7DC
:1072B00008E4032009E403200BE403200AE403208C
:1072C000F0B585B0054604300E460392FFF782FC08
:1072D000039A07463146284600F04AF90228044638
:1072E00001D005281BD13178284600F06EF972785C
:1072F0002B7A9A4213D00B4C03232370337863709C
:10730000717802233A46284600F076F9002300936C
:10731000214673780222284600F0F6F904462046FA
:1073200005B0F0BD08E4032010B50446FFF702FCE9
:10733000C8230021E3810323A160217323744FF448
:10734000807204F1110004F039FE204610BD1FB513
:1073500004460192FFF732FC204600228021FFF70D
:1073600031FC2122019B8DF80F200DF10F0101222C
:107370002046FFF7F4FB2046FFF7E3FB04B010BD07
:107380002DE9F04F057B0135EDB287B00446894603
:107390009246984605730027227C3B469A4207F1A5
:1073A0000107FFB26BD329462046FFF707FC012FE8
:1073B0000DBFC0228022402100212046FFF702FCA1
:1073C0004346524649462046FFF7C9FB2046FFF791
:1073D000B8FBB8F1FF0F54D0012F82BFA36801336F
:1073E000A36000F031FF4FF4807183460020E689EE
:1073F00003F0D7F9704348BFFF3006EB20261BFA95
:1074000086F600F021FF301A0028C5DD81B2002287
:107410002046FFF79AFB0028F3D00DF117030293E3
:107420000DF11603019300220DF11503009311468F
:1074300005AB2046FFF7DAFB0028E2D09DF81420C8
:107440009DF9173042450ED194F804C09DF81510EF
:107450008C4508D1002B08DA9DF81630AB42D0D10C
:1074600007B0BDE8F08F002BCBDBA1189DF81630DC
:10747000497C9942C5D12046FFF769FFC1E700204A
:10748000EEE70120ECE72DE9F04389B0CDE90421D6
:10749000DDE91098129F04461E46FFF74EFBDDE91A
:1074A000042120B90025284609B0BDE8F0830DF17C
:1074B0001F0302930DF11E0301930DF11D030093B1
:1074C000204607ABFFF792FB05460028EAD09DF95E
:1074D0001F30002BE6DB22799DF81D309A4206D141
:1074E0009DF81C209DF81E102046FFF730FF9DF8E8
:1074F0001F209DF81C109DF81E3012F0400F0C4408
:1075000002D0607C9842CDD006B13170B9F1000F45
:1075100003D09DF81D1089F80010B8F1000F01D0BC
:1075200088F8003007B13A706374BCE7704710B553
:1075300004460430FFF734FB10B11E2384F81631E3
:1075400010BD10B50246002392F818418C4208D1B4
:1075500092F81A412CB103EB430303F58C731844E2
:1075600010BD0133322B02F10302EDD10020F7E709
:1075700037B50B78FF2B05460C4606D0194601920D
:10758000FFF7DFFF58B14378019A2146281DFFF726
:10759000F7FE002814BF0020052003B030BD0220F4
:1075A000FBE710B501EB41030446C1F1310203F5DD
:1075B0008C7003F21B1102EB42022144204404F0C0
:1075C000D5FC002384F8AD3110BD38B50A46002340
:1075D00000F58C7403EB4305D9B2655D954203D188
:1075E000FFF7DFFF012038BD0133322BF2D100203D
:1075F000F9E70021FFF7D5BFF8B516461F46044648
:107600000D46002300F58C7203EB4300115CA94288
:1076100005D1204480F8196180F81A71F8BD013352
:10762000322BF1D1002304F58D7203EB4300115C82
:1076300019B9204480F81851ECE70133322BF4D10A
:107640002046FFF7D6FF204604F1960390F81A2152
:107650002AB980F8185180F8196180F81A7103303E
:107660009842F3D1DAE700F19603002280F81A215C
:1076700003309842FAD1704710B504460430FFF742
:1076800053FE054B23604FF48F732046A4F8163148
:10769000FFF7E9FF204610BD24CF0B002DE9F3478B
:1076A0000446406801911F4603689DF828A09B6925
:1076B0009DF82C901646984706F1050880451CD881
:1076C000104D019985F801A00023AB7094F8153195
:1076D000EB705A1C84F81521681D32462F7085F80E
:1076E000049004F043FC23685B685FFA88F2294643
:1076F000204602B0BDE8F0471847012002B0BDE8BF
:10770000F08700BF02E5032013B59DF810400194F7
:10771000047A0094FFF7C2FF02B010BD2DE9F04FCC
:1077200087B01F46FF238DF813300DF11703029326
:10773000DFF8D0900DF1160301930DF115030093BE
:1077400004468846164605AB0DF11302494604303F
:10775000DDE910BAFFF797FE054608B9002538E0C5
:1077600023689DF813201B6849462046984799F8DE
:107770000030227A9A4201D0FF2B2ED117B1214B33
:107780005B783B70BBF1000F03D01E4B1B788BF86E
:107790000030BAF1000F03D01A4BDB788AF80030C2
:1077A000129B1BB1174B129A1B791370139B1BB1C1
:1077B000144B139A9B7813709DF81330327812494A
:1077C000053BDBB29A4288BF33703278404604F002
:1077D000CDFB284607B0BDE8F08F99F802305A1C5F
:1077E00089F8022094F816219A42B7D994F81731F3
:1077F000002BB3D023689DF813205B6849462046D0
:107800009847ABE702E5032007E5032010B50446DF
:10781000006A0368DB68984794F82400FF2802D0C8
:10782000012103F08BFD23682046DB6F984764201D
:1078300001F06EF8012010BD90F82400002103F043
:107840008EBD90F82400012103F089BD70B5044677
:107850000D461646FFF77EFA034B2360266284F836
:107860002450204670BD00BF34CF0B0038B504460D
:10787000006A03681B6A0D469847236820469B6F81
:107880009847206A036805F07F011B689847206AC3
:10789000036800211B68984723680546DB6F204674
:1078A0009847206A03685B6A9847284638BD70B5D8
:1078B0000446006A03681B6A16460D46984723680B
:1078C00020469B6F9847206A036845F080011B683B
:1078D00098470546206A036831461B68984701208F
:1078E00000F0AAFC23682046DB6F9847206A0368F3
:1078F0005B6A9847284670BDF8B50446006A1E4684
:1079000003681B6A0F4615469847236820469B6FFD
:107910009847206A036807F07F011B6898472E4448
:107920000746B54207D0206A036800211B689847C4
:1079300005F8010BF5E723682046DB6F9847206ABE
:1079400003685B6A98473846F8BDF8B50446006A94
:107950001E4603681B6A0F46154698472368204653
:107960009B6F9847206A036847F080011B6898471F
:107970002E440746B54206D0206A15F8011B03685D
:107980001B689847F6E723682046DB6F9847206A14
:1079900003685B6A98473846F8BD006A03689B6ACB
:1079A000184701207047FB207047704710B50379D6
:1079B000052B044610D003680521D3F88030984782
:1079C000072201212046FFF772FF80224021204636
:1079D000FFF76DFF052323712379052BFCD0207E53
:1079E00010BD10B54FF498710446FCF758FB2046C3
:1079F00010BD10B50379012B04460BD0036801219B
:107A0000D3F880309847002201212046FFF74FFF2E
:107A100001232371012010BD142938B505460C46F9
:107A200014DC012914DD112913DD07224D2128461C
:107A3000FFF73DFF033C64B2A21E62F07F022846BE
:107A4000D2B2BDE838400921FFF731BF1424ECE77A
:107A5000022404224D212846FFF729FFECE700000D
:107A6000F8B50368DB6804460F4615469847064696
:107A7000D0B187B17DB194F828302A78033B934286
:107A8000DEBF94F82830043B2B702A7804F12D01D6
:107A9000384604F06BFA002384F82831034904487F
:107AA00084F82830FCF762FB3046F8BDB4CF0B00F9
:107AB00058E6032038B5044615461A46FFF7C6FEB9
:107AC000094B2360FF22002384F82720012284F839
:107AD000283184F82C3184F8265084F82B2184F83E
:107AE0002530204638BD00BFF8CF0B0090F8283075
:107AF000032B1BD990F82930C37190F82A300372F8
:107B000090F82B30437290F82C308372837933B91C
:107B1000C37942799A4202D0C379FF2B06D1838A76
:107B200001339BB28382012380F828317047000023
:107B300038B504462DED028B10EE100AB0EE408AE7
:107B400003F072FE17A3D3E9002303F0C5FE17A3C9
:107B5000D3E9002303F0EAFF04F096F90621054675
:107B6000C0F307422046FFF7A2FEC5F30722072114
:107B70002046FFF79CFEEAB208212046FFF797FE59
:107B8000DFED077AB4EEE78ABDEC028BF1EE10FA76
:107B9000ACBF01230023012084F8293138BD00BF88
:107BA00000C042440000000080842E41000000001C
:107BB00080844E4010B50379022B04460BD0036835
:107BC0000221D3F880309847012211462046FFF762
:107BD0006EFE0223237110BD70B512210446FFF71B
:107BE00045FE1C2105462046FFF740FEFF220646C3
:107BF00012212046FFF75BFE2379042B07D115F0F5
:107C0000A00F17D194F82B310BB1700612D5237940
:107C1000042B01D1690622D42379032B01D12A0731
:107C200068D42379052B0ED16B070CD505F001051F
:107C3000257663E0638A01339BB26382002384F874
:107C4000283184F82830FF2212212046FFF72FFE2A
:107C50002046FF22BDE870401221FFF728BE132105
:107C60002046FFF703FE102105462046FFF7FEFDE4
:107C70000D2102462046FFF71AFE04F129022B4689
:107C800000212046FFF738FE192184F828502046AD
:107C9000FFF7ECFD40B20028B8BF0330801084F835
:107CA0002A011A212046FFF7E1FD94F92A3100B29A
:107CB000002B2082A9BF238A228A1BB21B01B2BFDC
:107CC0009B180F2293FBF2F31BB2238294F8293105
:107CD0006BB1238A9D3B1BB223822046FFF706FF30
:107CE00094F82831002BAED0FFF764FFABE7238A6E
:107CF000A43BF0E7E38A01339BB2E3822046F3E73B
:107D0000024B186808B1FFF767BF704704E603200D
:107D1000024B586808B1FFF75FBF704704E60320C5
:107D2000024B986808B1FFF757BF704704E603207D
:107D300010B50379042B044610D003680421D3F84E
:107D400080309847052201212046FFF7B0FD002230
:107D500040212046FFF7ABFD0423237110BD10B571
:107D60000379032B044605D0FFF7E2FF94F82801BE
:107D7000C0B210BD0020FCE710B50379032B044608
:107D800010D003680321D3F88030984703220121E3
:107D90002046FFF78CFD402211462046FFF787FD65
:107DA0000323237110BDFB2AF8B504460F46154680
:107DB00002D900263046F8BD03681B6A9847204662
:107DC000FFF7F8FE23682046DB6A9847064600283E
:107DD000EFD000220D212046FFF769FDE27A002155
:107DE0002046FFF764FD227B00212046FFF75FFD60
:107DF000627B00212046FFF75AFDA27B002120462E
:107E0000FFF755FD2B463A4600212046FFF79DFD22
:107E10002A1DD2B222212046FFF749FD2046FFF756
:107E2000ABFFC7E710B5044680F8252072B181F397
:107E3000040242F07002D2B20921FFF738FD204659
:107E40000422BDE810404D21FFF731BDBDE81040D0
:107E5000FFF7E2BD38B50C4605460A781D21FFF74D
:107E600026FD62781E212846FFF721FDA2782846CC
:107E70002621BDE83840FFF71ABD0000052913B5DB
:107E80000FD8094B01EB41015C185A5AA378ADF8A1
:107E9000042001A98DF80630FFF7DCFF012002B0B5
:107EA00010BD0020FBE700BFDFCF0B0038B50A0A8A
:107EB00005460C462021FFF7FAFCE2B228462121B4
:107EC000BDE83840FFF7F3BC73B50446FFF79EFCEE
:107ED000064618B90026304602B070BD94F8265008
:107EE000FF2D54D029462046FFF757FD802201215F
:107EF0002046FFF7DCFC0A2000F00AFD01212046A5
:107F0000FFF7B4FC8028E5D194F82600FF281CD0A8
:107F1000002103F013FA94F82730FF2B07D1264AEB
:107F20001378032BD6D8591C117084F8273094F895
:107F30002720224B43F8224062BB214900924FF098
:107F4000FF330122A8B200F06DFF00220E2120466F
:107F5000FFF7ADFC00220F212046FFF7A8FC2046CA
:107F6000FFF728FE00212046FFF788FF0821204662
:107F7000FFF79CFF9FED130A2046FFF7D9FD002372
:107F800084F825300D212046FFF746FDA3E74FF08A
:107F9000FF35ABE7012A4FF0000304D100930A49F3
:107FA0004FF0FF33CEE7022A94D1009307494FF0F8
:107FB000FF330122C6E700BF01E6032004E60320E9
:107FC000017D0B000000D943117D0B00217D0B00CA
:107FD000704703685B68184710B58369044633B17E
:107FE00031B1236820469B6898470023A36110BDE8
:107FF00000F02AF9A369C01AE3699842F1D2F6E7C2
:1080000010B5C36904461BB100F01EF9A06110BD94
:108010000368BDE810409B68184700F0EDB810B544
:1080200004460430FCF7CCFF2368E1685B69204616
:10803000984718B9236820469B6998476068FFF7FE
:10804000ECFF012010BD0000F0B521F00304184F33
:10805000184E194D0444A0420CD050F8043B7B4309
:108060004FEA734373435A404FEAF24202EB8202F3
:108070002A44F0E701F0030404440023A04204D0A2
:1080800014F8015D45EA0323F8E70948434309482A
:108090004FEA73434A4058435040084B80EA10402F
:1080A0005843074B80EA5030584380EA1040F0BDF7
:1080B000512D9ECC9335871B646B54E66BCAEB85C0
:1080C00035AEB2C2F8B504460430FCF779FFA368B8
:1080D00000229F689A60A668054AF1883046FFF73B
:1080E000B3FFB76005466068FFF797FF2846F8BD05
:1080F0003F2A1C8573B50D460446FFF7E3FF0B2DA1
:10810000064623D9A3682269196891421FD199882C
:10811000A28A91421BD1D988AAB2914217D89A68F3
:10812000824214D1E268AA4205D900215955E26879
:108130000135AA42FAD8D4E902322046DA80A5688D
:10814000FFF7C0FFA860012002B070BD9DB1A1681B
:108150000A6892B188688B880190C98808480091A4
:108160000849FDF7BEFDCDE90056A38A22690649FC
:108170000348FDF7B6FD0020E6E71046E4E700BF40
:1081800058E603207CD00B00ADD00B0038B5044678
:10819000C2688068002103F011FFA36822691A6099
:1081A000A368A28A9A80D4E902322046DA80A568C0
:1081B000FFF788FFA86038BD08B5024B1B685B6CF1
:1081C000019308BD7402030008B5024B1B685B6C89
:1081D000019308BD4802030008B5024B1B689B6C65
:1081E000019308BD4802030008B5024B1B68DB6C15
:1081F000019308BD4802030008B5024B1B685B6D84
:10820000019308BD4802030008B5024B1B685B6D73
:10821000019308BD3402030008B5024B1B685B6E76
:10822000019308BD3402030008B5024B1B685B686C
:10823000019308BD1802030008B5024B1B68DB68F8
:10824000019308BD1802030008B5024B1B685B6967
:10825000019308BD1802030008B5024B1B689B6D13
:10826000019308BD1802030008B5024B1B68DB6DC3
:10827000019308BD1802030008B5024B1B685B6E32
:10828000019308BD1802030008B5024B1B689B6EE2
:10829000019308BD1802030008B5024B1B681B6858
:1082A000019308BD2C02030008B5024B1B685B68F4
:1082B000019308BD2C02030008B5024B1B689B68A4
:1082C000019308BD2C02030008B5024B1B68DB6854
:1082D000019308BD2C02030008B5024B1B681B6903
:1082E000019308BD2C02030008B5024B1B685B69B3
:1082F000019308BD2C02030008B5024B1B689B6963
:10830000019308BD2C02030008B5024B1B68DB6912
:10831000019308BD2C02030008B5024B1B681B6BC0
:10832000019308BD2C02030008B5024B1B68DB68F3
:10833000019308BD2802030008B5024B1B689B6926
:10834000019308BD2802030008B5024B1B68DB69D6
:10835000019308BD2802030008B5024B1B681B6A85
:10836000019308BD2802030008B5024B1B685B6A35
:10837000019308BD2802030008B5024B1B689B6AE5
:10838000019308BD2802030008B5024B1B68DB6A95
:10839000019308BD2802030008B5024B1B681B6B44
:1083A000019308BD2802030008B5024B1B685B6BF4
:1083B000019308BD2802030008B5024B1B681B6C23
:1083C000019308BD2802030008B5024B1B689B6C93
:1083D000019308BD2802030008B5024B1B68DB6C43
:1083E000019308BD2802030008B5024B1B681B6DF2
:1083F000019308BD2802030008B5024B1B685B69A6
:10840000019308BD6402030008B5024B1B689B681A
:10841000019308BD6802030008B5024B1B68DB68C6
:10842000019308BD6802030008B5024B1B681B6876
:10843000019308BD3002030008B5024B1B685B685E
:10844000019308BD3002030008B5024B1B685B694D
:10845000019308BD3002030008B5024B1B68DB69BD
:10846000019308BD3002030008B5024B1B681B6A6C
:10847000019308BD3002030008B5024B1B685B6A1C
:10848000019308BD3002030008B5024B1B68DB6B8B
:10849000019308BD3002030008B5024B1B681B6C3A
:1084A000019308BD3002030008B5024B1B685B6CEA
:1084B000019308BD3002030008B5024B1B689B689E
:1084C000019308BD3C02030008B5024B1B68DB6842
:1084D000019308BD3C02030008B5024B1B681B69F1
:1084E000019308BD3C02030008B5024B1B685B69A1
:1084F000019308BD3C02030008B5024B1B689B6951
:10850000019308BD3C02030008B5024B1B68DB6900
:10851000019308BD3C02030008B5024B1B681B6AAF
:10852000019308BD3C02030008B5024B1B689B6A1F
:10853000019308BD3C02030008B5024B1B68DB6ACF
:10854000019308BD3C02030008B5024B1B681B6C7D
:10855000019308BD3C02030008B5024B1B681B6871
:10856000019308BD4C02030008B5024B1B685B6811
:10857000019308BD4C02030008B5024B1B689B68C1
:10858000019308BD4C02030008B5024B1B681B6930
:10859000019308BD4C02030008B5024B1B685B69E0
:1085A000019308BD4C02030008B5024B1B689B6990
:1085B000019308BD4C02030008B5024B1B68DB6940
:1085C000019308BD4C02030008B5024B1B681B6AEF
:1085D000019308BD4C02030008B5024B1B689B6A5F
:1085E000019308BD4C02030008B5024B1B685B6B8E
:1085F000019308BD6002030008B5024B1B681B6DA8
:10860000019308BD6002030008B5024B1B685B6D57
:10861000019308BD6002030008B5024B1B68DB6EC6
:10862000019308BD6002030008B5024B1B681B6F75
:10863000019308BD6002030008B5034B1B68D3F823
:108640009830019308BD00006002030008B5024B9A
:108650001B681B68019308BD2002030008B5024B8C
:108660001B685B68019308BD2002030008B5024B3C
:108670001B685B69019308BD2002030008B5024B2B
:108680001B681B6A019308BD2002030008B5024B5A
:108690001B68DB6A019308BD2002030008B5024B8A
:1086A0001B689B6D019308BD2002030008B5024BB7
:1086B0001B68DB6D019308BD2002030008B5034B66
:1086C0001B68D3F88830019308BD00002002030026
:1086D00008B5034B1B68D3F89430019308BD000024
:1086E0002002030008B5034B1B68D3F8A8300193A0
:1086F00008BD00002002030008B5034B1B68D3F837
:10870000AC30019308BD00002002030008B5034B04
:108710001B68D3F8B030019308BD000020020300AD
:1087200008B5024B1B689B68019308BD4402030017
:1087300008B5024B1B685B69019308BD4402030046
:1087400008B5024B1B681B6B019308BD4402030074
:1087500008B5024B1B685B6B019308BD4402030024
:1087600008B5024B1B68DB6B019308BD4402030094
:1087700008B5024B1B685B68019308BD400203000B
:1087800008B5024B1B689B68019308BD40020300BB
:1087900008B5024B1B68DB68019308BD400203006B
:1087A00008B5024B1B681B69019308BD400203001A
:1087B00008B5024B1B685B69019308BD40020300CA
:1087C00008B5024B1B689B69019308BD400203007A
:1087D00008B5024B1B68DB69019308BD400203002A
:1087E00008B5024B1B681B6A019308BD40020300D9
:1087F00008B5024B1B681B6B019308BD40020300C8
:1088000008B5024B1B685B6B019308BD4002030077
:1088100008B5024B1B681B6C019308BD40020300A6
:1088200008B5024B1B685B6C019308BD4002030056
:1088300008B5024B1B681B68019308BD1C020300AE
:1088400008B5024B1B685B68019308BD1C0203005E
:1088500008B5024B1B689B68019308BD1C0203000E
:1088600008B5024B1B681B69019308BD1C0203007D
:1088700008B5024B1B68DB69019308BD1C020300AD
:1088800008B5024B1B685B6A019308BD1C0203001C
:1088900008B5024B1B68DB6A019308BD1C0203008C
:1088A00008B5024B1B68DB6B019308BD1C0203007B
:1088B00008B5024B1B681B6C019308BD1C0203002A
:1088C00008B5024B1B685B6C019308BD1C020300DA
:1088D00008B5024B1B689B6C019308BD1C0203008A
:1088E00008B5024B1B68DB6C019308BD1C0203003A
:1088F00008B5024B1B681B6D019308BD1C020300E9
:1089000008B5024B1B685B6D019308BD1C02030098
:108910000021FFF7ABBE10B54368013B044643603E
:1089200063B903689B689847A368013BA3602BB9B0
:1089300023682046DB68BDE81040184710BD70B5BD
:10894000D0E90053044605EB0316AE4204D0284696
:1089500002F000F81035F8E72068FFF771FF2046B5
:1089600070BD0000024800230360FFF72DBC00BF6C
:1089700010E60320002240681146FFF711BF0022D5
:1089800040681146FFF72CBF002240681146FFF7F0
:1089900037BF40680022FFF72BBF4068002281F0FC
:1089A0000101FFF715BF002340681A461946FFF77B
:1089B00007BF002340681A461946FFF7F9BE002298
:1089C00040681146FFF7DCBE406800220221FFF735
:1089D000DFBE002340681A46FFF7CABE70B5134BCE
:1089E00003601825303386B00E4643602A460021C6
:1089F0000446083003F0E2FA002270681146FFF7DF
:108A0000CFFE78B100212A46684603F0D7FA6946BE
:108A10000020ADF80050FFF7CFFB18B9694620469B
:108A200000F0B8F8204606B070BD00BF48D10B007A
:108A3000084B10B5282422461846002103F0BEFA40
:108A4000054B04804FF0FF32426004225A60034A13
:108A50001A6010BD1CE6032014E603200CD10B00A5
:108A60007047007B7047037B4BB10369B3F1004F44
:108A700005D08069B0F1004018BF01207047002088
:108A8000704703681B6A184770B503680D461B6979
:108A9000064698470221284601F038FE2C2104465C
:108AA000284601F03DFD336804449B6930469847F1
:108AB0000221284601F02AFE204470BDA0F10400E6
:108AC000FFF7E2BF10B520210446FBF7E8FA204685
:108AD00010BD0000037B7BB14369002B0CDB07EE6C
:108AE000903A9FED077AF8EEE77A87EE870ADFED96
:108AF000057A20EE270A7047BFEE000A704700BFD4
:108B000000FF7F470000C842037B63B10369B3F1F4
:108B1000004F08D007EE903A9FED047AF8EEE77A1E
:108B200087EE870A70479FED020A70470000C8422F
:108B300000000000037B7BB1C369002B0CDB07EE58
:108B4000903A9FED077AF8EEE77A87EE870ADFED35
:108B5000057A20EE270A7047BFEE000A704700BF73
:108B600000FF7F470000C842037B63B18369B3F114
:108B7000004F08D007EE903A9FED047AF8EEE77ABE
:108B800087EE870A70479FED020A70470000C842CF
:108B90000000000030B50D4600F108040FCD0FC4F1
:108BA00095E8030084E80300012030BD00224068FE
:108BB0001146FFF715BE002240681146FFF720BEA0
:108BC00040680022FFF714BE4068002281F00101D6
:108BD000FFF7FEBD002340681A461946FFF7F0BDB7
:108BE000002340681A461946FFF7E2BD002240689C
:108BF0001146FFF7D5BD002240681146FFF7C0BD02
:108C0000406800220221FFF7C3BD002340681A46D6
:108C1000FFF7AEBD024B03225A60024A1A6070474A
:108C200044E6032084D10B00006800F0E7B810B5DB
:108C30000446016002710AB1FFF7F6FF204610BD3D
:108C400013B50446019102F01FFC019A014620462B
:108C5000FFF7EDFF204602B010BD006800F0D7B866
:108C60002DE9FF4104461D460F461646FFF7DCFF7F
:108C700036220023CDE9002320684FF001080A23A3
:108C80006946CDE9028300F09DF820680368394603
:108C90009B6898472068036831469B68984720681E
:108CA000036829469B6898474146206800F0A2F86F
:108CB000002820460CBF00256FF09F05FFF7CDFF71
:108CC000284604B0BDE8F08108B540220023062103
:108CD000FFF7C6FF00EAE07008BD7047F8B506462A
:108CE00015460C468F18BC4206D0336814F8011B99
:108CF0009B6830469847F6E72846F8BD007C00227E
:108D0000FFF72ABB007C0021FFF72EBB007C00216F
:108D1000FFF732BB007C0021FFF736BB007C00214F
:108D2000FFF73ABB10B514210446FBF7B8F920460B
:108D300010BD000010B54FF47A73044608460021B8
:108D4000C4E90113034B236020741146FFF734FB81
:108D5000204610BDC0D10B000023007C1A461946E6
:108D6000FFF7E2BA7FB500221423CDE90122ADF866
:108D700004300B788DF808304B680393CB6804936C
:108D8000007C0B7A059301A9FFF72EFB07B05DF875
:108D900004FB1FB5003B8DF800104FF064010391F8
:108DA00018BF0123694601928DF80830FFF7DAFFFA
:108DB00005B05DF804FB007C0022FFF7BDBAC9B224
:108DC000FFF7F9BF7FB50023CDE901334A6803926D
:108DD0001423CA68ADF804300B7804920A7A05921D
:108DE000007C8DF8083001AA1946FFF7A5FA07B0F4
:108DF0005DF804FB007C0022FFF7A6BA08B500214D
:108E0000007CFFF7E1FAB0FA80F0400908BD08B530
:108E10000021007CFFF7E0FAB0FA80F0400908BDBD
:108E2000004700002DE9FF4100241D460F469046F3
:108E30000646FFF769FAA5424FF00403ADF80D406E
:108E40008DF80C308DF80F40A2BF9DF828308DF8BA
:108E50000E3003AC0749009443463A463046A8BF5B
:108E60008DF80D50FFF748FAB0FA80F0400904B0D1
:108E7000BDE8F081218E0B00704710B51821044623
:108E8000FBF70DF9204610BDF0B5037D062B8DB024
:108E90000E4600F104074FF0000412D000F108055F
:108EA00015F8011D0A22304601F049FBAF42044487
:108EB00019D0002CF4D02E21304601F031FB0444AF
:108EC000EEE72F236A4639460A208DF80040FFF767
:108ED00093FA684603F00FF933680246DB68694687
:108EE00030469847044620460DB0F0BD10B5054BFE
:108EF0000446112240F8043B002103F05FF82046AD
:108F000010BD00BFE8D10B000346074A10B543F877
:108F1000042B01F1100251F8044B43F8044B914229
:108F2000F9D10A781A7010BDE8D10B0010B59DF880
:108F3000084044EA032343EA024242EA016104236F
:108F40004160037510BD000007B5064B0360CB7888
:108F500000938B784A780978FFF7E8FF03B05DF853
:108F600004FB00BFE8D10B0000F11003012213F84D
:108F7000101C0129184608D153F8041C02EB4102C9
:108F8000013A03F11003F2D17047022904BF53F8EC
:108F9000041C5218F4E70EB4F0B588B000AF07F126
:108FA0003405102155F8042B7A6004462B467818B6
:108FB000FD60FFF765FC0F287A681AD900F10803F5
:108FC00023F007036E46ADEB030D411C2B466846AC
:108FD000FD60FFF755FC021E04DD236869469B68AF
:108FE00020469847B5462037BD46BDE8F04003B05F
:108FF00070470028F7D0236802469B6807F11001EC
:1090000020469847EFE738B50B6803604D68436822
:109010009D42044608D015B16B6801336B606068EF
:1090200008B1FFF778FC656038BD07B503688DF8B7
:1090300007109B6801220DF10701984703B05DF806
:1090400004FB0B461146002210B5C0E9002204467D
:1090500083600BB9204610BDFFF7D5FFFAE78368A0
:10906000EBB11A78032A1AD8DFE802F00417021BC2
:109070000520704702685B685268D05C2D2812D0CA
:10908000A0F13003092B0ED974280ED066280CD01D
:10909000A0F16E03584258417047062070470020E7
:1090A000704704207047032070470220704710B5B6
:1090B0000446FFF7D4FF02280ED0C31EDBB2012BFB
:1090C00014D82268A36850685B68BDE810400A2283
:1090D0000021184403F0D4B82268A36852685B6882
:1090E000D05CA0F174035842584110BD0020FCE749
:1090F00038B50023C0E9003304460E48C4E9020332
:10910000A9B10B78032B06D08BB9136858684B684C
:10911000C35C6E2B07D013684D6858688B68284471
:109120005B1BA060E36011462046FFF76CFF204602
:1091300038BD00BF51D20B0038B500250B46C0E941
:109140000055C0E90255C0E90455044611464BB12B
:109150001A78012A06D103F11002DB6882604361AC
:10916000FFF751FF204638BD10B54369044663B18F
:109170008068E060013B1030A0602061636113B142
:10918000FFF7F2FEA060012000E0184610BD10B508
:109190007D210446FFF749FF01232371204610BDBE
:1091A00008B50379012B02D0022B04D008BD2C2175
:1091B000FFF73BFFFAE73A21FAE710B50446FFF75D
:1091C000EFFF20467B21FFF730FF0023237120466D
:1091D00010BD000013B504460191FFF7E1FF2368BD
:1091E000019ADB68034920469847012320462371F2
:1091F00002B010BDDFCB0B0013B504460191FFF7A1
:10920000CFFF2368019ADB68034920469847012372
:109210002046237102B010BD6ACB0B002DE9F04748
:109220000D46222190460446FFF7FFFEDFF8A4908A
:10923000A8442F464745BA463DD017F8016B222E69
:1092400006D05C2E04D0304602F088FE0028F1D112
:109250002368AAEB05029B682946204698475C21B3
:109260002046FFF7E2FE0D2E0AD8072E1CD9A6F1E4
:109270000803052B18D8DFE803F00D0F111713159D
:10928000222E01D05C2E0FD131462046FFF7CDFEB5
:109290003D46CFE76221F8E77421F6E76E21F4E757
:1092A0006621F2E77221F0E723683246DB6849461F
:1092B00020469847ECE7BD4205D023687A1B9B689F
:1092C00029462046984722212046FFF7AEFEBDE8FA
:1092D000F08700BFF4D10B0013B50446CDE900219F
:1092E000FFF75EFF2046DDE90021FFF797FF02232D
:1092F0002046237102B010BD13B50446CDE900210C
:10930000FFF74EFF2046DDE90021FFF787FF01232D
:109310002046237102B010BD80680368DB681847DF
:109320007047084611B10B685B6818477047704773
:1093300070477047704738B504460D4600682E21C7
:1093400002F0BDFE2368C31A2B6023B1037803B17A
:10935000013023682060184638BD10B50C21044642
:10936000FAF79DFE204610BD10B504210446FAF719
:1093700096FE204610BD10B504210446FAF78FFE74
:10938000204610BDFEF730BF08B502F0A2FEB0FACD
:1093900080F0400908BD704710B50C4601F0B6FEDC
:1093A000844210D002F0B0F8844205D102F0ACF84B
:1093B000BDE8104001F043BE2CB1236820465B6835
:1093C000BDE81040184710BD0B6803604B68436050
:1093D00013B15A6801325A60704713B50446084603
:1093E000019102F088FE01990246204602B0BDE8D4
:1093F0001040FFF781BF13B504460846019102F003
:109400007AFE23680199DB680246204602B0BDE877
:109410001040184707B503688DF80710DB68012274
:109420000DF10701984703B05DF804FB0EB403B5D6
:1094300003AB002153F8042B006A019301F075F986
:1094400002B05DF804EB03B070470A6802604A6836
:1094500042600022C0E9022210B502618C6884607B
:10946000CC68C4600C698A60CA6004610A6110BD7E
:109470002DE9F74FD0E900844FF0140A00930AFB5E
:1094800004F4184BA41017465C434546002C21DD1C
:1094900066100AFB06F005EB00093A46B9F804B07D
:1094A000285801915F4528BF5A4602F02CFE00283B
:1094B00001994FF001030BD15F4503D1009A13705E
:1094C0003446E3E7FCD9A61B09F11405013EF7E792
:1094D000F9DBF5E7A5EB08050248AD10684303B0DA
:1094E000BDE8F08FCDCCCCCC7FB50369057E019172
:1094F00003B3F9B1002600F10C04039603A901A8F7
:10950000FFF719FF0146A8B10DF10B03039A8DF87F
:109510000B602046FFF7ACFF9DF80B3053B123687A
:10952000142404FB0034083434F9023C002BA8BF97
:10953000DDB2E3E7284604B070BD000010B5094C69
:109540002378BFF35B8FDB0709D42046FAF7B6FD1B
:1095500028B12046FAF7B7FD034802F0DBFC0348C8
:1095600010BD00BF50E603202F930B00C4DE032084
:1095700010B5094C2378BFF35B8FDB0709D4204675
:10958000FAF79CFD28B12046FAF79DFD034802F04A
:10959000C1FC034810BD00BF54E6032097930B00A5
:1095A000C8DE032038B500250446C0E90055C0E9EF
:1095B00004558560856140F8245FFEF705FEFFF7DE
:1095C000BDFFE061FFF7D4FF25732062204638BD60
:1095D00010B50A4C2378BFF35B8FDB070CD4204611
:1095E000FAF76CFD40B10648FFF7DCFF2046FAF7BA
:1095F0006AFD044802F08EFC014810BD4CE60320D1
:109600005CE60320259B0B00024A03490348002324
:10961000FFF70AB809990B0095980B0015980B00F5
:1096200000231A4619461846FEF7FEBF37B58D6867
:1096300004466846FFF7C8FE6A4629462046FFF7FB
:109640007BFD01A8FCF710F8204603B030BD37B50C
:10965000CD6804466846FFF7B7FE6A4629462046AD
:10966000FFF746FD01A8FBF7FFFF204603B030BD22
:1096700037B50D6904466846FFF7A6FE6A462946D7
:109680002046FFF7DEFC01A8FBF7EEFF204603B003
:1096900030BD000070B58AB00D46014604A8FFF742
:1096A000C5FF144E04A8FFF75FFDE8B104A96846A2
:1096B000FFF7CDFF02983146FFF766FE044610B172
:1096C0002C1E18BF012401A8FBF7CEFF002CE9D007
:1096D00004A96846FFF7CCFF6846FFF7E8FC28605E
:1096E00001A8FBF7C1FFDDE705A8FBF7BDFF0AB046
:1096F00070BD00BFFAD10B0037B50C4620461349A8
:10970000154602F0E6FC50B901F000FD4FF4165189
:1097100001F0EAFC03B0BDE8304001F0F7BC0C49B1
:10972000204602F0D6FC78B94FF4165301A928461A
:109730000193FFF7AFFF01F0E7FE019901F07CFC18
:1097400001F0E2FE03B030BD0020FBE7FFD10B00CB
:1097500006D20B0070B5D0E900531426044606FB70
:109760000356AE4205D005F10800FFF7F3FF1435AC
:10977000F7E72068FFF764F8204670BD10B504468F
:109780000C30FFF7E7FF2046FFF7D9F8204610BD61
:1097900010B5044B044640F8043BFFF7EFFF2046AA
:1097A00010BD00BFDCC90B0010B50446FFF7F0FF89
:1097B00020462421FAF773FC204610BD10B5034B58
:1097C00003600446FFF7E4FF204610BDA0D20B0063
:1097D00010B50446FFF7F2FF20462421FAF75FFC9C
:1097E000204610BD0022C0E9002210B582600C683E
:1097F00004604C6844608C680A604A6084608A60D7
:1098000010BD10B5036804461868FEF7F5FC204645
:1098100010BD00002DE9F04F87B0804603931C4B2C
:109820005B68C3F30803894616466BB9FFF7D0FEA1
:10983000044600F12403406A0593FFF7A3FD237B50
:109840002BB105A8FFF7DDFF07B0BDE8F08F0123BE
:109850002373D4E900535FFA89F905EB830AAA451B
:1098600012D055F8047B3146381DFFF73DFE814587
:10987000F5D33B68039A0092D3F808B04A463346C2
:1098800041463846D847EAE700232373D9E700BFAB
:1098900000ED00E02DE9F74F9B461A4B5B68C3F3E0
:1098A00008038046894616466BB9FFF791FE0446C9
:1098B00000F12403406A0193FFF764FD237B2BB181
:1098C00001A8FFF79EFF03B0BDE8F08F01232373CB
:1098D000D4E90053F6B205EB830A55450ED055F88E
:1098E000047B5946381DFFF7FFFD8642F5D33B68E0
:1098F0004A46DB68414638469847EEE70023237323
:10990000DEE700BF00ED00E02DE9F341164B5B6898
:10991000C3F3080305460F461BBBFFF759FE00F1D2
:1099200024030446406A0193FFF72CFDD4E9006349
:10993000462406EB8308B04509D101A8FFF761FF73
:10994000A542B4BF0020012002B0BDE8F08156F866
:10995000040B39460430FFF7C7FD8442A8BF044614
:10996000E9E70020F0E700BF00ED00E0F8B5D0E93E
:1099700001539D4204460E460DDB6F1C002F00680C
:1099800004DDB900FEF764FF18B9F8BDFEF758FF13
:1099900000202060A7602768626807EB85019200BD
:1099A000A2EB8502081D02F0EFFA47F82560636814
:1099B000013363600120E8E737B500F12403044672
:1099C000406A01930D46FFF7DDFCD4E9003203EB5A
:1099D0008202934219460BD00968A94203F104039D
:1099E000F7D101A8FFF70DFF0025284603B030BDD1
:1099F00029462046FFF7BAFF05460028F1D06368E4
:109A0000012B01D1FFF700FE01A8FFF7FAFEECE7FA
:109A100070B50446D0E900020B4600EB8202824298
:109A20000FD001461D6851F8046BAE4207D1521A9F
:109A300002F0AAFA6368013B6360012070BD08462A
:109A4000EDE70020FAE71FB500F124030446406A61
:109A500001910393FFF796FC01A92046FFF7D8FF79
:109A600018B163680BB9FFF7DBFD03A8FFF7C9FE68
:109A700004B010BD70B5D0E904561823044603FBAA
:109A80000656AE4215D005F110012046FFF7C0FF83
:109A900063680BB9FFF7C4FDE06929690368DB68F7
:109AA0009847696919B1206A0368DB6898471835D7
:109AB000E7E7D4E90453182606FB0356AE4204D068
:109AC000284600F047FF1835F8E70023636170BDB2
:109AD00073B50446FFF7A4FD04F12403606A019303
