:02000002B0004C
:1040000000400B0068D80B00000006000D00050200
:084010000401A30F00000000F1
:0440180008C30B00CE
:1040200009480A49884208B505D0094A824202D0A7
:10403000121A07F051FF0748074A0021121A07F029
:1040400073FF014808BD00BFDCDF032078D60B00FA
:10405000A0E10320A0E10320EDE7032070B5074EA7
:10406000074C07F099F8A41BA4080025AC4200D126
:1040700070BD56F8043B98470135F7E708D60B00AA
:1040800044D60B0000F09EB808B500F0A7F9BDE8D3
:10409000084007F039B804F03FB804F03DB804F028
:1040A00043B8000008B5034A03490C2003F0F8FEAA
:1040B000FEE700BF117B0B001CC30B000078B0FAB9
:1040C00080F040097047012303707047014B0122C3
:1040D0001A707047FCE10320074B1A781AB9074A97
:1040E00092F824202AB1064A0121117000221A7088
:1040F00070470122FBE700BFA0E1032020E5032079
:10410000FAE1032010B5034B0360044602F012F9F4
:10411000204610BD2CC50B0010B50446FFF7F2FF7A
:1041200020461021FFF7BBFF204610BDF8B5037DE8
:1041300005460F4616468BB10368DB6883B19A8843
:10414000012A06D09B68F9E79B684BB19A88012A3F
:10415000FAD12BB19A89BA42F6D19E732846F8BD9E
:104160000A49102007F0AAF9044668B1102200217C
:1041700007F0DAFE064B23600123A3802B69A360BE
:10418000A781A6732C61E9E72875E7E7E4D30B0064
:10419000100003000EB400B58CB00DAA4FF0200C37
:1041A00052F8041B0392CDE900120023016804AA0F
:1041B0001E20CDE904C303F083FE0CB05DF804EBD0
:1041C00003B0704730B54C4C4C4D89B041F288304B
:1041D00004F01AF800F0DCFD00F006FE01F0B4F87F
:1041E000082301212046638102F01EF800212046A9
:1041F00001F082FC7C21204601F0FCFB002000F055
:1042000013FB06F037FE3E4B0022002808BF1D4678
:1042100004A90320049203F06BFE002863D1049CE0
:104220000CB1236923B9374A37490A2003F038FE15
:104230000C2305936B4406930423079305AA236973
:1042400001212046984700284DD1BDF80C3007EEDB
:10425000903AFBEECC7A17EE900A07F09BFA2A46CA
:10426000CDE9000129492A482A4CFFF793FF06F0BF
:104270002FFE00210546E06906F0F8FC854201D0DA
:1042800000F0AAFF244D6B88092B2FD8012384F856
:1042900024300A236B8301F07FF9204820490088ED
:1042A00000254FF0FF330122009504F073FD1D48F7
:1042B0001D49008800954FF0FF332A4604F06AFD3F
:1042C0001A4B1A780AB902221A7094F82420184955
:1042D0000F48FFF75FFF174B1888002109B0BDE8B2
:1042E000304006F0F2BFFFEE007AB4E706F0C2FD00
:1042F0000028D0D10223CAE7A4E1032033C30B0076
:1043000031C30B00117B0B0039C30B005FC30B00E3
:1043100054E60320F0E4032020E5032016C90B0037
:10432000D9400B0014C90B00CD400B00FBE103206A
:1043300094C30B0012C90B002DE9F0411F4F204C14
:104340003A78204E022AC4B02FD106F093FD3A7875
:10435000337858B904EB021200921B4A04EB0313A2
:104360004FF4807104A803F0F7FE15E004EB03138B
:1043700004EB0214154A0393558BD2F8148006F00F
:1043800096FD45442D1ACDE90045039B104A4FF494
:10439000807104A803F0E0FE3B780E48337004A956
:1043A000FFF7F8FE44B0BDE8F081337804EB021269
:1043B000009204EB0313084AD2E700BFFBE103209D
:1043C000DCDF0320F8E10320C5C30B0020E5032058
:1043D000E5C30B0054E6032003C40B002DE9F047AE
:1043E0009D4E3378013B8AB0032B00F2C480DFE896
:1043F00013F0630104002600EB00984B1B78022B9E
:1044000001D0FFF799FF06F052FD9549D1E900214F
:10441000C317801A934A528B63EB010382424FF019
:10442000000272EB030308DA8F4B93F8243013B1C8
:10443000012333709FE00423FBE70323F9E7874B55
:104440001B78032B01D0FFF777FF0021874801F08D
:10445000D1FA844B5C8B824B1D6806F028FD2C44FE
:10446000251A06F024FD4219D31706A806F01AFCF7
:10447000069B7F497F482A46FFF78CFE06A806F078
:1044800021FA4FF4FA6003F0BFFE7B4B1A7D0AB1AC
:1044900002221A72794B7848B3F8009000224946FC
:1044A000FFF744FE764BB3F800A001225146FFF718
:1044B0003DFE037D074603B303684FF47A78DB685B
:1044C00008FB05F82BB19A88042A00F05C819B68F0
:1044D000F8E76C49102006F0F1FF0446002800F0D0
:1044E00050811022002107F01FFD674B2360042339
:1044F000A3803B69C4E902383C615F4903A806F028
:10450000EDFA5A484FF0FF3101F074FA039B002B8B
:1045100051D09A88012A4ED19B8999454ED15B4949
:1045200006A806F01AFA06A800F0DEFC06A806F0B7
:10453000C9F957494F48FFF72DFE02234FF4FA609F
:10454000337003F061FE06F0B2FC4219D31706A8DF
:1045500006F0A8FB069A019206F020FB019A4D494D
:1045600003464448FFF716FE06A806F0ABF9039889
:1045700008B103F0D9FD3D4801F070FD00F04CFE9C
:10458000454B1A785AB100221A70364B39481A72C4
:104590003C2159834149FFF7FDFD02233370404B15
:1045A0001A78002A00F0F28000221A700AB0BDE8E2
:1045B000F04701F01FB84FF6FF73AEE79A4502BF10
:1045C000374B01221A70B8E7244B334C1B78042B6D
:1045D00014D0FFF7B1FE00F0DFFF06F068FC204BBF
:1045E000C217C3E9000200F075F938B901232D4A5A
:1045F0002D4920482370FFF7CDFDBCE703F090FA6A
:10460000DFF8A090DFF8AC801A4F054603F088FA77
:1046100041F28733401B9842ADD800F041FB98B17E
:10462000114A00231384237006F041FC0D4B2178BE
:1046300058611C4A1D4B0F48002908BF1A461C49E7
:10464000FFF7A8FD0223F4E601234A464146384617
:104650002370FFF79FFDD9E7FBE10320F8E103207A
:10466000F0E1032020E50320F0E40320A4E103208F
:1046700018C40B0054E60320C4E1032014C90B0046
:1046800016C90B00E4D30B001000030044C40B0058
:1046900046C40B0070C40B00F9E10320F8C40B0002
:1046A000FAE1032011C40B0091C40B0014C40B00E9
:1046B000B1C40B00D9C40B00364B1B78012B01D0C1
:1046C000FFF73AFE344C94F82430012B2BD0022B08
:1046D000B8D100F045FA00284FD003F021FA2F4F4F
:1046E000DFF8BC90DFF8BC80054640F6B73A03F02F
:1046F00017FA401B5045A5D800F0D2FA0028F6D092
:1047000006F0D5FB4FF0000AC317C7E9000389F88C
:1047100000A006F0CCFBC8F8140006F0C8FB84F833
:1047200024A0A062E1E700F07DF930B303F0F8F9CE
:104730001A4FDFF86C90DFF86C80054640F6B73A08
:1047400003F0EEF9401B50453FF67CAF00F0A8FAAD
:104750000028F5D006F0ABFB4FF0000AC317C7E9FD
:10476000000389F800A006F0A2FBC8F8140006F0C8
:104770009EFB84F824A0A062E0E7094B01221A7096
:1047800060E73875B9E6C3F80C80B6E60AB0BDE854
:10479000F08700BFF8E10320F0E40320F0E10320FC
:1047A000F9E1032020E5032038B506F027FD0023BA
:1047B0001A46194606F032FD06F020FD00231A467F
:1047C0000D2106F023FD124A124D131D1360124BEA
:1047D0005360002401231375C2E90244146106F0FA
:1047E000E5FD4FF4005201462346284601F0AEFD98
:1047F0000A4B2B6006F0DAFD69220146084801F0F9
:1048000009F806F054FB074BC217C3E9000238BD94
:10481000C4E10320DCE10320100003002CC50B00E1
:10482000A4E10320F0E1032073B50646204802F01E
:10483000E5FB054630B91F491F48FFF7ABFC28468A
:1048400002B070BD9FED1D0A1D481E4C02F0D0FE47
:104850001B480022172103F045F82379802B11D043
:10486000606905F060FF4FF6FF71012005F051FF10
:104870002080BEB114491048FFF78CFC00236380F0
:1048800080232371A178114801F0B9FE0F4801F08F
:104890009CFE23790093024623880D490648FFF7C2
:1048A00079FCCCE7FF210A2005F033FF6080E7E7C1
:1048B0006CE3032040C50B0054E6032000C06444B1
:1048C0003CE2032020E503204CC50B0070E30320ED
:1048D0006BC50B00F7B52E492E482F4E2F4CFFF716
:1048E00059FC2F4B1F880121384606F0EEFC338817
:1048F00063701A0A73882270E3701A0A294BA27037
:104900001A8CA271110A5A8C61712272110A1A79D9
:1049100062729A681B7BE3720125F368E171A272EF
:10492000237325716573204801F0E7FE0012A07320
:104930001D4801F0E2FE1D4BE0731A7822745119F4
:10494000197014481A49FFF725FC0323009311221C
:1049500021461848002302F0EBF87288044658B943
:10496000034615490B48FFF715FC3846214606F06B
:10497000ACFC284603B0F0BD104906480023FFF701
:1049800009FC3846002106F0A0FC0020F2E700BF39
:10499000C2C50B0054E6032020E50320FFE10320FD
:1049A00012C90B00F0E403203CE20320FEE10320E7
:1049B000E1C50B006CE30320FBC50B0031C60B0007
:1049C00030B5134C134D6288134987B02846FFF762
:1049D000E1FB124AB2F80730D2F801205BBA12BAF2
:1049E0006383002319461046019206F047F9019AA5
:1049F00002A8002306F056F9638B029A084928465C
:104A0000FFF7C8FB02A805F05DFF012007B030BD2D
:104A100020E5032054E6032061C60B00FFE10320DC
:104A200092C60B0073B524492448254D254CFFF749
:104A3000B1FB254B1E880121304606F046FC2B8831
:104A400063701A0A6B882270E3701A0A2B79A270BD
:104A500023711E4801F051FE001260711B4801F0E5
:104A60004CFE69881A4B1B4AA071092988BF1A4657
:104A7000124819490125FFF78DFB2146174800957B
:104A80000023072202F054F8044650B914490B4899
:104A9000FFF780FB3046214606F017FC284602B09F
:104AA00070BD10490548FFF775FB3046002106F040
:104AB0000CFC0020F3E700BFC2C50B0054E6032046
:104AC00020E50320FFE1032012C90B003CE2032094
:104AD000D9C60B00C2C60B00EEC60B006CE3032068
:104AE0000EC70B0037C70B0010B5184C18491948F2
:104AF00088B0FFF74FFB6388092B174B06D81A784D
:104B0000802A03D1B3F8052052BA6280B3F8072097
:104B100052BA6283D3F8012012BA104600210392E0
:104B200006F0ACF8039A04A8002306F0BBF8638BE8
:104B3000049A0A49009307486388FFF72BFB04A8EF
:104B400005F0C0FE012008B010BD00BF20E5032025
:104B50005AC70B0054E60320FFE1032082C70B0075
:104B600073B52A492A482B4CFFF714FB2A4B1E88A1
:104B70000121304606F0A9FB284B1A885B88627039
:104B8000110A00251A0A2170A270E370257106F03F
:104B90008EF90016607106F08AF90014A07106F013
:104BA00086F90012E07106F082F920721C4801F0CB
:104BB000A4FD001260721A4801F09FFD194AA0720C
:104BC00092F82420184912482B46FFF7E3FA0523F0
:104BD0000093214615482B460B2201F0A9FF0446FD
:104BE00050B913490A48FFF7D5FA3046214606F076
:104BF0006CFB012002B070BD0E490548FFF7CAFAF0
:104C00003046294606F061FB2846F3E7BEC70B0095
:104C100054E60320FFE1032012C90B0020E5032026
:104C20003CE20320F0E40320E5C70B006CE3032023
:104C300015C80B0046C80B0030B5144D1449154C6F
:104C400089B02846FFF7A6FA134BD3F80120B3F832
:104C500005305BBA12BA63830023194610460392EB
:104C600006F00CF8039A04A8002306F01BF8638BE7
:104C7000049A0A49009328466388FFF78BFA04A830
:104C800005F020FE012009B030BD00BF54E603202E
:104C900071C80B0020E50320FFE1032082C70B0051
:104CA00070B58AB03A2300268DF82530234D24486C
:104CB00004960DF12703CDE902630DF1260300935D
:104CC00001964FF47A730DF12502294602F034F86B
:104CD000044618B9002420460AB070BD9DF825305E
:104CE0009DF82620EE54174D9DF8273016482B705E
:104CF000079201F002FD0196034614492878079AAD
:104D000001EB0011009112481249FFF743FA2B788A
:104D1000042B0DD02B78022B03D1FFF7E5FE0028E2
:104D2000D9D12B78062BD5D1FFF786FF0446D2E7E1
:104D3000FFF746FE0028EDD0CDE700BFFFE10320DE
:104D40006CE30320FDE103203CE203206CE0032040
:104D500054E6032099C80B0010B5084A084C0949CD
:104D600012780978084B204602F004FC21460748D7
:104D7000BDE81040002201F0D1BE00BF1AC90B00EF
:104D80003CE2032018C90B006CE503206CE3032010
:104D900008B513491348FFF7FDF90221042006F076
:104DA00083FA0021082006F07FFA0121072006F08F
:104DB0007BFA0021122006F077FA0121112006F07B
:104DC00073FA0121102006F06FFA0021102006F07E
:104DD0007CFA0021112006F078FA012008BD00BFFE
:104DE000DEC80B0054E6032010B51849184890B0EF
:104DF0002024FFF7CFF922460021684607F094F8F7
:104E0000224600210DEB04008DF8054007F08CF8D8
:104E100000210DEB04008DF8254003F0CFF841F29E
:104E2000D833ADF806300B4B029341F27003ADF866
:104E30000C30009B002143F400736846009303F09C
:104E4000BDF8003818BF012010B010BDF7C80B0026
:104E500054E6032084038403024B002283F82420B9
:104E6000704700BF20E503207047006A0368DB68D5
:104E7000184700000A4B10B50446036004F060FBBD
:104E8000214604F098FD06F0F7F806F0E9F8204610
:104E9000044B40F8043B04F029FC204610BD00BF41
:104EA00094C90B007CC90B0010B50446FFF7E2FF64
:104EB00020462421FFF7F3F8204610BD38B50468DA
:104EC00005467CB16368013B63605BB9236820469B
:104ED0009B689847A368013BA3601BB923682046E1
:104EE000DB689847284638BD30B5224995B004465E
:104EF00005F089FD38B120461E491F4C05F083FDA1
:104F000048B9207233E01D49204605F07CFD002899
:104F1000F1D115B030BDA38B01250B2B25721BD908
:104F2000174B184A402104A803F016F9164804A9A3
:104F3000FFF730F903F068F860B1144B14491B789F
:104F40008DF8003002A83C2304AA03F0FDFB03A85F
:104F5000FFF7B4FF0120DCE70E490B48FFF71AF911
:104F60000C23A3830C4B1D70237A002BD8D10B4B41
:104F7000D7E700BF24CB0B0020E5032044C40B007F
:104F80001EC90B0052C90B0054E60320B0E40320F5
:104F90006CC90B0025C90B00B1E4032022C90B002A
:104FA00070B5D0E900531426044606FB0356AE4202
:104FB00004D0284605F086FC1435F8E7206803F095
:104FC000B3F8204670BD8842F8B504460D46164633
:104FD00016D9904215D2A2F11406751AA1F1140740
:104FE0002C44B7421CD02CB13146204605F0E6FCDB
:104FF000337C2374304605F065FC143E143CF0E726
:105000000ED0B5420CD02CB12946204605F0D6FC76
:105010002B7C2374284605F055FC14351434F0E736
:10502000F8BD2DE9F0410023C0E9003383604F68EB
:105030009F4204460E4623DD4FF0140808FB07F09C
:1050400003F06AF80546D8B1D4E9001208FB021251
:10505000FFF7B9FF206803F067F82560A760D6E97D
:10506000007308FB0378B84508D03946284605F098
:10507000BFFC3B7C2B7414371435F4E77368636012
:105080002046BDE8F081000070B5274B274A012576
:105090001D70274B00248CB09A60C3E900440220A5
:1050A00002F038FF2146284602F04CFF2946042032
:1050B00002F01EFDCDE90044029405F0DDFF1D4C19
:1050C0000546694603A8FFF7ACFF264603A906A8D4
:1050D000FFF7A7FF184B46F8043B06A909A8FFF7FE
:1050E000A0FF09AA1E21304604F048FD09A8FFF7D9
:1050F00057FF06A8FFF754FF104B2360256203A853
:10510000FFF74EFF0E4B236005F0B6FF4FF416512C
:1051100005F0A2FF04F014FA214604F005FC6846ED
:10512000FFF73EFF0CB070BDB0E403200000FFFFAE
:10513000A4E40320B4E403207CC90B0084D20B0058
:1051400094C90B001FB502F05FFFD8B11C4B1D4A7C
:105150001B788DF800301C493C2302A803F0F4FAB8
:10516000039C7CB16368013B63605BB923682046A4
:105170009B689847A368013BA3601BB9236820463E
:10518000DB68984711491248FFF704F8114B0222D7
:105190005A8040F201129A800122DA711A720022BA
:1051A000C3E903229A771A6206223C2183F825205C
:1051B00016229983DA8404B0BDE81040FFF74CBE94
:1051C000D8E40320A4C90B006CC90B00BCC90B00B8
:1051D00054E6032020E5032038B5084D0849094866
:1051E0000024FEF7D7FF2C6205F061FE064BE86154
:1051F000DC6085F82440AC6238BD00BFF0E40320D9
:10520000D4C90B0054E6032020E50320014B012202
:105210001A707047D8E40320F8B5424C05F047FEF9
:10522000D4E90021C317801A63EB01033D2873F111
:10523000000375DB02F074FC054605F038FE3A4ABF
:105240003A4EC317C4E90003D2E904341C44136A7C
:105250001C4413881C4453881C4413791C44537900
:105260001C4493791C44D3791C44137A1C44D3689E
:105270001C44138B1C44938B1C44538B1C44937F02
:105280001C4492F824301C4492F825301C4492F8B7
:1052900026301C4492F827301C4433689C423DD091
:1052A00028230121224801F0E8F8346002F038FC9C
:1052B0002049421B2048FEF76DFF02F031FC0546F5
:1052C00001201E4E1E4F738834881C44B36A1C4450
:1052D00033791C44B3681C44337B1C4433691C443D
:1052E000338B1C44B37E1C44338C1C44738C1C4491
:1052F00096F824301C443B689C420ED002F010FC0F
:105300001049421B0C48FEF745FF0948302332463E
:10531000502101F0B2F83C600120F8BD0020D0E738
:105320000020FAE7E0E4032020E50320ECE403207A
:10533000DCE10320F5C90B0054E60320F0E4032070
:10534000E8E4032029CA0B0013B521492148FEF7E0
:1053500021FF214801F004F81F4801230DF1070245
:10536000002101F03FF89DF80740012C1CD01B499B
:105370001848FEF70FFF184800F0FCFF184A1648BF
:105380000423002101F079F8134801230DF10702ED
:10539000002101F027F89DF80740012C15D1FFF7F7
:1053A000D1FE204602B010BD0E490A48FEF7F2FEBB
:1053B00021460D4A0848282301F014F80B4A0648F4
:1053C0003023502101F00EF8EBE70020EAE700BFA0
:1053D0005CCA0B0054E60320DCE103207ACA0B0010
:1053E000DCCA0B00B7CA0B0020E50320F0E4032061
:1053F00010B503682F2B044604D9074A07490A2031
:1054000002F04EFD23681F2B83BF03F01F030448E7
:1054100023604FF0A04010BD117B0B0059CB0B0057
:105420000003005007EE900A9FED097AF8EEE77A44
:1054300067EE877A9FED077A87EE870ADFED067AB7
:1054400070EE677AB2EE040A87EE800A704700BFFA
:1054500000404E4500F07F450000FA4310B586B08D
:10546000002202A90720029202F042FD98B9029C94
:105470000CB1236923B9174A17490A2002F010FD1D
:105480000C23039301AB04930423059303AA23691C
:10549000012120469847114B114C1B7A0028A8BFC8
:1054A0000198207333B10F4803F0C6FB4FF4FA7034
:1054B00002F0AAFE0B4803F05DFBFDEEC07A17EE8A
:1054C000900A3C28D4BF00200120C4ED027A06B027
:1054D00010BD00BF117B0B0039C30B0020E503207A
:1054E000F0E4032050E5032037B50C4D012101A85D
:1054F00004F0F7FE2B79252B01A84FF0010409D900
:1055000004F082FF2C73002401A804F0F9FE204669
:1055100003B030BD04F05DFFF6E700BFF0E4032008
:1055200030B5194D0FCD97B00CAC0FC40FCD0FC4D3
:1055300095E8030084E80300144904A802F0F0FE93
:1055400004A802F030FF044604A802F065FF04A896
:1055500010EE105A02F090FF16AB10EE100A03EB9B
:10556000840406F017F9CDE90201284606F012F985
:10557000CDE90001064A54F8283C0648402102F0D3
:10558000EBFD17B030BD00BFD4CB0B0010E60320FD
:105590007DCB0B00ECE00320104B10B51888104CAD
:1055A00005F0BFFEFFF73EFFFDEEC07A0D4A17EE95
:1055B000903A102113712046DBB20B4A02F0CCFD69
:1055C0000A490B482246FEF7E5FDFFF747FFFFF7C4
:1055D0008BFFFFF7A5FF012010BD00BF1CC90B000A
:1055E000DCE00320F0E4032096CB0B009BCB0B0008
:1055F00054E60320F7B53D4E3D4C3378BFF35B8F47
:1056000013F0010F09D13046FEF758FD28B102F022
:10561000A7FA20603046FEF756FD364B1D882368FA
:105620002D015B5D5F013378BFF35B8FD90709D430
:105630002E48FEF743FD28B102F092FA20602B4875
:10564000FEF741FD23682B4401A85B7803F01F039C
:105650003B430193FFF7CCFE019A01239340C0F82E
:10566000083505F024FC24490A8C4B8CC8610132B2
:10567000013392B29BB20A844B8420482049FEF742
:1056800089FDC82002F0C0FD3378BFF35B8FDA07D5
:1056900009D41648FEF712FD28B102F061FA206025
:1056A0001248FEF710FD23685B5D5F013378BFF39E
:1056B0005B8FDB0709D40D48FEF700FD28B102F02F
:1056C0004FFA20600948FEF7FEFC23681D4401A83C
:1056D0006B7803F01F033B430193FFF789FE019AA8
:1056E00001239340C0F80C3503B0F0BD48E503201A
:1056F0004CE5032012C90B00F0E4032054E603201C
:10570000B6CB0B000148002103F0E8B950E50320B7
:10571000704710B520210446FEF7C1FC204610BD9D
:1057200030B585B00446089860B1406850B18568CE
:1057300045B1CDE90241CDE90023C46801AB6A4619
:1057400002A9A04705B030BD30B585B00068136828
:105750000193D1E900458368CDE902450BB905F015
:10576000B1FEC36801AA02A9984705B030BD012A5D
:1057700002D1016000207047022A04BF0B68036059
:10578000F8E703681268D1E90001184710B583688B
:10579000044613B1032201469847204610BD10B5B8
:1057A000044638B1FFF7F2FF20461021BDE8104053
:1057B000FEF775BC10BD10B504468AB008464FF020
:1057C000200C0021CDE90023CDE902C10B4602AA3D
:1057D000216802F075FB0AB010BD0EB403B503AB2F
:1057E000322153F8042B0193FFF7E5FF02B05DF877
:1057F00004EB03B070470EB403B503AB012153F8BB
:10580000042B0193FFF7D7FF02B05DF804EB03B060
:105810007047000010B50272FF2242810022C0E9E9
:10582000032242610276C261024A034C1060C0E961
:10583000004110BD5CE5032000CE0B002DE9F843CC
:105840009DF820800446894616461F46B8F1000F91
:1058500002D0406803F08AFA217A606803F063FAA4
:105860006068036849469B6898476068002103F0B8
:1058700079FA054600BB0123217A60683A4603F0B5
:1058800040FA8742034609D13744BE421CD06068C3
:1058900003685B69984706F8010BF6E70B490C486B
:1058A0004A46FFF79AFFB8F1000F02D0606803F094
:1058B00066FA2846BDE8F8830346064904484A4686
:1058C000FFF78BFF0025EEE70125ECE7FCCB0B0093
:1058D00058E5032021CC0B0007B500930123FFF707
:1058E000ADFF03B05DF804FB73B54389FF2B04469D
:1058F00010D0194E194D02F013F9B0F57A7F09D284
:10590000608905F0FBFC012804D031462846FEF7EB
:1059100041FCF0E701230DF1070228212046FFF7A3
:10592000DBFF30B90D480E49FEF734FC002002B011
:1059300070BD9DF80730182BF4D101230DF107023B
:1059400029212046FFF7C8FF0028EBD09DF807303B
:10595000052BE7D1EBE700BF45CC0B0058E5032052
:105960005ACC0B002DE9F0419DF8188004460F46F3
:1059700015461E46B8F1000F02D0406803F0F6F954
:10598000217A606803F0CFF96068036839469B6844
:1059900098472E44B542606805D0036815F8011B8E
:1059A0009B689847F6E7012103F0DCF9034670B1E4
:1059B000084909483A46FFF710FF0025B8F1000FE3
:1059C00002D0606803F0DBF92846BDE8F0810125CC
:1059D000F4E700BF67CC0B0058E503201FB58DF836
:1059E0000F2000930DF10F020123FFF7BBFF05B05D
:1059F0005DF804FBF8B50A460C4605461A491B48F3
:105A0000FEF7C8FB002CB8BFEC687CB90123224626
:105A10001B212846FFF7E2FF1549024606461348B8
:105A2000FFF7E9FEEC606C613046F8BD032C19DD30
:105A3000A7101F2FA8BF1F27BA0062F07C02012306
:105A4000D2B21B212846FFF7C9FF3A46034609494F
:105A500006460648FFF7CFFE4FF4FA635F43EC605B
:105A60006F61E1E70127E7E78CCC0B0058E50320E5
:105A700096CC0B00B2CC0B00064B1A684AB1A0F5CD
:105A800000630B4305D1D3681BB100211046FFF71B
:105A9000B1BF70475CE503202DE9FF419DF82880E8
:105AA000054616461F46B8F1000F04D04068019124
:105AB00003F05CF90199019100230DF10F022846D2
:105AC000FFF70AFF044660B19DF80F3003EA0602B3
:105AD0003A43934205D0019900232846FFF77EFF01
:105AE0000446B8F1000F02D0686803F048F9204678
:105AF00004B0BDE8F081000037B504460A463F48CF
:105B00000D463F49FFF777FE606803F02FF9002349
:105B10001A460F212046FFF761FF002313221021B0
:105B20002046FFF75BFF00233C2211212046FFF7B0
:105B300055FF0023E02212212046FFF74FFF0023EC
:105B4000262213212046FFF749FF00231A4617217A
:105B50002046FFF743FF15F0010348D000230093D0
:105B6000E322232318212046FFF796FF00231A463D
:105B700019212046FFF732FF00231A461A2120463A
:105B8000FFF72CFF00231A461B212046FFF726FFB4
:105B900015F0020F4FF000030CBF1A4688221C219B
:105BA0002046FFF71BFF00231A4620212046FFF75F
:105BB00015FF0023F02221212046FFF70FFF0023CD
:105BC0001A4626212046FFF709FF002380222721BD
:105BD0002046FFF703FF00231A4630212046FFF737
:105BE000FDFE606803F0CBF8012003B030BD232236
:105BF00018212046FFF7F2FEB8E700BF58E5032062
:105C0000D6CC0B0013B514460DF10702FFF764FE66
:105C100028B19DF807301C420CBF0120002002B0C3
:105C200010BD13B514460DF10702FFF755FE28B15C
:105C30009DF807301C4214BF0120002002B010BDA7
:105C400007B5D2430093D2B20023FFF725FF03B07C
:105C50005DF804FB37B501230DF107020F2104465F
:105C6000FFF73AFE054638B91E491F48AD22FFF737
:105C7000B4FD284603B030BD9DF8073013F0200F67
:105C80004FF001030BD02022E3610F212046FFF7E4
:105C9000D7FF164A16491448FEF77CFAE9E70822AE
:105CA00017212046FFF7BDFF18B10223114AE36117
:105CB000F0E79DF807301A0709D50323E3610822AE
:105CC00001230F212046FFF7BBFF0B4AE2E75B07EA
:105CD000CFD50422E26101230F212046FFF7B0FF58
:105CE000064AD7E71ACD0B0058E50320EBCC0B0092
:105CF00039CD0B00F4CC0B0004CD0B0014CD0B0000
:105D000007B500931346FF22FFF7C6FE03B05DF808
:105D100004FB2DE9F3479DF828A005460C46914663
:105D20001F46BAF1000F02D0406803F01FF807B316
:105D3000202F3E4628BF20267F2C26D83319802BC3
:105D400001D9C4F18006012304223F212846FFF730
:105D500077FF002364F07F0100934A463346C9B2BF
:105D60002846FFF76BFD804628B13444BF1BB14481
:105D7000DDE74FF00108BAF1000F02D0686802F0C9
:105D8000FEFF404602B0BDE8F087012304223F2118
:105D90002846FFF7B5FFDCE72DE9F3479DF828A07B
:105DA00005460C4691461F46BAF1000F02D04068E6
:105DB00002F0DCFF07B31F2F3E4628BF1F267F2CB3
:105DC00026D83319802B01D9C4F18006012304227F
:105DD0003F212846FFF734FF002364F07F01009342
:105DE0004A463346C9B22846FFF7BCFD804628B173
:105DF0003444BF1BB144DDE74FF00108BAF1000F96
:105E000002D0686802F0BBFF404602B0BDE8F087F0
:105E1000012304223F212846FFF772FFDCE7000040
:105E200030B585B00D68D1E9043203954D6802950F
:105E30008D680195C96800910133044902F26C72C2
:105E4000044604F0F3FD204605B030BD4ACD0B00FA
:105E500003090A2200F00F0002FB0300704738B567
:105E6000044600781546FFF7F3FF08606078FFF7F7
:105E7000EFFF4860A078FFF7EBFF8860E078FFF75E
:105E8000E7FFC8602079FFF7E3FF013808612DB90B
:105E9000651D2878FFF7DCFF886138BD6079FFF762
:105EA000D7FF6430A51D4861F3E7000070B50123FA
:105EB00088B00D461A4610210446FFF7A3FEF0B144
:105EC00008230126204600960DEB03020021FFF770
:105ED000B5FC044698B1324629460DF10900FFF79A
:105EE000BEFF04A8FFF79CFF0848049A0849FEF784
:105EF00051F904A804F0E6FC204608B070BD242245
:105F00000021284606F010F80024F5E758E50320A4
:105F100068CD0B0030B58BB00D4601A9FFF7C6FF69
:105F2000044620B101A802F067F9C5E90001204646
:105F30000BB030BD0A2390FBF3F103FB110091FB82
:105F4000F3F203FB121240EA0210C0B2704770B5C0
:105F5000054600680C461646FFF7ECFF207068689F
:105F6000FFF7E8FF6070A868FFF7E4FFA070E8683B
:105F7000FFF7E0FFE07028690130FFF7DBFF2071D9
:105F80002EB9661DA869FFF7D5FF307070BD6A692C
:105F9000642392FBF3F003FB1020FFF7CBFFA61D59
:105FA0006071EFE7F0B587B0054602A816460C46CB
:105FB000FFF736FF1E48029A1E49FEF7EBF802A8CB
:105FC00004F080FC16B1686802F0D0FE2046012281
:105FD0000DF1090100278DF80870FFF7B8FF0123C4
:105FE0001A4610212846FFF78BFE0446E8B1082325
:105FF00000970DEB030239462846FFF7B3FC044631
:1060000060B101231A4610212846FFF719FE16B188
:10601000686802F0B4FE204607B0F0BD4FF48D7200
:1060200005490348FFF7D9FBF1E74FF48F72F7E713
:1060300058E5032076CD0B0084CD0B0013B5044644
:106040006846CDE9002305F021FF9DF810200146A8
:106050002046FFF7A7FF02B010BD0000F0B5057E97
:1060600089B0044675BB04F005FF58B3002600272D
:1060700004A92846CDE9046701F0DEFF10B301252D
:10608000257604F014FFC317CDE9020302460095FC
:106090002046FFF7D3FF02A92046CDE90267FFF7AC
:1060A00039FF134B13491B68009304A8DDE9022351
:1060B00004F09EFE1048049A1049FEF76BF804A8FD
:1060C00004F000FC63698BB101F02AFD2369C01A5A
:1060D000636998420AD301F023FD4FF0FF3120613C
:1060E000204609B0BDE8F040FFF784BC09B0F0BD20
:1060F00034E10320A8E6032058E503209FCD0B00E0
:1061000038B5002383608B6804460D462BB102220C
:106110009847EB68E360AB68A360204638BD000099
:106120002DE9F04395B005461C9904A890461F46FA
:106130000CAEFFF7E5FF04A908A8FFF7E1FF08A9E7
:106140003046FFF7DDFF4FF000091020CDF84890F2
:10615000FDF7A1FF0446A0B196E8030001AB83E878
:10616000030094E8030086E8030093E803000E9B15
:10617000E268A36084E803000F9BCDF838900F928B
:10618000E360244B1393244B1293002200234FF01F
:106190000009C5E90023214BC5F808901020109490
:1061A000CDE90139CDF80C90FDF775FF0446D8B163
:1061B000129BC0F8089033B1022210A99847139B94
:1061C000E360129BA360164B0393164A029401AB43
:1061D0004046394601F0AEFEB0B12046FFF7D6FA90
:1061E00010212046FDF75BFF10A8FFF7CFFA3046DD
:1061F000FFF7CCFA08A8FFF7C9FA04A8FFF7C6FA18
:10620000284615B0BDE8F083029BAB60C5E9008766
:10621000EAE700BF49570B00DD620B0002000C00EB
:106220009F570B0021570B0030B504468BB011B1BE
:10623000406802F049FD2046FFF756FB06AD0028F6
:1062400037D02046FFF706FD01231A4610212046CD
:10625000FFF7D8FCD8B104F00DFEC0B902A9204662
:10626000FFF758FEDDE9020104F008FD134B144965
:106270001B6800932846DDE9022304F0B9FD1148AC
:10628000069A1149FDF786FF284604F01BFB0F4BC9
:1062900006930F4B09930F4B08934FF400620023B2
:1062A00002A80095FFF73CFF2846FFF76FFA0BB0F6
:1062B00030BD09490348FFF790FAE8E734E10320CD
:1062C000A8E6032058E50320B5CD0B00795A0B0052
:1062D00083570B006F570B00D2CD0B00012A37B547
:1062E000044604D10B680360002003B030BD022ACD
:1062F0000CD0032AF8D10468002CF5D02046FFF713
:1063000045FA10212046FDF7CAFEEDE70968019124
:106310001020FDF7C0FE054610B10199FFF7F0FE11
:106320002560E1E7014B024A1A60704758E50320F7
:10633000EACD0B00704710B510210446FDF7AFFE03
:10634000204610BD0368C9B29B68184730B5034D9D
:10635000C0E90223C0E9005130BD00BF44CE0B00AC
:10636000406802F0B1BC10B50446006802F007FDB9
:10637000204610BD2DE9F0418AB0044640680190E6
:1063800002F0F4FC1E22002102A8A76805F0CCFD53
:106390000026EFB123681E2FB84628BF4FF01E0815
:1063A000DD6802AA434631462046A847054658B94B
:1063B0000A480B493246FDF7EDFE01A8FFF7D3FF6F
:1063C00028460AB0BDE8F081A7EB08074644E0E79D
:1063D00001A8FFF7C8FF0125F2E700BF54E603203C
:1063E00010CE0B002DE9F7430446406801900D469E
:1063F00016461F4602F0BAFCA7B1E168606841F09A
:10640000500102F094FC290A6068FFF79BFF2946BF
:106410006068FFF797FF6068002102F0A3FC48B1B5
:10642000002400E0012401A8FFF79DFF204603B0EF
:10643000BDE8F083202F217B6068B84628BF4FF06D
:1064400020080123424641F0500102F05AFC04F0BA
:10645000ADFF03681B6998474045E1DB06EB08097F
:1064600004F0A4FF03685B69984706F8010B4E45EA
:10647000F6D14544A7EB0807BEE72DE9F74F0446E0
:10648000406801900E4690461D4602F06FFC4FF0AA
:106490000109B9F1000F2AD04DB3E168606841F0FD
:1064A000500102F044FC310A6068FFF74BFF60685E
:1064B0003146FFF747FFA5F11E0A4746A6EB080B3A
:1064C000606817F8011B0368013D9B6898475545B4
:1064D0000BEB0706B84601D0002DF1D16068012111
:1064E00002F040FC0028D7D04FF00009D1E701A806
:1064F000FFF739FF484603B0BDE8F08F2DE9F043C0
:106500008BB00E4615468046406801901C4602F04E
:106510002DFCAE4229D2264425448CB11E2C2746A0
:10652000D8F8003028BF1E27F61BD3F8089002AA1F
:106530003B4631464046ED1BC84748B9002400E0C1
:10654000012401A8FFF70FFF20460BB0BDE8F08340
:10655000D8F8003002AAD3F80C9029463B464046B2
:10656000C8470028EAD0E41BD7E7E9D9002CE7D0D8
:10657000D8F800301E2C274628BF1E27D3F80890D5
:1065800002AA3B4631464046C8470028D6D0D8F834
:10659000003002AAD3F80C9029463B464046C84733
:1065A0000028CBD03E443D44E41BDFE7016002718C
:1065B000704700680368DB681847006803681B6A57
:1065C0001847006803689B6A18470079704700689D
:1065D00003689B6B184737B505460C461946019270
:1065E000FFF7F5FF2868019A03685B69214603B04D
:1065F000BDE83040184700680368DB6B184738B5C2
:106600000446006803680D465B6B984729462046A0
:10661000FFF7F1FF257138BD38B5044600680368FF
:106620009B689847054618B121792046FFF7E7FF98
:10663000284638BD006803681B6C1847006803686B
:106640005B6C184700680368DB6C184700680368D8
:106650001B6D1847006803685B6D18470068036886
:106660009B6D18472DE9F843044600680A9F1E46B3
:1066700003681B69DDE9089898470546C8B11EB153
:106680002046FFF7E3FF3070B9F1000F04D0204639
:10669000FFF7D8FF89F80000B8F1000F04D02046BA
:1066A000FFF7D8FF88F800001FB12046FFF7D6FF9C
:1066B00038702846BDE8F883012070470379032B22
:1066C000FCD00120704700207047817170474171F4
:1066D0007047C17270470173704741737047837B85
:1066E00023EA0202114381737047C0797047007A30
:1066F0007047407A7047807A7047008A00B27047CE
:106700000079704701717047408A80B27047808A73
:1067100080B27047C08A80B2704738B505460C46D3
:106720002B682846DB68984728B9002CF8D020460B
:1067300001F06AFDF4E738BDF8B505460F4614468A
:1067400001F0EEF9064601F0EBF9801BB8420AD2DF
:106750002B682846DB68984730B9002CF3D02046D8
:1067600001F052FDEFE70020F8BD70B504460E467B
:1067700001F0D6F9054601F0D3F9401BB04204D22E
:106780002379032BF7D0012070BD0020FCE770B502
:10679000C3690446B3B101F0C3F964260546236812
:1067A00020461B6B984768B101F0BAF9E369401BBA
:1067B000984209D80A21012003F0ABFF704301F091
:1067C00023FDECE7012070BD0020FCE7064A0260D3
:1067D000FF210022027141714282C1728282818155
:1067E0008273C282C261704760CE0B0070477047EF
:1067F00070477047704741717047817170470171F0
:106800007047000030B5034D05600171427183711E
:1068100030BD00BFE0CE0B00704710B5102104461C
:10682000FDF73DFC204610BD0EB403B503AB0021BF
:1068300053F8042B019303F030FF02B05DF804EB32
:1068400003B0704773B5044608462279A36832B195
:10685000A3B90B4902B0BDE8704003F015BE094A68
:10686000267B094D0949647B012E18BF2946CDE9D5
:1068700000140749FFF7D8FF02B070BD054AEFE7E3
:106880001DCF0B004DD20B0019CF0B0015CF0B0005
:1068900033CF0B000CCF0B0010B50446FFF7B2FF4F
:1068A000054B2360054BA360012323730023236161
:1068B000A382204610BD00BF6CCF0B0058CF0B0049
:1068C00013B50B4C2178BFF35B8F11F001010BD195
:1068D00020460191FDF7F2FB019928B1054803F02C
:1068E00031FF2046FDF7EFFB024802B010BD00BFAC
:1068F00060E5032064E5032007B50191FFF7E0FFA1
:10690000019903B05DF804EB03F0D4BF08B5FFF7BD
:10691000D7FFBDE8084003F0D3BF08B5FFF7D0FFAD
:10692000BDE8084003F0CDBF10B50379042B20D09B
:10693000032B20D0022B20D0114A1249012B18BF63
:106940000A4641798379013918BF012133B1012BFE
:1069500004D0022B02D0032B18BF002300240473A1
:10696000026101754375FFF7ABFFBDE8104003F00E
:10697000F3BE054AE5E7054AE3E7054AE1E700BF5C
:1069800080841E0040420F000024F40000127A00B0
:1069900000093D0008B5FFF793FFBDE8084003F08C
:1069A000EFBE10B50446FFF78BFF04F10801BDE808
:1069B000104003F011BF08B5FFF782FFBDE80840A3
:1069C00003F0F0BE08B5FFF77BFF08BD00230248C7
:1069D0001A461946FFF760BF6CE50320012A05D16E
:1069E000007A0B781B1A58425841704700207047B4
:1069F0002DE9F047254C012386B0237063700023F6
:106A00000F46A17000930322FF232146064600F0A3
:106A1000E3FB20B10025284606B0BDE8F0873B2304
:106A20008DF8173001F07CF806F10409804608F56E
:106A30007A6501F075F8291A0029EBDD002289B288
:106A40004846FFF7BEFD0028F3D00023CDE902330E
:106A5000CDE900330DF117022146304600F0C6FBA8
:106A600005460028E3D09DF81730012BDFD994F8B4
:106A700000A0BAF1020FDAD14846FFF7E7FD53460E
:106A800002463946304600F01EFBC4E784E5032089
:106A9000012A2DE9F34107460E4614463BD94D79AC
:106AA000022D30D100F10408C97901914046FFF769
:106AB000CDFD083C2B4602460199384600F003FB09
:106AC000E5B206F1080300242246954204F10104D0
:106AD000E4B204D913F8012B397A9142F4D104F1CC
:106AE00008010E44A54216D916F8011B0191404633
:106AF000FFF7ACFD01340246019902233846E4B2A7
:106B000000F0E1FAEEE7032D05D1897902B0BDE886
:106B1000F04100F0C1BA02B0BDE8F08110B5044602
:106B200000F012FB014B2360204610BDA0CF0B00EC
:106B30002DE9F0473A2A9DF8209006460F46144664
:106B40001D4625D8FF2B14D1DFF84880404600238E
:106B50002246394600F8013B05F0BEF9621CCDF82B
:106B600020902B4641463046D2B2BDE8F04700F0B7
:106B700033BB194600F04CFA0028E5D133682946AA
:106B80009B68304698470028DED10220BDE8F08798
:106B90000120FBE784E503202DE9F04F89B09846FA
:106BA0003B238DF81A300DF11F0303930DF11E03E3
:106BB00002935D4E0DF11D03019307AB00938946CF
:106BC00017460DF11B030DF11A023146DDE912BA29
:106BD000054600F00BFB044620B90024204609B00E
:106BE000BDE8F08F9DF81A3073B3327862BBB8F10C
:106BF000000F03D09DF81B2088F80020BBF1000F88
:106C000003D09DF81C208BF80020BAF1000F03D0B0
:106C10009DF81D208AF80020149A1AB114999DF845
:106C20001E200A70159A1AB115999DF81F200A7036
:106C30003A783E49013BDBB29A4288BF3B703A78D2
:106C4000484605F049F9C9E79DF81C20FF2AC4D140
:106C5000012BC2D93278012ABFD12A7A9DF81B4074
:106C6000A242BAD0DF1E3249FFB200235FFA83F896
:106C7000474506D911F8010B824203F10103F5D112
:106C8000ABE705F104094846FFF7E0FC02230246A2
:106C90002146284600F017FA95F8173193B1224C97
:106CA000A31BDBB29F420CD9E17805914846FFF760
:106CB000CDFC059902460223284600F004FA01346F
:106CC000EEE7B8462B687278DB681A492846984781
:106CD000044660B10223002433709DF81A209DF809
:106CE0001B3011490094284600F076FA76E795F8B3
:106CF000163143457FF671AF95F81731002B3FF4FD
:106D00006CAF9DF81A202B7A07493E440132F3708C
:106D10009DF81B300190D2B200932846FF238DF8D6
:106D20001A2000F023FA59E784E5032085E50320C3
:106D300087E5032086E503202DE9F04F85B08046E6
:106D40001C46DDE91056129F8946924600F0E8FE87
:106D500008F1040B044400F0E3FE201A002816DDBD
:106D600081B200225846FFF72CFC0028F3D00F9B7D
:106D70000093CDE902670E9B019552464946404675
:106D8000FFF70AFF0028E6D005B0BDE8F08F00202D
:106D9000FAE70000F0B585B0054604300E460392D0
:106DA000FFF754FC039A07463146284600F047F99E
:106DB0000228044601D005281BD13178284600F06E
:106DC0006BF972782B7A9A4213D00B4C0323237001
:106DD00033786370717802233A46284600F073F9DD
:106DE00000230093214673780222284600F0F4F92C
:106DF0000446204605B0F0BD84E5032010B50446E6
:106E0000FFF7D4FBC8230021E3810323A160217392
:106E100023744FF4807204F1110005F085F82046C8
:106E200010BD1FB504460192FFF704FC2046002266
:106E30008021FFF703FC2122019B8DF80F200DF12B
:106E40000F0101222046FFF7C6FB2046FFF7B5FBE6
:106E500004B010BD2DE9F04F057B0135EDB287B0D0
:106E6000044689469246984605730027227C3B4695
:106E70009A4207F10107FFB26BD329462046FFF77C
:106E8000D9FB012F0DBFC0228022402100212046C6
:106E9000FFF7D4FB4346524649462046FFF79BFB8B
:106EA0002046FFF78AFBB8F1FF0F54D0012F82BFB5
:106EB000A3680133A36000F033FE4FF48071834672
:106EC0000020E68903F025FC704348BFFF3006EB45
:106ED00020261BFA86F600F023FE301A0028C5DDB6
:106EE00081B200222046FFF76CFB0028F3D00DF1A1
:106EF000170302930DF11603019300220DF1150300
:106F00000093114605AB2046FFF7ACFB0028E2D00A
:106F10009DF814209DF9173042450ED194F804C015
:106F20009DF815108C4508D1002B08DA9DF8163015
:106F3000AB42D0D107B0BDE8F08F002BCBDBA1185E
:106F40009DF81630497C9942C5D12046FFF769FF6C
:106F5000C1E70020EEE70120ECE72DE9F04389B01E
:106F6000CDE90421DDE91098129F04461E46FFF783
:106F700020FBDDE9042120B90025284609B0BDE841
:106F8000F0830DF11F0302930DF11E0301930DF128
:106F90001D030093204607ABFFF764FB054600285E
:106FA000EAD09DF91F30002BE6DB22799DF81D30D9
:106FB0009A4206D19DF81C209DF81E102046FFF72E
:106FC00030FF9DF81C209DF81E301444617C9942CE
:106FD000D2D006B13270B9F1000F03D09DF81D2058
:106FE00089F80020B8F1000F01D088F8003017B1FF
:106FF0009DF81F203A706374BFE7704710B50446D0
:107000000430FFF709FB10B11E2384F8163110BDC0
:1070100010B50246002392F818418C4208D192F82C
:107020001A412CB103EB430303F58C73184410BDD4
:1070300001330A2B02F10302EDD10020F7E737B547
:107040000B78FF2B05460C4606D019460192FFF738
:10705000DFFF58B14378019A2146281DFFF7FAFE59
:10706000002814BF0020052003B030BD0220FBE73C
:1070700010B501EB41030446C1F1090203F58C7020
:1070800003F21B1102EB42022144204404F024FFCE
:10709000002384F8353110BD38B50A46002300F5C9
:1070A0008C7403EB4305D9B2655D954203D1FFF7BC
:1070B000DFFF012038BD01330A2BF2D10020F9E7B0
:1070C0000021FFF7D5BFF8B516461F4604460D460A
:1070D000002300F58C7203EB4300115CA94205D13B
:1070E000204480F8196180F81A71F8BD01330A2B29
:1070F000F1D1002304F58D7203EB4300115C19B943
:10710000204480F81851ECE701330A2BF4D12046D3
:10711000FFF7D6FF204604F11E0390F81A212AB982
:1071200080F8185180F8196180F81A71033098427C
:10713000F3D1DAE700F11E03002280F81A210330B0
:107140009842FAD17047000010B504460430FFF7AA
:1071500055FE054B23604FF48F732046A4F816317B
:10716000FFF7E8FF204610BDB8CF0B002DE9F3472D
:107170000446406801911F4603689DF828A09B695A
:107180009DF82C901646984706F1050880451CD8B6
:10719000104D019985F801A00023AB7094F81531CA
:1071A000EB705A1C84F81521681D32462F7085F843
:1071B000049004F091FE23685B685FFA88F2294628
:1071C000204602B0BDE8F0471847012002B0BDE8F4
:1071D000F08700BFBFE5032013B59DF81040019470
:1071E000047A0094FFF7C2FF02B010BD2DE9F04F02
:1071F00087B01F4640238DF813300DF1170302931B
:10720000DFF8D0900DF1160301930DF115030093F3
:1072100004468846164605AB0DF113024946043074
:10722000DDE910BAFFF799FE054608B9002538E0F8
:1072300023689DF813201B6849462046984799F813
:107240000030227A9A4201D0FF2B2ED117B1214B68
:107250005B783B70BBF1000F03D01E4B1B788BF8A3
:107260000030BAF1000F03D01A4BDB788AF80030F7
:10727000129B1BB1174B129A1B791370139B1BB1F6
:10728000144B139A9B7813709DF81330327812497F
:10729000053BDBB29A4288BF33703278404604F037
:1072A0001BFE284607B0BDE8F08F99F802305A1C43
:1072B00089F8022094F816219A42B7D994F8173128
:1072C000002BB3D023689DF813205B684946204605
:1072D0009847ABE7BFE50320C4E5032010B504469B
:1072E000006A0368DB68984794F82400FF2802D0FE
:1072F000012103F0D9FF23682046DB6F9847642003
:1073000000F082FF012010BD90F82400002103F05E
:10731000DCBF90F82400012103F0D7BF70B504460C
:107320000D461646FFF752FA034B2360266284F897
:107330002450204670BD00BFC8CF0B0038B50446AE
:10734000006A03681B6A0D469847236820469B6FB6
:107350009847206A036805F07F011B689847206AF8
:10736000036800211B68984723680546DB6F2046A9
:107370009847206A03685B6A9847284638BD70B50D
:107380000446006A03681B6A16460D469847236840
:1073900020469B6F9847206A036845F080011B6870
:1073A00098470546206A036831461B6898470120C4
:1073B00000F0AEFB23682046DB6F9847206A036825
:1073C0005B6A9847284670BDF8B50446006A1E46B9
:1073D00003681B6A0F4615469847236820469B6F33
:1073E0009847206A036807F07F011B6898472E447E
:1073F0000746B54207D0206A036800211B689847FA
:1074000005F8010BF5E723682046DB6F9847206AF3
:1074100003685B6A98473846F8BDF8B50446006AC9
:107420001E4603681B6A0F46154698472368204688
:107430009B6F9847206A036847F080011B68984754
:107440002E440746B54206D0206A15F8011B036892
:107450001B689847F6E723682046DB6F9847206A49
:1074600003685B6A98473846F8BD006A03689B6A00
:10747000184701207047FB207047704710B503790B
:10748000052B044610D003680521D3F880309847B7
:10749000072201212046FFF772FF8022402120466B
:1074A000FFF76DFF052323712379052BFCD0207E88
:1074B00010BD10B54FF498710446FCF7F0FD20465E
:1074C00010BD10B50379012B04460BD003680121D0
:1074D000D3F880309847002201212046FFF74FFF64
:1074E00001232371012010BDF8B50368DB68044651
:1074F0000F46154698470646B0B187B17DB194F85E
:1075000028302A78033B9342DEBF94F82830043BAE
:107510002B702A7804F12D01384604F0DDFC00239D
:1075200084F8283184F828303046F8BD142938B55D
:1075300005460C4614DC012914DD112913DD072250
:107540004D212846FFF71BFF033C64B2A21E62F0E8
:107550007F022846D2B2BDE838400921FFF70FBFAD
:107560001424ECE7022404224D212846FFF707FFEC
:10757000ECE7000038B5044615461A46FFF7CEFE84
:10758000094B2360FF22002384F82720012284F87E
:10759000283184F82C3184F8265084F82B2184F883
:1075A0002530204638BD00BF60D00B0090F8283051
:1075B000032B1BD990F82930C37190F82A3003723D
:1075C00090F82B30437290F82C308372837933B962
:1075D000C37942799A4202D0C379FF2B06D1838ABC
:1075E00001339BB28382012380F828317047000069
:1075F00038B504462DED028B10EE100AB0EE408A2D
:1076000004F0C8F817A3D3E9002304F01BF917A36B
:10761000D3E9002304F040FA04F0ECFB0621054610
:10762000C0F307422046FFF7AAFEC5F30722072151
:107630002046FFF7A4FEEAB208212046FFF79FFE8E
:10764000DFED077AB4EEE78ABDEC028BF1EE10FABB
:10765000ACBF01230023012084F8293138BD00BFCD
:1076600000C042440000000080842E410000000061
:1076700080844E4010B50379022B04460BD003687A
:107680000221D3F880309847012211462046FFF7A7
:1076900076FE0223237110BD70B512210446FFF758
:1076A0004DFE1C2105462046FFF748FEFF220646F8
:1076B00012212046FFF763FE2379042B07D115F032
:1076C000A00F17D194F82B310BB1700612D5237986
:1076D000042B01D1690622D42379032B01D12A0777
:1076E00068D42379052B0ED16B070CD505F0010565
:1076F000257663E0638A01339BB26382002384F8BA
:10770000283184F82830FF2212212046FFF737FE67
:107710002046FF22BDE870401221FFF730BE132142
:107720002046FFF70BFE102105462046FFF706FE18
:107730000D2102462046FFF722FE04F129022B46C6
:1077400000212046FFF740FE192184F828502046EA
:10775000FFF7F4FD40B20028B8BF0330801084F872
:107760002A011A212046FFF7E9FD94F92A3100B2D7
:10777000002B2082A9BF238A228A1BB21B01B2BF21
:107780009B180F2293FBF2F31BB2238294F829314A
:107790006BB1238A9D3B1BB223822046FFF706FF75
:1077A00094F82831002BAED0FFF764FFABE7238AB3
:1077B000A43BF0E7E38A01339BB2E3822046F3E780
:1077C000024B186808B1FFF767BF704700E6032057
:1077D000024B586808B1FFF75FBF704700E603200F
:1077E000024B986808B1FFF757BF704700E60320C7
:1077F00010B50379042B044610D003680421D3F894
:1078000080309847052201212046FFF7B8FD00226D
:1078100040212046FFF7B3FD0423237110BD10B5AE
:107820000379032B044605D0FFF7E2FF94F8280103
:10783000C0B210BD0020FCE710B50379032B04464D
:1078400010D003680321D3F8803098470322012128
:107850002046FFF794FD402211462046FFF78FFD9A
:107860000323237110BDFB2AF8B504460F461546C5
:1078700002D900263046F8BD03681B6A98472046A7
:10788000FFF7F8FE23682046DB6A98470646002883
:10789000EFD000220D212046FFF771FDE27A002192
:1078A0002046FFF76CFD227B00212046FFF767FD95
:1078B000627B00212046FFF762FDA27B002120466B
:1078C000FFF75DFD2B463A4600212046FFF7A5FD58
:1078D0002A1DD2B222212046FFF751FD2046FFF794
:1078E000ABFFC7E710B5044680F8252072B181F3DD
:1078F000040242F07002D2B20921FFF740FD204697
:107900000422BDE810404D21FFF739BDBDE810400D
:10791000FFF70CBE38B50C4605460A781D21FFF767
:107920002EFD62781E212846FFF729FDA278284601
:107930002621BDE83840FFF722BD0000052913B518
:107940000FD8094B01EB41015C185A5AA378ADF8E6
:10795000042001A98DF80630FFF7DCFF012002B0FA
:1079600010BD0020FBE700BF48D00B0038B50A0A65
:1079700005460C462021FFF702FDE2B228462121F0
:10798000BDE83840FFF7FBBC73B50446FFF7A6FC23
:10799000064618B90026304602B070BD94F826504D
:1079A000FF2D54D029462046FFF75FFD802201219C
:1079B0002046FFF7E4FC0A2000F026FC01212046C7
:1079C000FFF7BCFC8028E5D194F82600FF281CD0E6
:1079D000002103F069FC94F82730FF2B07D1264AD9
:1079E0001378032BD6D8591C117084F8273094F8DB
:1079F0002720224B43F8224062BB214900924FF0DE
:107A0000FF330122A8B201F0C5F900220E21204661
:107A1000FFF7B5FC00220F212046FFF7B0FC2046FF
:107A2000FFF728FE00212046FFF788FF08212046A7
:107A3000FFF79CFF9FED130A2046FFF7D9FD0023B7
:107A400084F825300D212046FFF770FDA3E74FF0A5
:107A5000FF35ABE7012A4FF0000304D100930A4938
:107A60004FF0FF33CEE7022A94D1009307494FF03D
:107A7000FF330122C6E700BFFFE5032000E6032035
:107A8000C1770B000000D943D1770B00E1770B00E1
:107A900008B5024B1B685B6C019308BD74020300C0
:107AA00008B5024B1B685B6C019308BD48020300DC
:107AB00008B5024B1B689B6C019308BD480203008C
:107AC00008B5024B1B68DB6C019308BD480203003C
:107AD00008B5024B1B685B6D019308BD48020300AB
:107AE00008B5024B1B685B6D019308BD34020300AF
:107AF00008B5024B1B685B6E019308BD340203009E
:107B000008B5024B1B685B68019308BD18020300AF
:107B100008B5024B1B68DB68019308BD180203001F
:107B200008B5024B1B685B69019308BD180203008E
:107B300008B5024B1B689B6D019308BD180203003A
:107B400008B5024B1B685B6E019308BD1802030069
:107B500008B5024B1B689B6E019308BD1802030019
:107B600008B5024B1B681B68019308BD2C0203007B
:107B700008B5024B1B685B68019308BD2C0203002B
:107B800008B5024B1B689B68019308BD2C020300DB
:107B900008B5024B1B68DB68019308BD2C0203008B
:107BA00008B5024B1B681B69019308BD2C0203003A
:107BB00008B5024B1B685B69019308BD2C020300EA
:107BC00008B5024B1B689B69019308BD2C0203009A
:107BD00008B5024B1B68DB69019308BD2C0203004A
:107BE00008B5024B1B681B6B019308BD2C020300F8
:107BF00008B5024B1B68DB68019308BD280203002F
:107C000008B5024B1B689B69019308BD280203005D
:107C100008B5024B1B68DB69019308BD280203000D
:107C200008B5024B1B681B6A019308BD28020300BC
:107C300008B5024B1B685B6A019308BD280203006C
:107C400008B5024B1B689B6A019308BD280203001C
:107C500008B5024B1B68DB6A019308BD28020300CC
:107C600008B5024B1B681B6B019308BD280203007B
:107C700008B5024B1B685B6B019308BD280203002B
:107C800008B5024B1B681B6C019308BD280203005A
:107C900008B5024B1B689B6C019308BD28020300CA
:107CA00008B5024B1B68DB6C019308BD280203007A
:107CB00008B5024B1B681B6D019308BD2802030029
:107CC00008B5024B1B685B69019308BD64020300A1
:107CD00008B5024B1B689B68019308BD680203004E
:107CE00008B5024B1B68DB68019308BD68020300FE
:107CF00008B5024B1B681B68019308BD30020300E6
:107D000008B5024B1B685B68019308BD3002030095
:107D100008B5024B1B685B69019308BD3002030084
:107D200008B5024B1B68DB69019308BD30020300F4
:107D300008B5024B1B681B6A019308BD30020300A3
:107D400008B5024B1B685B6A019308BD3002030053
:107D500008B5024B1B68DB6B019308BD30020300C2
:107D600008B5024B1B681B6C019308BD3002030071
:107D700008B5024B1B685B6C019308BD3002030021
:107D800008B5024B1B689B68019308BD3C020300C9
:107D900008B5024B1B68DB68019308BD3C02030079
:107DA00008B5024B1B681B69019308BD3C02030028
:107DB00008B5024B1B685B69019308BD3C020300D8
:107DC00008B5024B1B689B69019308BD3C02030088
:107DD00008B5024B1B68DB69019308BD3C02030038
:107DE00008B5024B1B681B6A019308BD3C020300E7
:107DF00008B5024B1B689B6A019308BD3C02030057
:107E000008B5024B1B68DB6A019308BD3C02030006
:107E100008B5024B1B681B6C019308BD3C020300B4
:107E200008B5024B1B681B68019308BD4C02030098
:107E300008B5024B1B685B68019308BD4C02030048
:107E400008B5024B1B689B68019308BD4C020300F8
:107E500008B5024B1B681B69019308BD4C02030067
:107E600008B5024B1B685B69019308BD4C02030017
:107E700008B5024B1B689B69019308BD4C020300C7
:107E800008B5024B1B68DB69019308BD4C02030077
:107E900008B5024B1B681B6A019308BD4C02030026
:107EA00008B5024B1B685B6B019308BD60020300C1
:107EB00008B5024B1B681B6D019308BD60020300EF
:107EC00008B5024B1B685B6D019308BD600203009F
:107ED00008B5024B1B68DB6E019308BD600203000E
:107EE00008B5024B1B681B6F019308BD60020300BD
:107EF00008B5034B1B68D3F89830019308BD000008
:107F00006002030008B5024B1B681B68019308BDA3
:107F10002002030008B5024B1B685B68019308BD93
:107F20002002030008B5024B1B685B69019308BD82
:107F30002002030008B5024B1B681B6A019308BDB1
:107F40002002030008B5024B1B68DB6A019308BDE1
:107F50002002030008B5024B1B68DB6C019308BDCF
:107F60002002030008B5024B1B685B6D019308BD3E
:107F70002002030008B5024B1B689B6D019308BDEE
:107F80002002030008B5024B1B68DB6D019308BD9E
:107F90002002030008B5034B1B68D3F88830019317
:107FA00008BD00002002030008B5034B1B68D3F88E
:107FB0009430019308BD00002002030008B5034B74
:107FC0001B68D3F8A830019308BD0000200203000D
:107FD00008B5034B1B68D3F8AC30019308BD000013
:107FE0002002030008B5034B1B68D3F8B43001939B
:107FF00008BD00002002030008B5024B1B689B6807
:10800000019308BD4402030008B5024B1B685B697D
:10801000019308BD4402030008B5024B1B681B6AAC
:10802000019308BD4402030008B5024B1B681B6B9B
:10803000019308BD4402030008B5024B1B685B6B4B
:10804000019308BD4402030008B5024B1B68DB6BBB
:10805000019308BD4402030008B5024B1B685B682E
:10806000019308BD4002030008B5024B1B689B68E2
:10807000019308BD4002030008B5024B1B68DB6892
:10808000019308BD4002030008B5024B1B681B6941
:10809000019308BD4002030008B5024B1B685B69F1
:1080A000019308BD4002030008B5024B1B689B69A1
:1080B000019308BD4002030008B5024B1B68DB6951
:1080C000019308BD4002030008B5024B1B681B6A00
:1080D000019308BD4002030008B5024B1B681B6BEF
:1080E000019308BD4002030008B5024B1B685B6B9F
:1080F000019308BD4002030008B5024B1B681B6CCE
:10810000019308BD4002030008B5024B1B685B6C7D
:10811000019308BD4002030008B5024B1B681B68B1
:10812000019308BD1C02030008B5024B1B685B6885
:10813000019308BD1C02030008B5024B1B689B6835
:10814000019308BD1C02030008B5024B1B681B69A4
:10815000019308BD1C02030008B5024B1B68DB69D4
:10816000019308BD1C02030008B5024B1B685B6A43
:10817000019308BD1C02030008B5024B1B68DB6AB3
:10818000019308BD1C02030008B5024B1B681B6B62
:10819000019308BD1C02030008B5024B1B68DB6B92
:1081A000019308BD1C02030008B5024B1B681B6C41
:1081B000019308BD1C02030008B5024B1B685B6CF1
:1081C000019308BD1C02030008B5024B1B689B6CA1
:1081D000019308BD1C02030008B5024B1B68DB6C51
:1081E000019308BD1C02030008B5024B1B681B6D00
:1081F000019308BD1C02030008B5024B1B685B6DB0
:10820000019308BD1C0203000021FFF78BBE10B5CF
:10821000836804460BB903F055F9C3689847A3680F
:108220001BB1032221462046984720461021BDE875
:108230001040FBF734BF10B54368013B0446436070
:1082400063B903689B689847A368013BA3602BB997
:1082500023682046DB68BDE81040184710BD70B5A4
:10826000D0E90053044605EB0316AE4204D028467D
:1082700002F028FB1035F8E72068FFF755FF20468D
:1082800070BD13B50B460246D0E900016C4684E888
:10829000030093E8030082E8030094E8030083E806
:1082A000030002B010BD0000024800230360FFF786
:1082B000F7BB00BF0CE60320002240681146FFF721
:1082C000E3BE002240681146FFF7FEBE0022406870
:1082D0001146FFF709BF40680022FFF7FDBE406866
:1082E000002281F00101FFF7E7BE002340681A4633
:1082F0001946FFF7D9BE002340681A461946FFF712
:10830000CBBE002240681146FFF7AEBE4068002297
:108310000221FFF7B1BE002340681A46FFF79CBE5A
:1083200070B5134B03601825303386B00E4643609A
:108330002A4600210446083003F0F6FD002270684A
:108340001146FFF7A1FE78B100212A46684603F0E6
:10835000EBFD69460020ADF80050FFF799FB18B916
:108360006946204600F0B8F8204606B070BD00BF50
:1083700028D10B00084B10B52824224618460021AE
:1083800003F0D2FD054B04804FF0FF32426004221F
:108390005A60034A1A6010BD18E6032010E6032055
:1083A000ECD00B007047007B7047037B4BB1036937
:1083B000B3F1004F05D08069B0F1004018BF012033
:1083C00070470020704703681B6A184770B5036840
:1083D0000D461B69064698470221284602F04EF9D1
:1083E0002C210446284602F053F8336804449B6964
:1083F000304698470221284602F040F9204470BDDB
:10840000A0F10400FFF7E2BF10B520210446FBF7FE
:1084100046FE204610BD0000037B7BB14369002B64
:108420000CDB07EE903A9FED077AF8EEE77A87EEDD
:10843000870ADFED057A20EE270A7047BFEE000AB3
:10844000704700BF00FF7F470000C842037B63B155
:108450000369B3F1004F08D007EE903A9FED047A1C
:10846000F8EEE77A87EE870A70479FED020A7047B9
:108470000000C84200000000037B7BB1C369002BF1
:108480000CDB07EE903A9FED077AF8EEE77A87EE7D
:10849000870ADFED057A20EE270A7047BFEE000A53
:1084A000704700BF00FF7F470000C842037B63B1F5
:1084B0008369B3F1004F08D007EE903A9FED047A3C
:1084C000F8EEE77A87EE870A70479FED020A704759
:1084D0000000C8420000000030B50D4600F108045D
:1084E0000FCD0FC495E8030084E80300012030BDE0
:1084F00070470020704710B510210446FBF7CFFDF0
:10850000204610BD08B5FFF7F6FF08BD30B50022C4
:108510004FF69C74026084808D888C800C68858006
:1085200004600A6030BD10B504460068FFF7FCFD2A
:10853000204610BD38B5C468F4B12378022B03D1AE
:1085400004F10C00FFF7EFFF656835B12846FDF731
:108550001DF910212846FBF7A2FDA56835B1284674
:10856000FDF714F910212846FBF799FD2046142148
:10857000BDE83840FBF793BD38BD0B6803604B681E
:10858000436013B15A6801325A60704737B50446E8
:1085900068460D46FFF7F1FF009B019A2360626079
:1085A000002301A801930093FCF788FC35B1281D36
:1085B000FCF784FC08212846FBF771FD204603B038
:1085C00030BD826810B50AB902F07CFFBDE81040EA
:1085D000C368184708B5006800F11001FFF7F1FF04
:1085E00008BD826810B50AB902F06CFFBDE8104002
:1085F000C368184708B5006800F11001FFF7F1FFE4
:1086000008BD000038B500230446036010200D4665
:10861000FBF741FD28B10123C0E90133024B0360A0
:10862000C5602060204638BD64D10B0038B50023FA
:1086300083608B6804460D462BB102229847EB6895
:10864000E360AB68A360204638BD0000F0B589B098
:1086500004686846FFF75AFF4FF00203D4E84F2F33
:10866000002A03D1C4E8413F0029F7D125D104F104
:108670000C0569462846FFF749FFBFF35B8F0123CE
:108680006370002004F10803BFF35B8F53E8006FB1
:1086900043E80002002AF9D1BFF35B8F6EB1FFF708
:1086A00059FC78B129463046FFF78BFF3046FDF77D
:1086B0006DF810213046FBF7F2FC6846FFF733FFF8
:1086C00009B0F0BD314602A8FFF7B0FFE068B4F989
:1086D000105008B103F0C6FC06901020ADF81C50F5
:1086E000FBF7D9FC0546E8B1002787601820FBF7A7
:1086F000D2FC044688B10146876002A8FFF7C1FD9D
:10870000049BA268A360059B049206A9E268E3604B
:1087100004F110000592FFF7F9FE084BEB60084BDF
:108720002C60AB6006A8FFF7FEFE02A8FDF72EF84E
:10873000002229460348FFF715FCB7E7D5850B0053
:1087400059880B000F820B002DE9F04F8BB00546C6
:108750009DF850A00F4690469946FFF755FC07AE8E
:10876000834638BB4FF62E73059005A93046ADF809
:108770001830FFF7CBFE1420FBF78DFC044648B100
:10878000022303700123C0E901BB437031460C3062
:10879000FFF7BCFE2846214640F8044BFFF732FFA6
:1087A0003046FFF7C0FE05A8FFF7BDFE28460BB018
:1087B000BDE8F08F0C2300241420CDE90844079372
:1087C000FBF769FC014618B1C0E90144047044702C
:1087D00004A80391FFF716FF1E4B08930820FBF730
:1087E0005AFC044610B103A9FFF7C7FE00965FFAD2
:1087F0008AF34A46414638460994FFF70DFCB8B95A
:10880000039B5B7803F0FF0293B94FF69C7305A9B5
:1088100003A80592ADF81830FFF718FF05A8FFF779
:1088200082FE05A80999FFF7B1FE06A8FCF746FBF2
:1088300003A905A8FFF7A1FE059B069A2B606A60B5
:10884000002306A806930593FCF738FB04A8FCF761
:1088500035FBABE7D5880B00012AF8B5054603D1F7
:108860000B6803600020F8BD022A10D0032AF9D15A
:108870000468002CF6D004F11000FFF754FE2046E7
:10888000FCF784FF18212046FBF709FCEAE71820D3
:108890000E68FBF700FC044650B13146FFF7C6FEF8
:1088A0003069B6F9147008B103F0DCFB2061A782CF
:1088B0002C60D7E738B5002383608B6804460D46EB
:1088C0002BB102229847EB68E360AB68A3602046B7
:1088D00038BD0000F0B589B004460D4601A8114628
:1088E000FFF754FEA4B124B21DB1284603F0BAFB31
:1088F000054601A803A90395ADF81040FFF7A6FEB1
:1089000003A8FFF710FE02A8FCF7D8FA09B0F0BDE3
:10891000019D0123D5E84F2F002A03D1C5E8413F2F
:108920000029F7D1EFD12B73BFF35B8F6B702B1D39
:10893000BFF35B8F53E8006F43E80042002AF9D190
:10894000BFF35B8F002EDED02046FFF703FB074608
:1089500060B105F10C013046FFF743FE3046FCF7ED
:1089600015FF10213046FBF79AFBCCE7314603A8F0
:10897000FFF7A0FF2B7B8DF81C301020FBF78BFB43
:108980000546D0B187601420FBF785FB044678B11B
:108990008760014603A8FFF774FC059BA268A360EB
:1089A000069B0592E268E3609DF81C3006922374F2
:1089B000064BEB60064B2C60AB6003A8FCF7E6FEB1
:1089C000002229460348FFF7CDFAC7E7F5850B00DB
:1089D000D9890B000F820B00012A70B5044603D120
:1089E0000B680360002070BD022A0CD0032AF9D165
:1089F0000468002CF6D02046FCF7C8FE142120465F
:108A0000FBF74DFBEEE714200E68FBF744FB054631
:108A100020B13146FFF74EFF337C2B742560E1E730
:108A2000002240681146FFF74FBB00224068114604
:108A3000FFF75ABB40680022FFF74EBB4068002298
:108A400081F00101FFF738BB002340681A46194640
:108A5000FFF72ABB002340681A461946FFF71CBBE4
:108A6000002240681146FFF70FBB00224068114604
:108A7000FFF7FABA406800220221FFF7FDBA00238F
:108A800040681A46FFF7E8BA024B03225A60024ACE
:108A90001A60704740E6032080D10B0001EB0023F1
:108AA00000EE103A132A0CBFDFED047ADFED047AF2
:108AB000B8EEC00A20EE270A704700BF0000003B56
:108AC0000000803B006800F051B910B50446016019
:108AD00002710AB1FFF7F6FF204610BD13B5044638
:108AE000019102F087FC019A01462046FFF7EDFF55
:108AF000204602B010BD006800F041B92DE9FF41E9
:108B000004460D4617461E46FFF7DCFF36220023BB
:108B1000CDE9002320680A234FF001086946CDE91A
:108B2000028300F007F92068036829469B6898478C
:108B30002068414600F016F9054640B16FF09F05E8
:108B40002046FFF7D8FF284604B0BDE8F081022395
:108B500020680193694600F0BDF80228EED1206834
:108B600003685B6998473870206803685B699847B9
:108B70003070E5E710B58CB000238DF80E308DF81D
:108B80000F3004210DF10F030DF10E02FFF7B6FFB8
:108B90000146C8B920240190224604A803F0C4F974
:108BA00001998DF8154004A8FFF71CFA50B99DF8FB
:108BB0001E209DF80F109DF80E000CB0BDE810406F
:108BC000FFF76CBF1222F4E7BFEE000A0CB010BD35
:108BD0002DE9FF4104461D460F461646FFF772FF7A
:108BE00036220023CDE9002320684FF001080A2334
:108BF0006946CDE9028300F09DF820680368394694
:108C00009B6898472068036831469B6898472068AE
:108C1000036829469B6898474146206800F0A2F8FF
:108C2000002820460CBF00256FF09F05FFF763FF6B
:108C3000284604B0BDE8F08108B540220023062193
:108C4000FFF7C6FF00EAE07008BD7047F8B50646BA
:108C500015460C468F18BC4206D0336814F8011B29
:108C60009B6830469847F6E72846F8BD007C00220E
:108C7000FEF7D6BF007C0021FEF7DABF007C0021A2
:108C8000FEF7DEBF007C0021FEF7E2BF007C002182
:108C9000FEF7E6BF10B514210446FBF700FA2046A4
:108CA00010BD000010B54FF47A7304460846002149
:108CB000C4E90113034B236020741146FEF7E0FF63
:108CC000204610BDBCD10B000023007C1A4619467B
:108CD000FEF78EBF7FB500221423CDE90122ADF847
:108CE00004300B788DF808304B680393CB680493FD
:108CF000007C0B7A059301A9FEF7DAFF07B05DF857
:108D000004FB1FB5003B8DF800104FF06401039188
:108D100018BF0123694601928DF80830FFF7DAFF8A
:108D200005B05DF804FB007C0022FEF769BFC9B204
:108D3000FFF7F9BF7FB50023CDE901334A680392FD
:108D40001423CA68ADF804300B7804920A7A0592AD
:108D5000007C8DF8083001AA1946FEF751FF07B0D4
:108D60005DF804FB007C0022FEF752BF08B500212D
:108D7000007CFEF78DFFB0FA80F0400908BD08B511
:108D80000021007CFEF78CFFB0FA80F0400908BD9E
:108D9000004700002DE9FF4100241D460F46904684
:108DA0000646FEF715FFA5424FF00403ADF80D404F
:108DB0008DF80C308DF80F40A2BF9DF828308DF84B
:108DC0000E3003AC0749009443463A463046A8BFEC
:108DD0008DF80D50FEF7F4FEB0FA80F0400904B0B3
:108DE000BDE8F081918D0B00704710B51821044645
:108DF000FBF755F9204610BDF0B5037D062B8DB06D
:108E00000E4600F104074FF0000412D000F10805EF
:108E100015F8011D0A22304601F049FBAF42044417
:108E200019D0002CF4D02E21304601F031FB04443F
:108E3000EEE72F236A4639460A208DF80040FEF7F8
:108E40003FFF684603F02BF933680246DB6869464A
:108E500030469847044620460DB0F0BD10B5054B8E
:108E60000446112240F8043B002103F05DF820463F
:108E700010BD00BFE4D10B000346074A10B543F80C
:108E8000042B01F1100251F8044B43F8044B9142BA
:108E9000F9D10A781A7010BDE4D10B0010B59DF815
:108EA000084044EA032343EA024242EA0161042300
:108EB0004160037510BD000007B5064B0360CB7819
:108EC00000938B784A780978FFF7E8FF03B05DF8E4
:108ED00004FB00BFE4D10B0000F11003012213F8E2
:108EE000101C0129184608D153F8041C02EB41025A
:108EF000013A03F11003F2D17047022904BF53F87D
:108F0000041C5218F4E70EB4F0B588B000AF07F1B6
:108F10003405102155F8042B7A6004462B46781846
:108F2000FD60FFF721F90F287A681AD900F10803CC
:108F300023F007036E46ADEB030D411C2B4668463C
:108F4000FD60FFF711F9021E04DD236869469B6886
:108F500020469847B5462037BD46BDE8F04003B0EF
:108F600070470028F7D0236802469B6807F110017C
:108F700020469847EFE738B50B6803604D684368B3
:108F80009D42044608D015B16B6801336B60606880
:108F900008B1FFF750F9656038BD07B503688DF873
:108FA00007109B6801220DF10701984703B05DF897
:108FB00004FB0B461146002210B5C0E9002204460E
:108FC00083600BB9204610BDFFF7D5FFFAE7836831
:108FD000EBB11A78032A1AD8DFE802F00417021B53
:108FE0000520704702685B685268D05C2D2812D05B
:108FF000A0F13003092B0ED974280ED066280CD0AE
:10900000A0F16E0358425841704706207047002077
:10901000704704207047032070470220704710B546
:109020000446FFF7D4FF02280ED0C31EDBB2012B8B
:1090300014D82268A36850685B68BDE810400A2213
:109040000021184403F0F0B82268A36852685B68F6
:10905000D05CA0F174035842584110BD0020FCE7D9
:1090600038B50023C0E9003304460E48C4E90203C2
:10907000A9B10B78032B06D08BB9136858684B68DD
:10908000C35C6E2B07D013684D6858688B68284402
:109090005B1BA060E36011462046FFF76CFF204693
:1090A00038BD00BF4DD20B0038B500250B46C0E9D6
:1090B0000055C0E90255C0E90455044611464BB1BC
:1090C0001A78012A06D103F11002DB68826043613D
:1090D000FFF751FF204638BD10B54369044663B120
:1090E0008068E060013B1030A0602061636113B1D3
:1090F000FFF7F2FEA060012000E0184610BD10B599
:109100007D210446FFF749FF01232371204610BD4E
:1091100008B50379012B02D0022B04D008BD2C2105
:10912000FFF73BFFFAE73A21FAE710B50446FFF7ED
:10913000EFFF20467B21FFF730FF002323712046FD
:1091400010BD000013B504460191FFF7E1FF23684D
:10915000019ADB6803492046984701232046237182
:1091600002B010BD93CC0B0013B504460191FFF77C
:10917000CFFF2368019ADB68034920469847012303
:109180002046237102B010BD37CE0B002DE9F04709
:109190000D46222190460446FFF7FFFEDFF8A4901B
:1091A000A8442F464745BA463DD017F8016B222EFA
:1091B00006D05C2E04D0304602F086FE0028F1D1A5
:1091C0002368AAEB05029B682946204698475C2144
:1091D0002046FFF7E2FE0D2E0AD8072E1CD9A6F175
:1091E0000803052B18D8DFE803F00D0F111713152E
:1091F000222E01D05C2E0FD131462046FFF7CDFE46
:109200003D46CFE76221F8E77421F6E76E21F4E7E7
:109210006621F2E77221F0E723683246DB684946AF
:1092200020469847ECE7BD4205D023687A1B9B682F
:1092300029462046984722212046FFF7AEFEBDE88A
:10924000F08700BFF0D10B0013B50446CDE9002133
:10925000FFF75EFF2046DDE90021FFF797FF0223BD
:109260002046237102B010BD13B50446CDE900219C
:10927000FFF74EFF2046DDE90021FFF787FF0123BE
:109280002046237102B010BD80680368DB68184770
:109290007047084611B10B685B6818477047704704
:1092A00070477047704738B504460D4600682E2158
:1092B00002F0BBFE2368C31A2B6023B1037803B10D
:1092C000013023682060184638BD10B50C210446D3
:1092D000FAF7E5FE204610BD10B504210446FAF762
:1092E000DEFE204610BD10B504210446FAF7D7FE75
:1092F000204610BDFEF7E4BB08B502F0A0FEB0FAB0
:1093000080F0400908BD704710B50C4601F0B4FE6E
:10931000844210D002F0AEF8844205D102F0AAF8DF
:10932000BDE8104001F043BE2CB1236820465B68C5
:10933000BDE81040184710BD0B6803604B684360E0
:1093400013B15A6801325A60704713B50446084693
:10935000019102F0A4FE01990246204602B0BDE848
:109360001040FFF781BF13B504460846019102F093
:1093700096FE23680199DB680246204602B0BDE8EC
:109380001040184707B503688DF80710DB68012205
:109390000DF10701984703B05DF804FB0EB403B567
:1093A00003AB002153F8042B006A019301F075F917
:1093B00002B05DF804EB03B070470A6802604A68C7
:1093C00042600022C0E9022210B502618C6884600C
:1093D000CC68C4600C698A60CA6004610A6110BD0F
:1093E0002DE9F74FD0E900844FF0140A00930AFBEF
:1093F00004F4184BA41017465C434546002C21DDAD
:1094000066100AFB06F005EB00093A46B9F804B00D
:10941000285801915F4528BF5A4602F048FE0028AF
:1094200001994FF001030BD15F4503D1009A1370EE
:109430003446E3E7FCD9A61B09F11405013EF7E722
:10944000F9DBF5E7A5EB08050248AD10684303B06A
:10945000BDE8F08FCDCCCCCC7FB50369057E019102
:1094600003B3F9B1002600F10C04039603A901A887
:10947000FFF719FF0146A8B10DF10B03039A8DF810
:109480000B602046FFF7ACFF9DF80B3053B123680B
:10949000142404FB0034083434F9023C002BA8BF28
:1094A000DDB2E3E7284604B070BD000010B5094CFA
:1094B0002378BFF35B8FDB0709D42046FAF7FEFD64
:1094C00028B12046FAF7FFFD034802F0D9FC034813
:1094D00010BD00BF4CE603209F920B002CE103203F
:1094E00010B5094C2378BFF35B8FDB0709D4204606
:1094F000FAF7E4FD28B12046FAF7E5FD034802F04B
:10950000BFFC034810BD00BF50E6032007930B00CB
:1095100030E1032038B500250446C0E90055C0E914
:1095200004558560856140F8245FFEF7B9FAFFF7BE
:10953000BDFFE061FFF7D4FF25732062204638BDF0
:1095400010B50A4C2378BFF35B8FDB070CD42046A1
:10955000FAF7B4FD40B10648FFF7DCFF2046FAF702
:10956000B2FD044802F08CFC014810BD48E603201F
:1095700058E60320959A0B00024A0349034800234A
:10958000FEF7AEBC79980B0005980B0085970B0091
:1095900000231A4619461846FEF7A2BC37B58D6857
:1095A00004466846FFF7C8FE6A4629462046FFF78C
:1095B0007BFD01A8FBF782FC204603B030BD37B528
:1095C000CD6804466846FFF7B7FE6A46294620463E
:1095D000FFF746FD01A8FBF771FC204603B030BD44
:1095E00037B50D6904466846FFF7A6FE6A46294668
:1095F0002046FFF7DEFC01A8FBF760FC204603B025
:1096000030BD000070B58AB00D46014604A8FFF7D2
:10961000C5FF144E04A8FFF75FFDE8B104A9684632
:10962000FFF7CDFF02983146FFF766FE044610B102
:109630002C1E18BF012401A8FBF740FC002CE9D028
:1096400004A96846FFF7CCFF6846FFF7E8FC2860EE
:1096500001A8FBF733FCDDE705A8FBF72FFC0AB0F8
:1096600070BD00BFF6D10B0037B50C46204613493C
:10967000154602F0E4FC50B901F0FEFC4FF416511F
:1096800001F0EAFC03B0BDE8304001F0F5BC0C4944
:10969000204602F0D4FC78B94FF4165301A92846AD
:1096A0000193FFF7AFFF01F0E5FE019901F07CFCAB
:1096B00001F0E0FE03B030BD0020FBE7FBD10B0062
:1096C00002D20B0070B5D0E900531426044606FB05
:1096D0000356AE4205D005F10800FFF7F3FF14353D
:1096E000F7E72068FEF720FD204670BD10B5044660
:1096F0000C30FFF7E7FF2046FEF7B1FD204610BD16
:1097000010B5044B044640F8043BFFF7EFFF20463A
:1097100010BD00BF7CC90B0010B50446FFF7F0FF79
:1097200020462421FAF7BBFC204610BD10B5034BA0
:1097300003600446FFF7E4FF204610BD9CD20B00F7
:1097400010B50446FFF7F2FF20462421FAF7A7FCE4
:10975000204610BD0022C0E9002210B582600C68CE
:1097600004604C6844608C680A604A6084608A6067
:1097700010BD10B5036804461868FEF7A9F9204625
:1097800010BD00002DE9F04F87B0804603931C4BBD
:109790005B68C3F30803894616466BB9FFF7D0FE32
:1097A000044600F12403406A0593FFF7A3FD237BE1
:1097B0002BB105A8FFF7DDFF07B0BDE8F08F01234F
:1097C0002373D4E900535FFA89F905EB830AAA45AC
:1097D00012D055F8047B3146381DFFF73DFE814518
:1097E000F5D33B68039A0092D3F808B04A46334653
:1097F00041463846D847EAE700232373D9E700BF3C
:1098000000ED00E02DE9F74F9B461A4B5B68C3F370
:1098100008038046894616466BB9FFF791FE044659
:1098200000F12403406A0193FFF764FD237B2BB111
:1098300001A8FFF79EFF03B0BDE8F08F012323735B
:10984000D4E90053F6B205EB830A55450ED055F81E
:10985000047B5946381DFFF7FFFD8642F5D33B6870
:109860004A46DB68414638469847EEE700232373B3
:10987000DEE700BF00ED00E02DE9F341164B5B6829
:10988000C3F3080305460F461BBBFFF759FE00F163
:1098900024030446406A0193FFF72CFDD4E90063DA
:1098A000462406EB8308B04509D101A8FFF761FF04
:1098B000A542B4BF0020012002B0BDE8F08156F8F7
:1098C000040B39460430FFF7C7FD8442A8BF0446A5
:1098D000E9E70020F0E700BF00ED00E0F8B5D0E9CF
:1098E00001539D4204460E460DDB6F1C002F00689D
:1098F00004DDB900FEF720FC18B9F8BDFEF714FC32
:1099000000202060A7602768626807EB850192004D
:10991000A2EB8502081D02F0EDFA47F825606368A6
:10992000013363600120E8E737B500F12403044602
:10993000406A01930D46FFF7DDFCD4E9003203EBEA
:109940008202934219460BD00968A94203F104032D
:10995000F7D101A8FFF70DFF0025284603B030BD61
:1099600029462046FFF7BAFF05460028F1D0636874
:10997000012B01D1FFF700FE01A8FFF7FAFEECE78B
:1099800070B50446D0E900020B4600EB8202824229
:109990000FD001461D6851F8046BAE4207D1521A30
:1099A00002F0A8FA6368013B6360012070BD0846BD
:1099B000EDE70020FAE71FB500F124030446406AF2
:1099C00001910393FFF796FC01A92046FFF7D8FF0A
:1099D00018B163680BB9FFF7DBFD03A8FFF7C9FEF9
:1099E00004B010BD70B5D0E904561823044603FB3B
:1099F0000656AE4215D005F110012046FFF7C0FF14
:109A000063680BB9FFF7C4FDE06929690368DB6887
:109A10009847696919B1206A0368DB689847183567
:109A2000E7E7D4E90453182606FB0356AE4204D0F8
:109A3000284600F047FF1835F8E70023636170BD42
:109A400073B50446FFF7A4FD04F12403606A019393
:109A5000FFF750FC2046FFF7C5FF01A8FFF789FE7E
:109A6000606A08B1FEF724F8D4E90453182606FB0F
:109A70000356AE4204D0284600F024FF1835F8E71C
:109A80002069FEF751FB2068FEF74EFB204602B02E
:109A900070BD00000148FFF7D3BF00BF58E60320A8
:109AA0008842F8B504460D46164615D9904214D2A0
:109AB000A2F11406751AA1F114072C44B7421AD06A
:109AC0001CB131462046FFF778FC06F10800FFF78D
:109AD000F9FD143E143CF1E70DD0B5420BD01CB19A
