:02000002B0004C
:1040000000400B009CD90B00000006000D000502CB
:084010000401A30F00000000F1
:04401800ECC30B00EA
:1040200009480A49884208B505D0094A824202D0A7
:10403000121A07F0E1FF0748074A0021121A08F098
:1040400003F8014808BD00BF70DD0320A8D70B00AE
:1040500038DF032038DF0320EDE7032070B5074E7B
:10406000074C07F029F9A41BA4080025AC4200D195
:1040700070BD56F8043B98470135F7E738D70B0079
:1040800074D70B0000F038BC08B500F031F9BDE87A
:10409000084007F0C9B804F0FBBB04F0F9BB04F01A
:1040A000FFBB000008B5034A03490C2004F0C4FA22
:1040B000FEE700BF89820B0000C40B000078B0FA55
:1040C00080F040097047012303707047014B1A606C
:1040D000704700BF70DD0320014B01221A7070474A
:1040E0008BDF032030B585B00446089860B1406886
:1040F00050B1856845B1CDE90241CDE90023C468DE
:1041000001AB6A4602A9A04705B030BD10B5084C06
:1041100023782BB1074B01221A700023237010BDA6
:1041200001F00CF901F087FA0028F3D10123F5E73B
:1041300040DF032089DF032030B585B000681368B5
:104140000193D1E900458368CDE902450BB907F039
:1041500049FAC36801AA02A9984705B030BD012AEF
:1041600002D1016000207047022A04BF0B6803607F
:10417000F8E703681268D1E90001184710B58368B1
:10418000044613B1032201469847204610BD10B5DE
:10419000044638B1FFF7F2FF20461021BDE8104079
:1041A000FFF77DBF10BD0000F8B5037D05460F4643
:1041B00016468BB10368DB6883B19A88012A06D062
:1041C0009B68F9E79B684BB19A88012AFAD12BB119
:1041D0009A89BA42F6D19E732846F8BD0A49102042
:1041E00007F0FCF9044668B11022002107F02CFF0B
:1041F000064B23600123A3802B69A360A781A673CC
:104200002C61E9E72875E7E714D50B0010000300DF
:104210000EB400B58CB00DAA4FF0200C52F8041B60
:104220000392CDE900120023016804AA1E20CDE903
:1042300004C304F011FA0CB05DF804EB03B070474E
:1042400070B5134E134C3278134D022AC2B017D1F9
:1042500006F09EFE32782B7804EB0212009204EBFB
:10426000031398B90D4A4FF4807102A804F030FB93
:1042700033780B482B7002A9FFF7CAFF42B070BD1C
:104280002B7804EB0212009204EB0313054AEAE7D1
:104290008ADF032074DD032088DF032015C40B00B0
:1042A00058E6032035C40B0038B501F047F801F09B
:1042B0006CF9054606F06CFE3C24B8B106F085FEAC
:1042C0006543B0FBF5F404FB15002C1AAC4228BF83
:1042D0002C4601F033F801F0ECF8092806D801F07B
:1042E0002DF801F0E6F80A2313FB0044204638BD00
:1042F0002DE9F047AA4C2378013B8CB0032B00F248
:10430000C180DFE813F07101040024000301A54B14
:104310001B78022B01D0FFF793FF06F039FE60B146
:1043200006F064FE054601F04BF801F0C4F906F012
:104330002BFD854201D001F0F1F901F041F801F0C7
:10434000CCF810B1012323709CE00423FBE7954BCC
:104350001B78032B01D0FFF773FF0021924801F077
:10436000B3FEFFF7A1FF074600F0E8FF01F00DF9EB
:10437000064606F00DFE0546002836D006F025FE5E
:10438000C219D31708A806F01BFD089B00938749A4
:1043900087483B463246FFF73BFF15B108A806F0B9
:1043A00007FB844B1A7D0AB102221A72824B8148A4
:1043B000B3F8009000224946FFF7F6FE7F4BB3F8B2
:1043C00000A001225146FFF7EFFE037D064613B31E
:1043D00003684FF47A78D96808FB07F839B18B88FD
:1043E000042B00F0DA818968F8E7754BCEE7754950
:1043F000102007F0F3F80546002800F0CC811022C9
:10440000002107F021FE704B2B600423AB80336941
:10441000C5E902383561674905A806F0EDFB0020C3
:1044200003F04AFF42F210760546002003F044FFF5
:10443000401B61F10001B04271F1000307D206F0A8
:10444000ABFE06F09EFE10B904F092F9EDE706F01F
:10445000A3FE06F096FE54484FF0FF3101F034FE03
:10446000059B63B39A88012A29D19B89994529D153
:1044700056494F48FFF7CCFE04230598237008B136
:1044800004F00EFA4848524C02F0CAF900F098FFC6
:1044900000F0B1FF00F052FF00F06BFF237823B172
:1044A00001F098FB08B1002323704A4B1B68002BD6
:1044B000C0F276810CB0BDE8F04706F09ABB4FF62B
:1044C000FF73D3E79A450BD143493948FFF7A0FE64
:1044D00001F080FB10B13E4B00221A700323CCE7A1
:1044E00006F073FDC219D31708A806F069FC089AF4
:1044F000039206F0E1FB039A384903462C48FFF784
:1045000087FE08A806F054FA0223B6E7254B1B786D
:10451000042B17D0FFF794FE00F01AFB00F0A0FB6D
:1045200001F06CFC06F051FD2D4BC217C3E90002EF
:1045300000F00EFB00F0AAFB20B92A491C48FFF747
:1045400067FE9FE703F0A8FE41F28736054603F0B9
:10455000A3FE401BB0421DD800F0FAFA00F0A6FD01
:104560000028F4D000F02CFF002101F041F800F009
:10457000E5FE054606F029FD0246C317284601F070
:10458000C3F806F022FD012302460093C317064834
:1045900002F036F900F0DCFA00F072FB0323D2E6F9
:1045A0008ADF032088DF032044DF032043C40B009D
:1045B00058E6032064DF032022CB0B0024CB0B0042
:1045C0002CCC0B0014D50B001000030090C40B0082
:1045D00089DF032070DD0320B3C40B00E8C40B00A7
:1045E00080DF032009C50B006F4B1B78012B01D026
:1045F000FFF726FE00F0E4FE00F06FFF02284CD02B
:10460000032800F09680012840F0BB8000F0A0FA5B
:1046100000F054FC002800F0868003F03DFEDFF837
:10462000A881624F624E054640F6B73903F034FE6A
:10463000401B484577D800F08BFA00F037FD002882
:10464000F4D041463846FFF7E3FD06F0BEFCC31741
:10465000C6E9000300F072FE814606F0B6FC024691
:10466000C317484601F050F800F0AAFE814606F054
:10467000ACFC0246C317484601F074F800F0A0FEF7
:10468000002100F065FF06F0A0FC01230246009324
:10469000C317484802F0B4F8C6E700F059FA00F032
:1046A000A7FC00283FD003F0F7FDDFF820813F4F43
:1046B0003F4E054603F0F0FD40F6B733401B9842ED
:1046C00031D800F045FA00F0F1FC38B306F07DFC7B
:1046D000C317C6E9000300F031FE814606F075FC01
:1046E0000246C317484601F00FF800F069FE814604
:1046F00006F06BFC0246C317484601F033F800F0A1
:104700005FFE002100F024FF06F05FFC012302465B
:104710000093C317274802F073F8CBE741463846A9
:10472000FFF776FDC6E700F013FA00F0A9FA0223BE
:1047300009E6214C214D2378BFF35B8F13F0010F65
:1047400009D12046FFF7BAFC28B103F0A5FD286087
:104750002046FFF7B8FC03F09FFD2B68C01A47F214
:10476000305398427FF68EAE15491048FFF750FD42
:104770004FF4FA6004F0FCF81E210E4801F0FEFD33
:1047800080E610490948FFF743FD00F019FE0021BB
:1047900000F0DEFECBE730753DE6C1F80C803AE66E
:1047A0000CB0BDE8F08700BF88DF032058E6032087
:1047B00080DF032044DF032038DF03203CDF0320B9
:1047C0004AC50B005BC50B001DC50B0035C50B00B2
:1047D00038B5002383608B6804460D462BB1022256
:1047E0009847EB68E360AB68A360204638BD0000E3
:1047F0002DE9F04395B005461C9904A890461F4644
:104800000CAEFFF7E5FF04A908A8FFF7E1FF08A930
:104810003046FFF7DDFF4FF000091020CDF848903B
:10482000FFF739FC0446A0B196E8030001AB83E82A
:10483000030094E8030086E8030093E803000E9B5E
:10484000E268A36084E803000F9BCDF838900F92D4
:10485000E360244B1393244B1293002200234FF068
:104860000009C5E90023214BC5F8089010201094D9
:10487000CDE90139CDF80C90FFF70DFC0446D8B115
:10488000129BC0F8089033B1022210A99847139BDD
:10489000E360129BA360164B0393164A029401AB8C
:1048A0004046394603F012FFB0B12046FFF766FCE0
:1048B00010212046FFF7F3FB10A8FFF75FFC3046FE
:1048C000FFF75CFC08A8FFF759FC04A8FFF756FCAB
:1048D000284615B0BDE8F083029BAB60C5E90087B0
:1048E000EAE700BF39410B00994A0B0002000C00B7
:1048F0008F410B00E5400B0030B500208DB003F078
:10490000DBFC42F210750446002003F0D5FC001BCE
:1049100061F10001A84271F1000307D206F03CFCEE
:1049200006F02FFC10B903F023FFEDE706F034FC8E
:1049300006F027FC00F034FF00F05EFF00F040FDC1
:1049400003681B68984700F0F9FC03681B689847E8
:1049500000F08AFF424808230121438101F0B2FFA1
:104960007C213F4801F0B0FB3E4B08933E4B0B933C
:1049700008AC3E4B0A934FF48022002304A8009415
:10498000FFF736FF2046FFF7F9FB00F0E1F80021C2
:1049900000F0F0F8002842D100F012FD032100F0F1
:1049A000D7FD00F00DFD044606F00FFB0246C317CD
:1049B000204600F0D7FE00F003FD00F08EFD2C49EC
:1049C00002462C48FFF724FC01F018FA2A482B492C
:1049D000008800244FF0FF330122009404F052FAC3
:1049E00027482849008800944FF0FF33224604F0FE
:1049F00049FA254B1A780AB903221A7000F0E0FC34
:104A000000F06BFD214902461A48FFF701FC204BDC
:104A1000188800210DB0BDE8304006F0E6BC00F07B
:104A20008DFC00F046FD0A2814D900F0C9FC0121D4
:104A300000F08EFD00F082FC00F03BFD039000F0E2
:104A4000BFFC00F04AFD039A124903460948FFF7EC
:104A5000DFFBB9E706F09CFA0028E6D0B4E700BF18
:104A600044DF0320CD400B0073410B005F410B007E
:104A700071C50B0058E6032024CB0B000D410B0041
:104A800022CB0B00D9400B008ADF0320F6C50B00B8
:104A900020CB0B00AFC50B00012A37B5044604D16B
:104AA0000B680360002003B030BD022A0CD0032A3B
:104AB000F8D10468002CF5D02046FFF75FFB1021E9
:104AC0002046FFF7ECFAEDE7096801911020FFF7A7
:104AD000E2FA054610B10199FFF77AFE2560E1E799
:104AE00008B506F01BFC00231A46194606F026FC02
:104AF00006F014FC00231A460D2106F017FC0C4B9F
:104B00001A1D1A600B4A5A600022C3E902221A6178
:104B100001221A7506F0DAFC69220146064801F006
:104B2000D5F906F052FA054BC217C3E9000208BDD9
:104B300064DF03201000030044DF032080DF032034
:104B4000704710B504210446FFF7A9FA204610BDAE
:104B500010B5064C236833B90420FFF79CFA08B15E
:104B6000034B03602060206810BD00BF90DF03206E
:104B70004CCA0B0030B5314887B00D4602F005FD38
:104B8000044630B92E492F48FFF742FB204607B0B4
:104B900030BD9FED2D0A2D4802F0F2FF2B48002278
:104BA000172103F067F98DB100F0C8FB002100F078
:104BB000B7FC02A803F0ECFD029A25492148FFF753
:104BC00027FB02A805F0F4FE2C46DFE700F0B6FB59
:104BD00000F06FFCF0B100F0B1FB00F06AFC0A28B5
:104BE00018D800F0ABFB00F064FC0146194801F056
:104BF000F8FF184801F0DBFF019002A803F0C8FDA0
:104C0000DDE9012314490F48FFF702FB02A805F074
:104C1000CFFEBBE700F092FB0B2100F081FC0B21E3
:104C20000C4801F0DEFF0B4801F0C1FF019002A823
:104C300003F0AEFDDDE901230849E4E7CCE1032000
:104C400027C60B0058E6032000C064449CE0032004
:104C500033C60B00D0E103206DC60B00A4C60B00C9
:104C600010B5064CC0B00DF1030201A9204602F0B8
:104C700001FF0028F7D140B010BD00BF9CE0032029
:104C8000014802F0E4BE00BF9CE00320764B2DE912
:104C9000F7431E88DFF8FC81744D754C01213046C6
:104CA00006F0A3FB98F800202B6872497248013285
:104CB0000133D2B288F800202B60FFF7A9FA00F088
:104CC0003DFB00F05DFC000A207000F037FB00F0B7
:104CD00057FC01276070A77000F072FB00F05AFCCF
:104CE000000AE07000F06CFB00F054FC207100F052
:104CF00067FB00F054FC000A607100F061FB00F0FB
:104D00004EFCA07100F05CFB00F0DDFBE07100F0F8
:104D100057FB00F079FB51EC100B07F0FBF8207209
:104D200000F04EFB00F0D4FB607200F007FB00F0D7
:104D3000C5FB98F80030E3720323A072214600936C
:104D40004E48DFF854810023112202F0E3F90446B3
:104D500018BBD8F800003844C8F8000006F098FDE9
:104D600080462868894606F093FD02460B46404679
:104D7000494606F021FF424B002206F0F3FD0246B1
:104D80000B463D483F49FFF743FA3046214606F0BF
:104D90002CFB384603B0BDE8F083022825D100F093
:104DA000CDFA00F086FB0446D8F8000006F070FD4E
:104DB00080462868894606F06BFD02460B46404651
:104DC000494606F0F9FE2E4B002206F0CBFDCDE958
:104DD00000012D49002322462748FFF719FA3046E3
:104DE000002106F002FB0020D4E705281DD100F0C9
:104DF000A5FA00F05EFB0446D8F8000006F048FD76
:104E000080462868894606F043FD02460B46404628
:104E1000494606F0D1FE1A4B002206F0A3FD0023FE
:104E2000CDE9000122461949D6E700F087FA00F0E3
:104E300040FB0446D8F8000006F02AFD80462868AA
:104E4000894606F025FD02460B464046494606F0D7
:104E5000B3FE0B4B002206F085FD0023CDE90001D7
:104E600022460B49B8E700BF20CB0B009CDF032094
:104E7000A0DF0320EBC60B0058E60320CCE10320A3
:104E80000000594009C70B0034C70B0084C70B0052
:104E9000DDC70B0094DF032098DF032008B5044B27
:104EA00004491A7A0448FFF7B3F9012008BD00BF8E
:104EB000A0DF03202DC80B0058E6032070B52C4B53
:104EC0002C4C1E888EB00121304606F08EFA03A8C5
:104ED00003F05EFC0023192207A903A805F009FED0
:104EE00003A805F065FD00F029FA00F049FB000A6F
:104EF000207000F023FA00F043FB0DAD607007AAAC
:104F0000A31C144603CCAC4218605960224603F13E
:104F10000803F6D122781A7000F010FA00F0C9FAEE
:104F20001549164A01240A2888BF0A46144915481B
:104F3000FFF76EF90F491448009400231B2202F07A
:104F4000E9F8054650B911490E48FFF761F93046B6
:104F5000294606F04AFA20460EB070BD0C490948B1
:104F6000FFF756F93046002106F03FFA0020F3E73C
:104F700020CB0B00A0DF032055C80B006CC80B0032
:104F800081C80B0058E60320CCE10320A1C80B0028
:104F9000CAC80B0008B511491148FFF739F900F0EC
:104FA000CDF900F086FA0A2805D900F0C7F90D4BB3
:104FB000197A00F0B5FA00F0C1F900F07AFA0A495E
:104FC00002460748FFF724F900F0B8F900F071FA3B
:104FD0000146064801F005FE012008BDEDC80B00A2
:104FE00058E60320A0DF032009C90B00D0E103200D
:104FF0001E4B37B51D881E4C0121284606F0F5F9D9
:1050000000F09CF900F0BCFA000A207000F096F95C
:1050100000F0B6FA607000F0D3F900F05EFA0523F4
:10502000A0702146009313480023032202F072F877
:10503000044680B900F0C4F900F04FFA0E49024668
:1050400023460E48FFF7E4F82846214606F0CDF93E
:10505000012003B030BD0A490848FFF7D9F82846B7
:10506000002106F0C2F90020F3E700BF20CB0B00BF
:10507000A0DF0320CCE1032039C90B0058E6032050
:1050800071C90B0008B500F09BF9054B997800F049
:105090005FFA04490448FFF7BBF8012008BD00BFD0
:1050A000A0DF03209CC90B0058E60320F0B58DB0AB
:1050B000F9238DF81A300DF11F0303930DF11E0330
:1050C00002933D4E3D480DF11D03019307AB009344
:1050D0000DF11A020DF11B03314602F04FF80446A0
:1050E00018B9002420460DB0F0BD9DF81A300027F5
:1050F000F754358800F022F900F042FA6DBAADB2EB
:10510000A84204D02E492F48FFF782F8E9E72E4D38
:105110009DF81E309DF81B202C482B70059201F045
:10512000DEFD2B49059A0346287801EB001100911A
:1051300024482849FFF76CF8D6F8020000BAC117D6
:1051400005F02AFE00F0FAF8F18849BA89B200F0B9
:1051500049FA05F03AFFC317024608A805F030FEE9
:10516000089A059200F0EAF800F00FFA059A1A4939
:1051700003461448FFF74CF808A805F019FC2B78F3
:10518000042B11D02B78022B05D1FFF7E1FCFFF7A0
:1051900001FF0028A6D12B78062BA2D1FFF7D8FC5F
:1051A000FFF770FF04469DE7FFF7D2FCFFF776FE9E
:1051B0000028E7D096E700BFA0DF0320CCE1032062
:1051C000B6C90B0058E603208CDF03209CE00320C7
:1051D00004DE0320DFC90B0011CA0B0010B5084A1A
:1051E000084C094912780978084B204602F088FCDF
:1051F00021460748BDE81040002201F081BF00BFF2
:1052000028CB0B009CE0032026CB0B00F0E303200F
:10521000CCE1032010B5044B03600446406808B19C
:1052200003F002F8204610BD14D20B0010B504465E
:10523000FFF7F0FF20467821FEF731FF204610BD32
:1052400010B5034B0360044601F09EFB204610BDE1
:1052500080CA0B0010B50446FFF7F2FF204610216C
:10526000FEF71DFF204610BD10B5044B0360044639
:10527000406808B102F0D8FF204610BD14D20B00E0
:1052800010B50446FFF7F0FF20467021FEF707FF38
:10529000204610BD10B5036804460BB902F0BCFFF0
:1052A0002068BDE8104002F0C7BF38B5044604309E
:1052B000FFF7F0FF206A616A0368DD68D4E9022322
:1052C000A8476068BDE8384002F0BEBF38B5044664
:1052D0000430FFF7DFFF206A616A03689D68D4E944
:1052E0000223A847A2682368D1885B6920469847B3
:1052F00018B9236820469B699847606802F0A4FFAC
:10530000012038BD00F12801816009494FF0480CA7
:10531000C0E903C1012181824FF47A71C16105495D
:105320000022C0E9081242608261034A02607047AD
:10533000739EA92088E303209CCA0B0010B5064C7D
:1053400023683BB97020FEF7A6FE034608B1FFF7BD
:10535000D9FF2360206810BD80E3032010B5006AE8
:1053600001F028FBFFF7EAFF0368BDE810405B6827
:10537000184710B5FFF7E2FF0368BDE81040DB688F
:1053800000211847002200F12801426082614FF499
:105390007A728160C2610749074A02624FF0500C7D
:1053A0003222C0E903C142620121044A81820260C3
:1053B000704700BF739EA92088E30320C8CA0B0072
:1053C00010B5064C23683BB97820FEF764FE03460F
:1053D00008B1FFF7D7FF2360206810BD84E30320E6
:1053E00010B5006A01F0E6FAFFF7EAFF0368BDE8CE
:1053F00010405B68184710B5FFF7E2FF0368BDE88F
:105400001040DB680021184710B504462DED028BD3
:105410000430FFF73FFFE368083B172B0CD9A36864
:1054200093ED068B606802F00FFFB0EE480AF0EED5
:10543000680ABDEC028B10BD9FED018BF2E700BF47
:105440000000000000000000F8B50446043057ECEE
:10545000106BFFF71FFFE368083B172B12D9A568F5
:105460003046D5E90623394606F0E4FC50B9C5E9D3
:1054700006672046A56802F04DFEA8602368204616
:105480001B6998476068BDE8F84002F0DDBE38B59A
:10549000044604300D46FFF7FDFEE3686068013BFB
:1054A000AB4226BFA3685D5D002502F0CDFE284615
:1054B00038BD08B51021FFF7EAFF08BD08B519216E
:1054C000FFF7E5FF08BD08B51021FFF7E0FF08BDB5
:1054D00008B52021FFF7DBFF08BD08B54421FFF721
:1054E000D6FF08BD70B5044604300D461646FFF7DA
:1054F000D1FEE368013BAB420DD3A3685A5DB242D3
:1055000009D05E552046A56802F004FEA860236815
:1055100020461B6998476068BDE8704002F094BE61
:1055200008B50A461021FFF7DDFF08BD08B50A4699
:105530001921FFF7D7FF08BD08B50A461021FFF76C
:10554000D1FF08BD08B50A462021FFF7CBFF08BDF3
:1055500008B50A464421FFF7C5FF08BD38B5044623
:1055600004300D46FFF796FEE3686068023BAB42ED
:1055700026BFA3685D5B002502F066FE284638BDA5
:1055800008B51421FFF7EAFF08BD08B53221FFF77F
:10559000E5FF08BD08B54021FFF7E0FF08BD08B5ED
:1055A0004221FFF7DBFF08BD70B5044604300D460D
:1055B0001646FFF76FFEE368023BAB420DD3A368CC
:1055C0005A5BB24209D05E532046A56802F0A2FDA4
:1055D000A860236820461B6998476068BDE8704052
:1055E00002F032BE08B50A463221FFF7DDFF08BDE2
:1055F00008B50A464021FFF7D7FF08BD08B50A469F
:105600004221FFF7D1FF08BD38B5044604300D46EE
:10561000FFF740FEE3686068013BAB4226BFA3682A
:105620005D5D002502F010FE284638BD08B5182142
:10563000FFF7EAFF08BD08B54021FFF7E5FF08BD09
:1056400070B5044604300D461646FFF723FEE368A6
:10565000013BAB420DD3A3685A5DB24209D05E55FF
:105660002046A56802F056FDA860236820461B6905
:1056700098476068BDE8704002F0E6BD08B50A468C
:105680004021FFF7DDFF08BDF8B5044604300D46A4
:10569000FFF700FEE3686068083BAB4223BFA168E8
:1056A0004919D1E90067002638BF002702F0CCFD78
:1056B00030463946F8BD08B53821FFF7E5FF08BD8B
:1056C000F8B5044604300D461E461746FFF7E2FDC6
:1056D000E368083BAB4212D3A3685A195859516882
:1056E000B14208BFB8420AD05F5120465660A56853
:1056F00002F010FDA860236820461B699847606887
:10570000BDE8F84002F0A0BD08B52821FFF7D8FF9A
:1057100008BD08B53821FFF7D3FF08BD10B50F4904
:105720000F48FEF775FDFFF74BFE0021FFF766FF00
:10573000FFF746FE0021FFF75BFFFFF741FE04463F
:1057400005F043FC0246C3172046FFF7E2FFFFF7D0
:10575000F5FDBDE810400021FFF7E8BE54CA0B007C
:1057600058E6032008B54821FFF7AAFF08BD00004E
:10577000084B012210B51A7005F0A8FE064C014630
:1057800000234FF40052204601F00AF9034B236036
:1057900010BD00BF7CE3032088E3032080CA0B0018
:1057A00008B513491348FEF733FD0221042005F024
:1057B0000BFE0021082005F007FE0121072005F05F
:1057C00003FE0021122005F0FFFD0121112005F04C
:1057D000FBFD0121102005F0F7FD0021102005F050
:1057E00004FE0021112005F000FE012008BD00BFCD
:1057F000ECCA0B0058E6032010B51849184890B0C1
:105800002024FEF705FD22460021684606F01CFC18
:10581000224600210DEB04008DF8054006F014FC33
:1058200000210DEB04008DF8254002F083FF41F2CA
:10583000D833ADF806300B4B029341F27003ADF84C
:105840000C30009B002143F400736846009302F083
:1058500071FF003818BF012010B010BD05CB0B0040
:1058600058E603208403840308B505490548FEF77C
:10587000CFFCFFF763FDBDE808400121FFF7FEBE46
:105880002CCB0B0058E603207047006A0368DB68E6
:10589000184700000A4B10B50446036003F0C8FE29
:1058A000214604F000F905F077FC05F067FC20467E
:1058B000044B40F8043B03F091FF204610BD00BFAD
:1058C00068CB0B0050CB0B0010B50446FFF7E2FF8E
:1058D00020462421FEF7E3FB204610BD38B50468BE
:1058E00005467CB16368013B63605BB92368204671
:1058F0009B689847A368013BA3601BB923682046B7
:10590000DB689847284638BD70B5D0E900531426A7
:10591000044606FB0356AE4204D0284605F048F87C
:105920001435F8E7206802F0BBFF204670BD8842BE
:10593000F8B504460D46164616D9904215D2A2F186
:105940001406751AA1F114072C44B7421CD02CB1CF
:105950003146204605F0A8F8337C2374304605F024
:1059600027F8143E143CF0E70ED0B5420CD02CB111
:105970002946204605F098F82B7C2374284605F02C
:1059800017F814351434F0E7F8BD2DE9F041002381
:10599000C0E9003383604F689F4204460E4623DD12
:1059A0004FF0140808FB07F002F072FF0546D8B16B
:1059B000D4E9001208FB0212FFF7B9FF206802F0D9
:1059C0006FFF2560A760D6E9007308FB0378B84530
:1059D00008D03946284605F081F83B7C2B741437F3
:1059E0001435F4E7736863602046BDE8F081000079
:1059F00070B5274B274A01251D70274B00248CB01A
:105A00009A60C3E90044022002F050FE2146284675
:105A100002F064FE2946042002F026FCCDE9004491
:105A2000029405F0B9FB1D4C0546694603A8FFF733
:105A3000ACFF264603A906A8FFF7A7FF184B46F8B8
:105A4000043B06A909A8FFF7A0FF09AA1E213046BA
:105A500004F00CF909A8FFF757FF06A8FFF754FF59
:105A6000104B2360256203A8FFF74EFF0E4B236007
:105A700005F092FB4FF4165105F07CFB03F0D8FDC6
:105A8000214603F0C9FF6846FFF73EFF0CB070BD2A
:105A9000A4E303200000FFFF98E30320A8E3032012
:105AA00050CB0B00B4D30B0068CB0B0010B50368D0
:105AB0002F2B044604D9074A07490A2002F0BCFDEF
:105AC00023681F2B83BF03F01F03044823604FF09C
:105AD000A04010BD89820B00F1CB0B0000030050E9
:105AE00007EE900A9FED097AF8EEE77A67EE877A7B
:105AF0009FED077A87EE870ADFED067A70EE677A08
:105B0000B2EE040A87EE800A704700BF00404E459F
:105B100000F07F450000FA4313B5012101A804F00D
:105B200058FCFFF74DFCFFF7CEFCFFF749FCFFF7F1
:105B3000CAFC252801A80DD904F0DEFCFFF740FCC3
:105B40000121FFF7FFFC002401A804F051FC2046CE
:105B500002B010BD04F0B5FC0124F5E730B5194DD5
:105B60000FCD97B00CAC0FC40FCD0FC495E8030058
:105B700084E80300144904A802F060FF04A802F0BE
:105B8000A0FF044604A802F0D5FF04A810EE105AA6
:105B900003F000F816AB10EE100A03EB840405F0D6
:105BA00089FECDE90201284605F084FECDE9000119
:105BB000064A54F8283C0648402102F089FE17B0F6
:105BC00030BD00BF78CC0B0014E6032015CC0B00D1
:105BD00084DE0320F0B54F4E4F4C3378BFF35B8F1C
:105BE00013F0010F85B009D13046FEF767FA28B1EE
:105BF00002F07AFB20603046FEF765FA474B1D88BD
:105C000023682D015B5D5F013378BFF35B8FD9079C
:105C100009D44048FEF752FA28B102F065FB206033
:105C20003C48FEF750FA23682B4403A85B7803F046
:105C30001F033B430393FFF739FF039A012393406C
:105C4000C0F80835FFF7BCFB074605F0BEF9024671
:105C5000C3173846FFF75DFDFFF7B2FB0746FFF7B6
:105C6000AFFBFFF797FC013081B23846FFF7C0FC6D
:105C7000FFF7A6FB0746FFF7A3FBFFF790FC0130F9
:105C800081B23846FFF7BAFCFFF79AFBFFF782FCB8
:105C90000190FFF795FBFFF782FC019A204903462C
:105CA0002048FEF7B5FAC82002F062FE3378BFF351
:105CB0005B8FDA0709D41748FEF700FA28B102F023
:105CC00013FB20601348FEF7FEF923685B5D5F015C
:105CD0003378BFF35B8FDB0709D40E48FEF7EEF98C
:105CE00028B102F001FB20600A48FEF7ECF92368B6
:105CF0001D4403A86B7803F01F033B430393FFF796
:105D0000D5FE039B012202FA03F3C0F80C351046BE
:105D100005B0F0BDCCE30320D0E3032020CB0B0083
:105D20002ECC0B0058E6032030B585B00D4600227E
:105D30006946009202F0A8FC90B9009C0CB123695E
:105D400023B9084A08490A2002F076FC0C23CDE961
:105D500001350423039301AA2369012120469847B2
:105D600005B030BD89820B004BCC0B0013B5FFF79B
:105D700027FB01A904460720FFF7D6FF011EA8BF95
:105D800001992046C9B2FFF7DDFBFFF7D7FAFFF70D
:105D90004DFC30B1174802F0C7FF4FF4FA7002F023
:105DA000E7FDFFF70DFB01A904460320FFF7BCFF49
:105DB000E8B9BDF8043007EE903AFBEECC7A17EE66
:105DC000900A05F077FD41EC100B2046FFF73CFBF5
:105DD000FFF7F6FAFFF718FB074B51EC100B002208
:105DE00006F050F8003818BF012002B010BDFFEED9
:105DF000007AE4E7D4E3032000004E4013B5FFF738
:105E0000DFFA114B0446188805F01BFBFFF768FE0C
:105E1000FDEEC07A2046CDED017A9DF80410FFF723
:105E20008BFBFFF7CDFAFFF74EFB084A0346102124
:105E3000074802F04DFDFFF799FFFFF76DFEFFF7F2
:105E40008DFE012002B010BD2ACB0B0071CC0B00DF
:105E500074DE03200148002102F022BFD4E30320B6
:105E6000704710B520210446FEF719F9204610BDF1
:105E700010B504468AB008464FF0200C0021CDE949
:105E80000023CDE902C10B4602AA216802F0E4FB1F
:105E90000AB010BD0EB403B503AB322153F8042B86
:105EA0000193FFF7E5FF02B05DF804EB03B0704724
:105EB0000EB403B503AB012153F8042B0193FFF794
:105EC000D7FF02B05DF804EB03B0704710B5027263
:105ED000FF2242810022C0E9032242610276C261B0
:105EE000024A034C1060C0E9004110BDE0E303200A
:105EF000F0CE0B002DE9F8439DF82080044689463A
:105F000016461F46B8F1000F02D0406802F0A6FF07
:105F1000217A606802F07FFF6068036849469B68E9
:105F200098476068002102F095FF054600BB0123F9
:105F3000217A60683A4602F05CFF8742034609D145
:105F40003744BE421CD0606803685B69984706F816
:105F5000010BF6E70B490C484A46FFF79BFFB8F1E7
:105F6000000F02D0606802F082FF2846BDE8F88387
:105F70000346064904484A46FFF78CFF0025EEE732
:105F80000125ECE7A0CC0B00DCE30320C5CC0B0023
:105F900007B500930123FFF7ADFF03B05DF804FBE5
:105FA00073B54389FF2B044610D0194E194D02F0EA
:105FB00073F9B0F57A7F09D2608905F02FFA0128CC
:105FC00004D031462846FEF723F9F0E701230DF10E
:105FD000070228212046FFF7DBFF30B90D480E49A4
:105FE000FEF716F9002002B070BD9DF80730182B9F
:105FF000F4D101230DF1070229212046FFF7C8FF44
:106000000028EBD09DF80730052BE7D1EBE700BF68
:10601000E9CC0B00DCE30320FECC0B0007B51346F4
:1060200000228DF807200DF10702FFF7B1FF9DF860
:10603000070003B05DF804FB2DE9F0419DF81880DE
:1060400004460F4615461E46B8F1000F02D04068C0
:1060500002F004FF217A606802F0DDFE60680368E8
:1060600039469B6898472E44B542606805D003685E
:1060700015F8011B9B689847F6E7012102F0EAFE3C
:10608000034670B1084909483A46FFF703FF002567
:10609000B8F1000F02D0606802F0E9FE2846BDE8C2
:1060A000F0810125F4E700BF0BCD0B00DCE30320FA
:1060B0001FB58DF80F2000930DF10F020123FFF79C
:1060C000BBFF05B05DF804FBF8B50A460C46054673
:1060D0001A491B48FEF79CF8002CB8BFEC687CB945
:1060E000012322461B212846FFF7E2FF15490246FD
:1060F00006461348FFF7DCFEEC606C613046F8BDE5
:10610000032C19DDA7101F2FA8BF1F27BA0062F0AC
:106110007C020123D2B21B212846FFF7C9FF3A4671
:106120000346094906460648FFF7C2FE4FF4FA63E4
:106130005F43EC606F61E1E70127E7E730CD0B00DB
:10614000DCE303203ACD0B0056CD0B00064B1A685A
:106150004AB1A0F500630B4305D1D3681BB1002100
:106160001046FFF7B1BF7047E0E303202DE9FF4180
:106170009DF82880054616461F46B8F1000F04D04A
:106180004068019102F06AFE0199019100230DF12E
:106190000F022846FFF7FCFE044660B19DF80F3061
:1061A00003EA06023A43934205D0019900232846A8
:1061B000FFF77EFF0446B8F1000F02D0686802F0D6
:1061C00056FE204604B0BDE8F08113B514460DF12B
:1061D0000702FFF7DDFE28B19DF807301C420CBF17
:1061E0000120002002B010BD13B514460DF10702C6
:1061F000FFF7CEFE28B19DF807301C4214BF0120E6
:10620000002002B010BD07B5D2430093D2B20023E4
:10621000FFF7ACFF03B05DF804FB000037B50123C6
:106220000DF107020F210446FFF7B2FE054638B90B
:106230001E491F48AD22FFF72DFE284603B030BD92
:106240009DF8073013F0200F4FF001030BD02022F0
:10625000E3610F212046FFF7D6FF164A164914487E
:10626000FDF7D6FFE9E7082217212046FFF7BCFF1C
:1062700018B10223114AE361F0E79DF807301A07CD
:1062800009D50323E361082201230F212046FFF7EC
:10629000BAFF0B4AE2E75B07CFD50422E261012394
:1062A0000F212046FFF7AFFF064AD7E7A9CD0B0025
:1062B000DCE303207ACD0B00C8CD0B0083CD0B00AF
:1062C00093CD0B00A3CD0B0007B500931346FF221F
:1062D000FFF74CFF03B05DF804FB0000F8B50F4674
:1062E0001646012300220F210546FFF7E1FE044672
:1062F00038B94FF425721F491F48FFF7CBFD2046E0
:10630000F8BD0123232218212846FFF7D1FE0446B9
:1063100010B940F29B22EEE7FF2FA8BFFF27012F05
:10632000B8BF01270123FAB219212846FFF7C0FEA2
:10633000044610B94FF42A72DDE701230822122126
:106340002846FFF7C1FF044610B940F2AF22D2E75A
:10635000002E14BF03220222012342F080021821E2
:106360002846FFF7A5FE04460028C8D140F2B9220E
:10637000C1E700BFD9CD0B00DCE303202DE9F743D3
:106380000A4605460F464F484F49FDF741FF002199
:106390002846FFF799FE044648B940F2F7124B49E8
:1063A0004848FFF777FD204603B0BDE8F08301239E
:1063B0001A4630212846FFF787FF044610B940F2FD
:1063C0000522ECE71022012311462846FFF71BFFA8
:1063D000044610B94FF40372E1E70123262213218A
:1063E0002846FFF765FE044610B940F21322D6E7AF
:1063F000012600963346FC2211212846FFF7B6FEFF
:10640000044610B940F21B22C9E70022394628464B
:10641000FFF764FF044610B940F22222BFE700965E
:106420000223772210212846FFF7A0FE044610B968
:1064300040F22B22B3E7334604221C212846FFF703
:1064400043FF044610B940F23222A8E70096182311
:10645000E32211212846FFF789FE044610B940F2D5
:1064600039229CE73346C02217212846FFF720FE39
:10647000044610B94FF4107291E701F00DFFDFF8F8
:106480005490DFF840804FF47A7106464F4301F094
:1064900003FF801BB8420ED2012217212846FFF7C6
:1064A000BDFD494602464046FDF7B2FE4FF47A7004
:1064B00002F05EFAEBE706490248FFF7EBFC04F056
:1064C00098FB70E7DCE3032004CE0B00F9CD0B0052
:1064D0002ACE0B0015CE0B002DE9F3479DF828A01E
:1064E00005460C4691461F46BAF1000F02D040689F
:1064F00002F0B4FC07B3202F3E4628BF20267F2C95
:1065000026D83319802B01D9C4F180060123042237
:106510003F212846FFF777FE002364F07F010093B8
:106520004A463346C9B22846FFF7E4FC804628B104
:106530003444BF1BB144DDE74FF00108BAF1000F4E
:1065400002D0686802F093FC404602B0BDE8F087D4
:10655000012304223F212846FFF7B6FEDCE72DE9A0
:10656000F3479DF828A005460C4691461F46BAF110
:10657000000F02D0406802F071FC07B31F2F3E46A7
:1065800028BF1F267F2C26D83319802B01D9C4F1B0
:106590008006012304223F212846FFF734FE002312
:1065A00064F07F0100934A463346C9B22846FFF79C
:1065B00043FD804628B13444BF1BB144DDE74FF0B2
:1065C0000108BAF1000F02D0686802F050FC4046A2
:1065D00002B0BDE8F087012304223F212846FFF7DF
:1065E00073FEDCE730B585B00D68D1E90432039560
:1065F0004D6802958D680195C96800910133044981
:1066000002F26C72044604F08DFA204605B030BDEB
:106610003CCE0B0003090A2200F00F0002FB03002E
:10662000704738B5044600781546FFF7F3FF086059
:106630006078FFF7EFFF4860A078FFF7EBFF886016
:10664000E078FFF7E7FFC8602079FFF7E3FF013844
:1066500008612DB9651D2878FFF7DCFF886138BD1A
:106660006079FFF7D7FF6430A51D4861F3E70000AC
:1066700070B5012388B00D461A4610210446FFF775
:10668000A4FDF0B108230126204600960DEB03027D
:106690000021FFF72FFC044698B1324629460DF140
:1066A0000900FFF7BEFF04A8FFF79CFF0848049A03
:1066B0000849FDF7ADFD04A804F07AF9204608B0BA
:1066C00070BD24220021284605F0BEFC0024F5E719
:1066D000DCE303205ACE0B0030B58BB00D4601A988
:1066E000FFF7C6FF044620B101A802F039F9C5E959
:1066F000000120460BB030BD0A2390FBF3F103FBF1
:10670000110091FBF3F203FB121240EA0210C0B237
:10671000704770B5054600680C461646FFF7ECFF5B
:1067200020706868FFF7E8FF6070A868FFF7E4FF73
:10673000A070E868FFF7E0FFE07028690130FFF71C
:10674000DBFF20712EB9661DA869FFF7D5FF3070F9
:1067500070BD6A69642392FBF3F003FB1020FFF71E
:10676000CBFFA61D6071EFE7F0B587B0054602A824
:1067700016460C46FFF736FF1E48029A1E49FDF7E3
:1067800047FD02A804F014F916B1686802F066FB30
:10679000204601220DF1090100278DF80870FFF74E
:1067A000B8FF01231A4610212846FFF78DFD044645
:1067B000E8B1082300970DEB030239462846FFF79E
:1067C0003BFC044660B101231A4610212846FFF71E
:1067D0001AFD16B1686802F04AFB204607B0F0BD0A
:1067E0004FF48D7205490348FFF754FBF1E74FF46E
:1067F0008F72F7E7DCE3032068CE0B0076CE0B0048
:1068000013B504466846CDE9002305F0CFFB9DF89B
:10681000102001462046FFF7A7FF02B010BD000080
:10682000F0B5057E89B0044675BB04F0B1FB58B3E2
:106830000026002704A92846CDE9046701F0B8FF27
:1068400010B30125257604F0C0FBC317CDE9020380
:10685000024600952046FFF7D3FF02A92046CDE966
:106860000267FFF739FF134B13491B68009304A815
:10687000DDE9022304F04AFB1048049A1049FDF7B1
:10688000C7FC04A804F094F863698BB101F004FD1F
:106890002369C01A636998420AD301F0FDFC4FF0E6
:1068A000FF312061204609B0BDE8F040FFF70CBC85
:1068B00009B0F0BDCCDE0320ACE60320DCE303200E
:1068C00091CE0B0030B504468BB011B1406802F098
:1068D00073FA2046FFF764FB06AD002837D0204648
:1068E000FFF79CFC01231A4610212046FFF76DFCA0
:1068F000D8B104F04DFBC0B902A92046FFF7ECFE69
:10690000DDE9020104F048FA134B14491B680093B7
:106910002846DDE9022304F0F9FA1148069A1149E4
:10692000FDF776FC284604F043F80F4B06930F4B17
:1069300009930F4B08934FF40062002302A80095BF
:10694000FDF756FF2846FDF719FC0BB030BD09498D
:106950000348FFF79FFAE8E7CCDE0320ACE603200C
:10696000DCE30320A7CE0B004D610B0073410B004D
:106970005F410B00C4CE0B00014B024A1A60704706
:10698000DCE30320DCCE0B00704710B51021044679
:10699000FDF785FB204610BD0368C9B29B68184708
:1069A00030B5034DC0E90223C0E9005130BD00BF3E
:1069B00008CF0B00406802F0FFB910B5044600682C
:1069C00002F055FA204610BD2DE9F7430446406811
:1069D00001900D4616461F4602F040FAA7B1E16845
:1069E000606841F0500102F01AFA290A6068FFF766
:1069F000D3FF29466068FFF7CFFF6068002102F0EF
:106A000029FA48B1002400E0012401A8FFF7D5FFCE
:106A1000204603B0BDE8F083202F217B6068B84694
:106A200028BF4FF020080123424641F0500102F0F8
:106A3000E0F904F04BFD03681B6998474045E1DB32
:106A400006EB080904F042FD03685B69984706F805
:106A5000010B4E45F6D14544A7EB0807BEE72DE9EB
:106A6000F74F0446406801900E4690461D4602F0DE
:106A7000F5F94FF00109B9F1000F2AD04DB3E168E3
:106A8000606841F0500102F0CAF9310A6068FFF70E
:106A900083FF60683146FFF77FFFA5F11E0A474676
:106AA000A6EB080B606817F8011B0368013D9B68A3
:106AB000984755450BEB0706B84601D0002DF1D19C
:106AC0006068012102F0C6F90028D7D04FF0000914
:106AD000D1E701A8FFF771FF484603B0BDE8F08F8A
:106AE0002DE9F0438BB00E46154680464068019074
:106AF0001C4602F0B3F9AE4229D2264425448CB19B
:106B00001E2C2746D8F8003028BF1E27F61BD3F8C6
:106B1000089002AA3B4631464046ED1BC84748B99B
:106B2000002400E0012401A8FFF747FF20460BB036
:106B3000BDE8F083D8F8003002AAD3F80C902946BB
:106B40003B464046C8470028EAD0E41BD7E7E9D9CE
:106B5000002CE7D0D8F800301E2C274628BF1E276F
:106B6000D3F8089002AA3B4631464046C847002861
:106B7000D6D0D8F8003002AAD3F80C9029463B466C
:106B80004046C8470028CBD03E443D44E41BDFE7E5
:106B900001600271704700680368DB68184700688D
:106BA00003681B6A1847006803689B6A18470079E6
:106BB0007047006803689B6B184737B505460C465D
:106BC00019460192FFF7F5FF2868019A03685B698F
:106BD000214603B0BDE83040184700680368DB6B0E
:106BE000184738B50446006803680D465B6B984744
:106BF00029462046FFF7F1FF257138BD38B5044618
:106C0000006803689B689847054618B121792046BB
:106C1000FFF7E7FF284638BD006803681B6C18477C
:106C2000006803685B6C184700680368DB6C1847F2
:106C3000006803681B6D1847006803685B6D1847A0
:106C4000006803689B6D18472DE9F8430446006807
:106C50000A9F1E4603681B69DDE9089898470546A8
:106C6000C8B11EB12046FFF7E3FF3070B9F1000F45
:106C700004D02046FFF7D8FF89F80000B8F1000FD4
:106C800004D02046FFF7D8FF88F800001FB1204647
:106C9000FFF7D6FF38702846BDE8F883012070471B
:106CA0000379032BFCD001207047002070478171CD
:106CB000704741717047C1727047017370474173EB
:106CC0007047837B23EA0202114381737047C079C6
:106CD0007047007A7047407A7047807A7047008A20
:106CE00000B270470079704701717047408A80B2E6
:106CF0007047808A80B27047C08A80B2704738B5CA
:106D000005460C462B682846DB68984728B9002CB6
:106D1000F8D0204601F02CFEF4E738BDF8B5054662
:106D20000F46144601F0B8FA064601F0B5FA801B8A
:106D3000B8420AD22B682846DB68984730B9002C45
:106D4000F3D0204601F014FEEFE70020F8BD70B547
:106D500004460E4601F0A0FA054601F09DFA401BDC
:106D6000B04204D22379032BF7D0012070BD00205C
:106D7000FCE770B5C3690446B3B101F08DFA64262F
:106D80000546236820461B6B984768B101F084FADA
:106D9000E369401B984209D80A21012003F031FD24
:106DA000704301F0E5FDECE7012070BD0020FCE739
:106DB000064A0260FF210022027141714282C172C3
:106DC000828281818273C282C261704724CF0B00AC
:106DD00070477047704770477047417170478171C5
:106DE000704701717047000030B5034D05600171B7
:106DF0004271837130BD00BFA4CF0B00704710B546
:106E000010210446FDF74BF9204610BD0EB403B522
:106E100003AB002153F8042B019303F0B6FC02B03E
:106E20005DF804EB03B0704773B504460846227959
:106E3000A36832B1A3B90B4902B0BDE8704003F0BA
:106E40009BBB094A267B094D0949647B012E18BF6B
:106E50002946CDE900140749FFF7D8FF02B070BDFD
:106E6000054AEFE7E1CF0B007DD30B00DDCF0B0030
:106E7000D9CF0B00F7CF0B00D0CF0B0010B50446D5
:106E8000FFF7B2FF054B2360054BA360012323737B
:106E900000232361A382204610BD00BF30D00B0029
:106EA0001CD00B0013B50B4C2178BFF35B8F11F096
:106EB00001010BD120460191FDF700F9019928B19C
:106EC000054803F0B5FC2046FDF7FDF8024802B086
:106ED00010BD00BFE4E30320E8E3032007B5019100
:106EE000FFF7E0FF019903B05DF804EB03F058BD34
:106EF00008B5FFF7D7FFBDE8084003F057BD08B558
:106F0000FFF7D0FFBDE8084003F051BD10B503798D
:106F1000042B20D0032B20D0022B20D0114A124961
:106F2000012B18BF0A4641798379013918BF012125
:106F300033B1012B04D0022B02D0032B18BF002346
:106F400000240473026101754375FFF7ABFFBDE8D0
:106F5000104003F077BC054AE5E7054AE3E7054A38
:106F6000E1E700BF80841E0040420F000024F400CF
:106F700000127A0000093D0008B5FFF793FFBDE855
:106F8000084003F073BC10B50446FFF78BFF04F113
:106F90000801BDE8104003F095BC08B5FFF782FF7B
:106FA000BDE8084003F074BC08B5FFF77BFF08BDDF
:106FB000002302481A461946FFF760BFF0E303209A
:106FC000012A05D1007A0B781B1A584258417047A4
:106FD000002070472DE9F047254C012386B023702F
:106FE000637000230F46A17000930322FF23214604
:106FF000064600F0B7FB20B10025284606B0BDE8E4
:10700000F087FA238DF8173001F046F906F10409EC
:10701000804608F57A6501F03FF9291A0029EBDD71
:10702000002289B24846FFF7BEFD0028F3D00023B6
:10703000CDE90233CDE900330DF117022146304688
:1070400000F09AFB05460028E3D09DF81730012B8D
:10705000DFD994F800A0BAF1020FDAD14846FFF761
:10706000E7FD534602463946304600F0F3FAC4E7DE
:1070700008E40320012A2DE9F34107460E46144691
:107080003BD94D79022D30D100F10408C979019125
:107090004046FFF7CDFD083C2B4602460199384695
:1070A00000F0D8FAE5B206F1080300242246954222
:1070B00004F10104E4B204D913F8012B397A9142A6
:1070C000F4D104F108010E44A54216D916F8011BAB
:1070D00001914046FFF7ACFD0134024601990223BD
:1070E0003846E4B200F0B6FAEEE7032D05D189790F
:1070F00002B0BDE8F04100F096BA02B0BDE8F08100
:1071000010B5044600F0E6FA014B2360204610BD9E
:1071100064D00B002DE9F047F92A9DF8209006462F
:107120000F4614461D4625D8FF2B14D1DFF84880A2
:10713000404600232246394600F8013B04F05CFF3C
:10714000621CCDF820902B4641463046D2B2BDE8B5
:10715000F04700F007BB194600F021FA0028E5D1FE
:10716000336829469B68304698470028DED10220C4
:10717000BDE8F0870120FBE708E403202DE9F04F8C
:1071800089B09846FA238DF81A300DF11F03039346
:107190000DF11E0302935D4E0DF11D03019307AB2C
:1071A0000093894617460DF11B030DF11A02314673
:1071B000DDE912BA054600F0DFFA044620B90024E2
:1071C000204609B0BDE8F08F9DF81A3073B33278CD
:1071D00062BBB8F1000F03D09DF81B2088F8002097
:1071E000BBF1000F03D09DF81C208BF80020BAF1F2
:1071F000000F03D09DF81D208AF80020149A1AB1C0
:1072000014999DF81E200A70159A1AB115999DF8C7
:107210001F200A703A783E49013BDBB29A4288BF90
:107220003B703A78484604F0E7FEC9E79DF81C2019
:10723000FF2AC4D1012BC2D93278012ABFD12A7AC0
:107240009DF81B40A242BAD0DF1E3249FFB2002394
:107250005FFA83F8474506D911F8010B824203F122
:107260000103F5D1ABE705F104094846FFF7E0FC5F
:10727000022302462146284600F0ECF995F8173122
:1072800093B1224CA31BDBB29F420CD9E17805914C
:107290004846FFF7CDFC059902460223284600F038
:1072A000D9F90134EEE7B8462B687278DB681A49E1
:1072B00028469847044660B10223002433709DF8A5
:1072C0001A209DF81B3011490094284600F04AFA14
:1072D00076E795F8163143457FF671AF95F817318B
:1072E000002B3FF46CAF9DF81A202B7A07493E44DF
:1072F0000132F3709DF81B300190D2B20093284602
:10730000FF238DF81A2000F0F7F959E708E403206D
:1073100009E403200BE403200AE40320F0B585B060
:10732000054604300E460392FFF782FC039A074697
:107330003146284600F04AF90228044601D00528C3
:107340001BD13178284600F06EF972782B7A9A4278
:1073500013D00B4C032323703378637071780223AE
:107360003A46284600F076F90023009321467378C8
:107370000222284600F0F6F90446204605B0F0BD8A
:1073800008E4032010B50446FFF702FCC8230021DF
:10739000E3810323A160217323744FF4807204F10D
:1073A000110004F051FE204610BD1FB504460192A5
:1073B000FFF732FC204600228021FFF731FC21221A
:1073C000019B8DF80F200DF10F0101222046FFF7E0
:1073D000F4FB2046FFF7E3FB04B010BD2DE9F04FAE
:1073E000057B0135EDB287B0044689469246984642
:1073F00005730027227C3B469A4207F10107FFB242
:107400006BD329462046FFF707FC012F0DBFC02292
:107410008022402100212046FFF702FC43465246CD
:1074200049462046FFF7C9FB2046FFF7B8FBB8F1F5
:10743000FF0F54D0012F82BFA3680133A36000F077
:107440002BFF4FF4807183460020E68903F0D9F9C1
:10745000704348BFFF3006EB20261BFA86F600F08B
:107460001BFF301A0028C5DD81B200222046FFF73D
:107470009AFB0028F3D00DF1170302930DF11603C8
:10748000019300220DF115030093114605AB204630
:10749000FFF7DAFB0028E2D09DF814209DF91730A1
:1074A00042450ED194F804C09DF815108C4508D1C2
:1074B000002B08DA9DF81630AB42D0D107B0BDE8FA
:1074C000F08F002BCBDBA1189DF81630497C994238
:1074D000C5D12046FFF769FFC1E70020EEE7012094
:1074E000ECE72DE9F04389B0CDE90421DDE91098FE
:1074F000129F04461E46FFF74EFBDDE9042120B92A
:107500000025284609B0BDE8F0830DF11F03029362
:107510000DF11E0301930DF11D030093204607ABEF
:10752000FFF792FB05460028EAD09DF91F30002B9B
:10753000E6DB22799DF81D309A4206D19DF81C2089
:107540009DF81E102046FFF730FF9DF81F209DF884
:107550001C109DF81E3012F0400F0C4402D0607CCD
:107560009842CDD006B13170B9F1000F03D09DF82B
:107570001D1089F80010B8F1000F01D088F8003014
:1075800007B13A706374BCE7704710B50446043025
:10759000FFF734FB10B11E2384F8163110BD10B56F
:1075A0000246002392F818418C4208D192F81A4101
:1075B0002CB103EB430303F58C73184410BD013366
:1075C000322B02F10302EDD10020F7E737B50B783B
:1075D000FF2B05460C4606D019460192FFF7DFFF48
:1075E00058B14378019A2146281DFFF7F7FE00287D
:1075F00014BF0020052003B030BD0220FBE710B50A
:1076000001EB41030446C1F1310203F58C7003F232
:107610001B1102EB42022144204404F0EDFC002344
:1076200084F8AD3110BD38B50A46002300F58C74DE
:1076300003EB4305D9B2655D954203D1FFF7DFFF48
:10764000012038BD0133322BF2D10020F9E70021AF
:10765000FFF7D5BFF8B516461F4604460D46002372
:1076600000F58C7203EB4300115CA94205D1204464
:1076700080F8196180F81A71F8BD0133322BF1D10D
:10768000002304F58D7203EB4300115C19B920440B
:1076900080F81851ECE70133322BF4D12046FFF784
:1076A000D6FF204604F1960390F81A212AB980F8F3
:1076B000185180F8196180F81A7103309842F3D19B
:1076C000DAE700F19603002280F81A21033098428D
:1076D000FAD1704710B504460430FFF753FE054B4E
:1076E00023604FF48F732046A4F81631FFF7E9FFAB
:1076F000204610BD7CD00B002DE9F34704464068BE
:1077000001911F4603689DF828A09B699DF82C9065
:107710001646984706F1050880451CD8104D01997A
:1077200085F801A00023AB7094F81531EB705A1C5A
:1077300084F81521681D32462F7085F8049004F0F6
:107740005BFC23685B685FFA88F22946204602B03A
:10775000BDE8F0471847012002B0BDE8F08700BF40
:1077600002E5032013B59DF810400194047A0094BB
:10777000FFF7C2FF02B010BD2DE9F04F87B01F46E2
:10778000FF238DF813300DF117030293DFF8D0902B
:107790000DF1160301930DF115030093044688467D
:1077A000164605AB0DF1130249460430DDE910BA67
:1077B000FFF797FE054608B9002538E023689DF8D5
:1077C00013201B6849462046984799F80030227AD2
:1077D0009A4201D0FF2B2ED117B1214B5B783B7021
:1077E000BBF1000F03D01E4B1B788BF80030BAF1B1
:1077F000000F03D01A4BDB788AF80030129B1BB1C4
:10780000174B129A1B791370139B1BB1144B139ACD
:107810009B7813709DF8133032781249053BDBB228
:107820009A4288BF33703278404604F0E5FB284620
:1078300007B0BDE8F08F99F802305A1C89F8022091
:1078400094F816219A42B7D994F81731002BB3D087
:1078500023689DF813205B68494620469847ABE7AC
:1078600002E5032007E5032010B50446006A03681B
:10787000DB68984794F82400FF2802D0012103F028
:10788000A3FD23682046DB6F9847642001F070F861
:10789000012010BD90F82400002103F0A6BD90F84F
:1078A0002400012103F0A1BD70B504460D46164623
:1078B000FFF77EFA034B2360266284F824502046AB
:1078C00070BD00BF8CD00B0038B50446006A036859
:1078D0001B6A0D469847236820469B6F9847206A8D
:1078E000036805F07F011B689847206A0368002140
:1078F0001B68984723680546DB6F20469847206A37
:1079000003685B6A9847284638BD70B50446006A2C
:1079100003681B6A16460D469847236820469B6FEE
:107920009847206A036845F080011B689847054620
:10793000206A036831461B689847012000F0A4FCC8
:1079400023682046DB6F9847206A03685B6A984784
:10795000284670BDF8B50446006A1E4603681B6AD7
:107960000F4615469847236820469B6F9847206A24
:10797000036807F07F011B6898472E440746B5420D
:1079800007D0206A036800211B68984705F8010B9F
:10799000F5E723682046DB6F9847206A03685B6A37
:1079A00098473846F8BDF8B50446006A1E46036895
:1079B0001B6A0F4615469847236820469B6F9847D9
:1079C000206A036847F080011B6898472E440746E9
:1079D000B54206D0206A15F8011B03681B6898475A
:1079E000F6E723682046DB6F9847206A03685B6AE6
:1079F00098473846F8BD006A03689B6A184701201B
:107A00007047FB207047704710B50379052B04467B
:107A100010D003680521D3F8803098470722012150
:107A20002046FFF772FF802240212046FFF76DFFBE
:107A3000052323712379052BFCD0207E10BD10B5C2
:107A40004FF498710446FCF72AFB204610BD10B590
:107A50000379012B04460BD003680121D3F8803051
:107A60009847002201212046FFF74FFF0123237191
:107A7000012010BDF8B50368DB6804460F461546C3
:107A800098470646B0B187B17DB194F828302A787E
:107A9000033B9342DEBF94F82830043B2B702A78D6
:107AA00004F12D01384604F0A7FA002384F82831A8
:107AB00084F828303046F8BD142938B505460C4600
:107AC00014DC012914DD112913DD07224D2128467C
:107AD000FFF71BFF033C64B2A21E62F07F02284640
:107AE000D2B2BDE838400921FFF70FBF1424ECE7FC
:107AF000022404224D212846FFF707FFECE700008F
:107B000038B5044615461A46FFF7CEFE094B2360EA
:107B1000FF22002384F82720012284F8283184F8EA
:107B20002C3184F8265084F82B2184F82530204607
:107B300038BD00BF24D10B0090F82830032B1BD98F
:107B400090F82930C37190F82A30037290F82B30E6
:107B5000437290F82C308372837933B9C3794279B8
:107B60009A4202D0C379FF2B06D1838A01339BB29C
:107B70008382012380F82831704700000000000054
:107B800038B504462DED028B10EE100AB0EE408A97
:107B900003F090FE17A3D3E9002303F0E3FE17A33D
:107BA000D3E9002304F008F804F0B4F906210546EF
:107BB000C0F307422046FFF7A8FEC5F307220721BE
:107BC0002046FFF7A2FEEAB208212046FFF79DFEFD
:107BD000DFED077AB4EEE78ABDEC028BF1EE10FA26
:107BE000ACBF01230023012084F8293138BD00BF38
:107BF00000C042440000000080842E4100000000CC
:107C000080844E4010B50379022B04460BD00368E4
:107C10000221D3F880309847012211462046FFF711
:107C200074FE0223237110BD70B512210446FFF7C4
:107C30004BFE1C2105462046FFF746FEFF22064666
:107C400012212046FFF761FE2379042B07D115F09E
:107C5000A00F17D194F82B310BB1700612D52379F0
:107C6000042B01D1690622D42379032B01D12A07E1
:107C700068D42379052B0ED16B070CD505F00105CF
:107C8000257663E0638A01339BB26382002384F824
:107C9000283184F82830FF2212212046FFF735FED4
:107CA0002046FF22BDE870401221FFF72EBE1321AF
:107CB0002046FFF709FE102105462046FFF704FE87
:107CC0000D2102462046FFF720FE04F129022B4633
:107CD00000212046FFF73EFE192184F82850204657
:107CE000FFF7F2FD40B20028B8BF0330801084F8DF
:107CF0002A011A212046FFF7E7FD94F92A3100B244
:107D0000002B2082A9BF238A228A1BB21B01B2BF8B
:107D10009B180F2293FBF2F31BB2238294F82931B4
:107D20006BB1238A9D3B1BB223822046FFF704FFE1
:107D300094F82831002BAED0FFF764FFABE7238A1D
:107D4000A43BF0E7E38A01339BB2E3822046F3E7EA
:107D5000024B186808B1FFF767BF704704E60320BD
:107D6000024B586808B1FFF75FBF704704E6032075
:107D7000024B986808B1FFF757BF704704E603202D
:107D800010B50379042B044610D003680421D3F8FE
:107D900080309847052201212046FFF7B6FD0022DA
:107DA00040212046FFF7B1FD0423237110BD10B51B
:107DB0000379032B044605D0FFF7E2FF94F828016E
:107DC000C0B210BD0020FCE710B50379032B0446B8
:107DD00010D003680321D3F8803098470322012193
:107DE0002046FFF792FD402211462046FFF78DFD09
:107DF0000323237110BDFB2AF8B504460F46154630
:107E000002D900263046F8BD03681B6A9847204611
:107E1000FFF7F8FE23682046DB6A984706460028ED
:107E2000EFD000220D212046FFF76FFDE27A0021FE
:107E30002046FFF76AFD227B00212046FFF765FD03
:107E4000627B00212046FFF760FDA27B00212046D7
:107E5000FFF75BFD2B463A4600212046FFF7A3FDC6
:107E60002A1DD2B222212046FFF74FFD2046FFF700
:107E7000ABFFC7E710B5044680F8252072B181F347
:107E8000040242F07002D2B20921FFF73EFD204603
:107E90000422BDE810404D21FFF737BDBDE810407A
:107EA000FFF70ABE38B50C4605460A781D21FFF7D4
:107EB0002CFD62781E212846FFF727FDA278284670
:107EC0002621BDE83840FFF720BD0000052913B585
:107ED0000FD8094B01EB41015C185A5AA378ADF851
:107EE000042001A98DF80630FFF7DCFF012002B065
:107EF00010BD0020FBE700BF0CD10B0038B50A0A0B
:107F000005460C462021FFF700FDE2B2284621215C
:107F1000BDE83840FFF7F9BC73B50446FFF7A4FC91
:107F2000064618B90026304602B070BD94F82650B7
:107F3000FF2D54D029462046FFF75DFD8022012108
:107F40002046FFF7E2FC0A2000F012FD0121204646
:107F5000FFF7BAFC8028E5D194F82600FF281CD052
:107F6000002103F031FA94F82730FF2B07D1264A7D
:107F70001378032BD6D8591C117084F8273094F845
:107F80002720224B43F8224062BB214900924FF048
:107F9000FF330122A8B200F075FF00220E21204617
:107FA000FFF7B3FC00220F212046FFF7AEFC20466E
:107FB000FFF728FE00212046FFF788FF0821204612
:107FC000FFF79CFF9FED130A2046FFF7D9FD002322
:107FD00084F825300D212046FFF76EFDA3E74FF012
:107FE000FF35ABE7012A4FF0000304D100930A49A3
:107FF0004FF0FF33CEE7022A94D1009307494FF0A8
:10800000FF330122C6E700BF01E6032004E6032098
:10801000517D0B000000D943617D0B00717D0B0089
:10802000704703685B68184710B58369044633B12D
:1080300031B1236820469B6898470023A36110BD97
:1080400000F02AF9A369C01AE3699842F1D2F6E771
:1080500010B5C36904461BB100F01EF9A06110BD44
:108060000368BDE810409B68184700F0EDB810B5F4
:1080700004460430FDF70EF92368E1685B69204689
:10808000984718B9236820469B6998476068FFF7AE
:10809000ECFF012010BD0000F0B521F00304184FE3
:1080A000184E194D0444A0420CD050F8043B7B43B9
:1080B0004FEA734373435A404FEAF24202EB8202A3
:1080C0002A44F0E701F0030404440023A04204D052
:1080D00014F8015D45EA0323F8E7094843430948DA
:1080E0004FEA73434A4058435040084B80EA1040DF
:1080F0005843074B80EA5030584380EA1040F0BDA7
:10810000512D9ECC9335871B646B54E66BCAEB856F
:1081100035AEB2C2F8B504460430FDF7BBF8A3682B
:1081200000229F689A60A668054AF1883046FFF7EA
:10813000B3FFB76005466068FFF797FF2846F8BDB4
:108140003F2A1C8573B50D460446FFF7E3FF0B2D50
:10815000064623D9A3682269196891421FD19988DC
:10816000A28A91421BD1D988AAB2914217D89A68A3
:10817000824214D1E268AA4205D900215955E26829
:108180000135AA42FAD8D4E902322046DA80A5683D
:10819000FFF7C0FFA860012002B070BD9DB1A168CB
:1081A0000A6892B188688B880190C9880848009154
:1081B0000849FDF77DFECDE90056A38A22690649EC
:1081C0000348FDF775FE0020E6E71046E4E700BF30
:1081D00058E60320A8D10B00D9D10B0038B50446CE
:1081E000C2688068002103F02FFFA36822691A602B
:1081F000A368A28A9A80D4E902322046DA80A56870
:10820000FFF788FFA86038BD08B5024B1B685B6CA0
:10821000019308BD7402030008B5024B1B685B6C38
:10822000019308BD4802030008B5024B1B689B6C14
:10823000019308BD4802030008B5024B1B68DB6CC4
:10824000019308BD4802030008B5024B1B685B6D33
:10825000019308BD4802030008B5024B1B685B6D23
:10826000019308BD3402030008B5024B1B685B6E26
:10827000019308BD3402030008B5024B1B685B681C
:10828000019308BD1802030008B5024B1B68DB68A8
:10829000019308BD1802030008B5024B1B685B6917
:1082A000019308BD1802030008B5024B1B689B6DC3
:1082B000019308BD1802030008B5024B1B68DB6D73
:1082C000019308BD1802030008B5024B1B685B6EE2
:1082D000019308BD1802030008B5024B1B689B6E92
:1082E000019308BD1802030008B5024B1B681B6808
:1082F000019308BD2C02030008B5024B1B685B68A4
:10830000019308BD2C02030008B5024B1B689B6853
:10831000019308BD2C02030008B5024B1B68DB6803
:10832000019308BD2C02030008B5024B1B681B69B2
:10833000019308BD2C02030008B5024B1B685B6962
:10834000019308BD2C02030008B5024B1B689B6912
:10835000019308BD2C02030008B5024B1B68DB69C2
:10836000019308BD2C02030008B5024B1B681B6B70
:10837000019308BD2C02030008B5024B1B68DB68A3
:10838000019308BD2802030008B5024B1B689B69D6
:10839000019308BD2802030008B5024B1B68DB6986
:1083A000019308BD2802030008B5024B1B681B6A35
:1083B000019308BD2802030008B5024B1B685B6AE5
:1083C000019308BD2802030008B5024B1B689B6A95
:1083D000019308BD2802030008B5024B1B68DB6A45
:1083E000019308BD2802030008B5024B1B681B6BF4
:1083F000019308BD2802030008B5024B1B685B6BA4
:10840000019308BD2802030008B5024B1B681B6CD2
:10841000019308BD2802030008B5024B1B689B6C42
:10842000019308BD2802030008B5024B1B68DB6CF2
:10843000019308BD2802030008B5024B1B681B6DA1
:10844000019308BD2802030008B5024B1B685B6955
:10845000019308BD6402030008B5024B1B689B68CA
:10846000019308BD6802030008B5024B1B68DB6876
:10847000019308BD6802030008B5024B1B681B6826
:10848000019308BD3002030008B5024B1B685B680E
:10849000019308BD3002030008B5024B1B685B69FD
:1084A000019308BD3002030008B5024B1B68DB696D
:1084B000019308BD3002030008B5024B1B681B6A1C
:1084C000019308BD3002030008B5024B1B685B6ACC
:1084D000019308BD3002030008B5024B1B68DB6B3B
:1084E000019308BD3002030008B5024B1B681B6CEA
:1084F000019308BD3002030008B5024B1B685B6C9A
:10850000019308BD3002030008B5024B1B689B684D
:10851000019308BD3C02030008B5024B1B68DB68F1
:10852000019308BD3C02030008B5024B1B681B69A0
:10853000019308BD3C02030008B5024B1B685B6950
:10854000019308BD3C02030008B5024B1B689B6900
:10855000019308BD3C02030008B5024B1B68DB69B0
:10856000019308BD3C02030008B5024B1B681B6A5F
:10857000019308BD3C02030008B5024B1B689B6ACF
:10858000019308BD3C02030008B5024B1B68DB6A7F
:10859000019308BD3C02030008B5024B1B681B6C2D
:1085A000019308BD3C02030008B5024B1B681B6821
:1085B000019308BD4C02030008B5024B1B685B68C1
:1085C000019308BD4C02030008B5024B1B689B6871
:1085D000019308BD4C02030008B5024B1B681B69E0
:1085E000019308BD4C02030008B5024B1B685B6990
:1085F000019308BD4C02030008B5024B1B689B6940
:10860000019308BD4C02030008B5024B1B68DB69EF
:10861000019308BD4C02030008B5024B1B681B6A9E
:10862000019308BD4C02030008B5024B1B689B6A0E
:10863000019308BD4C02030008B5024B1B685B6B3D
:10864000019308BD6002030008B5024B1B681B6D57
:10865000019308BD6002030008B5024B1B685B6D07
:10866000019308BD6002030008B5024B1B68DB6E76
:10867000019308BD6002030008B5024B1B681B6F25
:10868000019308BD6002030008B5034B1B68D3F8D3
:108690009830019308BD00006002030008B5024B4A
:1086A0001B681B68019308BD2002030008B5024B3C
:1086B0001B685B68019308BD2002030008B5024BEC
:1086C0001B685B69019308BD2002030008B5024BDB
:1086D0001B681B6A019308BD2002030008B5024B0A
:1086E0001B68DB6A019308BD2002030008B5024B3A
:1086F0001B689B6D019308BD2002030008B5024B67
:108700001B68DB6D019308BD2002030008B5034B15
:108710001B68D3F88830019308BD000020020300D5
:1087200008B5034B1B68D3F89430019308BD0000D3
:108730002002030008B5034B1B68D3F8A83001934F
:1087400008BD00002002030008B5034B1B68D3F8E6
:10875000AC30019308BD00002002030008B5034BB4
:108760001B68D3F8B030019308BD0000200203005D
:1087700008B5024B1B689B68019308BD44020300C7
:1087800008B5024B1B685B69019308BD44020300F6
:1087900008B5024B1B68DB69019308BD4402030066
:1087A00008B5024B1B681B6B019308BD4402030014
:1087B00008B5024B1B685B6B019308BD44020300C4
:1087C00008B5024B1B68DB6B019308BD4402030034
:1087D00008B5024B1B685B68019308BD40020300AB
:1087E00008B5024B1B689B68019308BD400203005B
:1087F00008B5024B1B68DB68019308BD400203000B
:1088000008B5024B1B681B69019308BD40020300B9
:1088100008B5024B1B685B69019308BD4002030069
:1088200008B5024B1B689B69019308BD4002030019
:1088300008B5024B1B68DB69019308BD40020300C9
:1088400008B5024B1B681B6A019308BD4002030078
:1088500008B5024B1B681B6B019308BD4002030067
:1088600008B5024B1B685B6B019308BD4002030017
:1088700008B5024B1B681B6C019308BD4002030046
:1088800008B5024B1B685B6C019308BD40020300F6
:1088900008B5024B1B681B68019308BD1C0203004E
:1088A00008B5024B1B685B68019308BD1C020300FE
:1088B00008B5024B1B689B68019308BD1C020300AE
:1088C00008B5024B1B681B69019308BD1C0203001D
:1088D00008B5024B1B68DB69019308BD1C0203004D
:1088E00008B5024B1B685B6A019308BD1C020300BC
:1088F00008B5024B1B68DB6A019308BD1C0203002C
:1089000008B5024B1B68DB6B019308BD1C0203001A
:1089100008B5024B1B681B6C019308BD1C020300C9
:1089200008B5024B1B685B6C019308BD1C02030079
:1089300008B5024B1B689B6C019308BD1C02030029
:1089400008B5024B1B68DB6C019308BD1C020300D9
:1089500008B5024B1B681B6D019308BD1C02030088
:1089600008B5024B1B685B6D019308BD1C02030038
:108970000021FFF7A3BE10B54368013B04464360E6
:1089800063B903689B689847A368013BA3602BB950
:1089900023682046DB68BDE81040184710BD70B55D
:1089A000D0E90053044605EB0316AE4204D0284636
:1089B00001F0FEFF1035F8E72068FFF771FF204651
:1089C00070BD0000024800230360FFF725BC00BF14
:1089D00010E60320002240681146FFF711BF002275
:1089E00040681146FFF72CBF002240681146FFF790
:1089F00037BF40680022FFF72BBF4068002281F09C
:108A00000101FFF715BF002340681A461946FFF71A
:108A100007BF002340681A461946FFF7F9BE002237
:108A200040681146FFF7DCBE406800220221FFF7D4
:108A3000DFBE002340681A46FFF7CABE70B5134B6D
:108A400003601825303386B00E4643602A46002165
:108A50000446083003F0F8FA002270681146FFF768
:108A6000CFFE78B100212A46684603F0EDFA694648
:108A70000020ADF80050FFF7C7FB18B96946204643
:108A800000F0B8F8204606B070BD00BF74D20B00ED
:108A9000084B10B5282422461846002103F0D4FACA
:108AA000054B04804FF0FF32426004225A60034AB3
:108AB0001A6010BD1CE6032014E6032038D20B0018
:108AC0007047007B7047037B4BB10369B3F1004FE4
:108AD00005D08069B0F1004018BF01207047002028
:108AE000704703681B6A184770B503680D461B6919
:108AF000064698470221284601F038FE2C210446FC
:108B0000284601F03DFD336804449B693046984790
:108B10000221284601F02AFE204470BDA0F1040085
:108B2000FFF7E2BF10B520210446FBF7B8FA204654
:108B300010BD0000037B7BB14369002B0CDB07EE0B
:108B4000903A9FED077AF8EEE77A87EE870ADFED35
:108B5000057A20EE270A7047BFEE000A704700BF73
:108B600000FF7F470000C842037B63B10369B3F194
:108B7000004F08D007EE903A9FED047AF8EEE77ABE
:108B800087EE870A70479FED020A70470000C842CF
:108B900000000000037B7BB1C369002B0CDB07EEF8
:108BA000903A9FED077AF8EEE77A87EE870ADFEDD5
:108BB000057A20EE270A7047BFEE000A704700BF13
:108BC00000FF7F470000C842037B63B18369B3F1B4
:108BD000004F08D007EE903A9FED047AF8EEE77A5E
:108BE00087EE870A70479FED020A70470000C8426F
:108BF0000000000030B50D4600F108040FCD0FC491
:108C000095E8030084E80300012030BD002240689D
:108C10001146FFF715BE002240681146FFF720BE3F
:108C200040680022FFF714BE4068002281F0010175
:108C3000FFF7FEBD002340681A461946FFF7F0BD56
:108C4000002340681A461946FFF7E2BD002240683B
:108C50001146FFF7D5BD002240681146FFF7C0BDA1
:108C6000406800220221FFF7C3BD002340681A4676
:108C7000FFF7AEBD024B03225A60024A1A607047EA
:108C800044E60320B0D20B00006800F0E7B810B54E
:108C90000446016002710AB1FFF7F6FF204610BDDD
:108CA00013B50446019102F035FC019A01462046B5
:108CB000FFF7EDFF204602B010BD006800F0D7B806
:108CC0002DE9FF4104461D460F461646FFF7DCFF1F
:108CD00036220023CDE9002320684FF001080A2343
:108CE0006946CDE9028300F09DF8206803683946A3
:108CF0009B6898472068036831469B6898472068BE
:108D0000036829469B6898474146206800F0A2F80E
:108D1000002820460CBF00256FF09F05FFF7CDFF10
:108D2000284604B0BDE8F08108B5402200230621A2
:108D3000FFF7C6FF00EAE07008BD7047F8B50646C9
:108D400015460C468F18BC4206D0336814F8011B38
:108D50009B6830469847F6E72846F8BD007C00221D
:108D6000FFF722BB007C0021FFF726BB007C00211F
:108D7000FFF72ABB007C0021FFF72EBB007C0021FF
:108D8000FFF732BB10B514210446FBF788F92046E3
:108D900010BD000010B54FF47A7304460846002158
:108DA000C4E90113034B236020741146FFF72CFB29
:108DB000204610BDECD20B000023007C1A46194659
:108DC000FFF7DABA7FB500221423CDE90122ADF80E
:108DD00004300B788DF808304B680393CB6804930C
:108DE000007C0B7A059301A9FFF726FB07B05DF81D
:108DF00004FB1FB5003B8DF800104FF06401039198
:108E000018BF0123694601928DF80830FFF7DAFF99
:108E100005B05DF804FB007C0022FFF7B5BAC9B2CB
:108E2000FFF7F9BF7FB50023CDE901334A6803920C
:108E30001423CA68ADF804300B7804920A7A0592BC
:108E4000007C8DF8083001AA1946FFF79DFA07B09B
:108E50005DF804FB007C0022FFF79EBA08B50021F4
:108E6000007CFFF7D9FAB0FA80F0400908BD08B5D8
:108E70000021007CFFF7D8FAB0FA80F0400908BD65
:108E8000004700002DE9FF4100241D460F46904693
:108E90000646FFF761FAA5424FF00403ADF80D4016
:108EA0008DF80C308DF80F40A2BF9DF828308DF85A
:108EB0000E3003AC0749009443463A463046A8BFFB
:108EC0008DF80D50FFF740FAB0FA80F0400904B079
:108ED000BDE8F081818E0B00704710B51821044663
:108EE000FBF7DDF8204610BDF0B5037D062B8DB0F5
:108EF0000E4600F104074FF0000412D000F10805FF
:108F000015F8011D0A22304601F049FBAF42044426
:108F100019D0002CF4D02E21304601F031FB04444E
:108F2000EEE72F236A4639460A208DF80040FFF706
:108F30008BFA684603F025F933680246DB68694618
:108F400030469847044620460DB0F0BD10B5054B9D
:108F50000446112240F8043B002103F075F8204636
:108F600010BD00BF14D30B000346074A10B543F8E9
:108F7000042B01F1100251F8044B43F8044B9142C9
:108F8000F9D10A781A7010BD14D30B0010B59DF8F2
:108F9000084044EA032343EA024242EA016104230F
:108FA0004160037510BD000007B5064B0360CB7828
:108FB00000938B784A780978FFF7E8FF03B05DF8F3
:108FC00004FB00BF14D30B0000F11003012213F8BF
:108FD000101C0129184608D153F8041C02EB410269
:108FE000013A03F11003F2D17047022904BF53F88C
:108FF000041C5218F4E70EB4F0B588B000AF07F1C6
:109000003405102155F8042B7A6004462B46781855
:10901000FD60FFF765FC0F287A681AD900F1080394
:1090200023F007036E46ADEB030D411C2B4668464B
:10903000FD60FFF755FC021E04DD236869469B684E
:1090400020469847B5462037BD46BDE8F04003B0FE
:1090500070470028F7D0236802469B6807F110018B
:1090600020469847EFE738B50B6803604D684368C2
:109070009D42044608D015B16B6801336B6060688F
:1090800008B1FFF778FC656038BD07B503688DF857
:1090900007109B6801220DF10701984703B05DF8A6
:1090A00004FB0B461146002210B5C0E9002204461D
:1090B00083600BB9204610BDFFF7D5FFFAE7836840
:1090C000EBB11A78032A1AD8DFE802F00417021B62
:1090D0000520704702685B685268D05C2D2812D06A
:1090E000A0F13003092B0ED974280ED066280CD0BD
:1090F000A0F16E0358425841704706207047002087
:10910000704704207047032070470220704710B555
:109110000446FFF7D4FF02280ED0C31EDBB2012B9A
:1091200014D82268A36850685B68BDE810400A2222
:109130000021184403F0EAB82268A36852685B680B
:10914000D05CA0F174035842584110BD0020FCE7E8
:1091500038B50023C0E9003304460E48C4E90203D1
:10916000A9B10B78032B06D08BB9136858684B68EC
:10917000C35C6E2B07D013684D6858688B68284411
:109180005B1BA060E36011462046FFF76CFF2046A2
:1091900038BD00BF7DD30B0038B500250B46C0E9B4
:1091A0000055C0E90255C0E90455044611464BB1CB
:1091B0001A78012A06D103F11002DB68826043614C
:1091C000FFF751FF204638BD10B54369044663B12F
:1091D0008068E060013B1030A0602061636113B1E2
:1091E000FFF7F2FEA060012000E0184610BD10B5A8
:1091F0007D210446FFF749FF01232371204610BD5E
:1092000008B50379012B02D0022B04D008BD2C2114
:10921000FFF73BFFFAE73A21FAE710B50446FFF7FC
:10922000EFFF20467B21FFF730FF0023237120460C
:1092300010BD000013B504460191FFF7E1FF23685C
:10924000019ADB6803492046984701232046237191
:1092500002B010BD37CD0B0013B504460191FFF7E6
:10926000CFFF2368019ADB68034920469847012312
:109270002046237102B010BDC2CC0B002DE9F0478F
:109280000D46222190460446FFF7FFFEDFF8A4902A
:10929000A8442F464745BA463DD017F8016B222E09
:1092A00006D05C2E04D0304602F09EFE0028F1D19C
:1092B0002368AAEB05029B682946204698475C2153
:1092C0002046FFF7E2FE0D2E0AD8072E1CD9A6F184
:1092D0000803052B18D8DFE803F00D0F111713153D
:1092E000222E01D05C2E0FD131462046FFF7CDFE55
:1092F0003D46CFE76221F8E77421F6E76E21F4E7F7
:109300006621F2E77221F0E723683246DB684946BE
:1093100020469847ECE7BD4205D023687A1B9B683E
:1093200029462046984722212046FFF7AEFEBDE899
:10933000F08700BF20D30B0013B50446CDE9002110
:10934000FFF75EFF2046DDE90021FFF797FF0223CC
:109350002046237102B010BD13B50446CDE90021AB
:10936000FFF74EFF2046DDE90021FFF787FF0123CD
:109370002046237102B010BD80680368DB6818477F
:109380007047084611B10B685B6818477047704713
:1093900070477047704738B504460D4600682E2167
:1093A00002F0D3FE2368C31A2B6023B1037803B104
:1093B000013023682060184638BD10B50C210446E2
:1093C000FAF76DFE204610BD10B504210446FAF7E9
:1093D00066FE204610BD10B504210446FAF75FFE74
:1093E000204610BDFEF728BF08B502F0B8FEB0FA5F
:1093F00080F0400908BD704710B50C4601F0CCFE66
:10940000844210D002F0C6F8844205D102F0C2F8BE
:10941000BDE8104001F059BE2CB1236820465B68BE
:10942000BDE81040184710BD0B6803604B684360EF
:1094300013B15A6801325A60704713B504460846A2
:10944000019102F09EFE01990246204602B0BDE85D
:109450001040FFF781BF13B504460846019102F0A2
:1094600090FE23680199DB680246204602B0BDE801
:109470001040184707B503688DF80710DB68012214
:109480000DF10701984703B05DF804FB0EB403B576
:1094900003AB002153F8042B006A019301F075F926
:1094A00002B05DF804EB03B070470A6802604A68D6
:1094B00042600022C0E9022210B502618C6884601B
:1094C000CC68C4600C698A60CA6004610A6110BD1E
:1094D0002DE9F74FD0E900844FF0140A00930AFBFE
:1094E00004F4184BA41017465C434546002C21DDBC
:1094F00066100AFB06F005EB00093A46B9F804B01D
:10950000285801915F4528BF5A4602F042FE0028C4
:1095100001994FF001030BD15F4503D1009A1370FD
:109520003446E3E7FCD9A61B09F11405013EF7E731
:10953000F9DBF5E7A5EB08050248AD10684303B079
:10954000BDE8F08FCDCCCCCC7FB50369057E019111
:1095500003B3F9B1002600F10C04039603A901A896
:10956000FFF719FF0146A8B10DF10B03039A8DF81F
:109570000B602046FFF7ACFF9DF80B3053B123681A
:10958000142404FB0034083434F9023C002BA8BF37
:10959000DDB2E3E7284604B070BD000010B5094C09
:1095A0002378BFF35B8FDB0709D42046FAF786FDEB
:1095B00028B12046FAF787FD034802F0F1FC034882
:1095C00010BD00BF50E603208F930B00C4DE0320C4
:1095D00010B5094C2378BFF35B8FDB0709D4204615
:1095E000FAF76CFD28B12046FAF76DFD034802F04A
:1095F000D7FC034810BD00BF54E60320F7930B00CF
:10960000C8DE032038B500250446C0E90055C0E98E
:1096100004558560856140F8245FFEF7FDFDFFF786
:10962000BDFFE061FFF7D4FF25732062204638BDFF
:1096300010B50A4C2378BFF35B8FDB070CD42046B0
:10964000FAF73CFD40B10648FFF7DCFF2046FAF789
:109650003AFD044802F0A4FC014810BD4CE603208A
:109660005CE60320859B0B00024A03490348002364
:10967000FFF702B869990B00F5980B0075980B007D
:1096800000231A4619461846FEF7F6BF37B58D680F
:1096900004466846FFF7C8FE6A4629462046FFF79B
:1096A0007BFD01A8FCF71AF9204603B030BD37B5A1
:1096B000CD6804466846FFF7B7FE6A46294620464D
:1096C000FFF746FD01A8FCF709F9204603B030BDBD
:1096D00037B50D6904466846FFF7A6FE6A46294677
:1096E0002046FFF7DEFC01A8FCF7F8F8204603B09F
:1096F00030BD000070B58AB00D46014604A8FFF7E2
:10970000C5FF144E04A8FFF75FFDE8B104A9684641
:10971000FFF7CDFF02983146FFF766FE044610B111
:109720002C1E18BF012401A8FCF7D8F8002CE9D0A2
:1097300004A96846FFF7CCFF6846FFF7E8FC2860FD
:1097400001A8FCF7CBF8DDE705A8FCF7C7F80AB0DD
:1097500070BD00BF26D30B0037B50C462046134919
:10976000154602F0FCFC50B901F016FD4FF41651FD
:1097700001F000FD03B0BDE8304001F00DBD0C4923
:10978000204602F0ECFC78B94FF4165301A92846A4
:109790000193FFF7AFFF01F0FDFE019901F092FC8C
:1097A00001F0F8FE03B030BD0020FBE72BD30B0027
:1097B00032D30B0070B5D0E900531426044606FBE3
:1097C0000356AE4205D005F10800FFF7F3FF14354C
:1097D000F7E72068FFF764F8204670BD10B504462F
:1097E0000C30FFF7E7FF2046FFF7D9F8204610BD01
:1097F00010B5044B044640F8043BFFF7EFFF20464A
:1098000010BD00BF50CB0B0010B50446FFF7F0FFB2
:1098100020462421FAF743FC204610BD10B5034B27
:1098200003600446FFF7E4FF204610BDCCD30B00D5
:1098300010B50446FFF7F2FF20462421FAF72FFC6B
:10984000204610BD0022C0E9002210B582600C68DD
:1098500004604C6844608C680A604A6084608A6076
:1098600010BD10B5036804461868FEF7EDFC2046ED
:1098700010BD00002DE9F04F87B0804603931C4BCC
:109880005B68C3F30803894616466BB9FFF7D0FE41
:10989000044600F12403406A0593FFF7A3FD237BF0
:1098A0002BB105A8FFF7DDFF07B0BDE8F08F01235E
:1098B0002373D4E900535FFA89F905EB830AAA45BB
:1098C00012D055F8047B3146381DFFF73DFE814527
:1098D000F5D33B68039A0092D3F808B04A46334662
:1098E00041463846D847EAE700232373D9E700BF4B
:1098F00000ED00E02DE9F74F9B461A4B5B68C3F380
:1099000008038046894616466BB9FFF791FE044668
:1099100000F12403406A0193FFF764FD237B2BB120
:1099200001A8FFF79EFF03B0BDE8F08F012323736A
:10993000D4E90053F6B205EB830A55450ED055F82D
:10994000047B5946381DFFF7FFFD8642F5D33B687F
:109950004A46DB68414638469847EEE700232373C2
:10996000DEE700BF00ED00E02DE9F341164B5B6838
:10997000C3F3080305460F461BBBFFF759FE00F172
:1099800024030446406A0193FFF72CFDD4E90063E9
:10999000462406EB8308B04509D101A8FFF761FF13
:1099A000A542B4BF0020012002B0BDE8F08156F806
:1099B000040B39460430FFF7C7FD8442A8BF0446B4
:1099C000E9E70020F0E700BF00ED00E0F8B5D0E9DE
:1099D00001539D4204460E460DDB6F1C002F0068AC
:1099E00004DDB900FEF764FF18B9F8BDFEF758FFB3
:1099F00000202060A7602768626807EB850192005D
:109A0000A2EB8502081D02F005FB47F8256063689C
:109A1000013363600120E8E737B500F12403044611
:109A2000406A01930D46FFF7DDFCD4E9003203EBF9
:109A30008202934219460BD00968A94203F104033C
:109A4000F7D101A8FFF70DFF0025284603B030BD70
:109A500029462046FFF7BAFF05460028F1D0636883
:109A6000012B01D1FFF700FE01A8FFF7FAFEECE79A
:109A700070B50446D0E900020B4600EB8202824238
:109A80000FD001461D6851F8046BAE4207D1521A3F
:109A900002F0C0FA6368013B6360012070BD0846B4
:109AA000EDE70020FAE71FB500F124030446406A01
:109AB00001910393FFF796FC01A92046FFF7D8FF19
:109AC00018B163680BB9FFF7DBFD03A8FFF7C9FE08
:109AD00004B010BD70B5D0E904561823044603FB4A
