:02000002B0004C
:1040000000400B00C8DA0B00000006000D0005029E
:084010000401A30F00000000F1
:0440180058C50B007C
:1040200009480A49884208B505D0094A824202D0A7
:10403000121A08F097F80748074A0021121A08F0E8
:10404000B9F8014808BD00BF74DD0320D8D80B00C3
:1040500038DF032038DF0320EDE7032070B5074E7B
:10406000074C07F0DFF9A41BA4080025AC4200D1DF
:1040700070BD56F8043B98470135F7E768D80B0048
:10408000A4D80B0000F08AB808B500F0C7F9BDE865
:10409000084007F07FB904F0C7BC04F0C5BC04F0C9
:1040A000CBBC000008B5034A03490C2004F098FB80
:1040B000FEE700BF31840B006CC50B000078B0FA3E
:1040C00080F040097047012303707047014B0122C3
:1040D0001A7070478CDF032010B5084C23782BB181
:1040E000074B01221A700023237010BD01F08CF8D9
:1040F00001F023FA0028F3D10123F5E740DF032084
:104100008ADF0320F8B5037D05460F4616468BB1BE
:104110000368DB6883B19A88012A06D09B68F9E7B7
:104120009B684BB19A88012AFAD12BB19A89BA427D
:10413000F6D19E732846F8BD0A49102007F004FB0B
:10414000044668B11022002108F034F8064B2360C1
:104150000123A3802B69A360A781A6732C61E9E7E3
:104160002875E7E744D60B00100003000EB400B535
:104170008CB00DAA4FF0200C52F8041B0392CDE92D
:1041800000120023016804AA1E20CDE904C304F034
:1041900037FB0CB05DF804EB03B0704730B500207E
:1041A00085B004F05DF942F210750446002004F079
:1041B00057F9001B61F10001A84271F1000307D219
:1041C00007F0A0F807F093F810B904F0A5FBEDE7AD
:1041D00007F098F807F08BF801F07EFA01F0A8FAE2
:1041E00001F062F803681B68984701F00DF8036856
:1041F0001B689847444808230121438102F0E6FBED
:104200007C21414801F050FF06F0A6FF044601F072
:104210004BF801F0DDF906F06DFE844201D001F0AB
:104220000FFA00F0A9FB002100F0B8FBB8B901F0CB
:104230003BF8032101F064F901F036F8044606F07A
:104240007AFF0246C317204601F0F5F901F02CF879
:1042500001F01BF92D4902462D48FFF787FF01F0B9
:1042600023F801F012F9F0B900F0CEFF01F092F856
:10427000092818D801F018F8012101F041F900F0DF
:10428000C3FF0A2101F0C9F801F00EF801F08CF823
:10429000039001F009F801F0F8F8039A1D4903466C
:1042A0001B48FFF763FF00F0AFFF0A2101F0B5F8EC
:1042B00001F03EFD18481949008800244FF0FF33F3
:1042C0000122009404F0AAFE1548164900880094C3
:1042D0004FF0FF33224604F0A1FE134B1A780AB9BF
:1042E00002221A7000F0E0FF01F0CFF80F490246F9
:1042F0000748FFF73BFF0E4B1888002105B0BDE8CB
:10430000304007F028B900BF44DF032081C50B000F
:1043100058E60320BFC50B0038CC0B00D9400B007A
:1043200036CC0B00CD400B008BDF032007C60B0003
:1043300034CC0B0070B51D4E1D4C32781D4D022A39
:10434000C4B02AD106F0DAFE32782B7858B904EBE3
:1043500002120092184A04EB03134FF4807104A870
:1043600004F082FB11E004EB0313039304EB02144B
:1043700000F04AFF01F013F8039B104ACDE900401A
:104380004FF4807104A804F06FFB33780C482B7055
:1043900004A9FFF7EBFE44B070BD2B7804EB0212CA
:1043A000009204EB0313074AD7E700BF8BDF03201B
:1043B00074DD032088DF032038C60B0058C60B00CD
:1043C00058E6032075C60B0038B506F097FE08B90D
:1043D0003C2038BD00F018FF00F0E1FF054606F074
:1043E000AAFE044600F010FF01F0EDF8E317241ACE
:1043F00063EB0103AC4273F10003E9DA00F004FF60
:1044000000F0CDFF044600F0FFFE01F0DCF80546A9
:1044100006F091FE2C440534201ADAE72DE9F04726
:104420009B4C2378013B8AB0032B2CD8DFE813F098
:10443000960104005B001401964B1B78022B01D0FF
:10444000FFF778FF06F077FE934BD3E90053C617CA
:10445000451B66EB030600F0D7FE00F0A0FF00232B
:10446000A842B3413DDA00F01FFF01F00EF88B497E
:1044700002468B48FFF77AFE00F016FF01F005F8C0
:1044800068B301232370874802F0BAF900F00CFFEB
:1044900000F01AFF00F0B8FE00F0DEFE824B1A7842
:1044A0008AB100251D7000F0AFFE0A2100F0B5FFB3
:1044B00000F0AAFE294601F063F87C497848FFF72E
:1044C00055FE022323707A4B1A78002A00F00082EE
:1044D00000221A700AB0BDE8F04701F017BB0423B0
:1044E000D0E70323CEE76B4B1B78032B01D0FFF7FC
:1044F00021FF00216B4801F0D7FDFFF765FF07465C
:1045000006F0FCFD0546002839D006F014FEC2195D
:10451000D31706A806F00AFD069B664960483A468E
:10452000FFF724FE15B106A806F010FB4FF4FA6061
:1045300004F0EAFA604B197D0222227001B11A726E
:104540005E4B5D48B3F8009000224946FFF7DAFD64
:104550005B4BB3F800A001225146FFF7D3FD037D6A
:10456000064613B303684FF47A78DB6808FB07F854
:104570003BB19A88042A00F0A8819B68F8E7514B68
:10458000CBE75149102007F0DFF80546002800F07E
:104590009A811022002107F00DFE4C4B2B60042362
:1045A000AB803369C5E902383561434903A806F099
:1045B000D9FB4FF0FF313B4801F076FD002003F0BE
:1045C0004FFF42F210760546002003F049FF401BE2
:1045D00061F10001B04271F1000307D206F092FED2
:1045E00006F085FE10B904F097F9EDE706F08AFEB3
:1045F00006F07DFE039B33B39A88012A23D19B8961
:10460000994523D10423324925482370FFF7AEFD95
:1046100006F091FDC219D31706A806F087FC069A8A
:10462000019206F0FFFB019A2A4903461C48FFF756
:104630009DFD06A806F08AFA039800283FF423AFF0
:1046400004F0FAF91FE74FF6FF73D9E79A4502BF66
:10465000174B01221A70DBE70E4B134D1B78042B0E
:104660003ED0FFF767FE01F063FB06F064FD0A4BE6
:10467000C217C3E9000200F07FF900F0FFF978BB30
:104680000123154A154906482B70FFF76FFDFAE61E
:104690008BDF032088DF032080DF03208AC60B0026
:1046A00058E6032044DF032089DF032092C70B0074
:1046B0008ADF0320ADC60B0064DF032036CC0B007D
:1046C00038CC0B0040CD0B0044D60B00100003008B
:1046D000D6C60B00F9C60B0083C60B001AC70B0029
:1046E00003F0AEFEDFF8F891DFF818827A4F064645
:1046F00003F0A6FE42F20F73801B984221D800F00F
:104700003BF900F071FC08B300F0CEFD002100F091
:104710008AFE00232B7000F077FD064606F00BFDA5
:104720000246C317304600F07CFF29786B4B6C4A79
:104730006948002908BF1A466A49FFF717FD022396
:1047400023704FF47A7004F0DFF99CE601234A46A7
:10475000414638462B70FFF709FDC9E7624B1B78CD
:10476000012B01D0FFF7E6FD00F09EFD00F08DFE6D
:10477000022844D003287ED001287FF484AE00F0C4
:10478000FBF800F0ABFAA8B303F05AFE574FDFF87E
:104790006081064640F6B73903F052FE801B48455B
:1047A0002BD800F0E9F800F01FFC0028F4D006F048
:1047B000C2FC4FF0000AC317C7E9000388F800A045
:1047C00000F022FD054606F0B6FC0246C317284657
:1047D00000F027FF00F068FD054606F0ACFC02463D
:1047E000C317284600F027FF00F05EFD514600F099
:1047F00087FED1E73E4B01221A70022342E600F009
:10480000BBF800F031FB0028F4D003F019FE374F5D
:10481000DFF8DC80064640F6B73903F011FE801B56
:104820004845EAD800F0A8F800F0DEFB0028F4D0F4
:1048300006F081FC4FF0000AC317C7E9000388F8AF
:1048400000A000F0E1FC054606F075FC0246C31727
:10485000284600F0E6FE00F027FD054606F06BFC5A
:104860000246C317284600F0E6FE00F01DFD514643
:1048700000F046FED1E71F4D1F4E2B78BFF35B8F34
:1048800013F0010F09D12846FFF718FC28B103F0F7
:10489000D7FD30602846FFF716FC03F0D1FD3368E2
:1048A000C01A47F2305398427FF6EDAD13490A48DB
:1048B000FFF75CFC4FF4FA6004F026F91E21104863
:1048C00001F04CFDDFE530756FE6C3F80C806CE657
:1048D0000AB0BDE8F08700BF58E6032086C60B008B
:1048E00083C60B003AC70B0088DF032080DF03205C
:1048F00089DF032038DF03203CDF032081C70B0062
:1049000044DF032062C70B0008B506F0BDFD00239D
:104910001A46194606F0C8FD06F0B6FD00231A46F1
:104920000D2106F0B9FD0C4B1A1D1A600B4A5A6096
:104930000022C3E902221A6101221A7506F07CFEE8
:1049400069220146064801F0B1FA06F0F4FB054B76
:10495000C217C3E9000208BD64DF03201000030092
:1049600044DF032080DF0320704710B50421044694
:10497000FFF795FB204610BD10B5064C236833B9F0
:104980000420FFF788FB08B1034B03602060206818
:1049900010BD00BF90DF032060CB0B007FB5304817
:1049A0000D4602F0C8FE044630B92E492E48FFF7E6
:1049B000DDFB204604B070BD9FED2C0A2C4803F0AF
:1049C000B3F9002217212A4803F028FB00F01CFC51
:1049D00000F047FD802822D000F016FC00F0F3FD27
:1049E00005F0E5FF00F010FC4FF6FF7106460120D0
:1049F00005F0D3FF81B2304600F003FD65BB00F047
:104A000003FCFF2105460A2005F0C7FF81B22846B6
:104A100000F0FDFC00F0F8FB802100F059FD00F0F3
:104A2000F3FB00F0B7FCC1B2124802F082F9114862
:104A300002F065F9039000F0E7FB00F0A6FC02909D
:104A400000F0E2FB00F00DFDDDE9023200900A49C2
:104A50000548FFF78BFBACE700F0D6FB0021D7E75A
:104A6000CCE10320BBC70B0058E6032000C0644420
:104A70009CE00320D0E10320C7C70B002DE9F74FCE
:104A800064496548654E664C664FFFF76FFB664BA1
:104A9000B3F800A00121504606F05DFD33680133F4
:104AA000336000F0B1FB00F070FC000A207000F0F1
:104AB000ABFB00F06AFC607000F0A6FB00F06AFC43
:104AC000000AA07000F0A0FB00F064FC0125E0707B
:104AD000257100F0E9FB00F06CFC000A607100F049
:104AE000E3FB00F066FCA07100F0DEFB00F066FC6A
:104AF000000AE07100F0D8FB00F060FC207200F0CA
:104B0000D3FB00F0B8FC607200F0CEFB00F0E8FBD5
:104B100051EC100B07F0B4FAA07200F0C5FB00F0E6
:104B2000AFFCE07200F070FB00F0A0FC6573207336
:104B30003E4802F07CF90012A0733C4802F077F97D
:104B40003B4BE0731A782274511919703248394975
:104B5000FFF70CFB03230093214637480023112263
:104B600002F080FB044660BB3B682B443B6000F0D6
:104B70004BFB00F00FFC8346386806F03FFF804691
:104B80003068894606F03AFF02460B4640464946E1
:104B900007F0C8F8294B002206F09AFF2346CDE91A
:104BA00000015A4626491C48FFF7E0FA21465046C4
:104BB00006F0D1FC1D4803F020F8284603B0BDE8FC
:104BC000F08F00F021FB00F0E5FB0446386806F0AA
:104BD00015FF80463068894606F010FF02460B46F6
:104BE0004046494607F09EF8144B002206F070FF3D
:104BF0000023CDE90001224612490748FFF7B6FA23
:104C00000021504606F0A7FC084802F0F6FF0020FD
:104C1000D4E700BF1EC80B0058E603209CDF03202A
:104C2000A0DF032098DF032034CC0B009CE003209E
:104C300094DF03203DC80B00CCE103200000594065
:104C400057C80B00A2C80B00F0B58BB000F0DCFA1F
:104C500000F0A0FB1D4E1E4C1E4902463046FFF7D9
:104C600085FA00F0D1FAB4F8071049BA89B200F019
:104C7000D4FBD4F80140002324BA1946204606F09C
:104C800041F92246002302A806F050F9029F00F0E5
:104C9000BBFA00F084FB054600F0B6FA00F07FFB9B
:104CA0000023021906A806F041F9069B0A49009361
:104CB0003A462B463046FFF759FA06A805F046FF5C
:104CC00002A805F043FF01200BB0F0BD58E6032019
:104CD000A0DF0320E8C80B0019C90B0073B53049E9
:104CE0003048314CFFF742FA304B1E8801213046E4
:104CF00006F031FC00F088FA00F047FB000A207053
:104D000000F082FA00F041FB607000F07DFA00F0E4
:104D100041FB000AA07000F077FA00F03BFBE07066
:104D200000F072FA00F09DFB2071214802F07FF83C
:104D3000001260711E4802F07AF8A07100F064FA67
:104D400000F028FB1B491C4A0125092898BF0A4688
:104D50001A491448FFF70AFA21461948009500231A
:104D6000072202F07FFA044668B916490D48FFF79A
:104D7000FDF92146304606F0EEFB0D4802F03DFFFE
:104D8000284602B070BD10490648FFF7EFF9002130
:104D9000304606F0E0FB064802F02FFF0020F0E767
:104DA0001EC80B0058E60320A0DF032034CC0B0004
:104DB0009CE003204FC90B0066C90B007BC90B00A8
:104DC000CCE103209BC90B00C4C90B0010B52249DC
:104DD0002248234C88B0FFF7C9F900F015FA00F01B
:104DE000D9FA09280AD82378802B07D100F00CFAC9
:104DF000B4F8051049BA89B200F009FB00F004FAD2
:104E0000B4F8071049BA89B200F007FBD4F80120C2
:104E100012BA00211046029206F074F80023029A9A
:104E200004A806F083F8049A039200F0EDF900F06C
:104E3000B1FA029000F0E8F900F0B1FADDE90232CF
:104E4000084900900548FFF791F904A805F07EFE97
:104E5000012008B010BD00BFE7C90B0058E60320D1
:104E6000A0DF03200FCA0B0073B537493748384C11
:104E7000FFF77CF9374B1E880121304606F06BFBAB
:104E800000F0C2F900F081FA000A207000F0BCF9CD
:104E900000F07BFA607000F0B7F900F07BFA000ACE
:104EA000A07000F0B1F900F075FAE07000F0FCF9C4
:104EB000002500F0EAFA257106F03DF90016607150
:104EC00006F039F90014A07106F035F90012E0710E
:104ED00006F031F92072204801F0A9FF001260723B
:104EE0001D4801F0A4FFA07200F0DEF900F0CDFA39
:104EF0001A4902462B461548FFF738F90523009357
:104F0000214617482B460B2202F0ACF9044668B93B
:104F100014490E48FFF72AF92146304606F01BFBDC
:104F20000D4802F06AFE012002B070BD0E4907482C
:104F3000FFF71CF92946304606F00DFB064802F043
:104F40005CFE2846F0E700BF4BCA0B0058E6032082
:104F5000A0DF032034CC0B009CE0032072CA0B00BE
:104F6000CCE10320A2CA0B00D3CA0B0070B51A4DC6
:104F70001A4E1B4988B02846FFF7F8F8D6F80140CA
:104F800000F042F9B6F8051049BA89B200F045FAC6
:104F900024BA00231946204605F0B4FF0023224618
:104FA00004A805F0C3FF049A039200F02DF900F065
:104FB000F1F9029000F028F900F0F1F9DDE9023290
:104FC000084900902846FFF7D1F804A805F0BEFD77
:104FD000012008B070BD00BF58E60320A0DF032009
:104FE000FECA0B000FCA0B0070B58AB0F92300256A
:104FF0008DF82530254E264804950DF12703CDE97F
:1050000002530DF12603009301954FF47A730DF1CD
:105010002502314602F02AFA044618B90024204637
:105020000AB070BD9DF825309DF82620F554194D25
:105030009DF8273018482B70079201F0F8FE1749A9
:10504000079A0346287801EB00110091144815498E
:10505000FFF78CF82B78042B11D02B78022B05D17D
:10506000FFF78AFCFFF7B2FE0028D8D12B78062B79
:10507000D4D1FFF781FCFFF779FF0446CFE7FFF7B4
:105080007BFCFFF7E1FD0028E7D0C8E7A0DF0320A5
:10509000CCE103208DDF03209CE0032004DE03200D
:1050A00058E6032026CB0B0010B5084A084C0949E6
:1050B00012780978084B204602F0F8FD214607488F
:1050C000BDE81040002202F0C3B800BF3CCC0B008A
:1050D0009CE003203ACC0B00F0E30320CCE103205A
:1050E00010B5044B03600446406808B103F070F942
:1050F000204610BD44D30B0010B50446FFF7F0FF67
:1051000020467821FEF7CBFF204610BD10B5034B9B
:105110000360044601F0E0FC204610BD94CB0B0078
:1051200010B50446FFF7F2FF20461021FEF7B7FF47
:10513000204610BD10B5044B03600446406808B11A
:1051400003F046F9204610BD44D30B0010B50446C9
:10515000FFF7F0FF20467021FEF7A1FF204610BDAB
:1051600010B5036804460BB903F02AF92068BDE8BE
:10517000104003F035B938B504460430FFF7F0FFAE
:10518000206A616A0368DD68D4E90223A847606881
:10519000BDE8384003F02CB938B504460430FFF7B9
:1051A000DFFF206A616A03689D68D4E90223A8478B
:1051B000A2682368D1885B692046984718B923689C
:1051C00020469B699847606803F012F9012038BDBA
:1051D00000F12801816009494FF0480CC0E903C182
:1051E000012181824FF47A71C16105490022C0E931
:1051F000081242608261034A02607047739EA920D0
:1052000088E30320B0CB0B0010B5064C23683BB9F4
:105210007020FEF740FF034608B1FFF7D9FF236077
:10522000206810BD80E3032008B5006A01F06AFC25
:10523000FFF7EAFF03685B689847BDE8084000F0A5
:10524000AFBA10B5006A01F05DFCFFF7DDFF03683F
:10525000BDE810405B68184710B5FFF7D5FF03683D
:10526000BDE81040DB68002118470000002200F173
:105270002801426082614FF47A728160C2610749FD
:10528000074A02624FF0500C3222C0E903C1426269
:105290000121044A81820260704700BF739EA920E9
:1052A00088E30320DCCB0B0010B5064C23683BB928
:1052B0007820FEF7F0FE034608B1FFF7D7FF236022
:1052C000206810BD84E3032010B5FFF79DFF03683D
:1052D000BDE81040DB680021184700000000000016
:1052E00010B504462DED028B0430FFF739FFE3685B
:1052F000083B172B0CD9A36893ED068B606803F06D
:1053000077F8B0EE480AF0EE680ABDEC028B10BDEB
:105310009FED018BF2E700BF0000000000000000DD
:10532000F8B50446043057EC106BFFF719FFE3683B
:10533000083B172B12D9A5683046D5E90623394614
:1053400006F02EFE50B9C5E906672046A56802F0B2
:10535000B5FFA860236820461B6998476068BDE8D0
:10536000F84003F045B838B5044604300D46FFF761
:10537000F7FEE3686068023BAB4226BFA3685D5B53
:10538000002503F035F8284638BD08B51021FFF791
:10539000EAFF08BD08B51221FFF7E5FF08BD08B513
:1053A0003221FFF7E0FF08BD08B51221FFF7DBFF50
:1053B00008BD08B54021FFF7D6FF08BD08B542215A
:1053C000FFF7D1FF08BD70B5044604300D46164600
:1053D000FFF7C6FEE368023BAB420DD3A3685A5BFE
:1053E000B24209D05E532046A56802F067FFA8606C
:1053F000236820461B6998476068BDE8704002F04A
:10540000F7BF08B50A461021FFF7DDFF08BD08B554
:105410000A461221FFF7D7FF08BD08B50A46322118
:10542000FFF7D1FF08BD08B50A464021FFF7CBFFC3
:1054300008BD08B50A464221FFF7C5FF08BD38B5CB
:10544000044604300D46FFF78BFEE3686068013BBD
:10545000AB4226BFA3685D5D002502F0C9FF284668
:1054600038BD08B51421FFF7EAFF08BD08B51821BB
:10547000FFF7E5FF08BD08B51421FFF7E0FF08BD01
:1054800008B52021FFF7DBFF08BD08B54421FFF771
:10549000D6FF08BD70B5044604300D461646FFF72A
:1054A0005FFEE368013BAB420DD3A3685A5DB24295
:1054B00009D05E552046A56802F000FFA860236869
:1054C00020461B6998476068BDE8704002F090BFB5
:1054D00008B50A461421FFF7DDFF08BD08B50A46E6
:1054E0001821FFF7D7FF08BD08B50A461421FFF7BA
:1054F000D1FF08BD08B50A462021FFF7CBFF08BD44
:1055000008B50A464421FFF7C5FF08BD38B5044673
:1055100004300D46FFF724FEE3686068013BAB42B0
:1055200026BFA3685D5D002502F062FF284638BDF6
:1055300008B51721FFF7EAFF08BD08B54021FFF7BE
:10554000E5FF08BD70B5044604300D461646FFF76A
:1055500007FEE368013BAB420DD3A3685A5DB2423C
:1055600009D05E552046A56802F0A8FEA860236811
:1055700020461B6998476068BDE8704002F038BF5C
:1055800008B50A461721FFF7DDFF08BD08B50A4632
:105590004021FFF7D7FF08BDF8B5044604300D469B
:1055A000FFF7DEFDE3686068083BAB4223BFA168FC
:1055B0004919D1E90067002638BF002702F018FF1B
:1055C00030463946F8BD08B52821FFF7E5FF08BD8C
:1055D00008B53821FFF7E0FF08BDF8B504460430F0
:1055E0000D461E461746FFF7BBFDE368083BAB427E
:1055F00012D3A3685A1958595168B14208BFB8422A
:105600000AD05F5120465660A56802F057FEA86098
:10561000236820461B6998476068BDE8F84002F09F
:10562000E7BE08B52821FFF7D8FF08BD08B5382127
:10563000FFF7D3FF08BD08B54821FFF7CEFF08BD2F
:1056400010B517491748FEF791FDFFF72DFE002111
:10565000FFF7EFFEFFF728FE0021FFF7E4FEFFF75C
:1056600023FE044605F067FD0246C3172046FFF7F8
:10567000DDFFFFF719FE0021FFF742FFFFF714FEE1
:10568000044605F058FD0246C3172046FFF7D3FF36
:10569000FFF7BAFDBDE810400021FFF71FBF00BFB4
:1056A00068CB0B0058E60320084B012210B51A7096
:1056B00005F0C2FF064C014600234FF4005220467D
:1056C00001F016FA034B236010BD00BF7CE30320FA
:1056D00088E3032094CB0B0008B513491348FEF769
:1056E00045FD0221042005F025FF0021082005F0DA
:1056F00021FF0121072005F01DFF0021122005F0E8
:1057000019FF0121112005F015FF0121102005F0DE
:1057100011FF0021102005F01EFF0021112005F0CF
:105720001AFF012008BD00BF00CC0B0058E6032083
:1057300010B51849184890B02024FEF717FD2246EE
:105740000021684606F036FD224600210DEB0400DC
:105750008DF8054006F02EFD00210DEB04008DF8BC
:10576000254003F0BBF841F2D833ADF806300B4BBF
:10577000029341F27003ADF80C30009B002143F41A
:1057800000736846009303F0A9F8003818BF0120A1
:1057900010B010BD19CC0B0058E60320840384031D
:1057A00008B505490548FEF7E1FCFFF72DFDBDE80A
:1057B00008400121FFF7EABE40CC0B0058E6032069
:1057C0007047006A0368DB68184700000A4B10B591
:1057D0000446036003F0F8FF214604F030FA05F0B8
:1057E00091FD05F081FD2046044B40F8043B04F098
:1057F000C1F8204610BD00BF7CCC0B0064CC0B0070
:1058000010B50446FFF7E2FF20462421FEF747FCCF
:10581000204610BD38B5046805467CB16368013B7D
:1058200063605BB9236820469B689847A368013B87
:10583000A3601BB923682046DB689847284638BD1B
:1058400070B5D0E900531426044606FB0356AE4259
:1058500004D0284605F07AF91435F8E7206803F0FB
:10586000EBF8204670BD8842F8B504460D46164652
:1058700016D9904215D2A2F11406751AA1F1140797
:105880002C44B7421CD02CB13146204605F0DAF941
:10589000337C2374304605F059F9143E143CF0E78C
:1058A0000ED0B5420CD02CB12946204605F0CAF9DD
:1058B0002B7C2374284605F049F914351434F0E79D
:1058C000F8BD2DE9F0410023C0E9003383604F6843
:1058D0009F4204460E4623DD4FF0140808FB07F0F4
:1058E00003F0A2F80546D8B1D4E9001208FB021271
:1058F000FFF7B9FF206803F09FF82560A760D6E99D
:10590000007308FB0378B84508D03946284605F0EF
:10591000B3F93B7C2B7414371435F4E77368636078
:105920002046BDE8F081000070B5274B274A0125CD
:105930001D70274B00248CB09A60C3E900440220FC
:1059400002F088FF2146284602F09CFF29460420E9
:1059500002F05EFDCDE90044029405F0D3FC1D4C3D
:105960000546694603A8FFF7ACFF264603A906A82B
:10597000FFF7A7FF184B46F8043B06A909A8FFF755
:10598000A0FF09AA1E21304604F03CFA09A8FFF73F
:1059900057FF06A8FFF754FF104B2360256203A8AA
:1059A000FFF74EFF0E4B236005F0ACFC4FF4165191
:1059B00005F096FC03F008FF214604F0F9F868466C
:1059C000FFF73EFF0CB070BDA4E303200000FFFF13
:1059D00098E30320A8E3032064CC0B00E4D40B007D
:1059E0007CCC0B0010B503682F2B044604D9074A62
:1059F00007490A2002F0F4FE23681F2B83BF03F03F
:105A00001F03044823604FF0A04010BD31840B00F9
:105A100005CD0B000003005007EE900A9FED097AB8
:105A2000F8EEE77A67EE877A9FED077A87EE870AC6
:105A3000DFED067A70EE677AB2EE040A87EE800A2E
:105A4000704700BF00404E4500F07F450000FA431C
:105A500013B5012101A804F088FDFFF725FCFFF72D
:105A60000AFDFFF721FCFFF706FD252801A80DD947
:105A700004F00EFEFFF718FC0121FFF73BFD0024A8
:105A800001A804F081FD204602B010BD04F0E5FD40
:105A90000124F5E730B5194D0FCD97B00CAC0FC40C
:105AA0000FCD0FC495E8030084E80300144904A84F
:105AB00003F090F804A803F0D0F8044604A803F01B
:105AC00005F904A810EE105A03F030F916AB10EEE9
:105AD000100A03EB840405F0A3FFCDE90201284678
:105AE00005F09EFFCDE90001064A54F8283C06481F
:105AF000402102F0B9FF17B030BD00BFA8CD0B00A8
:105B000014E6032029CD0B0084DE0320F0B54E4EB1
:105B10004E4C3378BFF35B8F13F0010F85B009D182
:105B20003046FEF7CBFA28B102F0B2FC20603046D6
:105B3000FEF7C9FA464B1D8823682D015B5D5F01A6
:105B40003378BFF35B8FD90709D43F48FEF7B6FA25
:105B500028B102F09DFC20603B48FEF7B4FA2368B0
:105B60002B4403A85B7803F01F033B430393FFF729
:105B700039FF039A01239340C0F80835FFF794FBDF
:105B8000074605F0D8FA0246C3173846FFF74EFD20
:105B9000FFF78AFB0746FFF787FBFFF70AFC013098
:105BA00081B23846FFF73FFCFFF77EFB0746FFF761
:105BB0007BFBFFF703FC013081B23846FFF739FC6D
:105BC000FFF772FBFFF7F5FB0190FFF76DFBFFF7A7
:105BD000F5FB019A1F4903461F48FEF7C7FAC82084
:105BE00002F092FF3378BFF35B8FDA0709D41648CF
:105BF000FEF764FA28B102F04BFC20601248FEF771
:105C000062FA23685B5D5F013378BFF35B8FDB076C
:105C100009D40D48FEF752FA28B102F039FC206091
:105C20000948FEF750FA23681D4403A86B7803F077
:105C30001F033B430393FFF7D5FE039A01239340D1
:105C4000C0F80C3505B0F0BDCCE30320D0E3032051
:105C500034CC0B0042CD0B0058E6032030B585B0A4
:105C60000D4600226946009202F0E2FD90B9009CC8
:105C70000CB1236923B9084A08490A2002F0B0FD93
:105C80000C23CDE901350423039301AA23690121E3
:105C90002046984705B030BD31840B005FCD0B0026
:105CA00013B5FFF701FB01A904460720FFF7D6FF54
:105CB000011EA8BF01992046C9B2FFF71BFCFFF7E0
:105CC000A3FAFFF735FC30B1174803F0F9F84FF4A9
:105CD000FA7002F019FFFFF7E7FA01A90446032062
:105CE000FFF7BCFFE8B9BDF8043007EE903AFBEED1
:105CF000CC7A17EE900A05F093FE41EC100B20468B
:105D0000FFF70EFBFFF7D0FAFFF7EAFA074B51EC6B
:105D1000100B002206F06CF9003818BF012002B009
:105D200010BDFFEE007AE4E7D4E3032000004E400C
:105D300013B5FFF7B9FA144B0446188805F037FC81
:105D4000FFF76AFEFDEEC07A2046CDED017A9DF8A0
:105D500004100E4CFFF7C8FBFFF7A6FAFFF78BFB0A
:105D60000B4A03461021204602F07EFE09490A48EC
:105D70002246FEF7FBF9FFF793FFFFF769FEFFF7F7
:105D800089FE012002B010BD3ECC0B0074DE032062
:105D900085CD0B008ACD0B0058E603200148002179
:105DA00003F04AB8D4E30320704710B5202104461D
:105DB000FEF775F9204610BD30B585B00446089849
:105DC00060B1406850B1856845B1CDE90241CDE987
:105DD0000023C46801AB6A4602A9A04705B030BDE4
:105DE00030B585B0006813680193D1E90045836838
:105DF000CDE902450BB905F0ABFCC36801AA02A9C5
:105E0000984705B030BD012A02D1016000207047DB
:105E1000022A04BF0B680360F8E703681268D1E93F
:105E20000001184710B58368044613B103220146E8
:105E30009847204610BD10B5044638B1FFF7F2FF71
:105E400020461021BDE81040FEF729B910BD10B55D
:105E500004468AB008464FF0200C0021CDE900230B
:105E6000CDE902C10B4602AA216802F0C9FC0AB0C2
:105E700010BD0EB403B503AB322153F8042B0193CC
:105E8000FFF7E5FF02B05DF804EB03B070470EB416
:105E900003B503AB012153F8042B0193FFF7D7FFA0
:105EA00002B05DF804EB03B07047000010B5027259
:105EB000FF2242810022C0E9032242610276C261D0
:105EC000024A034C1060C0E9004110BDE0E303202A
:105ED00020D00B002DE9F8439DF820800446894628
:105EE00016461F46B8F1000F02D0406803F082F852
:105EF000217A606803F05BF86068036849469B6834
:105F000098476068002103F071F8054600BB012343
:105F1000217A60683A4603F038F88742034609D18F
:105F20003744BE421CD0606803685B69984706F836
:105F3000010BF6E70B490C484A46FFF79AFFB8F108
:105F4000000F02D0606803F05EF82846BDE8F883D1
:105F50000346064904484A46FFF78BFF0025EEE753
:105F60000125ECE7D0CD0B00DCE30320F5CD0B00E1
:105F700007B500930123FFF7ADFF03B05DF804FB05
:105F800073B54389FF2B044610D0194E194D02F00A
:105F900057FAB0F57A7F09D2608905F0F5FA012841
:105FA00004D031462846FEF7E1F8F0E701230DF171
:105FB000070228212046FFF7DBFF30B90D480E49C4
:105FC000FEF7D4F8002002B070BD9DF80730182B02
:105FD000F4D101230DF1070229212046FFF7C8FF64
:105FE0000028EBD09DF80730052BE7D1EBE700BF89
:105FF00019CE0B00DCE303202ECE0B0007B51346B1
:1060000000228DF807200DF10702FFF7B1FF9DF880
:10601000070003B05DF804FB2DE9F0419DF81880FE
:1060200004460F4615461E46B8F1000F02D04068E0
:1060300002F0E0FF217A606802F0B9FF606803684F
:1060400039469B6898472E44B542606805D003687E
:1060500015F8011B9B689847F6E7012102F0C6FF7F
:10606000034670B1084909483A46FFF702FF002588
:10607000B8F1000F02D0606802F0C5FF2846BDE805
:10608000F0810125F4E700BF3BCE0B00DCE30320E9
:106090001FB58DF80F2000930DF10F020123FFF7BC
:1060A000BBFF05B05DF804FBF8B50A460C46054693
:1060B0001A491B48FEF75AF8002CB8BFEC687CB9A7
:1060C000012322461B212846FFF7E2FF154902461D
:1060D00006461348FFF7DBFEEC606C613046F8BD06
:1060E000032C19DDA7101F2FA8BF1F27BA0062F0CD
:1060F0007C020123D2B21B212846FFF7C9FF3A4692
:106100000346094906460648FFF7C1FE4FF4FA6305
:106110005F43EC606F61E1E70127E7E760CE0B00CA
:10612000DCE303206ACE0B0086CE0B00064B1A6818
:106130004AB1A0F500630B4305D1D3681BB1002120
:106140001046FFF7B1BF7047E0E303202DE9FF41A0
:106150009DF82880054616461F46B8F1000F04D06A
:106160004068019102F046FF0199019100230DF171
:106170000F022846FFF7FCFE044660B19DF80F3081
:1061800003EA06023A43934205D0019900232846C8
:10619000FFF77EFF0446B8F1000F02D0686802F0F6
:1061A00032FF204604B0BDE8F08113B514460DF16E
:1061B0000702FFF7DDFE28B19DF807301C420CBF37
:1061C0000120002002B010BD13B514460DF10702E6
:1061D000FFF7CEFE28B19DF807301C4214BF012006
:1061E000002002B010BD07B5D2430093D2B2002305
:1061F000FFF7ACFF03B05DF804FB000037B50123E7
:106200000DF107020F210446FFF7B2FE054638B92B
:106210001E491F48AD22FFF72CFE284603B030BDB3
:106220009DF8073013F0200F4FF001030BD0202210
:10623000E3610F212046FFF7D6FF164A164914489E
:10624000FDF794FFE9E7082217212046FFF7BCFF7E
:1062500018B10223114AE361F0E79DF807301A07ED
:1062600009D50323E361082201230F212046FFF70C
:10627000BAFF0B4AE2E75B07CFD50422E2610123B4
:106280000F212046FFF7AFFF064AD7E7D9CE0B0014
:10629000DCE30320AACE0B00F8CE0B00B3CE0B003C
:1062A000C3CE0B00D3CE0B0007B500931346FF22DD
:1062B000FFF74CFF03B05DF804FB0000F8B50F4694
:1062C0001646012300220F210546FFF7E1FE044692
:1062D00038B94FF425721F491F48FFF7CAFD204601
:1062E000F8BD0123232218212846FFF7D1FE0446DA
:1062F00010B940F29B22EEE7FF2FA8BFFF27012F26
:10630000B8BF01270123FAB219212846FFF7C0FEC2
:10631000044610B94FF42A72DDE701230822122146
:106320002846FFF7C1FF044610B940F2AF22D2E77A
:10633000002E14BF03220222012342F08002182102
:106340002846FFF7A5FE04460028C8D140F2B9222E
:10635000C1E700BF09CF0B00DCE303202DE9F743C1
:106360000A4605460F464F484F49FDF7FFFE0021FC
:106370002846FFF799FE044648B940F2F7124B4908
:106380004848FFF776FD204603B0BDE8F0830123BF
:106390001A4630212846FFF787FF044610B940F21D
:1063A0000522ECE71022012311462846FFF71BFFC8
:1063B000044610B94FF40372E1E7012326221321AA
:1063C0002846FFF765FE044610B940F21322D6E7CF
:1063D000012600963346FC2211212846FFF7B6FE1F
:1063E000044610B940F21B22C9E70022394628466C
:1063F000FFF764FF044610B940F22222BFE700967F
:106400000223772210212846FFF7A0FE044610B988
:1064100040F22B22B3E7334604221C212846FFF723
:1064200043FF044610B940F23222A8E70096182331
:10643000E32211212846FFF789FE044610B940F2F5
:1064400039229CE73346C02217212846FFF720FE59
:10645000044610B94FF4107291E701F0F1FFDFF834
:106460005490DFF840804FF47A7106464F4301F0B4
:10647000E7FF801BB8420ED2012217212846FFF702
:10648000BDFD494602464046FDF770FE4FF47A7066
:1064900002F03AFBEBE706490248FFF7EAFC04F09A
:1064A0005EFC70E7DCE3032034CF0B0029CF0B0048
:1064B0005ACF0B0045CF0B002DE9F3479DF828A0DC
:1064C00005460C4691461F46BAF1000F02D04068BF
:1064D00002F090FD07B3202F3E4628BF20267F2CD8
:1064E00026D83319802B01D9C4F180060123042258
:1064F0003F212846FFF777FE002364F07F010093D9
:106500004A463346C9B22846FFF7E4FC804628B124
:106510003444BF1BB144DDE74FF00108BAF1000F6E
:1065200002D0686802F06FFD404602B0BDE8F08717
:10653000012304223F212846FFF7B6FEDCE72DE9C0
:10654000F3479DF828A005460C4691461F46BAF130
:10655000000F02D0406802F04DFD07B31F2F3E46EA
:1065600028BF1F267F2C26D83319802B01D9C4F1D0
:106570008006012304223F212846FFF734FE002332
:1065800064F07F0100934A463346C9B22846FFF7BC
:1065900043FD804628B13444BF1BB144DDE74FF0D2
:1065A0000108BAF1000F02D0686802F02CFD4046E5
:1065B00002B0BDE8F087012304223F212846FFF7FF
:1065C00073FEDCE730B585B00D68D1E90432039580
:1065D0004D6802958D680195C968009101330449A1
:1065E00002F26C72044604F053FB204605B030BD45
:1065F0006CCF0B0003090A2200F00F0002FB03001E
:10660000704738B5044600781546FFF7F3FF086079
:106610006078FFF7EFFF4860A078FFF7EBFF886036
:10662000E078FFF7E7FFC8602079FFF7E3FF013864
:1066300008612DB9651D2878FFF7DCFF886138BD3A
:106640006079FFF7D7FF6430A51D4861F3E70000CC
:1066500070B5012388B00D461A4610210446FFF795
:10666000A4FDF0B108230126204600960DEB03029D
:106670000021FFF72FFC044698B1324629460DF160
:106680000900FFF7BEFF04A8FFF79CFF0848049A23
:106690000849FDF76BFD04A804F058FA204608B03D
:1066A00070BD24220021284605F084FD0024F5E772
:1066B000DCE303208ACF0B0030B58BB00D4601A977
:1066C000FFF7C6FF044620B101A802F015FAC5E99C
:1066D000000120460BB030BD0A2390FBF3F103FB11
:1066E000110091FBF3F203FB121240EA0210C0B258
:1066F000704770B5054600680C461646FFF7ECFF7C
:1067000020706868FFF7E8FF6070A868FFF7E4FF93
:10671000A070E868FFF7E0FFE07028690130FFF73C
:10672000DBFF20712EB9661DA869FFF7D5FF307019
:1067300070BD6A69642392FBF3F003FB1020FFF73E
:10674000CBFFA61D6071EFE7F0B587B0054602A844
:1067500016460C46FFF736FF1E48029A1E49FDF703
:1067600005FD02A804F0F2F916B1686802F042FCD7
:10677000204601220DF1090100278DF80870FFF76E
:10678000B8FF01231A4610212846FFF78DFD044665
:10679000E8B1082300970DEB030239462846FFF7BE
:1067A0003BFC044660B101231A4610212846FFF73E
:1067B0001AFD16B1686802F026FC204607B0F0BD4D
:1067C0004FF48D7205490348FFF753FBF1E74FF48F
:1067D0008F72F7E7DCE3032098CF0B00A6CF0B0006
:1067E00013B504466846CDE9002305F095FC9DF8F5
:1067F000102001462046FFF7A7FF02B010BD0000A1
:10680000F0B5057E89B0044675BB04F077FC58B33B
:106810000026002704A92846CDE9046702F094F871
:1068200010B30125257604F086FCC317CDE90203D9
:10683000024600952046FFF7D3FF02A92046CDE986
:106840000267FFF739FF134B13491B68009304A835
:10685000DDE9022304F010FC1048049A1049FDF70A
:1068600085FC04A804F072F963698BB101F0E8FDBE
:106870002369C01A636998420AD301F0E1FD4FF021
:10688000FF312061204609B0BDE8F040FFF70CBCA5
:1068900009B0F0BDCCDE0320ACE60320DCE303202E
:1068A000C1CF0B0038B5002383608B6804460D46CA
:1068B0002BB102229847EB68E360AB68A3602046E7
:1068C00038BD00002DE9F04395B005461C9904A899
:1068D00090461F460CAEFFF7E5FF04A908A8FFF796
:1068E000E1FF08A93046FFF7DDFF4FF00009102057
:1068F000CDF84890FDF7CFFB0446A0B196E8030021
:1069000001AB83E8030094E8030086E8030093E802
:1069100003000E9BE268A36084E803000F9BCDF8A0
:1069200038900F92E360244B1393244B1293002270
:1069300000234FF00009C5E90023214BC5F808905A
:1069400010201094CDE90139CDF80C90FDF7A3FB90
:106950000446D8B1129BC0F8089033B1022210A9A6
:106960009847139BE360129BA360164B0393164A50
:10697000029401AB4046394601F07CFFB0B120469D
:10698000FFF750FA10212046FDF789FB10A8FFF70A
:1069900049FA3046FFF746FA08A8FFF743FA04A879
:1069A000FFF740FA284615B0BDE8F083029BAB60C4
:1069B000C5E90087EAE700BFE15D0B00816A0B00D3
:1069C00002000C00375E0B00B95D0B0030B50446C9
:1069D0008BB011B1406802F0BBFA2046FFF7D0FA45
:1069E00006AD002837D02046FFF708FC01231A46E1
:1069F00010212046FFF7D9FBD8B104F07FFBC0B9C6
:106A000002A92046FFF758FEDDE9020104F07AFAF8
:106A1000134B14491B6800932846DDE9022304F058
:106A20002BFB1148069A1149FDF7A0FB284604F0FC
:106A30008DF80F4B06930F4B09930F4B08934FF4B0
:106A40000062002302A80095FFF73CFF2846FFF7ED
:106A5000E9F90BB030BD09490348FFF70AFAE8E746
:106A6000CCDE0320ACE60320DCE30320D7CF0B0011
:106A70002D610B001B5E0B00075E0B00F4CF0B00BB
:106A8000012A37B5044604D10B680360002003B027
:106A900030BD022A0CD0032AF8D10468002CF5D0AE
:106AA0002046FFF7BFF910212046FDF7F8FAEDE781
:106AB000096801911020FDF7EEFA054610B1019921
:106AC000FFF7F0FE2560E1E7014B024A1A607047CC
:106AD000DCE303200CD00B00704710B510210446F6
:106AE000FDF7DDFA204610BD0368C9B29B68184760
:106AF00030B5034DC0E90223C0E9005130BD00BFED
:106B000038D00B00406802F023BA10B50446006884
:106B100002F079FA204610BD2DE9F743044640689B
:106B200001900D4616461F4602F064FAA7B1E168CF
:106B3000606841F0500102F03EFA290A6068FFF7F0
:106B4000D3FF29466068FFF7CFFF6068002102F09D
:106B50004DFA48B1002400E0012401A8FFF7D5FF59
:106B6000204603B0BDE8F083202F217B6068B84643
:106B700028BF4FF020080123424641F0500102F0A7
:106B800004FA04F059FD03681B6998474045E1DBAE
:106B900006EB080904F050FD03685B69984706F8A6
:106BA000010B4E45F6D14544A7EB0807BEE72DE99A
:106BB000F74F0446406801900E4690461D4602F08D
:106BC00019FA4FF00109B9F1000F2AD04DB3E1686D
:106BD000606841F0500102F0EEF9310A6068FFF799
:106BE00083FF60683146FFF77FFFA5F11E0A474625
:106BF000A6EB080B606817F8011B0368013D9B6852
:106C0000984755450BEB0706B84601D0002DF1D14A
:106C10006068012102F0EAF90028D7D04FF000099E
:106C2000D1E701A8FFF771FF484603B0BDE8F08F38
:106C30002DE9F0438BB00E46154680464068019022
:106C40001C4602F0D7F9AE4229D2264425448CB125
:106C50001E2C2746D8F8003028BF1E27F61BD3F875
:106C6000089002AA3B4631464046ED1BC84748B94A
:106C7000002400E0012401A8FFF747FF20460BB0E5
:106C8000BDE8F083D8F8003002AAD3F80C9029466A
:106C90003B464046C8470028EAD0E41BD7E7E9D97D
:106CA000002CE7D0D8F800301E2C274628BF1E271E
:106CB000D3F8089002AA3B4631464046C847002810
:106CC000D6D0D8F8003002AAD3F80C9029463B461B
:106CD0004046C8470028CBD03E443D44E41BDFE794
:106CE00001600271704700680368DB68184700683C
:106CF00003681B6A1847006803689B6A1847007995
:106D00007047006803689B6B184737B505460C460B
:106D100019460192FFF7F5FF2868019A03685B693D
:106D2000214603B0BDE83040184700680368DB6BBC
:106D3000184738B50446006803680D465B6B9847F2
:106D400029462046FFF7F1FF257138BD38B50446C6
:106D5000006803689B689847054618B1217920466A
:106D6000FFF7E7FF284638BD006803681B6C18472B
:106D7000006803685B6C184700680368DB6C1847A1
:106D8000006803681B6D1847006803685B6D18474F
:106D9000006803689B6D18472DE9F84304460068B6
:106DA0000A9F1E4603681B69DDE908989847054657
:106DB000C8B11EB12046FFF7E3FF3070B9F1000FF4
:106DC00004D02046FFF7D8FF89F80000B8F1000F83
:106DD00004D02046FFF7D8FF88F800001FB12046F6
:106DE000FFF7D6FF38702846BDE8F88301207047CA
:106DF0000379032BFCD0012070470020704781717C
:106E0000704741717047C172704701737047417399
:106E10007047837B23EA0202114381737047C07974
:106E20007047007A7047407A7047807A7047008ACE
:106E300000B270470079704701717047408A80B294
:106E40007047808A80B27047C08A80B2704738B578
:106E500005460C462B682846DB68984728B9002C65
:106E6000F8D0204601F050FEF4E738BDF8B50546ED
:106E70000F46144601F0E4FA064601F0E1FA801BE1
:106E8000B8420AD22B682846DB68984730B9002CF4
:106E9000F3D0204601F038FEEFE70020F8BD70B5D2
:106EA00004460E4601F0CCFA054601F0C9FA401B33
:106EB000B04204D22379032BF7D0012070BD00200B
:106EC000FCE770B5C3690446B3B101F0B9FA6426B2
:106ED0000546236820461B6B984768B101F0B0FA5D
:106EE000E369401B984209D80A21012003F055FDAF
:106EF000704301F009FEECE7012070BD0020FCE7C3
:106F0000064A0260FF210022027141714282C17271
:106F1000828281818273C282C261704754D00B0029
:106F20007047704770477047704741717047817173
:106F3000704701717047000030B5034D0560017165
:106F40004271837130BD00BFD4D00B00704710B5C3
:106F500010210446FDF7A3F8204610BD0EB403B57A
:106F600003AB002153F8042B019303F0DAFC02B0C9
:106F70005DF804EB03B0704773B504460846227908
:106F8000A36832B1A3B90B4902B0BDE8704003F069
:106F9000BFBB094A267B094D0949647B012E18BFF6
:106FA0002946CDE900140749FFF7D8FF02B070BDAC
:106FB000054AEFE711D10B00ADD40B000DD10B004A
:106FC00009D10B0027D10B0000D10B0010B50446EE
:106FD000FFF7B2FF054B2360054BA360012323732A
:106FE00000232361A382204610BD00BF60D10B00A7
:106FF0004CD10B0013B50B4C2178BFF35B8F11F014
:1070000001010BD120460191FDF758F8019928B1F3
:10701000054803F0DBFC2046FDF755F8024802B0B6
:1070200010BD00BFE4E30320E8E3032007B50191AE
:10703000FFF7E0FF019903B05DF804EB03F07EBDBC
:1070400008B5FFF7D7FFBDE8084003F07DBD08B5E0
:10705000FFF7D0FFBDE8084003F077BD10B5037916
:10706000042B20D0032B20D0022B20D0114A124910
:10707000012B18BF0A4641798379013918BF0121D4
:1070800033B1012B04D0022B02D0032B18BF0023F5
:1070900000240473026101754375FFF7ABFFBDE87F
:1070A000104003F09DBC054AE5E7054AE3E7054AC1
:1070B000E1E700BF80841E0040420F000024F4007E
:1070C00000127A0000093D0008B5FFF793FFBDE804
:1070D000084003F099BC10B50446FFF78BFF04F19C
:1070E0000801BDE8104003F0BBBC08B5FFF782FF04
:1070F000BDE8084003F09ABC08B5FFF77BFF08BD68
:10710000002302481A461946FFF760BFF0E3032048
:10711000012A05D1007A0B781B1A58425841704752
:10712000002070472DE9F047254C012386B02370DD
:10713000637000230F46A17000930322FF232146B2
:10714000064600F0E5FB20B10025284606B0BDE864
:10715000F087FA238DF8173001F072F906F104096F
:10716000804608F57A6501F06BF9291A0029EBDDF4
:10717000002289B24846FFF7BEFD0028F3D0002365
:10718000CDE90233CDE900330DF117022146304637
:1071900000F0C8FB05460028E3D09DF81730012B0E
:1071A000DFD994F800A0BAF1020FDAD14846FFF710
:1071B000E7FD534602463946304600F021FBC4E75E
:1071C00008E40320012A2DE9F34107460E46144640
:1071D0003BD94D79022D30D100F10408C9790191D4
:1071E0004046FFF7CDFD083C2B4602460199384644
:1071F00000F006FBE5B206F10803002422469542A2
:1072000004F10104E4B204D913F8012B397A914254
:10721000F4D104F108010E44A54216D916F8011B59
:1072200001914046FFF7ACFD01340246019902236B
:107230003846E4B200F0E4FAEEE7032D05D189798F
:1072400002B0BDE8F04100F0C4BA02B0BDE8F08180
:1072500010B5044600F014FB014B2360204610BD1E
:1072600094D10B002DE9F047F92A9DF820900646AD
:107270000F4614461D4625D8FF2B14D1DFF8488051
:10728000404600232246394600F8013B04F06AFFDD
:10729000621CCDF820902B4641463046D2B2BDE864
:1072A000F04700F035BB194600F04FFA0028E5D151
:1072B000336829469B68304698470028DED1022073
:1072C000BDE8F0870120FBE708E403202DE9F04F3B
:1072D00089B09846FA238DF81A300DF11F030393F5
:1072E0000DF11E0302935D4E0DF11D03019307ABDB
:1072F0000093894617460DF11B030DF11A02314622
:10730000DDE912BA054600F00DFB044620B9002461
:10731000204609B0BDE8F08F9DF81A3073B332787B
:1073200062BBB8F1000F03D09DF81B2088F8002045
:10733000BBF1000F03D09DF81C208BF80020BAF1A0
:10734000000F03D09DF81D208AF80020149A1AB16E
:1073500014999DF81E200A70159A1AB115999DF876
:107360001F200A703A783E49013BDBB29A4288BF3F
:107370003B703A78484604F0F5FEC9E79DF81C20BA
:10738000FF2AC4D1012BC2D93278012ABFD12A7A6F
:107390009DF81B40A242BAD0DF1E3249FFB2002343
:1073A0005FFA83F8474506D911F8010B824203F1D1
:1073B0000103F5D1ABE705F104094846FFF7E0FC0E
:1073C000022302462146284600F01AFA95F81731A2
:1073D00093B1224CA31BDBB29F420CD9E1780591FB
:1073E0004846FFF7CDFC059902460223284600F0E7
:1073F00007FA0134EEE7B8462B687278DB681A4961
:1074000028469847044660B10223002433709DF853
:107410001A209DF81B3011490094284600F078FA94
:1074200076E795F8163143457FF671AF95F8173139
:10743000002B3FF46CAF9DF81A202B7A07493E448D
:107440000132F3709DF81B300190D2B200932846B0
:10745000FF238DF81A2000F025FA59E708E40320ED
:1074600009E403200BE403200AE403202DE9F04F94
:1074700085B080461C46DDE91056129F894692462B
:1074800000F0DEFF08F1040B044400F0D9FF201ADD
:10749000002816DD81B200225846FFF72CFC002898
:1074A000F3D00F9B0093CDE902670E9B01955246E6
:1074B00049464046FFF70AFF0028E6D005B0BDE880
:1074C000F08F0020FAE70000F0B585B005460430E3
:1074D0000E460392FFF754FC039A074631462846AE
:1074E00000F04AF90228044601D005281BD1317862
:1074F000284600F06EF972782B7A9A4213D00B4C22
:107500000323237033786370717802233A46284648
:1075100000F076F900230093214673780222284672
:1075200000F0F6F90446204605B0F0BD08E403205B
:1075300010B50446FFF7D4FBC8230021E3810323E1
:10754000A160217323744FF4807204F1110004F0E0
:1075500031FE204610BD1FB504460192FFF704FC22
:10756000204600228021FFF703FC2122019B8DF899
:107570000F200DF10F0101222046FFF7C6FB204628
:10758000FFF7B5FB04B010BD2DE9F04F057B0135C9
:10759000EDB287B0044689469246984605730027A7
:1075A000227C3B469A4207F10107FFB26BD3294682
:1075B0002046FFF7D9FB012F0DBFC02280224021BA
:1075C00000212046FFF7D4FB434652464946204659
:1075D000FFF79BFB2046FFF78AFBB8F1FF0F54D063
:1075E000012F82BFA3680133A36000F029FF4FF48D
:1075F000807183460020E68903F0CFF9704348BFCD
:10760000FF3006EB20261BFA86F600F019FF301A31
:107610000028C5DD81B200222046FFF76CFB002860
:10762000F3D00DF1170302930DF11603019300221D
:107630000DF115030093114605AB2046FFF7ACFB97
:107640000028E2D09DF814209DF9173042450ED154
:1076500094F804C09DF815108C4508D1002B08DA69
:107660009DF81630AB42D0D107B0BDE8F08F002BAB
:10767000CBDBA1189DF81630497C9942C5D1204634
:10768000FFF769FFC1E70020EEE70120ECE72DE9F5
:10769000F04389B0CDE90421DDE91098129F04463A
:1076A0001E46FFF720FBDDE9042120B9002528460E
:1076B00009B0BDE8F0830DF11F0302930DF11E0325
:1076C00001930DF11D030093204607ABFFF764FB08
:1076D00005460028EAD09DF91F30002BE6DB227911
:1076E0009DF81D309A4206D19DF81C209DF81E1071
:1076F0002046FFF730FF9DF81F209DF81C109DF8D5
:107700001E3012F0400F0C4402D0607C9842CDD065
:1077100006B13170B9F1000F03D09DF81D1089F842
:107720000010B8F1000F01D088F8003007B13A70AE
:107730006374BCE7704710B504460430FFF706FBDE
:1077400010B11E2384F8163110BD10B50246002377
:1077500092F818418C4208D192F81A412CB103EBEF
:10776000430303F58C73184410BD0133322B02F12F
:107770000302EDD10020F7E737B50B78FF2B054664
:107780000C4606D019460192FFF7DFFF58B1437847
:10779000019A2146281DFFF7F7FE002814BF00209C
:1077A000052003B030BD0220FBE710B501EB41031B
:1077B0000446C1F1310203F58C7003F21B1102EB98
:1077C00042022144204404F0CDFC002384F8AD3172
:1077D00010BD38B50A46002300F58C7403EB430551
:1077E000D9B2655D954203D1FFF7DFFF012038BDB7
:1077F0000133322BF2D10020F9E70021FFF7D5BF8A
:10780000F8B516461F4604460D46002300F58C7257
:1078100003EB4300115CA94205D1204480F81961B3
:1078200080F81A71F8BD0133322BF1D1002304F531
:107830008D7203EB4300115C19B9204480F8185194
:10784000ECE70133322BF4D12046FFF7D6FF204678
:1078500004F1960390F81A212AB980F8185180F89B
:10786000196180F81A7103309842F3D1DAE700F118
:107870009603002280F81A2103309842FAD170470B
:1078800010B504460430FFF753FE054B23604FF458
:107890008F732046A4F81631FFF7E9FF204610BD8C
:1078A000ACD10B002DE9F3470446406801911F4617
:1078B00003689DF828A09B699DF82C901646984770
:1078C00006F1050880451CD8104D019985F801A0E6
:1078D0000023AB7094F81531EB705A1C84F8152115
:1078E000681D32462F7085F8049004F03BFC236835
:1078F0005B685FFA88F22946204602B0BDE8F0478F
:107900001847012002B0BDE8F08700BF02E5032060
:1079100013B59DF810400194047A0094FFF7C2FF5C
:1079200002B010BD2DE9F04F87B01F46FF238DF840
:1079300013300DF117030293DFF8D0900DF1160309
:1079400001930DF11503009304468846164605ABD6
:107950000DF1130249460430DDE910BAFFF797FE36
:10796000054608B9002538E023689DF813201B68F8
:1079700049462046984799F80030227A9A4201D029
:10798000FF2B2ED117B1214B5B783B70BBF1000F61
:1079900003D01E4B1B788BF80030BAF1000F03D0D8
:1079A0001A4BDB788AF80030129B1BB1174B129AE6
:1079B0001B791370139B1BB1144B139A9B78137094
:1079C0009DF8133032781249053BDBB29A4288BFEA
:1079D00033703278404604F0C5FB284607B0BDE856
:1079E000F08F99F802305A1C89F8022094F8162179
:1079F0009A42B7D994F81731002BB3D023689DF879
:107A000013205B68494620469847ABE702E5032010
:107A100007E5032010B50446006A0368DB68984751
:107A200094F82400FF2802D0012103F083FD23688D
:107A30002046DB6F9847642001F066F8012010BDF6
:107A400090F82400002103F086BD90F82400012165
:107A500003F081BD70B504460D461646FFF750FA97
:107A6000034B2360266284F82450204670BD00BF7B
:107A7000BCD10B0038B50446006A03681B6A0D468A
:107A80009847236820469B6F9847206A036805F053
:107A90007F011B689847206A036800211B6898478C
:107AA00023680546DB6F20469847206A03685B6AB7
:107AB0009847284638BD70B50446006A03681B6ABB
:107AC00016460D469847236820469B6F9847206AC4
:107AD000036845F080011B6898470546206A0368E3
:107AE00031461B689847012000F0A2FC236820461D
:107AF000DB6F9847206A03685B6A9847284670BD29
:107B0000F8B50446006A1E4603681B6A0F46154610
:107B10009847236820469B6F9847206A036807F0C0
:107B20007F011B6898472E440746B54207D0206A5C
:107B3000036800211B68984705F8010BF5E72368E7
:107B40002046DB6F9847206A03685B6A984738468F
:107B5000F8BDF8B50446006A1E4603681B6A0F4666
:107B600015469847236820469B6F9847206A03680C
:107B700047F080011B6898472E440746B54206D05F
:107B8000206A15F8011B03681B689847F6E723680D
:107B90002046DB6F9847206A03685B6A984738463F
:107BA000F8BD006A03689B6A184701207047FB20F4
:107BB0007047704710B50379052B044610D0036851
:107BC0000521D3F880309847072201212046FFF78E
:107BD00072FF802240212046FFF76DFF05232371AD
:107BE0002379052BFCD0207E10BD10B54FF4987181
:107BF0000446FCF754FA204610BD10B50379012B5A
:107C000004460BD003680121D3F880309847002246
:107C100001212046FFF74FFF01232371012010BDF2
:107C2000F8B50368DB6804460F46154698470646D4
:107C3000B0B187B17DB194F828302A78033B9342E4
:107C4000DEBF94F82830043B2B702A7804F12D0114
:107C5000384604F087FA002384F8283184F8283065
:107C60003046F8BD142938B505460C4614DC012908
:107C700014DD112913DD07224D212846FFF71BFFD4
:107C8000033C64B2A21E62F07F022846D2B2BDE875
:107C900038400921FFF70FBF1424ECE70224042227
:107CA0004D212846FFF707FFECE7000038B50446F2
:107CB00015461A46FFF7CEFE094B2360FF2200232C
:107CC00084F82720012284F8283184F82C3184F8A4
:107CD000265084F82B2184F82530204638BD00BF7B
:107CE00054D20B0090F82830032B1BD990F8293080
:107CF000C37190F82A30037290F82B30437290F8D9
:107D00002C308372837933B9C37942799A4202D095
:107D1000C379FF2B06D1838A01339BB2838201236F
:107D200080F828317047000038B504462DED028BED
:107D300010EE100AB0EE408A03F072FE17A3D3E9EA
:107D4000002303F0C5FE17A3D3E9002303F0EAFFE5
:107D500004F096F906210546C0F307422046FFF7D6
:107D6000AAFEC5F3072207212046FFF7A4FEEAB2C8
:107D700008212046FFF79FFEDFED077AB4EEE78A81
:107D8000BDEC028BF1EE10FAACBF01230023012001
:107D900084F8293138BD00BF00C042440000000013
:107DA00080842E410000000080844E4010B503798D
:107DB000022B04460BD003680221D3F88030984789
:107DC000012211462046FFF776FE0223237110BDE3
:107DD00070B512210446FFF74DFE1C2105462046D2
:107DE000FFF748FEFF22064612212046FFF763FEFA
:107DF0002379042B07D115F0A00F17D194F82B315C
:107E00000BB1700612D52379042B01D1690622D457
:107E10002379032B01D12A0768D42379052B0ED1AE
:107E20006B070CD505F00105257663E0638A013305
:107E30009BB26382002384F8283184F82830FF2223
:107E400012212046FFF737FE2046FF22BDE8704092
:107E50001221FFF730BE13212046FFF70BFE102141
:107E600005462046FFF706FE0D2102462046FFF795
:107E700022FE04F129022B4600212046FFF740FE96
:107E8000192184F828502046FFF7F4FD40B200285D
:107E9000B8BF0330801084F82A011A212046FFF76A
:107EA000E9FD94F92A3100B2002B2082A9BF238A70
:107EB000228A1BB21B01B2BF9B180F2293FBF2F365
:107EC0001BB2238294F829316BB1238A9D3B1BB2EC
:107ED00023822046FFF706FF94F82831002BAED00E
:107EE000FFF764FFABE7238AA43BF0E7E38A0133A3
:107EF0009BB2E3822046F3E7024B186808B1FFF714
:107F000067BF704704E60320024B586808B1FFF7CB
:107F10005FBF704704E60320024B986808B1FFF783
:107F200057BF704704E6032010B50379042B0446BD
:107F300010D003680421D3F880309847052201212E
:107F40002046FFF7B8FD002240212046FFF7B3FD91
:107F50000423237110BD10B50379032B044605D00B
:107F6000FFF7E2FF94F82801C0B210BD0020FCE743
:107F700010B50379032B044610D003680321D3F80E
:107F800080309847032201212046FFF794FD4022CC
:107F900011462046FFF78FFD0323237110BDFB2AF6
:107FA000F8B504460F46154602D900263046F8BDFE
:107FB00003681B6A98472046FFF7F8FE23682046AF
:107FC000DB6A984706460028EFD000220D212046A4
:107FD000FFF771FDE27A00212046FFF76CFD227B5E
:107FE00000212046FFF767FD627B00212046FFF756
:107FF00062FDA27B00212046FFF75DFD2B463A463D
:1080000000212046FFF7A5FD2A1DD2B222212046DD
:10801000FFF751FD2046FFF7ABFFC7E710B5044659
:1080200080F8252072B181F3040242F07002D2B2CE
:108030000921FFF740FD20460422BDE810404D21F4
:10804000FFF739BDBDE81040FFF70CBE38B50C4650
:1080500005460A781D21FFF72EFD62781E2128466D
:10806000FFF729FDA27828462621BDE83840FFF712
:1080700022BD0000052913B50FD8094B01EB4101C2
:108080005C185A5AA378ADF8042001A98DF806307F
:10809000FFF7DCFF012002B010BD0020FBE700BFAE
:1080A0003CD20B0038B50A0A05460C462021FFF7E2
:1080B00002FDE2B228462121BDE83840FFF7FBBCB3
:1080C00073B50446FFF7A6FC064618B900263046ED
:1080D00002B070BD94F82650FF2D54D0294620469A
:1080E000FFF75FFD802201212046FFF7E4FC0A2014
:1080F00000F00AFD01212046FFF7BCFC8028E5D1F5
:1081000094F82600FF281CD0002103F013FA94F8FD
:108110002730FF2B07D1264A1378032BD6D8591CBA
:10812000117084F8273094F82720224B43F822401E
:1081300062BB214900924FF0FF330122A8B200F048
:108140006DFF00220E212046FFF7B5FC00220F2113
:108150002046FFF7B0FC2046FFF728FE002120460E
:10816000FFF788FF08212046FFF79CFF9FED130AC9
:108170002046FFF7D9FD002384F825300D21204645
:10818000FFF770FDA3E74FF0FF35ABE7012A4FF093
:10819000000304D100930A494FF0FF33CEE7022ACF
:1081A00094D1009307494FF0FF330122C6E700BF87
:1081B00001E6032004E60320F97E0B000000D9430A
:1081C000097F0B00197F0B00704703685B68184735
:1081D00010B58369044633B131B1236820469B68EA
:1081E00098470023A36110BD00F02AF9A369C01AC3
:1081F000E3699842F1D2F6E710B5C36904461BB1B2
:1082000000F01EF9A06110BD0368BDE810409B6836
:10821000184700F0EDB810B504460430FCF7A0FF95
:108220002368E1685B692046984718B923682046AF
:108230009B6998476068FFF7ECFF012010BD0000C4
:10824000F0B521F00304184F184E194D0444A04214
:108250000CD050F8043B7B434FEA734373435A40BE
:108260004FEAF24202EB82022A44F0E701F00304F3
:1082700004440023A04204D014F8015D45EA03231E
:10828000F8E70948434309484FEA73434A405843D3
:108290005040084B80EA10405843074B80EA50306A
:1082A000584380EA1040F0BD512D9ECC9335871B7A
:1082B000646B54E66BCAEB8535AEB2C2F8B50446C2
:1082C0000430FCF74DFFA36800229F689A60A668FF
:1082D000054AF1883046FFF7B3FFB760054660688E
:1082E000FFF797FF2846F8BD3F2A1C8573B50D465A
:1082F0000446FFF7E3FF0B2D064623D9A368226946
:10830000196891421FD19988A28A91421BD1D988BC
:10831000AAB2914217D89A68824214D1E268AA425E
:1083200005D900215955E2680135AA42FAD8D4E9A5
:1083300002322046DA80A568FFF7C0FFA86001205E
:1083400002B070BD9DB1A1680A6892B188688B883F
:108350000190C988084800910849FDF798FDCDE9CA
:108360000056A38A226906490348FDF790FD0020C4
:10837000E6E71046E4E700BF58E60320D8D20B003A
:1083800009D30B0038B50446C2688068002103F0A9
:1083900011FFA36822691A60A368A28A9A80D4E9AF
:1083A00002322046DA80A568FFF788FFA86038BD52
:1083B00008B5024B1B685B6C019308BD7402030097
:1083C00008B5024B1B685B6C019308BD48020300B3
:1083D00008B5024B1B689B6C019308BD4802030063
:1083E00008B5024B1B68DB6C019308BD4802030013
:1083F00008B5024B1B685B6D019308BD4802030082
:1084000008B5024B1B685B6D019308BD3402030085
:1084100008B5024B1B685B6E019308BD3402030074
:1084200008B5024B1B685B68019308BD1802030086
:1084300008B5024B1B68DB68019308BD18020300F6
:1084400008B5024B1B685B69019308BD1802030065
:1084500008B5024B1B689B6D019308BD1802030011
:1084600008B5024B1B68DB6D019308BD18020300C1
:1084700008B5024B1B685B6E019308BD1802030030
:1084800008B5024B1B689B6E019308BD18020300E0
:1084900008B5024B1B681B68019308BD2C02030042
:1084A00008B5024B1B685B68019308BD2C020300F2
:1084B00008B5024B1B689B68019308BD2C020300A2
:1084C00008B5024B1B68DB68019308BD2C02030052
:1084D00008B5024B1B681B69019308BD2C02030001
:1084E00008B5024B1B685B69019308BD2C020300B1
:1084F00008B5024B1B689B69019308BD2C02030061
:1085000008B5024B1B68DB69019308BD2C02030010
:1085100008B5024B1B681B6B019308BD2C020300BE
:1085200008B5024B1B68DB68019308BD28020300F5
:1085300008B5024B1B689B69019308BD2802030024
:1085400008B5024B1B68DB69019308BD28020300D4
:1085500008B5024B1B681B6A019308BD2802030083
:1085600008B5024B1B685B6A019308BD2802030033
:1085700008B5024B1B689B6A019308BD28020300E3
:1085800008B5024B1B68DB6A019308BD2802030093
:1085900008B5024B1B681B6B019308BD2802030042
:1085A00008B5024B1B685B6B019308BD28020300F2
:1085B00008B5024B1B681B6C019308BD2802030021
:1085C00008B5024B1B689B6C019308BD2802030091
:1085D00008B5024B1B68DB6C019308BD2802030041
:1085E00008B5024B1B681B6D019308BD28020300F0
:1085F00008B5024B1B685B69019308BD6402030068
:1086000008B5024B1B689B68019308BD6802030014
:1086100008B5024B1B68DB68019308BD68020300C4
:1086200008B5024B1B681B68019308BD30020300AC
:1086300008B5024B1B685B68019308BD300203005C
:1086400008B5024B1B685B69019308BD300203004B
:1086500008B5024B1B68DB69019308BD30020300BB
:1086600008B5024B1B681B6A019308BD300203006A
:1086700008B5024B1B685B6A019308BD300203001A
:1086800008B5024B1B68DB6B019308BD3002030089
:1086900008B5024B1B681B6C019308BD3002030038
:1086A00008B5024B1B685B6C019308BD30020300E8
:1086B00008B5024B1B689B68019308BD3C02030090
:1086C00008B5024B1B68DB68019308BD3C02030040
:1086D00008B5024B1B681B69019308BD3C020300EF
:1086E00008B5024B1B685B69019308BD3C0203009F
:1086F00008B5024B1B689B69019308BD3C0203004F
:1087000008B5024B1B68DB69019308BD3C020300FE
:1087100008B5024B1B681B6A019308BD3C020300AD
:1087200008B5024B1B689B6A019308BD3C0203001D
:1087300008B5024B1B68DB6A019308BD3C020300CD
:1087400008B5024B1B681B6C019308BD3C0203007B
:1087500008B5024B1B681B68019308BD4C0203005F
:1087600008B5024B1B685B68019308BD4C0203000F
:1087700008B5024B1B689B68019308BD4C020300BF
:1087800008B5024B1B681B69019308BD4C0203002E
:1087900008B5024B1B685B69019308BD4C020300DE
:1087A00008B5024B1B689B69019308BD4C0203008E
:1087B00008B5024B1B68DB69019308BD4C0203003E
:1087C00008B5024B1B681B6A019308BD4C020300ED
:1087D00008B5024B1B689B6A019308BD4C0203005D
:1087E00008B5024B1B685B6B019308BD6002030078
:1087F00008B5024B1B681B6D019308BD60020300A6
:1088000008B5024B1B685B6D019308BD6002030055
:1088100008B5024B1B68DB6E019308BD60020300C4
:1088200008B5024B1B681B6F019308BD6002030073
:1088300008B5034B1B68D3F89830019308BD0000BE
:108840006002030008B5024B1B681B68019308BD5A
:108850002002030008B5024B1B685B68019308BD4A
:108860002002030008B5024B1B685B69019308BD39
:108870002002030008B5024B1B681B6A019308BD68
:108880002002030008B5024B1B68DB6A019308BD98
:108890002002030008B5024B1B689B6D019308BDC5
:1088A0002002030008B5024B1B68DB6D019308BD75
:1088B0002002030008B5034B1B68D3F888300193EE
:1088C00008BD00002002030008B5034B1B68D3F865
:1088D0009430019308BD00002002030008B5034B4B
:1088E0001B68D3F8A830019308BD000020020300E4
:1088F00008B5034B1B68D3F8AC30019308BD0000EA
:108900002002030008B5034B1B68D3F8B030019375
:1089100008BD00002002030008B5024B1B689B68DD
:10892000019308BD4402030008B5024B1B685B6954
:10893000019308BD4402030008B5024B1B681B6B82
:10894000019308BD4402030008B5024B1B685B6B32
:10895000019308BD4402030008B5024B1B68DB6BA2
:10896000019308BD4402030008B5024B1B685B6815
:10897000019308BD4002030008B5024B1B689B68C9
:10898000019308BD4002030008B5024B1B68DB6879
:10899000019308BD4002030008B5024B1B681B6928
:1089A000019308BD4002030008B5024B1B685B69D8
:1089B000019308BD4002030008B5024B1B689B6988
:1089C000019308BD4002030008B5024B1B68DB6938
:1089D000019308BD4002030008B5024B1B681B6AE7
:1089E000019308BD4002030008B5024B1B681B6BD6
:1089F000019308BD4002030008B5024B1B685B6B86
:108A0000019308BD4002030008B5024B1B681B6CB4
:108A1000019308BD4002030008B5024B1B685B6C64
:108A2000019308BD4002030008B5024B1B681B6898
:108A3000019308BD1C02030008B5024B1B685B686C
:108A4000019308BD1C02030008B5024B1B689B681C
:108A5000019308BD1C02030008B5024B1B681B698B
:108A6000019308BD1C02030008B5024B1B68DB69BB
:108A7000019308BD1C02030008B5024B1B685B6A2A
:108A8000019308BD1C02030008B5024B1B68DB6A9A
:108A9000019308BD1C02030008B5024B1B68DB6B89
:108AA000019308BD1C02030008B5024B1B681B6C38
:108AB000019308BD1C02030008B5024B1B685B6CE8
:108AC000019308BD1C02030008B5024B1B689B6C98
:108AD000019308BD1C02030008B5024B1B68DB6C48
:108AE000019308BD1C02030008B5024B1B681B6DF7
:108AF000019308BD1C02030008B5024B1B685B6DA7
:108B0000019308BD1C0203000021FFF7ABBE10B5A6
:108B10004368013B0446436063B903689B68984718
:108B2000A368013BA3602BB923682046DB68BDE83E
:108B30001040184710BD70B5D0E90053044605EB4E
:108B40000316AE4204D0284602F000F81035F8E7CC
:108B50002068FFF771FF204670BD00000248002327
:108B60000360FFF72DBC00BF10E603200022406821
:108B70001146FFF711BF002240681146FFF72CBFD6
:108B8000002240681146FFF737BF40680022FFF718
:108B90002BBF4068002281F00101FFF715BF0023C1
:108BA00040681A461946FFF707BF002340681A4677
:108BB0001946FFF7F9BE002240681146FFF7DCBEF8
:108BC000406800220221FFF7DFBE002340681A46FA
:108BD000FFF7CABE70B5134B03601825303386B05B
:108BE0000E4643602A4600210446083003F0E2FAAC
:108BF000002270681146FFF7CFFE78B100212A46A7
:108C0000684603F0D7FA69460020ADF80050FFF738
:108C1000CFFB18B96946204600F0B8F8204606B0E8
:108C200070BD00BFA4D30B00084B10B5282422460A
:108C30001846002103F0BEFA054B04804FF0FF32C6
:108C4000426004225A60034A1A6010BD1CE60320E9
:108C500014E6032068D30B007047007B7047037B4A
:108C60004BB10369B3F1004F05D08069B0F100400A
:108C700018BF012070470020704703681B6A18471F
:108C800070B503680D461B690646984702212846C1
:108C900001F038FE2C210446284601F03DFD3368E2
:108CA00004449B69304698470221284601F02AFE79
:108CB000204470BDA0F10400FFF7E2BF10B52021F1
:108CC0000446FBF7ECF9204610BD0000037B7BB1A6
:108CD0004369002B0CDB07EE903A9FED077AF8EE24
:108CE000E77A87EE870ADFED057A20EE270A7047DC
:108CF000BFEE000A704700BF00FF7F470000C84278
:108D0000037B63B10369B3F1004F08D007EE903ADB
:108D10009FED047AF8EEE77A87EE870A70479FEDB9
:108D2000020A70470000C84200000000037B7BB1CC
:108D3000C369002B0CDB07EE903A9FED077AF8EE43
:108D4000E77A87EE870ADFED057A20EE270A70477B
:108D5000BFEE000A704700BF00FF7F470000C84217
:108D6000037B63B18369B3F1004F08D007EE903AFB
:108D70009FED047AF8EEE77A87EE870A70479FED59
:108D8000020A70470000C8420000000030B50D46DE
:108D900000F108040FCD0FC495E8030084E8030038
:108DA000012030BD002240681146FFF715BE0022A9
:108DB00040681146FFF720BE40680022FFF714BE4E
:108DC0004068002281F00101FFF7FEBD00234068EA
:108DD0001A461946FFF7F0BD002340681A461946A7
:108DE000FFF7E2BD002240681146FFF7D5BD002223
:108DF00040681146FFF7C0BD406800220221FFF71E
:108E0000C3BD002340681A46FFF7AEBD024B0322E4
:108E10005A60024A1A60704744E60320E0D30B0010
:108E2000006800F0E7B810B50446016002710AB1AD
:108E3000FFF7F6FF204610BD13B50446019102F07E
:108E40001FFC019A01462046FFF7EDFF204602B0C5
:108E500010BD006800F0D7B82DE9FF4104461D465B
:108E60000F461646FFF7DCFF36220023CDE900232C
:108E700020684FF001080A236946CDE9028300F01B
:108E80009DF82068036839469B6898472068036806
:108E900031469B6898472068036829469B68984735
:108EA0004146206800F0A2F8002820460CBF0025AB
:108EB0006FF09F05FFF7CDFF284604B0BDE8F081B5
:108EC00008B5402200230621FFF7C6FF00EAE07044
:108ED00008BD7047F8B5064615460C468F18BC42CB
:108EE00006D0336814F8011B9B6830469847F6E7B4
:108EF0002846F8BD007C0022FFF72ABB007C002139
:108F0000FFF72EBB007C0021FFF732BB007C002165
:108F1000FFF736BB007C0021FFF73ABB10B51421E8
:108F20000446FBF7BCF8204610BD000010B54FF416
:108F30007A73044608460021C4E90113034B2360F9
:108F400020741146FFF734FB204610BD1CD40B00E3
:108F50000023007C1A461946FFF7E2BA7FB50022CB
:108F60001423CDE90122ADF804300B788DF80830D8
:108F70004B680393CB680493007C0B7A059301A99B
:108F8000FFF72EFB07B05DF804FB1FB5003B8DF823
:108F900000104FF06401039118BF0123694601924C
:108FA0008DF80830FFF7DAFF05B05DF804FB007CB0
:108FB0000022FFF7BDBAC9B2FFF7F9BF7FB50023A2
:108FC000CDE901334A6803921423CA68ADF804302E
:108FD0000B7804920A7A0592007C8DF8083001AA79
:108FE0001946FFF7A5FA07B05DF804FB007C0022E4
:108FF000FFF7A6BA08B50021007CFFF7E1FAB0FA46
:1090000080F0400908BD08B50021007CFFF7E0FAB8
:10901000B0FA80F0400908BD004700002DE9FF418B
:1090200000241D460F4690460646FFF769FAA54202
:109030004FF00403ADF80D408DF80C308DF80F4063
:10904000A2BF9DF828308DF80E3003AC074900947C
:1090500043463A463046A8BF8DF80D50FFF748FA10
:10906000B0FA80F0400904B0BDE8F08119900B001F
:10907000704710B518210446FBF711F8204610BDC3
:10908000F0B5037D062B8DB00E4600F104074FF0BE
:10909000000412D000F1080515F8011D0A2230461F
:1090A00001F049FBAF42044419D0002CF4D02E212A
:1090B000304601F031FB0444EEE72F236A4639467F
:1090C0000A208DF80040FFF793FA684603F00FF985
:1090D00033680246DB6869463046984704462046B6
:1090E0000DB0F0BD10B5054B0446112240F8043B0D
:1090F000002103F05FF8204610BD00BF44D40B00F0
:109100000346074A10B543F8042B01F1100251F849
:10911000044B43F8044B9142F9D10A781A7010BD00
:1091200044D40B0010B59DF8084044EA032343EAF9
:10913000024242EA016104234160037510BD000050
:1091400007B5064B0360CB7800938B784A78097893
:10915000FFF7E8FF03B05DF804FB00BF44D40B0049
:1091600000F11003012213F8101C0129184608D140
:1091700053F8041C02EB4102013A03F11003F2D14F
:109180007047022904BF53F8041C5218F4E70EB4C8
:10919000F0B588B000AF07F13405102155F8042B65
:1091A0007A6004462B467818FD60FFF765FC0F28AF
:1091B0007A681AD900F1080323F007036E46ADEB75
:1091C000030D411C2B466846FD60FFF755FC021E4F
:1091D00004DD236869469B6820469847B5462037DA
:1091E000BD46BDE8F04003B070470028F7D02368C3
:1091F00002469B6807F1100120469847EFE738B513
:109200000B6803604D6843689D42044608D015B161
:109210006B6801336B60606808B1FFF778FC6560CC
:1092200038BD07B503688DF807109B6801220DF162
:109230000701984703B05DF804FB0B461146002276
:1092400010B5C0E90022044683600BB9204610BD6A
:10925000FFF7D5FFFAE78368EBB11A78032A1AD82B
:10926000DFE802F00417021B0520704702685B6804
:109270005268D05C2D2812D0A0F13003092B0ED9F2
:1092800074280ED066280CD0A0F16E0358425841C5
:109290007047062070470020704704207047032065
:1092A00070470220704710B50446FFF7D4FF02282C
:1092B0000ED0C31EDBB2012B14D82268A3685068FD
:1092C0005B68BDE810400A220021184403F0D4B8BE
:1092D0002268A36852685B68D05CA0F174035842AE
:1092E000584110BD0020FCE738B50023C0E9003329
:1092F00004460E48C4E90203A9B10B78032B06D03B
:109300008BB9136858684B68C35C6E2B07D0136821
:109310004D6858688B6828445B1BA060E360114669
:109320002046FFF76CFF204638BD00BFADD40B00D0
:1093300038B500250B46C0E90055C0E90255C0E923
:109340000455044611464BB11A78012A06D103F19F
:109350001002DB6882604361FFF751FF204638BD91
:1093600010B54369044663B18068E060013B10308A
:10937000A0602061636113B1FFF7F2FEA0600120DD
:1093800000E0184610BD10B57D210446FFF749FFE7
:1093900001232371204610BD08B50379012B02D0AB
:1093A000022B04D008BD2C21FFF73BFFFAE73A213E
:1093B000FAE710B50446FFF7EFFF20467B21FFF7E1
:1093C00030FF00232371204610BD000013B5044672
:1093D0000191FFF7E1FF2368019ADB68034920460A
:1093E000984701232046237102B010BD04C60B002C
:1093F00013B504460191FFF7CFFF2368019ADB689C
:1094000003492046984701232046237102B010BD2E
:10941000F2CD0B002DE9F0470D462221904604467F
:10942000FFF7FFFEDFF8A490A8442F464745BA4651
:109430003DD017F8016B222E06D05C2E04D03046AA
:1094400002F088FE0028F1D12368AAEB05029B6890
:109450002946204698475C212046FFF7E2FE0D2E64
:109460000AD8072E1CD9A6F10803052B18D8DFE867
:1094700003F00D0F11171315222E01D05C2E0FD102
:1094800031462046FFF7CDFE3D46CFE76221F8E7A3
:109490007421F6E76E21F4E76621F2E77221F0E726
:1094A00023683246DB68494620469847ECE7BD42D0
:1094B00005D023687A1B9B682946204698472221BD
:1094C0002046FFF7AEFEBDE8F08700BF50D40B008A
:1094D00013B50446CDE90021FFF75EFF2046DDE924
:1094E0000021FFF797FF02232046237102B010BD31
:1094F00013B50446CDE90021FFF74EFF2046DDE914
:109500000021FFF787FF01232046237102B010BD21
:1095100080680368DB6818477047084611B10B681C
:109520005B6818477047704770477047704738B599
:1095300004460D4600682E2102F0BDFE2368C31AC2
:109540002B6023B1037803B10130236820601846F3
:1095500038BD10B50C210446FAF7A1FD204610BD18
:1095600010B504210446FAF79AFD204610BD10B547
:1095700004210446FAF793FD204610BDFEF730BFE4
:1095800008B502F0A2FEB0FA80F0400908BD7047AD
:1095900010B50C4601F0B6FE844210D002F0B0F8CF
:1095A000844205D102F0ACF8BDE8104001F043BEA2
:1095B0002CB1236820465B68BDE81040184710BDF9
:1095C0000B6803604B68436013B15A6801325A60FC
:1095D000704713B504460846019102F088FE0199D0
:1095E0000246204602B0BDE81040FFF781BF13B528
:1095F00004460846019102F07AFE23680199DB686F
:109600000246204602B0BDE81040184707B503687F
:109610008DF80710DB6801220DF10701984703B0B0
:109620005DF804FB0EB403B503AB002153F8042B23
:10963000006A019301F075F902B05DF804EB03B024
:1096400070470A6802604A6842600022C0E902224C
:1096500010B502618C688460CC68C4600C698A6053
:10966000CA6004610A6110BD2DE9F74FD0E900849A
:109670004FF0140A00930AFB04F4184BA410174689
:109680005C434546002C21DD66100AFB06F005EB25
:1096900000093A46B9F804B0285801915F4528BF3F
:1096A0005A4602F02CFE002801994FF001030BD11D
:1096B0005F4503D1009A13703446E3E7FCD9A61B3B
:1096C00009F11405013EF7E7F9DBF5E7A5EB08051D
:1096D0000248AD10684303B0BDE8F08FCDCCCCCCD0
:1096E0007FB50369057E019103B3F9B1002600F14E
:1096F0000C04039603A901A8FFF719FF0146A8B1BE
:109700000DF10B03039A8DF80B602046FFF7ACFFB9
:109710009DF80B3053B12368142404FB0034083443
:1097200034F9023C002BA8BFDDB2E3E7284604B0C1
:1097300070BD000010B5094C2378BFF35B8FDB07C9
:1097400009D42046FAF7BAFC28B12046FAF7BBFC48
:10975000034802F0DBFC034810BD00BF50E60320C5
:1097600027950B00C4DE032010B5094C2378BFF306
:109770005B8FDB0709D42046FAF7A0FC28B120460E
:10978000FAF7A1FC034802F0C1FC034810BD00BF7A
:1097900054E603208F950B00C8DE032038B5002562
:1097A0000446C0E90055C0E904558560856140F86C
:1097B000245FFEF705FEFFF7BDFFE061FFF7D4FF72
:1097C00025732062204638BD10B50A4C2378BFF3BC
:1097D0005B8FDB070CD42046FAF770FC40B10648DB
:1097E000FFF7DCFF2046FAF76EFC044802F08EFC1F
:1097F000014810BD4CE603205CE603201D9D0B00D4
:10980000024A034903480023FFF70AB8019B0B00F3
:109810008D9A0B000D9A0B0000231A461946184624
:10982000FEF7FEBF37B58D6804466846FFF7C8FEF1
:109830006A4629462046FFF77BFD01A8FBF7EAFFB1
:10984000204603B030BD37B5CD6804466846FFF703
:10985000B7FE6A4629462046FFF746FD01A8FBF7FA
:10986000D9FF204603B030BD37B50D6904466846C0
:10987000FFF7A6FE6A4629462046FFF7DEFC01A850
:10988000FBF7C8FF204603B030BD000070B58AB0BA
:109890000D46014604A8FFF7C5FF144E04A8FFF7C4
:1098A0005FFDE8B104A96846FFF7CDFF0298314695
:1098B000FFF766FE044610B12C1E18BF012401A854
:1098C000FBF7A8FF002CE9D004A96846FFF7CCFFFE
:1098D0006846FFF7E8FC286001A8FBF79BFFDDE77F
:1098E00005A8FBF797FF0AB070BD00BF56D40B0068
:1098F00037B50C4620461349154602F0E6FC50B930
:1099000001F000FD4FF4165101F0EAFC03B0BDE890
:10991000304001F0F7BC0C49204602F0D6FC78B983
:109920004FF4165301A928460193FFF7AFFF01F04A
:10993000E7FE019901F07CFC01F0E2FE03B030BDCE
:109940000020FBE75BD40B0062D40B0070B5D0E9BC
:1099500000531426044606FB0356AE4205D005F11B
:109960000800FFF7F3FF1435F7E72068FFF764F806
:10997000204670BD10B504460C30FFF7E7FF2046C7
:10998000FFF7D9F8204610BD10B5044B044640F847
:10999000043BFFF7EFFF204610BD00BF64CC0B0077
:1099A00010B50446FFF7F0FF20462421FAF777FBB5
:1099B000204610BD10B5034B03600446FFF7E4FFDB
:1099C000204610BDFCD40B0010B50446FFF7F2FF93
:1099D00020462421FAF763FB204610BD0022C0E98F
:1099E000002210B582600C6804604C6844608C688A
:1099F0000A604A6084608A6010BD10B5036804463E
:109A00001868FEF7F5FC204610BD00002DE9F04F68
:109A100087B0804603931C4B5B68C3F308038946F9
:109A200016466BB9FFF7D0FE044600F12403406AE6
:109A30000593FFF7A3FD237B2BB105A8FFF7DDFFFF
:109A400007B0BDE8F08F01232373D4E900535FFA18
:109A500089F905EB830AAA4512D055F8047B3146F3
:109A6000381DFFF73DFE8145F5D33B68039A009210
:109A7000D3F808B04A46334641463846D847EAE765
:109A800000232373D9E700BF00ED00E02DE9F74F75
:109A90009B461A4B5B68C3F308038046894616460B
:109AA0006BB9FFF791FE044600F12403406A01936D
:109AB000FFF764FD237B2BB101A8FFF79EFF03B0E6
:109AC000BDE8F08F01232373D4E90053F6B205EB10
:109AD000830A55450ED055F8047B5946381DFFF7CB
