:02000002B0004C
:1040000000400B00ACF70B00000006000D0005029D
:084010000401A60F00000000EE
:0440180014DE0B00A7
:1040200009480A49884208B505D0094A824202D0A7
:10403000121A09F0F5FC0748074A0021121A09F084
:1040400017FD014808BD00BFBCDD032008F60B00CA
:1040500038DF032038DF0320EDE7032070B5074E7B
:10406000074C07F075FDA41BA4080025AC4200D145
:1040700070BD56F8043B98470135F7E79CF50B00F7
:10408000D4F50B0000F09CBD08B500F009FABDE8BE
:10409000084007F015BD04F0F9BF04F0F7BF04F0C5
:1040A000FDBF000008B5034A03490C2004F098FE48
:1040B000FEE700BF318A0B0028DE0B000078B0FA63
:1040C00080F0400970470123037070477047006A11
:1040D0000368DB6818470000014B1A60704700BF97
:1040E000BCDD0320014B01221A707047CEDF032094
:1040F00030B585B00446089860B1406850B1856815
:1041000045B1CDE90241CDE90023C46801AB6A465F
:1041100002A9A04705B030BD10B5084C23782BB1DB
:10412000074B01221A700023237010BD01F0A8FC78
:1041300001F0D4FD0128F3D00123F5E764DF03206B
:10414000CCDF032030B585B0006813680193D1E956
:1041500000458368CDE902450BB907F07FFEC368CF
:1041600001AA02A9984705B030BD012A02D1016019
:1041700000207047022A04BF0B680360F8E7036859
:104180001268D1E9000118470A4B10B504460360D4
:1041900005F094FE214606F0CCF807F049FC07F044
:1041A00039FC2046044B40F8043B05F05DFF2046F7
:1041B00010BD00BFD8E20B00C0E20B0010B50446F2
:1041C000FFF7E2FF20462421FFF769FF204610BDDC
:1041D00010B58368044613B1032201469847204670
:1041E00010BD10B5044638B1FFF7F2FF204610218C
:1041F000BDE81040FFF753BF10BD0000F8B5037DC8
:1042000005460F4616468BB10368DB6883B19A8872
:10421000012A06D09B68F9E79B684BB19A88012A6E
:10422000FAD12BB19A89BA42F6D19E732846F8BDCD
:104230000A49102007F00EFE044668B11022002142
:1042400009F016FC064B23600123A3802B69A360B1
:10425000A781A6732C61E9E72875E7E75CF30B00FB
:10426000100003000EB400B58CB00DAA4FF0200C66
:1042700052F8041B0392CDE900120023016804AA3E
:104280001E20CDE904C304F0BBFD0CB05DF804EBC7
:1042900003B0704770B5134E134C3278134D022A99
:1042A000C2B017D107F0C0FA32782B7804EB0212B3
:1042B000009204EB031398B90D4A4FF4807102A8E1
:1042C00004F004FF33780B482B7002A9FFF7CAFFF4
:1042D00042B070BD2B7804EB0212009204EB031382
:1042E000054AEAE7CDDF0320C0DD0320C4DF032059
:1042F0003DDE0B0054E603205DDE0B0000000000F5
:104300002DE9F0435C4D2E6887B0002E42D002208C
:1043100006F0B2FE0646286808F07EFF9FED540BBB
:1043200041EC110B07F0A0FD0A2059EC108B7043F3
:1043300008F062FF42464B4608F0D8FF4F4B002280
:1043400008F01EFE09F0AAFA044601F099FB01F0FC
:10435000B6FCCDE9006402462B6849494948FFF79D
:1043600081FF2B68022B11DD4FF0FF332B6001F032
:1043700087FB042101F0F5FC01F082FB054607F004
:1043800070FA0246C317284601F01AFE204607B00D
:10439000BDE8F08307F048FA002865D001F070FB13
:1043A00001F08DFC054601F06BFB01F015FD3C248E
:1043B00004FB00F707F055FAB0FBF7F404FB170411
:1043C0003C1BBC4228BF3C4601F05AFB01F077FC85
:1043D0000A2805D92C492B482246FFF743FFD5E789
:1043E0002A4F07F03EFAD7E90089C317B0EB08005F
:1043F0002DB263EB090305EB8505002B4FEA45055C
:1044000016DB07F02EFA2C440219214B2149C7E98B
:10441000002602A80093334607F0C4F9029B1E4908
:1044200022461848FFF71EFF02A806F009FFADE775
:1044300007F017FAB8EB000869EBE070454576EB3A
:1044400000030FDB3C6807F00CFA114B0093D7E92F
:1044500000231049241A02A807F0A4F9029B0F496F
:104460002246DEE72C4491E73C248FE7AFF300803F
:104470000000000000000040C8DF032000002440CE
:104480006BDE0B0054E60320A2DE0B0050DF03209E
:10449000E1DE0B00ACE60320E4DE0B000ADF0B00DC
:1044A0002DE9F04FAD4C2378013B8DB0042B00F289
:1044B000FC80DFE813F0290205005E008301C501DE
:1044C000A74B1B78022B01D0FFF7E4FE01F0D8FACE
:1044D00001F082FC01280DD1A249A348FFF7C2FEDA
:1044E00001F0CEFA01F0F5FB002800F0258201234F
:1044F0002370DAE007F0B5F9054601F0C1FA01F0E2
:1045000037FDEB172D1A63EB010601F0B9FA01F044
:1045100063FC78235843A8424FF00003B341DFDA2D
:1045200001F0AEFA01F0EDFA0028D9D08F498E489B
:10453000FFF798FE01F0A4FA032101F012FC01F04C
:104540009FFA054607F08DF90246C317284601F089
:1045500037FD01F095FA012101F0E1FC01F090FA3C
:10456000054607F07EF90246C317284601F023FDF1
:10457000B6E77B4B1B78032B01D0FFF78BFEFFF7D1
:10458000BFFE074607F06DF9054607F04DF90646F0
:1045900000284CD0EA19764B00937649D31708A827
:1045A00007F000F9089D01F06BFA01F0AAFA724BCE
:1045B000724A7349002808BF1A4600926A482B467F
:1045C0003A46FFF74FFE16B108A806F039FE01F093
:1045D00057FA01F096FA6B4BB3F800B018B9012105
:1045E000584607F036FB684B1A7D0AB102221A7250
:1045F000664B6548B3F8009000224946FFF7FEFD80
:10460000634BB3F800A001225146FFF7F7FD037D8D
:10461000064613B303684FF47A78DB6808FB07F8A3
:104620003BB19A88042A00F00B829B68F8E7594D49
:10463000B9E75949102007F00DFC0546002800F0A5
:10464000FD811022002109F013FA544B2B60042342
:10465000AB803369C5E9023835610021504802F06A
:10466000B3F8494905A806F01DFF4FF0FF314C484B
:1046700002F0AAF84FF4FA6004F084FD00215846D5
:1046800007F0E7FA059B002B34D09A88012A31D134
:104690009B89994531D143493348FFF7E3FD042312
:1046A0000598237008B104F0F9FC3D483E4C02F037
:1046B00037FC01F071FA01F0A7FA01F0E1F901F01D
:1046C00017FA237823B101F011FE08B100232370FB
:1046D000364B1B68002BC0F2B68135492248FFF7E4
:1046E000C1FD4FF4FA6004F04DFD0DB0BDE8F04F90
:1046F00006F0D5BE4FF6FF73CBE79A4515D12D498D
:104700001948FFF7AFFDFFF7FBFD022824DDFFF797
:10471000F7FD054601F0B4F901F05EFB3C2343438D
:10472000023B9D4218DA0323BAE707F09AF8104BD0
:1047300010490093C219D31708A807F033F8089A54
:10474000039206F00FFF039A1B4903460648FFF742
:1047500089FD08A806F074FD0223A1E7CDDF032040
:10476000C4DF032037DF0B0054E6032056DF0B00C5
:10477000E1DE0B00ACE6032033DF0B0030DF0B0083
:10478000CCDF0B0092E90B0088DF03208EE90B00E1
:1047900090E90B0050DE0B005CF30B0010000300EF
:1047A00068DF032007E00B00CCDF0320BCDD032023
:1047B00099E10B002AE00B0045E00B00A34B1B78AE
:1047C000042B3FF472AFFFF765FD00F015FC00F01D
:1047D000A7FC01F09BFE01F053F901F07AFA9C4D21
:1047E00040B900F009FC00F0D5FEB8B100232B6001
:1047F00005237DE601F044F901F06BFA012804D1AC
:1048000000F0FAFB01F002F8EFE701F039F901F0EE
:1048100060FA904902469048FFF724FD2B68013367
:104820002B6001F02DF901F0D7FA012804BF002315
:104830002B602A6889498848FFF714FD032357E64F
:10484000824B874D1B78052B06D0FFF723FD04F024
:10485000F7F803232860237041F2873604F0F0F85C
:104860002B68C01AB0424AD800F0C6FB00F0D4FD55
:104870000028F3D001F004F9054606F0F2FF0246E5
:10488000C317284601F097FB01F0FAF801F070FB1E
:1048900006F007FC06F0E5FF012302460093C3176C
:1048A000704802F02DFB01F0EBF801F012FA30B184
:1048B0000223237000F0A0FB00F042FCF5E66A4DF5
:1048C0006A4C2B78BFF35B8F13F0010F09D1284698
:1048D000FFF7F4FB28B106F0D5FF20602846FFF76C
:1048E000F2FB06F0CFFF23689842E3D001F054F9C1
:1048F000002101F01AFB06F0C5FF2060DAE75C49F1
:104900005548FFF7AFFCD0E6504B1B78012B01D088
:10491000FFF7C0FC01F0B4F801F0DBF9013806281C
:1049200000F28280DFE800F0040A0C4969767A0020
:1049300050494948FFF796FC0423D9E54E49F8E76A
:104940004E4C4F4D2378BFF35B8F13F0010F09D10D
:104950002046FFF7B3FB28B104F072F82860204628
:10496000FFF7B1FB04F06CF82B68C01A47F2305324
:1049700098427FF69AAE43493748FFF773FC01F03F
:104980007FF8002101F0EDF901F07AF8044606F015
:1049900068FF0246C317204601F012FB01F070F8D1
:1049A00003680121DB6898474FF4FA6004F0EAFBE2
:1049B0001E212C4802F062F877E633492648FFF7BB
:1049C00051FC00F019FB00F0C1FB08B12F49B0E722
:1049D0002F492148FFF746FC01F052F8032101F06E
:1049E000C0F901F04DF8054606F03BFF0246C3173B
:1049F000284601F0E5FA02237AE501F041F8036860
:104A00009B69984701F0C8F801F027FB01F038F8DE
:104A10000121E4E701F0C0F801F01FFB01F030F8DC
:104A2000002101F09EF909E71A490B48FFF71AFC2B
:104A300001F026F8002101F094F9DCE730750CE66E
:104A4000C3F80C8009E60DB0BDE8F08FC4DF032089
:104A5000C8DF03206BE00B0054E6032095E00B0059
:104A60005CDF032068DF032048DF032060DF0320D2
:104A7000BAE00B00D5E00B00F5E00B0044DF0320AB
:104A800058DF03200CE10B0027E10B003DE10B0098
:104A900057E10B0083E10B0038B5002383608B687E
:104AA00004460D462BB102229847EB68E360AB68E1
:104AB000A360204638BD00002DE9F04395B00546BF
:104AC0001C9904A890461F460CAEFFF7E5FF04A909
:104AD00008A8FFF7E1FF08A93046FFF7DDFF4FF018
:104AE00000091020CDF84890FFF7D5FA0446A0B190
:104AF00096E8030001AB83E8030094E8030086E82E
:104B0000030093E803000E9BE268A36084E80300BF
:104B10000F9BCDF838900F92E360244B1393244BF6
:104B20001293002200234FF00009C5E90023214B16
:104B3000C5F8089010201094CDE90139CDF80C90FB
:104B4000FFF7A9FA0446D8B1129BC0F8089033B118
:104B5000022210A99847139BE360129BA360164B97
:104B60000393164A029401AB4046394604F09CF97F
:104B7000B0B12046FFF72CFB10212046FFF78FFA3B
:104B800010A8FFF725FB3046FFF722FB08A8FFF728
:104B90001FFB04A8FFF71CFB284615B0BDE8F083F7
:104BA000029BAB60C5E90087EAE700BF45410B0007
:104BB000A14D0B0002000C00E3410B00F1400B0083
:104BC00070B500208CB003F04BFF42F21075044624
:104BD000002003F045FF001B61F10001A84271F1C4
:104BE000000307D206F024FF06F017FF10B904F007
:104BF000B5F9EDE706F01CFF06F00FFF01F07AFAB9
:104C000001F0A4FA00F03CFF03681B68984700F02D
:104C1000C3FF03681B68984750480823012143815C
:104C200002F0D0F97C214D4801F0CEFD4C4B0893A9
:104C30004C4B0B9308AC4C4B0A934FF4802200234F
:104C400004A80094FFF738FF2046FFF7C1FA00F0F0
:104C5000D3F9002100F0E2F900285ED100F010FF46
:104C6000032101F07EF800F00BFF054606F0F9FD88
:104C70000246C317284601F0A3F900F001FF01F036
:104C800028F83A4902463A48FFF7ECFA01F03EFCB0
:104C9000384B1E88304606F0F5FF28B936493448AF
:104CA000FFF7E0FA04F062F934483549008800253E
:104CB0004FF0FF330122009504F002FD4FF0FF3367
:104CC0002A4630490095304604F0FAFC2E4B1A78FB
:104CD0000AB903221A7000F0D3FE00F0FAFF05466D
:104CE00000F0CEFE01F044F90B462849009102463F
:104CF0002749204606F056FD089B26491C482A46AF
:104D0000FFF7B0FA204606F09BFA234B18880021E3
:104D10000CB0BDE8704006F09CBF00F0B1FE00F0A2
:104D2000CEFF0A2814D900F0ABFE012101F019F8DA
:104D300000F0A6FE00F0C3FF039000F0A1FE00F01B
:104D4000C8FF039A154903460948FFF78BFA9DE708
:104D500006F06AFD0028E6D098E700BF68DF032070
:104D6000D9400B007F410B006B410B00B5E10B00FC
:104D700054E603208EE90B003AE20B0090E90B00A9
:104D800019410B00E5400B00CDDF0320E1DE0B00F5
:104D9000ACE6032071E20B008CE90B00F3E10B00A1
:104DA000012A37B5044604D10B680360002003B024
:104DB00030BD022A0CD0032AF8D10468002CF5D0AB
:104DC0002046FFF705FA10212046FFF768F9EDE7C6
:104DD000096801911020FFF75EF9054610B10199AD
:104DE000FFF75AFE2560E1E770B5D0E900531426BD
:104DF000044606FB0356AE4204D0284606F020FACD
:104E00001435F8E7206804F049F9204670BD88425F
:104E1000F8B504460D46164616D9904215D2A2F1B1
:104E20001406751AA1F114072C44B7421CD02CB1FA
:104E30003146204606F080FA337C2374304606F073
:104E4000FFF9143E143CF0E70ED0B5420CD02CB163
:104E50002946204606F070FA2B7C2374284606F07B
:104E6000EFF914351434F0E7F8BD2DE9F0410023D3
:104E7000C0E9003383604F689F4204460E4623DD3D
:104E80004FF0140808FB07F004F000F90546D8B10C
:104E9000D4E9001208FB0212FFF7B9FF206804F002
:104EA000FDF82560A760D6E9007308FB0378B845D4
:104EB00008D03946284606F059FA3B7C2B74143743
:104EC0001435F4E7736863602046BDE8F0810000A4
:104ED000F0B52F4B2F4A9A6000248DB0C3E90044EF
:104EE000032003F0D1FF2146012003F0E5FF01215B
:104EF000042003F08DFDCDE90044029406F098FDF6
:104F0000254D0646694603A8FFF7AFFF2F4603A9C4
:104F100006A8FFF7AAFF214B47F8043B06A909A8FA
:104F2000FFF7A3FF09AA1E21384605F0E5FA09A8F4
:104F3000FFF75AFF06A8FFF757FF194B2B6003A88E
:104F40002E62FFF751FF174B2B6006F071FD4FF4F7
:104F5000165106F05BFD04F0B1FF294605F0A2F9F9
:104F60006846FFF741FF104B1A1D1A600F4A5A603E
:104F700001221A75C3E902441C6106F0E3FE0146F2
:104F80000B4869220DB0BDE8F04001F01FBB00BF27
:104F900038DF03200000FFFFA0DF0320C0E20B008A
:104FA000FCF10B00D8E20B0088DF032010000300A7
:104FB00068DF03207047704710B504210446FFF7EF
:104FC0006EF8204610BD000010B5054B00220446C7
:104FD000114640F8043B03F03BFF204610BD00BFE4
:104FE0006CE70B0010B50446FFF7EEFF20462021CA
:104FF000FFF755F8204610BD10B5064C236833B9AD
:105000000420FFF748F808B1034B036020602068D4
:1050100010BD00BFD0DF032080E70B0030B536485D
:1050200087B00D4602F031FE044630B933493448AA
:10503000FFF718F9204607B030BD9FED320A32481D
:1050400003F01EF9002217212F4803F093FA00F015
:1050500017FD00F034FE2D4902462948FFF702F9FA
:105060008DB100F00DFD002100F069FE02A803F0F3
:105070008DFF029A26492248FFF7F4F802A806F0AD
:10508000DFF82C46D6E700F0FBFC00F018FEF0B18C
:1050900000F0F6FC00F013FE0A2818D800F0F0FC2F
:1050A00000F00DFE01461B4802F01BF9194802F002
:1050B000FEF8019002A803F069FFDDE9012316491B
:1050C0000F48FFF7CFF802A806F0BAF8B2E700F0F1
:1050D000D7FC0B2100F033FE0B210E4802F001F942
:1050E0000C4802F0E4F8019002A803F04FFFDDE95C
:1050F00001230A49E4E700BF00E20320E8E20B00D5
:1051000054E6032000C06444D0E00320F4E20B0026
:1051100013E30B0004E203204DE30B0084E30B00D8
:1051200010B5064CC0B00DF1030201A9204603F0F2
:1051300021F80028F7D140B010BD00BFD0E0032017
:10514000014803F004B800BFD0E00320134B10B5B2
:105150001C880021204606F07CFD0A2004F012F88D
:105160000121204606F075FD0A2004F00BF80C48DA
:1051700002F08BFD044628B90A490B48FFF772F884
:10518000204610BD9FED090A094803F079F8084848
:105190000022172103F0EEF9F2E700BF98E90B00B7
:1051A00000E20320E8E20B0054E6032000C0644460
:1051B000D0E0032070B5002290B01421022003F04B
:1051C00093FE574D1E220121CDE900210346022204
:1051D000FF2108A804F0F4FC2C7A012C75D100F012
:1051E0004FFC0B2100F0ABFD0B214E4802F079F88B
:1051F00000F046FC214600F0B4FD00F041FC0646FC
:1052000006F02FFB0246C317304600F0D9FE454892
:1052100002F04DF8029004A803F0B8FE4248049B47
:10522000029A4249FFF71EF804A806F009F8AE7A80
:10523000002E6ED100F024FC314600F074FC00F02A
:10524000ABFC00F00AFF00F01BFC062100F089FD1A
:1052500037493548FFF706F8364B374A3749A87AB9
:10526000002C08BF1A46364CEB7A0392012818BF6F
:105270000C46029300F004FC00F02BFDDDE9023245
:10528000CDE900402F492848FEF7ECFF002201211C
:1052900009A803F0DDFD00242B4802F0A0F84FF42C
:1052A000FA636FF077026FF01D01009403F05EFF68
:1052B00003F068FF2246214609A803F0C9FD08A8AB
:1052C000FFF782FE012010B070BD072C05D100F061
:1052D000D7FB697A00F04BFDA9E7A4B122461B4930
:1052E0001148FEF7BFFF00F0CBFB214600F039FD6F
:1052F00000F0C6FB064606F0B4FA0246C317304675
:1053000000F05EFE93E700F0BBFB214600F029FDB4
:105310008DE700F0B5FB012100F005FC9CE700BF24
:10532000D4DF032004E2032054E6032084E30B00CF
:1053300000E40B00D0E30B00CBE30B00DDE30B003C
:10534000D8E30B0022E40B00D0E00320E4E30B00E1
:1053500010B500228CB01421022003F0C5FD1E22DE
:1053600001210346CDE9002104A82549254C02224C
:1053700004F026FC00F084FB00F0A1FC0A2804D90C
:1053800000F07EFB617A00F0DAFC00F079FBA17A94
:1053900000F0EDFC00F074FB00F091FC039000F0D5
:1053A0006FFB00F09BFC039A174903461748FEF772
:1053B00059FF00F065FB00F082FC0146144801F043
:1053C00090FF0022012105A803F042FD00241148AE
:1053D00002F005F84FF4FA636FF077026FF01D01E9
:1053E000009403F0C3FE03F0CDFE2246214605A83B
:1053F00003F02EFD04A8FFF7E7FD01200CB010BD5F
:105400000060FF00D4DF032073E40B0054E60320A8
:1054100004E20320D0E0032070B58CB0F9238DF8AE
:105420001A300DF11F0303930DF11E033E4D02933D
:105430000DF11D03019307AB00933C480DF11B03D5
:105440000DF11A02294602F019FA002860D09DF8E1
:105450001A300024EC542E8800F012FB00F0B7FC48
:1054600076BAB6B2B04205D031493248FEF7FAFEFC
:1054700020464DE0304E9DF81E309DF81B202F48F1
:105480003370059201F0ABFF2D49059A0346307841
:1054900001EB0011009127482A49FEF7E3FED5F8F9
:1054A000020000BAC11706F0C4F800F0E9FAE98872
:1054B00049BA89B200F033FD00F0E2FA297A00F02F
:1054C00050FC00F0DDFA054606F0CBF90246C317A2
:1054D000284600F075FD06F0C4F9C317024608A877
:1054E00006F0BAF8089A059200F0CAFA00F074FCC7
:1054F000059A154903460F48FEF7B4FE08A805F0C3
:105500009FFE3378042B05D1FFF776FDFFF752FE9F
:105510000CB070BD022B04D1FFF76EFDFFF718FF32
:10552000F6E70A49A1E700BFD4DF032000E2032029
:10553000AAE40B0054E60320CFDF0320D0E00320D1
:1055400050DE0320D3E40B0005E50B0038E50B002B
:1055500070B500250E462C46B3689D4218D22946E8
:10556000304605F00FFF0378A3F13002092A02D874
:1055700014440135F0E7A3F14102052A02D8373B74
:105580001C44F6E7A3F16102052AF2D8573BF7E77E
:10559000204670BD2DE9F04389B0044600F0FCFAC6
:1055A00000F0B0FB064600F0F7FA00F0A6FB054657
:1055B000304607F031FE064628460F4607F02CFE1F
:1055C00002460B463046394607F0BAFF0022854BAB
:1055D00007F08CFE08F082F9834B1F8801210546F5
:1055E000384606F036FB00F0D7FA00F086FBFF28BD
:1055F00040F0B58000F0D0FA002100F0CAFB00F0C6
:10560000CBFA002100F0CBFB00F0C6FA00F075FBEE
:10561000764902467648FEF725FE04A803F0B6FC5C
:1056200004A92046FFF794FF064604A805F008FEEB
:1056300000F026FA00F0CBFB6E4C000A207000F060
:105640001FFA00F0C4FB3312A3706070E67000F024
:10565000A3FA00F00DFC000A207100F09DFA00F0A2
:1056600007FC607100F098FA00F036FC000AA071A7
:1056700000F092FA00F030FCE07100F001FA00F066
:105680002DFB207200F088FA00F02DFB607200F014
:1056900083FA00F0C5FA51EC100B08F0FFF8A07285
:1056A00000F07AFA00F024FBE07200F0E9F900F073
:1056B0000BFB207300F070FA00F01FFB607300F02A
:1056C0006BFA00F01FFB0323A073214600934A48A6
:1056D00000230F2202F09EF8044600284CD100F06F
:1056E0005BFA054600F058FA00F00CFB0130C1B23D
:1056F000284600F054FB00F04FFA00F003FB804610
:1057000000F04AFA00F0F9FA064600F0B9F900F0A4
:10571000D6FA0546404607F07FFD8046304689466A
:1057200007F07AFD02460B464046494607F008FF5F
:105730002C4B002207F0DAFD08F0D0F807F07EFDD0
:105740002A46CDE900012D492948FEF78BFD384650
:10575000214606F07EFA012009B0BDE8F08300F092
:105760001BFA064600F018FA00F0C7FA0130C1B281
:10577000304600F00EFB47E7022815D100F080F913
:1057800000F09DFA0390284607F058FD039ACDE9F2
:1057900000011B4900231648FEF764FD384600212E
:1057A00006F057FA0020D7E705280DD100F068F978
:1057B00000F085FA0390284607F040FD039ACDE9F2
:1057C000000100230F49E6E700F05AF900F077FAEC
:1057D0000390284607F032FD039ACDE9000100232B
:1057E0000949D8E7000059408CE90B0052E50B004D
:1057F00054E60320D4DF032000E2032070E50B0011
:10580000A3E50B00F3E50B004CE60B00F0B5384BBD
:105810001E888FB004460121304606F01AFA03A80C
:1058200003F0B4FB0023192207A903A805F0B8FD73
:1058300003A805F005FD03A803F0A8FB03A9204673
:10584000FFF786FE054603A805F0FAFC00F018F9FC
:1058500000F0BDFA274C000A207000F011F900F0AA
:10586000B6FA2B12A3706070E57007AB221D0DAF66
:105870001D4603CDBD42106051602B4602F1080267
:10588000F6D12B78137000F0FBF800F027FA607760
:1058900000F0F6F800F013FA0A2818D9164917484C
:1058A0000124FEF7DFFC13491548009400231E2253
:1058B00001F0B0FF054688B912491048FEF7D2FC46
:1058C0003046294606F0C5F920460FB0F0BD05F078
:1058D000ABFF08B90C49E2E70C49E0E70C4907487F
:1058E000FEF7C0FC3046002106F0B3F90020ECE7DB
:1058F0008CE90B00D4DF03209CE60B0054E6032068
:1059000000E203201AE70B00C7E60B00F1E60B00EC
:1059100044E70B0010B5084A084C09491278097889
:10592000084B204602F06CFC21460748BDE81040B9
:10593000002201F065BF00BF96E90B00D0E0032014
:1059400094E90B00ECE3032000E2032010B5044BC4
:1059500003600446406808B103F03AF8204610BDE1
:1059600060F00B0010B50446FFF7F0FF20467821E9
:10597000FEF795FB204610BD10B5034B03600446AF
:1059800001F082FB204610BDECE80B0010B5044688
:10599000FFF7F2FF20461021FEF781FB204610BDE5
:1059A00010B5044B03600446406808B103F010F8DA
:1059B000204610BD60F00B0010B50446FFF7F0FF65
:1059C00020466821FEF76BFB204610BD10B503682A
:1059D00004460BB902F0F4FF2068BDE8104002F065
:1059E000FFBF38B504460430FFF7F0FF606AA16AD4
:1059F0000368DD68D4E90223A847606802F0F8FF75
:105A00002046BDE8384002F0BFBE38B50446043039
:105A1000FFF7DCFF606AA16A03689D68D4E902238E
:105A2000A847A2682368D1885B692046984718B9BF
:105A3000236820469B699847606802F0D9FF0120DF
:105A400038BD000000F1300181600A494FF0380C88
:105A5000C0E903C1022181824FF47A71C161064914
:105A60000022C0E909124260826180F82020034AC6
:105A700002607047759EA920B8E3032008E90B0077
:105A800010B5064C23683BB96820FEF704FB0346BB
:105A900008B1FFF7D7FF2360206810BDB0E30320F3
:105AA00010B5406A01F006FBFFF7EAFF64220368C5
:105AB000C2615B689847FFF7E3FF036838215B69C1
:105AC000984750B907490848FEF7CCFBFFF7D8FFC5
:105AD0000368BDE810409B69184704490248FEF777
:105AE000C1FB10BD88E70B0054E60320B4E70B00B0
:105AF00010B5FFF7C5FF0368BDE81040DB68002163
:105B0000184738B504460430FFF760FFE368606863
:105B1000013B302B86BFA36893F83150002502F07B
:105B200067FF284638BD38B5044604300D46FFF7F8
:105B30004DFFE368013B302B09D9A36893F831206E
:105B4000AA4204D083F83150204602F0A9FE6068D2
:105B5000BDE8384002F04CBF00F130010022816006
:105B60000A4942604FF0480C826180F82020084AC0
:105B70004262C0E903C164220221818282624FF441
:105B80007A71044AC1610260704700BF749EA92007
:105B9000B8E3032034E90B0010B5064C23683BB989
:105BA0007820FEF778FA034608B1FFF7D5FF2360A7
:105BB000206810BDB4E3032010B5406A01F07AFA02
:105BC000FFF7EAFFFA220368C2615B689847FFF7B4
:105BD000E3FF036848215B69984750B907490848C3
:105BE000FEF740FBFFF7D8FF0368BDE810409B6954
:105BF000184704490248FEF735FB10BDCEE70B00FD
:105C000054E60320F8E70B0010B5FFF7C5FF036863
:105C1000BDE81040DB6800211847000000000000CC
:105C200010B504462DED028B0430FFF7CFFEE3687C
:105C3000083B172B0CD9A36893ED068B606802F024
:105C4000D7FEB0EE480AF0EE680ABDEC028B10BD3C
:105C50009FED018BF2E700BF000000000000000094
:105C6000F8B50446043057EC106BFFF7AFFEE3685D
:105C7000083B172B0CD9A5683046D5E906233946D1
:105C800007F09CFD20B9C5E90667204602F008FE32
:105C90006068BDE8F84002F0ABBE38B50446043099
:105CA0000D46FFF793FEE3686068013BAB4226BFF9
:105CB000A3685D5D002502F09BFE284638BD08B54F
:105CC0001021FFF7EAFF08BD08B51721FFF7E5FF30
:105CD00008BD08B52221FFF7E0FF08BD08B5302157
:105CE000FFF7DBFF08BD08B51021FFF7D6FF08BDA1
:105CF00008B52021FFF7D1FF08BD08B53221FFF715
:105D0000CCFF08BD08B53321FFF7C7FF08BD70B54C
:105D1000044604300D461646FFF758FEE368013B83
:105D2000AB4207D3A3685A5DB24203D05E5520460A
:105D300002F0B6FD6068BDE8704002F059BE08B5DB
:105D40000A461021FFF7E3FF08BD08B50A461221F5
:105D5000FFF7DDFF08BD08B50A461721FFF7D7FF9B
:105D600008BD08B50A462221FFF7D1FF08BD08B5D6
:105D70000A463021FFF7CBFF08BD08B50A461021BF
:105D8000FFF7C5FF08BD08B50A462021FFF7BFFF92
:105D900008BD08B50A463221FFF7B9FF08BD08B5AE
:105DA0000A463321FFF7B3FF08BD38B50446043077
:105DB0000D46FFF70BFEE3686068023BAB4226BF6F
:105DC000A3685D5B002502F013FE284638BD08B5C8
:105DD0001421FFF7EAFF08BD08B52021FFF7E5FF12
:105DE00008BD000010B502F067FD044670B1FFF772
:105DF00047FEFFF7F1FF58B9FFF742FEFFF7ECFF50
:105E0000154902461548FEF72DFA0024144A18E0F9
:105E1000FFF736FEFFF7E0FF3C28EDD8FFF730FE36
:105E2000FFF74DFF30B9FFF72BFEFFF748FF0D4995
:105E30000246E7E7FFF724FEFFF741FF0B28F2D801
:105E4000094A0A490548FEF70DFAFFF719FE002135
:105E5000FFF787FF204610BD10E80B0054E6032033
:105E6000E7E60B0035E80B00C8E70B0054E80B0031
:105E700008B54021FFF799FF08BD000010B502F0FA
:105E80001BFD0446A0B1FFF787FEFFF7F1FFFFF708
:105E900083FEFFF7EDFFB0F5806F10D9FFF77CFEB2
:105EA000FFF7E6FF074902460748FEF7DBF9002443
:105EB000064A07490448FEF7D5F9204610BD054AB1
:105EC000F7E700BF69E80B0054E60320E7E60B00A4
:105ED0008FE80B00C8E70B0008B54221FFF765FF0C
:105EE00008BD70B5044604300D461646FFF76EFD3A
:105EF000E368023BAB4207D3A3685A5BB24203D0CC
:105F00005E53204602F0CCFC6068BDE8704002F0B1
:105F10006FBD08B50A461421FFF7E3FF08BD08B5B9
:105F20000A462021FFF7DDFF08BD08B50A464021DB
:105F3000FFF7D7FF08BD08B50A464221FFF7D1FF9A
:105F400008BDF8B5044604300D46FFF73FFDE36891
:105F50006068083BAB4223BFA1684919D1E90067DB
:105F6000002638BF002702F043FD30463946F8BD11
:105F700008B51821FFF7E5FF08BDF8B50446043061
:105F80000D461E461746FFF721FDE368083BAB426E
:105F90000CD3A3685A1958595168B14208BFB84286
:105FA00004D05F512046566002F07AFC6068BDE87C
:105FB000F84002F01DBD08B51821FFF7DEFF08BD4F
:105FC00008B52821FFF7D9FF08BD000010B5044629
:105FD00002F0D8FC1B481C49FEF744F91B4919483C
:105FE000FEF740F9FFF74CFD0B21FFF7A8FEFFF786
:105FF00047FD0121FFF7A9FEFFF742FD46F6E1311B
:10600000FFF787FFFFF73CFD0021FFF7A4FEFFF736
:1060100037FD3C21FFF783FFFFF732FD0121FFF73A
:10602000A0FEFFF72DFD00220023FFF7C9FFFFF7B9
:1060300027FD0121FFF777FD2046BDE8104002F063
:106040002FBC00BF54E60320A2E80B00B3E80B000E
:1060500008B53821FFF791FF08BD10B5FFF79CFD8B
:106060000021FFF768FFFFF797FD0021FFF75DFFB5
:10607000FFF792FD044605F0F4FB0246C3172046E5
:10608000FFF7E6FFFFF7FCFC0021FFF764FEFFF7D8
:1060900083FD0021FFF77DFEFFF77EFDBDE8104088
:1060A0000021FFF77CBE000010B5044602F06AFC38
:1060B00005490648FEF7D6F82046FFF7CEFF2046F2
:1060C000BDE8104002F0ECBBCBE80B0054E6032027
:1060D00010B505F037FE054C014600234FF4005281
:1060E000204600F0DDFF024B236010BDB8E3032023
:1060F000ECE80B0008B513491348FEF7B3F802218A
:10610000042005F095FD0021082005F091FD0121F6
:10611000072005F08DFD0021122005F089FD0121E9
:10612000112005F085FD0121102005F081FD0021E1
:10613000102005F08EFD0021112005F08AFD0120C0
:1061400008BD00BF58E90B0054E6032010B51849FC
:10615000184890B02024FEF785F8224600216846B2
:1061600007F086FC224600210DEB04008DF8054067
:1061700007F07EFC00210DEB04008DF8254002F0B5
:10618000CFFE41F2D833ADF806300B4B029341F20B
:106190007003ADF80C30009B002143F40073684697
:1061A000009302F0BDFE003818BF012010B010BDF2
:1061B00071E90B0054E603208403840310B50368DF
:1061C0002F2B044604D9074A07490A2002F008FE8B
:1061D00023681F2B83BF03F01F03044823604FF085
:1061E000A04010BD318A0B0015EA0B0000030050DF
:1061F00007EE900A9FED097AF8EEE77A67EE877A64
:106200009FED077A87EE870ADFED067A70EE677AF0
:10621000B2EE040A87EE800A704700BF00404E4588
:1062200000F07F450000FA4313B5012101A804F0F6
:1062300016FDFFF7B1FCFFF756FDFFF7ADFCFFF7CA
:1062400052FD252801A80DD904F09CFDFFF7A4FC00
:106250000121FFF798FD002401A804F00FFD20465E
:1062600002B010BD04F073FD0124F5E730B51B4DFD
:106270000FCD9BB010AC0FC40FCD0FC495E8030039
:1062800084E80300164908A802F0EAFF08A803F012
:106290002AF8044608A803F05FF808A810EE105A80
:1062A00003F08AF81AAB10EE100A03EB840406F030
:1062B000C5FFCDE90201284606F0C0FFCDE9000187
:1062C000102154F8283C074A0DEB010002F0FEFEB5
:1062D000054804A9FDF7C6FF1BB030BD98EA0B00C6
:1062E00010E6032039EA0B0054E60320F0B54F4EC8
:1062F0004F4C3378BFF35B8F13F0010F85B009D19A
:106300003046FDF7DBFE28B102F0C2FB20603046CC
:10631000FDF7D9FE474B1D8823682D015B5D5F01AA
:106320003378BFF35B8FD90709D44048FDF7C6FE29
:1063300028B102F0ADFB20603C48FDF7C4FE2368A5
:106340002B4403A85B7803F01F033B430393FFF741
:1063500035FF039A01239340C0F80835FFF71CFC72
:10636000074605F07EFA0246C3173846FFF770FE6F
:10637000FFF712FC0746FFF70FFCFFF779FD01302E
:1063800081B23846FFF7D1FDFFF706FC0746FFF75D
:1063900003FCFFF7A1FD013081B23846FFF7CBFDCA
:1063A000FFF7FAFBFFF764FD0190FFF7F5FBFFF73E
:1063B00093FD019A204903462048FDF753FFC8206A
:1063C00002F0E0FE3378BFF35B8FDA0709D4174899
:1063D000FDF774FE28B102F05BFB20601348FDF767
:1063E00072FE23685B5D5F013378BFF35B8FDB0771
:1063F00009D40E48FDF762FE28B102F049FB206087
:106400000A48FDF760FE23681D4403A86B7803F07B
:106410001F033B430393FFF7D1FE039B012202FAC4
:1064200003F3C0F80C35104605B0F0BDC8E30320F7
:10643000CCE303208CE90B0052EA0B0054E6032066
:1064400030B585B00D4600226946009202F00AFD83
:1064500090B9009C0CB1236923B9084A08490A2065
:1064600002F0BEFC0C23CDE901350423039301AAFD
:10647000236901212046984705B030BD318A0B00C1
:106480006FEA0B0013B5FFF787FB01A9044607204D
:10649000FFF7D6FF011EA8BF01992046C9B2FFF73A
:1064A00072FC184803F052F84FF4FA7002F06AFEDA
:1064B000FFF772FB01A904460320FFF7C1FFE8B90B
:1064C000BDF8043007EE903AFBEECC7A17EE900A56
:1064D00006F0B4FE41EC100B2046FFF7C1FBFFF7BE
:1064E0005BFBFFF79DFB084B51EC100B002207F004
:1064F0008DF9003818BF012002B010BDFFEE007A00
:10650000E4E700BFD0E3032000004E4013B5FFF7DF
:1065100043FB0F4B0446188805F0C7FBFFF768FEE6
:10652000FDEEC07A2046CDED017A9DF80410FFF70C
:1065300024FCFFF7A7FFFFF777FEFFF7A1FAFFF7AD
:10654000BEFB08B9FFF792FE012002B010BD00BFEC
:106550009AE90B000148002102F0B4BFD0E3032008
:10656000704710B520210446FDF799FD204610BD67
:1065700010B504468AB008464FF0200C0021CDE942
:106580000023CDE902C10B4602AA216802F038FCC3
:106590000AB010BD0EB403B503AB322153F8042B7F
:1065A0000193FFF7E5FF02B05DF804EB03B070471D
:1065B0000EB403B503AB012153F8042B0193FFF78D
:1065C000D7FF02B05DF804EB03B0704710B502725C
:1065D000FF2242810022C0E9032242610276C261A9
:1065E000024A034C1060C0E9004110BDDCE3032007
:1065F00010ED0B002DE9F8439DF8208004468946F4
:1066000016461F46B8F1000F02D0406803F044F868
:10661000217A606803F01DF86068036849469B684A
:1066200098476068002103F033F8054600BB01235A
:10663000217A60683A4602F0FAFF8742034609D1A0
:106640003744BE421CD0606803685B69984706F80F
:10665000010BF6E70B490C484A46FFF79BFFB8F1E0
:10666000000F02D0606803F020F82846BDE8F883E8
:106670000346064904484A46FFF78CFF0025EEE72B
:106680000125ECE7C0EA0B00D8E30320E5EA0B00A4
:1066900007B500930123FFF7ADFF03B05DF804FBDE
:1066A00073B54389FF2B044610D0194E194D02F0E3
:1066B000C7F9B0F57A7F09D2608905F0E3FA0128BD
:1066C00004D031462846FDF7CDFDF0E701230DF15A
:1066D000070228212046FFF7DBFF30B90D480E499D
:1066E000FDF7C0FD002002B070BD9DF80730182BEB
:1066F000F4D101230DF1070229212046FFF7C8FF3D
:106700000028EBD09DF80730052BE7D1EBE700BF61
:1067100009EB0B00D8E303201EEB0B0007B5134673
:1067200000228DF807200DF10702FFF7B1FF9DF859
:10673000070003B05DF804FB2DE9F0419DF81880D7
:1067400004460F4615461E46B8F1000F02D04068B9
:1067500002F0A2FF217A606802F07BFF60680368A4
:1067600039469B6898472E44B542606805D0036857
:1067700015F8011B9B689847F6E7012102F088FF96
:10678000034670B1084909483A46FFF703FF002560
:10679000B8F1000F02D0606802F087FF2846BDE81C
:1067A000F0810125F4E700BF2BEB0B00D8E30320B9
:1067B0001FB58DF80F2000930DF10F020123FFF795
:1067C000BBFF05B05DF804FBF8B50A460C4605466C
:1067D0001A491B48FDF746FD002CB8BFEC687CB990
:1067E000012322461B212846FFF7E2FF15490246F6
:1067F00006461348FFF7DCFEEC606C613046F8BDDE
:10680000032C19DDA7101F2FA8BF1F27BA0062F0A5
:106810007C020123D2B21B212846FFF7C9FF3A466A
:106820000346094906460648FFF7C2FE4FF4FA63DD
:106830005F43EC606F61E1E70127E7E750EB0B0096
:10684000D8E303205AEB0B0076EB0B00064B1A68DB
:106850004AB1A0F500630B4305D1D3681BB10021F9
:106860001046FFF7B1BF7047DCE303202DE9FF417D
:106870009DF82880054616461F46B8F1000F04D043
:106880004068019102F008FF0199019100230DF188
:106890000F022846FFF7FCFE044660B19DF80F305A
:1068A00003EA06023A43934205D0019900232846A1
:1068B000FFF77EFF0446B8F1000F02D0686802F0CF
:1068C000F4FE204604B0BDE8F08113B514460DF186
:1068D0000702FFF7DDFE28B19DF807301C420CBF10
:1068E0000120002002B010BD13B514460DF10702BF
:1068F000FFF7CEFE28B19DF807301C4214BF0120DF
:10690000002002B010BD07B5D2430093D2B20023DD
:10691000FFF7ACFF03B05DF804FB000037B50123BF
:106920000DF107020F210446FFF7B2FE054638B904
:106930001E491F48AD22FFF72DFE284603B030BD8B
:106940009DF8073013F0200F4FF001030BD02022E9
:10695000E3610F212046FFF7D6FF164A1649144877
:10696000FDF780FCE9E7082217212046FFF7BCFF6E
:1069700018B10223114AE361F0E79DF807301A07C6
:1069800009D50323E361082201230F212046FFF7E5
:10699000BAFF0B4AE2E75B07CFD50422E26101238D
:1069A0000F212046FFF7AFFF064AD7E7C9EB0B00E0
:1069B000D8E303209AEB0B00E8EB0B00A3EB0B00F2
:1069C000B3EB0B00C3EB0B0007B500931346FF229C
:1069D000FFF74CFF03B05DF804FB0000F8B50F466D
:1069E0001646012300220F210546FFF7E1FE04466B
:1069F00038B94FF425721F491F48FFF7CBFD2046D9
:106A0000F8BD0123232218212846FFF7D1FE0446B2
:106A100010B940F29B22EEE7FF2FA8BFFF27012FFE
:106A2000B8BF01270123FAB219212846FFF7C0FE9B
:106A3000044610B94FF42A72DDE70123082212211F
:106A40002846FFF7C1FF044610B940F2AF22D2E753
:106A5000002E14BF03220222012342F080021821DB
:106A60002846FFF7A5FE04460028C8D140F2B92207
:106A7000C1E700BFF9EB0B00D8E303202DE9F74392
:106A80000A4605460F464F484F49FDF7EBFB0021EC
:106A90002846FFF799FE044648B940F2F7124B49E1
:106AA0004848FFF777FD204603B0BDE8F083012397
:106AB0001A4630212846FFF787FF044610B940F2F6
:106AC0000522ECE71022012311462846FFF71BFFA1
:106AD000044610B94FF40372E1E701232622132183
:106AE0002846FFF765FE044610B940F21322D6E7A8
:106AF000012600963346FC2211212846FFF7B6FEF8
:106B0000044610B940F21B22C9E700223946284644
:106B1000FFF764FF044610B940F22222BFE7009657
:106B20000223772210212846FFF7A0FE044610B961
:106B300040F22B22B3E7334604221C212846FFF7FC
:106B400043FF044610B940F23222A8E7009618230A
:106B5000E32211212846FFF789FE044610B940F2CE
:106B600039229CE73346C02217212846FFF720FE32
:106B7000044610B94FF4107291E701F061FFDFF89D
:106B80005490DFF840804FF47A7106464F4301F08D
:106B900057FF801BB8420ED2012217212846FFF76B
:106BA000BDFD494602464046FDF75CFB4FF47A7056
:106BB00002F0E8FAEBE706490248FFF7EBFC04F0C5
:106BC0006EFC70E7D8E3032024EC0B0019EC0B00FB
:106BD0004AEC0B0035EC0B002DE9F3479DF828A09B
:106BE00005460C4691461F46BAF1000F02D0406898
:106BF00002F052FD07B3202F3E4628BF20267F2CEF
:106C000026D83319802B01D9C4F180060123042230
:106C10003F212846FFF777FE002364F07F010093B1
:106C20004A463346C9B22846FFF7E4FC804628B1FD
:106C30003444BF1BB144DDE74FF00108BAF1000F47
:106C400002D0686802F031FD404602B0BDE8F0872E
:106C5000012304223F212846FFF7B6FEDCE72DE999
:106C6000F3479DF828A005460C4691461F46BAF109
:106C7000000F02D0406802F00FFD07B31F2F3E4601
:106C800028BF1F267F2C26D83319802B01D9C4F1A9
:106C90008006012304223F212846FFF734FE00230B
:106CA00064F07F0100934A463346C9B22846FFF795
:106CB00043FD804628B13444BF1BB144DDE74FF0AB
:106CC0000108BAF1000F02D0686802F0EEFC4046FD
:106CD00002B0BDE8F087012304223F212846FFF7D8
:106CE00073FEDCE730B585B00D68D1E90432039559
:106CF0004D6802958D680195C9680091013304497A
:106D000002F26C72044604F063FB204605B030BD0D
:106D10005CEC0B0003090A2200F00F0002FB0300E9
:106D2000704738B5044600781546FFF7F3FF086052
:106D30006078FFF7EFFF4860A078FFF7EBFF88600F
:106D4000E078FFF7E7FFC8602079FFF7E3FF01383D
:106D500008612DB9651D2878FFF7DCFF886138BD13
:106D60006079FFF7D7FF6430A51D4861F3E70000A5
:106D700070B5012388B00D461A4610210446FFF76E
:106D8000A4FDF0B108230126204600960DEB030276
:106D90000021FFF72FFC044698B1324629460DF139
:106DA0000900FFF7BEFF04A8FFF79CFF0848049AFC
:106DB0000849FDF757FA04A804F042FA204608B043
:106DC00070BD24220021284606F052FE0024F5E77B
:106DD000D8E303207AEC0B0030B58BB00D4601A947
:106DE000FFF7C6FF044620B101A802F0B7F9C5E9D4
:106DF000000120460BB030BD0A2390FBF3F103FBEA
:106E0000110091FBF3F203FB121240EA0210C0B230
:106E1000704770B5054600680C461646FFF7ECFF54
:106E200020706868FFF7E8FF6070A868FFF7E4FF6C
:106E3000A070E868FFF7E0FFE07028690130FFF715
:106E4000DBFF20712EB9661DA869FFF7D5FF3070F2
:106E500070BD6A69642392FBF3F003FB1020FFF717
:106E6000CBFFA61D6071EFE7F0B587B0054602A81D
:106E700016460C46FFF736FF1E48029A1E49FDF7DC
:106E8000F1F902A804F0DCF916B1686802F004FC1C
:106E9000204601220DF1090100278DF80870FFF747
:106EA000B8FF01231A4610212846FFF78DFD04463E
:106EB000E8B1082300970DEB030239462846FFF797
:106EC0003BFC044660B101231A4610212846FFF717
:106ED0001AFD16B1686802F0E8FB204607B0F0BD65
:106EE0004FF48D7205490348FFF754FBF1E74FF467
:106EF0008F72F7E7D8E3032088EC0B0096EC0B00C9
:106F000013B504466846CDE9002306F063FD9DF8FD
:106F1000102001462046FFF7A7FF02B010BD000079
:106F2000F0B5057E89B0044675BB04F07DFC58B30E
:106F30000026002704A92846CDE9046702F036F8A8
:106F400010B30125257604F08CFCC317CDE90203AC
:106F5000024600952046FFF7D3FF02A92046CDE95F
:106F60000267FFF739FF134B13491B68009304A80E
:106F7000DDE9022304F016FC1048049A1049FDF7DD
:106F800071F904A804F05CF963698BB101F058FD54
:106F90002369C01A636998420AD301F051FD4FF08A
:106FA000FF312061204609B0BDE8F040FFF70CBC7E
:106FB00009B0F0BDC8DE0320ACE60320D8E303200F
:106FC000B1EC0B0030B504468BB011B1406802F053
:106FD00011FB2046FFF764FB06AD002837D02046A2
:106FE000FFF79CFC01231A4610212046FFF76DFC99
:106FF000D8B104F019FCC0B902A92046FFF7ECFE95
:10700000DDE9020104F015FB134B14491B680093E2
:107010002846DDE9022304F0C5FB1148069A114910
:10702000FDF720F9284604F00BF90F4B06930F4BA0
:1070300009930F4B08934FF40062002302A80095B8
:10704000FDF73AFD2846FDF7C3F80BB030BD0949FE
:107050000348FFF79FFAE8E7C8DE0320ACE6032009
:10706000D8E30320C7EC0B004D680B007F410B00F9
:107070006B410B00E4EC0B00014B024A1A607047B5
:10708000D8E30320FCEC0B00704710B51021044638
:10709000FDF705F8204610BD0368C9B29B68184784
:1070A00030B5034DC0E90223C0E9005130BD00BF37
:1070B00028ED0B00406802F09DBA10B50446006848
:1070C00002F0F3FA204610BD2DE9F743044640686C
:1070D00001900D4616461F4602F0DEFAA7B1E168A0
:1070E000606841F0500102F0B8FA290A6068FFF7C1
:1070F000D3FF29466068FFF7CFFF6068002102F0E8
:10710000C7FA48B1002400E0012401A8FFF7D5FF29
:10711000204603B0BDE8F083202F217B6068B8468D
:1071200028BF4FF020080123424641F0500102F0F1
:107130007EFA04F007FE03681B6998474045E1DBCF
:1071400006EB080904F0FEFD03685B69984706F842
:10715000010B4E45F6D14544A7EB0807BEE72DE9E4
:10716000F74F0446406801900E4690461D4602F0D7
:1071700093FA4FF00109B9F1000F2AD04DB3E1683D
:10718000606841F0500102F068FA310A6068FFF768
:1071900083FF60683146FFF77FFFA5F11E0A47466F
:1071A000A6EB080B606817F8011B0368013D9B689C
:1071B000984755450BEB0706B84601D0002DF1D195
:1071C0006068012102F064FA0028D7D04FF000096E
:1071D000D1E701A8FFF771FF484603B0BDE8F08F83
:1071E0002DE9F0438BB00E4615468046406801906D
:1071F0001C4602F051FAAE4229D2264425448CB1F5
:107200001E2C2746D8F8003028BF1E27F61BD3F8BF
:10721000089002AA3B4631464046ED1BC84748B994
:10722000002400E0012401A8FFF747FF20460BB02F
:10723000BDE8F083D8F8003002AAD3F80C902946B4
:107240003B464046C8470028EAD0E41BD7E7E9D9C7
:10725000002CE7D0D8F800301E2C274628BF1E2768
:10726000D3F8089002AA3B4631464046C84700285A
:10727000D6D0D8F8003002AAD3F80C9029463B4665
:107280004046C8470028CBD03E443D44E41BDFE7DE
:1072900001600271704700680368DB681847006886
:1072A00003681B6A1847006803689B6A18470079DF
:1072B0007047006803689B6B184737B505460C4656
:1072C00019460192FFF7F5FF2868019A03685B6988
:1072D000214603B0BDE83040184700680368DB6B07
:1072E000184738B50446006803680D465B6B98473D
:1072F00029462046FFF7F1FF257138BD38B5044611
:10730000006803689B689847054618B121792046B4
:10731000FFF7E7FF284638BD006803681B6C184775
:10732000006803685B6C184700680368DB6C1847EB
:10733000006803681B6D1847006803685B6D184799
:10734000006803689B6D18472DE9F8430446006800
:107350000A9F1E4603681B69DDE9089898470546A1
:10736000C8B11EB12046FFF7E3FF3070B9F1000F3E
:1073700004D02046FFF7D8FF89F80000B8F1000FCD
:1073800004D02046FFF7D8FF88F800001FB1204640
:10739000FFF7D6FF38702846BDE8F8830120704714
:1073A0000379032BFCD001207047002070478171C6
:1073B000704741717047C1727047017370474173E4
:1073C0007047837B23EA0202114381737047C079BF
:1073D0007047007A7047407A7047807A7047008A19
:1073E00000B270470079704701717047408A80B2DF
:1073F0007047808A80B27047C08A80B2704738B5C3
:1074000005460C462B682846DB68984728B9002CAF
:10741000F8D0204601F0B6FEF4E738BDF8B50546D1
:107420000F46144601F00CFB064601F009FB801BD9
:10743000B8420AD22B682846DB68984730B9002C3E
:10744000F3D0204601F09EFEEFE70020F8BD70B5B6
:1074500004460E4601F0F4FA054601F0F1FA401B2D
:10746000B04204D22379032BF7D0012070BD002055
:10747000FCE770B5C3690446B3B101F0E1FA6426D4
:107480000546236820461B6B984768B101F0D8FA7F
:10749000E369401B984209D80A21012003F0F7FD57
:1074A000704301F06FFEECE7012070BD0020FCE7A7
:1074B000064A0260FF210022027141714282C172BC
:1074C000828281818273C282C261704744ED0B0067
:1074D00070477047704770477047417170478171BE
:1074E000704701717047000030B5034D05600171B0
:1074F0004271837130BD00BFC4ED0B00704710B501
:1075000010210446FCF7CBFD204610BD0EB403B598
:1075100003AB002153F8042B019303F07CFD02B070
:107520005DF804EB03B0704773B504460846227952
:10753000A36832B1A3B90B4902B0BDE8704003F0B3
:1075400061BC094A267B094D0949647B012E18BF9D
:107550002946CDE900140749FFF7D8FF02B070BDF6
:10756000054AEFE701EE0B00C9F10B00FDED0B0042
:10757000F9ED0B0017EE0B00F0ED0B0010B5044613
:10758000FFF7B2FF054B2360054BA3600123237374
:1075900000232361A382204610BD00BF50EE0B00E4
:1075A0003CEE0B0013B50B4C2178BFF35B8F11F051
:1075B00001010BD120460191FCF780FD019928B112
:1075C000054803F07DFD2046FCF77DFD024802B032
:1075D00010BD00BFE0E30320E4E3032007B5019101
:1075E000FFF7E0FF019903B05DF804EB03F020BE64
:1075F00008B5FFF7D7FFBDE8084003F01FBE08B588
:10760000FFF7D0FFBDE8084003F019BE10B50379BD
:10761000042B20D0032B20D0022B20D0114A12495A
:10762000012B18BF0A4641798379013918BF01211E
:1076300033B1012B04D0022B02D0032B18BF00233F
:1076400000240473026101754375FFF7ABFFBDE8C9
:10765000104003F03FBD054AE5E7054AE3E7054A68
:10766000E1E700BF80841E0040420F000024F400C8
:1076700000127A0000093D0008B5FFF793FFBDE84E
:10768000084003F03BBD10B50446FFF78BFF04F143
:107690000801BDE8104003F05DBD08B5FFF782FFAB
:1076A000BDE8084003F03CBD08B5FFF77BFF08BD0F
:1076B000002302481A461946FFF760BFECE3032097
:1076C000012A05D1007A0B781B1A5842584170479D
:1076D000002070472DE9F047254C012386B0237028
:1076E000637000230F46A17000930322FF232146FD
:1076F000064600F0B7FB20B10025284606B0BDE8DD
:10770000F087FA238DF8173001F09AF906F1040991
:10771000804608F57A6501F093F9291A0029EBDD16
:10772000002289B24846FFF7BEFD0028F3D00023AF
:10773000CDE90233CDE900330DF117022146304681
:1077400000F09AFB05460028E3D09DF81730012B86
:10775000DFD994F800A0BAF1020FDAD14846FFF75A
:10776000E7FD534602463946304600F0F3FAC4E7D7
:1077700004E40320012A2DE9F34107460E4614468E
:107780003BD94D79022D30D100F10408C97901911E
:107790004046FFF7CDFD083C2B460246019938468E
:1077A00000F0D8FAE5B206F108030024224695421B
:1077B00004F10104E4B204D913F8012B397A91429F
:1077C000F4D104F108010E44A54216D916F8011BA4
:1077D00001914046FFF7ACFD0134024601990223B6
:1077E0003846E4B200F0B6FAEEE7032D05D1897908
:1077F00002B0BDE8F04100F096BA02B0BDE8F081F9
:1078000010B5044600F0E6FA014B2360204610BD97
:1078100084EE0B002DE9F047F92A9DF820900646EA
:107820000F4614461D4625D8FF2B14D1DFF848809B
:10783000404600232246394600F8013B06F0F0F8A6
:10784000621CCDF820902B4641463046D2B2BDE8AE
:10785000F04700F007BB194600F021FA0028E5D1F7
:10786000336829469B68304698470028DED10220BD
:10787000BDE8F0870120FBE704E403202DE9F04F89
:1078800089B09846FA238DF81A300DF11F0303933F
:107890000DF11E0302935D4E0DF11D03019307AB25
:1078A0000093894617460DF11B030DF11A0231466C
:1078B000DDE912BA054600F0DFFA044620B90024DB
:1078C000204609B0BDE8F08F9DF81A3073B33278C6
:1078D00062BBB8F1000F03D09DF81B2088F8002090
:1078E000BBF1000F03D09DF81C208BF80020BAF1EB
:1078F000000F03D09DF81D208AF80020149A1AB1B9
:1079000014999DF81E200A70159A1AB115999DF8C0
:107910001F200A703A783E49013BDBB29A4288BF89
:107920003B703A78484606F07BF8C9E79DF81C2082
:10793000FF2AC4D1012BC2D93278012ABFD12A7AB9
:107940009DF81B40A242BAD0DF1E3249FFB200238D
:107950005FFA83F8474506D911F8010B824203F11B
:107960000103F5D1ABE705F104094846FFF7E0FC58
:10797000022302462146284600F0ECF995F817311B
:1079800093B1224CA31BDBB29F420CD9E178059145
:107990004846FFF7CDFC059902460223284600F031
:1079A000D9F90134EEE7B8462B687278DB681A49DA
:1079B00028469847044660B10223002433709DF89E
:1079C0001A209DF81B3011490094284600F04AFA0D
:1079D00076E795F8163143457FF671AF95F8173184
:1079E000002B3FF46CAF9DF81A202B7A07493E44D8
:1079F0000132F3709DF81B300190D2B200932846FB
:107A0000FF238DF81A2000F0F7F959E704E403206A
:107A100005E4032007E4032006E40320F0B585B065
:107A2000054604300E460392FFF782FC039A074690
:107A30003146284600F04AF90228044601D00528BC
:107A40001BD13178284600F06EF972782B7A9A4271
:107A500013D00B4C032323703378637071780223A7
:107A60003A46284600F076F90023009321467378C1
:107A70000222284600F0F6F90446204605B0F0BD83
:107A800004E4032010B50446FFF702FCC8230021DC
:107A9000E3810323A160217323744FF4807204F106
:107AA000110005F0E5FF204610BD1FB50446019208
:107AB000FFF732FC204600228021FFF731FC212213
:107AC000019B8DF80F200DF10F0101222046FFF7D9
:107AD000F4FB2046FFF7E3FB04B010BD2DE9F04FA7
:107AE000057B0135EDB287B004468946924698463B
:107AF00005730027227C3B469A4207F10107FFB23B
:107B00006BD329462046FFF707FC012F0DBFC0228B
:107B10008022402100212046FFF702FC43465246C6
:107B200049462046FFF7C9FB2046FFF7B8FBB8F1EE
:107B3000FF0F54D0012F82BFA3680133A36000F070
:107B40007FFF4FF4807183460020E68903F09FFA9F
:107B5000704348BFFF3006EB20261BFA86F600F084
:107B60006FFF301A0028C5DD81B200222046FFF7E2
:107B70009AFB0028F3D00DF1170302930DF11603C1
:107B8000019300220DF115030093114605AB204629
:107B9000FFF7DAFB0028E2D09DF814209DF917309A
:107BA00042450ED194F804C09DF815108C4508D1BB
:107BB000002B08DA9DF81630AB42D0D107B0BDE8F3
:107BC000F08F002BCBDBA1189DF81630497C994231
:107BD000C5D12046FFF769FFC1E70020EEE701208D
:107BE000ECE72DE9F04389B0CDE90421DDE91098F7
:107BF000129F04461E46FFF74EFBDDE9042120B923
:107C00000025284609B0BDE8F0830DF11F0302935B
:107C10000DF11E0301930DF11D030093204607ABE8
:107C2000FFF792FB05460028EAD09DF91F30002B94
:107C3000E6DB22799DF81D309A4206D19DF81C2082
:107C40009DF81E102046FFF730FF9DF81F209DF87D
:107C50001C109DF81E3012F0400F0C4402D0607CC6
:107C60009842CDD006B13170B9F1000F03D09DF824
:107C70001D1089F80010B8F1000F01D088F800300D
:107C800007B13A706374BCE7704710B5044604301E
:107C9000FFF734FB10B11E2384F8163110BD10B568
:107CA0000246002392F818418C4208D192F81A41FA
:107CB0002CB103EB430303F58C73184410BD01335F
:107CC000322B02F10302EDD10020F7E737B50B7834
:107CD000FF2B05460C4606D019460192FFF7DFFF41
:107CE00058B14378019A2146281DFFF7F7FE002876
:107CF00014BF0020052003B030BD0220FBE710B503
:107D000001EB41030446C1F1310203F58C7003F22B
:107D10001B1102EB42022144204405F081FE0023A6
:107D200084F8AD3110BD38B50A46002300F58C74D7
:107D300003EB4305D9B2655D954203D1FFF7DFFF41
:107D4000012038BD0133322BF2D10020F9E70021A8
:107D5000FFF7D5BFF8B516461F4604460D4600236B
:107D600000F58C7203EB4300115CA94205D120445D
:107D700080F8196180F81A71F8BD0133322BF1D106
:107D8000002304F58D7203EB4300115C19B9204404
:107D900080F81851ECE70133322BF4D12046FFF77D
:107DA000D6FF204604F1960390F81A212AB980F8EC
:107DB000185180F8196180F81A7103309842F3D194
:107DC000DAE700F19603002280F81A210330984286
:107DD000FAD1704710B504460430FFF753FE054B47
:107DE00023604FF48F732046A4F81631FFF7E9FFA4
:107DF000204610BD9CEE0B002DE9F3470446406879
:107E000001911F4603689DF828A09B699DF82C905E
:107E10001646984706F1050880451CD8104D019973
:107E200085F801A00023AB7094F81531EB705A1C53
:107E300084F81521681D32462F7085F8049005F0EE
:107E4000EFFD23685B685FFA88F22946204602B09E
:107E5000BDE8F0471847012002B0BDE8F08700BF39
:107E6000FEE4032013B59DF810400194047A0094B9
:107E7000FFF7C2FF02B010BD2DE9F04F87B01F46DB
:107E8000FF238DF813300DF117030293DFF8D09024
:107E90000DF1160301930DF1150300930446884676
:107EA000164605AB0DF1130249460430DDE910BA60
:107EB000FFF797FE054608B9002538E023689DF8CE
:107EC00013201B6849462046984799F80030227ACB
:107ED0009A4201D0FF2B2ED117B1214B5B783B701A
:107EE000BBF1000F03D01E4B1B788BF80030BAF1AA
:107EF000000F03D01A4BDB788AF80030129B1BB1BD
:107F0000174B129A1B791370139B1BB1144B139AC6
:107F10009B7813709DF8133032781249053BDBB221
:107F20009A4288BF33703278404605F079FD284682
:107F300007B0BDE8F08F99F802305A1C89F802208A
:107F400094F816219A42B7D994F81731002BB3D080
:107F500023689DF813205B68494620469847ABE7A5
:107F6000FEE4032003E5032010B50446006A03681D
:107F7000DB68984794F82400FF2802D0012103F021
:107F800057FE23682046DB6F9847642001F0FAF81B
:107F9000012010BD90F82400002103F05ABE90F893
:107FA0002400012103F055BE70B504460D46164667
:107FB000FFF77EFA034B2360266284F824502046A4
:107FC00070BD00BFACEE0B0038B50446006A036814
:107FD0001B6A0D469847236820469B6F9847206A86
:107FE000036805F07F011B689847206A0368002139
:107FF0001B68984723680546DB6F20469847206A30
:1080000003685B6A9847284638BD70B50446006A25
:1080100003681B6A16460D469847236820469B6FE7
:108020009847206A036845F080011B689847054619
:10803000206A036831461B689847012000F0F8FC6D
:1080400023682046DB6F9847206A03685B6A98477D
:10805000284670BDF8B50446006A1E4603681B6AD0
:108060000F4615469847236820469B6F9847206A1D
:10807000036807F07F011B6898472E440746B54206
:1080800007D0206A036800211B68984705F8010B98
:10809000F5E723682046DB6F9847206A03685B6A30
:1080A00098473846F8BDF8B50446006A1E4603688E
:1080B0001B6A0F4615469847236820469B6F9847D2
:1080C000206A036847F080011B6898472E440746E2
:1080D000B54206D0206A15F8011B03681B68984753
:1080E000F6E723682046DB6F9847206A03685B6ADF
:1080F00098473846F8BD006A03689B6A1847012014
:108100007047FB207047704710B50379052B044674
:1081100010D003680521D3F8803098470722012149
:108120002046FFF772FF802240212046FFF76DFFB7
:10813000052323712379052BFCD0207E10BD10B5BB
:108140004FF498710446FBF7AAFF204610BD10B506
:108150000379012B04460BD003680121D3F880304A
:108160009847002201212046FFF74FFF012323718A
:10817000012010BDF8B50368DB6804460F461546BC
:1081800098470646B0B187B17DB194F828302A7877
:10819000033B9342DEBF94F82830043B2B702A78CF
:1081A00004F12D01384605F03BFC002384F828310A
:1081B00084F828303046F8BD142938B505460C46F9
:1081C00014DC012914DD112913DD07224D21284675
:1081D000FFF71BFF033C64B2A21E62F07F02284639
:1081E000D2B2BDE838400921FFF70FBF1424ECE7F5
:1081F000022404224D212846FFF707FFECE7000088
:1082000038B5044615461A46FFF7CEFE094B2360E3
:10821000FF22002384F82720012284F8283184F8E3
:108220002C3184F8265084F82B2184F82530204600
:1082300038BD00BF44EF0B0090F82830032B1BD94A
:1082400090F82930C37190F82A30037290F82B30DF
:10825000437290F82C308372837933B9C3794279B1
:108260009A4202D0C379FF2B06D1838A01339BB295
:108270008382012380F8283170470000000000004D
:1082800038B504462DED028B10EE100AB0EE408A90
:1082900004F0D4FF17A3D3E9002305F027F817A3B0
:1082A000D3E9002305F04CF905F0F8FA062105465C
:1082B000C0F307422046FFF7A8FEC5F307220721B7
:1082C0002046FFF7A2FEEAB208212046FFF79DFEF6
:1082D000DFED077AB4EEE78ABDEC028BF1EE10FA1F
:1082E000ACBF01230023012084F8293138BD00BF31
:1082F00000C042440000000080842E4100000000C5
:1083000080844E4010B50379022B04460BD00368DD
:108310000221D3F880309847012211462046FFF70A
:1083200074FE0223237110BD70B512210446FFF7BD
:108330004BFE1C2105462046FFF746FEFF2206465F
:1083400012212046FFF761FE2379042B07D115F097
:10835000A00F17D194F82B310BB1700612D52379E9
:10836000042B01D1690622D42379032B01D12A07DA
:1083700068D42379052B0ED16B070CD505F00105C8
:10838000257663E0638A01339BB26382002384F81D
:10839000283184F82830FF2212212046FFF735FECD
:1083A0002046FF22BDE870401221FFF72EBE1321A8
:1083B0002046FFF709FE102105462046FFF704FE80
:1083C0000D2102462046FFF720FE04F129022B462C
:1083D00000212046FFF73EFE192184F82850204650
:1083E000FFF7F2FD40B20028B8BF0330801084F8D8
:1083F0002A011A212046FFF7E7FD94F92A3100B23D
:10840000002B2082A9BF238A228A1BB21B01B2BF84
:108410009B180F2293FBF2F31BB2238294F82931AD
:108420006BB1238A9D3B1BB223822046FFF704FFDA
:1084300094F82831002BAED0FFF764FFABE7238A16
:10844000A43BF0E7E38A01339BB2E3822046F3E7E3
:10845000024B186808B1FFF767BF704700E60320BA
:10846000024B586808B1FFF75FBF704700E6032072
:10847000024B986808B1FFF757BF704700E603202A
:1084800010B50379042B044610D003680421D3F8F7
:1084900080309847052201212046FFF7B6FD0022D3
:1084A00040212046FFF7B1FD0423237110BD10B514
:1084B0000379032B044605D0FFF7E2FF94F8280167
:1084C000C0B210BD0020FCE710B50379032B0446B1
:1084D00010D003680321D3F880309847032201218C
:1084E0002046FFF792FD402211462046FFF78DFD02
:1084F0000323237110BDFB2AF8B504460F46154629
:1085000002D900263046F8BD03681B6A984720460A
:10851000FFF7F8FE23682046DB6A984706460028E6
:10852000EFD000220D212046FFF76FFDE27A0021F7
:108530002046FFF76AFD227B00212046FFF765FDFC
:10854000627B00212046FFF760FDA27B00212046D0
:10855000FFF75BFD2B463A4600212046FFF7A3FDBF
:108560002A1DD2B222212046FFF74FFD2046FFF7F9
:10857000ABFFC7E710B5044680F8252072B181F340
:10858000040242F07002D2B20921FFF73EFD2046FC
:108590000422BDE810404D21FFF737BDBDE8104073
:1085A000FFF70ABE38B50C4605460A781D21FFF7CD
:1085B0002CFD62781E212846FFF727FDA278284669
:1085C0002621BDE83840FFF720BD0000052913B57E
:1085D0000FD8094B01EB41015C185A5AA378ADF84A
:1085E000042001A98DF80630FFF7DCFF012002B05E
:1085F00010BD0020FBE700BF2CEF0B0038B50A0AC6
:1086000005460C462021FFF700FDE2B22846212155
:10861000BDE83840FFF7F9BC73B50446FFF7A4FC8A
:10862000064618B90026304602B070BD94F82650B0
:10863000FF2D54D029462046FFF75DFD8022012101
:108640002046FFF7E2FC0A2000F09CFD01212046B5
:10865000FFF7BAFC8028E5D194F82600FF281CD04B
:10866000002103F0E5FA94F82730FF2B07D1264AC2
:108670001378032BD6D8591C117084F8273094F83E
:108680002720224B43F8224062BB214900924FF041
:10869000FF330122A8B201F013F800220E21204678
:1086A000FFF7B3FC00220F212046FFF7AEFC204667
:1086B000FFF728FE00212046FFF788FF082120460B
:1086C000FFF79CFF9FED130A2046FFF7D9FD00231B
:1086D00084F825300D212046FFF76EFDA3E74FF00B
:1086E000FF35ABE7012A4FF0000304D100930A499C
:1086F0004FF0FF33CEE7022A94D1009307494FF0A1
:10870000FF330122C6E700BFFDE5032000E603209A
:1087100051840B000000D94361840B0071840B006D
:1087200003685B68184710B58369044633B131B1FB
:10873000236820469B6898470023A36110BD00F082
:108740007FF9A369C01AE3699842F1D2F6E710B540
:10875000C36904461BB100F073F9A06110BD036842
:10876000BDE810409B68184700F042B907B51346B2
:1087700039B10022CDE900220A4601681E2000F02E
:108780004FFB03B05DF804FB37B590F8203004468A
:108790009BB183680A4DDA880A492846FBF762FDD7
:1087A000A1682846CA88FFF7E1FF00230093064A24
:1087B000296801231E2000F02BFB03B030BD00BF51
:1087C00054E60320C8EF0B00C8F10B0010B50446B7
:1087D0000430FDF7FBF82368E1685B6920469847A1
:1087E00018B9236820469B6998476068FFF7BCFF6B
:1087F000012010BDF0B521F00304184F184E194D9B
:108800000444A0420CD050F8043B7B434FEA73432E
:1088100073435A404FEAF24202EB82022A44F0E7E5
:1088200001F0030404440023A04204D014F8015DC5
:1088300045EA0323F8E70948434309484FEA7343ED
:108840004A4058435040084B80EA10405843074B79
:1088500080EA5030584380EA1040F0BD512D9ECC44
:108860009335871B646B54E66BCAEB8535AEB2C299
:10887000F8B504460430FDF7A9F8A36800229F6804
:108880009A60A668054AF1883046FFF7B3FFB760E3
:1088900005466068FFF768FF2846F8BD3F2A1C853B
:1088A00070B504468568FFF7E3FFA860236820469B
:1088B0001B69BDE870401847F7B504460D46FFF741
:1088C000D7FF94F82030064693B1294F29492A460C
:1088D0003846FBF7C7FCA1682A463846FFF746FF33
:1088E00000230093244A396801231E2000F090FAE7
:1088F0000B2D23D9A3682269196891421FD1998849
:10890000A28A91421BD1D988AAB2914217D89A68FB
:10891000B24214D1E268AA4205D900215955E26851
:108920000135AA42FAD8D4E902322046DA80A56895
:10893000FFF79EFFA860012003B0F0BD9DB1A168C4
:108940000A6892B188688B880190C98808480091AC
:108950000A49FDF72DFECDE90056A38A2269084990
:108960000348FDF725FE0020E6E71046E4E700BFD8
:1089700054E60320DCEF0B00C8F10B00F4EF0B0012
:1089800025F00B0038B50446C2688068002105F068
:108990006FF8A36822691A60A368A28A9A80D4E952
:1089A00002322046DA80A568FFF762FFA86038BD72
:1089B00008B5024B1B685B6C019308BD7402030091
:1089C00008B5024B1B685B6C019308BD48020300AD
:1089D00008B5024B1B689B6C019308BD480203005D
:1089E00008B5024B1B68DB6C019308BD480203000D
:1089F00008B5024B1B685B6D019308BD480203007C
:108A000008B5024B1B685B6D019308BD340203007F
:108A100008B5024B1B685B6E019308BD340203006E
:108A200008B5024B1B685B68019308BD1802030080
:108A300008B5024B1B68DB68019308BD18020300F0
:108A400008B5024B1B685B69019308BD180203005F
:108A500008B5024B1B689B6D019308BD180203000B
:108A600008B5024B1B68DB6D019308BD18020300BB
:108A700008B5024B1B685B6E019308BD180203002A
:108A800008B5024B1B689B6E019308BD18020300DA
:108A900008B5024B1B681B68019308BD2C0203003C
:108AA00008B5024B1B685B68019308BD2C020300EC
:108AB00008B5024B1B689B68019308BD2C0203009C
:108AC00008B5024B1B68DB68019308BD2C0203004C
:108AD00008B5024B1B681B69019308BD2C020300FB
:108AE00008B5024B1B685B69019308BD2C020300AB
:108AF00008B5024B1B689B69019308BD2C0203005B
:108B000008B5024B1B68DB69019308BD2C0203000A
:108B100008B5024B1B681B6B019308BD2C020300B8
:108B200008B5024B1B68DB68019308BD28020300EF
:108B300008B5024B1B689B69019308BD280203001E
:108B400008B5024B1B68DB69019308BD28020300CE
:108B500008B5024B1B681B6A019308BD280203007D
:108B600008B5024B1B685B6A019308BD280203002D
:108B700008B5024B1B689B6A019308BD28020300DD
:108B800008B5024B1B68DB6A019308BD280203008D
:108B900008B5024B1B681B6B019308BD280203003C
:108BA00008B5024B1B685B6B019308BD28020300EC
:108BB00008B5024B1B681B6C019308BD280203001B
:108BC00008B5024B1B689B6C019308BD280203008B
:108BD00008B5024B1B68DB6C019308BD280203003B
:108BE00008B5024B1B681B6D019308BD28020300EA
:108BF00008B5024B1B685B69019308BD6402030062
:108C000008B5024B1B689B68019308BD680203000E
:108C100008B5024B1B68DB68019308BD68020300BE
:108C200008B5024B1B681B68019308BD30020300A6
:108C300008B5024B1B685B68019308BD3002030056
:108C400008B5024B1B685B69019308BD3002030045
:108C500008B5024B1B68DB69019308BD30020300B5
:108C600008B5024B1B681B6A019308BD3002030064
:108C700008B5024B1B685B6A019308BD3002030014
:108C800008B5024B1B68DB6B019308BD3002030083
:108C900008B5024B1B681B6C019308BD3002030032
:108CA00008B5024B1B685B6C019308BD30020300E2
:108CB00008B5024B1B689B68019308BD3C0203008A
:108CC00008B5024B1B68DB68019308BD3C0203003A
:108CD00008B5024B1B681B69019308BD3C020300E9
:108CE00008B5024B1B685B69019308BD3C02030099
:108CF00008B5024B1B689B69019308BD3C02030049
:108D000008B5024B1B68DB69019308BD3C020300F8
:108D100008B5024B1B681B6A019308BD3C020300A7
:108D200008B5024B1B689B6A019308BD3C02030017
:108D300008B5024B1B68DB6A019308BD3C020300C7
:108D400008B5024B1B681B6C019308BD3C02030075
:108D500008B5024B1B681B68019308BD4C02030059
:108D600008B5024B1B685B68019308BD4C02030009
:108D700008B5024B1B689B68019308BD4C020300B9
:108D800008B5024B1B681B69019308BD4C02030028
:108D900008B5024B1B685B69019308BD4C020300D8
:108DA00008B5024B1B689B69019308BD4C02030088
:108DB00008B5024B1B68DB69019308BD4C02030038
:108DC00008B5024B1B681B6A019308BD4C020300E7
:108DD00008B5024B1B689B6A019308BD4C02030057
:108DE00008B5024B1B685B6B019308BD6002030072
:108DF00008B5024B1B681B6D019308BD60020300A0
:108E000008B5024B1B685B6D019308BD600203004F
:108E100008B5024B1B689B6D019308BD60020300FF
:108E200008B5024B1B685B6E019308BD600203002E
:108E300008B5024B1B68DB6E019308BD600203009E
:108E400008B5024B1B681B6F019308BD600203004D
:108E500008B5034B1B68D3F88030019308BD0000B0
:108E60006002030008B5034B1B68D3F898300193E8
:108E700008BD00006002030008B5024B1B681B68B8
:108E8000019308BD2002030008B5024B1B685B6814
:108E9000019308BD2002030008B5024B1B685B6903
:108EA000019308BD2002030008B5024B1B681B6A32
:108EB000019308BD2002030008B5024B1B68DB6A62
:108EC000019308BD2002030008B5024B1B689B6D8F
:108ED000019308BD2002030008B5024B1B68DB6D3F
:108EE000019308BD2002030008B5024B1B68DB6F2D
:108EF000019308BD2002030008B5034B1B68D3F89B
:108F00008830019308BD00002002030008B5034B20
:108F10001B68D3F89430019308BD000020020300C1
:108F200008B5034B1B68D3F8A830019308BD0000B7
:108F30002002030008B5034B1B68D3F8AC30019343
:108F400008BD00002002030008B5034B1B68D3F8DE
:108F5000B030019308BD00002002030008B5024BA9
:108F60001B689B68019308BD4402030008B5024BCF
:108F70001B68DB68019308BD4402030008B5024B7F
:108F80001B685B69019308BD4402030008B5024BEE
:108F90001B68DB69019308BD4402030008B5024B5E
:108FA0001B681B6B019308BD4402030008B5024B0C
:108FB0001B685B6B019308BD4402030008B5024BBC
:108FC0001B68DB6B019308BD4402030008B5024B2C
:108FD0001B685B68019308BD4002030008B5024BA3
:108FE0001B689B68019308BD4002030008B5024B53
:108FF0001B68DB68019308BD4002030008B5024B03
:109000001B681B69019308BD4002030008B5024BB1
:109010001B685B69019308BD4002030008B5024B61
:109020001B689B69019308BD4002030008B5024B11
:109030001B68DB69019308BD4002030008B5024BC1
:109040001B681B6A019308BD4002030008B5024B70
:109050001B681B6B019308BD4002030008B5024B5F
:109060001B685B6B019308BD4002030008B5024B0F
:109070001B681B6C019308BD4002030008B5024B3E
:109080001B685B6C019308BD4002030008B5024BEE
:109090001B681B68019308BD1C02030008B5024B46
:1090A0001B685B68019308BD1C02030008B5024BF6
:1090B0001B689B68019308BD1C02030008B5024BA6
:1090C0001B681B69019308BD1C02030008B5024B15
:1090D0001B68DB69019308BD1C02030008B5024B45
:1090E0001B685B6A019308BD1C02030008B5024BB4
:1090F0001B68DB6A019308BD1C02030008B5024B24
:109100001B68DB6B019308BD1C02030008B5024B12
:109110001B681B6C019308BD1C02030008B5024BC1
:109120001B685B6C019308BD1C02030008B5024B71
:109130001B689B6C019308BD1C02030008B5024B21
:109140001B68DB6C019308BD1C02030008B5024BD1
:109150001B681B6D019308BD1C02030008B5024B80
:109160001B685B6D019308BD1C0203008A4210B5A9
:1091700007D0441A0298C01A4443501A94FBF0F0E6
:10918000184410BD0021FFF787BE10B54368013BAE
:109190000446436063B903689B689847A368013B32
:1091A000A3602BB923682046DB68BDE81040184750
:1091B00010BD70B5D0E90053044605EB0316AE426E
:1091C00004D0284602F03CF81035F8E72068FFF795
:1091D00065FF204670BD10B50446006808B1FFF772
:1091E000D4FF204610BD0000024800230360FFF7B3
:1091F000E7BB00BF0CE60320002240681146FFF7E2
:10920000FDBE002240681146FFF718BF00224068EB
:109210001146FFF723BF40680022FFF717BF4068E1
:10922000002281F00101FFF701BF002340681A46C8
:109230001946FFF7F3BE002340681A461946FFF7A8
:10924000E5BE002240681146FFF7C8BE4068002214
:109250000221FFF7CBBE002340681A46FFF7B6BED7
:1092600070B5134B03601825303386B00E4643604B
:109270002A4600210446083004F0FAFB00227068F8
:109280001146FFF7BBFE78B100212A46684604F07C
:10929000EFFB69460020ADF80050FFF789FB18B9D5
:1092A0006946204600F0B8F8204606B070BD00BF01
:1092B000C0F00B00084B10B52824224618460021A8
:1092C00004F0D6FB054B04804FF0FF3242600422CD
:1092D0005A60034A1A6010BD18E6032010E6032006
:1092E00084F00B007047007B7047037B4BB1036930
:1092F000B3F1004F05D08069B0F1004018BF0120E4
:1093000070470020704703681B6A184770B50368F0
:109310000D461B69064698470221284601F06CFE5F
:109320002C210446284601F071FD336804449B69F2
:10933000304698470221284601F05EFE204470BD69
:10934000A0F10400FFF7E2BF10B520210446FAF7B0
:10935000A6FE204610BD0000037B7BB14369002BB5
:109360000CDB07EE903A9FED077AF8EEE77A87EE8E
:10937000870ADFED057A20EE270A7047BFEE000A64
:10938000704700BF00FF7F470000C842037B63B106
:109390000369B3F1004F08D007EE903A9FED047ACD
:1093A000F8EEE77A87EE870A70479FED020A70476A
:1093B0000000C84200000000037B7BB1C369002BA2
:1093C0000CDB07EE903A9FED077AF8EEE77A87EE2E
:1093D000870ADFED057A20EE270A7047BFEE000A04
:1093E000704700BF00FF7F470000C842037B63B1A6
:1093F0008369B3F1004F08D007EE903A9FED047AED
:10940000F8EEE77A87EE870A70479FED020A704709
:109410000000C8420000000030B50D4600F108040D
:109420000FCD0FC495E8030084E80300012030BD90
:10943000002240681146FFF701BE00224068114635
:10944000FFF70CBE40680022FFF700BE4068002214
:1094500081F00101FFF7EABD002340681A46194672
:10946000FFF7DCBD002340681A461946FFF7CEBD62
:10947000002240681146FFF7C1BD00224068114636
:10948000FFF7ACBD406800220221FFF7AFBD00230B
:1094900040681A46FFF79ABD024B03225A60024AFF
:1094A0001A60704740E60320FCF00B00006800F0F3
:1094B000F3B810B50446016002710AB1FFF7F6FF78
:1094C000204610BD13B50446019102F05FFC019ADD
:1094D00001462046FFF7EDFF204602B010BD0068B0
:1094E00000F0E3B82DE9FF4104461D460F4616463D
:1094F000FFF7DCFF36220023CDE9002320684FF080
:1095000001080A236946CDE9028300F0A9F8206822
:10951000036839469B6898472068036831469B6812
:1095200098472068036829469B6898474146206809
:1095300000F0AEF8002820460CBF00256FF09F0514
:10954000FFF7CDFF284604B0BDE8F08108B5402202
:1095500000230621FFF7C6FF00EAE07008BD704750
:10956000F8B5064615460C468F18BC4206D033683F
:1095700014F8011B9B6830469847F6E72846F8BD6B
:10958000007C0022FFF7E4BA007C0021FFF7E8BA74
:10959000007C0021FFF7ECBA007C0021FFF7F0BA55
:1095A000007C0021FFF7F4BA10B514210446FAF745
:1095B00076FD204610BD000038B5044615464FF430
:1095C0007A730022C4E90123094B21740846236001
:1095D0002946FFF7EDFABF3008D16B69DB0705D5E7
:1095E0006868FFF75BFDE868FFF758FD204638BD67
:1095F00038F10B000023007C1A461946FFF790BA99
:109600007FB500221423CDE90122ADF804300B7898
:109610008DF808304B680393CB680493007C0B7A79
:10962000059301A9FFF7DCFA07B05DF804FB1FB54D
:10963000003B8DF800104FF06401039118BF012327
:10964000694601928DF80830FFF7DAFF05B05DF842
:1096500004FB007C0022FFF76BBAC9B2FFF7F9BF29
:109660007FB50023CDE901334A6803921423CA6809
:10967000ADF804300B7804920A7A0592007C8DF8DC
:10968000083001AA1946FFF753FA07B05DF804FB4A
:10969000007C0022FFF754BA08B50021007CFFF7D8
:1096A0008FFAB0FA80F0400908BD08B50021007CAF
:1096B000FFF78EFAB0FA80F0400908BD00470000BD
:1096C0002DE9FF4100241D460F4690460646FFF750
:1096D00017FAA5424FF00403ADF80D408DF80C3099
:1096E0008DF80F40A2BF9DF828308DF80E3003ACE6
:1096F0000749009443463A463046A8BF8DF80D50BE
:10970000FFF7F6F9B0FA80F0400904B0BDE8F08147
:10971000BD960B00704710B518210446FAF7BFFC40
:10972000204610BDF0B5037D062B8DB00E4600F12E
:1097300004074FF0000412D000F1080515F8011DD0
:109740000A22304601F071FBAF42044419D0002CCC
:10975000F4D02E21304601F059FB0444EEE72F23CC
:109760006A4639460A208DF80040FFF741FA6846FC
:1097700004F01BFA33680246DB68694630469847B6
:10978000044620460DB0F0BD10B5054B044611222D
:1097900040F8043B002104F06BF9204610BD00BFE7
:1097A00060F10B000346074A10B543F8042B01F1A2
:1097B000100251F8044B43F8044B9142F9D10A7856
:1097C0001A7010BD60F10B0010B59DF8084044EA16
:1097D000032343EA024242EA016104234160037524
:1097E00010BD000007B5064B0360CB7800938B7863
:1097F0004A780978FFF7E8FF03B05DF804FB00BF83
:1098000060F10B0000F11003012213F8101C012974
:10981000184608D153F8041C02EB4102013A03F147
:109820001003F2D17047022904BF53F8041C5218E8
:10983000F4E70EB4F0B588B000AF07F1340510219D
:1098400055F8042B7A6004462B467818FD60FFF724
:1098500045FC0F287A681AD900F1080323F00703A2
:109860006E46ADEB030D411C2B466846FD60FFF7CD
:1098700035FC021E04DD236869469B682046984734
:10988000B5462037BD46BDE8F04003B0704700281C
:10989000F7D0236802469B6807F1100120469847DD
:1098A000EFE738B50B6803604D6843689D42044696
:1098B00008D015B16B6801336B60606808B1FFF7C1
:1098C00064FC656038BD07B503688DF807109B68B8
:1098D00001220DF10701984703B05DF804FB0B4628
:1098E0001146002210B5C0E90022044683600BB97E
:1098F000204610BDFFF7D5FFFAE78368EBB11A7871
:10990000032A1AD8DFE802F00417021B052070476B
:1099100002685B685268D05C2D2812D0A0F1300339
:10992000092B0ED974280ED066280CD0A0F16E0336
:109930005842584170470620704700207047042065
:109940007047032070470220704710B50446FFF7A8
:10995000D4FF02280ED0C31EDBB2012B14D822681C
:10996000A36850685B68BDE810400A2200211844D3
:1099700004F0E0B92268A36852685B68D05CA0F18B
:1099800074035842584110BD0020FCE738B500234D
:10999000C0E9003304460E48C4E90203A9B10B78BC
:1099A000032B06D08BB9136858684B68C35C6E2BC9
:1099B00007D013684D6858688B6828445B1BA0600B
:1099C000E36011462046FFF76CFF204638BD00BF1C
:1099D000C9F10B0038B500250B46C0E90055C0E9B8
:1099E0000255C0E90455044611464BB11A78012AC4
:1099F00006D103F11002DB6882604361FFF751FF7B
:109A0000204638BD10B54369044663B18068E06004
:109A1000013B1030A0602061636113B1FFF7F2FEDB
:109A2000A060012000E0184610BD10B57D2104465D
:109A3000FFF749FF01232371204610BD08B50379C4
:109A4000012B02D0022B04D008BD2C21FFF73BFFD5
:109A5000FAE73A21FAE710B50446FFF7EFFF204690
:109A60007B21FFF730FF00232371204610BD00004B
:109A700013B504460191FFF7E1FF2368019ADB6803
:109A800003492046984701232046237102B010BDA8
:109A9000B7E00B0013B504460191FFF7CFFF236831
:109AA000019ADB6803492046984701232046237129
:109AB00002B010BDE2EA0B002DE9F0470D4622216D
:109AC00090460446FFF7FFFEDFF8A490A8442F4617
:109AD0004745BA463DD017F8016B222E06D05C2EC2
