:02000002B0004C
:1040000000400B00A0FD0B00000006000D000502A3
:084010000401A60F00000000EE
:0440180094E30B0022
:1040200009480A49884208B505D0094A824202D0A7
:10403000121A09F0B5FF0748074A0021121A09F0C1
:10404000D7FF014808BD00BFFCDE0320E8FB0B00E2
:1040500088E0032088E00320EDE7032070B5074ED9
:10406000074C08F01FF8A41BA4080025AC4200D19F
:1040700070BD56F8043B98470135F7E784FB0B0009
:10408000BCFB0B0000F0EABF08B500F0DFF9BDE8AB
:10409000084007F0BFBF05F089BA05F087BA05F000
:1040A0008DBA000008B5034A03490C2005F020F939
:1040B000FEE700BF418F0B00A8E30B000078B0FAC9
:1040C00080F0400970470123037070477047006A11
:1040D0000368DB6818470000014B1A60704700BF97
:1040E000FCDE0320014B04221A7070472EE10320EE
:1040F000014B01221A7070474CE1032010B5084CA7
:1041000023782BB1074B01221A700023237010BDB6
:1041100001F074FE01F06AFF0128F3D00123F5E7F6
:10412000B0E003202DE10320436913B183690C3013
:104130001847704730B585B00446089860B14068AC
:1041400050B1856845B1CDE90241CDE90023C4688D
:1041500001AB6A4602A9A04705B030BD08B501F021
:10416000D3F801F0F3F8024B03221A7008BD00BF28
:104170002EE1032013B500210446084604F070FE2A
:104180000023204601A9019304F082FE019C0CB19A
:10419000012323710021012004F062FE2CB1236869
:1041A00020469B6898470023237102B010BD30B5AC
:1041B00085B0006813680193D1E900458368CDE9B3
:1041C00002450BB908F00CF9C36801AA02A9984787
:1041D00005B030BD012A02D1016000207047022ADB
:1041E00004BF0B680360F8E703681268D1E90001B7
:1041F0001847012A02D1016000207047022A04BF3B
:104200000B680360F8E70368184737B50446806811
:104210000D4630B10023CDE900331A46022104F0E7
:104220003FFEA06830B10023CDE900531A4619467D
:1042300004F036FE03B030BD0A4B10B504460360EF
:1042400006F0E6F8214606F01EFB07F09BFE07F09D
:104250008BFE2046044B40F8043B06F0AFF92046A5
:1042600010BD00BF00E90B00E8E80B0010B50446E4
:10427000FFF7E2FF20462421FFF711FF204610BD83
:1042800010B58368044613B10322014698472046BF
:1042900010BD10B5044638B1FFF7F2FF20461021DB
:1042A000BDE81040FFF7FBBE10BD000037B5134B53
:1042B000036004468068C8B100256FF00043CDE973
:1042C000003502212B462A4604F0EAFDA068294663
:1042D00004F016FE237903F0FF0513B104F0B8FDD6
:1042E000F8E7A068294604F0CBFDA56004F10C00B6
:1042F000FFF7C6FF204603B030BD00BFD4E80B0077
:1043000010B50446FFF7D2FF20461C21FFF7C7FE79
:10431000204610BDF8B5037D05460F4616468BB105
:104320000368DB6883B19A88012A06D09B68F9E7A5
:104330009B684BB19A88012AFAD12BB19A89BA426B
:10434000F6D19E732846F8BD0A49102008F044F8BB
:10435000044668B11022002109F04AFE064B236092
:104360000123A3802B69A360A781A6732C61E9E7D1
:104370002875E7E744F90B0010000300002004F063
:10438000F7BD000008B504F0E3FD034B1860BDE87D
:10439000084005F06BB800BF10E7032008B580683F
:1043A00028B1002104F0A4FD003818BF012008BD89
:1043B0000EB400B58CB00DAA4FF0200C52F8041BBF
:1043C0000392CDE900120023016804AA1E20CDE962
:1043D00004C304F09DFF0CB05DF804EB03B070471C
:1043E00070B5144D144C2B78144E022BC2B017D15B
:1043F00007F0C4FC2A78337804EB0212009204EB35
:104400000313A0B90E4A4FF4807102A805F0EEF82C
:104410002B780C48337002A9FFF7CAFF42B070BD79
:104420002A78337804EB0212009204EB0313064A55
:10443000E9E700BF2EE1032000DF03202CE1032089
:10444000BDE30B0054E60320DDE30B002DE9F0474C
:104450009F4C2378013B8CB0052B00F2E980DFE80C
:1044600013F0760206001700E40167015202994A30
:10447000237812789A4201D0FFF7B2FF01F0BEFC18
:1044800001F0AFFD002800F0348201232370CFE05B
:10449000FFF7A6FF07F072FC3C25002864D001F06E
:1044A000ADFC01F021FE05FB00F607F084FCB0FB3B
:1044B000F6F505FB1605751BB54228BF354607F016
:1044C0007AFC854B854900934219002308A807F020
:1044D00013FC089B039301F091FC01F0B5FC8049AB
:1044E000804A039B002808BF0A4600927E487F4905
:1044F0002A46FFF75DFF08A807F04CF901F07EFCA3
:1045000001F0A2FC064658B901F078FC01F09CFCD1
:1045100030B101F073FC01F069FD314601F0D2FFCA
:10452000734B1A7D0AB102221A72724B7048B3F8AB
:10453000009000224946FFF7EDFE6F4BB3F800A054
:1045400001225146FFF7E6FE037D07462BB30368C1
:104550004FF47A78DB6808FB05F853B19A88042A8F
:1045600000F0D6829B68F8E764495F48FFF720FFB8
:10457000C4E76349102007F02FFF0646002800F02B
:10458000C5821022002109F033FD5E4B3360042305
:10459000B3803B69C6E902383E6100215A4802F007
:1045A000F5FA534905A807F027FA4FF0FF315648AE
:1045B00002F0ECFA01F022FC01F018FD012101F0FB
:1045C00081FF059BDBB19A88012A18D19B89994507
:1045D00022D1FFF7D3FE42F210760546FFF7CEFE5A
:1045E000401B61F10001B04271F100030AD207F0F3
:1045F000C9FC07F0BCFC28B904F038FFEEE74FF621
:10460000FF73E4E707F0BEFC07F0B1FC3F49364812
:10461000FFF7CEFE022306E09A4541D13C493248DD
:10462000FFF7C6FE03230598237008B104F0C6FF08
:104630003548384D02F056FE01F052FC01F06DFC99
:1046400001F0DCFB01F0F7FB2B7823B102F020F83E
:1046500008B100232B70304B1B68002B09DB2F495E
:104660002148FFF7A5FE4FF4FA6005F01BF807F0AC
:10467000C0F92B4B1A7882B100222A481A70FFF732
:104680008DFE20B927486FF00041FFF7BEFD264997
:104690001548FFF78DFE042323700CB0BDE8F087AA
:1046A00007F089FB0C4B0D4900934219002308A821
:1046B00007F022FB089A039207F0FEF9039A1B49C0
:1046C00003460948FFF774FE08A807F063F8A1E75E
:1046D0002EE103202CE10320EFE30B00ACE60320E6
:1046E000EBE30B00DCE60B0054E60320F2E30B00E7
:1046F000D4E003202AEF0B002CEF0B002EE40B007C
:1047000044F90B0010000300B4E0032056E40B0052
:104710006CE40B002DE10320FCDE032084E60B009B
:104720004CE10320ECE00320A0E60B0087E40B0043
:104730009F4D2B78BFF35B8FDB070AD42846FFF72A
:10474000BDFC30B107F048FB9A4B18602846FFF7D4
:10475000BAFC994B22781B789A4225D0042B21D0A1
:104760009648FFF71BFE20B994486FF00041FFF711
:104770004CFD01F043FB01F02AFC0A2849D801F066
:104780003DFB01F024FC8E4B9D685DB16FF0004352
:104790000022CDE9003242F2107343430321284640
:1047A00004F07EFBFFF71CFE00F0AEFD00F0B6FF4C
:1047B00000283FF43DAF01F021FB054607F0FBFA6E
:1047C0000246C317284601F07AFD01F017FB01F0FD
:1047D00053FD054601F012FB01F0F9FB684306F0BA
:1047E0000AFF07F0E8FA0125C3170246714E754823
:1047F000009502F067FD07F0EFFA336898420BD09E
:1048000001F06EFB002101F014FD07F0E5FA3060C5
:104810000EE704232370C5E701F0F0FA01F0E1FB95
:1048200000283FF405AF257002E7FFF7D9FD02F03D
:104830004FF800F069FD00F079FD01F0DFFA01F0BA
:10484000D0FB614E002841D100F05EFD01F032F84E
:10485000054600284BD13268022A4CDD5B495C4892
:10486000FFF7A6FD356007F0A6FA064601F0C6FA86
:1048700001F002FDF317361A63EB010701F0BEFAEF
:1048800001F032FC78235843B04275EB070330DA6D
:1048900050494F48FFF78CFD01F0B0FA032101F0B9
:1048A000E8FB01F0ABFA054607F085FA0246C317AC
:1048B000284601F009FD01F0A1FA054607F07BFA50
:1048C0000246C317284601F0FAFCDEE501F096FA2D
:1048D00001F087FB012804D100F016FD01F044F936
:1048E000B6E701F08BFA01F07CFB0228F4D000233C
:1048F00033600523CAE5531C374935483360FFF759
:1049000057FD0623C2E52C4A23781278334D344EE6
:104910009A4212D0FFF764FD44F6206006F056FE7E
:10492000286004F015FB2A6830604FF47A732D4933
:104930002748B2FBF3F2FFF73BFD04F009FB3368B5
:104940002A68134483423FF673AE04239EE51A4A55
:10495000237812789A4201D0FFF742FD01F04EFA17
:1049600001F03FFB0138052800F2C680DFE800F0C7
:10497000031A407DA5BF01F041FA0B2101F067FB4E
:1049800001F03CFA01F023FB039008A804F086FD37
:10499000089B039A14490E48FFF70AFD08A806F081
:1049A000F9FEA6E711490A48FFF702FDA1E700BF9B
:1049B00098E00320ACE003202CE10320ECE003208E
:1049C00030E10320B4E003209CE00320ADE40B00C1
:1049D00054E60320DAE40B001EE50B00A8E00320F8
:1049E000A0E0032044E50B0062E50B00A9E50B0005
:1049F000494D4A4E2B78BFF35B8F13F0010F09D15D
:104A00002846FFF75BFB28B104F0A2FA3060284685
:104A1000FFF759FB04F09CFA3368C01A47F2305391
:104A200098427FF605AE3E493E48FFF7C1FC01F0D3
:104A3000E5F9002101F01DFB01F0E0F9054607F062
:104A4000BAF90246C317284601F03EFC01F0D6F938
:104A500003680121DB6898474FF4FA6004F022FEF6
:104A60001E21314802F0ECF9E2E530492D48FFF70C
:104A70009FFC00F049FC00F06FFC48B12C4929482C
:104A8000FFF796FC01F0BAF9002101F0F2FA30E7E5
:104A900028492448FFF78CFC01F0B0F9032101F00C
:104AA000E8FA01F0ABF9054607F085F90246C317AD
:104AB000284601F009FC0223E8E401F09FF90368AD
:104AC0009B69984701F00CFA01F04BFC01F096F954
:104AD000012101F0CEFA01F091F9054607F06BF9DA
:104AE0000246C317284601F0EFFB13495BE701F0CC
:104AF000F7F901F036FCC5E710490A48FFF758FC02
:104B000001F07CF9002101F0B4FAD4E7387544E5EE
:104B1000C3F80C8041E500BF94E00320A4E003202B
:104B2000D8E50B0054E60320B4E00320F3E50B00C6
:104B300009E60B0023E60B004FE60B006EE60B00C8
:104B400038B5002383608B6804460D462BB10222E2
:104B50009847EB68E360AB68A360204638BD012A44
:104B600037B5044604D10B680360002003B030BDA4
:104B7000022A0CD0032AF8D10468002CF5D0204674
:104B8000FFF77EFB10212046FFF789FAEDE7096861
:104B900001911020FFF77FFA054610B10199FFF748
:104BA000CFFF2560E1E770B5D0E900531426044635
:104BB00006FB0356AE4204D0284606F0EBFD143542
:104BC000F8E7206804F0FAFC204670BD13B50B46E8
:104BD0000246D0E900016C4684E8030093E8030034
:104BE00082E8030094E8030083E8030002B010BDEC
:104BF0002DE9F34104461546002698460F4B036005
:104C00000F4606718660466100F10C011046FFF701
:104C1000DDFFAB686269AA606361A269EB68A361AA
:104C2000EA60CDE90086064A2346394604F10800C9
:104C300004F01EF9204602B0BDE8F081D4E80B0074
:104C400075410B002DE9F04194B005461A9904A86E
:104C500017461E46FFF774FF04A908A8FFF770FF68
:104C600008A90CA8FFF76CFF4FF000081020CDF842
:104C70004880FFF710FA044668B1C0F80880014682
:104C80000CA8FFF7A3FF0E9BA2680E92A360E26838
:104C90000F9BE3600F92244B1393244B129300223B
:104CA00000234FF00008C5E90023214BC5F8088018
:104CB00010201094CDE90138CDF80C80FFF7EBF906
:104CC0000446D8B1129BC0F8088033B1022210A963
:104CD0009847139BE360129BA360164B0393164AFD
:104CE000029401AB3846314604F066FBB0B1204671
:104CF000FFF7C6FA10212046FFF7D1F910A8FFF7F9
:104D0000BFFA0CA8FFF7BCFA08A8FFF7B9FA04A885
:104D1000FFF7B6FA284614B0BDE8F081029BAB60FD
:104D2000C5E90076EAE700BFAF410B005F4B0B001F
:104D300002000C0093420B0035410B008842F8B58D
:104D400004460D46164616D9904215D2A2F1140615
:104D5000751AA1F114072C44B7421CD02CB131466E
:104D6000204606F093FD337C2374304606F012FD96
:104D7000143E143CF0E70ED0B5420CD02CB12946BD
:104D8000204606F083FD2B7C2374284606F002FDA6
:104D900014351434F0E7F8BD2DE9F0410023C0E9E3
:104DA000003383604F689F4204460E4623DD4FF078
:104DB000140808FB07F004F0F9FB0546D8B1D4E964
:104DC000001208FB0212FFF7B9FF206804F0F6FB9F
:104DD0002560A760D6E9007308FB0378B84508D0C2
:104DE0003946284606F06CFD3B7C2B74143714358D
:104DF000F4E7736863602046BDE8F081F0B5444B8A
:104E0000444A9A6000248FB0C3E90044032004F0B0
:104E1000C3FA2146012004F0D7FA0121042004F04E
:104E20007FF8CDE90144039407F0ACF83A4D06460B
:104E300001A904A8FFF7B0FF2F4604A907A8FFF7B0
:104E4000ABFF364B47F8043B07A90AA8FFF7A4FFBE
:104E50000AAA1E21384605F0F9FD0AA8FFF7A3FEAD
:104E600007A8FFF7A0FE2E4B2B602E6204A8FFF7C9
:104E70009AFE2C4B2B6007F085F84FF4165107F083
:104E80006FF805F0C5FA294605F0B6FC01A8FFF752
:104E90008AFE07F039F9234622460A2107F044F931
:104EA00007F032F9234622460D2107F035F91E4A54
:104EB0001E4E1461131DC2E90244136001241C4BF1
:104EC0005360147507F000FA6922014619481A4D1B
:104ED00001F05EFD194B0A930AAA234642F21071B3
:104EE00017480D960C95FFF783FE0AA8FFF7C8F93F
:104EF000144B15490A930AAA23461448CDE90C56C7
:104F0000FFF776FE0AA8FFF7BBF90FB0F0BD00BFB0
:104F100088E003200000FFFF08E10320E8E80B0021
:104F2000E4F70B0000E90B00D4E0032007420B007C
:104F300010000300B4E00320F3410B00E5400B0038
:104F400030E103205D410B00E0930400ECE003201E
:104F50002DE9FF4106F02FFF394905463948FFF793
:104F600027FA002301A8CDE90133ADF80C3004F095
:104F7000EFFCFFF703FA43F698260446FFF7FEF925
:104F8000031B61F10001B34271F1000305D204F08B
:104F90007DFA10B104F06AFAF0E704F077FAFFF74F
:104FA000F1F904F073FA044640B127492548FFF7A8
:104FB000FFF90024204604B0BDE8F08106F0FBFEB6
:104FC0002249234F421B1F48FFF7F2F906F0F3FE78
:104FD000224602210646786804F098FA786823464B
:104FE0002246214604F0AAFAFFF7C8F947F23058E2
:104FF0000546FFF7C3F9431B61F10001434571F119
:10500000000306D2384606F03FF810B904F02EFA35
:10501000EFE70F4806F038F8FFF7B4F90C4806F050
:105020002FF820B10B490748FFF7C2F9C2E706F095
:10503000C2FE0949821B0348FFF7BAF90124B9E708
:10504000B6E60B0054E60320DFE60B0002E70B0098
:1050500010E603202BE70B0051E70B00F0B58DB0F5
:10506000FFF78CF942F210750446FFF787F9001B31
:1050700061F10001A84271F1000307D206F082FF3E
:1050800006F075FF10B904F0F1F9EEE706F07AFFCB
:1050900006F06DFF01F0F2F901F02AFA00F0AEFE21
:1050A00003681B68984700F01BFF03681B6898475C
:1050B0006F4B1E88304607F0A7F8044628BB6D49A1
:1050C0006D486E4FFFF774F904F0D8F9FFF756F901
:1050D0000546FFF753F9401B61F10001874274EB6D
:1050E000010305D304F0D2F910B904F0BFF9F0E7D9
:1050F00004F0CCF9002840F0898061495E48FFF750
:1051000057F9FFF725FF06F074FC5E4808230121DC
:10511000438102F039F97C215A4801F037FD5A4B9E
:1051200008935A4B0B9308AC594B0A934FF48022C7
:10513000002304A80094FFF785FD2046FFF7A0F8A0
:1051400000F0E2F8002100F049F900286FD100F0EA
:1051500055FE032100F08DFF00F050FE054606F0DD
:105160002AFE0246C317284601F0AEF800F046FEBC
:1051700000F037FF474902463F48FFF719F901F0B1
:10518000A7FB45484549008800254FF0FF33012221
:10519000009504F03FFD424900954FF0FF332A4649
:1051A000304604F037FD00F029FE00F04DFE30B12E
:1051B00000F024FE00F01AFF012101F083F9394BC1
:1051C0001A780AB903221A7000F018FE00F009FFDD
:1051D000054600F013FE01F04FF80B4632490091EE
:1051E00002463249204606F087FD089B3049224896
:1051F0002A46FFF7DDF8204606F0CCFA2D4B18883A
:1052000000210DB0BDE8F04006F0E5BF2A491A487C
:105210002A4DFFF7CDF803F09BFE044603F098FEFD
:10522000001BA8423FF66DAFFFF7ACF8F6E700F0C1
:10523000E5FD00F0CCFE0A2814D900F0DFFD0121C5
:1052400000F017FF00F0DAFD00F0C1FE039000F05F
:10525000D5FD00F0C6FE039A194903460648FFF73C
:10526000A7F88CE706F08AFD0028E6D087E700BFA4
:105270002AEF0B007DE70B0054E60320BF2709004F
:10528000B1E70B00B4E00320D9400B00E9410B006B
:10529000D5410B0001E80B002CEF0B00FD400B008B
:1052A000F1400B002EE10320EFE30B00ACE60320FE
:1052B00086E80B0028EF0B00DBE70B00BFD40100F2
:1052C0003FE80B007047704710B504210446FEF715
:1052D000E6FE204610BD000010B5054B0022044636
:1052E000114640F8043B04F03BF8204610BD00BFD7
:1052F00084ED0B0010B50446FFF7EEFF2046202199
:10530000FEF7CDFE204610BD10B5064C236833B91C
:105310000420FEF7C0FE08B1034B03602060206844
:1053200010BD00BF50E1032098ED0B0010B5064CF6
:10533000C0B00DF1030201A9204603F0FFF80028D8
:10534000F7D140B010BD00BFD0E10320014803F009
:10535000E2B800BFD0E10320194B10B51C88002132
:10536000204606F038FF0A2004F09CF9012120466F
:1053700006F031FF0A2004F095F9124802F069FEA8
:10538000044628B910491148FFF712F8204610BD0D
:105390009FED0F0A0F4803F057F900220D4817211F
:1053A00003F0CCFA04210B4803F0F4FA094803F0A7
:1053B0009FFB09484FF4FA6102F059FDE6E700BF90
:1053C00032EF0B0000E3032010E90B0054E603204A
:1053D000C3B56744D0E1032004E3032010B588B0CF
:1053E0000C46FFF7B9FF00F009FD00F0F0FD2E4973
:1053F00002462E48FEF7DCFF94B100F0FFFC0021CE
:1054000000F025FE04A804F049F8049A284927482A
:10541000FEF7CEFF04A806F0BDF9012008B010BDCC
:1054200000F0ECFC00F0D3FDD8B100F0E7FC00F098
:10543000CEFD0A2815D800F0E1FC00F0C8FD0146B9
:105440001C4802F030F91B4802F013F9029004A83E
:1054500004F024F8049B029A17491448FEF7A8FFA9
:10546000D8E700F0CBFC0B2100F0F1FD0B21114837
:1054700002F019F900F0C2FC012100F0FAFD0D481C
:1054800002F0F7F8039004A804F008F8049B0293D4
:1054900000F0B4FC00F0A5FDDDE902320090074900
:1054A0000248FEF785FFB5E71CE90B0054E6032030
:1054B0003BE90B0004E3032075E90B00ACE90B00AA
:1054C00030B500228DB01421022003F095FF534C1B
:1054D0001E2201210346CDE9002104A80222FF215A
:1054E00004F018FE00F08AFC217A00F0C2FD00F002
:1054F00085FC00F076FD07286FD100F07FFC00F0FE
:1055000075FD637A464902464648FEF751FF00F0B2
:1055100075FC617A00F0B3FD00F070FC002100F032
:10552000A8FD00F06BFCA17A003918BF012100F042
:105530009DFC00F063FC00F087FC002867D100F0C0
:10554000CFFC00F00EFF38493648FEF731FF00F07F
:1055500055FC00F046FD354B354A3649002808BF5A
:105560001A46E37AA07A344C0392012818BF0C46FD
:10557000029300F043FC00F034FDDDE90232CDE996
:1055800000402E492748FEF713FF0022012105A8FD
:1055900003F0E6FE00F0A4FC00F030FF642300936B
:1055A0006FF08B026FF0090140F6B83304F06EF82B
:1055B00040F6B833984228BF1846642838BF6420A4
:1055C00004F070F80022114605A803F0C9FE04A8F3
:1055D000FFF782FE01200DB030BD00F00FFC00F09F
:1055E00000FD00289DD000F009FC00F0FAFC1449F1
:1055F00002460C48FEF7DCFE00F000FC054606F013
:10560000DAFB0246C317284600F05EFE89E700F089
:10561000F5FB012100F02AFC99E700BF54E10320CB
:105620001EEA0B0054E603206BEA0B000AEA0B00AB
:1056300005EA0B0017EA0B0012EA0B008DEA0B00DB
:105640004FEA0B0010B500228CB01421022003F0A9
:10565000D3FE1E2201210346CDE9002104A82A49D8
:105660002A4C022204F056FD00F0C8FB00F0AFFC0B
:105670000A2804D900F0C2FB617A00F0E8FC00F0CF
:10568000BDFBA17A00F0FBFC00F0B8FB00F09FFC32
:10569000039000F0B3FB00F0A9FC039A1C490346F9
:1056A0001C48FEF785FE00F0A9FB00F090FC0146C7
:1056B000194801F0F8FF0022012105A803F050FE6F
:1056C00000F00EFC00F09AFE642300936FF08B0252
:1056D0006FF0090140F6B83303F0D8FF40F6B83355
:1056E000984228BF1846642838BF642003F0DAFFC8
:1056F0000022114605A803F033FE04A8FFF7ECFDD5
:1057000001200CB010BD00BF0060FF0054E1032079
:10571000DEEA0B0054E6032004E30320F0B58DB06D
:1057200079238DF81A300DF11F0303930DF11E0339
:105730000293454D0DF11D03019307AB00930646FF
:105740000DF11B0341480DF11A02294602F078FAC7
:105750000446002874D09DF81A300024EC542E889A
:1057600000F04CFB00F0BBFC76BAB6B2B04204D0FD
:1057700037493848FEF71CFE56E0374E9DF81E307C
:105780009DF81B2035483370059202F00AF804900A
:10579000324803F0A9F99DF81F100291377830497B
:1057A00001EB0711DDE90432CDE900012D4929485B
:1057B000FEF7FEFDD5F8020000BAC11706F0E3F9C6
:1057C00000F01CFBE98849BA89B200F02CFD00F01A
:1057D00015FB297A00F04DFC00F010FB054606F0A1
:1057E000EAFA0246C317284600F06EFD06F0E3FA17
:1057F000C317024608A806F0D9F9089A049200F0E7
:10580000FDFA00F071FC049A174903461148FEF7AF
:10581000CFFD08A805F0BEFF3378042B07D1FFF7B2
:1058200073FDFFF74DFE044620460DB0F0BD022B80
:1058300004D1FFF769FDFFF705FFF4E70B4998E78F
:105840003046FFF773FDEFE754E1032000E3032048
:1058500015EB0B0054E603204DE10320D0E10320BB
:10586000A0DF03203EEB0B008BEB0B00BEEB0B002D
:1058700070B500250E462C46B3689D4218D22946C5
:10588000304606F029F80378A3F13002092A02D83D
:1058900014440135F0E7A3F14102052A02D8373B51
:1058A0001C44F6E7A3F16102052AF2D8573BF7E75B
:1058B000204670BDF0B52DED028B8BB0044600F094
:1058C0000FFB00F0A2FB0590002840F0D88000F00C
:1058D00007FB059900F0E5FB00F002FB059900F0DD
:1058E000E6FB002500F0FCFA064600F0F9FA00F0AD
:1058F0008CFB0130C1B2304600F0D3FB8F4B1F88C8
:105900000121384606F067FC06A803F0C7FD06A98A
:105910002046FFF7ADFF064606A805F03BFF00F066
:105920006DFA00F0DCFB864C000A207000F066FA8D
:1059300000F0D5FB3312A3706070E67000F0D0FA6F
:1059400000F01AFC000A207100F0CAFA00F014FC02
:10595000607100F0C5FA00F043FC000AA07100F08D
:10596000BFFA00F03DFCE07100F048FA00F03EFBA9
:10597000207200F0B5FA00F03EFB607200F0B0FA61
:1059800000F0D6FA51EC100B08F048FAA07200F0C3
:10599000A7FA00F035FBE07200F030FA00F01CFBD3
:1059A000207300F09DFA00F030FB607300F098FA6D
:1059B00000F030FBA07300F093FA00F01FFD00121E
:1059C000E07300F08DFA00F019FD207400F088FA01
:1059D00000F019FD0012607400F082FA00F013FD6F
:1059E0000323A0742146009356480023132202F09B
:1059F000F3F8044600286AD100F072FA064600F077
:105A00006FFA00F007FB0130C1B2304600F04FFBE7
:105A100000F066FA06464C4801F0C3FE01463046E7
:105A200000F00EFD00F05CFA0646474803F05CF813
:105A300001B2304600F00AFD00F0E0F900F0C7FACC
:105A4000059000F04DFA00F0D9FC064600F048FA47
:105A500000F0D9FCCDE90260284607F0AFFE059AB8
:105A6000CDE9000139493A48FEF7A2FC3846214603
:105A700006F0B1FB01200BB0BDEC028BF0BD00F0D5
:105A80002FFA00F0C7FA054600F02AFA00F0BDFA36
:105A900008EE100A284607F07FFE2E4B002207F082
:105AA0002FFDF8EE487A064617EE900A0F4607F0EB
:105AB00085FE02460B463046394608F001F8264B73
:105AC000002207F0D3FE08F0C9F905460AE70228CC
:105AD00015D100F093F900F07AFA0590284607F006
:105AE0006DFE059ACDE900011C4900231848FEF718
:105AF0005FFC3846002106F06EFB0020BBE705285E
:105B00000DD100F07BF900F062FA0590284607F00D
:105B100055FE059ACDE9000100231149E6E700F0A2
:105B20006DF900F054FA0590284607F047FE059AF3
:105B3000CDE9000100230B49D8E700BF28EF0B0097
:105B400054E1032000E30320D0E10320D8EB0B0055
:105B500054E603200000F03F0000594025EC0B0004
:105B600075EC0B00CEEC0B0070B590B0044605A8A8
:105B700003F094FC0023192209A905A805F0BAFE38
:105B800005A805F007FE05A803F088FC05A9204636
:105B9000FFF76EFE054605A805F0FCFD00F02EF9A6
:105BA00000F015FA01463248324C01F07CFD00F05D
:105BB00025F900F094FA000A207000F01FF900F0B7
:105BC0008EFA2B12A3706070E57009AB221D0FAE28
:105BD0001D4603CDB542106051602B4602F108020C
:105BE000F6D12B78137000F009F900F0FFF9224B81
:105BF00060771E8801213046012406F0ECFA1D4929
:105C00001E48009400231E2201F0E6FF00210546F5
:105C1000304606F0E0FA2DBB00F062F90546184860
:105C200001F0BFFD0146284600F00AFC00F058F9DB
:105C30000546134802F058FF01B2284600F006FC62
:105C400000F04EF900F0DAFB039000F049F900F0A3
:105C5000DAFB039A0B4903460B48FEF7A9FB2046E3
:105C600010B070BD08480949FEF7A2FB0020F7E715
:105C700004E3032054E1032028EF0B0000E303209A
:105C8000D0E103201EED0B0054E603205DED0B0078
:105C900010B5084A084C094912780978084B204683
:105CA00002F092FC21460748BDE81040002201F0B6
:105CB00089BF00BF30EF0B00D0E103202EEF0B00B7
:105CC000ECE4032000E3032010B5044B036004461A
:105CD000406808B103F0F4F8204610BD48F60B0008
:105CE00010B50446FFF7F0FF20467821FEF7D7F9FC
:105CF000204610BD10B5034B0360044601F0A6FB1F
:105D0000204610BD88EE0B0010B50446FFF7F2FFE9
:105D100020461021FEF7C3F9204610BD10B5044BF4
:105D200003600446406808B103F0CAF8204610BD7D
:105D300048F60B0010B50446FFF7F0FF2046682137
:105D4000FEF7ADF9204610BD10B5036804460BB947
:105D500003F0AEF82068BDE8104003F0B9B838B5DC
:105D600004460430FFF7F0FF606AA16A0368DD684B
:105D7000D4E90223A847606803F0B2F82046BDE8E2
:105D8000384002F049BF38B504460430FFF7DCFF65
:105D9000606AA16A03689D68D4E90223A847A268E3
:105DA0002368D1885B692046984718B92368204644
:105DB0009B699847606803F093F8012038BD0000A4
:105DC00000F1300181600A494FF0380CC0E903C18D
:105DD000022181824FF47A71C16106490022C0E933
:105DE00009124260826180F82020034A02607047F5
:105DF000759EA920B8E40320A4EE0B0010B5064C54
:105E000023683BB96820FEF746F9034608B1FFF75F
:105E1000D7FF2360206810BDB0E4032010B5406AAE
:105E200001F02AFBFFF7EAFF64220368C261BDE8C4
:105E300010405B68184710B5FFF7E0FF0368BDE846
:105E40001040DB680021184738B504460430FFF7DE
:105E50007BFFE3686068013B302B86BFA36893F843
:105E60003150002503F03CF8284638BD38B50446CB
:105E700004300D46FFF768FFE368013B302B09D97A
:105E8000A36893F83120AA4204D083F83150204609
:105E900002F04EFF6068BDE8384003F021B8000012
:105EA00000F13001002281600A4942604FF0480C45
:105EB000826180F82020084A4262C0E903C164225E
:105EC0000321818282624FF47A71044AC1610260C7
:105ED000704700BF809EA920B8E40320D0EE0B00DD
:105EE00010B5064C23683BB97820FEF7D4F803467A
:105EF00008B1FFF7D5FF2360206810BDB4E403208C
:105F000010B5406A01F0B8FAFFF7EAFFFA22036819
:105F1000C261BDE810405B68184710B5FFF7E0FFAD
:105F20000368BDE81040DB6800211847000000004E
:105F300010B504462DED028B0430FFF705FFE36832
:105F4000083B172B0CD9A36893ED068B606802F011
:105F5000C7FFB0EE480AF0EE680ABDEC028B10BD38
:105F60009FED018BF2E700BF000000000000000081
:105F7000F8B50446043057EC106BFFF7E5FEE36814
:105F8000083B172B0CD9A5683046D5E906233946BE
:105F900007F0D4FE20B9C5E90667204602F0C8FE26
:105FA0006068BDE8F84002F09BBF38B50446043095
:105FB0000D46FFF7C9FEE3686068013BAB4226BFB0
:105FC000A3685D5D002502F08BFF284638BD08B54B
:105FD0001021FFF7EAFF08BD08B51721FFF7E5FF1D
:105FE00008BD08B52221FFF7E0FF08BD08B5302144
:105FF000FFF7DBFF08BD08B51021FFF7D6FF08BD8E
:1060000008B52021FFF7D1FF08BD08B53421FFF7FF
:10601000CCFF08BD08B53521FFF7C7FF08BD70B537
:10602000044604300D461646FFF78EFEE368013B3A
:10603000AB4207D3A3685A5DB24203D05E552046F7
:1060400002F076FE6068BDE8704002F049BF08B516
:106050000A461021FFF7E3FF08BD08B50A461221E2
:10606000FFF7DDFF08BD08B50A461721FFF7D7FF88
:1060700008BD08B50A462221FFF7D1FF08BD08B5C3
:106080000A463021FFF7CBFF08BD08B50A461021AC
:10609000FFF7C5FF08BD08B50A462021FFF7BFFF7F
:1060A00008BD08B50A463421FFF7B9FF08BD08B599
:1060B0000A463521FFF7B3FF08BD38B50446043062
:1060C0000D46FFF741FEE3686068023BAB4226BF26
:1060D000A3685D5B002502F003FF284638BD08B5C4
:1060E0001421FFF7EAFF08BD08B52021FFF7E5FFFF
:1060F00008BD000010B502F027FE044670B1FFF79E
:106100007DFEFFF7F1FF58B9FFF778FEFFF7ECFFD0
:10611000134902461348FEF74BF90024124A18E0CF
:10612000FFF76CFEFFF7E0FF3C28EDD8FFF766FEB7
:10613000FFF74DFF30B9FFF761FEFFF748FF0B494E
:106140000246E7E7FFF75AFEFFF741FF0B28F2D8B8
:10615000074A08490348FEF72BF9204610BD00BF47
:10616000AAED0B0054E60320A0ED0B00CFED0B00D1
:10617000A4ED0B00EEED0B0008B54021FFF79DFFED
:1061800008BD000010B502F0DFFD0446A0B1FFF726
:10619000A7FEFFF7F1FFFFF7A3FEFFF7EDFFB0F556
:1061A000806F10D9FFF79CFEFFF7E6FF0749024614
:1061B0000748FEF7FDF80024064A07490448FEF7A1
:1061C000F7F8204610BD054AF7E700BF03EE0B00C5
:1061D00054E60320A0ED0B0029EE0B00A4ED0B000C
:1061E00008B54221FFF769FF08BD70B504460430C9
:1061F0000D461646FFF7A8FDE368023BAB4207D306
:10620000A3685A5BB24203D05E53204602F090FD71
:106210006068BDE8704002F063BE08B50A4614210C
:10622000FFF7E3FF08BD08B50A462021FFF7DDFFB1
:1062300008BD08B50A464021FFF7D7FF08BD08B5DD
:106240000A464221FFF7D1FF08BDF8B504460430E5
:106250000D46FFF779FDE3686068083BAB4223BF5A
:10626000A1684919D1E90067002638BF002702F06C
:1062700037FE30463946F8BD08B51821FFF7E5FF6F
:1062800008BDF8B5044604300D461E461746FFF714
:106290005BFDE368083BAB420CD3A3685A1958591D
:1062A0005168B14208BFB84204D05F5120465660E1
:1062B00002F03EFD6068BDE8F84002F011BE08B58E
:1062C0001821FFF7DEFF08BD08B52821FFF7D9FF29
:1062D00008BD000010B5044602F09CFD1B481C4997
:1062E000FEF766F81B491948FEF762F8FFF786FDCE
:1062F0000B21FFF7ACFEFFF781FD0121FFF7ADFE9B
:10630000FFF77CFD46F6E131FFF787FFFFF776FDEB
:106310000021FFF7A8FEFFF771FD3C21FFF783FF87
:10632000FFF76CFD0121FFF7A4FEFFF767FD0022D8
:106330000023FFF7C9FFFFF761FD0121FFF796FD7D
:106340002046BDE8104002F0F3BC00BF54E6032035
:106350003CEE0B004DEE0B0008B53821FFF791FF26
:1063600008BD10B5FFF7BCFD0021FFF768FFFFF780
:10637000B7FD0021FFF75DFFFFF7B2FD044605F012
:106380001AFD0246C3172046FFF7E6FFFFF736FD6A
:106390000021FFF768FEFFF7A3FD0021FFF781FE54
:1063A000FFF79EFDBDE810400021FFF780BE000012
:1063B00010B5044602F02EFD05490648FDF7F8FF2A
:1063C0002046FFF7CEFF2046BDE8104002F0B0BCEB
:1063D00065EE0B0054E6032038B5044604300D4644
:1063E000FFF7B2FCE3686068023BAB4226BFA368DC
:1063F0005D5F002502F074FD284638BD08B53021E8
:10640000FFF7EAFF08BD08B53221FFF7E5FF08BD39
:1064100070B5044604300D461646FFF795FCE36858
:10642000023BAB4207D3A3685A5FB24203D05E532C
:10643000204602F07DFC6068BDE8704002F050BD6F
:1064400008B50A463021FFF7E3FF08BD08B50A4644
:106450003221FFF7DDFF08BD10B505F035FF054C13
:10646000014600234FF40052204600F0FBFF024B90
:10647000236010BDB8E4032088EE0B0008B50F4977
:106480000F48FDF795FF0021042005F093FE002141
:10649000082005F08FFE0121072005F08BFE00216A
:1064A000122005F087FE0121112005F083FE012155
:1064B000102005F07FFE012008BD00BFF4EE0B00A8
:1064C00054E6032010B5044651B10021112005F017
:1064D00082FE5CB90121BDE81040102005F07BBEB2
:1064E0000121112005F077FE002CF3D10021F2E705
:1064F00010B51849184890B02024FDF759FF2246DE
:106500000021684607F074FD224600210DEB0400CF
:106510008DF8054007F06CFD00210DEB04008DF8AF
:10652000254002F085FF41F2D833ADF806300B4B21
:10653000029341F27003ADF80C30009B002143F44C
:1065400000736846009302F073FF003818BF012003
:1065500010B010BD0DEF0B0054E60320840384033C
:1065600010B503682F2B044604D9074A07490A20AF
:1065700002F0BEFE23681F2B83BF03F01F030448F5
:1065800023604FF0A04010BD418F0B00AFEF0B0018
:106590000003005007EE900A9FED097AF8EEE77AC3
:1065A00067EE877A9FED077A87EE870ADFED067A36
:1065B00070EE677AB2EE040A87EE800A704700BF79
:1065C00000404E4500F07F450000FA4313B501211D
:1065D00001A804F0EEFDFFF783FCFFF70CFDFFF7C9
:1065E0007FFCFFF708FD252801A80DD904F074FEF3
:1065F000FFF776FC0121FFF74EFD002401A804F00F
:10660000E7FD204602B010BD04F04BFE0124F5E783
:1066100030B51B4D0FCD9BB010AC0FC40FCD0FC4C8
:1066200095E8030084E80300164908A803F0A8F8D9
:1066300008A803F0E8F8044608A803F01DF908A824
:1066400010EE105A03F048F91AAB10EE100A03EBE3
:10665000840407F0B3F8CDE90201284607F0AEF84C
:10666000CDE90001102154F8283C074A0DEB010048
:1066700002F0BCFF054804A9FDF79AFE1BB030BD2F
:1066800030F00B0010E60320D3EF0B0054E603209C
:10669000F0B5504E504C3378BFF35B8F13F0010FC1
:1066A00085B009D13046FDF709FD28B102F078FC2C
:1066B00020603046FDF707FD484B1D8823682D01FB
:1066C0005B5D5F013378BFF35B8FD90709D4414825
:1066D000FDF7F4FC28B102F063FC20603D48FDF7B3
:1066E000F2FC23682B4403A85B7803F01F033B43B1
:1066F0000393FFF735FF039A01239340C0F8083551
:10670000FFF7EEFB074605F056FB0246C317384677
:10671000FFF722FEFFF7E4FB0746FFF7E1FBFFF779
:106720002BFD013081B23846FFF783FDFFF7D8FB20
:106730000746FFF7D5FBFFF753FD013081B238461E
:10674000FFF77DFDFFF7CCFBFFF716FD0190FFF78C
:10675000C7FBFFF745FD019A214903462148FDF794
:1067600027FE4FF4FA7002F09DFF3378BFF35B8F82
:10677000DA0709D41748FDF7A1FC28B102F010FC94
:1067800020601448FDF79FFC23685B5D5F01337850
:10679000BFF35B8FDB0709D40E48FDF78FFC28B1F0
:1067A00002F0FEFB20600B48FDF78DFC23681D44C2
:1067B00003A86B7803F01F033B430393FFF7D0FE5E
:1067C000039B012202FA03F3C0F80C35104605B012
:1067D000F0BD00BFC8E40320CCE4032028EF0B0089
:1067E000ECEF0B0054E6032030B585B00D460022D7
:1067F0006946009202F0BEFD90B9009C0CB123697D
:1068000023B9084A08490A2002F072FD0C23CDE999
:1068100001350423039301AA2369012120469847E7
:1068200005B030BD418F0B0009F00B0037B525488E
:10683000254D03F035F902F08BFB044602F088FB8E
:10684000001BB0F57A7F05D202F082FB286002F0CF
:106850000DFEF3E7FFF744FB01A904460320FFF711
:10686000C3FF58BBBDF8043007EE903AFBEECC7A7C
:1068700017EE900A06F0A2FF41EC100B2046FFF73E
:1068800077FBFFF72DFB01A904460720FFF7ACFFBC
:10689000011EA8BF01992046C9B2FFF7FCFBFFF714
:1068A0001FFBFFF745FB094B51EC100B002207F0D3
:1068B0006DFA003818BF012003B030BDFFEE007A3A
:1068C000D6E700BFD0E4032010E7032000004E40CD
:1068D00013B5FFF705FB0F4B0446188805F0A7FC1E
:1068E000FFF758FEFDEEC07A2046CDED017A9DF807
:1068F0000410FFF7CAFBFFF799FFFFF767FEFFF7EA
:106900007DFAFFF764FB08B9FFF782FE012002B0B1
:1069100010BD00BF34EF0B000148002103F07CB82C
:10692000D0E40320704710B520210446FDF7B7FBE3
:10693000204610BD10B504468AB008464FF0200C22
:106940000021CDE90023CDE902C10B4602AA21684E
:1069500002F0DEFC0AB010BD0EB403B503AB322169
:1069600053F8042B0193FFF7E5FF02B05DF804EB49
:1069700003B070470EB403B503AB012153F8042BE9
:106980000193FFF7D7FF02B05DF804EB03B0704747
:1069900010B50272FF2242810022C0E90322426147
:1069A0000276C261024A034C1060C0E9004110BD8A
:1069B000DCE40320A8F20B002DE9F8439DF82080C9
:1069C0000446894616461F46B8F1000F02D04068BB
:1069D00003F00CF9217A606803F0E5F86068036859
:1069E00049469B6898476068002103F0FBF805461C
:1069F00000BB0123217A60683A4603F0C2F887425F
:106A0000034609D13744BE421CD0606803685B6905
:106A1000984706F8010BF6E70B490C484A46FFF782
:106A20009BFFB8F1000F02D0606803F0E8F8284639
:106A3000BDE8F8830346064904484A46FFF78CFF41
:106A40000025EEE70125ECE758F00B00D8E4032021
:106A50007DF00B0007B500930123FFF7ADFF03B0F6
:106A60005DF804FB73B54389FF2B044610D0194E23
:106A7000194D02F06DFAB0F57A7F09D2608905F000
:106A8000C3FB012804D031462846FDF791FCF0E70E
:106A900001230DF1070228212046FFF7DBFF30B963
:106AA0000D480E49FDF784FC002002B070BD9DF832
:106AB0000730182BF4D101230DF1070229212046BC
:106AC000FFF7C8FF0028EBD09DF80730052BE7D172
:106AD000EBE700BFA1F00B00D8E40320B6F00B00F9
:106AE00007B5134600228DF807200DF10702FFF7C6
:106AF000B1FF9DF8070003B05DF804FB2DE9F041FC
:106B00009DF8188004460F4615461E46B8F1000F42
:106B100002D0406803F06AF8217A606803F043F815
:106B20006068036839469B6898472E44B5426068A0
:106B300005D0036815F8011B9B689847F6E701210B
:106B400003F050F8034670B1084909483A46FFF788
:106B500003FF0025B8F1000F02D0606803F04FF882
:106B60002846BDE8F0810125F4E700BFC3F00B0023
:106B7000D8E403201FB58DF80F2000930DF10F020C
:106B80000123FFF7BBFF05B05DF804FBF8B50A462B
:106B90000C4605461A491B48FDF70AFC002CB8BFF5
:106BA000EC687CB9012322461B212846FFF7E2FF4F
:106BB0001549024606461348FFF7DCFEEC606C619F
:106BC0003046F8BD032C19DDA7101F2FA8BF1F27C3
:106BD000BA0062F07C020123D2B21B212846FFF7E3
:106BE000C9FF3A460346094906460648FFF7C2FE72
:106BF0004FF4FA635F43EC606F61E1E70127E7E779
:106C0000E8F00B00D8E40320F2F00B000EF10B00CB
:106C1000064B1A684AB1A0F500630B4305D1D3684F
:106C20001BB100211046FFF7B1BF7047DCE4032021
:106C30002DE9FF419DF82880054616461F46B8F10C
:106C4000000F04D04068019102F0D0FF019901913A
:106C500000230DF10F022846FFF7FCFE044660B149
:106C60009DF80F3003EA06023A43934205D001999A
:106C700000232846FFF77EFF0446B8F1000F02D03C
:106C8000686802F0BCFF204604B0BDE8F08113B58F
:106C900014460DF10702FFF7DDFE28B19DF807301D
:106CA0001C420CBF0120002002B010BD13B51446D9
:106CB0000DF10702FFF7CEFE28B19DF807301C4208
:106CC00014BF0120002002B010BD07B5D2430093CD
:106CD000D2B20023FFF7ACFF03B05DF804FB000065
:106CE00037B501230DF107020F210446FFF7B2FE6D
:106CF000054638B91E491F48AD22FFF72DFE28462C
:106D000003B030BD9DF8073013F0200F4FF00103A2
:106D10000BD02022E3610F212046FFF7D6FF164A51
:106D200016491448FDF744FBE9E7082217212046DD
:106D3000FFF7BCFF18B10223114AE361F0E79DF8A9
:106D400007301A0709D50323E361082201230F2125
:106D50002046FFF7BAFF0B4AE2E75B07CFD50422D4
:106D6000E26101230F212046FFF7AFFF064AD7E774
:106D700061F10B00D8E4032032F10B0080F10B002D
:106D80003BF10B004BF10B005BF10B0007B50093DF
:106D90001346FF22FFF74CFF03B05DF804FB000031
:106DA000F8B50F461646012300220F210546FFF7CE
:106DB000E1FE044638B94FF425721F491F48FFF71A
:106DC000CBFD2046F8BD0123232218212846FFF7DA
:106DD000D1FE044610B940F29B22EEE7FF2FA8BF78
:106DE000FF27012FB8BF01270123FAB21921284636
:106DF000FFF7C0FE044610B94FF42A72DDE7012305
:106E0000082212212846FFF7C1FF044610B940F2BC
:106E1000AF22D2E7002E14BF03220222012342F048
:106E2000800218212846FFF7A5FE04460028C8D195
:106E300040F2B922C1E700BF91F10B00D8E4032072
:106E40002DE9F7430A4605460F464F484F49FDF7DF
:106E5000AFFA00212846FFF799FE044648B940F2F0
:106E6000F7124B494848FFF777FD204603B0BDE8CD
:106E7000F08301231A4630212846FFF787FF044696
:106E800010B940F20522ECE71022012311462846F2
:106E9000FFF71BFF044610B94FF40372E1E701232B
:106EA000262213212846FFF765FE044610B940F25A
:106EB0001322D6E7012600963346FC2211212846EC
:106EC000FFF7B6FE044610B940F21B22C9E70022C4
:106ED00039462846FFF764FF044610B940F22222E3
:106EE000BFE700960223772210212846FFF7A0FE75
:106EF000044610B940F22B22B3E7334604221C218A
:106F00002846FFF743FF044610B940F23222A8E7B3
:106F100000961823E32211212846FFF789FE044634
:106F200010B940F239229CE73346C0221721284687
:106F3000FFF720FE044610B94FF4107291E702F0FB
:106F400007F8DFF85490DFF840804FF47A71064676
:106F50004F4301F0FDFF801BB8420ED201221721E2
:106F60002846FFF7BDFD494602464046FDF720FA98
:106F70004FF47A7002F096FBEBE706490248FFF700
:106F8000EBFC04F036FD70E7D8E40320BCF10B0005
:106F9000B1F10B00E2F10B00CDF10B002DE9F3474D
:106FA0009DF828A005460C4691461F46BAF1000FF1
:106FB00002D0406802F01AFE07B3202F3E4628BFD9
:106FC00020267F2C26D83319802B01D9C4F18006C6
:106FD000012304223F212846FFF777FE002364F0B7
:106FE0007F0100934A463346C9B22846FFF7E4FCC6
:106FF000804628B13444BF1BB144DDE74FF001089F
:10700000BAF1000F02D0686802F0F9FD404602B004
:10701000BDE8F087012304223F212846FFF7B6FE92
:10702000DCE72DE9F3479DF828A005460C4691467C
:107030001F46BAF1000F02D0406802F0D7FD07B337
:107040001F2F3E4628BF1F267F2C26D83319802BA2
:1070500001D9C4F18006012304223F212846FFF70D
:1070600034FE002364F07F0100934A463346C9B2E0
:107070002846FFF743FD804628B13444BF1BB14486
:10708000DDE74FF00108BAF1000F02D0686802F0A6
:10709000B6FD404602B0BDE8F087012304223F213F
:1070A0002846FFF773FEDCE730B585B00D68D1E9FF
:1070B000043203954D6802958D680195C968009169
:1070C0000133044902F26C72044604F02BFC2046A2
:1070D00005B030BDF4F10B0003090A2200F00F00E7
:1070E00002FB0300704738B5044600781546FFF7E9
:1070F000F3FF08606078FFF7EFFF4860A078FFF7C4
:10710000EBFF8860E078FFF7E7FFC8602079FFF7C2
:10711000E3FF013808612DB9651D2878FFF7DCFF12
:10712000886138BD6079FFF7D7FF6430A51D4861DD
:10713000F3E7000070B5012388B00D461A46102110
:107140000446FFF7A4FDF0B108230126204600966F
:107150000DEB03020021FFF72FFC044698B13246E5
:1071600029460DF10900FFF7BEFF04A8FFF79CFFB9
:107170000848049A0849FDF71BF904A804F00AFB23
:10718000204608B070BD24220021284606F030FFBA
:107190000024F5E7D8E4032012F20B0030B58BB0E1
:1071A0000D4601A9FFF7C6FF044620B101A802F071
:1071B00065FAC5E9000120460BB030BD0A2390FBFB
:1071C000F3F103FB110091FBF3F203FB121240EA0F
:1071D0000210C0B2704770B5054600680C461646EE
:1071E000FFF7ECFF20706868FFF7E8FF6070A868A1
:1071F000FFF7E4FFA070E868FFF7E0FFE0702869A0
:107200000130FFF7DBFF20712EB9661DA869FFF77B
:10721000D5FF307070BD6A69642392FBF3F003FB05
:107220001020FFF7CBFFA61D6071EFE7F0B587B028
:10723000054602A816460C46FFF736FF1E48029A7E
:107240001E49FDF7B5F802A804F0A4FA16B1686863
:1072500002F0CCFC204601220DF1090100278DF837
:107260000870FFF7B8FF01231A4610212846FFF7E0
:107270008DFD0446E8B1082300970DEB0302394663
:107280002846FFF73BFC044660B101231A46102153
:107290002846FFF71AFD16B1686802F0B0FC2046D8
:1072A00007B0F0BD4FF48D7205490348FFF754FB5A
:1072B000F1E74FF48F72F7E7D8E4032020F20B00D8
:1072C0002EF20B0013B504466846CDE9002306F004
:1072D00041FE9DF8102001462046FFF7A7FF02B0AF
:1072E00010BD0000F0B5057E89B0044675BB04F002
:1072F00045FD58B30026002704A92846CDE90467B8
:1073000002F0DCF810B30125257604F054FDC31714
:10731000CDE90203024600952046FFF7D3FF02A9FC
:107320002046CDE90267FFF739FF134B13491B686D
:10733000009304A8DDE9022304F0DEFC1048049A5F
:107340001049FDF735F804A804F024FA63698BB1FD
:1073500001F0FEFD2369C01A636998420AD301F067
:10736000F7FD4FF0FF312061204609B0BDE8F04045
:10737000FFF70CBC09B0F0BD18E00320ACE6032019
:10738000D8E4032049F20B0030B504468BB011B1AC
:10739000406802F0D9FB2046FFF764FB06AD0028E9
:1073A00037D02046FFF79CFC01231A4610212046C7
:1073B000FFF76DFCD8B104F0E1FCC0B902A920468A
:1073C000FFF7ECFEDDE9020104F0DDFB134B14498D
:1073D0001B6800932846DDE9022304F08DFC114868
:1073E000069A1149FCF7E4FF284604F0D3F90F4B45
:1073F00006930F4B09930F4B08934FF40062002341
:1074000002A80095FDF71EFC2846FCF739FF0BB0DB
:1074100030BD09490348FFF79FFAE8E718E0032069
:10742000ACE60320D8E403205FF20B00116C0B00E4
:10743000E9410B00D5410B007CF20B00014B024AE5
:107440001A607047D8E4032094F20B00704710B51F
:1074500010210446FCF723FE204610BD0368C9B284
:107460009B68184730B5034DC0E90223C0E90051BD
:1074700030BD00BFC0F20B00406802F065BB10B524
:107480000446006802F0BBFB204610BD2DE9F7431F
:107490000446406801900D4616461F4602F0A6FBC2
:1074A000A7B1E168606841F0500102F080FB290A51
:1074B0006068FFF7D3FF29466068FFF7CFFF606879
:1074C000002102F08FFB48B1002400E0012401A854
:1074D000FFF7D5FF204603B0BDE8F083202F217BC6
:1074E0006068B84628BF4FF020080123424641F0AB
:1074F000500102F046FB04F0E7FE03681B69984761
:107500004045E1DB06EB080904F0DEFE03685B6939
:10751000984706F8010B4E45F6D14544A7EB0807FE
:10752000BEE72DE9F74F0446406801900E469046AD
:107530001D4602F05BFB4FF00109B9F1000F2AD0A4
:107540004DB3E168606841F0500102F030FB310A50
:107550006068FFF783FF60683146FFF77FFFA5F1A2
:107560001E0A4746A6EB080B606817F8011B036864
:10757000013D9B68984755450BEB0706B84601D07F
:10758000002DF1D16068012102F02CFB0028D7D03A
:107590004FF00009D1E701A8FFF771FF484603B09B
:1075A000BDE8F08F2DE9F0438BB00E4615468046BE
:1075B000406801901C4602F019FBAE4229D22644D5
:1075C00025448CB11E2C2746D8F8003028BF1E2732
:1075D000F61BD3F8089002AA3B4631464046ED1B05
:1075E000C84748B9002400E0012401A8FFF747FF7D
:1075F00020460BB0BDE8F083D8F8003002AAD3F8DB
:107600000C9029463B464046C8470028EAD0E41B78
:10761000D7E7E9D9002CE7D0D8F800301E2C274650
:1076200028BF1E27D3F8089002AA3B4631464046A1
:10763000C8470028D6D0D8F8003002AAD3F80C905A
:1076400029463B464046C8470028CBD03E443D44EF
:10765000E41BDFE701600271704700680368DB68C4
:107660001847006803681B6A1847006803689B6A2C
:10767000184700797047006803689B6B184737B557
:1076800005460C4619460192FFF7F5FF2868019A56
:1076900003685B69214603B0BDE8304018470068C5
:1076A0000368DB6B184738B50446006803680D466D
:1076B0005B6B984729462046FFF7F1FF257138BDDF
:1076C00038B50446006803689B689847054618B1BA
:1076D00021792046FFF7E7FF284638BD0068036898
:1076E0001B6C1847006803685B6C184700680368E8
:1076F000DB6C1847006803681B6D18470068036857
:107700005B6D1847006803689B6D18472DE9F843C7
:10771000044600680A9F1E4603681B69DDE9089855
:1077200098470546C8B11EB12046FFF7E3FF307009
:10773000B9F1000F04D02046FFF7D8FF89F8000008
:10774000B8F1000F04D02046FFF7D8FF88F80000FA
:107750001FB12046FFF7D6FF38702846BDE8F883F2
:10776000012070470379032BFCD0012070470020D3
:1077700070478171704741717047C17270470173E2
:10778000704741737047837B23EA02021143817380
:107790007047C0797047007A7047407A7047807AA6
:1077A0007047008A00B270470079704701717047D6
:1077B000408A80B27047808A80B27047C08A80B2A7
:1077C000704738B505460C462B682846DB68984755
:1077D00028B9002CF8D0204601F064FFF4E738BD4A
:1077E000F8B505460F46144601F0B2FB064601F017
:1077F000AFFB801BB8420AD22B682846DB6898474B
:1078000030B9002CF3D0204601F04CFFEFE7002008
:10781000F8BD70B504460E4601F09AFB054601F02E
:1078200097FB401BB04204D22379032BF7D00120F1
:1078300070BD0020FCE770B5C3690446B3B101F028
:1078400087FB64260546236820461B6B984768B172
:1078500001F07EFBE369401B984209D80A21012010
:1078600003F0BFFE704301F01DFFECE7012070BD87
:107870000020FCE7064A0260FF21002202714171EC
:107880004282C172828281818273C282C2617047E8
:10789000DCF20B00704770477047704770474171CA
:1078A00070478171704701717047000030B5034D1A
:1078B000056001714271837130BD00BF5CF30B0044
:1078C000704710B510210446FCF7E9FB204610BDB7
:1078D0000EB403B503AB002153F8042B019303F05E
:1078E00044FE02B05DF804EB03B0704773B5044684
:1078F00008462279A36832B1A3B90B4902B0BDE8AA
:10790000704003F029BD094A267B094D0949647B73
:10791000012E18BF2946CDE900140749FFF7D8FF0B
:1079200002B070BD054AEFE799F30B00B1F70B0009
:1079300095F30B0091F30B00AFF30B0088F30B00F2
:1079400010B50446FFF7B2FF054B2360054BA3605B
:107950000123237300232361A382204610BD00BFAF
:10796000E8F30B00D4F30B0013B50B4C2178BFF3F5
:107970005B8F11F001010BD120460191FCF79EFBBA
:10798000019928B1054803F045FE2046FCF79BFB12
:10799000024802B010BD00BFE0E40320E4E403208D
:1079A00007B50191FFF7E0FF019903B05DF804EB23
:1079B00003F0E8BE08B5FFF7D7FFBDE8084003F0C5
:1079C000E7BE08B5FFF7D0FFBDE8084003F0E1BE11
:1079D00010B50379042B20D0032B20D0022B20D00C
:1079E000114A1249012B18BF0A464179837901399E
:1079F00018BF012133B1012B04D0022B02D0032B7D
:107A000018BF002300240473026101754375FFF75A
:107A1000ABFFBDE8104003F007BE054AE5E7054AA5
:107A2000E3E7054AE1E700BF80841E0040420F0003
:107A30000024F40000127A0000093D0008B5FFF7A9
:107A400093FFBDE8084003F003BE10B50446FFF7FE
:107A50008BFF04F10801BDE8104003F025BE08B516
:107A6000FFF782FFBDE8084003F004BE08B5FFF74A
:107A70007BFF08BD002302481A461946FFF760BF86
:107A8000ECE40320012A05D1007A0B781B1A584236
:107A900058417047002070472DE9F047254C0123DD
:107AA00086B02370637000230F46A17000930322F9
:107AB000FF232146064600F0B9FB20B100252846E9
:107AC00006B0BDE8F0877A238DF8173001F040FA50
:107AD00006F10409804608F57A6501F039FA291A99
:107AE0000029EBDD002289B24846FFF7BEFD0028E1
:107AF000F3D00023CDE90233CDE900330DF11702B5
:107B00002146304600F09CFB05460028E3D09DF856
:107B10001730012BDFD994F800A0BAF1020FDAD1A7
:107B20004846FFF7E7FD534602463946304600F027
:107B3000F5FAC4E704E50320012A2DE9F3410746DD
:107B40000E4614463BD94D79022D30D100F1040880
:107B5000C97901914046FFF7CDFD083C2B4602460E
:107B60000199384600F0DAFAE5B206F1080300247C
:107B70002246954204F10104E4B204D913F8012B22
:107B8000397A9142F4D104F108010E44A54216D984
:107B900016F8011B01914046FFF7ACFD0134024687
:107BA000019902233846E4B200F0B8FAEEE7032D5B
:107BB00005D1897902B0BDE8F04100F098BA02B071
:107BC000BDE8F08110B5044600F0E8FA014B2360EF
:107BD000204610BD1CF40B002DE9F047792A9DF8D2
:107BE000209006460F4614461D4625D8FF2B14D17B
:107BF000DFF84880404600232246394600F8013B22
:107C000006F0CEF9621CCDF820902B464146304656
:107C1000D2B2BDE8F04700F009BB194600F023FAE4
:107C20000028E5D1336829469B68304698470028EC
:107C3000DED10220BDE8F0870120FBE704E5032048
:107C40002DE9F04F89B098467A238DF81A300DF15E
:107C50001F0303930DF11E0302935D4E0DF11D03EF
:107C6000019307AB0093894617460DF11B030DF1F5
:107C70001A023146DDE912BA054600F0E1FA04467F
:107C800020B90024204609B0BDE8F08F9DF81A30D5
:107C900073B3327862BBB8F1000F03D09DF81B209C
:107CA00088F80020BBF1000F03D09DF81C208BF852
:107CB0000020BAF1000F03D09DF81D208AF80020A3
:107CC000149A1AB114999DF81E200A70159A1AB1C7
:107CD00015999DF81F200A703A783E49013BDBB2A6
:107CE0009A4288BF3B703A78484606F059F9C9E78E
:107CF0009DF81C20FF2AC4D1012BC2D93278012A59
:107D0000BFD12A7A9DF81B40A242BAD0DF1E324969
:107D1000FFB200235FFA83F8474506D911F8010B3B
:107D2000824203F10103F5D1ABE705F104094846AE
:107D3000FFF7E0FC022302462146284600F0EEF958
:107D400095F8173193B1224CA31BDBB29F420CD99B
:107D5000E17805914846FFF7CDFC059902460223DC
:107D6000284600F0DBF90134EEE7B8462B6872785C
:107D7000DB681A4928469847044660B1022300246C
:107D800033709DF81A209DF81B3011490094284645
:107D900000F04CFA76E795F8163143457FF671AF5F
:107DA00095F81731002B3FF46CAF9DF81A202B7A11
:107DB00007493E440132F3709DF81B300190D2B266
:107DC00000932846FF238DF81A2000F0F9F959E7AF
:107DD00004E5032005E5032007E5032006E503206D
:107DE000F0B585B0054604300E460392FFF782FCDD
:107DF000039A07463146284600F04CF9022804460B
:107E000001D005281BD13178284600F070F972782E
:107E10002B7A9A4213D00B4C032323703378637070
:107E2000717802233A46284600F078F9002300933F
:107E3000214673780222284600F0F8F904462046CD
:107E400005B0F0BD04E5032010B50446FFF702FCC1
:107E5000C8230021E3810323A160217323744FF41D
:107E6000807204F1110006F0C3F8204610BDC181F4
:107E700070471FB504460192FFF730FC20460022F0
:107E80008021FFF72FFC2122019B8DF80F200DF19F
:107E90000F0101222046FFF7F2FB2046FFF7E1FB2E
:107EA00004B010BD2DE9F04F057B0135EDB287B070
:107EB000044689469246984605730027227C3B4635
:107EC0009A4207F10107FFB26BD329462046FFF71C
:107ED00005FC012F0DBFC022802240210021204639
:107EE000FFF700FC4346524649462046FFF7C7FBD2
:107EF0002046FFF7B6FBB8F1FF0F54D0012F82BF29
:107F0000A3680133A36001F023F84FF48071834626
:107F10000020E68903F065FB704348BFFF3006EBA5
:107F200020261BFA86F601F013F8301A0028C5DD6A
:107F300081B200222046FFF798FB0028F3D00DF114
:107F4000170302930DF11603019300220DF115039F
:107F50000093114605AB2046FFF7D8FB0028E2D07E
:107F60009DF814209DF9173042450ED194F804C0B5
:107F70009DF815108C4508D1002B08DA9DF81630B5
:107F8000AB42D0D107B0BDE8F08F002BCBDBA118FE
:107F90009DF81630497C9942C5D12046FFF769FF0C
:107FA000C1E70020EEE70120ECE72DE9F04389B0BE
:107FB000CDE90421DDE91098129F04461E46FFF723
:107FC0004CFBDDE9042120B90025284609B0BDE8B5
:107FD000F0830DF11F0302930DF11E0301930DF1C8
:107FE0001D030093204607ABFFF790FB05460028D2
:107FF000EAD09DF91F30002BE6DB22799DF81D3079
:108000009A4206D19DF81C209DF81E102046FFF7CD
:1080100030FF9DF81F209DF81C109DF81E3012F0B7
:10802000400F0C4402D0607C9842CDD006B1317034
:10803000B9F1000F03D09DF81D1089F80010B8F1B8
:10804000000F01D088F8003007B13A706374BCE7C4
:10805000704710B504460430FFF732FB10B11E2301
:1080600084F8163110BD10B50246002392F818416D
:108070008C4208D192F81A412CB103EB430303F56B
:108080008C73184410BD0133322B02F10302EDD181
:108090000020F7E737B50B78FF2B05460C4606D0D6
:1080A00019460192FFF7DFFF58B14378019A214644
:1080B000281DFFF7F7FE002814BF0020052003B09D
:1080C00030BD0220FBE710B501EB41030446C1F1CE
:1080D000310203F58C7003F21B1102EB42022144C2
:1080E000204405F05DFF002384F8AD3110BD38B5A4
:1080F0000A46002300F58C7403EB4305D9B2655D95
:10810000954203D1FFF7DFFF012038BD0133322B49
:10811000F2D10020F9E70021FFF7D5BFF8B51646E8
:108120001F4604460D46002300F58C7203EB430006
:10813000115CA94205D1204480F8196180F81A71B8
:10814000F8BD0133322BF1D1002304F58D7203EB1E
:108150004300115C19B9204480F81851ECE7013351
:10816000322BF4D12046FFF7D6FF204604F19603C8
:1081700090F81A212AB980F8185180F8196180F80E
:108180001A7103309842F3D1DAE700F19603002226
:1081900080F81A2103309842FAD1704710B504468E
:1081A0000430FFF751FE054B23604FF48F732046D8
:1081B000A4F81631FFF7E9FF204610BD34F40B0098
:1081C0002DE9F3470446406801911F4603689DF876
:1081D00028A09B699DF82C901646984706F1050843
:1081E00080451CD8104D019985F801A00023AB7083
:1081F00094F81531EB705A1C84F81521681D32462D
:108200002F7085F8049005F0CBFE23685B685FFA59
:1082100088F22946204602B0BDE8F0471847012001
:1082200002B0BDE8F08700BF7EE5032013B59DF8DE
:1082300010400194047A0094FFF7C2FF02B010BD11
:108240002DE9F04F87B01F467F238DF813300DF1D5
:1082500017030293DFF8D0900DF1160301930DF18F
:108260001503009304468846164605AB0DF113022C
:1082700049460430DDE910BAFFF797FE054608B914
:10828000002538E023689DF813201B6849462046E6
:10829000984799F80030227A9A4201D0FF2B2ED1CC
:1082A00017B1214B5B783B70BBF1000F03D01E4B25
:1082B0001B788BF80030BAF1000F03D01A4BDB7833
:1082C0008AF80030129B1BB1174B129A1B7913705E
:1082D000139B1BB1144B139A9B7813709DF81330AA
:1082E00032781249053BDBB29A4288BF337032784C
:1082F000404605F055FE284607B0BDE8F08F99F8D6
:1083000002305A1C89F8022094F816219A42B7D9F3
:1083100094F81731002BB3D023689DF813205B68C5
:10832000494620469847ABE77EE5032083E50320D6
:1083300010B50446006A0368DB68984794F8240087
:10834000FF2802D0012103F035FF23682046DB6FB0
:108350009847642001F0A6F9012010BD90F8240090
:10836000002103F038BF90F82400012103F033BF4F
:1083700070B504460D461646FFF77CFA034B2360A2
:10838000266284F82450204670BD00BF44F40B00E0
:1083900038B50446006A03681B6A0D46984723688F
:1083A00020469B6F9847206A036805F07F011B6891
:1083B0009847206A036800211B6898472368054690
:1083C000DB6F20469847206A03685B6A9847284617
:1083D00038BD70B50446006A03681B6A16460D4630
:1083E0009847236820469B6F9847206A036845F0AA
:1083F00080011B6898470546206A036831461B6860
:108400009847012000F09CFD23682046DB6F9847C9
:10841000206A03685B6A9847284670BDF8B5044631
:10842000006A1E4603681B6A0F4615469847236874
:1084300020469B6F9847206A036807F07F011B68FE
:1084400098472E440746B54207D0206A03680021AA
:108450001B68984705F8010BF5E723682046DB6F9A
:108460009847206A03685B6A98473846F8BDF8B5B4
:108470000446006A1E4603681B6A0F461546984765
:10848000236820469B6F9847206A036847F0800165
:108490001B6898472E440746B54206D0206A15F857
:1084A000011B03681B689847F6E723682046DB6FCB
:1084B0009847206A03685B6A98473846F8BD006AA7
:1084C00003689B6A184701207047FB20704770477C
:1084D00010B50379052B044610D003680521D3F8A5
:1084E00080309847072201212046FFF772FF802243
:1084F00040212046FFF76DFF052323712379052BCB
:10850000FCD0207E10BD10B54FF498710446FBF7E7
:10851000C6FD204610BD10B50379012B04460BD0D3
:1085200003680121D3F880309847002201212046BA
:10853000FFF74FFF01232371012010BDF8B5036839
:10854000DB6804460F46154698470646B0B187B12A
:108550007DB194F828302A78033B9342DEBF94F82B
:108560002830043B2B702A7804F12D01384605F0A1
:1085700017FD002384F8283184F828303046F8BDF0
:10858000142938B505460C4614DC012914DD1129DF
:1085900013DD07224D212846FFF71BFF033C64B281
:1085A000A21E62F07F022846D2B2BDE838400921FF
:1085B000FFF70FBF1424ECE7022404224D212846C4
:1085C000FFF707FFECE7000038B5044615461A46EA
:1085D000FFF7CEFE094B2360FF22002384F82720FB
:1085E000012284F8283184F82C3184F8265084F84C
:1085F0002B2184F82530204638BD00BF2CF50B0018
:1086000090F82830032B1BD990F82930C37190F8CB
:108610002A30037290F82B30437290F82C3083721A
:10862000837933B9C37942799A4202D0C379FF2B57
:1086300006D1838A01339BB28382012380F82831DB
:10864000704700000000000038B504462DED028B95
:1086500010EE100AB0EE408A05F0B0F817A3D3E987
:10866000002305F003F917A3D3E9002305F028FA46
:1086700005F0D4FB06210546C0F307422046FFF76C
:10868000A8FEC5F3072207212046FFF7A2FEEAB2A3
:1086900008212046FFF79DFEDFED077AB4EEE78A5A
:1086A000BDEC028BF1EE10FAACBF012300230120D8
:1086B00084F8293138BD00BF00C0424400000000EA
:1086C00080842E410000000080844E4010B5037964
:1086D000022B04460BD003680221D3F88030984760
:1086E000012211462046FFF774FE0223237110BDBC
:1086F00070B512210446FFF74BFE1C2105462046AB
:10870000FFF746FEFF22064612212046FFF761FED4
:108710002379042B07D115F0A00F17D194F82B3132
:108720000BB1700612D52379042B01D1690622D42E
:108730002379032B01D12A0768D42379052B0ED185
:108740006B070CD505F00105257663E0638A0133DC
:108750009BB26382002384F8283184F82830FF22FA
:1087600012212046FFF735FE2046FF22BDE870406B
:108770001221FFF72EBE13212046FFF709FE10211C
:1087800005462046FFF704FE0D2102462046FFF76E
:1087900020FE04F129022B4600212046FFF73EFE71
:1087A000192184F828502046FFF7F2FD40B2002836
:1087B000B8BF0330801084F82A011A212046FFF741
:1087C000E7FD94F92A3100B2002B2082A9BF238A49
:1087D000228A1BB21B01B2BF9B180F2293FBF2F33C
:1087E0001BB2238294F829316BB1238A9D3B1BB2C3
:1087F00023822046FFF704FF94F82831002BAED0E7
:10880000FFF764FFABE7238AA43BF0E7E38A013379
:108810009BB2E3822046F3E7024B186808B1FFF7EA
:1088200067BF704700E60320024B586808B1FFF7A6
:108830005FBF704700E60320024B986808B1FFF75E
:1088400057BF704700E6032010B50379042B044698
:1088500010D003680421D3F8803098470522012105
:108860002046FFF7B6FD002240212046FFF7B1FD6C
:108870000423237110BD10B50379032B044605D0E2
:10888000FFF7E2FF94F82801C0B210BD0020FCE71A
:1088900010B50379032B044610D003680321D3F8E5
:1088A00080309847032201212046FFF792FD4022A5
:1088B00011462046FFF78DFD0323237110BDFB2ACF
:1088C000F8B504460F46154602D900263046F8BDD5
:1088D00003681B6A98472046FFF7F8FE2368204686
:1088E000DB6A984706460028EFD000220D2120467B
:1088F000FFF76FFDE27A00212046FFF76AFD227B39
:1089000000212046FFF765FD627B00212046FFF72E
:1089100060FDA27B00212046FFF75BFD2B463A4617
:1089200000212046FFF7A3FD2A1DD2B222212046B6
:10893000FFF74FFD2046FFF7ABFFC7E710B5044632
:1089400080F8252072B181F3040242F07002D2B2A5
:108950000921FFF73EFD20460422BDE810404D21CD
:10896000FFF737BDBDE81040FFF70ABE38B50C462B
:1089700005460A781D21FFF72CFD62781E21284646
:10898000FFF727FDA27828462621BDE83840FFF7EB
:1089900020BD0000052913B50FD8094B01EB41019B
:1089A0005C185A5AA378ADF8042001A98DF8063056
:1089B000FFF7DCFF012002B010BD0020FBE700BF85
:1089C00014F50B0038B50A0A05460C462021FFF7BE
:1089D00000FDE2B228462121BDE83840FFF7F9BC8E
:1089E00073B50446FFF7A4FC064618B900263046C6
:1089F00002B070BD94F82650FF2D54D02946204671
:108A0000FFF75DFD802201212046FFF7E2FC0A20EE
:108A100000F048FE01212046FFF7BAFC8028E5D18E
:108A200094F82600FF281CD0002103F0C3FB94F823
:108A30002730FF2B07D1264A1378032BD6D8591C91
:108A4000117084F8273094F82720224B43F82240F5
:108A500062BB214900924FF0FF330122A8B201F01E
:108A6000D9F800220E212046FFF7B3FC00220F2187
:108A70002046FFF7AEFC2046FFF728FE00212046E7
:108A8000FFF788FF08212046FFF79CFF9FED130AA0
:108A90002046FFF7D9FD002384F825300D2120461C
:108AA000FFF76EFDA3E74FF0FF35ABE7012A4FF06C
:108AB000000304D100930A494FF0FF33CEE7022AA6
:108AC00094D1009307494FF0FF330122C6E700BF5E
:108AD000FDE5032000E6032019880B000000D943C0
:108AE00029880B0039880B0090F92A017047000093
:108AF0002DE9F0431D218BB00746FFF749FC1E21ED
:108B000006463846FFF744FC274D84460FCD6C4699
:108B10000FC40FCD0FC495E803000AAB84E803002F
:108B2000C6F30716CCF3071003EB860604F024FE09
:108B30009FED1B0B41EC110B56F8285C03F054FC25
:108B40002621384659EC108BFFF722FC174B00F01A
:108B5000F70400224046494604F088FE8046284635
:108B6000894604F02BFE02460B464046494604F077
:108B7000A7FF05F073F907EE100AF3EE007AB4EEE2
:108B8000E77AF1EE10FACCBF44F008022246262123
:108B900038460BB0BDE8F043FFF71BBCAFF30080D5
:108BA0000000000000000040ECF40B0000408F408B
:108BB00003685B68184710B58369044633B131B167
:108BC000236820469B6898470023A36110BD00F0EE
:108BD000BFF9A369C01AE3699842F1D2F6E710B56C
:108BE000C36904461BB100F0B3F9A06110BD03686E
:108BF000BDE810409B68184700F072B907B51346EE
:108C000039B10022CDE900220A4601681E2000F099
:108C10008FFB03B05DF804FB37B590F820300446B5
:108C20009BB183680A4DDA880A492846FBF7C0FBE6
:108C3000A1682846CA88FFF7E1FF00230093064A8F
:108C4000296801231E2000F06BFB03B030BD00BF7C
:108C500054E60320B0F50B00B0F70B0010B5044646
:108C60000430FDF771F82368E1685B692046984796
:108C700018B9236820469B6998476068FFF7BCFFD6
:108C8000012010BDF0B521F00304184F184E194D06
:108C90000444A0420CD050F8043B7B434FEA73439A
:108CA00073435A404FEAF24202EB82022A44F0E751
:108CB00001F0030404440023A04204D014F8015D31
:108CC00045EA0323F8E70948434309484FEA734359
:108CD0004A4058435040084B80EA10405843074BE5
:108CE00080EA5030584380EA1040F0BD512D9ECCB0
:108CF0009335871B646B54E66BCAEB8535AEB2C205
:108D0000F8B504460430FDF71FF8A36800229F68F9
:108D10009A60A668054AF1883046FFF7B3FFB7604E
:108D200005466068FFF768FF2846F8BD3F2A1C85A6
:108D300070B504468568FFF7E3FFA8602368204606
:108D40001B69BDE870401847F7B504460D46FFF7AC
:108D5000D7FF94F82030064693B1294F29492A4677
:108D60003846FBF725FBA1682A463846FFF746FF41
:108D700000230093244A396801231E2000F0D0FA12
:108D80000B2D23D9A3682269196891421FD19988B4
:108D9000A28A91421BD1D988AAB2914217D89A6867
:108DA000B24214D1E268AA4205D900215955E268BD
:108DB0000135AA42FAD8D4E902322046DA80A56801
:108DC000FFF79EFFA860012003B0F0BD9DB1A16830
:108DD0000A6892B188688B880190C9880848009118
:108DE0000A49FDF7C7FDCDE90056A38A2269084963
:108DF0000348FDF7BFFD0020E6E71046E4E700BFAB
:108E000054E60320C4F50B00B0F70B00DCF50B00B3
:108E10000DF60B0038B50446C2688068002105F0E5
:108E2000E7F8A36822691A60A368A28A9A80D4E945
:108E300002322046DA80A568FFF762FFA86038BDDD
:108E400008B5024B1B685B6C019308BD74020300FC
:108E500008B5024B1B68DB68019308BD480203009C
:108E600008B5024B1B68DB69019308BD480203008B
:108E700008B5024B1B681B6A019308BD480203003A
:108E800008B5024B1B685B6A019308BD48020300EA
:108E900008B5024B1B689B6A019308BD480203009A
:108EA00008B5024B1B68DB6A019308BD480203004A
:108EB00008B5024B1B685B6C019308BD48020300B8
:108EC00008B5024B1B689B6C019308BD4802030068
:108ED00008B5024B1B68DB6C019308BD4802030018
:108EE00008B5024B1B685B6D019308BD4802030087
:108EF00008B5024B1B689B6D019308BD4802030037
:108F000008B5024B1B681B6F019308BD48020300A4
:108F100008B5024B1B685B6D019308BD340203006A
:108F200008B5024B1B685B6E019308BD3402030059
:108F300008B5024B1B685B68019308BD180203006B
:108F400008B5024B1B68DB68019308BD18020300DB
:108F500008B5024B1B685B69019308BD180203004A
:108F600008B5024B1B689B6D019308BD18020300F6
:108F700008B5024B1B68DB6D019308BD18020300A6
:108F800008B5024B1B685B6E019308BD1802030015
:108F900008B5024B1B689B6E019308BD18020300C5
:108FA00008B5024B1B681B68019308BD2C02030027
:108FB00008B5024B1B685B68019308BD2C020300D7
:108FC00008B5024B1B689B68019308BD2C02030087
:108FD00008B5024B1B68DB68019308BD2C02030037
:108FE00008B5024B1B681B69019308BD2C020300E6
:108FF00008B5024B1B685B69019308BD2C02030096
:1090000008B5024B1B689B69019308BD2C02030045
:1090100008B5024B1B68DB69019308BD2C020300F5
:1090200008B5024B1B681B6B019308BD2C020300A3
:1090300008B5024B1B68DB68019308BD28020300DA
:1090400008B5024B1B689B69019308BD2802030009
:1090500008B5024B1B68DB69019308BD28020300B9
:1090600008B5024B1B681B6A019308BD2802030068
:1090700008B5024B1B685B6A019308BD2802030018
:1090800008B5024B1B689B6A019308BD28020300C8
:1090900008B5024B1B68DB6A019308BD2802030078
:1090A00008B5024B1B681B6B019308BD2802030027
:1090B00008B5024B1B685B6B019308BD28020300D7
:1090C00008B5024B1B681B6C019308BD2802030006
:1090D00008B5024B1B689B6C019308BD2802030076
:1090E00008B5024B1B68DB6C019308BD2802030026
:1090F00008B5024B1B681B6D019308BD28020300D5
:1091000008B5024B1B685B69019308BD640203004C
:1091100008B5024B1B689B68019308BD68020300F9
:1091200008B5024B1B68DB68019308BD68020300A9
:1091300008B5024B1B681B68019308BD3002030091
:1091400008B5024B1B685B68019308BD3002030041
:1091500008B5024B1B685B69019308BD3002030030
:1091600008B5024B1B68DB69019308BD30020300A0
:1091700008B5024B1B681B6A019308BD300203004F
:1091800008B5024B1B685B6A019308BD30020300FF
:1091900008B5024B1B68DB6B019308BD300203006E
:1091A00008B5024B1B681B6C019308BD300203001D
:1091B00008B5024B1B685B6C019308BD30020300CD
:1091C00008B5024B1B689B68019308BD3C02030075
:1091D00008B5024B1B68DB68019308BD3C02030025
:1091E00008B5024B1B681B69019308BD3C020300D4
:1091F00008B5024B1B685B69019308BD3C02030084
:1092000008B5024B1B689B69019308BD3C02030033
:1092100008B5024B1B68DB69019308BD3C020300E3
:1092200008B5024B1B681B6A019308BD3C02030092
:1092300008B5024B1B689B6A019308BD3C02030002
:1092400008B5024B1B68DB6A019308BD3C020300B2
:1092500008B5024B1B681B6C019308BD3C02030060
:1092600008B5024B1B681B68019308BD4C02030044
:1092700008B5024B1B685B68019308BD4C020300F4
:1092800008B5024B1B689B68019308BD4C020300A4
:1092900008B5024B1B681B69019308BD4C02030013
:1092A00008B5024B1B685B69019308BD4C020300C3
:1092B00008B5024B1B689B69019308BD4C02030073
:1092C00008B5024B1B68DB69019308BD4C02030023
:1092D00008B5024B1B681B6A019308BD4C020300D2
:1092E00008B5024B1B689B6A019308BD4C02030042
:1092F00008B5024B1B685B6B019308BD600203005D
:1093000008B5024B1B681B6D019308BD600203008A
:1093100008B5024B1B685B6D019308BD600203003A
:1093200008B5024B1B689B6D019308BD60020300EA
:1093300008B5024B1B685B6E019308BD6002030019
:1093400008B5024B1B68DB6E019308BD6002030089
:1093500008B5024B1B681B6F019308BD6002030038
:1093600008B5034B1B68D3F88030019308BD00009B
:109370006002030008B5034B1B68D3F898300193D3
:1093800008BD00006002030008B5024B1B681B68A3
:10939000019308BD2002030008B5024B1B685B68FF
:1093A000019308BD2002030008B5024B1B685B69EE
:1093B000019308BD2002030008B5024B1B681B6A1D
:1093C000019308BD2002030008B5024B1B68DB6A4D
:1093D000019308BD2002030008B5024B1B689B6D7A
:1093E000019308BD2002030008B5024B1B68DB6D2A
:1093F000019308BD2002030008B5024B1B68DB6F18
:10940000019308BD2002030008B5034B1B68D3F885
:109410008830019308BD00002002030008B5034B0B
:109420001B68D3F89430019308BD000020020300AC
:1094300008B5034B1B68D3F8A830019308BD0000A2
:109440002002030008B5034B1B68D3F8AC3001932E
:1094500008BD00002002030008B5034B1B68D3F8C9
:10946000B030019308BD00002002030008B5024B94
:109470001B689B68019308BD4402030008B5024BBA
:109480001B68DB68019308BD4402030008B5024B6A
:109490001B685B69019308BD4402030008B5024BD9
:1094A0001B68DB69019308BD4402030008B5024B49
:1094B0001B681B6B019308BD4402030008B5024BF7
:1094C0001B685B6B019308BD4402030008B5024BA7
:1094D0001B68DB6B019308BD4402030008B5024B17
:1094E0001B685B6C019308BD4402030008B5024B86
:1094F0001B685B68019308BD4002030008B5024B7E
:109500001B689B68019308BD4002030008B5024B2D
:109510001B68DB68019308BD4002030008B5024BDD
:109520001B681B69019308BD4002030008B5024B8C
:109530001B685B69019308BD4002030008B5024B3C
:109540001B689B69019308BD4002030008B5024BEC
:109550001B68DB69019308BD4002030008B5024B9C
:109560001B681B6A019308BD4002030008B5024B4B
:109570001B681B6B019308BD4002030008B5024B3A
:109580001B685B6B019308BD4002030008B5024BEA
:109590001B681B6C019308BD4002030008B5024B19
:1095A0001B685B6C019308BD4002030008B5024BC9
:1095B0001B681B68019308BD1C02030008B5024B21
:1095C0001B685B68019308BD1C02030008B5024BD1
:1095D0001B689B68019308BD1C02030008B5024B81
:1095E0001B681B69019308BD1C02030008B5024BF0
:1095F0001B68DB69019308BD1C02030008B5024B20
:109600001B685B6A019308BD1C02030008B5024B8E
:109610001B68DB6A019308BD1C02030008B5024BFE
:109620001B68DB6B019308BD1C02030008B5024BED
:109630001B681B6C019308BD1C02030008B5024B9C
:109640001B685B6C019308BD1C02030008B5024B4C
:109650001B689B6C019308BD1C02030008B5024BFC
:109660001B68DB6C019308BD1C02030008B5024BAC
:109670001B681B6D019308BD1C02030008B5024B5B
:109680001B685B6D019308BD1C0203008A4210B584
:1096900007D0441A0298C01A4443501A94FBF0F0C1
:1096A000184410BD0021FFF77FBE10B54368013B91
:1096B0000446436063B903689B689847A368013B0D
:1096C000A3602BB923682046DB68BDE8104018472B
:1096D00010BD70B5D0E90053044605EB0316AE4249
:1096E00004D0284602F056F81035F8E72068FFF756
:1096F00065FF204670BD10B50446006808B1FFF74D
:10970000D4FF204610BD0000024800230360FFF78D
:10971000CFBB00BF0CE60320002240681146FFF7D4
:10972000FDBE002240681146FFF718BF00224068C6
:109730001146FFF723BF40680022FFF717BF4068BC
:10974000002281F00101FFF701BF002340681A46A3
:109750001946FFF7F3BE002340681A461946FFF783
:10976000E5BE002240681146FFF7C8BE40680022EF
:109770000221FFF7CBBE002340681A46FFF7B6BEB2
:1097800070B5134B03601825303386B00E46436026
:109790002A4600210446083004F02AFC00227068A2
:1097A0001146FFF7BBFE78B100212A46684604F057
:1097B0001FFC69460020ADF80050FFF741FB18B9C7
:1097C0006946204600F0B8F8204606B070BD00BFDC
:1097D000A8F60B00084B10B5282422461846002195
:1097E00004F006FC054B04804FF0FF324260042277
:1097F0005A60034A1A6010BD18E6032010E60320E1
:109800006CF60B007047007B7047037B4BB103691C
:10981000B3F1004F05D08069B0F1004018BF0120BE
:1098200070470020704703681B6A184770B50368CB
:109830000D461B69064698470221284601F086FE20
:109840002C210446284601F08BFD336804449B69B3
:10985000304698470221284601F078FE204470BD2A
:10986000A0F10400FFF7E2BF10B520210446FAF78B
:1098700016FC204610BD0000037B7BB14369002B22
:109880000CDB07EE903A9FED077AF8EEE77A87EE69
:10989000870ADFED057A20EE270A7047BFEE000A3F
:1098A000704700BF00FF7F470000C842037B63B1E1
:1098B0000369B3F1004F08D007EE903A9FED047AA8
:1098C000F8EEE77A87EE870A70479FED020A704745
:1098D0000000C84200000000037B7BB1C369002B7D
:1098E0000CDB07EE903A9FED077AF8EEE77A87EE09
:1098F000870ADFED057A20EE270A7047BFEE000ADF
:10990000704700BF00FF7F470000C842037B63B180
:109910008369B3F1004F08D007EE903A9FED047AC7
:10992000F8EEE77A87EE870A70479FED020A7047E4
:109930000000C8420000000030B50D4600F10804E8
:109940000FCD0FC495E8030084E80300012030BD6B
:109950001FB50C23ADF8043003688DF80630037A88
:109960008DF80730436802930021437AADF80D105B
:1099700001A88DF80F108DF80C30FFF7AFFD05B082
:109980005DF804FB002240681146FFF7E7BD0022A6
:1099900040681146FFF7F2BD40680022FFF7E6BDC0
:1099A0004068002281F00101FFF7D0BD002340682C
:1099B0001A461946FFF7C2BD002340681A461946E9
:1099C000FFF7B4BD002240681146FFF7A7BD002293
:1099D00040681146FFF792BD406800220221FFF760
:1099E00095BD002340681A46FFF780BD024B032255
:1099F0005A60024A1A60704740E60320E4F60B0002
:109A0000006800F0F3B810B50446016002710AB1B5
:109A1000FFF7F6FF204610BD13B50446019102F092
:109A200077FC019A01462046FFF7EDFF204602B081
:109A300010BD006800F0E3B82DE9FF4104461D4663
:109A40000F461646FFF7DCFF36220023CDE9002340
:109A500020684FF001080A236946CDE9028300F02F
:109A6000A9F82068036839469B689847206803680E
:109A700031469B6898472068036829469B68984749
:109A80004146206800F0AEF8002820460CBF0025B3
:109A90006FF09F05FFF7CDFF284604B0BDE8F081C9
:109AA00008B5402200230621FFF7C6FF00EAE07058
:109AB00008BD7047F8B5064615460C468F18BC42DF
:109AC00006D0336814F8011B9B6830469847F6E7C8
:109AD0002846F8BD007C0022FFF7C2BA007C0021B6
