:02000002B0004C
:1040000000400B0040FB0B00000006000D00050205
:084010000401A60F00000000EE
:0440180024E10B0094
:1040200009480A49884208B505D0094A824202D0A7
:10403000121A09F07DFE0748074A0021121A09F0FA
:104040009FFE014808BD00BFBCDD032098F90B00AE
:1040500038DF032038DF0320EDE7032070B5074E7B
:10406000074C07F0E7FEA41BA4080025AC4200D1D2
:1040700070BD56F8043B98470135F7E734F90B005B
:104080006CF90B0000F098BF08B500F019FABDE814
:10409000084007F087BE05F051B905F04FB905F0AB
:1040A00055B9000008B5034A03490C2004F0E8FFA5
:1040B000FEE700BFD18C0B0038E10B000078B0FAAE
:1040C00080F0400970470123037070477047006A11
:1040D0000368DB6818470000014B1A60704700BF97
:1040E000BCDD0320014B01221A707047CEDF032094
:1040F00010B5084C23782BB1074B01221A7000230E
:10410000237010BD01F00EFE01F02EFF0128F3D048
:104110000123F5E764DF0320CCDF032030B585B051
:104120000446089860B1406850B1856845B1CDE952
:104130000241CDE90023C46801AB6A4602A9A04749
:1041400005B030BD30B585B0006813680193D1E982
:1041500000458368CDE902450BB908F009F8C3684A
:1041600001AA02A9984705B030BD012A02D1016019
:1041700000207047022A04BF0B680360F8E7036859
:104180001268D1E9000118470A4B10B504460360D4
:1041900006F006F8214606F03EFA07F0BBFD07F0F0
:1041A000ABFD2046044B40F8043B06F0CFF8204618
:1041B00010BD00BFF8E60B00E0E60B0010B50446AA
:1041C000FFF7E2FF20462421FFF769FF204610BDDC
:1041D00010B58368044613B1032201469847204670
:1041E00010BD10B5044638B1FFF7F2FF204610218C
:1041F000BDE81040FFF753BF10BD0000F8B5037DC8
:1042000005460F4616468BB10368DB6883B19A8872
:10421000012A06D09B68F9E79B684BB19A88012A6E
:10422000FAD12BB19A89BA42F6D19E732846F8BDCD
:104230000A49102007F098FF044668B110220021B7
:1042400009F09EFD064B23600123A3802B69A36028
:10425000A781A6732C61E9E72875E7E7F8F60B005C
:1042600010000300002004F04BBD000008B504F06E
:1042700037FD034B1860BDE8084004F0BFBF00BF26
:1042800010E703200EB400B58CB00DAA4FF0200C3F
:1042900052F8041B0392CDE900120023016804AA1E
:1042A0001E20CDE904C304F0FBFE0CB05DF804EB66
:1042B00003B0704770B5134E134C3278134D022A79
:1042C000C2B017D107F022FC32782B7804EB02122F
:1042D000009204EB031398B90D4A4FF4807102A8C1
:1042E00005F04CF833780B482B7002A9FFF7CAFF92
:1042F00042B070BD2B7804EB0212009204EB031362
:10430000054AEAE7CDDF0320C0DD0320C4DF032038
:104310004DE10B0054E603206DE10B0000000000AE
:104320002DE9F0435C4D2E6887B0002E42D002206C
:1043300007F014F80646286809F0F6F89FED540BCC
:1043400041EC110B07F018FF0A2059EC108B704359
:1043500009F0DAF842464B4609F050F94F4B00227B
:1043600008F096FF09F022FC044601F0DBFC01F0A6
:10437000ECFDCDE9006402462B6849494948FFF746
:1043800081FF2B68022B11DD4FF0FF332B6001F012
:10439000C9FC042101F02BFE01F0C4FC054607F026
:1043A000D2FB0246C317284601F04CFF204607B057
:1043B000BDE8F08307F0AAFB002865D001F0B2FC4D
:1043C00001F0C3FD054601F0ADFC01F04BFE3C24BD
:1043D00004FB00F707F0B7FBB0FBF7F404FB17048E
:1043E0003C1BBC4228BF3C4601F09CFC01F0ADFDEB
:1043F0000A2805D92C492B482246FFF743FFD5E769
:104400002A4F07F0A0FBD7E90089C317B0EB0800DB
:104410002DB263EB090305EB8505002B4FEA45053B
:1044200016DB07F090FB2C440219214B2149C7E908
:10443000002602A80093334607F026FB029B1E4984
:1044400022461848FFF71EFF02A807F06BF8ADE7F9
:1044500007F079FBB8EB000869EBE070454576EBB7
:1044600000030FDB3C6807F06EFB114B0093D7E9AC
:1044700000231049241A02A807F006FB029B0F49EB
:104480002246DEE72C4491E73C248FE7AFF300801F
:104490000000000000000040C8DF032000002440AE
:1044A0007BE10B0054E60320B2E10B0050DF032058
:1044B000F1E10B00ACE60320F4E10B001AE20B0083
:1044C0002DE9F047B34C2378013B8CB0042B00F26C
:1044D0002381DFE813F05D0205005E00B101F90100
:1044E000AD4B1B78022B01D0FFF7E4FE01F01AFC64
:1044F00001F0B8FD01280DD1A849A948FFF7C2FE77
:1045000001F010FC01F02BFD002800F0598201237E
:10451000237001E107F017FB054601F003FC01F0F1
:1045200069FEEB172D1A63EB010601F0FBFB01F0AE
:1045300099FD78235843A8424FF00003B341DFDAD6
:1045400001F0F0FB01F014FC0028D9D09549944803
:10455000FFF798FE01F0E6FB032101F048FD01F0B2
:10456000E1FB054607F0EFFA0246C317284601F0C3
:1045700069FE01F0D7FB012101F013FE01F0D2FB2F
:10458000054607F0E0FA0246C317284601F055FE3B
:10459000B6E7814B1B78032B01D0FFF78BFEFFF7AB
:1045A000BFFE074607F0CFFA054607F0AFFA06460A
:1045B000002854D0EA197C4B00937C49D31708A8F3
:1045C00007F062FA089D01F0ADFB01F0D1FB784BDA
:1045D000784A7949002808BF1A46009270482B464D
:1045E0003A46FFF74FFE16B108A806F09BFF01F010
:1045F00099FB01F0BDFB054658B901F093FB01F0B2
:10460000B7FB30B101F08EFB01F0AEFC294601F0A2
:10461000D7FE6A4B1A7D0AB102221A72684B6748AC
:10462000B3F8009000224946FFF7E8FD654BB3F868
:1046300000A001225146FFF7E1FD037D064623B3AA
:104640004FF47A73A7F1050803FB08F80368DB68E9
:104650003BB19A88042A00F077829B68F8E75A4DAC
:10466000B1E75A49102007F07FFD0546002800F009
:104670003D821022002109F083FB554B2B6004235F
:10468000AB803369C5E9023835610021514802F039
:10469000EDF94A4905A807F077F84FF0FF314D488A
:1046A00002F0E4F901F03EFB01F05EFC012101F0B3
:1046B00087FE059BDBB19A88012A18D19B89994511
:1046C0004FD1FFF7CFFD42F210760546FFF7CAFD46
:1046D000401B61F10001B04271F100030AD207F002
:1046E00019FB07F00CFB28B904F088FDEEE74FF644
:1046F000FF73E4E707F00EFB07F001FB4FF47A705D
:1047000004F098FE34492648FFF7BCFD04230598C1
:10471000237008B104F01AFE2E48304C02F052FD0E
:1047200001F072FB01F08DFB01F0FCFA01F017FBC8
:10473000237823B101F02AFF08B100232370284B0E
:104740001B68002BC0F2038226491548FFF79AFD2B
:104750004FF4FA6004F06EFE0CB0BDE8F04707F0CD
:1047600010B89A4542D120490D48FFF78BFDFFF75D
:10477000D7FD02285EDDFFF7D3FD054601F0D2FA32
:1047800001F070FC3C234343023B9D4252DA032379
:10479000BDE700BFCDDF0320C4DF032044E20B00F0
:1047A00054E6032063E20B00F1E10B00ACE60320CA
:1047B00040E20B00E8E40B00D9E20B0088DF0320A5
:1047C00032ED0B0034ED0B0060E10B00F8F60B004E
:1047D0001000030068DF032014E30B00CCDF03208C
:1047E000BCDD0320A6E40B0037E30B0004F078FAED
:1047F00041F28736054604F073FA401BB04202D8F6
:10480000FFF734FDF7E707F09EF9B94BB94900937C
:10481000C219D31708A807F037F9089A039207F0CE
:1048200013F8039AB4490346B448FFF72BFD08A8D0
:1048300006F078FE02236AE7B14B1B78042B3FF4A5
:104840006BAFFFF737FD00F00DFD00F09FFD01F0AD
:10485000AFFF01F067FA01F082FBAA4D40B900F00A
:1048600001FD00F0E9FFC0B100232B6005234FE6F6
:1048700001F058FA01F073FB012820D001F052FA40
:1048800001F06DFB02281AD001F04CFA01F067FB31
:104890009D4902469948FFF7F5FC2B6801332B60D0
:1048A00001F040FA01F0DEFB012804BF00232B6079
:1048B0002A6896499148FFF7E5FC032328E600F0B3
:1048C000D1FC01F0F5F8CEE78D4B914D1B78052B0F
:1048D00006D0FFF7EFFC04F003FA032328602370EF
:1048E00041F2873604F0FCF92B68C01AB0424AD86E
:1048F00000F0B8FC00F0D4FE0028F3D001F012FA6A
:10490000054607F020F90246C317284601F095FC3A
:1049100001F008FA01F06EFC06F035FD07F013F91E
:10492000012302460093C3177A4802F03BFC01F0D2
:10493000F9F901F014FB30B10223237000F092FC6E
:1049400000F034FDE8E6744D744C2B78BFF35B8FB8
:1049500013F0010F09D12846FFF7B0FB28B107F08B
:1049600003F920602846FFF7AEFB07F0FDF8236847
:104970009842E3D001F048FA002101F018FC07F05A
:10498000F3F82060DAE766495C48FFF77BFCC3E692
:104990005B4B1B78012B01D0FFF78CFC01F0C2F9B7
:1049A00001F0DDFA0138062800F29680DFE800F019
:1049B000040A0C49718A8E005A495048FFF762FC7C
:1049C0000423A5E55849F8E7584C594D2378BFF31F
:1049D0005B8F13F0010F09D12046FFF76FFB28B161
:1049E00004F07EF928602046FFF76DFB04F078F9AB
:1049F0002B68C01A47F2305398427FF68DAE4D496E
:104A00003E48FFF73FFC01F08DF9002101F0EFFA7D
:104A100001F088F9044607F096F80246C3172046CD
:104A200001F010FC01F07EF903680121DB68984772
:104A30004FF4FA6004F0FEFC1E21364802F070F9D3
:104A40006AE63D492D48FFF71DFC00F00BFC00F025
:104A5000B3FC48B139492948FFF714FC01F062F969
:104A6000002101F0C4FAABE735492448FFF70AFCFE
:104A700001F058F9032101F0BAFA01F053F90546A3
:104A800007F061F80246C317284601F0DBFB02235A
:104A90003EE501F047F903689B69984701F0B4F9D6
:104AA00001F01DFC01F03EF9012101F0A0FA01F036
:104AB00039F9054607F047F80246C317284601F0C2
:104AC000C1FB7DE701F0A0F901F009FC01F02AF932
:104AD000002101F08CFAF0E61A490848FFF7D2FBF2
:104AE00001F020F9002101F082FAD0E73075CCE521
:104AF000F1E10B00ACE6032052E30B0054E6032087
:104B0000C4DF0320C8DF032078E30B00A2E30B001F
:104B10005CDF032068DF032048DF032060DF032021
:104B2000C7E30B00E2E30B0002E40B0044DF0320C9
:104B300058DF032019E40B0034E40B004AE40B00B7
:104B400064E40B0090E40B00C3F80C809DE50CB00E
:104B5000BDE8F08738B5002383608B6804460D46B6
:104B60002BB102229847EB68E360AB68A360204654
:104B700038BD00002DE9F04395B005461C9904A806
:104B800090461F460CAEFFF7E5FF04A908A8FFF703
:104B9000E1FF08A93046FFF7DDFF4FF000091020C4
:104BA000CDF84890FFF777FA0446A0B196E80300E5
:104BB00001AB83E8030094E8030086E8030093E870
:104BC00003000E9BE268A36084E803000F9BCDF80E
:104BD00038900F92E360244B1393244B12930022DE
:104BE00000234FF00009C5E90023214BC5F80890C8
:104BF00010201094CDE90139CDF80C90FFF74BFA55
:104C00000446D8B1129BC0F8089033B1022210A913
:104C10009847139BE360129BA360164B0393164ABD
:104C2000029401AB4046394604F08EFAB0B12046FA
:104C3000FFF7CEFA10212046FFF731FA10A8FFF750
:104C4000C7FA3046FFF7C4FA08A8FFF7C1FA04A86C
:104C5000FFF7BEFA284615B0BDE8F083029BAB60B3
:104C6000C5E90087EAE700BF45410B007D4C0B001A
:104C700002000C00E3410B001D410B00012A37B577
:104C8000044604D10B680360002003B030BD022A43
:104C90000CD0032AF8D10468002CF5D02046FFF789
:104CA00097FA10212046FFF7FAF9EDE7096801911C
:104CB0001020FFF7F0F9054610B10199FFF74AFF00
:104CC0002560E1E770B5D0E900531426044606FBE1
:104CD0000356AE4204D0284606F024FC1435F8E70B
:104CE000206804F033FB204670BD8842F8B50446C6
:104CF0000D46164616D9904215D2A2F11406751A21
:104D0000A1F114072C44B7421CD02CB131462046E7
:104D100006F084FC337C2374304606F003FC143E1A
:104D2000143CF0E70ED0B5420CD02CB129462046F9
:104D300006F074FC2B7C2374284606F0F3FB143534
:104D40001434F0E7F8BD2DE9F0410023C0E9003349
:104D500083604F689F4204460E4623DD4FF01408DF
:104D600008FB07F004F0EAFA0546D8B1D4E90012CE
:104D700008FB0212FFF7B9FF206804F0E7FA25608C
:104D8000A760D6E9007308FB0378B84508D0394618
:104D9000284606F05DFC3B7C2B7414371435F4E791
:104DA000736863602046BDE8F0810000F0B5364BC3
:104DB000364A9A6000248DB0C3E90044032004F011
:104DC000B3F92146012004F0C7F90121042003F0C2
:104DD0006FFFCDE90044029406F09CFF2C4D06467F
:104DE000694603A8FFF7AFFF2F4603A906A8FFF700
:104DF000AAFF284B47F8043B06A909A8FFF7A3FF21
:104E000009AA1E21384605F0E9FC09A8FFF75AFF58
:104E100006A8FFF757FF204B2B6003A82E62FFF771
:104E200051FF1E4B2B6006F075FF4FF4165106F034
:104E30005FFF05F0B5F9294605F0A6FB6846FFF7C8
:104E400041FF07F029F823462246072107F034F8EE
:104E500007F022F8234622460D2107F025F8104BD3
:104E60001A1D1A600F4A5A6001221A75C3E90244DA
:104E70001C6107F0F1F801460B4869220DB0BDE84E
:104E8000F04001F0F5BC00BF38DF03200000FFFF59
:104E9000A0DF0320E0E60B0098F50B00F8E60B001E
:104EA00088DF03201000030068DF03202DE9FF41A5
:104EB00006F049FE394905463948FFF7E3F9002372
:104EC00001A8CDE90133ADF80C3004F009FCFFF77F
:104ED000C9F943F698260446FFF7C4F9031B61F1AC
:104EE0000001B34271F1000305D204F097F910B14B
:104EF00004F084F9F0E704F091F9FFF7B7F904F052
:104F00008DF9044640B127492548FFF7BBF9002435
:104F1000204604B0BDE8F08106F015FE2249234F7B
:104F2000421B1F48FFF7AEF906F00DFE2246022194
:104F30000646786804F0B2F978682346224621468E
:104F400004F0C4F9FFF78EF947F230580546FFF731
:104F500089F9431B61F10001434571F1000306D259
:104F6000384605F059FF10B904F048F9EFE70F484B
:104F700005F052FFFFF77AF90C4805F049FF20B120
:104F80000B490748FFF77EF9C2E706F0DCFD094947
:104F9000821B0348FFF776F90124B9E7C2E40B004E
:104FA00054E60320EBE40B000EE50B0010E60320B3
:104FB00037E50B005DE50B00F0B58DB0FFF752F95A
:104FC00042F210750446FFF74DF9001B61F1000134
:104FD000A84271F1000307D206F09CFE06F08FFE96
:104FE00010B904F00BF9EEE706F094FE06F087FE28
:104FF00001F0C2F901F0FAF900F094FE03681B68B1
:10500000984700F001FF03681B6898476F4B1E88A4
:10501000304606F0C1FF044628BB6D496D486E4F0F
:10502000FFF730F904F0F2F8FFF71CF90546FFF737
:1050300019F9401B61F10001874274EB010305D3AC
:1050400004F0ECF810B904F0D9F8F0E704F0E6F851
:10505000002840F0898061495E48FFF713F9FFF7A7
:1050600025FF06F08EFB5E4808230121438102F0F4
:10507000FBF87C215A4801F0F9FC5A4B08935A4B33
:105080000B9308AC594B0A934FF48022002304A8D9
:105090000094FFF76FFD2046FFF79AF800F0E2F862
:1050A000002100F0F1F800286FD100F03BFE032151
:1050B00000F09DFF00F036FE054606F044FD024676
:1050C000C317284601F0BEF800F02CFE00F047FFA1
:1050D000474902463F48FFF7D5F801F069FB4548CC
:1050E0004549008800254FF0FF330122009504F068
:1050F00059FC424900954FF0FF332A46304604F0F0
:1051000051FC00F00FFE00F033FE30B100F00AFE5B
:1051100000F02AFF012101F053F9394B1A780AB93E
:1051200003221A7000F0FEFD00F019FF054600F0A2
:10513000F9FD01F05FF80B46324900910246324911
:10514000204606F0A1FC089B304922482A46FFF77A
:1051500099F8204606F0E6F92D4B188800210DB08D
:10516000BDE8F04006F0FFBE2A491A482A4DFFF775
:1051700089F803F0B5FD044603F0B2FD001BA84218
:105180003FF66DAFFFF772F8F6E700F0CBFD00F0E9
:10519000DCFE0A2814D900F0C5FD012100F027FF2C
:1051A00000F0C0FD00F0D1FE039000F0BBFD00F068
:1051B000D6FE039A194903460648FFF763F88CE7C1
:1051C00006F0A4FC0028E6D087E700BF32ED0B0014
:1051D00089E50B0054E60320BF270900BDE50B005D
:1051E00068DF0320D9400B007F410B006B410B00AF
:1051F0000DE60B0034ED0B00F1400B00E5400B0019
:10520000CDDF0320F1E10B00ACE6032092E60B00BA
:1052100030ED0B00E7E50B00BFD401004BE60B00BF
:105220007047704710B504210446FEF738FF20464A
:1052300010BD000010B5054B00220446114640F891
:10524000043B03F055FF204610BD00BF98EB0B0058
:1052500010B50446FFF7EEFF20462021FEF71FFFA2
:10526000204610BD10B5064C236833B90420FEF764
:1052700012FF08B1034B03602060206810BD00BF1F
:10528000D0DF0320ACEB0B0030B5364887B00D46BD
:1052900002F04DFE044630B933493448FEF7F2FFC0
:1052A000204607B030BD9FED320A324803F038F98E
:1052B000002217212F4803F0ADFA00F033FD00F073
:1052C00044FE2D4902462948FEF7DCFF8DB100F06F
:1052D00029FD002100F079FE02A803F0A7FF029A41
:1052E00026492248FEF7CEFF02A806F01BF92C46FD
:1052F000D6E700F017FD00F028FEF0B100F012FD37
:1053000000F023FE0A2818D800F00CFD00F01DFE66
:1053100001461B4802F037F9194802F01AF90190CA
:1053200002A803F083FFDDE9012316490F48FEF7C9
:10533000A9FF02A806F0F6F8B2E700F0F3FC0B2193
:1053400000F043FE0B210E4802F01DF90C4802F05C
:1053500000F9019002A803F069FFDDE901230A4981
:10536000E4E700BF00E2032008E70B0054E6032057
:1053700000C06444D0E0032014E70B0033E70B00C7
:1053800004E203206DE70B00A4E70B0010B5064C08
:10539000C0B00DF1030201A9204603F03DF800283A
:1053A000F7D140B010BD00BFD0E00320014803F0AA
:1053B00020B800BFD0E00320134B10B51C8800219B
:1053C000204606F0D0FD0A2004F034F801212046E2
:1053D00006F0C9FD0A2004F02DF80C4802F0A7FDE4
:1053E000044628B90A490B48FEF74CFF204610BD79
:1053F0009FED090A094803F093F808480022172195
:1054000003F008FAF2E700BF3AED0B0000E20320D8
:1054100008E70B0054E6032000C06444D0E00320FA
:1054200070B5002290B01421022003F0ADFE5B4D58
:105430001E220121CDE9002103460222FF2108A8F6
:1054400004F030FD2C7A012C7ED100F06BFC0B2196
:1054500000F0BBFD0B21524802F095F800F062FC11
:10546000214600F0C4FD00F05DFC064606F06BFB33
:105470000246C317304600F0E5FE494802F069F8DD
:10548000029004A803F0D2FE4648049B029A4649C3
:10549000FEF7F8FE04A806F045F8AE7A002E77D1A4
:1054A00000F040FC314600F075FC00F0ADFC00F06F
:1054B00016FF00F037FC062100F099FD3B49394802
:1054C000FEF7E0FE3A4B3B4A3B49A87A002C08BF66
:1054D0001A463A4CEB7A0392012818BF0C46029305
:1054E00000F020FC00F03BFDDDE90232CDE9004098
:1054F00033492C48FEF7C6FE0022012109A803F01B
:10550000F7FD00F081FC00F0E4FC642300936FF0F1
:105510008B026FF0090140F6B83303F07FFF40F6CD
:10552000B833984228BF1846642838BF642003F077
:1055300081FF0022114609A803F0DAFD08A8FFF751
:1055400079FE012010B070BD072C05D100F0EAFBF8
:10555000697A00F052FDA0E7A4B12246194911482A
:10556000FEF790FE00F0DEFB214600F040FD00F06B
:10557000D9FB064606F0E7FA0246C317304600F0AC
:1055800061FE8AE700F0CEFB214600F030FD84E7A3
:1055900000F0C8FB012100F0FDFB93E7D4DF0320FE
:1055A00004E2032054E60320A4E70B0020E80B00EC
:1055B000F0E70B00EBE70B00FDE70B00F8E70B0053
:1055C00042E80B0004E80B0010B500228CB0142157
:1055D000022003F0D9FD1E2201210346CDE900215E
:1055E00004A82A492A4C022204F05CFC00F09AFB31
:1055F00000F0ABFC0A2804D900F094FB617A00F0BB
:10560000E4FC00F08FFBA17A00F0F7FC00F08AFBCD
:1056100000F09BFC039000F085FB00F0A5FC039AD2
:105620001C4903461C48FEF72DFE00F07BFB00F0F2
:105630008CFC0146194801F0A6FF0022012105A8B3
:1056400003F056FD00F0E0FB00F043FC6423009300
:105650006FF08B026FF0090140F6B83303F0DEFE05
:1056600040F6B833984228BF1846642838BF6420F3
:1056700003F0E0FE0022114605A803F039FD04A85E
:10568000FFF7D8FD01200CB010BD00BF0060FF0087
:10569000D4DF032093E80B0054E6032004E2032048
:1056A000F0B58DB0F9238DF81A300DF11F03039377
:1056B0000DF11E03454D02930DF11D03019307AB40
:1056C000009343480DF11B030DF11A02294602F025
:1056D00027FA00286ED09DF81A300024EC542E884A
:1056E00000F020FB00F0B9FC76BAB6B2B04205D0AB
:1056F00038493948FEF7C6FD20465BE0374E9DF835
:105700001E30337000F080FB0746354801F0B9FFCA
:105710000146384600F0EFFB9DF81B20059200F093
:1057200073FB00F0D6FB9DF81F10019103462D4935
:105730003078059A01EB0011009127482A49FEF7BD
:10574000A1FDD5F8020000BAC11706F0E4F800F098
:10575000E9FAE98849BA89B200F023FD00F0E2FADB
:10576000297A00F044FC00F0DDFA054606F0EBF97A
:105770000246C317284600F065FD06F0E4F9C3179A
:10578000024608A806F0DAF8089A059200F0CAFA6C
:1057900000F068FC059A154903460F48FEF772FDB4
:1057A00008A805F0BFFE3378042B05D1FFF75AFD9A
:1057B000FFF736FE0DB0F0BD022B04D1FFF752FD0E
:1057C000FFF702FFF6E70A4993E700BFD4DF0320A3
:1057D00000E20320CAE80B0054E60320CFDF0320D9
:1057E000D0E0032050DE0320F3E80B0032E90B0089
:1057F00065E90B0070B500250E462C46B3689D4246
:1058000018D22946304605F02FFF0378A3F1300265
:10581000092A02D814440135F0E7A3F14102052A10
:1058200002D8373B1C44F6E7A3F16102052AF2D8FF
:10583000573BF7E7204670BD2DE9F04389B0044699
:1058400000F0E2FA00F0A4FB064600F0DDFA00F0FA
:105850009AFB0546304607F067FE064628460F4687
:1058600007F062FE02460B463046394607F0F0FF6D
:105870000022854B07F0C2FE08F0B8F9834B1F8861
:1058800001210546384606F06EFB00F0BDFA00F037
:105890007AFBFF2840F0B58000F0B6FA002100F056
:1058A000BEFB00F0B1FA002100F0BFFB00F0ACFA43
:1058B00000F069FB764902467648FEF7E3FC04A84F
:1058C00003F0B4FC04A92046FFF794FF064604A8A1
:1058D00005F028FE00F026FA00F0BFFB6E4C000A2F
:1058E000207000F01FFA00F0B8FB3312A370607054
:1058F000E67000F089FA00F0FDFB000A207100F06C
:1059000083FA00F0F7FB607100F07EFA00F026FCED
:10591000000AA07100F078FA00F020FCE07100F0BD
:1059200001FA00F021FB207200F06EFA00F021FB7A
:10593000607200F069FA00F08FFA51EC100B08F079
:1059400035F9A07200F060FA00F018FBE07200F088
:10595000E9F900F0FFFA207300F056FA00F013FBAB
:10596000607300F051FA00F013FB0323A07321468B
:1059700000934A4800230F2202F09EF804460028B4
:105980004CD100F041FA054600F03EFA00F000FB71
:105990000130C1B2284600F048FB00F035FA00F0B3
:1059A000F7FA804600F030FA00F0EDFA064600F013
:1059B000B9F900F0CAFA0546404607F0B5FD804641
:1059C0003046894607F0B0FD02460B464046494640
:1059D00007F03EFF2C4B002207F010FE08F006F9FE
:1059E00007F0B4FD2A46CDE900012D492948FEF70C
:1059F00049FC3846214606F0B6FA012009B0BDE858
:105A0000F08300F001FA064600F0FEF900F0BBFA60
:105A10000130C1B2304600F002FB47E7022815D141
:105A200000F080F900F091FA0390284607F08EFD0F
:105A3000039ACDE900011B4900231648FEF722FC1A
:105A40003846002106F08FFA0020D7E705280DD14F
:105A500000F068F900F079FA0390284607F076FD27
:105A6000039ACDE9000100230F49E6E700F05AF957
:105A700000F06BFA0390284607F068FD039ACDE921
:105A8000000100230949D8E70000594030ED0B0020
:105A90007FE90B0054E60320D4DF032000E203205B
:105AA0009DE90B00D0E90B0020EA0B0079EA0B001E
:105AB000F0B5384B1E888FB004460121304606F001
:105AC00052FA03A803F0B2FB0023192207A903A886
:105AD00005F0D8FD03A805F025FD03A803F0A6FBFB
:105AE00003A92046FFF786FE054603A805F01AFD28
:105AF00000F018F900F0B1FA274C000A207000F00D
:105B000011F900F0AAFA2B12A3706070E57007ABD0
:105B1000221D0DAF1D4603CDBD42106051602B46C6
:105B200002F10802F6D12B78137000F0FBF800F0B8
:105B30001BFA607700F0F6F800F007FA0A2818D987
:105B4000164917480124FEF79DFB13491548009498
:105B500000231E2201F0B0FF054688B91249104803
:105B6000FEF790FB3046294606F0FDF920460FB0BF
:105B7000F0BD05F0CBFF08B90C49E2E70C49E0E7BE
:105B80000C490748FEF77EFB3046002106F0EBF992
:105B90000020ECE730ED0B00D4DF0320C9EA0B0056
:105BA00054E6032000E2032047EB0B00F4EA0B006D
:105BB0001EEB0B0071EB0B0010B5084A084C0949AD
:105BC00012780978084B204602F06CFC2146074801
:105BD000BDE81040002201F065BF00BF38ED0B00AA
:105BE000D0E0032036ED0B00ECE3032000E20320BD
:105BF00010B5044B03600446406808B103F038F860
:105C0000204610BD00F40B0010B50446FFF7F0FF6E
:105C100020467821FEF743FA204610BD10B5034B0D
:105C20000360044601F082FB204610BD90EC0B009F
:105C300010B50446FFF7F2FF20461021FEF72FFAB9
:105C4000204610BD10B5044B03600446406808B1FF
:105C500003F00EF8204610BD00F40B0010B504460A
:105C6000FFF7F0FF20466821FEF719FA204610BD25
:105C700010B5036804460BB902F0F2FF2068BDE8D6
:105C8000104002F0FDBF38B504460430FFF7F0FFC6
:105C9000606AA16A0368DD68D4E90223A8476068E6
:105CA00002F0F6FF2046BDE8384002F0BDBE38B530
:105CB00004460430FFF7DCFF606AA16A03689D6850
:105CC000D4E90223A847A2682368D1885B692046EB
:105CD000984718B9236820469B699847606802F086
:105CE000D7FF012038BD000000F1300181600A4972
:105CF0004FF0380CC0E903C1022181824FF47A7160
:105D0000C16106490022C0E909124260826180F83F
:105D10002020034A02607047759EA920B8E3032043
:105D2000ACEC0B0010B5064C23683BB96820FEF7BD
:105D3000B2F9034608B1FFF7D7FF2360206810BD12
:105D4000B0E3032010B5406A01F006FBFFF7EAFF5D
:105D500064220368C261BDE810405B68184710B553
:105D6000FFF7E0FF0368BDE81040DB68002118473B
:105D700038B504460430FFF77BFFE3686068013BF9
:105D8000302B86BFA36893F83150002502F080FFC6
:105D9000284638BD38B5044604300D46FFF768FF85
:105DA000E368013B302B09D9A36893F83120AA425C
:105DB00004D083F83150204602F0C2FE6068BDE88E
:105DC000384002F065BF000000F130010022816020
:105DD0000A4942604FF0480C826180F82020084A4E
:105DE0004262C0E903C164220221818282624FF4CF
:105DF0007A71044AC1610260704700BF749EA92095
:105E0000B8E30320D8EC0B0010B5064C23683BB96F
:105E10007820FEF740F9034608B1FFF7D5FF23606D
:105E2000206810BDB4E3032010B5406A01F094FA75
:105E3000FFF7EAFFFA220368C261BDE810405B6821
:105E4000184710B5FFF7E0FF0368BDE81040DB68B6
:105E5000002118470000000010B504462DED028B0C
:105E60000430FFF705FFE368083B172B0CD9A36844
:105E700093ED068B606802F00BFFB0EE480AF0EE7F
:105E8000680ABDEC028B10BD9FED018BF2E700BFED
:105E90000000000000000000F8B50446043057EC94
:105EA000106BFFF7E5FEE368083B172B0CD9A568DC
:105EB0003046D5E90623394607F008FE20B9C5E982
:105EC0000667204602F03CFE6068BDE8F84002F03C
:105ED000DFBE38B504460430FFF7CAFEE3686068E9
:105EE000023B2F2B86BFA368B3F93050002502F088
:105EF000CFFE284638BD38B5044604300D46FFF7BE
:105F0000B7FEE368023B2F2B08D9A368B3F9302012
:105F1000AA4203D01D86204602F012FE6068BDE84A
:105F2000384002F0B5BE38B5044604300D46FFF7E0
:105F30009FFEE3686068013BAB4226BFA3685D5DDE
:105F4000002502F0A5FE284638BD08B51021FFF750
:105F5000EAFF08BD08B51721FFF7E5FF08BD08B542
:105F60002221FFF7E0FF08BD08B53021FFF7DBFF76
:105F700008BD08B51021FFF7D6FF08BD08B52021E0
:105F8000FFF7D1FF08BD08B53221FFF7CCFF08BDF0
:105F900008B53321FFF7C7FF08BD70B504460430CC
:105FA0000D461646FFF764FEE368013BAB4207D39C
:105FB000A3685A5DB24203D05E55204602F0C0FD90
:105FC0006068BDE8704002F063BE08B50A46102163
:105FD000FFF7E3FF08BD08B50A461221FFF7DDFF12
:105FE00008BD08B50A461721FFF7D7FF08BD08B559
:105FF0000A462221FFF7D1FF08BD08B50A46302125
:10600000FFF7CBFF08BD08B50A461021FFF7C5FF13
:1060100008BD08B50A462021FFF7BFFF08BD08B537
:106020000A463221FFF7B9FF08BD08B50A463321F9
:10603000FFF7B3FF08BD38B5044604300D46FFF73F
:1060400017FEE3686068023BAB4226BFA3685D5B56
:10605000002502F01DFE284638BD08B51421FFF7C3
:10606000EAFF08BD08B52021FFF7E5FF08BD0000E5
:1060700010B502F071FD044670B1FFF753FEFFF753
:10608000F1FF58B9FFF74EFEFFF7ECFF1349024648
:106090001348FEF7F7F80024124A18E0FFF742FE13
:1060A000FFF7E0FF3C28EDD8FFF73CFEFFF74DFF80
:1060B00030B9FFF737FEFFF748FF0B490246E7E725
:1060C000FFF730FEFFF741FF0B28F2D8074A0849D7
:1060D0000348FEF7D7F8204610BD00BFB4EB0B0015
:1060E00054E6032014EB0B00D9EB0B0018EB0B006C
:1060F000F8EB0B0008B54021FFF79DFF08BD00003D
:1061000010B502F029FD0446A0B1FFF77DFEFFF7B0
:10611000F1FFFFF779FEFFF7EDFFB0F5806F10D9C3
:10612000FFF772FEFFF7E6FF074902460748FEF752
:10613000A9F80024064A07490448FEF7A3F82046B8
:1061400010BD054AF7E700BF0DEC0B0054E6032035
:1061500014EB0B0033EC0B0018EB0B0008B54221DD
:10616000FFF769FF08BD70B5044604300D461646BA
:10617000FFF77EFDE368023BAB4207D3A3685A5B9F
:10618000B24203D05E53204602F0DAFC6068BDE8FC
:10619000704002F07DBD08B50A461421FFF7E3FF09
:1061A00008BD08B50A462021FFF7DDFF08BD08B588
:1061B0000A464021FFF7D7FF08BD08B50A4642212D
:1061C000FFF7D1FF08BDF8B5044604300D46FFF7D0
:1061D0004FFDE3686068083BAB4223BFA1684919E3
:1061E000D1E90067002638BF002702F051FD304694
:1061F0003946F8BD08B51821FFF7E5FF08BDF8B529
:10620000044604300D461E461746FFF731FDE3688D
:10621000083BAB420CD3A3685A1958595168B14294
:1062200008BFB84204D05F512046566002F088FC97
:106230006068BDE8F84002F02BBD08B51821FFF7F3
:10624000DEFF08BD08B52821FFF7D9FF08BD000013
:1062500010B5044602F0E6FC1B481C49FEF712F894
:106260001B491948FEF70EF8FFF75CFD0B21FFF7FD
:10627000ACFEFFF757FD0121FFF7ADFEFFF752FD22
:1062800046F6E131FFF787FFFFF74CFD0021FFF7EE
:10629000A8FEFFF747FD3C21FFF783FFFFF742FD14
:1062A0000121FFF7A4FEFFF73DFD00220023FFF7C9
:1062B000C9FFFFF737FD0121FFF76CFD2046BDE860
:1062C000104002F03DBC00BF54E6032046EC0B003A
:1062D00057EC0B0008B53821FFF791FF08BD10B54A
:1062E000FFF792FD0021FFF768FFFFF78DFD00210A
:1062F000FFF75DFFFFF788FD044605F024FC02462A
:10630000C3172046FFF7E6FFFFF70CFD0021FFF75C
:1063100068FEFFF779FD0021FFF781FEFFF774FDAE
:10632000BDE810400021FFF780BE000010B5044614
:1063300002F078FC05490648FDF7A4FF2046FFF768
:10634000CEFF2046BDE8104002F0FABB6FEC0B0018
:1063500054E6032010B505F07FFE054C01460023EE
:106360004FF40052204600F0EDFF024B236010BDB9
:10637000B8E3032090EC0B0008B50F490F48FDF778
:1063800081FF0221042005F0DDFD0021082005F039
:10639000D9FD0121072005F0D5FD0021122005F0CF
:1063A000D1FD0121112005F0CDFD0121102005F0C6
:1063B000C9FD012008BD00BFFCEC0B0054E6032022
:1063C00010B5044651B10021112005F0CCFD5CB997
:1063D0000121BDE81040102005F0C5BD01211120AC
:1063E00005F0C1FD002CF3D10021F2E710B51849EA
:1063F000184890B02024FDF745FF2246002168464A
:1064000007F0BEFC224600210DEB04008DF805408C
:1064100007F0B6FC00210DEB04008DF8254002F0DA
:10642000CFFE41F2D833ADF806300B4B029341F268
:106430007003ADF80C30009B002143F400736846F4
:10644000009302F0BDFE003818BF012010B010BD4F
:1064500015ED0B0054E603208403840310B5036894
:106460002F2B044604D9074A07490A2002F008FEE8
:1064700023681F2B83BF03F01F03044823604FF0E2
:10648000A04010BDD18C0B00B7ED0B0000030050F5
:1064900007EE900A9FED097AF8EEE77A67EE877AC1
:1064A0009FED077A87EE870ADFED067A70EE677A4E
:1064B000B2EE040A87EE800A704700BF00404E45E6
:1064C00000F07F450000FA4313B5012101A804F054
:1064D00038FDFFF799FCFFF74CFDFFF795FCFFF740
:1064E00048FD252801A80DD904F0BEFDFFF78CFC5E
:1064F0000121FFF78EFD002401A804F031FD2046A4
:1065000002B010BD04F095FD0124F5E730B51B4D38
:106510000FCD9BB010AC0FC40FCD0FC495E8030096
:1065200084E80300164908A802F0F2FF08A803F067
:1065300032F8044608A803F067F808A810EE105ACD
:1065400003F092F81AAB10EE100A03EB840406F085
:10655000FDFFCDE90201284606F0F8FFCDE9000174
:10656000102154F8283C074A0DEB010002F006FF09
:10657000054804A9FDF786FE1BB030BD38EE0B00C0
:1065800010E60320DBED0B0054E60320F0B5504E7F
:10659000504C3378BFF35B8F13F0010F85B009D1F6
:1065A0003046FDF78BFD28B102F0C2FB206030467B
:1065B000FDF789FD484B1D8823682D015B5D5F0158
:1065C0003378BFF35B8FD90709D44148FDF776FDD7
:1065D00028B102F0ADFB20603D48FDF774FD236853
:1065E0002B4403A85B7803F01F033B430393FFF79F
:1065F00035FF039A01239340C0F80835FFF704FCE8
:10660000074605F0A0FA0246C3173846FFF762FEB8
:10661000FFF7FAFB0746FFF7F7FBFFF76BFD0130CB
:1066200081B23846FFF7C3FDFFF7EEFB0746FFF7E1
:10663000EBFBFFF793FD013081B23846FFF7BDFD5C
:10664000FFF7E2FBFFF756FD0190FFF7DDFBFFF7D9
:1066500085FD019A214903462148FDF713FE4FF4B9
:10666000FA7002F0E7FE3378BFF35B8FDA0709D4E4
:106670001748FDF723FD28B102F05AFB20601448AB
:10668000FDF721FD23685B5D5F013378BFF35B8F0E
:10669000DB0709D40E48FDF711FD28B102F048FBD5
:1066A00020600B48FDF70FFD23681D4403A86B789D
:1066B00003F01F033B430393FFF7D0FE039B01222C
:1066C00002FA03F3C0F80C35104605B0F0BD00BF68
:1066D000C8E30320CCE3032030ED0B00F4ED0B0006
:1066E00054E6032030B585B00D460022694600927D
:1066F00002F008FD90B9009C0CB1236923B9084A47
:1067000008490A2002F0BCFC0C23CDE90135042322
:10671000039301AA236901212046984705B030BDA3
:10672000D18C0B0011EE0B0013B5FFF76DFB01A927
:1067300004460720FFF7D6FF011EA8BF0199204697
:10674000C9B2FFF766FC184803F072F84FF4FA700C
:1067500002F070FEFFF758FB01A904460320FFF783
:10676000C1FFE8B9BDF8043007EE903AFBEECC7AF1
:1067700017EE900A06F0EAFE41EC100B2046FFF7F8
:106780008BFBFFF741FBFFF767FB084B51EC100B4E
:10679000002207F0C3F9003818BF012002B010BD75
:1067A000FFEE007AE4E700BFD0E3032000004E4094
:1067B00013B5FFF729FB0F4B0446188805F0FFFBC4
:1067C000FFF766FEFDEEC07A2046CDED017A9DF81A
:1067D0000410FFF718FCFFF7A7FFFFF775FEFFF7A0
:1067E000A1FAFFF7B2FB08B9FFF790FE012002B053
:1067F00010BD00BF3CED0B000148002102F0D4BFEA
:10680000D0E30320704710B520210446FDF747FC74
:10681000204610BD10B504468AB008464FF0200C43
:106820000021CDE90023CDE902C10B4602AA21686F
:1068300002F036FC0AB010BD0EB403B503AB322132
:1068400053F8042B0193FFF7E5FF02B05DF804EB6A
:1068500003B070470EB403B503AB012153F8042B0A
:106860000193FFF7D7FF02B05DF804EB03B0704768
:1068700010B50272FF2242810022C0E90322426168
:106880000276C261024A034C1060C0E9004110BDAB
:10689000DCE30320B0F00B002DE9F8439DF82080E5
:1068A0000446894616461F46B8F1000F02D04068DC
:1068B00003F064F8217A606803F03DF860680368CB
:1068C00049469B6898476068002103F053F80546E5
:1068D00000BB0123217A60683A4603F01AF8874228
:1068E000034609D13744BE421CD0606803685B6927
:1068F000984706F8010BF6E70B490C484A46FFF7A4
:106900009BFFB8F1000F02D0606803F040F8284602
:10691000BDE8F8830346064904484A46FFF78CFF62
:106920000025EEE70125ECE760EE0B00D8E303203D
:1069300085EE0B0007B500930123FFF7ADFF03B011
:106940005DF804FB73B54389FF2B044610D0194E44
:10695000194D02F0C5F9B0F57A7F09D2608905F0CA
:106960001BFB012804D031462846FDF78BFCF0E7DD
:1069700001230DF1070228212046FFF7DBFF30B984
:106980000D480E49FDF77EFC002002B070BD9DF859
:106990000730182BF4D101230DF1070229212046DD
:1069A000FFF7C8FF0028EBD09DF80730052BE7D193
:1069B000EBE700BFA9EE0B00D8E30320BEEE0B000F
:1069C00007B5134600228DF807200DF10702FFF7E7
:1069D000B1FF9DF8070003B05DF804FB2DE9F0411D
:1069E0009DF8188004460F4615461E46B8F1000F64
:1069F00002D0406802F0C2FF217A606802F09BFF7B
:106A00006068036839469B6898472E44B5426068C1
:106A100005D0036815F8011B9B689847F6E701212C
:106A200002F0A8FF034670B1084909483A46FFF74B
:106A300003FF0025B8F1000F02D0606802F0A7FF45
:106A40002846BDE8F0810125F4E700BFCBEE0B003E
:106A5000D8E303201FB58DF80F2000930DF10F022E
:106A60000123FFF7BBFF05B05DF804FBF8B50A464C
:106A70000C4605461A491B48FDF704FC002CB8BF1C
:106A8000EC687CB9012322461B212846FFF7E2FF70
:106A90001549024606461348FFF7DCFEEC606C61C0
:106AA0003046F8BD032C19DDA7101F2FA8BF1F27E4
:106AB000BA0062F07C020123D2B21B212846FFF704
:106AC000C9FF3A460346094906460648FFF7C2FE93
:106AD0004FF4FA635F43EC606F61E1E70127E7E79A
:106AE000F0EE0B00D8E30320FAEE0B0016EF0B00DC
:106AF000064B1A684AB1A0F500630B4305D1D36871
:106B00001BB100211046FFF7B1BF7047DCE3032043
:106B10002DE9FF419DF82880054616461F46B8F12D
:106B2000000F04D04068019102F028FF0199019103
:106B300000230DF10F022846FFF7FCFE044660B16A
:106B40009DF80F3003EA06023A43934205D00199BB
:106B500000232846FFF77EFF0446B8F1000F02D05D
:106B6000686802F014FF204604B0BDE8F08113B558
:106B700014460DF10702FFF7DDFE28B19DF807303E
:106B80001C420CBF0120002002B010BD13B51446FA
:106B90000DF10702FFF7CEFE28B19DF807301C4229
:106BA00014BF0120002002B010BD07B5D2430093EE
:106BB000D2B20023FFF7ACFF03B05DF804FB000086
:106BC00037B501230DF107020F210446FFF7B2FE8E
:106BD000054638B91E491F48AD22FFF72DFE28464D
:106BE00003B030BD9DF8073013F0200F4FF00103C4
:106BF0000BD02022E3610F212046FFF7D6FF164A73
:106C000016491448FDF73EFBE9E708221721204604
:106C1000FFF7BCFF18B10223114AE361F0E79DF8CA
:106C200007301A0709D50323E361082201230F2146
:106C30002046FFF7BAFF0B4AE2E75B07CFD50422F5
:106C4000E26101230F212046FFF7AFFF064AD7E795
:106C500069EF0B00D8E303203AEF0B0088EF0B003D
:106C600043EF0B0053EF0B0063EF0B0007B50093EE
:106C70001346FF22FFF74CFF03B05DF804FB000052
:106C8000F8B50F461646012300220F210546FFF7EF
:106C9000E1FE044638B94FF425721F491F48FFF73B
:106CA000CBFD2046F8BD0123232218212846FFF7FB
:106CB000D1FE044610B940F29B22EEE7FF2FA8BF99
:106CC000FF27012FB8BF01270123FAB21921284657
:106CD000FFF7C0FE044610B94FF42A72DDE7012326
:106CE000082212212846FFF7C1FF044610B940F2DE
:106CF000AF22D2E7002E14BF03220222012342F06A
:106D0000800218212846FFF7A5FE04460028C8D1B6
:106D100040F2B922C1E700BF99EF0B00D8E303208E
:106D20002DE9F7430A4605460F464F484F49FDF700
:106D3000A9FA00212846FFF799FE044648B940F217
:106D4000F7124B494848FFF777FD204603B0BDE8EE
:106D5000F08301231A4630212846FFF787FF0446B7
:106D600010B940F20522ECE7102201231146284613
:106D7000FFF71BFF044610B94FF40372E1E701234C
:106D8000262213212846FFF765FE044610B940F27B
:106D90001322D6E7012600963346FC22112128460D
:106DA000FFF7B6FE044610B940F21B22C9E70022E5
:106DB00039462846FFF764FF044610B940F2222204
:106DC000BFE700960223772210212846FFF7A0FE96
:106DD000044610B940F22B22B3E7334604221C21AB
:106DE0002846FFF743FF044610B940F23222A8E7D5
:106DF00000961823E32211212846FFF789FE044656
:106E000010B940F239229CE73346C02217212846A8
:106E1000FFF720FE044610B94FF4107291E701F01D
:106E20005FFFDFF85490DFF840804FF47A71064638
:106E30004F4301F055FF801BB8420ED201221721AB
:106E40002846FFF7BDFD494602464046FDF71AFABF
:106E50004FF47A7002F0EEFAEBE706490248FFF7CA
:106E6000EBFC04F08EFC70E7D8E30320C4EF0B00CA
:106E7000B9EF0B00EAEF0B00D5EF0B002DE9F3475C
:106E80009DF828A005460C4691461F46BAF1000F12
:106E900002D0406802F072FD07B3202F3E4628BFA3
:106EA00020267F2C26D83319802B01D9C4F18006E7
:106EB000012304223F212846FFF777FE002364F0D8
:106EC0007F0100934A463346C9B22846FFF7E4FCE7
:106ED000804628B13444BF1BB144DDE74FF00108C0
:106EE000BAF1000F02D0686802F051FD404602B0CE
:106EF000BDE8F087012304223F212846FFF7B6FEB4
:106F0000DCE72DE9F3479DF828A005460C4691469D
:106F10001F46BAF1000F02D0406802F02FFD07B300
:106F20001F2F3E4628BF1F267F2C26D83319802BC3
:106F300001D9C4F18006012304223F212846FFF72E
:106F400034FE002364F07F0100934A463346C9B201
:106F50002846FFF743FD804628B13444BF1BB144A7
:106F6000DDE74FF00108BAF1000F02D0686802F0C7
:106F70000EFD404602B0BDE8F087012304223F2108
:106F80002846FFF773FEDCE730B585B00D68D1E920
:106F9000043203954D6802958D680195C96800918A
:106FA0000133044902F26C72044604F083FB20466C
:106FB00005B030BDFCEF0B0003090A2200F00F0002
:106FC00002FB0300704738B5044600781546FFF70A
:106FD000F3FF08606078FFF7EFFF4860A078FFF7E5
:106FE000EBFF8860E078FFF7E7FFC8602079FFF7E4
:106FF000E3FF013808612DB9651D2878FFF7DCFF34
:10700000886138BD6079FFF7D7FF6430A51D4861FE
:10701000F3E7000070B5012388B00D461A46102131
:107020000446FFF7A4FDF0B1082301262046009690
:107030000DEB03020021FFF72FFC044698B1324606
:1070400029460DF10900FFF7BEFF04A8FFF79CFFDA
:107050000848049A0849FDF715F904A804F062FAF3
:10706000204608B070BD24220021284606F088FE84
:107070000024F5E7D8E303201AF00B0030B58BB0FD
:107080000D4601A9FFF7C6FF044620B101A802F092
:10709000BDF9C5E9000120460BB030BD0A2390FBC5
:1070A000F3F103FB110091FBF3F203FB121240EA30
:1070B0000210C0B2704770B5054600680C4616460F
:1070C000FFF7ECFF20706868FFF7E8FF6070A868C2
:1070D000FFF7E4FFA070E868FFF7E0FFE0702869C1
:1070E0000130FFF7DBFF20712EB9661DA869FFF79D
:1070F000D5FF307070BD6A69642392FBF3F003FB27
:107100001020FFF7CBFFA61D6071EFE7F0B587B049
:10711000054602A816460C46FFF736FF1E48029A9F
:107120001E49FDF7AFF802A804F0FCF916B1686833
:1071300002F024FC204601220DF1090100278DF800
:107140000870FFF7B8FF01231A4610212846FFF701
:107150008DFD0446E8B1082300970DEB0302394684
:107160002846FFF73BFC044660B101231A46102174
:107170002846FFF71AFD16B1686802F008FC2046A1
:1071800007B0F0BD4FF48D7205490348FFF754FB7B
:10719000F1E74FF48F72F7E7D8E3032028F00B00F4
:1071A00036F00B0013B504466846CDE9002306F01F
:1071B00099FD9DF8102001462046FFF7A7FF02B079
:1071C00010BD0000F0B5057E89B0044675BB04F023
:1071D0009DFC58B30026002704A92846CDE9046782
:1071E00002F034F810B30125257604F0ACFCC31787
:1071F000CDE90203024600952046FFF7D3FF02A91E
:107200002046CDE90267FFF739FF134B13491B688E
:10721000009304A8DDE9022304F036FC1048049A28
:107220001049FDF72FF804A804F07CF963698BB1CD
:1072300001F056FD2369C01A636998420AD301F030
:107240004FFD4FF0FF312061204609B0BDE8F0400E
:10725000FFF70CBC09B0F0BDC8DE0320ACE603208C
:10726000D8E3032051F00B0030B504468BB011B1C8
:10727000406802F031FB2046FFF764FB06AD0028B2
:1072800037D02046FFF79CFC01231A4610212046E8
:10729000FFF76DFCD8B104F039FCC0B902A9204653
:1072A000FFF7ECFEDDE9020104F035FB134B144956
:1072B0001B6800932846DDE9022304F0E5FB114832
:1072C000069A1149FCF7DEFF284604F02BF90F4B14
:1072D00006930F4B09930F4B08934FF40062002362
:1072E00002A80095FDF746FC2846FCF771FF0BB09D
:1072F00030BD09490348FFF79FFAE8E7C8DE0320DD
:10730000ACE60320D8E3032067F00B00F16A0B0022
:107310007F410B006B410B0084F00B00014B024AD4
:107320001A607047D8E303209CF00B00704710B53B
:1073300010210446FCF7B3FE204610BD0368C9B215
:107340009B68184730B5034DC0E90223C0E90051DE
:1073500030BD00BFC8F00B00406802F0BDBA10B5E8
:107360000446006802F013FB204610BD2DE9F743E8
:107370000446406801900D4616461F4602F0FEFA8C
:10738000A7B1E168606841F0500102F0D8FA290A1B
:107390006068FFF7D3FF29466068FFF7CFFF60689A
:1073A000002102F0E7FA48B1002400E0012401A81E
:1073B000FFF7D5FF204603B0BDE8F083202F217BE7
:1073C0006068B84628BF4FF020080123424641F0CC
:1073D000500102F09EFA04F03FFE03681B699847D3
:1073E0004045E1DB06EB080904F036FE03685B6903
:1073F000984706F8010B4E45F6D14544A7EB080720
:10740000BEE72DE9F74F0446406801900E469046CE
:107410001D4602F0B3FA4FF00109B9F1000F2AD06E
:107420004DB3E168606841F0500102F088FA310A1A
:107430006068FFF783FF60683146FFF77FFFA5F1C3
:107440001E0A4746A6EB080B606817F8011B036885
:10745000013D9B68984755450BEB0706B84601D0A0
:10746000002DF1D16068012102F084FA0028D7D004
:107470004FF00009D1E701A8FFF771FF484603B0BC
:10748000BDE8F08F2DE9F0438BB00E4615468046DF
:10749000406801901C4602F071FAAE4229D226449F
:1074A00025448CB11E2C2746D8F8003028BF1E2753
:1074B000F61BD3F8089002AA3B4631464046ED1B26
:1074C000C84748B9002400E0012401A8FFF747FF9E
:1074D00020460BB0BDE8F083D8F8003002AAD3F8FC
:1074E0000C9029463B464046C8470028EAD0E41B9A
:1074F000D7E7E9D9002CE7D0D8F800301E2C274672
:1075000028BF1E27D3F8089002AA3B4631464046C2
:10751000C8470028D6D0D8F8003002AAD3F80C907B
:1075200029463B464046C8470028CBD03E443D4410
:10753000E41BDFE701600271704700680368DB68E5
:107540001847006803681B6A1847006803689B6A4D
:10755000184700797047006803689B6B184737B578
:1075600005460C4619460192FFF7F5FF2868019A77
:1075700003685B69214603B0BDE8304018470068E6
:107580000368DB6B184738B50446006803680D468E
:107590005B6B984729462046FFF7F1FF257138BD00
:1075A00038B50446006803689B689847054618B1DB
:1075B00021792046FFF7E7FF284638BD00680368B9
:1075C0001B6C1847006803685B6C18470068036809
:1075D000DB6C1847006803681B6D18470068036878
:1075E0005B6D1847006803689B6D18472DE9F843E9
:1075F000044600680A9F1E4603681B69DDE9089877
:1076000098470546C8B11EB12046FFF7E3FF30702A
:10761000B9F1000F04D02046FFF7D8FF89F8000029
:10762000B8F1000F04D02046FFF7D8FF88F800001B
:107630001FB12046FFF7D6FF38702846BDE8F88313
:10764000012070470379032BFCD0012070470020F4
:1076500070478171704741717047C1727047017303
:10766000704741737047837B23EA020211438173A1
:107670007047C0797047007A7047407A7047807AC7
:107680007047008A00B270470079704701717047F7
:10769000408A80B27047808A80B27047C08A80B2C8
:1076A000704738B505460C462B682846DB68984776
:1076B00028B9002CF8D0204601F0BCFEF4E738BD14
:1076C000F8B505460F46144601F00AFB064601F0E0
:1076D00007FB801BB8420AD22B682846DB68984714
:1076E00030B9002CF3D0204601F0A4FEEFE70020D3
:1076F000F8BD70B504460E4601F0F2FA054601F0F9
:10770000EFFA401BB04204D22379032BF7D00120BB
:1077100070BD0020FCE770B5C3690446B3B101F049
:10772000DFFA64260546236820461B6B984768B13C
:1077300001F0D6FAE369401B984209D80A210120DA
:1077400003F017FE704301F075FEECE7012070BDF9
:107750000020FCE7064A0260FF210022027141710D
:107760004282C172828281818273C282C261704709
:10777000E4F00B00704770477047704770474171E5
:1077800070478171704701717047000030B5034D3B
:10779000056001714271837130BD00BF64F10B005F
:1077A000704710B510210446FCF779FC204610BD47
:1077B0000EB403B503AB002153F8042B019303F07F
:1077C0009CFD02B05DF804EB03B0704773B504464E
:1077D00008462279A36832B1A3B90B4902B0BDE8CB
:1077E000704003F081BC094A267B094D0949647B3E
:1077F000012E18BF2946CDE900140749FFF7D8FF2D
:1078000002B070BD054AEFE7A1F10B0069F50B006E
:107810009DF10B0099F10B00B7F10B0090F10B00FB
:1078200010B50446FFF7B2FF054B2360054BA3607C
:107830000123237300232361A382204610BD00BFD0
:10784000F0F10B00DCF10B0013B50B4C2178BFF30A
:107850005B8F11F001010BD120460191FCF72EFC4A
:10786000019928B1054803F09DFD2046FCF72BFC4B
:10787000024802B010BD00BFE0E30320E4E30320B0
:1078800007B50191FFF7E0FF019903B05DF804EB44
:1078900003F040BE08B5FFF7D7FFBDE8084003F08E
:1078A0003FBE08B5FFF7D0FFBDE8084003F039BE82
:1078B00010B50379042B20D0032B20D0022B20D02D
:1078C000114A1249012B18BF0A46417983790139BF
:1078D00018BF012133B1012B04D0022B02D0032B9E
:1078E00018BF002300240473026101754375FFF77C
:1078F000ABFFBDE8104003F05FBD054AE5E7054A70
:10790000E3E7054AE1E700BF80841E0040420F0024
:107910000024F40000127A0000093D0008B5FFF7CA
:1079200093FFBDE8084003F05BBD10B50446FFF7C8
:107930008BFF04F10801BDE8104003F07DBD08B5E0
:10794000FFF782FFBDE8084003F05CBD08B5FFF714
:107950007BFF08BD002302481A461946FFF760BFA7
:10796000ECE30320012A05D1007A0B781B1A584258
:1079700058417047002070472DE9F047254C0123FE
:1079800086B02370637000230F46A170009303221A
:10799000FF232146064600F0B7FB20B1002528460C
:1079A00006B0BDE8F087FA238DF8173001F098F99A
:1079B00006F10409804608F57A6501F091F9291A63
:1079C0000029EBDD002289B24846FFF7BEFD002802
:1079D000F3D00023CDE90233CDE900330DF11702D6
:1079E0002146304600F09AFB05460028E3D09DF87A
:1079F0001730012BDFD994F800A0BAF1020FDAD1C9
:107A00004846FFF7E7FD534602463946304600F048
:107A1000F3FAC4E704E40320012A2DE9F341074601
:107A20000E4614463BD94D79022D30D100F10408A1
:107A3000C97901914046FFF7CDFD083C2B4602462F
:107A40000199384600F0D8FAE5B206F1080300249F
:107A50002246954204F10104E4B204D913F8012B43
:107A6000397A9142F4D104F108010E44A54216D9A5
:107A700016F8011B01914046FFF7ACFD01340246A8
:107A8000019902233846E4B200F0B6FAEEE7032D7E
:107A900005D1897902B0BDE8F04100F096BA02B094
:107AA000BDE8F08110B5044600F0E6FA014B236012
:107AB000204610BD24F20B002DE9F047F92A9DF86D
:107AC000209006460F4614461D4625D8FF2B14D19C
:107AD000DFF84880404600232246394600F8013B43
:107AE00006F026F9621CCDF820902B464146304620
:107AF000D2B2BDE8F04700F007BB194600F021FA0A
:107B00000028E5D1336829469B683046984700280D
:107B1000DED10220BDE8F0870120FBE704E403206A
:107B20002DE9F04F89B09846FA238DF81A300DF1FF
:107B30001F0303930DF11E0302935D4E0DF11D0310
:107B4000019307AB0093894617460DF11B030DF116
:107B50001A023146DDE912BA054600F0DFFA0446A2
:107B600020B90024204609B0BDE8F08F9DF81A30F6
:107B700073B3327862BBB8F1000F03D09DF81B20BD
:107B800088F80020BBF1000F03D09DF81C208BF873
:107B90000020BAF1000F03D09DF81D208AF80020C4
:107BA000149A1AB114999DF81E200A70159A1AB1E8
:107BB00015999DF81F200A703A783E49013BDBB2C7
:107BC0009A4288BF3B703A78484606F0B1F8C9E758
:107BD0009DF81C20FF2AC4D1012BC2D93278012A7A
:107BE000BFD12A7A9DF81B40A242BAD0DF1E32498B
:107BF000FFB200235FFA83F8474506D911F8010B5D
:107C0000824203F10103F5D1ABE705F104094846CF
:107C1000FFF7E0FC022302462146284600F0ECF97B
:107C200095F8173193B1224CA31BDBB29F420CD9BC
:107C3000E17805914846FFF7CDFC059902460223FD
:107C4000284600F0D9F90134EEE7B8462B6872787F
:107C5000DB681A4928469847044660B1022300248D
:107C600033709DF81A209DF81B3011490094284666
:107C700000F04AFA76E795F8163143457FF671AF82
:107C800095F81731002B3FF46CAF9DF81A202B7A32
:107C900007493E440132F3709DF81B300190D2B287
:107CA00000932846FF238DF81A2000F0F7F959E7D2
:107CB00004E4032005E4032007E4032006E4032092
:107CC000F0B585B0054604300E460392FFF782FCFE
:107CD000039A07463146284600F04AF9022804462E
:107CE00001D005281BD13178284600F06EF9727852
:107CF0002B7A9A4213D00B4C032323703378637092
:107D0000717802233A46284600F076F90023009362
:107D1000214673780222284600F0F6F904462046F0
:107D200005B0F0BD04E4032010B50446FFF702FCE3
:107D3000C8230021E3810323A160217323744FF43E
:107D4000807204F1110006F01BF8204610BD1FB52B
:107D500004460192FFF732FC204600228021FFF703
:107D600031FC2122019B8DF80F200DF10F01012222
:107D70002046FFF7F4FB2046FFF7E3FB04B010BDFD
:107D80002DE9F04F057B0135EDB287B004468946F9
:107D90009246984605730027227C3B469A4207F19B
:107DA0000107FFB26BD329462046FFF707FC012FDE
:107DB0000DBFC0228022402100212046FFF702FC97
:107DC0004346524649462046FFF7C9FB2046FFF787
:107DD000B8FBB8F1FF0F54D0012F82BFA368013365
:107DE000A36000F07DFF4FF4807183460020E68998
:107DF00003F0BFFA704348BFFF3006EB20261BFAA2
:107E000086F600F06DFF301A0028C5DD81B2002231
:107E10002046FFF79AFB0028F3D00DF117030293D9
:107E20000DF11603019300220DF115030093114685
:107E300005AB2046FFF7DAFB0028E2D09DF81420BE
:107E40009DF9173042450ED194F804C09DF81510E5
:107E50008C4508D1002B08DA9DF81630AB42D0D102
:107E600007B0BDE8F08F002BCBDBA1189DF81630D2
:107E7000497C9942C5D12046FFF769FFC1E7002040
:107E8000EEE70120ECE72DE9F04389B0CDE90421CC
:107E9000DDE91098129F04461E46FFF74EFBDDE910
:107EA000042120B90025284609B0BDE8F0830DF172
:107EB0001F0302930DF11E0301930DF11D030093A7
:107EC000204607ABFFF792FB05460028EAD09DF954
:107ED0001F30002BE6DB22799DF81D309A4206D137
:107EE0009DF81C209DF81E102046FFF730FF9DF8DE
:107EF0001F209DF81C109DF81E3012F0400F0C44FE
:107F000002D0607C9842CDD006B13170B9F1000F3B
:107F100003D09DF81D1089F80010B8F1000F01D0B2
:107F200088F8003007B13A706374BCE7704710B549
:107F300004460430FFF734FB10B11E2384F81631D9
:107F400010BD10B50246002392F818418C4208D1AA
:107F500092F81A412CB103EB430303F58C731844D8
:107F600010BD0133322B02F10302EDD10020F7E7FF
:107F700037B50B78FF2B05460C4606D01946019203
:107F8000FFF7DFFF58B14378019A2146281DFFF71C
:107F9000F7FE002814BF0020052003B030BD0220EA
:107FA000FBE710B501EB41030446C1F1310203F5D3
:107FB0008C7003F21B1102EB42022144204405F0B5
:107FC000B7FE002384F8AD3110BD38B50A46002352
:107FD00000F58C7403EB4305D9B2655D954203D17E
:107FE000FFF7DFFF012038BD0133322BF2D1002033
:107FF000F9E70021FFF7D5BFF8B516461F4604463E
:108000000D46002300F58C7203EB4300115CA9427E
:1080100005D1204480F8196180F81A71F8BD013348
:10802000322BF1D1002304F58D7203EB4300115C78
:1080300019B9204480F81851ECE70133322BF4D100
:108040002046FFF7D6FF204604F1960390F81A2148
:108050002AB980F8185180F8196180F81A71033034
:108060009842F3D1DAE700F19603002280F81A2152
:1080700003309842FAD1704710B504460430FFF738
:1080800053FE054B23604FF48F732046A4F816313E
:10809000FFF7E9FF204610BD3CF20B002DE9F34746
:1080A0000446406801911F4603689DF828A09B691B
:1080B0009DF82C901646984706F1050880451CD877
:1080C000104D019985F801A00023AB7094F815318B
:1080D000EB705A1C84F81521681D32462F7085F804
:1080E000049005F025FE23685B685FFA88F2294654
:1080F000204602B0BDE8F0471847012002B0BDE8B5
:10810000F08700BFFEE4032013B59DF810400194F2
:10811000047A0094FFF7C2FF02B010BD2DE9F04FC2
:1081200087B01F46FF238DF813300DF1170302931C
:10813000DFF8D0900DF1160301930DF115030093B4
:1081400004468846164605AB0DF113024946043035
:10815000DDE910BAFFF797FE054608B9002538E0BB
:1081600023689DF813201B6849462046984799F8D4
:108170000030227A9A4201D0FF2B2ED117B1214B29
:108180005B783B70BBF1000F03D01E4B1B788BF864
:108190000030BAF1000F03D01A4BDB788AF80030B8
:1081A000129B1BB1174B129A1B791370139B1BB1B7
:1081B000144B139A9B7813709DF813303278124940
:1081C000053BDBB29A4288BF33703278404605F0F7
:1081D000AFFD284607B0BDE8F08F99F802305A1C71
:1081E00089F8022094F816219A42B7D994F81731E9
:1081F000002BB3D023689DF813205B6849462046C6
:108200009847ABE7FEE4032003E5032010B50446DE
:10821000006A0368DB68984794F82400FF2802D0BE
:10822000012103F08FFE23682046DB6F984764200E
:1082300001F000F9012010BD90F82400002103F0A6
:1082400092BE90F82400012103F08DBE70B5044663
:108250000D461646FFF77EFA034B2360266284F82C
:108260002450204670BD00BF4CF20B0038B50446C8
:10827000006A03681B6A0D469847236820469B6F77
:108280009847206A036805F07F011B689847206AB9
:10829000036800211B68984723680546DB6F20466A
:1082A0009847206A03685B6A9847284638BD70B5CE
:1082B0000446006A03681B6A16460D469847236801
:1082C00020469B6F9847206A036845F080011B6831
:1082D00098470546206A036831461B689847012085
:1082E00000F0F6FC23682046DB6F9847206A03689D
:1082F0005B6A9847284670BDF8B50446006A1E467A
:1083000003681B6A0F4615469847236820469B6FF3
:108310009847206A036807F07F011B6898472E443E
:108320000746B54207D0206A036800211B689847BA
:1083300005F8010BF5E723682046DB6F9847206AB4
:1083400003685B6A98473846F8BDF8B50446006A8A
:108350001E4603681B6A0F46154698472368204649
:108360009B6F9847206A036847F080011B68984715
:108370002E440746B54206D0206A15F8011B036853
:108380001B689847F6E723682046DB6F9847206A0A
:1083900003685B6A98473846F8BD006A03689B6AC1
:1083A000184701207047FB207047704710B50379CC
:1083B000052B044610D003680521D3F88030984778
:1083C000072201212046FFF772FF8022402120462C
:1083D000FFF76DFF052323712379052BFCD0207E49
:1083E00010BD10B54FF498710446FBF758FE2046B7
:1083F00010BD10B50379012B04460BD00368012191
:10840000D3F880309847002201212046FFF74FFF24
:1084100001232371012010BDF8B50368DB68044611
:108420000F46154698470646B0B187B17DB194F81E
:1084300028302A78033B9342DEBF94F82830043B6F
:108440002B702A7804F12D01384605F071FC0023C9
:1084500084F8283184F828303046F8BD142938B51E
:1084600005460C4614DC012914DD112913DD072211
:108470004D212846FFF71BFF033C64B2A21E62F0A9
:108480007F022846D2B2BDE838400921FFF70FBF6E
:108490001424ECE7022404224D212846FFF707FFAD
:1084A000ECE7000038B5044615461A46FFF7CEFE45
:1084B000094B2360FF22002384F82720012284F83F
:1084C000283184F82C3184F8265084F82B2184F844
:1084D0002530204638BD00BFE4F20B0090F828306C
:1084E000032B1BD990F82930C37190F82A300372FE
:1084F00090F82B30437290F82C308372837933B923
:10850000C37942799A4202D0C379FF2B06D1838A7C
:1085100001339BB28382012380F828317047000029
:1085200038B504462DED028B10EE100AB0EE408AED
:1085300005F00CF817A3D3E9002305F05FF817A3A3
:10854000D3E9002305F084F905F030FB0621054648
:10855000C0F307422046FFF7AAFEC5F30722072112
:108560002046FFF7A4FEEAB208212046FFF79FFE4F
:10857000DFED077AB4EEE78ABDEC028BF1EE10FA7C
:10858000ACBF01230023012084F8293138BD00BF8E
:1085900000C042440000000080842E410000000022
:1085A00080844E4010B50379022B04460BD003683B
:1085B0000221D3F880309847012211462046FFF768
:1085C00076FE0223237110BD70B512210446FFF719
:1085D0004DFE1C2105462046FFF748FEFF220646B9
:1085E00012212046FFF763FE2379042B07D115F0F3
:1085F000A00F17D194F82B310BB1700612D5237947
:10860000042B01D1690622D42379032B01D12A0737
:1086100068D42379052B0ED16B070CD505F0010525
:10862000257663E0638A01339BB26382002384F87A
:10863000283184F82830FF2212212046FFF737FE28
:108640002046FF22BDE870401221FFF730BE132103
:108650002046FFF70BFE102105462046FFF706FED9
:108660000D2102462046FFF722FE04F129022B4687
:1086700000212046FFF740FE192184F828502046AB
:10868000FFF7F4FD40B20028B8BF0330801084F833
:108690002A011A212046FFF7E9FD94F92A3100B298
:1086A000002B2082A9BF238A228A1BB21B01B2BFE2
:1086B0009B180F2293FBF2F31BB2238294F829310B
:1086C0006BB1238A9D3B1BB223822046FFF706FF36
:1086D00094F82831002BAED0FFF764FFABE7238A74
:1086E000A43BF0E7E38A01339BB2E3822046F3E741
:1086F000024B186808B1FFF767BF704700E6032018
:10870000024B586808B1FFF75FBF704700E60320CF
:10871000024B986808B1FFF757BF704700E6032087
:1087200010B50379042B044610D003680421D3F854
:1087300080309847052201212046FFF7B8FD00222E
:1087400040212046FFF7B3FD0423237110BD10B56F
:108750000379032B044605D0FFF7E2FF94F82801C4
:10876000C0B210BD0020FCE710B50379032B04460E
:1087700010D003680321D3F88030984703220121E9
:108780002046FFF794FD402211462046FFF78FFD5B
:108790000323237110BDFB2AF8B504460F46154686
:1087A00002D900263046F8BD03681B6A9847204668
:1087B000FFF7F8FE23682046DB6A98470646002844
:1087C000EFD000220D212046FFF771FDE27A002153
:1087D0002046FFF76CFD227B00212046FFF767FD56
:1087E000627B00212046FFF762FDA27B002120462C
:1087F000FFF75DFD2B463A4600212046FFF7A5FD19
:108800002A1DD2B222212046FFF751FD2046FFF754
:10881000ABFFC7E710B5044680F8252072B181F39D
:10882000040242F07002D2B20921FFF740FD204657
:108830000422BDE810404D21FFF739BDBDE81040CE
:10884000FFF70CBE38B50C4605460A781D21FFF728
:108850002EFD62781E212846FFF729FDA2782846C2
:108860002621BDE83840FFF722BD0000052913B5D9
:108870000FD8094B01EB41015C185A5AA378ADF8A7
:10888000042001A98DF80630FFF7DCFF012002B0BB
:1088900010BD0020FBE700BFCCF20B0038B50A0A80
:1088A00005460C462021FFF702FDE2B228462121B1
:1088B000BDE83840FFF7FBBC73B50446FFF7A6FCE4
:1088C000064618B90026304602B070BD94F826500E
:1088D000FF2D54D029462046FFF75FFD802201215D
:1088E0002046FFF7E4FC0A2000F0A4FD0121204609
:1088F000FFF7BCFC8028E5D194F82600FF281CD0A7
:10890000002103F01FFB94F82730FF2B07D1264AE4
:108910001378032BD6D8591C117084F8273094F89B
:108920002720224B43F8224062BB214900924FF09E
:10893000FF330122A8B201F035F800220E212046B3
:10894000FFF7B5FC00220F212046FFF7B0FC2046C0
:10895000FFF728FE00212046FFF788FF0821204668
:10896000FFF79CFF9FED130A2046FFF7D9FD002378
:1089700084F825300D212046FFF770FDA3E74FF066
:10898000FF35ABE7012A4FF0000304D100930A49F9
:108990004FF0FF33CEE7022A94D1009307494FF0FE
:1089A000FF330122C6E700BFFDE5032000E60320F8
:1089B000F1860B000000D94301870B0011870B00E3
:1089C00003685B68184710B58369044633B131B159
:1089D000236820469B6898470023A36110BD00F0E0
:1089E0007FF9A369C01AE3699842F1D2F6E710B59E
:1089F000C36904461BB100F073F9A06110BD0368A0
:108A0000BDE810409B68184700F042B907B513460F
:108A100039B10022CDE900220A4601681E2000F08B
:108A20004FFB03B05DF804FB37B590F820300446E7
:108A30009BB183680A4DDA880A492846FBF722FC75
:108A4000A1682846CA88FFF7E1FF00230093064A81
:108A5000296801231E2000F02BFB03B030BD00BFAE
:108A600054E6032068F30B0068F50B0010B50446CC
:108A70000430FDF7FDF82368E1685B6920469847FC
:108A800018B9236820469B6998476068FFF7BCFFC8
:108A9000012010BDF0B521F00304184F184E194DF8
:108AA0000444A0420CD050F8043B7B434FEA73438C
:108AB00073435A404FEAF24202EB82022A44F0E743
:108AC00001F0030404440023A04204D014F8015D23
:108AD00045EA0323F8E70948434309484FEA73434B
:108AE0004A4058435040084B80EA10405843074BD7
:108AF00080EA5030584380EA1040F0BD512D9ECCA2
:108B00009335871B646B54E66BCAEB8535AEB2C2F6
:108B1000F8B504460430FDF7ABF8A36800229F685F
:108B20009A60A668054AF1883046FFF7B3FFB76040
:108B300005466068FFF768FF2846F8BD3F2A1C8598
:108B400070B504468568FFF7E3FFA86023682046F8
:108B50001B69BDE870401847F7B504460D46FFF79E
:108B6000D7FF94F82030064693B1294F29492A4669
:108B70003846FBF787FBA1682A463846FFF746FFD1
:108B800000230093244A396801231E2000F090FA44
:108B90000B2D23D9A3682269196891421FD19988A6
:108BA000A28A91421BD1D988AAB2914217D89A6859
:108BB000B24214D1E268AA4205D900215955E268AF
:108BC0000135AA42FAD8D4E902322046DA80A568F3
:108BD000FFF79EFFA860012003B0F0BD9DB1A16822
:108BE0000A6892B188688B880190C988084800910A
:108BF0000A49FDF72FFECDE90056A38A22690849EC
:108C00000348FDF727FE0020E6E71046E4E700BF33
:108C100054E603207CF30B0068F50B0094F30B0083
:108C2000C5F30B0038B50446C2688068002105F022
:108C3000A7F8A36822691A60A368A28A9A80D4E977
:108C400002322046DA80A568FFF762FFA86038BDCF
:108C500008B5024B1B685B6C019308BD74020300EE
:108C600008B5024B1B685B6C019308BD480203000A
:108C700008B5024B1B689B6C019308BD48020300BA
:108C800008B5024B1B68DB6C019308BD480203006A
:108C900008B5024B1B685B6D019308BD48020300D9
:108CA00008B5024B1B685B6D019308BD34020300DD
:108CB00008B5024B1B685B6E019308BD34020300CC
:108CC00008B5024B1B685B68019308BD18020300DE
:108CD00008B5024B1B68DB68019308BD180203004E
:108CE00008B5024B1B685B69019308BD18020300BD
:108CF00008B5024B1B689B6D019308BD1802030069
:108D000008B5024B1B68DB6D019308BD1802030018
:108D100008B5024B1B685B6E019308BD1802030087
:108D200008B5024B1B689B6E019308BD1802030037
:108D300008B5024B1B681B68019308BD2C02030099
:108D400008B5024B1B685B68019308BD2C02030049
:108D500008B5024B1B689B68019308BD2C020300F9
:108D600008B5024B1B68DB68019308BD2C020300A9
:108D700008B5024B1B681B69019308BD2C02030058
:108D800008B5024B1B685B69019308BD2C02030008
:108D900008B5024B1B689B69019308BD2C020300B8
:108DA00008B5024B1B68DB69019308BD2C02030068
:108DB00008B5024B1B681B6B019308BD2C02030016
:108DC00008B5024B1B68DB68019308BD280203004D
:108DD00008B5024B1B689B69019308BD280203007C
:108DE00008B5024B1B68DB69019308BD280203002C
:108DF00008B5024B1B681B6A019308BD28020300DB
:108E000008B5024B1B685B6A019308BD280203008A
:108E100008B5024B1B689B6A019308BD280203003A
:108E200008B5024B1B68DB6A019308BD28020300EA
:108E300008B5024B1B681B6B019308BD2802030099
:108E400008B5024B1B685B6B019308BD2802030049
:108E500008B5024B1B681B6C019308BD2802030078
:108E600008B5024B1B689B6C019308BD28020300E8
:108E700008B5024B1B68DB6C019308BD2802030098
:108E800008B5024B1B681B6D019308BD2802030047
:108E900008B5024B1B685B69019308BD64020300BF
:108EA00008B5024B1B689B68019308BD680203006C
:108EB00008B5024B1B68DB68019308BD680203001C
:108EC00008B5024B1B681B68019308BD3002030004
:108ED00008B5024B1B685B68019308BD30020300B4
:108EE00008B5024B1B685B69019308BD30020300A3
:108EF00008B5024B1B68DB69019308BD3002030013
:108F000008B5024B1B681B6A019308BD30020300C1
:108F100008B5024B1B685B6A019308BD3002030071
:108F200008B5024B1B68DB6B019308BD30020300E0
:108F300008B5024B1B681B6C019308BD300203008F
:108F400008B5024B1B685B6C019308BD300203003F
:108F500008B5024B1B689B68019308BD3C020300E7
:108F600008B5024B1B68DB68019308BD3C02030097
:108F700008B5024B1B681B69019308BD3C02030046
:108F800008B5024B1B685B69019308BD3C020300F6
:108F900008B5024B1B689B69019308BD3C020300A6
:108FA00008B5024B1B68DB69019308BD3C02030056
:108FB00008B5024B1B681B6A019308BD3C02030005
:108FC00008B5024B1B689B6A019308BD3C02030075
:108FD00008B5024B1B68DB6A019308BD3C02030025
:108FE00008B5024B1B681B6C019308BD3C020300D3
:108FF00008B5024B1B681B68019308BD4C020300B7
:1090000008B5024B1B685B68019308BD4C02030066
:1090100008B5024B1B689B68019308BD4C02030016
:1090200008B5024B1B681B69019308BD4C02030085
:1090300008B5024B1B685B69019308BD4C02030035
:1090400008B5024B1B689B69019308BD4C020300E5
:1090500008B5024B1B68DB69019308BD4C02030095
:1090600008B5024B1B681B6A019308BD4C02030044
:1090700008B5024B1B689B6A019308BD4C020300B4
:1090800008B5024B1B685B6B019308BD60020300CF
:1090900008B5024B1B681B6D019308BD60020300FD
:1090A00008B5024B1B685B6D019308BD60020300AD
:1090B00008B5024B1B689B6D019308BD600203005D
:1090C00008B5024B1B685B6E019308BD600203008C
:1090D00008B5024B1B68DB6E019308BD60020300FC
:1090E00008B5024B1B681B6F019308BD60020300AB
:1090F00008B5034B1B68D3F88030019308BD00000E
:109100006002030008B5034B1B68D3F89830019345
:1091100008BD00006002030008B5024B1B681B6815
:10912000019308BD2002030008B5024B1B685B6871
:10913000019308BD2002030008B5024B1B685B6960
:10914000019308BD2002030008B5024B1B681B6A8F
:10915000019308BD2002030008B5024B1B68DB6ABF
:10916000019308BD2002030008B5024B1B689B6DEC
:10917000019308BD2002030008B5024B1B68DB6D9C
:10918000019308BD2002030008B5024B1B68DB6F8A
:10919000019308BD2002030008B5034B1B68D3F8F8
:1091A0008830019308BD00002002030008B5034B7E
:1091B0001B68D3F89430019308BD0000200203001F
:1091C00008B5034B1B68D3F8A830019308BD000015
:1091D0002002030008B5034B1B68D3F8AC300193A1
:1091E00008BD00002002030008B5034B1B68D3F83C
:1091F000B030019308BD00002002030008B5024B07
:109200001B689B68019308BD4402030008B5024B2C
:109210001B68DB68019308BD4402030008B5024BDC
:109220001B685B69019308BD4402030008B5024B4B
:109230001B68DB69019308BD4402030008B5024BBB
:109240001B681B6B019308BD4402030008B5024B69
:109250001B685B6B019308BD4402030008B5024B19
:109260001B68DB6B019308BD4402030008B5024B89
:109270001B685B6C019308BD4402030008B5024BF8
:109280001B685B68019308BD4002030008B5024BF0
:109290001B689B68019308BD4002030008B5024BA0
:1092A0001B68DB68019308BD4002030008B5024B50
:1092B0001B681B69019308BD4002030008B5024BFF
:1092C0001B685B69019308BD4002030008B5024BAF
:1092D0001B689B69019308BD4002030008B5024B5F
:1092E0001B68DB69019308BD4002030008B5024B0F
:1092F0001B681B6A019308BD4002030008B5024BBE
:109300001B681B6B019308BD4002030008B5024BAC
:109310001B685B6B019308BD4002030008B5024B5C
:109320001B681B6C019308BD4002030008B5024B8B
:109330001B685B6C019308BD4002030008B5024B3B
:109340001B681B68019308BD1C02030008B5024B93
:109350001B685B68019308BD1C02030008B5024B43
:109360001B689B68019308BD1C02030008B5024BF3
:109370001B681B69019308BD1C02030008B5024B62
:109380001B68DB69019308BD1C02030008B5024B92
:109390001B685B6A019308BD1C02030008B5024B01
:1093A0001B68DB6A019308BD1C02030008B5024B71
:1093B0001B68DB6B019308BD1C02030008B5024B60
:1093C0001B681B6C019308BD1C02030008B5024B0F
:1093D0001B685B6C019308BD1C02030008B5024BBF
:1093E0001B689B6C019308BD1C02030008B5024B6F
:1093F0001B68DB6C019308BD1C02030008B5024B1F
:109400001B681B6D019308BD1C02030008B5024BCD
:109410001B685B6D019308BD1C0203008A4210B5F6
:1094200007D0441A0298C01A4443501A94FBF0F033
:10943000184410BD0021FFF77FBE10B54368013B03
:109440000446436063B903689B689847A368013B7F
:10945000A3602BB923682046DB68BDE8104018479D
:1094600010BD70B5D0E90053044605EB0316AE42BB
:1094700004D0284602F056F81035F8E72068FFF7C8
:1094800065FF204670BD10B50446006808B1FFF7BF
:10949000D4FF204610BD0000024800230360FFF700
:1094A000DFBB00BF0CE60320002240681146FFF737
:1094B000FDBE002240681146FFF718BF0022406839
:1094C0001146FFF723BF40680022FFF717BF40682F
:1094D000002281F00101FFF701BF002340681A4616
:1094E0001946FFF7F3BE002340681A461946FFF7F6
:1094F000E5BE002240681146FFF7C8BE4068002262
:109500000221FFF7CBBE002340681A46FFF7B6BE24
:1095100070B5134B03601825303386B00E46436098
:109520002A4600210446083004F02AFC0022706814
:109530001146FFF7BBFE78B100212A46684604F0C9
:109540001FFC69460020ADF80050FFF781FB18B9F9
:109550006946204600F0B8F8204606B070BD00BF4E
:1095600060F40B00084B10B5282422461846002151
:1095700004F006FC054B04804FF0FF3242600422E9
:109580005A60034A1A6010BD18E6032010E6032053
:1095900024F40B007047007B7047037B4BB10369D9
:1095A000B3F1004F05D08069B0F1004018BF012031
:1095B00070470020704703681B6A184770B503683E
:1095C0000D461B69064698470221284601F086FE93
:1095D0002C210446284601F08BFD336804449B6926
:1095E000304698470221284601F078FE204470BD9D
:1095F000A0F10400FFF7E2BF10B520210446FAF7FE
:109600004EFD204610BD0000037B7BB14369002B5B
:109610000CDB07EE903A9FED077AF8EEE77A87EEDB
:10962000870ADFED057A20EE270A7047BFEE000AB1
:10963000704700BF00FF7F470000C842037B63B153
:109640000369B3F1004F08D007EE903A9FED047A1A
:10965000F8EEE77A87EE870A70479FED020A7047B7
:109660000000C84200000000037B7BB1C369002BEF
:109670000CDB07EE903A9FED077AF8EEE77A87EE7B
:10968000870ADFED057A20EE270A7047BFEE000A51
:10969000704700BF00FF7F470000C842037B63B1F3
:1096A0008369B3F1004F08D007EE903A9FED047A3A
:1096B000F8EEE77A87EE870A70479FED020A704757
:1096C0000000C8420000000030B50D4600F108045B
:1096D0000FCD0FC495E8030084E80300012030BDDE
:1096E0001FB50C23ADF8043003688DF80630037AFB
:1096F0008DF80730436802930021437AADF80D10CE
:1097000001A88DF80F108DF80C30FFF7AFFD05B0F4
:109710005DF804FB002240681146FFF7E7BD002218
:1097200040681146FFF7F2BD40680022FFF7E6BD32
:109730004068002281F00101FFF7D0BD002340689E
:109740001A461946FFF7C2BD002340681A4619465B
:10975000FFF7B4BD002240681146FFF7A7BD002205
:1097600040681146FFF792BD406800220221FFF7D2
:1097700095BD002340681A46FFF780BD024B0322C7
:109780005A60024A1A60704740E603209CF40B00BE
:10979000006800F0F3B810B50446016002710AB128
:1097A000FFF7F6FF204610BD13B50446019102F005
:1097B00077FC019A01462046FFF7EDFF204602B0F4
:1097C00010BD006800F0E3B82DE9FF4104461D46D6
:1097D0000F461646FFF7DCFF36220023CDE90023B3
:1097E00020684FF001080A236946CDE9028300F0A2
:1097F000A9F82068036839469B6898472068036881
:1098000031469B6898472068036829469B689847BB
:109810004146206800F0AEF8002820460CBF002525
:109820006FF09F05FFF7CDFF284604B0BDE8F0813B
:1098300008B5402200230621FFF7C6FF00EAE070CA
:1098400008BD7047F8B5064615460C468F18BC4251
:1098500006D0336814F8011B9B6830469847F6E73A
:109860002846F8BD007C0022FFF7C2BA007C002128
:10987000FFF7C6BA007C0021FFF7CABA007C0021BE
:10988000FFF7CEBA007C0021FFF7D2BA10B5142141
:109890000446FAF704FC204610BD000038B5044623
:1098A00015464FF47A730022C4E90123094B217451
:1098B000084623602946FFF7CBFABF3008D16B6911
:1098C000DB0705D56868FFF741FDE868FFF73EFD57
:1098D000204638BDD8F40B000023007C1A461946F8
:1098E000FFF76EBA7FB500221423CDE90122ADF84F
:1098F00004300B788DF808304B680393CB680493E1
:10990000007C0B7A059301A9FFF7BAFA07B05DF85E
:1099100004FB1FB5003B8DF800104FF0640103916C
:1099200018BF0123694601928DF80830FFF7DAFF6E
:1099300005B05DF804FB007C0022FFF749BAC9B20C
:10994000FFF7F9BF7FB50023CDE901334A680392E1
:109950001423CA68ADF804300B7804920A7A059291
:10996000007C8DF8083001AA1946FFF731FA07B0DC
:109970005DF804FB007C0022FFF732BA08B5002135
:10998000007CFFF76DFAB0FA80F0400908BD08B519
:109990000021007CFFF76CFAB0FA80F0400908BDA6
:1099A000004700002DE9FF4100241D460F46904668
:1099B0000646FFF7F5F9A5424FF00403ADF80D4058
:1099C0008DF80C308DF80F40A2BF9DF828308DF82F
:1099D0000E3003AC0749009443463A463046A8BFD0
:1099E0008DF80D50FFF7D4F9B0FA80F0400904B0BB
:1099F000BDE8F081A1990B00704710B5182104460D
:109A0000FAF74DFB204610BDF0B5037D062B8DB057
:109A10000E4600F104074FF0000412D000F10805D3
:109A200015F8011D0A22304601F071FBAF420444D3
:109A300019D0002CF4D02E21304601F059FB0444FB
:109A4000EEE72F236A4639460A208DF80040FFF7DB
:109A50001FFA684604F031FA33680246DB6869464B
:109A600030469847044620460DB0F0BD10B5054B72
:109A70000446112240F8043B002104F081F92046FD
:109A800010BD00BF00F50B000346074A10B543F8B0
:109A9000042B01F1100251F8044B43F8044B91429E
:109AA000F9D10A781A7010BD00F50B0010B59DF8B9
:109AB000084044EA032343EA024242EA01610423E4
:109AC0004160037510BD000007B5064B0360CB78FD
:109AD00000938B784A780978FFF7E8FF03B05DF8C8
