:02000002B0004C
:1040000000400B001CF40B00000006000D00050230
:084010000401A60F00000000EE
:044018001CDC0B00A1
:1040200009480A49884208B505D0094A824202D0A7
:10403000121A09F0F9FB0748074A0021121A09F081
:104040001BFC014808BD00BFBCDD032078F20B005B
:1040500038DF032038DF0320EDE7032070B5074E7B
:10406000074C07F07BFCA41BA4080025AC4200D140
:1040700070BD56F8043B98470135F7E70CF20B008A
:1040800044F20B0000F08ABD08B500F009FABDE863
:10409000084007F01BBC04F00DBF04F00BBF04F098
:1040A00011BF000008B5034A03490C2004F0BCFD11
:1040B000FEE700BF79880B0030DC0B000078B0FA17
:1040C00080F0400970470123037070477047006A11
:1040D0000368DB6818470000014B1A60704700BF97
:1040E000BCDD0320014B01221A707047CEDF032094
:1040F00030B585B00446089860B1406850B1856815
:1041000045B1CDE90241CDE90023C46801AB6A465F
:1041100002A9A04705B030BD10B5084C23782BB1DB
:10412000074B01221A700023237010BD01F08AFC96
:1041300001F086FD0128F3D00123F5E764DF0320B9
:10414000CCDF032030B585B0006813680193D1E956
:1041500000458368CDE902450BB907F085FDC368CA
:1041600001AA02A9984705B030BD012A02D1016019
:1041700000207047022A04BF0B680360F8E7036859
:104180001268D1E9000118470A4B10B504460360D4
:1041900005F0A8FD214605F0E0FF07F04FFB07F012
:1041A0003FFB2046044B40F8043B05F071FE2046DF
:1041B00010BD00BF48E00B0030E00B0010B5044616
:1041C000FFF7E2FF20462421FFF769FF204610BDDC
:1041D00010B58368044613B1032201469847204670
:1041E00010BD10B5044638B1FFF7F2FF204610218C
:1041F000BDE81040FFF753BF10BD0000F8B5037DC8
:1042000005460F4616468BB10368DB6883B19A8872
:10421000012A06D09B68F9E79B684BB19A88012A6E
:10422000FAD12BB19A89BA42F6D19E732846F8BDCD
:104230000A49102007F014FD044668B1102200213D
:1042400009F01AFB064B23600123A3802B69A360AE
:10425000A781A6732C61E9E72875E7E7CCEF0B008F
:10426000100003000EB400B58CB00DAA4FF0200C66
:1042700052F8041B0392CDE900120023016804AA3E
:104280001E20CDE904C304F0DFFC0CB05DF804EBA4
:1042900003B0704770B5134E134C3278134D022A99
:1042A000C2B017D107F0C6F932782B7804EB0212AE
:1042B000009204EB031398B90D4A4FF4807102A8E1
:1042C00004F018FE33780B482B7002A9FFF7CAFFE1
:1042D00042B070BD2B7804EB0212009204EB031382
:1042E000054AEAE7CDDF0320C0DD0320C4DF032059
:1042F00045DC0B0054E6032065DC0B0000000000E9
:104300002DE9F0435C4D2E6887B0002E42D002208C
:1043100006F0C6FD0646286808F082FE9FED540BA5
:1043200041EC110B07F0A4FC0A2059EC108B7043F0
:1043300008F066FE42464B4608F0DCFE4F4B00227A
:1043400008F022FD09F0AEF9044601F07BFB01F014
:1043500068FCCDE9006402462B6849494948FFF7EB
:1043600081FF2B68022B11DD4FF0FF332B6001F032
:1043700069FB042101F0ADFC01F064FB054607F088
:1043800076F90246C317284601F068FD204607B0BB
:10439000BDE8F08307F04EF9002865D001F052FB2C
:1043A00001F03FFC054601F04DFB01F0CDFC3C2443
:1043B00004FB00F707F05BF9B0FBF7F404FB17040C
:1043C0003C1BBC4228BF3C4601F03CFB01F029FCF1
:1043D0000A2805D92C492B482246FFF743FFD5E789
:1043E0002A4F07F044F9D7E90089C317B0EB08005A
:1043F0002DB263EB090305EB8505002B4FEA45055C
:1044000016DB07F034F92C440219214B2149C7E986
:10441000002602A80093334607F0CAF8029B1E4903
:1044200022461848FFF71EFF02A806F01DFEADE762
:1044300007F01DF9B8EB000869EBE070454576EB35
:1044400000030FDB3C6807F012F9114B0093D7E92A
:1044500000231049241A02A807F0AAF8029B0F496A
:104460002246DEE72C4491E73C248FE7AFF300803F
:104470000000000000000040C8DF032000002440CE
:1044800073DC0B0054E60320AADC0B0050DF032092
:10449000E9DC0B00A8E60320ECDC0B0012DD0B00CE
:1044A0002DE9F04FB14C2378013B8DB0042B00F285
:1044B000E780DFE813F0070205004D003801A7018F
:1044C000AB4B1B78022B01D0FFF7E4FE07F0CFF8CF
:1044D000054601F0B7FA01F093FCEB172D1A63EBD8
:1044E000010601F0AFFA01F02FFC78235843A842EF
:1044F0004FF00003B34121DA01F0A4FA01F0C6FA4B
:10450000E0B19C499C48FFF7ADFE01F09BFA032106
:1045100001F0DFFB01F096FA054607F0A8F8024625
:10452000C317284601F09AFC01F08CFA054607F003
:104530009EF80246C317284601F08BFC01F082FA70
:1045400001F079FB002800F0E1810123237097E05E
:10455000874B1B78032B01D0FFF79CFEFFF7D0FEA3
:10456000074607F084F8054607F064F80646002879
:104570004CD0EA19814B00938149D31708A807F062
:1045800017F8089D01F05EFA01F080FA7D4B7E4A33
:104590007E49002808BF1A46009277482B463A46C3
:1045A000FFF760FE16B108A806F05EFD01F04AFABA
:1045B00001F06CFA764BB3F800B018B901215846F7
:1045C00007F04DFA734B1A7D0AB102221A72724B30
:1045D0007048B3F8009000224946FFF70FFE6F4B7A
:1045E000B3F800A001225146FFF708FE037D0646FE
:1045F00013B303684FF47A78DB6808FB07F83BB124
:104600009A88042A00F012829B68F8E7644DB9E7A3
:104610006449102007F024FB0546002800F00482BE
:104620001022002109F028F95F4B2B600423AB8096
:104630003369C5E90238356100215C4802F03EF873
:10464000544905A806F034FE4FF0FF31574802F0F8
:1046500035F80021584607F002FA059B002B34D0AC
:104660009A88012A31D19B89994531D150494248D4
:10467000FFF7F8FD04230598237008B104F022FC2D
:104680004A484C4C02F0C6FB01F050FA01F069FABE
:1046900001F0D8F901F0F1F9237823B101F0A0FD80
:1046A00008B100232370444B1B68002BC0F2C1816A
:1046B00042493148FFF7D6FD4FF4FA6004F076FC2A
:1046C0000DB0BDE8F04F06F0F0BD4FF6FF73CBE73D
:1046D0009A450FD13A492848FFF7C4FDFFF710FE6D
:1046E00002281EDDFFF70CFE40F25523984218DC2D
:1046F0000323C0E706F0BBFF204B21490093C219FA
:10470000D31708A806F054FF089A039206F030FE6B
:10471000039A2C4903461848FFF7A4FD08A806F0A1
:10472000A3FC0223A7E7124B1B78042BA8D0FFF7AA
:10473000B1FD00F03DFC00F0CFFC01F061FE01F0A6
:1047400081F901F078FA002842D100F031FC00F044
:104750000DFD05461C4B002D50D11A681B4906481B
:1047600001321A60FFF77EFD0323EFE6CDDF032061
:10477000C4DF03203FDD0B0054E60320E9DC0B001F
:10478000A8E603203BDD0B0038DD0B0095DD0B00B8
:104790002AE60B0088DF032026E60B0028E60B0044
:1047A00058DC0B00CCEF0B001000030068DF032087
:1047B000D0DD0B00CCDF0320BCDD03201DDF0B00B0
:1047C000F3DD0B000EDE0B00C8DF032034DE0B0030
:1047D00001F038F901F02FFA01280AD100F0E8FBC6
:1047E00000F0AAFE054601F02DF9002101F071FA52
:1047F000B0E700F0DDFB00F075FFF3E700221A6080
:104800000523A3E68C4B8D4D1B78052B06D0FFF7B7
:1048100041FD04F039F803232860237041F2873604
:1048200004F032F82B68C01AB0423FF629AF00F00E
:10483000BFFB00F0B1FF0028F2D001F003F90546FC
:1048400006F015FF0246C317284601F002FB01F0EF
:10485000F9F801F0D5FA06F038FB06F008FF01235D
:1048600002460093C317764802F0C4FA01F0EAF852
:1048700001F0E1F930B10223237000F099FB00F060
:104880003BFCFDE66F4D704C2B78BFF35B8F13F054
:10489000010F09D12846FFF711FC28B106F0F8FEF8
:1048A00020602846FFF70FFC06F0F2FE23689842CE
:1048B000E3D001F03BF9002101F07FFA06F0E8FEB9
:1048C0002060DAE75C4B1B78012B01D0FFF7E2FC9C
:1048D00001F0B8F801F0AFF90138062800F29F8026
:1048E00001A353F820F000BF05490B0011490B004C
:1048F00015490B008F490B00F3490B000B4A0B00C5
:1049000081460B0051495248FFF7ACFC04231DE6D9
:104910005049F8E7504C514D2378BFF35B8F13F0AB
:10492000010F09D12046FFF7C9FB28B103F0ACFF06
:1049300028602046FFF7C7FB03F0A6FF2B68C01ACC
:1049400047F2305398427FF69BAE45494048FFF707
:1049500089FC01F077F8002101F0BBF901F072F851
:10496000044606F084FE0246C317204601F076FA9C
:1049700001F068F803680021DB6898474FF4FA609B
:1049800004F014FB1E212E4801F0F2FF78E63549B1
:104990002F48FFF767FC00F00BFB00F0B3FB98B16A
:1049A00031492B48FFF75EFC01F04CF8012101F082
:1049B00090F901F047F8054606F059FE0246C31784
:1049C000284601F04BFAA1E728492148FFF74AFCA5
:1049D00001F038F8032101F07CF901F033F80546C5
:1049E00006F045FE0246C317284601F037FA0223B7
:1049F000ACE501F027F801F037FA01F097F801F083
:104A0000BAFA01F01FF80121E5E701F08FF801F093
:104A1000B2FA01F017F8002101F05BF9E7E7144959
:104A20000B48FFF71FFCF4E7307505E6C3F80C8070
:104A300002E60DB0BDE8F08FC4DF03205CDF032089
:104A400068DF032048DF032060DF032059DE0B000E
:104A500054E6032079DE0B0044DF032058DF0320F7
:104A600090DE0B00ABDE0B00C1DE0B00DBDE0B00CB
:104A700007DF0B0038B5002383608B6804460D46C2
:104A80002BB102229847EB68E360AB68A360204635
:104A900038BD00002DE9F04395B005461C9904A8E7
:104AA00090461F460CAEFFF7E5FF04A908A8FFF7E4
:104AB000E1FF08A93046FFF7DDFF4FF000091020A5
:104AC000CDF84890FFF7E7FA0446A0B196E8030056
:104AD00001AB83E8030094E8030086E8030093E851
:104AE00003000E9BE268A36084E803000F9BCDF8EF
:104AF00038900F92E360244B1393244B12930022BF
:104B000000234FF00009C5E90023214BC5F80890A8
:104B100010201094CDE90139CDF80C90FFF7BBFAC5
:104B20000446D8B1129BC0F8089033B1022210A9F4
:104B30009847139BE360129BA360164B0393164A9E
:104B4000029401AB4046394604F0C2F8B0B12046A9
:104B5000FFF73EFB10212046FFF7A1FA10A8FFF750
:104B600037FB3046FFF734FB08A8FFF731FB04A8FA
:104B7000FFF72EFB284615B0BDE8F083029BAB6023
:104B8000C5E90087EAE700BF45410B00594D0B001E
:104B900002000C00E3410B00F1400B0030B5002097
:104BA0008DB003F081FE42F210750446002003F040
:104BB0007BFE001B61F10001A84271F1000307D2E6
:104BC00006F03CFE06F02FFE10B904F0DBF8EDE72E
:104BD00006F034FE06F027FE01F006FA01F030FA86
:104BE00000F0A4FF03681B68984700F02BFF0368E0
:104BF0001B68984700F026FF01F06CF9474808232E
:104C00000121438102F058F97C21444801F056FD0E
:104C1000434B0893434B0B9308AC434B0A934FF41D
:104C20008022002304A80094FFF734FF2046FFF7FA
:104C3000CFFA00F0BDF9002100F0CCF900284DD1E9
:104C400000F000FF032101F044F800F0FBFE0446F1
:104C500006F00DFD0246C317204601F0FFF800F0F4
:104C6000F1FE00F0E8FF314902463148FFF7FAFA59
:104C700001F0C6FB2F4B1D88284606F009FF28B916
:104C80002D492B48FFF7EEFA04F084F82B482C4905
:104C9000008800244FF0FF330122009404F024FC2C
:104CA0004FF0FF33224627490094284604F01CFCAD
:104CB000254B1A780AB903221A7000F0C3FE00F0DF
:104CC000BAFF224902461A48FFF7CCFA204B18884F
:104CD00000210DB0BDE8304006F0C1BE00F0B2FECC
:104CE00000F09FFF0A2814D900F0ACFE012100F06B
:104CF000F0FF00F0A7FE00F094FF039000F0A2FE8A
:104D000000F099FF039A134903460948FFF7AAFAEE
:104D1000AEE706F08FFC0028E6D0A9E768DF0320A5
:104D2000D9400B007F410B006B410B0039DF0B00BA
:104D300054E6032026E60B00BEDF0B0028E60B003E
:104D400019410B00E5400B00CDDF0320F5DF0B0020
:104D500024E60B0077DF0B00012A37B5044604D1A7
:104D60000B680360002003B030BD022A0CD0032A78
:104D7000F8D10468002CF5D02046FFF729FA10215D
:104D80002046FFF78CF9EDE7096801911020FFF745
:104D900082F9054610B10199FFF76CFE2560E1E745
:104DA00070B5D0E900531426044606FB0356AE4204
:104DB00004D0284606F058F91435F8E7206804F0C6
:104DC00081F8204670BD8842F8B504460D46164667
:104DD00016D9904215D2A2F11406751AA1F1140742
:104DE0002C44B7421CD02CB13146204606F0B8F90D
:104DF000337C2374304606F037F9143E143CF0E758
:104E00000ED0B5420CD02CB12946204606F0A8F9A8
:104E10002B7C2374284606F027F914351434F0E768
:104E2000F8BD2DE9F0410023C0E9003383604F68ED
:104E30009F4204460E4623DD4FF0140808FB07F09E
:104E400004F038F80546D8B1D4E9001208FB021284
:104E5000FFF7B9FF206804F035F82560A760D6E9B0
:104E6000007308FB0378B84508D03946284606F099
:104E700091F93B7C2B7414371435F4E77368636045
:104E80002046BDE8F0810000F0B52F4B2F4A9A6014
:104E900000248DB0C3E90044032003F009FF21463C
:104EA000012003F01DFF0121042003F0D5FCCDE912
:104EB0000044029406F0C2FC254D0646694603A84C
:104EC000FFF7AFFF2F4603A906A8FFF7AAFF214B64
:104ED00047F8043B06A909A8FFF7A3FF09AA1E216A
:104EE000384605F01DFA09A8FFF75AFF06A8FFF794
:104EF00057FF194B2B6003A82E62FFF751FF174B8A
:104F00002B6006F09BFC4FF4165106F085FC04F074
:104F1000E9FE294605F0DAF86846FFF741FF104B35
:104F20001A1D1A600F4A5A6001221A75C3E9024419
:104F30001C6106F00DFE01460B4869220DB0BDE86C
:104F4000F04001F0BDBA00BF38DF03200000FFFFD2
:104F5000A0DF032030E00B006CEE0B0048E00B00FC
:104F600088DF03201000030068DF032070477047CC
:104F700010B504210446FFF792F8204610BD00004A
:104F800010B5054B00220446114640F8043B03F0DF
:104F900073FE204610BD00BF18E50B0010B5044697
:104FA000FFF7EEFF20462021FFF779F8204610BDDD
:104FB00010B5064C236833B90420FFF76CF808B12C
:104FC000034B03602060206810BD00BFD0DF0320CA
:104FD0002CE50B0030B5364887B00D4602F0CFFD0A
:104FE000044630B933493448FFF73CF9204607B04E
:104FF00030BD9FED320A324803F0BAF80022172183
:105000002F4803F02FFA00F01DFD00F00AFE2D4995
:1050100002462948FFF726F98DB100F013FD002163
:1050200000F045FE02A803F0C5FE029A2649224878
:10503000FFF718F902A806F017F82C46D6E700F09B
:1050400001FD00F0EEFDF0B100F0FCFC00F0E9FD28
:105050000A2818D800F0F6FC00F0E3FD01461B48D2
:1050600002F0B9F8194802F09CF8019002A803F088
:10507000A1FEDDE9012316490F48FFF7F3F802A866
:1050800005F0F2FFB2E700F0DDFC0B2100F00FFEAF
:105090000B210E4802F09FF80C4802F082F80190B4
:1050A00002A803F087FEDDE901230A49E4E700BF17
:1050B00000E2032058E00B0054E6032000C06444E3
:1050C000D0E0032064E00B0083E00B0004E2032047
:1050D000BDE00B00F4E00B0010B5064CC0B00DF1C4
:1050E000030201A9204602F0BFFF0028F7D140B01B
:1050F00010BD00BFD0E00320014802F0A2BF00BFF6
:10510000D0E00320134B10B51C880021204606F088
:10511000A6FC0A2003F04AFF0121204606F09FFC6E
:105120000A2003F043FF0C4802F029FD044628B989
:105130000A490B48FFF796F8204610BD9FED090A73
:10514000094803F015F808480022172103F08AF9EE
:10515000F2E700BF30E60B0000E2032058E00B004E
:1051600054E6032000C06444D0E003202DE9F0435E
:1051700085B000F0DBFC00F077FD044600F0D6FCC3
:1051800000F06DFD0646204607F04AFF0446304613
:105190000D4607F045FF02460B462046294608F01B
:1051A000D3F800227C4B07F0A5FF08F09BFA7B4B5D
:1051B0001F8801210646384606F051FC00F0B6FC77
:1051C00000F04DFDFF2840F0A38000F0AFFC00216F
:1051D00000F097FD00F0AAFC002100F098FD00F01F
:1051E000A5FC00F03CFD6E496E4C02466E48FFF790
:1051F00039F800F027FC00F0A2FD000A207000F052
:1052000021FC00F09CFD01256070A57000F08EFC73
:1052100000F09FFD000AE07000F088FC00F099FDAE
:10522000207100F083FC00F099FD000A607100F02D
:105230007DFC00F093FDA07100F004FC00F000FD87
:10524000E07100F073FC00F000FD207200F06EFCD5
:1052500000F092FC51EC100B08F024FA607200F0A0
:1052600065FC00F0F7FCA07200F0ECFB00F0DEFC47
:10527000E07200F05BFC00F0F2FC207300F056FCE2
:1052800000F0F2FC0323607321460093474800239B
:105290000E2202F039FA0446002846D100F046FCFE
:1052A000064600F043FC00F0DFFC2844C1B2304663
:1052B00000F02DFD00F03AFC00F0D6FC804600F036
:1052C00035FC00F0CCFC0646404607F0A9FE8046BF
:1052D0003046894607F0A4FE02460B464046494642
:1052E00008F032F82C4B002207F004FF08F0FAF91E
:1052F00007F0A8FE02460B462B482D49FEF7B2FFE9
:105300003846214606F0ABFB284605B0BDE8F083E1
:1053100000F00CFC044600F009FC00F0A0FC013099
:10532000C1B2204600F0EDFC59E7022815D100F08B
:1053300089FB00F076FC0390304607F083FE039A69
:10534000CDE900011B4900231748FEF78BFF3846C3
:10535000002106F084FB0020D7E705280DD100F0DE
:1053600071FB00F05EFC0390304607F06BFE039A81
:10537000CDE9000100231049E6E700F063FB00F0EF
:1053800050FC0390304607F05DFE039ACDE9000122
:1053900000230A49D8E700BF0000594024E60B006B
:1053A0003BE10B00D4DF032054E6032000E203209E
:1053B00059E10B0084E10B00D4E10B002DE20B005E
:1053C00070B5002290B01421022003F0A1FC4E4DD4
:1053D0001E220121CDE9002103460222FF2108A857
:1053E00004F002FB2C7A012C71D100F02BFB0B2175
:1053F00000F05DFC0B21454801F0EDFE00F022FBC2
:10540000214600F066FC00F01DFB064606F02FF971
:105410000246C317304600F021FD3C4801F0C1FEB2
:10542000029004A803F0C6FC3948049B029A39494B
:10543000FEF718FF04A805F017FE00F003FB697AD9
:1054400000F04DFCAE7A002E58D100F0FBFA314648
:1054500000F02EFB30492E48FEF704FF2F4B304A58
:105460003049A87A002C08BF1A462F4CEB7A0392D9
:10547000012818BF0C46029300F0E4FA00F0DBFBB1
:10548000DDE90232CDE9004028492148FEF7EAFE75
:105490000022012109A803F0EFFB0024244801F0B9
:1054A00018FF4FF4FA636FF077026FF01D0100945C
:1054B00003F070FD03F07AFD2246214609A803F0AF
:1054C000DBFB08A8FFF75CFD012010B070BD002CCD
:1054D000B3D0224617490E48FEF7C4FE00F0B2FAD8
:1054E000214600F0F6FB00F0ADFA064606F0BFF8E4
:1054F0000246C317304600F0B1FC9EE700F0A2FA66
:10550000012100F0D5FAA9E7D4DF032004E203204B
:1055100054E60320F4E00B00B2E20B0082E20B0041
:105520007DE20B008FE20B008AE20B00D4E20B005D
:10553000D0E0032096E20B00F0B52F4B2F4D1E88D4
:105540008FB00121304606F08AFA03A803F032FC3E
:105550000023192207A903A805F027FE03A805F0D8
:1055600083FD00F06FFA00F0EAFB000A287000F0FB
:1055700069FA00F0E4FB0DAF687007ABAA1C1C468B
:1055800003CCBC4210605160234602F10802F6D100
:105590002378137000F056FA00F052FBE87600F022
:1055A00051FA00F03EFB1649164A01240A2888BF2A
:1055B0000A4615491548FEF755FE1049144800944F
:1055C00000231C2202F0A0F8054650B911490F48EB
:1055D000FEF748FE3046294606F041FA20460FB055
:1055E000F0BD0D490948FEF73DFE3046002106F0AA
:1055F00036FA0020F3E700BF24E60B00D4DF0320D7
:1056000025E30B003CE30B0051E30B0054E60320C1
:1056100000E2032071E30B009BE30B0010B50022B6
:105620008CB01421022003F073FB1E2201210346DB
:10563000CDE9002104A82549254C022204F0D4F923
:1056400000F000FA00F0EDFA0A2804D900F0FAF9A7
:10565000617A00F02CFB00F0F5F9A17A00F03FFB35
:1056600000F0F0F900F0DDFA039000F0EBF900F043
:10567000E7FA039A174903461748FEF7F3FD00F0CF
:10568000E1F900F0CEFA0146144801F0A4FD002231
:10569000012105A803F0F0FA0024114801F019FED9
:1056A0004FF4FA636FF077026FF01D01009403F07E
:1056B00071FC03F07BFC2246214605A803F0DCFACE
:1056C00004A8FFF75DFC01200CB010BD0060FF00D6
:1056D000D4DF0320BAE30B0054E6032004E20320E6
:1056E000D0E003201E4B37B51D881E4C01212846F3
:1056F00006F0B5F900F0A6F900F021FB000A2070D1
:1057000000F0A0F900F01BFB607000F09BF900F0C6
:1057100092FA0523A0702146009313480023032228
:1057200001F0F2FF044680B900F08CF900F083FA32
:105730000E49024623460E48FEF794FD28462146B0
:1057400006F08DF9012003B030BD0A490848FEF784
:1057500089FD2846002106F082F90020F3E700BF0A
:1057600024E60B00D4DF032000E20320F1E30B006A
:1057700054E6032029E40B0008B500F063F900F0BB
:105780005AFA034902460348FEF76CFD012008BDA2
:1057900054E40B0054E60320F0B58DB0F9238DF8E6
:1057A0001A300DF11F0303930DF11E030293444DB4
:1057B00044480DF11D03019307AB00930DF11A024C
:1057C0000DF11B03294601F0D3FF044618B900244C
:1057D00020460DB0F0BD9DF81A300027EF542E88FA
:1057E00000F030F900F0ABFA76BAB6B2B04204D0AD
:1057F00035493648FEF736FDE9E7354E9DF81E304F
:105800009DF81B2033483370059201F062FD324948
:10581000059A0346307801EB001100912B482F497F
:10582000FEF720FDD5F8020000BAC11705F007FE0B
:1058300000F008F9E98849BA89B200F0B8FA00F036
:1058400001F9297A00F045FA00F0FCF8054605F068
:105850000EFF0246C317284600F000FB05F007FFC5
:10586000C317024608A805F0FDFD089A059200F04E
:10587000E9F800F069FA059A194903461348FEF75A
:10588000F1FC08A805F0F0FB3378042B11D0337835
:10589000022B05D1FFF78CFBFFF7C0FE002897D144
:1058A0003378062B93D1FFF783FBFFF765FF0446A0
:1058B0008EE7FFF77DFBFFF783FD0028E7D087E742
:1058C000D4DF032000E2032081E40B0054E6032030
:1058D000CFDF0320D0E0032050DE0320AAE40B003A
:1058E000DCE40B0010B5084A084C09491278097825
:1058F000084B204602F0FEFB21460748BDE8104059
:10590000002201F0F7BE00BF2EE60B00D0E003201E
:105910002CE60B00ECE3032000E2032010B5044B5F
:1059200003600446406808B102F076FF204610BDCF
:10593000CCEC0B0010B50446FFF7F0FF20467021B9
:10594000FEF7ADFB204610BD10B5034B03600446C7
:1059500001F014FB204610BD84E50B0010B5044691
:10596000FFF7F2FF20461021FEF799FB204610BDFD
:1059700010B5044B03600446406808B102F04CFFC8
:10598000204610BDCCEC0B0010B50446FFF7F0FF2D
:1059900020466021FEF783FB204610BD10B503684A
:1059A00004460BB902F030FF2068BDE8104002F059
:1059B0003BBF38B504460430FFF7F0FF206A616A48
:1059C0000368DD68D4E90223A8476068BDE8384071
:1059D00002F032BF38B504460430FFF7DFFF206A1B
:1059E000616A03689D68D4E90223A847A268236816
:1059F000D1885B692046984718B9236820469B697F
:105A00009847606802F018FF012038BD00F12801B6
:105A1000816009494FF0380CC0E903C1022181823D
:105A20004FF47A71C16105490022C0E90812426051
:105A30008261034A02607047759EA920B8E3032083
:105A4000A0E50B0010B5064C23683BB96020FEF7BB
:105A500022FB034608B1FFF7D9FF2360206810BD81
:105A6000B0E3032010B5006A01F09EFAFFF7EAFFE9
:105A70000368BDE810405B68184710B5FFF7E2FF08
:105A80000368BDE81040DB680121184738B50446BB
:105A90000430FFF783FFE3686068013B302B86BF6B
:105AA000A36893F83150002502F0C6FE284638BDA1
:105AB00038B5044604300D46FFF770FFE368013B3C
:105AC000302B0FD9A36893F83120AA420AD083F86B
:105AD00031502046A56802F015FEA86023682046D4
:105AE0001B6998476068BDE8384002F0A5BE000019
:105AF000002200F12801426082614FF47A728160D5
:105B0000C2610749074A02624FF0480C3222C0E9DD
:105B100003C142620221044A81820260704700BFD1
:105B2000749EA920B8E30320CCE50B0010B5064C09
:105B300023683BB97020FEF7AEFA034608B1FFF7C1
:105B4000D7FF2360206810BDB4E3032010B5006ABE
:105B500001F02AFAFFF7EAFF0368BDE810405B682E
:105B6000184710B5FFF7E2FF0368BDE81040DB6897
:105B7000012118470000000010B504462DED028BEE
:105B80000430FFF70BFFE368083B172B0CD9A36821
:105B900093ED068B606802F04FFEB0EE480AF0EE1F
:105BA000680ABDEC028B10BD9FED018BF2E700BFD0
:105BB0000000000000000000F8B50446043057EC77
:105BC000106BFFF7EBFEE368083B172B12D9A568B3
:105BD0003046D5E90623394607F0F4FC50B9C5E94B
:105BE00006672046A56802F08DFDA8602368204660
:105BF0001B6998476068BDE8F84002F01DBE38B5E3
:105C0000044604300D46FFF7C9FEE3686068013BB7
:105C1000AB4226BFA3685D5D002502F00DFE28465D
:105C200038BD08B51021FFF7EAFF08BD08B51721F8
:105C3000FFF7E5FF08BD08B52221FFF7E0FF08BD2B
:105C400008B53021FFF7DBFF08BD08B51021FFF7CD
:105C5000D6FF08BD08B52021FFF7D1FF08BD08B564
:105C60003221FFF7CCFF08BD08B53321FFF7C7FF8E
:105C700008BD70B5044604300D461646FFF78EFE8B
:105C8000E368013BAB420DD3A3685A5DB24209D031
:105C90005E552046A56802F035FDA86023682046C1
:105CA0001B6998476068BDE8704002F0C5BD08B543
:105CB0000A461021FFF7DDFF08BD08B50A4612218C
:105CC000FFF7D7FF08BD08B50A461721FFF7D1FF38
:105CD00008BD08B50A462221FFF7CBFF08BD08B56D
:105CE0000A463021FFF7C5FF08BD08B50A46102156
:105CF000FFF7BFFF08BD08B50A462021FFF7B9FF2F
:105D000008BD08B50A463221FFF7B3FF08BD08B544
:105D10000A463321FFF7ADFF08BD38B5044604300D
:105D20000D46FFF73BFEE3686068023BAB4226BFCF
:105D3000A3685D5B002502F07FFD284638BD08B5ED
:105D40001421FFF7EAFF08BD08B52021FFF7E5FFA2
:105D500008BD08B54021FFF7E0FF08BD08B54221A6
:105D6000FFF7DBFF08BD70B5044604300D4616464C
:105D7000FFF714FEE368023BAB420DD3A3685A5B06
:105D8000B24209D05E532046A56802F0BBFCA86071
:105D9000236820461B6998476068BDE8704002F0A0
:105DA0004BBD08B50A461421FFF7DDFF08BD08B555
:105DB0000A462021FFF7D7FF08BD08B50A46402153
:105DC000FFF7D1FF08BD08B50A464221FFF7CBFF18
:105DD00008BDF8B5044604300D46FFF7DFFDE36863
:105DE0006068083BAB4223BFA1684919D1E900674D
:105DF000002638BF002702F01FFD30463946F8BDA7
:105E000008B51821FFF7E5FF08BDF8B504460430D2
:105E10000D461E461746FFF7C1FDE368083BAB423F
:105E200012D3A3685A1958595168B14208BFB842F1
:105E30000AD05F5120465660A56802F063FCA86056
:105E4000236820461B6998476068BDE8F84002F067
:105E5000F3BC08B51821FFF7D8FF08BD08B5282105
:105E6000FFF7D3FF08BD000008B518491848FEF732
:105E7000F9F9FFF7E7FD0B21FFF719FFFFF7E2FD47
:105E80000121FFF71AFFFFF7DDFD46F6E131FFF7CD
:105E900088FFFFF7D7FD0021FFF715FFFFF7D2FDC1
:105EA0000521FFF784FFFFF7CDFD0121FFF711FF6B
:105EB000FFF7C8FD00230022FFF7D0FFFFF7C2FD68
:105EC000BDE808400121FFF7F3BD00BF34E50B003A
:105ED00054E6032030B587B00546FFF7B3FDFFF762
:105EE00033FF0590FFF7AEFDFFF7AAFE0490FFF722
:105EF000A9FDFFF796FE0446FFF718FEFFF73CFEEC
:105F0000DDE904328DED020B164917480094FEF7C7
:105F1000A9F9FFF797FDFFF717FFF8B1FFF792FD1B
:105F2000FFF712FF3C2894BF00240124FFF78AFDED
:105F3000FFF786FEFFF786FDFFF782FE022888BF87
:105F40000124FFF77FFDFFF76CFE0B2800D83CB162
:105F5000284607B0BDE83040FFF786BF0124E5E7DB
:105F600007B030BD4CE50B0054E6032008B53821DE
:105F7000FFF74BFF08BD10B5FFF7D8FD0021FFF775
:105F800022FFFFF7D3FD0021FFF717FFFFF7CEFD3C
:105F9000044605F06CFB0246C3172046FFF7E6FFF8
:105FA000FFF750FD0021FFF78EFEFFF7BFFD002138
:105FB000FFF7A7FEFFF7BAFDBDE810400021FFF78D
:105FC000A6BE000010B505F0C3FD054C0146002338
:105FD0004FF40052204600F0DDFF024B236010BD5D
:105FE000B8E3032084E50B0008B513491348FEF716
:105FF00039F90221042005F021FD0021082005F0D7
:106000001DFD0121072005F019FD0021122005F0DA
:1060100015FD0121112005F011FD0121102005F0D1
:106020000DFD0021102005F01AFD0021112005F0C2
:1060300016FD012008BD00BFF0E50B0054E603206B
:1060400010B51849184890B02024FEF70BF92246E5
:106050000021684607F010FC224600210DEB0400E9
:106060008DF8054007F008FC00210DEB04008DF8C9
:10607000254002F069FE41F2D833ADF806300B4BF3
:10608000029341F27003ADF80C30009B002143F401
:1060900000736846009302F057FE003818BF0120D5
:1060A00010B010BD09E60B0054E6032084038403FE
:1060B00010B503682F2B044604D9074A07490A2064
:1060C00002F0B2FD23681F2B83BF03F01F030448B7
:1060D00023604FF0A04010BD79880B00ADE60B00A7
:1060E0000003005007EE900A9FED097AF8EEE77A78
:1060F00067EE877A9FED077A87EE870ADFED067AEB
:1061000070EE677AB2EE040A87EE800A704700BF2D
:1061100000404E4500F07F450000FA4313B50121D1
:1061200001A804F0B0FCFFF701FDFFF78EFDFFF7BB
:10613000FDFCFFF78AFD252801A80DD904F036FDE6
:10614000FFF7F4FC0121FFF7D6FD002401A804F0BD
:10615000A9FC204602B010BD04F00DFD0124F5E7B6
:1061600030B51B4D0FCD9BB010AC0FC40FCD0FC47D
:1061700095E8030084E80300164908A802F084FFAC
:1061800008A802F0C4FF044608A802F0F9FF08A816
:1061900010EE105A03F024F81AAB10EE100A03EBBD
:1061A000840406F04FFFCDE90201284606F04AFFBD
:1061B000CDE90001102154F8283C074A0DEB0100FD
:1061C00002F098FE054804A9FEF74CF81BB030BD5C
:1061D00030E70B0010E60320D1E60B0054E6032065
:1061E000F0B54F4E4F4C3378BFF35B8F13F0010F78
:1061F00085B009D13046FDF761FF28B102F06CFB94
:1062000020603046FDF75FFF474B1D8823682D0156
:106210005B5D5F013378BFF35B8FD90709D44048DA
:10622000FDF74CFF28B102F057FB20603C48FDF71A
:106230004AFF23682B4403A85B7803F01F033B430A
:106240000393FFF735FF039A01239340C0F8083505
:10625000FFF76CFC074605F00AFA0246C3173846FA
:10626000FFF784FEFFF762FC0746FFF75FFCFFF7CE
:1062700070FD013081B23846FFF79FFDFFF756FCF5
:106280000746FFF753FCFFF769FD013081B238463E
:10629000FFF799FDFFF74AFCFFF75BFD0190FFF761
:1062A00045FCFFF75BFD019A204903462048FDF7B6
:1062B000D9FFC82002F07AFE3378BFF35B8FDA078C
:1062C00009D41748FDF7FAFE28B102F005FB20605B
:1062D0001348FDF7F8FE23685B5D5F013378BFF379
:1062E0005B8FDB0709D40E48FDF7E8FE28B102F00A
:1062F000F3FA20600A48FDF7E6FE23681D4403A870
:106300006B7803F01F033B430393FFF7D1FE039B1E
:10631000012202FA03F3C0F80C35104605B0F0BDB7
:10632000C8E30320CCE3032024E60B00EAE60B00DD
:1063300054E6032030B585B00D4600226946009230
:1063400002F0A4FC90B9009C0CB1236923B9084A5F
:1063500008490A2002F068FC0C23CDE9013504232A
:10636000039301AA236901212046984705B030BD57
:1063700079880B0007E70B0013B5FFF7D7FB01A9DE
:1063800004460720FFF7D6FF011EA8BF019920464B
:10639000C9B2FFF7B0FC184802F0ECFF4FF4FA70F6
:1063A00002F004FEFFF7C2FB01A904460320FFF739
:1063B000C1FFE8B9BDF8043007EE903AFBEECC7AA5
:1063C00017EE900A06F03EFE41EC100B2046FFF758
:1063D000F3FBFFF7ABFBFFF7CFFB084B51EC100BC8
:1063E000002207F017F9003818BF012002B010BDD5
:1063F000FFEE007AE4E700BFD0E3032000004E4048
:1064000013B5FFF793FB0F4B0446188805F053FBB9
:10641000FFF768FEFDEEC07A2046CDED017A9DF8CB
:106420000410FFF762FCFFF7A7FFFFF777FEFFF707
:1064300009FBFFF7F6FB08B9FFF792FE012002B057
:1064400010BD00BF32E60B000148002102F04EBF34
:10645000D0E30320704710B520210446FDF71FFE4E
:10646000204610BD10B504468AB008464FF0200CF7
:106470000021CDE90023CDE902C10B4602AA216823
:1064800002F0E2FB0AB010BD0EB403B503AB32213B
:1064900053F8042B0193FFF7E5FF02B05DF804EB1E
:1064A00003B070470EB403B503AB012153F8042BBE
:1064B0000193FFF7D7FF02B05DF804EB03B070471C
:1064C00010B50272FF2242810022C0E9032242611C
:1064D0000276C261024A034C1060C0E9004110BD5F
:1064E000DCE30320A8E90B002DE9F8439DF82080A8
:1064F0000446894616461F46B8F1000F02D0406890
:1065000002F0DEFF217A606802F0B7FF606803687E
:1065100049469B6898476068002102F0CDFF054618
:1065200000BB0123217A60683A4602F094FF87425B
:10653000034609D13744BE421CD0606803685B69DA
:10654000984706F8010BF6E70B490C484A46FFF757
:106550009BFFB8F1000F02D0606802F0BAFF284636
:10656000BDE8F8830346064904484A46FFF78CFF16
:106570000025EEE70125ECE758E70B00D8E3032000
:106580007DE70B0007B500930123FFF7ADFF03B0D4
:106590005DF804FB73B54389FF2B044610D0194EF8
:1065A000194D02F071F9B0F57A7F09D2608905F0D2
:1065B0006FFA012804D031462846FDF753FEF0E774
:1065C00001230DF1070228212046FFF7DBFF30B938
:1065D0000D480E49FDF746FE002002B070BD9DF843
:1065E0000730182BF4D101230DF107022921204691
:1065F000FFF7C8FF0028EBD09DF80730052BE7D147
:10660000EBE700BFA1E70B00D8E30320B6E70B00E0
:1066100007B5134600228DF807200DF10702FFF79A
:10662000B1FF9DF8070003B05DF804FB2DE9F041D0
:106630009DF8188004460F4615461E46B8F1000F17
:1066400002D0406802F03CFF217A606802F015FF3A
:106650006068036839469B6898472E44B542606875
:1066600005D0036815F8011B9B689847F6E70121E0
:1066700002F022FF034670B1084909483A46FFF785
:1066800003FF0025B8F1000F02D0606802F021FF7F
:106690002846BDE8F0810125F4E700BFC3E70B0001
:1066A000D8E303201FB58DF80F2000930DF10F02E2
:1066B0000123FFF7BBFF05B05DF804FBF8B50A4600
:1066C0000C4605461A491B48FDF7CCFD002CB8BF07
:1066D000EC687CB9012322461B212846FFF7E2FF24
:1066E0001549024606461348FFF7DCFEEC606C6174
:1066F0003046F8BD032C19DDA7101F2FA8BF1F2798
:10670000BA0062F07C020123D2B21B212846FFF7B7
:10671000C9FF3A460346094906460648FFF7C2FE46
:106720004FF4FA635F43EC606F61E1E70127E7E74D
:10673000E8E70B00D8E30320F2E70B000EE80B00BC
:10674000064B1A684AB1A0F500630B4305D1D36824
:106750001BB100211046FFF7B1BF7047DCE30320F7
:106760002DE9FF419DF82880054616461F46B8F1E1
:10677000000F04D04068019102F0A2FE019901913E
:1067800000230DF10F022846FFF7FCFE044660B11E
:106790009DF80F3003EA06023A43934205D001996F
:1067A00000232846FFF77EFF0446B8F1000F02D011
:1067B000686802F08EFE204604B0BDE8F08113B593
:1067C00014460DF10702FFF7DDFE28B19DF80730F2
:1067D0001C420CBF0120002002B010BD13B51446AE
:1067E0000DF10702FFF7CEFE28B19DF807301C42DD
:1067F00014BF0120002002B010BD07B5D2430093A2
:10680000D2B20023FFF7ACFF03B05DF804FB000039
:1068100037B501230DF107020F210446FFF7B2FE41
:10682000054638B91E491F48AD22FFF72DFE284600
:1068300003B030BD9DF8073013F0200F4FF0010377
:106840000BD02022E3610F212046FFF7D6FF164A26
:1068500016491448FDF706FDE9E7082217212046EE
:10686000FFF7BCFF18B10223114AE361F0E79DF87E
:1068700007301A0709D50323E361082201230F21FA
:106880002046FFF7BAFF0B4AE2E75B07CFD50422A9
:10689000E26101230F212046FFF7AFFF064AD7E749
:1068A00061E80B00D8E3032032E80B0080E80B001E
:1068B0003BE80B004BE80B005BE80B0007B50093CF
:1068C0001346FF22FFF74CFF03B05DF804FB000006
:1068D000F8B50F461646012300220F210546FFF7A3
:1068E000E1FE044638B94FF425721F491F48FFF7EF
:1068F000CBFD2046F8BD0123232218212846FFF7AF
:10690000D1FE044610B940F29B22EEE7FF2FA8BF4C
:10691000FF27012FB8BF01270123FAB2192128460A
:10692000FFF7C0FE044610B94FF42A72DDE70123D9
:10693000082212212846FFF7C1FF044610B940F291
:10694000AF22D2E7002E14BF03220222012342F01D
:10695000800218212846FFF7A5FE04460028C8D16A
:1069600040F2B922C1E700BF91E80B00D8E3032051
:106970002DE9F7430A4605460F464F484F49FDF7B4
:1069800071FC00212846FFF799FE044648B940F201
:10699000F7124B494848FFF777FD204603B0BDE8A2
:1069A000F08301231A4630212846FFF787FF04466B
:1069B00010B940F20522ECE71022012311462846C7
:1069C000FFF71BFF044610B94FF40372E1E7012300
:1069D000262213212846FFF765FE044610B940F22F
:1069E0001322D6E7012600963346FC2211212846C1
:1069F000FFF7B6FE044610B940F21B22C9E7002299
:106A000039462846FFF764FF044610B940F22222B7
:106A1000BFE700960223772210212846FFF7A0FE49
:106A2000044610B940F22B22B3E7334604221C215E
:106A30002846FFF743FF044610B940F23222A8E788
:106A400000961823E32211212846FFF789FE044609
:106A500010B940F239229CE73346C022172128465C
:106A6000FFF720FE044610B94FF4107291E701F0D1
:106A70000BFFDFF85490DFF840804FF47A71064640
:106A80004F4301F001FF801BB8420ED201221721B3
:106A90002846FFF7BDFD494602464046FDF7E2FBAA
:106AA0004FF47A7002F082FAEBE706490248FFF7EA
:106AB000EBFC04F0FAFB70E7D8E30320BCE80B0022
:106AC000B1E80B00E2E80B00CDE80B002DE9F3473D
:106AD0009DF828A005460C4691461F46BAF1000FC6
:106AE00002D0406802F0ECFC07B3202F3E4628BFDE
:106AF00020267F2C26D83319802B01D9C4F180069B
:106B0000012304223F212846FFF777FE002364F08B
:106B10007F0100934A463346C9B22846FFF7E4FC9A
:106B2000804628B13444BF1BB144DDE74FF0010873
:106B3000BAF1000F02D0686802F0CBFC404602B008
:106B4000BDE8F087012304223F212846FFF7B6FE67
:106B5000DCE72DE9F3479DF828A005460C46914651
:106B60001F46BAF1000F02D0406802F0A9FC07B33B
:106B70001F2F3E4628BF1F267F2C26D83319802B77
:106B800001D9C4F18006012304223F212846FFF7E2
:106B900034FE002364F07F0100934A463346C9B2B5
:106BA0002846FFF743FD804628B13444BF1BB1445B
:106BB000DDE74FF00108BAF1000F02D0686802F07B
:106BC00088FC404602B0BDE8F087012304223F2143
:106BD0002846FFF773FEDCE730B585B00D68D1E9D4
:106BE000043203954D6802958D680195C96800913E
:106BF0000133044902F26C72044604F0EFFA2046B5
:106C000005B030BDF4E80B0003090A2200F00F00C4
:106C100002FB0300704738B5044600781546FFF7BD
:106C2000F3FF08606078FFF7EFFF4860A078FFF798
:106C3000EBFF8860E078FFF7E7FFC8602079FFF797
:106C4000E3FF013808612DB9651D2878FFF7DCFFE7
:106C5000886138BD6079FFF7D7FF6430A51D4861B2
:106C6000F3E7000070B5012388B00D461A461021E5
:106C70000446FFF7A4FDF0B1082301262046009644
:106C80000DEB03020021FFF72FFC044698B13246BA
:106C900029460DF10900FFF7BEFF04A8FFF79CFF8E
:106CA0000848049A0849FDF7DDFA04A804F0DCF965
:106CB000204608B070BD24220021284606F0DCFDE5
:106CC0000024F5E7D8E3032012E90B0030B58BB0C0
:106CD0000D4601A9FFF7C6FF044620B101A802F046
:106CE00051F9C5E9000120460BB030BD0A2390FBE5
:106CF000F3F103FB110091FBF3F203FB121240EAE4
:106D00000210C0B2704770B5054600680C461646C2
:106D1000FFF7ECFF20706868FFF7E8FF6070A86875
:106D2000FFF7E4FFA070E868FFF7E0FFE070286974
:106D30000130FFF7DBFF20712EB9661DA869FFF750
:106D4000D5FF307070BD6A69642392FBF3F003FBDA
:106D50001020FFF7CBFFA61D6071EFE7F0B587B0FD
:106D6000054602A816460C46FFF736FF1E48029A53
:106D70001E49FDF777FA02A804F076F916B16868A3
:106D800002F09EFB204601220DF1090100278DF83B
:106D90000870FFF7B8FF01231A4610212846FFF7B5
:106DA0008DFD0446E8B1082300970DEB0302394638
:106DB0002846FFF73BFC044660B101231A46102128
:106DC0002846FFF71AFD16B1686802F082FB2046DC
:106DD00007B0F0BD4FF48D7205490348FFF754FB2F
:106DE000F1E74FF48F72F7E7D8E3032020E90B00B7
:106DF0002EE90B0013B504466846CDE9002306F0E2
:106E0000EDFC9DF8102001462046FFF7A7FF02B0D9
:106E100010BD0000F0B5057E89B0044675BB04F0D6
:106E200009FC58B30026002704A92846CDE90467C9
:106E300001F0D0FF10B30125257604F018FCC3172C
:106E4000CDE90203024600952046FFF7D3FF02A9D1
:106E50002046CDE90267FFF739FF134B13491B6842
:106E6000009304A8DDE9022304F0A2FB1048049A71
:106E70001049FDF7F7F904A804F0F6F863698BB13F
:106E800001F002FD2369C01A636998420AD301F038
:106E9000FBFC4FF0FF312061204609B0BDE8F04017
:106EA000FFF70CBC09B0F0BDC8DE0320A8E6032044
:106EB000D8E3032049E90B0030B504468BB011B18B
:106EC000406802F0ABFA2046FFF764FB06AD0028ED
:106ED00037D02046FFF79CFC01231A46102120469C
:106EE000FFF76DFCD8B104F0A5FBC0B902A920469C
:106EF000FFF7ECFEDDE9020104F0A1FA134B14499F
:106F00001B6800932846DDE9022304F051FB114879
:106F1000069A1149FDF7A6F9284604F0A5F80F4B8B
:106F200006930F4B09930F4B08934FF40062002315
:106F300002A80095FDF7AEFD2846FDF749F90BB014
:106F400030BD09490348FFF79FFAE8E7C8DE032090
:106F5000A8E60320D8E303205FE90B0041670B009C
:106F60007F410B006B410B007CE90B00014B024A97
:106F70001A607047D8E3032094E90B00704710B5FE
:106F800010210446FDF78BF8204610BD0368C9B2F6
:106F90009B68184730B5034DC0E90223C0E9005192
:106FA00030BD00BFC0E90B00406802F037BA10B531
:106FB0000446006802F08DFA204610BD2DE9F74323
:106FC0000446406801900D4616461F4602F078FAC6
:106FD000A7B1E168606841F0500102F052FA290A55
:106FE0006068FFF7D3FF29466068FFF7CFFF60684E
:106FF000002102F061FA48B1002400E0012401A858
:10700000FFF7D5FF204603B0BDE8F083202F217B9A
:107010006068B84628BF4FF020080123424641F07F
:10702000500102F018FA04F093FD03681B699847B9
:107030004045E1DB06EB080904F08AFD03685B6963
:10704000984706F8010B4E45F6D14544A7EB0807D3
:10705000BEE72DE9F74F0446406801900E46904682
:107060001D4602F02DFA4FF00109B9F1000F2AD0A8
:107070004DB3E168606841F0500102F002FA310A54
:107080006068FFF783FF60683146FFF77FFFA5F177
:107090001E0A4746A6EB080B606817F8011B036839
:1070A000013D9B68984755450BEB0706B84601D054
:1070B000002DF1D16068012102F0FEF90028D7D03F
:1070C0004FF00009D1E701A8FFF771FF484603B070
:1070D000BDE8F08F2DE9F0438BB00E461546804693
:1070E000406801901C4602F0EBF9AE4229D22644DA
:1070F00025448CB11E2C2746D8F8003028BF1E2707
:10710000F61BD3F8089002AA3B4631464046ED1BD9
:10711000C84748B9002400E0012401A8FFF747FF51
:1071200020460BB0BDE8F083D8F8003002AAD3F8AF
:107130000C9029463B464046C8470028EAD0E41B4D
:10714000D7E7E9D9002CE7D0D8F800301E2C274625
:1071500028BF1E27D3F8089002AA3B463146404676
:10716000C8470028D6D0D8F8003002AAD3F80C902F
:1071700029463B464046C8470028CBD03E443D44C4
:10718000E41BDFE701600271704700680368DB6899
:107190001847006803681B6A1847006803689B6A01
:1071A000184700797047006803689B6B184737B52C
:1071B00005460C4619460192FFF7F5FF2868019A2B
:1071C00003685B69214603B0BDE83040184700689A
:1071D0000368DB6B184738B50446006803680D4642
:1071E0005B6B984729462046FFF7F1FF257138BDB4
:1071F00038B50446006803689B689847054618B18F
:1072000021792046FFF7E7FF284638BD006803686C
:107210001B6C1847006803685B6C184700680368BC
:10722000DB6C1847006803681B6D1847006803682B
:107230005B6D1847006803689B6D18472DE9F8439C
:10724000044600680A9F1E4603681B69DDE908982A
:1072500098470546C8B11EB12046FFF7E3FF3070DE
:10726000B9F1000F04D02046FFF7D8FF89F80000DD
:10727000B8F1000F04D02046FFF7D8FF88F80000CF
:107280001FB12046FFF7D6FF38702846BDE8F883C7
:10729000012070470379032BFCD0012070470020A8
:1072A00070478171704741717047C17270470173B7
:1072B000704741737047837B23EA02021143817355
:1072C0007047C0797047007A7047407A7047807A7B
:1072D0007047008A00B270470079704701717047AB
:1072E000408A80B27047808A80B27047C08A80B27C
:1072F000704738B505460C462B682846DB6898472A
:1073000028B9002CF8D0204601F050FEF4E738BD33
:10731000F8B505460F46144601F0B6FA064601F0E8
:10732000B3FA801BB8420AD22B682846DB6898471C
:1073300030B9002CF3D0204601F038FEEFE70020F2
:10734000F8BD70B504460E4601F09EFA054601F000
:107350009BFA401BB04204D22379032BF7D00120C3
:1073600070BD0020FCE770B5C3690446B3B101F0FD
:107370008BFA64260546236820461B6B984768B144
:1073800001F082FAE369401B984209D80A210120E2
:1073900003F091FD704301F009FEECE7012070BDA0
:1073A0000020FCE7064A0260FF21002202714171C1
:1073B0004282C172828281818273C282C2617047BD
:1073C000DCE90B00704770477047704770474171A8
:1073D00070478171704701717047000030B5034DEF
:1073E000056001714271837130BD00BF5CEA0B0022
:1073F000704710B510210446FCF751FE204610BD21
:107400000EB403B503AB002153F8042B019303F032
:1074100016FD02B05DF804EB03B0704773B5044687
:1074200008462279A36832B1A3B90B4902B0BDE87E
:10743000704003F0FBBB094A267B094D0949647B78
:10744000012E18BF2946CDE900140749FFF7D8FFE0
:1074500002B070BD054AEFE799EA0B0035EE0B006C
:1074600095EA0B0091EA0B00AFEA0B0088EA0B00EB
:1074700010B50446FFF7B2FF054B2360054BA36030
:107480000123237300232361A382204610BD00BF84
:10749000E8EA0B00D4EA0B0013B50B4C2178BFF3DC
:1074A0005B8F11F001010BD120460191FCF706FE24
:1074B000019928B1054803F017FD2046FCF703FEAB
:1074C000024802B010BD00BFE0E30320E4E3032064
:1074D00007B50191FFF7E0FF019903B05DF804EBF8
:1074E00003F0BABD08B5FFF7D7FFBDE8084003F0C9
:1074F000B9BD08B5FFF7D0FFBDE8084003F0B3BD44
:1075000010B50379042B20D0032B20D0022B20D0E0
:10751000114A1249012B18BF0A4641798379013972
:1075200018BF012133B1012B04D0022B02D0032B51
:1075300018BF002300240473026101754375FFF72F
:10754000ABFFBDE8104003F0D9BC054AE5E7054AAA
:10755000E3E7054AE1E700BF80841E0040420F00D8
:107560000024F40000127A0000093D0008B5FFF77E
:1075700093FFBDE8084003F0D5BC10B50446FFF703
:107580008BFF04F10801BDE8104003F0F7BC08B51B
:10759000FFF782FFBDE8084003F0D6BC08B5FFF74F
:1075A0007BFF08BD002302481A461946FFF760BF5B
:1075B000ECE30320012A05D1007A0B781B1A58420C
:1075C00058417047002070472DE9F047254C0123B2
:1075D00086B02370637000230F46A17000930322CE
:1075E000FF232146064600F0B7FB20B100252846C0
:1075F00006B0BDE8F087FA238DF8173001F044F9A2
:1076000006F10409804608F57A6501F03DF9291A6A
:107610000029EBDD002289B24846FFF7BEFD0028B5
:10762000F3D00023CDE90233CDE900330DF1170289
:107630002146304600F09AFB05460028E3D09DF82D
:107640001730012BDFD994F800A0BAF1020FDAD17C
:107650004846FFF7E7FD534602463946304600F0FC
:10766000F3FAC4E704E40320012A2DE9F3410746B5
:107670000E4614463BD94D79022D30D100F1040855
:10768000C97901914046FFF7CDFD083C2B460246E3
:107690000199384600F0D8FAE5B206F10803002453
:1076A0002246954204F10104E4B204D913F8012BF7
:1076B000397A9142F4D104F108010E44A54216D959
:1076C00016F8011B01914046FFF7ACFD013402465C
:1076D000019902233846E4B200F0B6FAEEE7032D32
:1076E00005D1897902B0BDE8F04100F096BA02B048
:1076F000BDE8F08110B5044600F0E6FA014B2360C6
:10770000204610BD1CEB0B002DE9F047F92A9DF82F
:10771000209006460F4614461D4625D8FF2B14D14F
:10772000DFF84880404600232246394600F8013BF6
:1077300006F07AF8621CCDF820902B464146304680
:10774000D2B2BDE8F04700F007BB194600F021FABD
:107750000028E5D1336829469B68304698470028C1
:10776000DED10220BDE8F0870120FBE704E403201E
:107770002DE9F04F89B09846FA238DF81A300DF1B3
:107780001F0303930DF11E0302935D4E0DF11D03C4
:10779000019307AB0093894617460DF11B030DF1CA
:1077A0001A023146DDE912BA054600F0DFFA044656
:1077B00020B90024204609B0BDE8F08F9DF81A30AA
:1077C00073B3327862BBB8F1000F03D09DF81B2071
:1077D00088F80020BBF1000F03D09DF81C208BF827
:1077E0000020BAF1000F03D09DF81D208AF8002078
:1077F000149A1AB114999DF81E200A70159A1AB19C
:1078000015999DF81F200A703A783E49013BDBB27A
:107810009A4288BF3B703A78484606F005F8C9E7B7
:107820009DF81C20FF2AC4D1012BC2D93278012A2D
:10783000BFD12A7A9DF81B40A242BAD0DF1E32493E
:10784000FFB200235FFA83F8474506D911F8010B10
:10785000824203F10103F5D1ABE705F10409484683
:10786000FFF7E0FC022302462146284600F0ECF92F
:1078700095F8173193B1224CA31BDBB29F420CD970
:10788000E17805914846FFF7CDFC059902460223B1
:10789000284600F0D9F90134EEE7B8462B68727833
:1078A000DB681A4928469847044660B10223002441
:1078B00033709DF81A209DF81B301149009428461A
:1078C00000F04AFA76E795F8163143457FF671AF36
:1078D00095F81731002B3FF46CAF9DF81A202B7AE6
:1078E00007493E440132F3709DF81B300190D2B23B
:1078F00000932846FF238DF81A2000F0F7F959E786
:1079000004E4032005E4032007E4032006E4032045
:10791000F0B585B0054604300E460392FFF782FCB1
:10792000039A07463146284600F04AF902280446E1
:1079300001D005281BD13178284600F06EF9727805
:107940002B7A9A4213D00B4C032323703378637045
:10795000717802233A46284600F076F90023009316
:10796000214673780222284600F0F6F904462046A4
:1079700005B0F0BD04E4032010B50446FFF702FC97
:10798000C8230021E3810323A160217323744FF4F2
:10799000807204F1110005F06FFF204610BD1FB585
:1079A00004460192FFF732FC204600228021FFF7B7
:1079B00031FC2122019B8DF80F200DF10F010122D6
:1079C0002046FFF7F4FB2046FFF7E3FB04B010BDB1
:1079D0002DE9F04F057B0135EDB287B004468946AD
:1079E0009246984605730027227C3B469A4207F14F
:1079F0000107FFB26BD329462046FFF707FC012F92
:107A00000DBFC0228022402100212046FFF702FC4A
:107A10004346524649462046FFF7C9FB2046FFF73A
:107A2000B8FBB8F1FF0F54D0012F82BFA368013318
:107A3000A36000F029FF4FF4807183460020E6899F
:107A400003F039FA704348BFFF3006EB20261BFADB
:107A500086F600F019FF301A0028C5DD81B2002239
:107A60002046FFF79AFB0028F3D00DF1170302938D
:107A70000DF11603019300220DF115030093114639
:107A800005AB2046FFF7DAFB0028E2D09DF8142072
:107A90009DF9173042450ED194F804C09DF8151099
:107AA0008C4508D1002B08DA9DF81630AB42D0D1B6
:107AB00007B0BDE8F08F002BCBDBA1189DF8163086
:107AC000497C9942C5D12046FFF769FFC1E70020F4
:107AD000EEE70120ECE72DE9F04389B0CDE9042180
:107AE000DDE91098129F04461E46FFF74EFBDDE9C4
:107AF000042120B90025284609B0BDE8F0830DF126
:107B00001F0302930DF11E0301930DF11D0300935A
:107B1000204607ABFFF792FB05460028EAD09DF907
:107B20001F30002BE6DB22799DF81D309A4206D1EA
:107B30009DF81C209DF81E102046FFF730FF9DF891
:107B40001F209DF81C109DF81E3012F0400F0C44B1
:107B500002D0607C9842CDD006B13170B9F1000FEF
:107B600003D09DF81D1089F80010B8F1000F01D066
:107B700088F8003007B13A706374BCE7704710B5FD
:107B800004460430FFF734FB10B11E2384F816318D
:107B900010BD10B50246002392F818418C4208D15E
:107BA00092F81A412CB103EB430303F58C7318448C
:107BB00010BD0133322B02F10302EDD10020F7E7B3
:107BC00037B50B78FF2B05460C4606D019460192B7
:107BD000FFF7DFFF58B14378019A2146281DFFF7D0
:107BE000F7FE002814BF0020052003B030BD02209E
:107BF000FBE710B501EB41030446C1F1310203F587
:107C00008C7003F21B1102EB42022144204405F068
:107C10000BFE002384F8AD3110BD38B50A460023B1
:107C200000F58C7403EB4305D9B2655D954203D131
:107C3000FFF7DFFF012038BD0133322BF2D10020E6
:107C4000F9E70021FFF7D5BFF8B516461F460446F1
:107C50000D46002300F58C7203EB4300115CA94232
:107C600005D1204480F8196180F81A71F8BD0133FC
:107C7000322BF1D1002304F58D7203EB4300115C2C
:107C800019B9204480F81851ECE70133322BF4D1B4
:107C90002046FFF7D6FF204604F1960390F81A21FC
:107CA0002AB980F8185180F8196180F81A710330E8
:107CB0009842F3D1DAE700F19603002280F81A2106
:107CC00003309842FAD1704710B504460430FFF7EC
:107CD00053FE054B23604FF48F732046A4F81631F2
:107CE000FFF7E9FF204610BD34EB0B002DE9F34709
:107CF0000446406801911F4603689DF828A09B69CF
:107D00009DF82C901646984706F1050880451CD82A
:107D1000104D019985F801A00023AB7094F815313E
:107D2000EB705A1C84F81521681D32462F7085F8B7
:107D3000049005F079FD23685B685FFA88F22946B4
:107D4000204602B0BDE8F0471847012002B0BDE868
:107D5000F08700BFFEE4032013B59DF810400194A6
:107D6000047A0094FFF7C2FF02B010BD2DE9F04F76
:107D700087B01F46FF238DF813300DF117030293D0
:107D8000DFF8D0900DF1160301930DF11503009368
:107D900004468846164605AB0DF1130249460430E9
:107DA000DDE910BAFFF797FE054608B9002538E06F
:107DB00023689DF813201B6849462046984799F888
:107DC0000030227A9A4201D0FF2B2ED117B1214BDD
:107DD0005B783B70BBF1000F03D01E4B1B788BF818
:107DE0000030BAF1000F03D01A4BDB788AF800306C
:107DF000129B1BB1174B129A1B791370139B1BB16B
:107E0000144B139A9B7813709DF8133032781249F3
:107E1000053BDBB29A4288BF33703278404605F0AA
:107E200003FD284607B0BDE8F08F99F802305A1CD0
:107E300089F8022094F816219A42B7D994F817319C
:107E4000002BB3D023689DF813205B684946204679
:107E50009847ABE7FEE4032003E5032010B5044692
:107E6000006A0368DB68984794F82400FF2802D072
:107E7000012103F0E3FD23682046DB6F984764206F
:107E800001F094F8012010BD90F82400002103F0C7
:107E9000E6BD90F82400012103F0E1BD70B5044671
:107EA0000D461646FFF77EFA034B2360266284F8E0
:107EB0002450204670BD00BF44EB0B0038B504468B
:107EC000006A03681B6A0D469847236820469B6F2B
:107ED0009847206A036805F07F011B689847206A6D
:107EE000036800211B68984723680546DB6F20461E
:107EF0009847206A03685B6A9847284638BD70B582
:107F00000446006A03681B6A16460D4698472368B4
:107F100020469B6F9847206A036845F080011B68E4
:107F200098470546206A036831461B689847012038
:107F300000F0A2FC23682046DB6F9847206A0368A4
:107F40005B6A9847284670BDF8B50446006A1E462D
:107F500003681B6A0F4615469847236820469B6FA7
:107F60009847206A036807F07F011B6898472E44F2
:107F70000746B54207D0206A036800211B6898476E
:107F800005F8010BF5E723682046DB6F9847206A68
:107F900003685B6A98473846F8BDF8B50446006A3E
:107FA0001E4603681B6A0F461546984723682046FD
:107FB0009B6F9847206A036847F080011B689847C9
:107FC0002E440746B54206D0206A15F8011B036807
:107FD0001B689847F6E723682046DB6F9847206ABE
:107FE00003685B6A98473846F8BD006A03689B6A75
:107FF000184701207047FB207047704710B5037980
:10800000052B044610D003680521D3F8803098472B
:10801000072201212046FFF772FF802240212046DF
:10802000FFF76DFF052323712379052BFCD0207EFC
:1080300010BD10B54FF498710446FCF730F8204697
:1080400010BD10B50379012B04460BD00368012144
:10805000D3F880309847002201212046FFF74FFFD8
:1080600001232371012010BDF8B50368DB680446C5
:108070000F46154698470646B0B187B17DB194F8D2
:1080800028302A78033B9342DEBF94F82830043B23
:108090002B702A7804F12D01384605F0C5FB00232A
:1080A00084F8283184F828303046F8BD142938B5D2
:1080B00005460C4614DC012914DD112913DD0722C5
:1080C0004D212846FFF71BFF033C64B2A21E62F05D
:1080D0007F022846D2B2BDE838400921FFF70FBF22
:1080E0001424ECE7022404224D212846FFF707FF61
:1080F000ECE7000038B5044615461A46FFF7CEFEF9
:10810000094B2360FF22002384F82720012284F8F2
:10811000283184F82C3184F8265084F82B2184F8F7
:108120002530204638BD00BFDCEB0B0090F828302E
:10813000032B1BD990F82930C37190F82A300372B1
:1081400090F82B30437290F82C308372837933B9D6
:10815000C37942799A4202D0C379FF2B06D1838A30
:1081600001339BB28382012380F8283170470000DD
:1081700038B504462DED028B10EE100AB0EE408AA1
:1081800004F060FF17A3D3E9002304F0B3FF17A3A3
:10819000D3E9002305F0D8F805F084FA0621054656
:1081A000C0F307422046FFF7AAFEC5F307220721C6
:1081B0002046FFF7A4FEEAB208212046FFF79FFE03
:1081C000DFED077AB4EEE78ABDEC028BF1EE10FA30
:1081D000ACBF01230023012084F8293138BD00BF42
:1081E00000C042440000000080842E4100000000D6
:1081F00080844E4010B50379022B04460BD00368EF
:108200000221D3F880309847012211462046FFF71B
:1082100076FE0223237110BD70B512210446FFF7CC
:108220004DFE1C2105462046FFF748FEFF2206466C
:1082300012212046FFF763FE2379042B07D115F0A6
:10824000A00F17D194F82B310BB1700612D52379FA
:10825000042B01D1690622D42379032B01D12A07EB
:1082600068D42379052B0ED16B070CD505F00105D9
:10827000257663E0638A01339BB26382002384F82E
:10828000283184F82830FF2212212046FFF737FEDC
:108290002046FF22BDE870401221FFF730BE1321B7
:1082A0002046FFF70BFE102105462046FFF706FE8D
:1082B0000D2102462046FFF722FE04F129022B463B
:1082C00000212046FFF740FE192184F8285020465F
:1082D000FFF7F4FD40B20028B8BF0330801084F8E7
:1082E0002A011A212046FFF7E9FD94F92A3100B24C
:1082F000002B2082A9BF238A228A1BB21B01B2BF96
:108300009B180F2293FBF2F31BB2238294F82931BE
:108310006BB1238A9D3B1BB223822046FFF706FFE9
:1083200094F82831002BAED0FFF764FFABE7238A27
:10833000A43BF0E7E38A01339BB2E3822046F3E7F4
:10834000024B186808B1FFF767BF704700E60320CB
:10835000024B586808B1FFF75FBF704700E6032083
:10836000024B986808B1FFF757BF704700E603203B
:1083700010B50379042B044610D003680421D3F808
:1083800080309847052201212046FFF7B8FD0022E2
:1083900040212046FFF7B3FD0423237110BD10B523
:1083A0000379032B044605D0FFF7E2FF94F8280178
:1083B000C0B210BD0020FCE710B50379032B0446C2
:1083C00010D003680321D3F880309847032201219D
:1083D0002046FFF794FD402211462046FFF78FFD0F
:1083E0000323237110BDFB2AF8B504460F4615463A
:1083F00002D900263046F8BD03681B6A984720461C
:10840000FFF7F8FE23682046DB6A984706460028F7
:10841000EFD000220D212046FFF771FDE27A002106
:108420002046FFF76CFD227B00212046FFF767FD09
:10843000627B00212046FFF762FDA27B00212046DF
:10844000FFF75DFD2B463A4600212046FFF7A5FDCC
:108450002A1DD2B222212046FFF751FD2046FFF708
:10846000ABFFC7E710B5044680F8252072B181F351
:10847000040242F07002D2B20921FFF740FD20460B
:108480000422BDE810404D21FFF739BDBDE8104082
:10849000FFF70CBE38B50C4605460A781D21FFF7DC
:1084A0002EFD62781E212846FFF729FDA278284676
:1084B0002621BDE83840FFF722BD0000052913B58D
:1084C0000FD8094B01EB41015C185A5AA378ADF85B
:1084D000042001A98DF80630FFF7DCFF012002B06F
:1084E00010BD0020FBE700BFC4EB0B0038B50A0A43
:1084F00005460C462021FFF702FDE2B22846212165
:10850000BDE83840FFF7FBBC73B50446FFF7A6FC97
:10851000064618B90026304602B070BD94F82650C1
:10852000FF2D54D029462046FFF75FFD8022012110
:108530002046FFF7E4FC0A2000F038FD0121204628
:10854000FFF7BCFC8028E5D194F82600FF281CD05A
:10855000002103F073FA94F82730FF2B07D1264A45
:108560001378032BD6D8591C117084F8273094F84F
:108570002720224B43F8224062BB214900924FF052
:10858000FF330122A8B200F0AFFF00220E212046E7
:10859000FFF7B5FC00220F212046FFF7B0FC204674
:1085A000FFF728FE00212046FFF788FF082120461C
:1085B000FFF79CFF9FED130A2046FFF7D9FD00232C
:1085C00084F825300D212046FFF770FDA3E74FF01A
:1085D000FF35ABE7012A4FF0000304D100930A49AD
:1085E0004FF0FF33CEE7022A94D1009307494FF0B2
:1085F000FF330122C6E700BFFDE5032000E60320AC
:1086000041830B000000D94351830B0061830B00B1
:10861000704703685B68184710B58369044633B137
:1086200031B1236820469B6898470023A36110BDA1
:1086300000F02AF9A369C01AE3699842F1D2F6E77B
:1086400010B5C36904461BB100F01EF9A06110BD4E
:108650000368BDE810409B68184700F0EDB810B5FE
:1086600004460430FDF79AF92368E1685B69204607
:10867000984718B9236820469B6998476068FFF7B8
:10868000ECFF012010BD0000F0B521F00304184FED
:10869000184E194D0444A0420CD050F8043B7B43C3
:1086A0004FEA734373435A404FEAF24202EB8202AD
:1086B0002A44F0E701F0030404440023A04204D05C
:1086C00014F8015D45EA0323F8E7094843430948E4
:1086D0004FEA73434A4058435040084B80EA1040E9
:1086E0005843074B80EA5030584380EA1040F0BDB1
:1086F000512D9ECC9335871B646B54E66BCAEB857A
:1087000035AEB2C2F8B504460430FDF747F9A368A8
:1087100000229F689A60A668054AF1883046FFF7F4
:10872000B3FFB76005466068FFF797FF2846F8BDBE
:108730003F2A1C8573B50D460446FFF7E3FF0B2D5A
:10874000064623D9A3682269196891421FD19988E6
:10875000A28A91421BD1D988AAB2914217D89A68AD
:10876000824214D1E268AA4205D900215955E26833
:108770000135AA42FAD8D4E902322046DA80A56847
:10878000FFF7C0FFA860012002B070BD9DB1A168D5
:108790000A6892B188688B880190C988084800915E
:1087A0000849FDF77FFECDE90056A38A22690649F4
:1087B0000348FDF777FE0020E6E71046E4E700BF38
:1087C00054E6032060EC0B0091EC0B0038B5044636
:1087D000C2688068002105F04FF8A36822691A601A
:1087E000A368A28A9A80D4E902322046DA80A5687A
:1087F000FFF788FFA86038BD08B5024B1B685B6CAB
:10880000019308BD7402030008B5024B1B685B6C42
:10881000019308BD4802030008B5024B1B689B6C1E
:10882000019308BD4802030008B5024B1B68DB6CCE
:10883000019308BD4802030008B5024B1B685B6D3D
:10884000019308BD4802030008B5024B1B685B6D2D
:10885000019308BD3402030008B5024B1B685B6E30
:10886000019308BD3402030008B5024B1B685B6826
:10887000019308BD1802030008B5024B1B68DB68B2
:10888000019308BD1802030008B5024B1B685B6921
:10889000019308BD1802030008B5024B1B689B6DCD
:1088A000019308BD1802030008B5024B1B68DB6D7D
:1088B000019308BD1802030008B5024B1B685B6EEC
:1088C000019308BD1802030008B5024B1B689B6E9C
:1088D000019308BD1802030008B5024B1B681B6812
:1088E000019308BD2C02030008B5024B1B685B68AE
:1088F000019308BD2C02030008B5024B1B689B685E
:10890000019308BD2C02030008B5024B1B68DB680D
:10891000019308BD2C02030008B5024B1B681B69BC
:10892000019308BD2C02030008B5024B1B685B696C
:10893000019308BD2C02030008B5024B1B689B691C
:10894000019308BD2C02030008B5024B1B68DB69CC
:10895000019308BD2C02030008B5024B1B681B6B7A
:10896000019308BD2C02030008B5024B1B68DB68AD
:10897000019308BD2802030008B5024B1B689B69E0
:10898000019308BD2802030008B5024B1B68DB6990
:10899000019308BD2802030008B5024B1B681B6A3F
:1089A000019308BD2802030008B5024B1B685B6AEF
:1089B000019308BD2802030008B5024B1B689B6A9F
:1089C000019308BD2802030008B5024B1B68DB6A4F
:1089D000019308BD2802030008B5024B1B681B6BFE
:1089E000019308BD2802030008B5024B1B685B6BAE
:1089F000019308BD2802030008B5024B1B681B6CDD
:108A0000019308BD2802030008B5024B1B689B6C4C
:108A1000019308BD2802030008B5024B1B68DB6CFC
:108A2000019308BD2802030008B5024B1B681B6DAB
:108A3000019308BD2802030008B5024B1B685B695F
:108A4000019308BD6402030008B5024B1B689B68D4
:108A5000019308BD6802030008B5024B1B68DB6880
:108A6000019308BD6802030008B5024B1B681B6830
:108A7000019308BD3002030008B5024B1B685B6818
:108A8000019308BD3002030008B5024B1B685B6907
:108A9000019308BD3002030008B5024B1B68DB6977
:108AA000019308BD3002030008B5024B1B681B6A26
:108AB000019308BD3002030008B5024B1B685B6AD6
:108AC000019308BD3002030008B5024B1B68DB6B45
:108AD000019308BD3002030008B5024B1B681B6CF4
:108AE000019308BD3002030008B5024B1B685B6CA4
:108AF000019308BD3002030008B5024B1B689B6858
:108B0000019308BD3C02030008B5024B1B68DB68FB
:108B1000019308BD3C02030008B5024B1B681B69AA
:108B2000019308BD3C02030008B5024B1B685B695A
:108B3000019308BD3C02030008B5024B1B689B690A
:108B4000019308BD3C02030008B5024B1B68DB69BA
:108B5000019308BD3C02030008B5024B1B681B6A69
:108B6000019308BD3C02030008B5024B1B689B6AD9
:108B7000019308BD3C02030008B5024B1B68DB6A89
:108B8000019308BD3C02030008B5024B1B681B6C37
:108B9000019308BD3C02030008B5024B1B681B682B
:108BA000019308BD4C02030008B5024B1B685B68CB
:108BB000019308BD4C02030008B5024B1B689B687B
:108BC000019308BD4C02030008B5024B1B681B69EA
:108BD000019308BD4C02030008B5024B1B685B699A
:108BE000019308BD4C02030008B5024B1B689B694A
:108BF000019308BD4C02030008B5024B1B68DB69FA
:108C0000019308BD4C02030008B5024B1B681B6AA8
:108C1000019308BD4C02030008B5024B1B689B6A18
:108C2000019308BD4C02030008B5024B1B685B6B47
:108C3000019308BD6002030008B5024B1B681B6D61
:108C4000019308BD6002030008B5024B1B685B6D11
:108C5000019308BD6002030008B5024B1B68DB6E80
:108C6000019308BD6002030008B5024B1B681B6F2F
:108C7000019308BD6002030008B5034B1B68D3F8DD
:108C80008030019308BD00006002030008B5034B6B
:108C90001B68D3F89830019308BD00006002030000
:108CA00008B5024B1B681B68019308BD2002030036
:108CB00008B5024B1B685B68019308BD20020300E6
:108CC00008B5024B1B685B69019308BD20020300D5
:108CD00008B5024B1B681B6A019308BD2002030004
:108CE00008B5024B1B68DB6A019308BD2002030034
:108CF00008B5024B1B689B6D019308BD2002030061
:108D000008B5024B1B68DB6D019308BD2002030010
:108D100008B5024B1B68DB6F019308BD20020300FE
:108D200008B5034B1B68D3F88830019308BD0000D9
:108D30002002030008B5034B1B68D3F8943001935D
:108D400008BD00002002030008B5034B1B68D3F8E0
:108D5000A830019308BD00002002030008B5034BB2
:108D60001B68D3F8AC30019308BD0000200203005B
:108D700008B5034B1B68D3F8B030019308BD000061
:108D80002002030008B5024B1B689B68019308BDD5
:108D90004402030008B5024B1B68DB68019308BD61
:108DA0004402030008B5024B1B685B69019308BDD0
:108DB0004402030008B5024B1B68DB69019308BD40
:108DC0004402030008B5024B1B681B6B019308BDEE
:108DD0004402030008B5024B1B685B6B019308BD9E
:108DE0004402030008B5024B1B68DB6B019308BD0E
:108DF0004402030008B5024B1B685B68019308BD81
:108E00004002030008B5024B1B689B68019308BD34
:108E10004002030008B5024B1B68DB68019308BDE4
:108E20004002030008B5024B1B681B69019308BD93
:108E30004002030008B5024B1B685B69019308BD43
:108E40004002030008B5024B1B689B69019308BDF3
:108E50004002030008B5024B1B68DB69019308BDA3
:108E60004002030008B5024B1B681B6A019308BD52
:108E70004002030008B5024B1B681B6B019308BD41
:108E80004002030008B5024B1B685B6B019308BDF1
:108E90004002030008B5024B1B681B6C019308BD20
:108EA0004002030008B5024B1B685B6C019308BDD0
:108EB0004002030008B5024B1B681B68019308BD04
:108EC0001C02030008B5024B1B685B68019308BDD8
:108ED0001C02030008B5024B1B689B68019308BD88
:108EE0001C02030008B5024B1B681B69019308BDF7
:108EF0001C02030008B5024B1B68DB69019308BD27
:108F00001C02030008B5024B1B685B6A019308BD95
:108F10001C02030008B5024B1B68DB6A019308BD05
:108F20001C02030008B5024B1B68DB6B019308BDF4
:108F30001C02030008B5024B1B681B6C019308BDA3
:108F40001C02030008B5024B1B685B6C019308BD53
:108F50001C02030008B5024B1B689B6C019308BD03
:108F60001C02030008B5024B1B68DB6C019308BDB3
:108F70001C02030008B5024B1B681B6D019308BD62
:108F80001C02030008B5024B1B685B6D019308BD12
:108F90001C0203008A4210B507D0441A0298C01A76
:108FA0004443501A94FBF0F0184410BD0021FFF721
:108FB00087BE10B54368013B0446436063B903684C
:108FC0009B689847A368013BA3602BB923682046A0
:108FD000DB68BDE81040184710BD70B5D0E90053FC
:108FE000044605EB0316AE4204D0284602F03CF8D6
:108FF0001035F8E72068FFF765FF204670BD10B513
:109000000446006808B1FFF7D4FF204610BD0000F9
:10901000024800230360FFF7F7BB00BF0CE6032004
:10902000002240681146FFF7FDBE0022406811464D
:10903000FFF718BF002240681146FFF723BF4068C2
:109040000022FFF717BF4068002281F00101FFF7FF
:1090500001BF002340681A461946FFF7F3BE0023FC
:1090600040681A461946FFF7E5BE002240681146DF
:10907000FFF7C8BE406800220221FFF7CBBE0023E5
:1090800040681A46FFF7B6BE70B5134B036018254B
:10909000303386B00E4643602A460021044608302D
:1090A00004F0EAFB002270681146FFF7BBFE78B1BE
:1090B00000212A46684604F0DFFB69460020ADF82F
:1090C0000050FFF799FB18B96946204600F0B8F840
:1090D000204606B070BD00BF2CED0B00084B10B54C
:1090E000282422461846002104F0C6FB054B0480C4
:1090F0004FF0FF32426004225A60034A1A6010BDEA
:1091000018E6032010E60320F0EC0B007047007B0C
:109110007047037B4BB10369B3F1004F05D0806901
:10912000B0F1004018BF012070470020704703686D
:109130001B6A184770B503680D461B6906469847B9
:109140000221284601F06CFE2C210446284601F03D
:1091500071FD336804449B693046984702212846D4
:1091600001F05EFE204470BDA0F10400FFF7E2BFF5
:1091700010B520210446FAF792FF204610BD0000EA
:10918000037B7BB14369002B0CDB07EE903A9FED2C
:10919000077AF8EEE77A87EE870ADFED057A20EEA8
:1091A000270A7047BFEE000A704700BF00FF7F47E5
:1091B0000000C842037B63B10369B3F1004F08D0DC
:1091C00007EE903A9FED047AF8EEE77A87EE870A89
:1091D00070479FED020A70470000C842000000007F
:1091E000037B7BB1C369002B0CDB07EE903A9FED4C
:1091F000077AF8EEE77A87EE870ADFED057A20EE48
:10920000270A7047BFEE000A704700BF00FF7F4784
:109210000000C842037B63B18369B3F1004F08D0FB
:1092200007EE903A9FED047AF8EEE77A87EE870A28
:1092300070479FED020A70470000C842000000001E
:1092400030B50D4600F108040FCD0FC495E80300BA
:1092500084E80300012030BD002240681146FFF77A
:1092600001BE002240681146FFF70CBE4068002294
:10927000FFF700BE4068002281F00101FFF7EABD60
:10928000002340681A461946FFF7DCBD00234068FA
:109290001A461946FFF7CEBD002240681146FFF777
:1092A000C1BD002240681146FFF7ACBD40680022F6
:1092B0000221FFF7AFBD002340681A46FFF79ABDB1
:1092C000024B03225A60024A1A60704740E60320AC
:1092D00068ED0B00006800F0F3B810B504460160BB
:1092E00002710AB1FFF7F6FF204610BD13B5044620
:1092F000019102F051FC019A01462046FFF7EDFF73
:10930000204602B010BD006800F0E3B82DE9FF412F
:1093100004461D460F461646FFF7DCFF36220023A3
:10932000CDE9002320684FF001080A236946CDE902
:10933000028300F0A9F82068036839469B689847C3
:109340002068036831469B6898472068036829466F
:109350009B6898474146206800F0AEF800282046F8
:109360000CBF00256FF09F05FFF7CDFF284604B026
:10937000BDE8F08108B5402200230621FFF7C6FFB3
:1093800000EAE07008BD7047F8B5064615460C4681
:109390008F18BC4206D0336814F8011B9B68304616
:1093A0009847F6E72846F8BD007C0022FFF7F4BA9C
:1093B000007C0021FFF7F8BA007C0021FFF7FCBA1F
:1093C000007C0021FFF700BB007C0021FFF704BBFD
:1093D00010B514210446FAF762FE204610BD0000C5
:1093E00038B5044615464FF47A730022C4E90123C8
:1093F000094B2174084623602946FFF7FDFABF3068
:1094000008D16B69DB0705D56868FFF75BFDE86885
:10941000FFF758FD204638BDA4ED0B000023007C6B
:109420001A461946FFF7A0BA7FB500221423CDE9EA
:109430000122ADF804300B788DF808304B680393A7
:10944000CB680493007C0B7A059301A9FFF7ECFA33
:1094500007B05DF804FB1FB5003B8DF800104FF01E
:109460006401039118BF0123694601928DF8083009
:10947000FFF7DAFF05B05DF804FB007C0022FFF780
:109480007BBAC9B2FFF7F9BF7FB50023CDE901333D
:109490004A6803921423CA68ADF804300B7804922A
:1094A0000A7A0592007C8DF8083001AA1946FFF768
:1094B00063FA07B05DF804FB007C0022FFF764BA92
:1094C00008B50021007CFFF79FFAB0FA80F0400950
:1094D00008BD08B50021007CFFF79EFAB0FA80F0C5
:1094E000400908BD004700002DE9FF4100241D464A
:1094F0000F4690460646FFF727FAA5424FF00403B1
:10950000ADF80D408DF80C308DF80F40A2BF9DF8DE
:1095100028308DF80E3003AC0749009443463A4694
:109520003046A8BF8DF80D50FFF706FAB0FA80F06C
:10953000400904B0BDE8F081E5940B00704710B518
:1095400018210446FAF7ABFD204610BDF0B5037DA7
:10955000062B8DB00E4600F104074FF0000412D028
:1095600000F1080515F8011D0A22304601F071FBD3
:10957000AF42044419D0002CF4D02E21304601F023
:1095800059FB0444EEE72F236A4639460A208DF83A
:109590000040FFF751FA684604F00BFA33680246C0
:1095A000DB68694630469847044620460DB0F0BD5A
:1095B00010B5054B0446112240F8043B002104F08D
:1095C0005BF9204610BD00BFCCED0B000346074AF7
:1095D00010B543F8042B01F1100251F8044B43F885
:1095E000044B9142F9D10A781A7010BDCCED0B00F2
:1095F00010B59DF8084044EA032343EA024242EAD8
:10960000016104234160037510BD000007B5064BDE
:109610000360CB7800938B784A780978FFF7E8FFEE
:1096200003B05DF804FB00BFCCED0B0000F11003AC
:10963000012213F8101C0129184608D153F8041C04
:1096400002EB4102013A03F11003F2D17047022903
:1096500004BF53F8041C5218F4E70EB4F0B588B0F8
:1096600000AF07F13405102155F8042B7A60044649
:109670002B467818FD60FFF745FC0F287A681AD949
:1096800000F1080323F007036E46ADEB030D411C08
:109690002B466846FD60FFF735FC021E04DD23689B
:1096A00069469B6820469847B5462037BD46BDE8C9
:1096B000F04003B070470028F7D0236802469B684B
:1096C00007F1100120469847EFE738B50B680360B3
:1096D0004D6843689D42044608D015B16B6801335C
:1096E0006B60606808B1FFF764FC656038BD07B562
:1096F00003688DF807109B6801220DF10701984758
:1097000003B05DF804FB0B461146002210B5C0E91A
:109710000022044683600BB9204610BDFFF7D5FF39
:10972000FAE78368EBB11A78032A1AD8DFE802F067
:109730000417021B0520704702685B685268D05C02
:109740002D2812D0A0F13003092B0ED974280ED089
:1097500066280CD0A0F16E0358425841704706208D
:109760007047002070470420704703207047022094
:10977000704710B50446FFF7D4FF02280ED0C31E71
:10978000DBB2012B14D82268A36850685B68BDE87F
:1097900010400A220021184404F0D0B92268A368BE
:1097A00052685B68D05CA0F174035842584110BD08
:1097B0000020FCE738B50023C0E9003304460E481A
:1097C000C4E90203A9B10B78032B06D08BB9136847
:1097D00058684B68C35C6E2B07D013684D68586897
:1097E0008B6828445B1BA060E36011462046FFF7AE
:1097F0006CFF204638BD00BF35EE0B0038B50025A4
:109800000B46C0E90055C0E90255C0E904550446BD
:1098100011464BB11A78012A06D103F11002DB6818
:1098200082604361FFF751FF204638BD10B54369A0
:10983000044663B18068E060013B1030A0602061A5
:10984000636113B1FFF7F2FEA060012000E018464B
:1098500010BD10B57D210446FFF749FF0123237198
:10986000204610BD08B50379012B02D0022B04D08D
:1098700008BD2C21FFF73BFFFAE73A21FAE710B5C4
:109880000446FFF7EFFF20467B21FFF730FF002360
:109890002371204610BD000013B504460191FFF767
:1098A000E1FF2368019ADB680349204698470123BA
:1098B0002046237102B010BD56DE0B0013B50446DE
:1098C0000191FFF7CFFF2368019ADB680349204627
:1098D000984701232046237102B010BD7AE70B00A0
:1098E0002DE9F0470D46222190460446FFF7FFFE82
:1098F000DFF8A490A8442F464745BA463DD017F854
:10990000016B222E06D05C2E04D0304603F084FF7B
:109910000028F1D12368AAEB05029B68294620465E
:1099200098475C212046FFF7E2FE0D2E0AD8072E4D
:109930001CD9A6F10803052B18D8DFE803F00D0F9A
:1099400011171315222E01D05C2E0FD1314620465F
:10995000FFF7CDFE3D46CFE76221F8E77421F6E739
:109960006E21F4E76621F2E77221F0E723683246C0
:10997000DB68494620469847ECE7BD4205D023689E
:109980007A1B9B6829462046984722212046FFF7EC
:10999000AEFEBDE8F08700BFD8ED0B0013B504465E
:1099A000CDE90021FFF75EFF2046DDE90021FFF74A
:1099B00097FF02232046237102B010BD13B5044661
:1099C000CDE90021FFF74EFF2046DDE90021FFF73A
:1099D00087FF01232046237102B010BD0A680B46A1
:1099E000926801461846104770B50E4C0460002579
:1099F0001C24C0E901459DF814409DF81060C56025
:109A000004F0030444EA8604E4B2047442748574E6
:109A10004161427C0F2A0ABF034B0383C0E9063031
:109A200070BD00BF18E50B00DD990B00806803686E
:109A3000DB6818477047084611B10B685B68184728
:109A40007047704770477047704738B504460D46F9
:109A500000682E2103F091FF2368C31A2B6023B105
:109A6000037803B1013023682060184638BD10B573
:109A70000C210446FAF713FB204610BD10B5042153
:109A80000446FAF70CFB204610BD10B5042104462D
:109A9000FAF705FB204610BDFEF7C6BE08B503F079
:109AA00076FFB0FA80F0400908BD704710B50C464B
:109AB00001F0C4FE844210D002F0AEF8844205D119
:109AC00002F0AAF8BDE8104001F051BE2CB12368A5
:109AD00020465B68BDE81040184710BD0B68036066
