:02000002D0002C
:1040000000400D00CCDE0D00000006000D00050193
:084010000401FD08000000009E
:0440180030CD0D009A
:1040200009480A49884208B505D0094A824202D0A7
:10403000121A08F057FC0748074A0021121A08F024
:1040400079FC014808BD00BF94DB0320D4DC0D00DF
:1040500060DD032060DD0320EDE7032070B5074E2F
:10406000074C07F05DFEA41BA4080025A54200D163
:1040700070BD56F8043B98470135F7E788DC0D0022
:10408000C4DC0D0000F066B908B500F0A3FABDE885
:10409000084007F0FDBD04F00BBF04F009BF04F0B9
:1040A0000FBF000008B5034A00210C2004F0CEFD2C
:1040B000FEE700BFCD880D000078B0FA80F040091F
:1040C0007047012303707047014B01221A7070473B
:1040D000E9DE032010B5034B0360044603F019F832
:1040E000204610BDBCCE0D0010B50446FFF7F2FF10
:1040F0002046102107F06AFF204610BDF8B5037D69
:1041000005460F4616468BB10368DB6883B19A8873
:10411000012A06D09B68F9E79B684BB19A88012A6F
:10412000FAD12BB19A89BA42F6D19E732846F8BDCE
:104130000A49102007F04CFF044668B11022002104
:1041400008F0F8FB064B23600123A3802B69A360D2
:10415000A781A6732C61E9E72875E7E72CDB0D0042
:10416000100003000EB410B58DB00FAA016852F80C
:10417000044B039200232020CDE90403CDE9004243
:104180001E2004AA04F072FD0DB0BDE8104003B07B
:104190007047000010B57F2404700024C0E901447A
:1041A000C0E90344C0E905444968034C5268C4614E
:1041B000C0E90814826210BD48D50D0010B5044650
:1041C000243001F025FD04F11C0001F021FD2069DF
:1041D00008B1FFF764FF606808B1FFF760FF204691
:1041E00010BD0000F0B5254D254C264B2A782178CE
:1041F0008FB003EB0212009203EB0113224A282135
:1042000004A804F07DFE2B78237004F0C9FD00287B
:104210002ED01E4C04F062FBD4E90032C61A62EBC9
:1042200042074FF47A720023B242BB4120DA04F015
:1042300055FB00236360164B20601B788DF800301F
:1042400014493C2304AA02A805F040F9039C7CB160
:104250006368013B63605BB9236820469B689847AD
:10426000A368013BA3601BB923682046DB6898471D
:10427000094804A9FFF776FF0FB0F0BDE8DE032080
:10428000B0DE032094DB032044CD0D0068DD032065
:1042900060DD032052CD0D0070E5032038B5244BBE
:1042A00001251D7007F06EFD00231A460D2107F051
:1042B00071FD07F067FD00231A46194607F072FDED
:1042C0001C4B1A46191D42F8091B0024A3F809408B
:1042D0009470194A1D75C3E903445A601C7207F0B3
:1042E0002DFE164D014623464FF40052284602F09B
:1042F0001DFF134B2B6007F021FE124D0146692272
:10430000114800F0BBFF2846104907F006F90023CA
:104310000F482C610022C5E90623C5E9084406239D
:1043200040F8043BAC62BDE8384001F04DBF00BF2F
:1043300060DD032094DD032010000300ACDD0320CA
:10434000BCCE0D00B8DE032074DD0320ADD90D0016
:10435000C0DD032030B55A4C9FB041F2883004F0E4
:1043600017FE00F093FB00F0A9FB00F00DFE082300
:1043700020460121638101F013FB0021204601F05A
:10438000F1F87C21204601F069F800F04DFA02F0C6
:1043900089F94C49044608A801F0C8FF09A904F1AD
:1043A000080007F0F6F80E9BE3610FA904F1200066
:1043B00007F0EFF8149B6363169BE363189B636439
:1043C0001A9BE3641C9B63659DF8743084F8583035
:1043D00008A801F035FC07F012FB3B4CC117C4E9FB
:1043E0001801204602F0D6F9384B39495D8B03A8F5
:1043F00001F0C0FD374905A801F0BCFD05AA03A9DD
:1044000008A8FFF7C7FE294608AA334802F067FE4E
:1044100008A8FFF7D3FE05A801F0FAFB03A801F0F6
:10442000F7FB2E4B21461A6808A802F095F80022E7
:1044300003A90320089D039204F030FC00283CD11E
:10444000039C0CB1236923B9254A00210A2004F0FA
:10445000FDFB0023ADF816300C23ADF8143002AB91
:10446000069304230793236905AA01212046984750
:1044700018BBBDF8083007EE903AFBEECC7A17EE89
:10448000900A07F017FF2A46CDE9000115491648A2
:10449000FFF768FE08A806F0F5FF144814490088E5
:1044A000002200924FF0FF3305F02CFB114B1A78DD
:1044B0000AB904221A701FB030BDFFEE007ADEE7A1
:1044C00074DD032063CD0D00C0DD0320C0E20320B6
:1044D0008ACD0D0093CD0D00B8DE0320F4DC03205F
:1044E000CD880D009CCD0D0070E5032060D00D003F
:1044F000C9400D00E8DE0320F0B5C1B007F07FFA37
:10450000284E294FC117C6E91801304602F042F97A
:104510003A68314604A802F01FF8049A2349244857
:10452000FFF720FE04A806F0ADFF062305A80493BC
:1045300001F04AFE07F063FAC117CDE91C0104A897
:1045400002F028F91B4804A902F074FC40B3D6E934
:1045500018311C9AD41A1D9B174A63EB0105A2421D
:104560004FF0000373EB0501BCBF14461D46002C41
:1045700075F10003B8BF00243A6804A9684601F049
:10458000EBFF0B48009A0D492346FFF7EBFD684609
:1045900006F078FF05A801F053FB204641B0F0BDBE
:1045A0000446F7E7C0DD0320F0DC0320C6CD0D0094
:1045B00070E50320B8DE032080510100D5CD0D0049
:1045C00008B507F0FFF918B1BDE80840FFF794BF40
:1045D00008BD00002DE9F0417F4D2B78032B90B0F2
:1045E00012D0042B00F08380022B75D17B4B1B78FB
:1045F000022B01D0FFF7F6FD794802F051FC0028AC
:104600006AD004232B7067E0744B1B78032B01D016
:10461000FFF7E8FD0021734800F020FFFFF7D0FF0F
:10462000A0F10A073A4670497048FFF79BFD704BAE
:104630001A7D0AB102221A726E4B6D48B3F80080DF
:1046400000224146FFF75AFD037D0646FBB1336861
:104650004FF47A70DB6847432BB19A88042A00F044
:10466000B8809B68F8E76449102007F0B1FC044665
:10467000002800F0AC801022002108F05BF95F4BAD
:1046800023600423A3803369C4E9023734615849A5
:1046900002A807F01BF853484FF0FF3100F0DEFE90
:1046A000029B0BB39A88012A1ED19B8998450DD194
:1046B000534905A806F031FF05A800F077FA05A8D0
:1046C00006F0E0FE4F494948FFF74CFD02980223EF
:1046D0002B7008B104F0F4FB424801F041FA00F0FD
:1046E000DDFB10B0BDE8F0814FF6FF73DEE73B4B1A
:1046F000454E1B78042B3CD0FFF774FD00F054FDB1
:1047000004F0ECF830600A2006F0E1FD3F49024673
:1047100004463648FFF726FD4FF47A70604304F0F4
:1047200037FC00F0ADF820BB394C3A492F48012343
:104730006383FFF717FD3849648B684601F01AFC64
:10474000364902A801F016FC02AA694605A8FFF73F
:1047500021FD05AA2146224802F0C1FC05A8FFF769
:104760002DFD02A801F054FA684601F051FA022327
:104770002B7000F0F9F808B3254B27495C8B68468D
:1047800001F0F8FB254902A801F0F4FB02AA6946F2
:1047900005A8FFF7FFFC05AA2146114802F09FFC7F
:1047A00005A8FFF70BFD02A801F032FA684601F0F8
:1047B0002FFA1B4B00229A8302232B7004F08EF8F1
:1047C0003368C01A174B984286D902231AE730750E
:1047D0005DE7DF605BE700BFE8DE0320B0DE0320BB
:1047E000B8DE032074DD032009CE0D0070E5032040
:1047F00094DD032060D00D002CDB0D0010000300C1
:10480000F0D40D001ECE0D0070DD032048CE0D004B
:10481000C0E2032082CE0D008ACD0D00ABCE0D008C
:10482000A0E20320E093040010B50E4803F0D8FA8C
:10483000044628B90C490D48FFF794FC204610BDEA
:104840009FED0B0A0B4803F0A3FD0A480022172135
:1048500003F018FF084A0949138804485288FFF7F3
:1048600081FCEBE718E10320D0CE0D0070E50320BA
:1048700000C06444E4DF0320C0E20320DCCE0D006E
:1048800073B52D492D482E4CFFF76CFC2D4B1E881F
:104890000121304607F0DDFA2B4A53886370191264
:1048A00013882170E3701912284BA170998BA171A4
:1048B0000812D98B607121720812197861725968D7
:1048C0001B7AE372D368E07123730125137F2048BC
:1048D000A1726373257102F0FEFD0012A0731C48E3
:1048E00002F0F9FD1B4BE0731A7814482274511939
:1048F00019701949FFF736FC032300932146174826
:104900000023112203F004F8044650B914490B485F
:10491000FFF728FC3046214607F09BFA284602B0F4
:1049200070BD10490548FFF71DFC3046002107F017
:1049300090FA0020F3E700BF59CF0D0070E5032087
:10494000EBDE03205ED00D00C0E20320A0E20320D6
:10495000E4DF0320EADE032078CF0D0018E1032016
:104960008BCF0D00B4CF0D002DE9F0472C4F2D4D0E
:10497000DFF8D4A0DFF8D4902B488CB00024CDE928
:10498000024A04940194CDF8009040F6B8333A46B8
:10499000294603F0C3F8064600283BD03B78DFF8F1
:1049A000B08099F80020EC5420489AF8003088F83C
:1049B0000030079202F08FFD3978019103461C49BF
:1049C00098F80000079A1B4F01EB001100911A485C
:1049D0001A49FFF7C7FBEA792B7A43EA0223D5F895
:1049E00003207B8312BA10462146079206F0F1FE9F
:1049F000079A234608A806F0FFFE0F487B8B089A0B
:104A00000F49FFF7AFFB08A806F03CFD30460CB09D
:104A1000BDE8F0870B490848FFF7A4FBF6E700BFA5
:104A200024DC0320EBDE032018E10320E4DF032075
:104A300025DC0320C0E2032070E503201ACF0D001F
:104A4000D7CF0D0007D00D0050E2032014E1032062
:104A500015E1032010B5084A084C09491278097875
:104A6000084B204603F054FC21460748BDE810409F
:104A70000A2202F043BF00BF64D00D00E4DF032030
:104A800062D00D0008E3032018E1032008B50949AE
:104A90000948FFF767FB0221042007F0C9F900214C
:104AA000082007F0C5F90121072007F0C1F901200E
:104AB00008BD00BF2BD00D0070E5032010B51849CC
:104AC000184890B02024FFF74DFB2246002168468D
:104AD00007F030FF224600210DEB04008DF8054061
:104AE00007F028FF00210DEB04008DF8254004F0AD
:104AF0003BF941F2D833ADF806300B4B029341F24B
:104B00007003ADF80C30009B002143F4007368463D
:104B1000009304F029F9003818BF012010B010BD2F
:104B200044D00D0070E50320840384037047006ABD
:104B30000368DB68184700000A4B10B504460360A1
:104B400005F0A2FB214605F064FD07F059F807F0D7
:104B50004BF82046044B40F8043B05F047FC204648
:104B600010BD00BFDCD00D00C4D00D0010B5044650
:104B7000FFF7E2FF2046242107F028FA204610BD67
:104B800038B5046805467CB16368013B63605BB976
:104B9000236820469B689847A368013BA3601BB924
:104BA00023682046DB689847284638BD30B522493F
:104BB00095B0044606F019FD38B120461E491F4C39
:104BC00006F013FD48B9207233E01D49204606F077
:104BD0000CFD0028F1D115B030BD638B01250B2BE6
:104BE00025721BD9174B184A402104A804F088F9F4
:104BF000164804A9FFF7B6FA04F0D2F860B1144BD6
:104C000014491B788DF8003002A83C2304AA04F054
:104C10005DFC03A8FFF7B4FF0120DCE70E490B4859
:104C2000FFF7A0FA0C2363830C4B1D70237A002B33
:104C3000D8D10B4BD7E700BF34D20D00C0E2032020
:104C4000F0D40D0068D00D009CD00D0070E503205D
:104C500060E20320B6D00D006FD00D0061E20320AA
:104C60006CD00D0070B5D0E900531426044606FB45
:104C70000356AE4204D0284606F004FC1435F8E78B
:104C8000206804F01DF9204670BD8842F8B504463E
:104C90000D46164616D9904215D2A2F11406751A81
:104CA000A1F114072C44B7421CD02CB13146204648
:104CB00006F064FC337C2374304606F0E3FB143EBC
:104CC000143CF0E70ED0B5420CD02CB1294620465A
:104CD00006F054FC2B7C2374284606F0D3FB1435D5
:104CE0001434F0E7F8BD2DE9F0410023C0E90033AA
:104CF00083604F689F4204460E4623DD4FF0140840
:104D000008FB07F004F0D4F80546D8B1D4E9001246
:104D100008FB0212FFF7B9FF206804F0D1F8256004
:104D2000A760D6E9007308FB0378B84508D0394678
:104D3000284606F03DFC3B7C2B7414371435F4E711
:104D4000736863602046BDE8F081000070B5284BB1
:104D5000284A01251D70284B00248CB09A601C60E5
:104D60009C809C71022003F0ABFF2146284603F093
:104D7000BFFF2946042003F099FDCDE900440294C9
:104D800006F03EFF1D4C0546694603A8FFF7ABFF42
:104D9000264603A906A8FFF7A6FF194B46F8043BD1
:104DA00006A909A8FFF79FFF09AA1E21304605F0B2
:104DB0008AFD09A8FFF756FF06A8FFF753FF114B1E
:104DC0002360256203A8FFF74DFF0F4B236006F019
:104DD00017FF4FF4165106F003FF05F055FA214670
:104DE00005F003FD6846FFF73DFF0CB070BD00BF46
:104DF00060E203200000FFFF54E2032064E203208E
:104E0000C4D00D00E4D90D00DCD00D001FB503F0B7
:104E1000C7FFD8B1174B184A1B788DF800301749D7
:104E20003C2302A804F052FB039C7CB16368013B65
:104E300063605BB9236820469B689847A368013B81
:104E4000A3601BB923682046DB6898470C490D48CE
:104E5000FFF788F90C4B0D4A5A6001221A723C2167
:104E60000022C3E9032259831A771A6283F82420A7
:104E700004B010BD88E20320ECD00D00B6D00D00C8
:104E800004D10D0070E50320C0E203200101000100
:104E9000014B01221A70704788E2032070B5314C33
:104EA00006F0ADFDD4E90023C117994208BF904236
:104EB00056D006F0A4FD2C4D2C4EC117C4E90001BC
:104EC000D5E904341C442B6A1C442B881C446B8891
:104ED0001C442B791C446B791C44AB791C44EB7942
:104EE0001C442B7A1C44EB681C442B8B1C446B8B9E
:104EF0001C442B7F1C4495F824301C4433689C428E
:104F00002CD01B491B48FFF72DF91B4828232A46A4
:104F1000012102F0A2F934600120184D184E6B688F
:104F20002C781C442B7A1C442B691C442B8B1C446E
:104F3000AB7E1C44AB8B1C44EB8B1C4433689C4203
:104F40000BD010490B48FFF70DF90B4820232A46D8
:104F5000502102F082F93460012070BD0020DCE7AE
:104F60000020FAE790E20320C0E203209CE2032045
:104F70001CD10D0070E50320ACDD0320A0E203206E
:104F800098E2032044D10D0013B521492148FFF7D1
:104F9000E9F8214802F0D4F81F4801230DF1070277
:104FA000002102F00FF99DF80740012C1CD01B498D
:104FB0001848FFF7D7F8184802F0CCF8184A1648F6
:104FC0000423002102F049F9134801230DF10702DF
:104FD000002102F0F7F89DF80740012C15D1FFF7EA
:104FE00015FF204602B010BD0E490A48FFF7BAF877
:104FF00021460D4A0848282302F0E4F80B4A0648E7
:105000002023502102F0DEF8EBE70020EAE700BFA2
:105010006BD10D0070E50320ACDD032089D10D00BC
:10502000ECD10D00C7D10D00C0E20320A0E20320A7
:1050300007EE900A9FED097AF8EEE77A67EE877A35
:105040009FED077A87EE870ADFED067A70EE677AC2
:10505000B2EE040A87EE800A704700BF00404E455A
:1050600000F07F450000FA4310B586B0002202A987
:105070000720029203F012FEB8B9029C0CB123691A
:1050800023B9194A00210A2003F0E0FD0023ADF8FE
:105090000E300C23ADF80C3001AB049304230593C0
:1050A00003AA2369012120469847104A104C127A1E
:1050B0000028A8BF0198207232B10E4804F074FC99
:1050C0004FF4FA7003F064FF0A4804F00DFCFDEEA3
:1050D000C07A17EE900A3C28D4BF00200120C4ED0E
:1050E000017A06B010BD00BFCD880D00C0E20320DC
:1050F000A0E20320E8E2032037B50C4D012101A80E
:1051000005F0B3FF2B78252B01A84FF0010409D936
:1051100006F03EF82C72002401A805F0B5FF2046E9
:1051200003B030BD06F01DF8F6E700BFA0E2032093
:1051300030B5194D0FCD99B004AC0FC40FCD0FC4CD
:1051400095E8030084E8030014490EA803F07AFFF1
:105150000EA803F0CAFF04460EA803F0E1FF0EA854
:1051600010EE105A04F00CF818AB10EE100A03EB16
:10517000840407F09FF8CDE90201284607F09AF869
:10518000CDE90001064A54F8503C0648402103F09E
:10519000B7FE19B030BD00BFA4D20D002CE503202E
:1051A00069D20D00A5DC0320104B10B51888104CF7
:1051B00006F07BFEFFF73CFFFDEEC07A0D4A17EECE
:1051C000903A102113702046DBB20B4A03F098FE90
:1051D0000A490B482246FEF7C5FFFFF745FFFFF7D8
:1051E0008BFFFFF7A5FF012010BD00BF66D00D00AB
:1051F00095DC0320A0E2032082D20D0087D20D00AF
:1052000070E503200148002104F020BBE8E2032000
:10521000704710B52021044606F0D8FE204610BD88
:105220000EB410B58DB00FAA016852F8044B03926A
:1052300000232020CDE90403CDE90042012004AA87
:1052400003F014FD0DB0BDE8104003B070470EB47C
:1052500010B58DB00FAA016852F8044B03920023D9
:105260002020CDE90403CDE90042322004AA03F056
:10527000FDFC0DB0BDE8104003B0704710B50272E0
:10528000FF2242810022C0E9032242610276C2610C
:10529000024A034C1060C0E9004110BDF4E2032053
:1052A000D0D40D002DE9F8439DF8208004468946AE
:1052B00016461F46B8F1000F02D0406804F00EFCFD
:1052C000217A606804F0E7FB6068036849469B68E0
:1052D00098476068002104F0FDFB054600BB0123F0
:1052E000217A60683A4604F0C4FB8742034609D13C
:1052F0003744BE421CD0606803685B69984706F873
:10530000010BF6E70B490C484A46FFF7A0FFB8F13E
:10531000000F02D0606804F0EAFB2846BDE8F8837D
:105320000346064904484A46FFF791FF0025EEE789
:105330000125ECE7CCD20D00F0E20320F1D20D0004
:1053400007B500930123FFF7ADFF03B05DF804FB41
:1053500073B54389FF2B044610D0194E194D03F045
:10536000BDFAB0F57A7F09D2608906F08BFD01287D
:1053700004D031462846FEF7F5FEF0E701230DF193
:10538000070228212046FFF7DBFF30B90D480E4900
:10539000FEF7E8FE002002B070BD9DF80730182B24
:1053A000F4D101230DF1070229212046FFF7C8FFA0
:1053B0000028EBD09DF80730052BE7D1EBE700BFC5
:1053C00015D30D00F0E203202AD30D002DE9F041A2
:1053D0009DF8188004460F4615461E46B8F1000F8A
:1053E00002D0406804F07AFB217A606804F053FB35
:1053F0006068036839469B6898472E44B5426068E8
:1054000005D0036815F8011B9B689847F6E7012152
:1054100004F060FB034670B1084909483A46FFF7BB
:1054200016FF0025B8F1000F02D0606804F05FFBA2
:105430002846BDE8F0810125F4E700BF37D30D0011
:10544000F0E203201FB58DF80F2000930DF10F023D
:105450000123FFF7BBFF05B05DF804FBF8B50A4672
:105460000C4605461A491B48FEF77CFE002CB8BFC7
:10547000EC687CB9012322461B212846FFF7E2FF96
:105480001549024606461348FFF7CAFEEC606C61F8
:105490003046F8BD032C19DDA7101F2FA8BF1F270A
:1054A000BA0062F07C020123D2B21B212846FFF72A
:1054B000C9FF3A460346094906460648FFF7B0FECB
:1054C0004FF4FA635F43EC606F61E1E70127E7E7C0
:1054D0005CD30D00F0E2032066D30D0082D30D00F3
:1054E0000B4607490246086848B1002B08BFB2F5D1
:1054F000006F04D1C36813B10021FFF7AFBF70473D
:10550000F4E203202DE9FF419DF828800546164668
:105510001F46B8F1000F04D04068019104F0DEFA94
:105520000199019100230DF10F022846FFF708FFB2
:10553000044660B19DF80F3003EA06023A439342F5
:1055400005D0019900232846FFF77CFF0446B8F1F7
:10555000000F02D0686804F0CAFA204604B0BDE823
:10556000F081000037B504460A463F480D463F49E2
:10557000FFF756FE606804F0B1FA00231A460F21C7
:105580002046FFF75FFF0023132210212046FFF77C
:1055900059FF00233C2211212046FFF753FF00232F
:1055A000E02212212046FFF74DFF0023262213217F
:1055B0002046FFF747FF00231A4617212046FFF732
:1055C00041FF15F0010348D000230093E322232379
:1055D00018212046FFF796FF00231A46192120467E
:1055E000FFF730FF00231A461A212046FFF72AFF53
:1055F00000231A461B212046FFF724FF15F0020F57
:105600004FF000030CBF1A4688221C212046FFF7EA
:1056100019FF00231A4620212046FFF713FF00231D
:10562000F02221212046FFF70DFF00231A462621F4
:105630002046FFF707FF0023802227212046FFF79F
:1056400001FF00231A4630212046FFF7FBFE606869
:1056500004F04DFA012003B030BD2322182120466A
:10566000FFF7F0FEB8E700BFF0E20320A6D30D007D
:1056700013B514460DF10702FFF762FE28B19DF83D
:1056800007301C420CBF0120002002B010BD13B532
:1056900014460DF10702FFF753FE28B19DF80730BD
:1056A0001C4214BF0120002002B010BD07B5D24338
:1056B0000093D2B20023FFF725FF03B05DF804FB8F
:1056C00037B501230DF107020F210446FFF738FE1D
:1056D000054638B91E491F48AD22FFF7B8FD2846D8
:1056E00003B030BD9DF8073013F0200F4FF00103D9
:1056F0000BD02022E3610F212046FFF7D7FF164A87
:1057000016491448FEF72EFDE9E708221721204626
:10571000FFF7BDFF18B10223114AE361F0E79DF8DE
:1057200007301A0709D50323E361082201230F215B
:105730002046FFF7BBFF0B4AE2E75B07CFD5042209
:10574000E26101230F212046FFF7B0FF064AD7E7A9
:10575000EAD30D00F0E20320BBD30D0009D40D0005
:10576000C4D30D00D4D30D00E4D30D0007B50093CE
:105770001346FF22FFF7C6FE03B05DF804FB2DE9D8
:10578000F3479DF828A005460C4691461F46BAF1FE
:10579000000F02D0406804F0A1F907B3202F3E4665
:1057A00028BF20267F2C26D83319802B01D9C4F19D
:1057B0008006012304223F212846FFF777FF0023BC
:1057C00064F07F0100934A463346C9B22846FFF78A
:1057D00069FD804628B13444BF1BB144DDE74FF07A
:1057E0000108BAF1000F02D0686804F080F9404661
:1057F00002B0BDE8F087012304223F212846FFF7CD
:10580000B5FFDCE72DE9F3479DF828A005460C46D7
:1058100091461F46BAF1000F02D0406804F05EF9CD
:1058200007B31F2F3E4628BF1F267F2C26D83319CB
:10583000802B01D9C4F18006012304223F21284690
:10584000FFF734FF002364F07F0100934A4633469C
:10585000C9B22846FFF7BAFD804628B13444BF1BC1
:10586000B144DDE74FF00108BAF1000F02D06868DB
:1058700004F03DF9404602B0BDE8F0870123042260
:105880003F212846FFF772FFDCE7000030B585B006
:105890000D68D1E9043203954D6802958D68019534
:1058A000C96800910133044902F26C72044605F0A4
:1058B000AFFE204605B030BD1AD40D0003110A22F8
:1058C00000F00F0002FB0300704738B50446007873
:1058D0001546FFF7F3FF08606078FFF7EFFF4860B9
:1058E000A078FFF7EBFF8860E078FFF7E7FFC8607C
:1058F0002079FFF7E3FF013808612DB9651D28788D
:10590000FFF7DCFF886138BD6079FFF7D7FF6430AF
:10591000A51D4861F3E7000070B5012388B00D466E
:105920001A4610210446FFF7A3FEF0B10823012612
:10593000204600960DEB03020021FFF7B3FC04465E
:1059400098B1324629460DF10900FFF7BEFF04A8C1
:10595000FFF79CFF0848049A0849FEF703FC04A8D7
:1059600005F090FD204608B070BD24220021284695
:1059700006F0E0FF0024F5E7F0E2032038D40D0044
:1059800030B58BB00D4601A9FFF7C6FF044620B124
:1059900001A803F0F5FAC5E9000120460BB030BDBF
:1059A00010B5044688B011B1406804F045F82046AF
:1059B000FFF7CEFC70B32046FFF782FE01231A46A4
:1059C00010212046FFF754FED8B105F0FBFFC0B907
:1059D00002A92046FFF7D4FFDDE9020105F0F9FE38
:1059E0000F4B10491B68009304A8DDE9022305F062
:1059F000A7FF0D48049A0D49FEF7B4FB04A805F073
:105A000041FD0B4A002300214FF4006003F068F9C8
:105A100008B010BD07490448FFF719FCF1E700BFC3
:105A2000F0DC0320C4E50320F0E2032046D40D009F
:105A3000E1540D0063D40D000A2290FBF2F302FB47
:105A4000130093FBF2F102FB113140EA0110C0B2E6
:105A5000704770B5054600680C461646FFF7ECFF28
:105A600020706868FFF7E8FF6070A868FFF7E4FF40
:105A7000A070E868FFF7E0FFE07028690130FFF7E9
:105A8000DBFF20712EB9661DA869FFF7D5FF3070C6
:105A900070BD6A69642392FBF3F003FB1020FFF7EB
:105AA000CBFFA61D6071EFE7F0B587B0054602A8F1
:105AB00016460C46FFF7EAFE1E48029A1E49FEF7FC
:105AC00051FB02A805F0DEFC16B1686804F006F888
:105AD000204601220DF1090100278DF80870FFF71B
:105AE000B8FF01231A4610212846FFF73FFE04465F
:105AF000E8B1082300970DEB030239462846FFF76B
:105B000065FC044660B101231A4610212846FFF7C0
:105B1000CDFD16B1686803F0EAFF204607B0F0BD7E
:105B20004FF48D7205490348FFF791FBF1E74FF4FD
:105B30008F72F7E7F0E203207BD40D0089D40D00CB
:105B400013B504466846CDE9002306F0B9FE9DF87A
:105B5000102001462046FFF7A7FF02B010BD00004D
:105B6000F0B5057E89B0044675BB05F02BFF58B330
:105B70000026002704A92846CDE9046703F028F988
:105B800010B30125257605F03AFF00950246C317AC
:105B90002046CDE90223FFF7D3FF02A92046CDE935
:105BA0000267FFF7EDFE124B12491B68009304A831
:105BB000DDE9022305F0C4FE0F48049A0F49FEF701
:105BC000D1FA04A805F05EFC636973B102F086FEA9
:105BD0002369C01A6369984207D302F07FFE4FF031
:105BE000FF3120612046FFF739FC09B0F0BD00BF4E
:105BF000F0DC0320C4E50320F0E20320A4D40D0070
:105C0000014B024A1A607047F0E20320BAD40D003B
:105C10007047704701207047012A08BF01600020CB
:105C2000704710B50821044606F0D0F9204610BD93
:105C300010B51021044606F0C9F9204610BD000039
:105C400010B5054B044640F81C3B05F01BFC201D1D
:105C500005F018FC204610BD68D50D0010B50446AF
:105C6000FFF7EEFF2046582106F0B0F9204610BDA0
:105C700010B5044B044640F8043BFFF7E1FF204613
:105C800010BD00BF38D50D0010B50446FFF7F0FF7A
:105C90002046602106F09AF9204610BD20F002034C
:105CA000012B03D0431F5842584170471846704794
:105CB00008B1FEF7F4B9704708B548B1B0F1005F1C
:105CC00001D306F089F9BDE808408000FEF7E3B98A
:105CD00008BD0B6803604B68436013B15A6801321A
:105CE0005A60704790F9042091F904309A4213DB0E
:105CF00010DC90F9052091F905309A420CDB09DCA3
:105D000090F9062091F906309A4205DBCCBF0120BC
:105D100000207047012070474FF0FF3070470000AF
:105D2000024A02604A684260704700BF48D50D00D1
:105D300091F90420027191F90520427191F9062030
:105D4000827191F90720C271704738B50C4605463B
:105D500000F11C012046FFF7C5FF002809DB05F113
:105D600024012046FFF7BEFF0028D4BF00200120F9
:105D700038BD4FF0FF30FBE738B504460D46043020
:105D8000043105F006FC05F1140104F11400FFF7DD
:105D9000CFFF05F11C0104F11C0005F0FAFB05F131
:105DA0002C0104F12C00FFF7C3FF95F9383084F87B
:105DB000383095F9393084F8393095F93A3084F82B
:105DC0003A3095F93B3084F83B3005F13C0104F161
:105DD0003C00FFF7ADFF95F9483084F8483095F95D
:105DE000493084F8493095F94A3084F84A3095F9B9
:105DF0004B3084F84B3005F14C0104F14C00FFF7B7
:105E000097FF95F8543084F85430204638BD4A69DD
:105E1000036862F3160303600B695A1C438862F33C
:105E2000CA134380CA68C3F3072362F3C703C3706E
:105E3000704710B504468CB02422002103A806F058
:105E400079FD2368C3F3160308936388C3F3C31370
:105E5000013B0793E37803A8DB08069303F090F86F
:105E6000CDE9000103A9684603F07AF809980CB05F
:105E700010BD30B504468DB024220D4603A8002184
:105E800006F058FD2368E178C3F31603089363888E
:105E9000C3F3C313013B05EBD10503A80793069594
:105EA00003F06EF8CDE9000103A9684603F058F845
:105EB00003A92046FFF7ABFF0DB030BD0368C1F367
:105EC0001602C3F31603934213D310D84288C1F3CA
:105ED000C353C2F3C3129A420BD308D8C378DB086A
:105EE000B3EBD16F05D38CBF012000207047012098
:105EF00070474FF0FF307047024A02600022426054
:105F0000704700BF48D50D0030B5002387B08380AF
:105F100083710D4605AB00931349044604AB03AAF5
:105F2000284602F0E5FF032807D1039B2371049B59
:105F30006371059BA37107B030BD0C4904AB03AA84
:105F4000284602F0D5FF022804D1039B2371049B4D
:105F50006371F0E7064903AA284602F0C9FF012849
:105F600004BF039B2371E6E7E0D40D00E3D40D00EA
:105F700063D30D0010B5044B036000230446436057
:105F8000FFF7C2FF204610BD48D50D0038B50025EB
:105F90007F2304460370C0E90155C0E90355C0E9F9
:105FA00005550A491C30FFF7E5FF094904F12400B3
:105FB000FFF7E0FFC4E90B550649656304F13800BB
:105FC00005F0ABFAA564204638BD00BFE9D40D004A
:105FD000F2D40D00ADD90D0090F9043090F90520F0
:105FE00090F90610002BB8BF0848C2EB02124FEA26
:105FF0008202BDBF00FB0320401840424FF46160A5
:10600000A4BF00FB03235818704700BFF0F1FFFF47
:1060100090F9073043B990F904308B6090F905305E
:106020004B6090F906300B60704790F9073030B53F
:10603000B3B990F904508C682C44D1E900328C60DB
:1060400090F90540002DB5BF121B12194A604A6035
:10605000B5BF90F9062090F906209B1A9B180B609B
:1060600030BD38B544680546AB68A34207D020462A
:10607000FFF724FF04340028F6D1012038BD0020AA
:10608000FCE738B5046905466B69A34207D0204692
:10609000FFF714FF04340028F6D1012038BD00209A
:1060A000FCE773B505460E46FFF7EBFF90B901A874
:1060B0000191FFF7BEFE2B78314643FA00F42846E3
:1060C000FFF7CFFF04F00104002C08BF0446204670
:1060D00002B070BD0024FAE72DE9F84300244568BA
:1060E000804626462746D8F808309D421ED067F3E2
:1060F000160966F3DA5964F3DF69B9F1000F09D1C3
:106100002F686E88EC78C7F31607C6F3C316E40849
:106110000435E8E767F3160166F3DA5164F3DF61EB
:106120002846FFF7CBFE0028EADCF1E7002067F302
:10613000160066F3DA5064F3DF60BDE8F883000010
:10614000054A08B502600022034642600830FFF7A6
:10615000D3FE184608BD00BF58D50D00002343608C
:10616000838183737047000030B5044687B00D46C5
:1061700011B10B784D2B03D02046FFF7EFFF1BE04A
:1061800005AB00930F4904AB03AA284602F0B0FE0A
:106190000328F1D1039B2371049B6371059BA371B9
:1061A0002F21284606F026FC40B1411C04F10800CE
:1061B000FFF7AAFE0123E37107B030BDA081A073F1
:1061C000F8E700BFFBD40D00104B114910B5044691
:1061D00040F8043B05F0A1F904F11400FFF78CFE30
:1061E0000B4904F11C0005F098F904F12C00FFF7AD
:1061F00083FE04F13400FFF7A3FF04F14400FFF72E
:106200009FFF002384F85430204610BD68D50D0050
:10621000ADD90D002DE9F74F0446084606F014FCF1
:1062200000250646019004F134083F49019801AA6F
:1062300006F090FC0146002862D0012D05F1010313
:1062400053D0022D56D0002D46D1024692F8009030
:10625000B9F1400F1546174602F10102F6D80022A7
:106260002A7004F11C0005F0AEF9012285F80090B7
:1062700084F854202A786AB397F800A00AF1FF3214
:106280003F2AB946BB4607F10107F5D9002304F1BF
:106290002C0789F8003029463846FFF735FE89F883
:1062A00000A0BAF1000F15D05D461BF801ABBAF1A2
:1062B000400FF9D800222A704946201D05F083F9C5
:1062C00085F800A004F11400BAF1000F06D02946A9
:1062D000FFF71AFE0125A8E71D46A6E73946FFF796
:1062E00027FD237E013B2376F4E74046FFF73CFF82
:1062F00002259AE704F14400FFF736FF032594E7EF
:1063000094F93B3043B194F94B202AB904F134009D
:10631000FFF724FF84F85420304602F0D1FD94F8B2
:10632000540003B0BDE8F08F05D50D0038B5134B10
:1063300004460D4640F8043B114905F0EEF804F11F
:106340001400FFF7D9FD0E4904F11C0005F0E5F833
:1063500004F12C00FFF7D0FD04F13400FFF7F0FE4C
:1063600004F14400FFF7ECFE002384F85430294682
:106370002046FFF74FFF204638BD00BF68D50D000F
:10638000ADD90D0008B50346FFF7B6FD8A681A714E
:106390004A685A710A689A71184608BD13B5074BC6
:1063A00003600023044643606846FFF7EBFF69463D
:1063B0002046FFF7BDFC204602B010BD48D50D00B9
:1063C00091F9073043B991F90430836091F90530B0
:1063D000436091F906300360704707B5002301461A
:1063E00001A80193FFF713FD019803B05DF804FBCA
:1063F000194B70B504460D4640F8043B043105F0D6
:10640000D7F805F1140104F11400FFF789FC05F138
:106410001C0104F11C0005F0CBF805F12C0104F17E
:106420002C00FFF77DFC0D4EAB6BA36305F13C0127
:10643000666304F13C00FFF773FCAB6CA364666415
:1064400005F14C0104F14C00FFF76AFC95F854305B
:1064500084F85430204670BD68D50D0058D50D0025
:10646000F8B50C4651F8043B074640F8043BFFF7EB
:10647000BFFFD4E9182304F16806C7E918230FCE3B
:1064800007F168050FC50FCE0FC533682B60D4E93F
:10649000242304F19806C7E924230FCE07F19805B9
:1064A0000FC50FCE0FC533682B60D4E93023C83435
:1064B000C7E930230FCC07F1C8050FC50FCC0FC5B6
:1064C00023682B603846F8BD10B50446383004F018
:1064D000D9FF2069FFF7ECFB6068FFF7E9FB204676
:1064E00010BD10B5044688B00846683001A906F012
:1064F000BBF901A806F0C5FA08AB1844002300F860
:106500001D3C01A9204605F008F8204608B010BD42
:1065100038B591F8583005460C463BB191F93F30FB
:1065200053B901F13000FFF757FD28B90949284652
:1065300004F0F3FF284638BD2068FFF7AFFB28B111
:1065400004F10801284605F033F8F3E704F12001CF
:10655000F8E700BF07D50D002DE9F04F8046A9B040
:106560000C4615462AB14B4B1046196806F059FAED
:1065700038B921464046FFF7B4FF404629B0BDE890
:10658000F08F29463F2218A806F095FA002318A894
:106590008DF89F3006F075FA2146054603A8FFF7EF
:1065A000B7FF94F858303BB194F93F3083BB04F106
:1065B0003000FFF711FD58BB374907A806F03BFA3A
:1065C00018AF002605F1FF3BB3454ED9BA4606F198
:1065D00001091AF8013B252B17D17B787A2B36D18C
:1065E00007A806F04EFA18AB05463018ABEB0602CA
:1065F000B91C184406F076F92A4607A9384606F071
:1066000071F918A806F03DFA054657464E46D9E7F7
:106610002068FFF743FBB8B104F11800FFF7DCFC7A
:106620003C2190FBF1F3002BB8BF5B42B3FBF1F2CE
:1066300001FB12330093194A194B90FBF3F310211D
:1066400007A802F05DFCBBE704F13000E6E75A2B37
:10665000DBD1059D18AB7019ABEB0602B91C1844D1
:1066600006F040F903992A46C8E700212E220CA81B
:106670000B9106F05FF904F1680318AA32210BA808
:1066800002F066FC0BA9404604F047FF03A804F0A3
:10669000F9FE72E7F0DC032007D50D0009D50D00E7
:1066A000F0F1FFFF38B5094D2B6863B96020FDF7A5
:1066B000F2FC044630B1064B40F8043BFFF784FD82
:1066C0006423E3652C60286838BD00BFF8E203202E
:1066D00038D50D0002F054BC01390B2915D8DFE87C
:1066E00001F01608160616061616061606161E20C1
:1066F000704783070DD1642290FBF2F302FB130075
:1067000000280CBF1C201D207047002070471F2050
:1067100070471C207047F8B50123CB6090F9043016
:10672000013B0B610023C1E9003306460C461746C6
:106730008B602046FFF7CEFF96F90630A2699A4299
:1067400003D0E3680133E360F3E796F90550012DC8
:1067500013D0E3686069013DC5EBC5051D44E560E4
:1067600096F9041000F26C70FFF7B6FF8542C4BFC3
:10677000073DE5602046FFF7ADFF214606F1080022
:10678000FFF746FC3846FFF750FC2046BDE8F840CE
:1067900002F0F6BBF0B590F8583085B004462BB93E
:1067A000FFF780FF011D201DFFF7E6FA94F93F3047
:1067B000002B69D0D4E9182304F1980739463E46E6
:1067C00002A8CDE9022302F0CBFB0FCE04F1C805ED
:1067D0000FC50FCE0FC533682B6004F1300102A83E
:1067E000FFF79EFA02AA394604F13800FFF793FF3B
:1067F000C4E9240104F1180102A8FFF791FA02AAE2
:1068000004F1C80104F14800FFF785FFD4E92467CB
:106810000B468642024677EB0301C4E93023D4E9F4
:10682000180124DAB04271EB070519DA002323605E
:106830002068FFF733FA04F16801D4E91867019181
:1068400020BB04F13000FFF7C7FB361A67EBE07797
:10685000019902A8CDE9026702F082FB05B0F0BD04
:10686000904271EB0303B4BF01230223DFE79042A0
:1068700071EB030301DA0323D9E7B04271EB07039D
:10688000B4BF04230523D2E70623D0E704F11800A0
:10689000D9E72DE9704304460E460FCCDCB001ADBC
:1068A0000FC50FCC0FC523682B6001A802F068FB51
:1068B000044606F12C000D46FFF78EFB96F93B309F
:1068C00014EB000845EBE0791BB3062321A82093C5
:1068D000FFF77AFC31460AA8FFF78AFD0AA921A82A
:1068E000FFF74AFA20A8CDE93889FFF753FF0AA835
:1068F000FFF7A6F92098FFF7D1F938B106F1140097
:10690000FFF76AFB14EB000845EBE07921A8FFF7DD
:1069100097F9404649465CB0BDE8708330B591F9BF
:10692000073097B00446C3B900F168056846FFF721
:10693000F7F969462846FFF743FD211D6846FFF732
:1069400057FD69462846FFF7A4FFC4E918016846C9
:10695000FFF776F92046FFF71DFF17B030BD0000A6
:1069600030B5D0E918320B4D5B194FF0000585B0FA
:1069700045EB0202C0E9183204460191FFF70AFF15
:10698000019902A8FFF7CCF902A92046FFF7C6FF3C
:1069900005B030BD805101002DE9F0418AB01746A5
:1069A00006460D462422002101A81C4605F0C2FF20
:1069B000062F29D829463046FFF78EFE002C804648
:1069C00024DDA6F26C76013D06960595012301A80B
:1069D0000493FFF77FFE079A049BBA4201D001336C
:1069E000F5E700210122944206D101B10493049CF1
:1069F00020460AB0BDE8F0810733434504DC01328C
:106A0000062A4FF00101EED10024F1E7F0D0013D5C
:106A1000CDE90405A6F26C76069601A8FFF75AFEAA
:106A2000079B0499BB4202D001390491F5E700208D
:106A300001226442944203DC0028D8D00491D6E7B6
:106A400007390029E0DD0132062A4FF00100F1D1BB
:106A5000DAE700002DE9F046CDB0044610A80D4657
:106A6000FFF7FEFC002320460293FFF735FB58BBDF
:106A70002AA8FFF7B2FC0290FFF714FEC16D02A82E
:106A8000FFF7F7F9DFF80CA22AA8FFF7A6FC029996
:106A90000390064603A8FFF711FA002800F3F280DE
:106AA00031462046FFF7FDFA0746002800F09480A3
:106AB000A36C013B042B00F28F80DFE813F007008A
:106AC00007009600B800D5000290DBE72AA907A8C6
:106AD000FFF758FC07A92046FFF737F900280DDA21
:106AE00004F11C0107A8FFF71BF907A910A8FFF77D
:106AF00015FFDDE92823C5E9182394E06CD1A36CC8
:106B0000012B25D0022B67D104F11C0104A8FFF74B
:106B100007F904F12409494604A8FFF7E3F800281F
:106B20005ADC04A907A8FFF7FBF807A910A8FFF78C
:106B3000F5FED5E91801DDE92823904271EB030346
:106B400041DB9DF81430E26A13448DF81430E2E71B
:106B5000E26A94F9213093FBF2F63C21514302FBA7
:106B60001636DDE92823521843EBE17310A8CDE96E
:106B70002823FFF70FFEDDE9282307A904A8CDE9A4
:106B8000042302F0EDF92B9BE16A9B1B93FBF1F2CE
:106B900001FB1233089A07A8D21A94F922300892FE
:106BA000079302F0EDF9CDE9280110A8FFF7F2FDF7
:106BB0002AA904A8FFF7F2FB04F1240104A8FFF7B7
:106BC00091F8002808DA2AA8FFF707FC01462046BA
:106BD000FFF767FA00288CD1514607A8FFF7CAF9DA
:106BE00007A910A8FFF7BCFE4EE72E992F98D4E90D
:106BF0000B32013100F26C70FFF7CEFE2D9B9842F4
:106C0000EAD104F11C0107A8FFF78AF807A910A828
:106C1000FFF784FEDDE92801D5E9182382428B4184
:106C2000DADAC5E918012846FFF7B4FD2BE0E66A79
:106C3000002E08DA2E992F98013100F26C70FFF7C0
:106C40004BFD3044461C2AA8FFF7C7FBB6EBD06FBC
:106C5000C2D12AA907A8FFF795FB07A92046FFF78D
:106C600074F80028B8DCCCE72AA907A8FFF78AFB4C
:106C700004F11C0107A80191FFF734F800280199DD
:106C8000AADCC0E7002711A8FEF7DAFF38464DB0AE
:106C9000BDE8F086E9D40D0037B58D680446684636
:106CA000FFF717F86A462946204603F0C3F801A803
:106CB000FDF766FF204603B030BD37B5CD6804460A
:106CC0006846FFF706F86A462946204603F08EF824
:106CD00001A8FDF755FF204603B030BD37B50D695B
:106CE00004466846FEF7F5FF6A462946204603F04B
:106CF00026F801A8FDF744FF204603B030BD70B56B
:106D0000D1E90036F61A0023C0E900330446836057
:106D1000B0100D46FEF7D0FFD5E90053C4E90000DE
:106D20000644A6602A460146934205D009B116687A
:106D30000E6004310432F7E75B1B184460602046A4
:106D400070BD38B50D4611F8043B044600F8043B0D
:106D5000FFF7D5FF05F1100104F11000FFF7CFFF99
:106D6000204638BD38B504460D46FFF7EAFF05F169
:106D70001C0104F11C00FEF7D3FF05F1240104F10E
:106D80002400FEF7CDFFEB6AE3622B6B23636B6B92
:106D9000636305F1380104F1380004F009FCAB6CC1
:106DA000A364204638BD2DE9F043D0F82080D1B04F
:106DB00081460C46154600260027D9F82430434565
:106DC00029D0414601A8FFF7CDFFAB680BB905F00C
:106DD00009F9EB6801A928469847B0B1214614A8E3
:106DE000FFF73EFB14A901A8FFF734FEDDE92C23D1
:106DF00010B156EA070103D0B24273EB070101DA82
:106E000016461F4615A8FEF71BFF01A8FFF75CFBFF
:106E100008F14C08D1E756EA070308D02046C4E938
:106E20001867FFF7B7FC012051B0BDE8F0830020E0
:106E3000FAE700001FB5084B03936A46074B02931D
:106E4000FFF7B1FF029B04461BB1694603220846C7
:106E50009847204604B010BD155C0D00195C0D006C
:106E600070B504460D4610461946D4E9062352EA89
:106E7000030613D0904271EB03030FDB00220023C3
:106E8000C4E90623012629462046FFF7D3FF18B19F
:106E9000D5E91823C4E90623304670BD0026F2E781
:106EA00030B5BDB0054604F08DFD0446C0B10623E3
:106EB00001A80093FFF788F904F0A1FDC117CDE9FF
:106EC00018016846FFF766FC04F099FD6946024622
:106ED000C3172846FFF7C4FF044601A8FEF7B0FE1B
:106EE00020463DB030BD81422DE9F04104460E46BA
:106EF00022D0D1E900580068A3681B1AA8EB050747
:106F00009B10B3EBA70F4FEAA70118D20846FEF774
:106F1000D3FE06460346A84505D00BB12A681A6081
:106F200004330435F7E72068FEF7C2FE26603E44CE
:106F3000A66023681F4467602046BDE8F081626850
:106F4000121AB1EBA20F06D8A845F2D03A4629464C
:106F500005F0D6FCEDE712B1294605F0D1FCD4E9E5
:106F60000032D11A33680B4471689942E1D00AB1FA
:106F70001868106004330432F7E738B50D4611F88D
:106F8000043B044600F8043BFFF7ADFF05F1100198
:106F900004F11000FFF7A7FF05F11C0104F11C002C
:106FA000FEF7C6FE05F1240104F12400FEF7C0FE41
:106FB000204638BD2DE9F74FD0E900693B4D3C4BE9
:106FC000A9EB0604A4106C439C428A46074611466E
:106FD000A84602D1374805F002F8012C224638BFF6
:106FE0000122A418AAEB06055DD254B19C4228BF29
:106FF0001C464C2060430091FDF74DF800998346F4
:1070000000E0A3461BEB050001D0FFF7ABFE5B469B
:1070100031468A450AD033B1184601910093FFF7F3
:10702000A1FEDDE900314C314C33F2E7AD0808FB3D
:1070300005FA2AF040454FF04C0A0AFB05FA06EB28
:107040000A050AF14C0ADA4453462946494513D148
:10705000A9EB0505AD0808FB05F525F040454FF007
:107060004C0808FB05A5B046C8450FD04046FFF7C1
:107070002BFA08F14C08F7E7184601910093FFF747
:1070800071FE0199009B4C314C33DFE716B130465D
:10709000FDF705F84C2000FB04B4C7E900B5BC605F
:1070A00003B0BDE8F08F1C46A3E700BF1BCA6B28E6
:1070B0006B28AF0114D50D0038B5D0E90135AB42CE
:1070C00004460A4607D013B11846FFF74BFE636823
:1070D0004C33636038BD1946FFF76CFFFAE730B5F3
:1070E00097B0044603A801920D46FEF74FFF012317
:1070F0000199159303A80E95FFF73FFF03A904F12B
:107100002000FFF7D9FF03A8FFF7DEF9204617B0EC
:1071100030BD704710B51021044604F057FF2046DB
:1071200010BD0368C9B29B681847000030B5034D15
:10713000C0E90223C0E9005130BD00BFA4D50D0055
:10714000406802F079BC10B50446006802F0CFFC3C
:10715000204610BD2DE9F0418AB0044640680190F8
:1071600002F0BCFC1E22002102A8A76805F0E2FB89
:107170000026EFB123681E2FB84628BF4FF01E0827
:10718000DD6802AA434631462046A847054658B95D
:107190000A480B493246FCF7E5FF01A8FFF7D3FF89
:1071A00028460AB0BDE8F081A7EB08074644E0E7AF
:1071B00001A8FFF7C8FF0125F2E700BF70E5032033
:1071C00070D50D002DE9F7430446406801900D4647
:1071D00016461F4602F082FCA7B1E168606841F0E4
:1071E000500102F05CFC290A6068FFF79AFF29460B
:1071F0006068FFF796FF6068002102F06BFC48B101
:10720000002400E0012401A8FFF79DFF204603B001
:10721000BDE8F083202F217B6068B84628BF4FF07F
:1072200020080123424641F0500102F022FC04F004
:1072300085FE03681B6998474045E1DB06EB0809BA
:1072400004F07CFE03685B69984706F8010B4E4525
:10725000F6D14544A7EB0807BEE72DE9F74F0446F2
:10726000406801900E4690461D4602F037FC4FF0F4
:107270000109B9F1000F2AD04DB3E168606841F00F
:10728000500102F00CFC310A6068FFF74AFF6068A9
:107290003146FFF746FFA5F11E0A4746A6EB080B4D
:1072A000606817F8011B0368013D9B6898475545C6
:1072B0000BEB0706B84601D0002DF1D16068012123
:1072C00002F008FC0028D7D04FF00009D1E701A850
:1072D000FFF739FF484603B0BDE8F08F2DE9F043D2
:1072E0008BB00E4615468046406801901C4602F061
:1072F000F5FBAE4229D2264425448CB11E2C2746EC
:10730000D8F8003028BF1E27F61BD3F8089002AA31
:107310003B4631464046ED1BC84748B9002400E0D3
:10732000012401A8FFF70FFF20460BB0BDE8F08352
:10733000D8F8003002AAD3F80C9029463B464046C4
:10734000C8470028EAD0E41BD7E7E9D9002CE7D0EA
:10735000D8F800301E2C274628BF1E27D3F80890E7
:1073600002AA3B4631464046C8470028D6D0D8F846
:10737000003002AAD3F80C9029463B464046C84745
:107380000028CBD03E443D44E41BDFE7016002719E
:10739000704700680368DB681847006803681B6A69
:1073A0001847006803689B6A1847006803689B6B6E
:1073B000184737B505460C4619460192FFF7F5FF09
:1073C0002868019A03685B69214603B0BDE8304034
:1073D000184700680368DB6B184738B50446006837
:1073E00003680D465B6B984729462046FFF7F1FF7F
:1073F000257138BD38B50446006803689B68984716
:10740000054618B121792046FFF7E7FF284638BD29
:10741000006803681B6C1847006803685B6C1847BA
:1074200000680368DB6C1847006803681B6D184729
:10743000006803685B6D1847006803689B6D184718
:107440002DE9F843044600680A9F1E4603681B693D
:10745000DDE9089898470546C8B11EB12046FFF7F8
:10746000E3FF3070B9F1000F04D02046FFF7D8FFDA
:1074700089F80000B8F1000F04D02046FFF7D8FFCC
:1074800088F800001FB12046FFF7D6FF3870284665
:10749000BDE8F883012070470379032BFCD001205D
:1074A0007047002070478171704741717047C17209
:1074B00070470173704741737047837B23EA020270
:1074C000114381737047C0797047007A7047407AE2
:1074D0007047807A7047008A00B270470079704721
:1074E00001717047408A80B27047808A80B27047CD
:1074F000C08A80B2704738B505460C462B682846CE
:10750000DB68984728B9002CF8D0204601F040FDF0
:10751000F4E738BDF8B505460F46144601F0DEF92C
:10752000064601F0DBF9801BB8420AD22B682846D8
:10753000DB68984730B9002CF3D0204601F028FDD5
:10754000EFE70020F8BD70B504460E4601F0C6F91D
:10755000054601F0C3F9401BB04204D22379032B46
:10756000F7D0012070BD0020FCE770B5C369044668
:10757000B3B101F0B3F964260546236820461B6BBE
:10758000984768B101F0AAF9E369401B984209D80D
:107590000A21012003F0A6FE704301F0F9FCECE79C
:1075A000012070BD0020FCE7064A0260FF21002296
:1075B000027141714282C172828281818273C28270
:1075C000C2617047C0D50D00704770477047704763
:1075D00070474171704781717047017170470000B9
:1075E00030B5034D056001714271837130BD00BF3C
:1075F00040D60D00704710B51021044604F0E6FC9B
:10760000204610BD0EB403B503AB002153F8042B84
:10761000019303F02BFE02B05DF804EB03B070475A
:1076200073B5044608462279A36832B1A3B90B4961
:1076300002B0BDE8704003F0E8BD094A267B094D61
:107640000949647B012E18BF2946CDE9001407497A
:10765000FFF7D8FF02B070BD054AEFE77DD60D00F9
:10766000ADD90D0079D60D0075D60D0093D60D005D
:107670006CD60D0010B50446FFF7B2FF054B236032
:10768000054BA3600123237300232361A3822046BB
:1076900010BD00BFCCD60D00B8D60D0013B50B4CF5
:1076A0002178BFF35B8F11F001010BD120460191CE
:1076B000FCF702FD019928B1054803F029FE204698
:1076C000FCF7FFFC024802B010BD00BFFCE2032043
:1076D00000E3032007B50191FFF7E0FF019903B034
:1076E0005DF804EB03F0C6BE08B5FFF7D7FFBDE8B1
:1076F000084003F0C5BE08B5FFF7D0FFBDE808405D
:1077000003F0BFBE10B50379042B20D0032B20D08B
:10771000022B20D0114A1249012B18BF0A46417989
:107720008379013918BF012133B1012B04D0022B19
:1077300002D0032B18BF00230024047302610175DB
:107740004375FFF7ABFFBDE8104003F0EBBD054A02
:10775000E5E7054AE3E7054AE1E700BF80841E004C
:1077600040420F000024F40000127A0000093D009E
:1077700008B5FFF793FFBDE8084003F0E4BD10B57E
:107780000446FFF78BFF04F10801BDE8104003F049
:1077900003BE08B5FFF782FFBDE8084003F0E2BD75
:1077A00008B5FFF77BFF08BD002302481A461946BB
:1077B000FFF760BF08E30320012A05D1007A0B78A8
:1077C0001B1A584258417047002070472DE9F04F6E
:1077D000264D012387B02B706B7000230F46A970D4
:1077E00000930322FF232946064600F0E7FB20B161
:1077F0000024204607B0BDE8F08FFA238DF817303B
:1078000001F06CF806F104098046AA4608F57A648E
:1078100001F064F8201A0028EADD81B2002248460F
:10782000FFF7BFFD0028F3D00023CDE90233CDE9F7
:1078300000330DF117025146304600F0C9FB0446F3
:107840000028E3D09DF81730012BDFD995F800B060
:10785000BBF1020FDAD14846FFF7E6FD5B46024670
:107860003946304600F021FBC3E700BF20E3032088
:10787000012A2DE9F34107460E4614463BD94D79BE
:10788000022D30D100F10408C97901914046FFF77B
:10789000CBFD083C2B4602460199384600F005FB1B
:1078A000E5B206F1080300242246954204F10104E2
:1078B000E4B204D913F8012B397A9142F4D104F1DE
:1078C00008010E44A54216D916F8011B0191404645
:1078D000FFF7AAFD01340246019902233846E4B2BB
:1078E00000F0E3FAEEE7032D05D1897902B0BDE897
:1078F000F04100F0C3BA02B0BDE8F08110B5044613
:1079000000F014FB014B2360204610BD00D70D0092
:107910002DE9F047F92A9DF8209006460F461446B7
:107920001D4625D8FF2B14D1DFF8488040460023A0
:107930002246394600F8013B04F0D4FF621CCDF822
:1079400020902B4641463046D2B2BDE8F04700F0C9
:1079500035BB194600F04EFA0028E5D133682946B8
:107960009B68304698470028DED10220BDE8F087AA
:107970000120FBE720E303202DE9F04F89B0984672
:10798000FA238DF81A300DF11F0303930DF11E0336
:10799000DFF880A102930DF11D03019307AB009363
:1079A000894617460DF11B030DF11A025146DDF809
:1079B00048B0054600F00CFB5646044620B90024AA
:1079C000204609B0BDE8F08F9DF81A3073B39AF8DD
:1079D00000205ABBB8F1000F03D09DF81B2088F897
:1079E0000020BBF1000F03D09DF81C208BF8002075
:1079F000139A1AB113999DF81D200A70149A1AB19E
:107A000014999DF81E200A70159A1AB115999DF8BF
:107A10001F200A703A783D49013BDBB29A4288BF89
:107A20003B703A78484604F05DFFC9E79DF81C209A
:107A3000FF2AC4D1012BC2D93278012ABFD12A7AB8
:107A40009DF81B40A242BAD0DF1E3149FFB200238D
:107A50005FFA83F8474506D911F8010B824203F11A
:107A60000103F5D1ABE705F104094846FFF7DCFC5B
:107A7000022302462146284600F017FA95F81731EE
:107A800093B1244CA31BDBB29F420CD9E178059142
:107A90004846FFF7C9FC059902460223284600F034
:107AA00004FA0134EEE7B8462B687278DB681A49AD
:107AB00028469847044660B10223002433709DF89D
:107AC0001A209DF81B3013490094284600F076FADE
:107AD00076E795F8163143457FF671AF95F8173183
:107AE000002B3FF46CAF9DF81A202B7A09493E44D5
:107AF0000132F3709DF81B300190D2B200932846FA
:107B0000FF238DF81A2000F023FA59E721E3032020
:107B100023E3032020E3032022E303202DE9F04F99
:107B200085B080461C46DDE91056129F8946924674
:107B300000F0D4FE08F1040B044400F0CFFE201A3C
:107B4000002816DD81B200225846FFF72AFC0028E3
:107B5000F3D00F9B0093CDE902670E9B019552462F
:107B600049464046FFF708FF0028E6D005B0BDE8CB
:107B7000F08F0020FAE70000F0B585B0054604302C
:107B80000E460392FFF750FC039A074631462846FB
:107B900000F047F90228044601D005281BD13178AE
:107BA000284600F06BF972782B7A9A4213D00B4C6E
:107BB0000323237033786370717802233A46284692
:107BC00000F073F9002300932146737802222846BF
:107BD00000F0F4F90446204605B0F0BD20E3032090
:107BE00010B50446FFF7D2FBC8230021E38103232D
:107BF000A160217323744FF4807204F1110004F02A
:107C000099FE204610BD1FB504460192FFF700FC07
:107C1000204600228021FFF7FFFB2122019B8DF8E7
:107C20000F200DF10F0101222046FFF7C2FB204675
:107C3000FFF7B3FB04B010BD2DE9F04F057B013514
:107C4000EDB287B0044689469246984605730027F0
:107C5000227C3B469A4207F10107FFB26BD32946CB
:107C60002046FFF7D5FB012F0DBFC0228022402107
:107C700000212046FFF7D0FB4346524649462046A6
:107C8000FFF797FB2046FFF788FBB8F1FF0F54D0B2
:107C9000012F82BFA3680133A36000F01FFE4FF4E1
:107CA000807183460020E68903F01CFB704348BFC7
:107CB000FF3006EB20261BFA86F600F00FFE301A86
:107CC0000028C5DD81B200222046FFF76AFB0028AC
:107CD000F3D00DF1170302930DF116030193002267
:107CE0000DF115030093114605AB2046FFF7A8FBE5
:107CF0000028E2D09DF814209DF9173042450ED19E
:107D000094F804C09DF815108C4508D1002B08DAB2
:107D10009DF81630AB42D0D107B0BDE8F08F002BF4
:107D2000CBDBA1189DF81630497C9942C5D120467D
:107D3000FFF769FFC1E70020EEE70120ECE72DE93E
:107D4000F04389B0CDE90421DDE91098129F044683
:107D50001E46FFF71EFBDDE9042120B90025284659
:107D600009B0BDE8F0830DF11F0302930DF11E036E
:107D700001930DF11D030093204607ABFFF760FB55
:107D800005460028EAD09DF91F30002BE6DB22795A
:107D90009DF81D309A4206D19DF81C209DF81E10BA
:107DA0002046FFF730FF9DF81C209DF81E3014443C
:107DB000617C9942D2D006B13270B9F1000F03D084
:107DC0009DF81D2089F80020B8F1000F01D088F837
:107DD000003017B19DF81F203A706374BFE77047F9
:107DE00010B504460430FFF705FB10B11E2384F8DC
:107DF000163110BD10B50246002392F818418C428E
:107E000008D192F81A412CB103EB430303F58C73AC
:107E1000184410BD01330A2B02F10302EDD10020FA
:107E2000F7E737B50B78FF2B05460C4606D0194609
:107E30000192FFF7DFFF58B14378019A2146281DD0
:107E4000FFF7FAFE002814BF0020052003B030BD64
:107E50000220FBE710B501EB41030446C1F1090222
:107E600003F58C7003F21B1102EB42022144204403
:107E700004F038FD002384F8353110BD38B50A46CA
:107E8000002300F58C7403EB4305D9B2655D954280
:107E900003D1FFF7DFFF012038BD01330A2BF2D1F8
:107EA0000020F9E70021FFF7D5BFF8B516461F46B9
:107EB00004460D46002300F58C7203EB4300115C71
:107EC000A94205D1204480F8196180F81A71F8BDE3
:107ED00001330A2BF1D1002304F58D7203EB43002B
:107EE000115C19B9204480F81851ECE701330A2BD2
:107EF000F4D12046FFF7D6FF204604F11E0390F888
:107F00001A212AB980F8185180F8196180F81A717D
:107F100003309842F3D1DAE700F11E03002280F823
:107F20001A2103309842FAD17047000010B5044678
:107F30000430FFF755FE054B23604FF48F73204646
:107F4000A4F81631FFF7E8FF204610BD18D70D0042
:107F50002DE9F3470446406801911F4603689DF8E8
:107F600028A09B699DF82C901646984706F10508B5
:107F700080451CD8104D019985F801A00023AB70F5
:107F800094F81531EB705A1C84F81521681D32469F
:107F90002F7085F8049004F0A5FC23685B685FFAF5
:107FA00088F22946204602B0BDE8F0471847012074
:107FB00002B0BDE8F08700BF1AE4032013B59DF8B6
:107FC00010400194047A0094FFF7C2FF02B010BD84
:107FD0002DE9F04F87B01F46FF238DF813300DF1C8
:107FE00017030293DFF8D0900DF1160301930DF102
:107FF0001503009304468846164605AB0DF113029F
:1080000049460430DDE910BAFFF799FE054608B984
:10801000002538E023689DF813201B684946204658
:10802000984799F80030227A9A4201D0FF2B2ED13E
:1080300017B1214B5B783B70BBF1000F03D01E4B97
:108040001B788BF80030BAF1000F03D01A4BDB78A5
:108050008AF80030129B1BB1174B129A1B791370D0
:10806000139B1BB1144B139A9B7813709DF813301C
:1080700032781249053BDBB29A4288BF33703278BE
:10808000404604F02FFC284607B0BDE8F08F99F871
:1080900002305A1C89F8022094F816219A42B7D966
:1080A00094F81731002BB3D023689DF813205B6838
:1080B000494620469847ABE71AE403201FE4032013
:1080C00010B50446006A0368DB68984794F82400FA
:1080D000FF2802D0012103F0ABFE23682046DB6FAE
:1080E0009847642000F054FF012010BD90F8240050
:1080F000002103F0AEBE90F82400012103F0A9BED8
:1081000070B504460D461646FFF74EFA034B236042
:10811000266284F82450204670BD00BF28D70D0089
:1081200038B50446006A03681B6A0D469847236801
:1081300020469B6F9847206A036805F07F011B6803
:108140009847206A036800211B6898472368054602
:10815000DB6F20469847206A03685B6A9847284689
:1081600038BD70B50446006A03681B6A16460D46A2
:108170009847236820469B6F9847206A036845F01C
:1081800080011B6898470546206A036831461B68D2
:108190009847012000F09AFB23682046DB6F984740
:1081A000206A03685B6A9847284670BDF8B50446A4
:1081B000006A1E4603681B6A0F46154698472368E7
:1081C00020469B6F9847206A036807F07F011B6871
:1081D00098472E440746B54207D0206A036800211D
:1081E0001B68984705F8010BF5E723682046DB6F0D
:1081F0009847206A03685B6A98473846F8BDF8B527
:108200000446006A1E4603681B6A0F4615469847D7
:10821000236820469B6F9847206A036847F08001D7
:108220001B6898472E440746B54206D0206A15F8C9
:10823000011B03681B689847F6E723682046DB6F3D
:108240009847206A03685B6A98473846F8BD006A19
:1082500003689B6A184701207047FB2070477047EE
:1082600010B50379052B044610D003680521D3F817
:1082700080309847072201212046FFF772FF8022B5
:1082800040212046FFF76DFF052323712379052B3D
:10829000FCD0207E10BD10B54FF49871044603F059
:1082A00095FE204610BD10B50379012B04460BD076
:1082B00003680121D3F8803098470022012120462D
:1082C000FFF74FFF01232371012010BDF8B50368AC
:1082D000DB6804460F46154698470646B0B187B19D
:1082E0007DB194F828302A78033B9342DEBF94F89E
:1082F0002830043B2B702A7804F12D01384604F015
:10830000F1FA002384F8283184F828303046F8BD8B
:1083100038B5044615461A46FFF7F2FE094B2360AE
:10832000FF22002384F82720012284F8283184F8D2
:108330002C3184F8265084F82B2184F825302046EF
:1083400038BD00BFC0D70D0090F82830032B1BD9D3
:1083500090F82930C37190F82A30037290F82B30CE
:10836000437290F82C308372837933B9C3794279A0
:108370009A4202D0C379FF2B06D1838A01339BB284
:108380008382012380F8283170470000000000003C
:1083900038B504462DED028B10EE100AB0EE408A7F
:1083A00003F088FF17A3D3E9002303F0DBFF17A333
:1083B000D3E9002304F000F904F0E6F906210546AC
:1083C000C0F307422046FFF7CCFEC5F30722072182
:1083D0002046FFF7C6FEEAB208212046FFF7C1FE9D
:1083E000DFED077AB4EEE78ABDEC028BF1EE10FA0E
:1083F000ACBF01230023012084F8293138BD00BF20
:1084000000C042440000000080842E4100000000B3
:1084100080844E4010B50379022B04460BD00368CC
:108420000221D3F880309847012211462046FFF7F9
:1084300098FE0223237110BD70B512210446FFF788
:108440006FFE1C2105462046FFF76AFEFF22064606
:1084500012212046FFF785FE2379042B07D115F062
:10846000A00F17D194F82B310BB1700612D52379D8
:10847000042B01D1690622D42379032B01D12A07C9
:1084800069D42379052B0ED16B070CD505F00105B6
:10849000257659E0638A01339BB26382002384F816
:1084A000283184F82830FF2212212046FFF759FE98
:1084B0002046FF22BDE870401221FFF752BE132173
:1084C0002046FFF72DFE102105462046FFF728FE27
:1084D0000D2102462046FFF744FE04F129022B46F7
:1084E00000212046FFF762FE192184F8285020461B
:1084F000FFF716FE40B20028B8BF0330801084F8A2
:108500002A011A212046FFF70BFE94F92A3100B206
:10851000002B2082A9BF238A228A1BB21B01B2BF73
:108520009B180F2293FBF2F31BB2238294F829319C
:1085300073B1238A9D3B1BB223822046FFF704FFC1
:1085400094F82831002BAED02046FFF763FFAAE74E
:10855000238AA43BEFE7E38A01339BB2E382F3E78C
:10856000024B186808B1FFF767BF70471CE503208E
:10857000024B586808B1FFF75FBF70471CE5032046
:10858000024B986808B1FFF757BF70471CE50320FE
:1085900010B50379042B044610D003680421D3F8E6
:1085A00080309847052201212046FFF7DAFD00229E
:1085B00040212046FFF7D5FD0423237110BD10B5DF
:1085C0000379032B044605D0FFF7E2FF94F8280156
:1085D000C0B210BD0020FCE710B50379032B0446A0
:1085E00010D003680321D3F880309847032201217B
:1085F0002046FFF7B6FD402211462046FFF7B1FDA9
:108600000323237110BDFB2AF8B504460F46154617
:1086100002D900263046F8BD03681B6A98472046F9
:10862000FFF7F8FE23682046DB6A984706460028D5
:10863000EFD000220D212046FFF793FDE27A0021C2
:108640002046FFF78EFD227B00212046FFF789FDA3
:10865000627B00212046FFF784FDA27B002120469B
:10866000FFF77FFD2B463A4600212046FFF7C7FD66
:108670002A1DD2B222212046FFF773FD2046FFF7C4
:10868000ABFFC7E738B505460C4680F8252072B128
:1086900081F3040242F07002D2B20921FFF761FDBA
:1086A00004224D212846BDE83840FFF75ABD142961
:1086B00010DC012910DD11290FDD07224D2128468C
:1086C000FFF74FFD033C64B2A21E62F07F02D2B2FC
:1086D0000921E7E71424F0E7022404224D2128466B
:1086E000FFF73FFDF0E738B50C4605460A781D2137
:1086F000FFF737FD62781E212846FFF732FDA2788A
:1087000028462621BDE83840FFF72BBD052913B5C3
:108710000FD8094B01EB41015C185A5AA378ADF808
:10872000042001A98DF80630FFF7DDFF012002B01B
:1087300010BD0020FBE700BFA8D70D0038B50A0A1E
:1087400005460C462021FFF70CFDE2B22846212108
:10875000BDE83840FFF705BD73B50446FFF7B0FC30
:10876000064618B90026304602B070BD94F826506F
:10877000FF2D52D029462046FFF769FD80220121B6
:108780002046FFF7EEFC0A2000F002FC0121204603
:10879000FFF7C6FC8028E5D194F82600FF281CD0FE
:1087A000002103F045FB94F82730FF2B07D1254A21
:1087B0001378032BD6D8591C117084F8273094F8FD
:1087C0002720214B43F8224052BB204900924FF012
:1087D000FF330122A8B201F095F900220E212046B4
:1087E000FFF7BFFC00220F212046FFF7BAFC20460E
:1087F000FFF710FE00212046FFF788FF08212046E2
:10880000FFF79CFF9FED120A2046FFF7C1FD0022F3
:108810000D212046FFF736FFA5E74FF0FF35ADE706
:10882000012A4FF0000304D100930A494FF0FF33AF
:10883000D0E7022A96D1009307494FF0FF33012277
:10884000C8E700BF19E503201CE5032061850D0082
:108850000000D94371850D0081850D0008B5024BDC
:108860001B685B6C019308BD7402030008B5024BE2
:108870001B685B6C019308BD4802030008B5024BFE
:108880001B689B6C019308BD4802030008B5024BAE
:108890001B68DB6C019308BD4802030008B5024B5E
:1088A0001B685B6D019308BD4802030008B5024BCD
:1088B0001B685B6E019308BD3402030008B5024BD0
:1088C0001B685B68019308BD1802030008B5024BE2
:1088D0001B68DB68019308BD1802030008B5024B52
:1088E0001B685B69019308BD1802030008B5024BC1
:1088F0001B689B6D019308BD1802030008B5024B6D
:108900001B685B6E019308BD1802030008B5024B9B
:108910001B689B6E019308BD1802030008B5024B4B
:108920001B685B68019308BD2C02030008B5024B6D
:108930001B689B68019308BD2C02030008B5024B1D
:108940001B68DB68019308BD2C02030008B5024BCD
:108950001B681B69019308BD2C02030008B5024B7C
:108960001B685B69019308BD2C02030008B5024B2C
:108970001B689B69019308BD2C02030008B5024BDC
:108980001B68DB69019308BD2C02030008B5024B8C
:108990001B681B6B019308BD2C02030008B5024B3A
:1089A0001B68DB68019308BD2802030008B5024B71
:1089B0001B689B69019308BD2802030008B5024BA0
:1089C0001B68DB69019308BD2802030008B5024B50
:1089D0001B681B6A019308BD2802030008B5024BFF
:1089E0001B685B6A019308BD2802030008B5024BAF
:1089F0001B689B6A019308BD2802030008B5024B5F
:108A00001B68DB6A019308BD2802030008B5024B0E
:108A10001B681B6B019308BD2802030008B5024BBD
:108A20001B685B6B019308BD2802030008B5024B6D
:108A30001B681B6C019308BD2802030008B5024B9C
:108A40001B689B6C019308BD2802030008B5024B0C
:108A50001B68DB6C019308BD2802030008B5024BBC
:108A60001B681B6D019308BD2802030008B5024B6B
:108A70001B685B69019308BD6402030008B5024BE3
:108A80001B689B68019308BD6802030008B5024B90
:108A90001B68DB68019308BD6802030008B5024B40
:108AA0001B681B68019308BD3002030008B5024B28
:108AB0001B685B68019308BD3002030008B5024BD8
:108AC0001B685B69019308BD3002030008B5024BC7
:108AD0001B68DB69019308BD3002030008B5024B37
:108AE0001B681B6A019308BD3002030008B5024BE6
:108AF0001B685B6A019308BD3002030008B5024B96
:108B00001B68DB6B019308BD3002030008B5024B04
:108B10001B681B6C019308BD3002030008B5024BB3
:108B20001B685B6C019308BD3002030008B5024B63
:108B30001B681B68019308BD3C02030008B5024B8B
:108B40001B689B68019308BD3C02030008B5024BFB
:108B50001B68DB68019308BD3C02030008B5024BAB
:108B60001B681B69019308BD3C02030008B5024B5A
:108B70001B685B69019308BD3C02030008B5024B0A
:108B80001B689B69019308BD3C02030008B5024BBA
:108B90001B68DB69019308BD3C02030008B5024B6A
:108BA0001B681B6A019308BD3C02030008B5024B19
:108BB0001B689B6A019308BD3C02030008B5024B89
:108BC0001B68DB6A019308BD3C02030008B5024B39
:108BD0001B681B68019308BD4C02030008B5024BDB
:108BE0001B685B68019308BD4C02030008B5024B8B
:108BF0001B689B68019308BD4C02030008B5024B3B
:108C00001B681B69019308BD4C02030008B5024BA9
:108C10001B685B69019308BD4C02030008B5024B59
:108C20001B689B69019308BD4C02030008B5024B09
:108C30001B68DB69019308BD4C02030008B5024BB9
:108C40001B681B6A019308BD4C02030008B5024B68
:108C50001B685B6B019308BD6002030008B5024B03
:108C60001B681B6D019308BD6002030008B5024B31
:108C70001B685B6D019308BD6002030008B5024BE1
:108C80001B68DB6E019308BD6002030008B5024B50
:108C90001B681B6F019308BD6002030008B5034BFE
:108CA0001B68D3F89830019308BD000060020300F0
:108CB00008B5024B1B681B68019308BD2002030026
:108CC00008B5024B1B685B68019308BD20020300D6
:108CD00008B5024B1B685B69019308BD20020300C5
:108CE00008B5024B1B681B6A019308BD20020300F4
:108CF00008B5024B1B68DB6A019308BD2002030024
:108D000008B5024B1B68DB6C019308BD2002030011
:108D100008B5024B1B685B6D019308BD2002030080
:108D200008B5024B1B689B6D019308BD2002030030
:108D300008B5024B1B68DB6D019308BD20020300E0
:108D400008B5034B1B68D3F88830019308BD0000B9
:108D50002002030008B5034B1B68D3F8943001933D
:108D600008BD00002002030008B5034B1B68D3F8C0
:108D7000A830019308BD00002002030008B5034B92
:108D80001B68D3F8AC30019308BD0000200203003B
:108D900008B5024B1B689B68019308BD44020300A1
:108DA00008B5024B1B685B69019308BD44020300D0
:108DB00008B5024B1B681B6A019308BD44020300FF
:108DC00008B5024B1B681B6B019308BD44020300EE
:108DD00008B5024B1B685B6B019308BD440203009E
:108DE00008B5024B1B68DB6B019308BD440203000E
:108DF00008B5024B1B685B68019308BD4002030085
:108E000008B5024B1B689B68019308BD4002030034
:108E100008B5024B1B68DB68019308BD40020300E4
:108E200008B5024B1B681B69019308BD4002030093
:108E300008B5024B1B685B69019308BD4002030043
:108E400008B5024B1B689B69019308BD40020300F3
:108E500008B5024B1B68DB69019308BD40020300A3
:108E600008B5024B1B681B6A019308BD4002030052
:108E700008B5024B1B681B6B019308BD4002030041
:108E800008B5024B1B685B6B019308BD40020300F1
:108E900008B5024B1B681B6C019308BD4002030020
:108EA00008B5024B1B685B6C019308BD40020300D0
:108EB00008B5024B1B681B68019308BD1C02030028
:108EC00008B5024B1B685B68019308BD1C020300D8
:108ED00008B5024B1B689B68019308BD1C02030088
:108EE00008B5024B1B681B69019308BD1C020300F7
:108EF00008B5024B1B685B69019308BD1C020300A7
:108F000008B5024B1B68DB69019308BD1C02030016
:108F100008B5024B1B685B6A019308BD1C02030085
:108F200008B5024B1B68DB6A019308BD1C020300F5
:108F300008B5024B1B681B6B019308BD1C020300A4
:108F400008B5024B1B685B6C019308BD1C02030053
:108F500008B5024B1B689B6C019308BD1C02030003
:108F600008B5024B1B68DB6C019308BD1C020300B3
:108F700008B5024B1B681B6D019308BD1C02030062
:108F800008B5024B1B685B6D019308BD1C02030012
:108F90000021FFF79DBE10B5836804460BB903F0AE
:108FA00021F8C3689847A3681BB1032221462046D5
:108FB000984720461021BDE8104003F007B80B6821
:108FC000036013B15A6801325A60704702480023A7
:108FD0000360FFF74BBC00BF28E503200022406878
:108FE0001146FFF71DBF002240681146FFF738BF4A
:108FF000002240681146FFF743BF40680022FFF798
:1090000037BF4068002281F00101FFF721BF002334
:1090100040681A461946FFF713BF002340681A46F6
:109020001946FFF705BF002240681146FFF7E8BE6A
:10903000406800220221FFF7EBBE002340681A4679
:10904000FFF7D6BEF0B51B4B036000250F4630334B
:109050001826C0E9025589B04360324629460446C5
:10906000103003F067FC78682A462946FFF7D8FEDF
:1090700018B9A060204609B0F0BD2946324602A8C2
:10908000CDE9005503F056FC02A96846ADF808602A
:10909000FFF7E4FB10B10123A360EBE7009B019A0B
:1090A000A360E2600BB90223A36002A9204600F08E
:1090B000C0F8DFE788D80D00084B10B528242246F9
:1090C0001846002103F036FC054B04804FF0FF32B8
:1090D000426004225A60034A1A6010BD34E503203E
:1090E0002CE503204CD80D007047007D7047037DB0
:1090F0004BB18369B3F1004F05D0006AB0F1004075
:1091000018BF012070470020704703681B6A18478A
:1091100010B52821044602F059FF204610BD00007A
:10912000037D7BB1C369002B0CDB07EE903A9FED0A
:10913000077AF8EEE77A87EE870ADFED057A20EE08
:10914000270A7047BFEE000A704700BF00FF7F4745
:109150000000C842037D63B18369B3F1004F08D0BA
:1091600007EE903A9FED047AF8EEE77A87EE870AE9
:1091700070479FED020A70470000C84200000000DF
:10918000037D7BB1436A002B0CDB07EE903A9FED29
:10919000077AF8EEE77A87EE870ADFED057A20EEA8
:1091A000270A7047BFEE000A704700BF00FF7F47E5
:1091B0000000C842037D63B1036AB3F1004F08D0D9
:1091C00007EE903A9FED047AF8EEE77A87EE870A89
:1091D00070479FED020A70470000C842000000007F
:1091E00070B50C1E06460ADA2D2102F012F8614213
:1091F00005460A22304602F01BF8284470BD21467D
:109200000025F6E770B50C46054681682046FFF755
:10921000E7FF2C210646204601F0FBFFE9680644E3
:109220002046FFF7DDFF304470BDA0F10400FFF7DA
:10923000E9BF30B50D4600F110040FCD0FC495E81D
:10924000030084E80300012030BD70470020704710
:1092500010B51021044602F0B9FE204610BD08B535
:10926000FFF7F6FF08BD10B58368044613B103226B
:1092700001469847204610BD30B500224FF69C7439
:10928000026084808D888C800C68858004600A6010
:1092900030BD10B504460068FFF712FE204610BD31
:1092A00038B5C468F4B12378022B03D104F10C0063
:1092B000FFF7EFFF656835B12846FFF7D4FF1021AF
:1092C000284602F083FEA56835B12846FFF7CBFF9C
:1092D0001021284602F07AFE20461421BDE83840CD
:1092E00002F074BE38BD73B50E46044656F8043B12
:1092F00000930D4601A83146FFF761FE019A009BDD
:109300006260236001A8002301930093FBF738FCFF
:109310003046FBF735FC2846082102F057FE204670
:1093200002B070BD13B50B460246D0E900016C4691
:1093300084E8030093E8030082E8030094E8030054
:1093400083E8030002B010BD826810B50AB902F0CC
:1093500049FEBDE81040C368184708B5006800F131
:109360001001FFF7F1FF08BD826810B50AB902F0DD
:1093700039FEBDE81040C368184708B5006800F121
:109380001001FFF7F1FF08BD38B500230446036064
:1093900010200D46FAF77FFE28B10123C0E9013302
:1093A000024B0360C5602060204638BDC4D80D0064
:1093B00038B5002383608B6804460D462BB102222A
:1093C0009847EB68E360AB68A360204638BD0000B7
:1093D000F0B589B004686846FFF74EFF4FF002030E
:1093E000D4E84F2F002A03D1C4E8413F0029F7D128
:1093F00025D104F10C0569462846FFF73DFFBFF370
:109400005B8F01236370002004F10803BFF35B8FBF
:1094100053E8006F43E80002002AF9D1BFF35B8FE5
:109420006EB1FFF76DFC78B129463046FFF78CFF2F
:109430003046FFF718FF1021304602F0C7FD68469E
:10944000FFF727FF09B0F0BD314602A8FFF7B0FFD4
:10945000E068B4F9105008B103F0F6FA0690102055
:10946000ADF81C50FAF717FE0546E8B100278760F3
:109470001820FAF710FE044688B10146876002A85A
:10948000FFF750FF049BA268A360059B049206A906
:10949000E268E36004F110000592FFF7EDFE084B6F
:1094A000EB60084B2C60AB6006A8FFF7F2FE02A849
:1094B000FFF7D9FE002229460348FFF729FCB7E74A
:1094C0005B930D00F1950D00978F0D002DE9F0478E
:1094D0008AB005469DF848900C4617469846FFF717
:1094E0005FFC07AE824638BB4FF62E73059005A988
:1094F0003046ADF81830FFF7BFFE1420FAF7CBFD69
:10950000044648B1022303700123C0E901AA437055
:1095100031460C30FFF7B0FE2846214640F8044B98
:10952000FFF732FF3046FFF7B4FE05A8FFF7B1FEA4
:1095300028460AB0BDE8F0870C234FF0000A14203B
:10954000CDE908AA0793FAF7A6FD014628B1C0E9BC
:1095500001AA80F800A080F801A004A80391FFF7F9
:1095600013FF224B08930820FAF795FD824628B195
:10957000039B40F8043B04A9FFF721FD00965FFA26
:1095800089F3424639462046CDF824A0FFF710FC67
:10959000B8B9039B5B7803F0FF0293B94FF69C7355
:1095A00005A903A80592ADF81830FFF711FF05A82B
:1095B000FFF76FFE05A80999FFF795FE06A8FBF7D0
:1095C000DFFA039B059304A906A8FFF7F8FC059BA7
:1095D000069A2B606A60002306A806930593FBF7A2
:1095E000CFFA04A8FBF7CCFAA2E700BFB5960D00AE
:1095F000022AF8B5054607D0032A18D0012A01D15E
:109600000B6803600020F8BD18200E68FAF743FDD0
:10961000044650B13146FFF7CBFE3069B6F91470FD
:1096200008B103F011FA2061A7822C60EAE7046810
:10963000002CE7D004F11000FFF72BFE2046FFF7C7
:1096400012FE1821204602F0C1FCDBE738B50023EA
:1096500083608B6804460D462BB102229847EB6865
:10966000E360AB68A360204638BD022A70B50446AB
:1096700007D0032A12D0012A01D10B680360002011
:1096800070BD14200E68FAF706FD054620B131467C
:10969000FFF7DCFF337C2B742560F0E70468002CB7
:1096A000EDD02046FFF7DFFD1421204602F08EFCAE
:1096B000E5E70000F0B589B004460D4601A8114663
:1096C000FFF711FEA4B124B21DB1284603F0BCF986
:1096D000054601A803A90395ADF81040FFF778FEF1
:1096E00003A8FFF7D6FD02A8FBF74AFA09B0F0BDC0
:1096F000019D0123D5E84F2F002A03D1C5E8413F42
:109700000029F7D1EFD12B73BFF35B8F6B702B1D4B
:10971000BFF35B8F53E8006F43E80042002AF9D1A2
:10972000BFF35B8F002EDED02046FFF7E9FA074635
:1097300060B105F10C013046FFF716FE3046FFF729
:1097400092FD1021304602F041FCCCE7314603A8DF
:10975000FFF77CFF2B7B8DF81C301020FAF79BFC69
:109760000546D0B187601420FAF795FC044678B11D
:109770008760014603A8FFF7D5FD059BA268A3609B
:10978000069B0592E268E3609DF81C300692237404
:10979000064BEB60064B2C60AB6003A8FFF763FD44
:1097A000002229460348FFF7B3FAC7E77B930D0071
:1097B0006B960D00978F0D00002240681146FFF751
:1097C0004FBB002240681146FFF75ABB4068002299
:1097D000FFF74EBB4068002281F00101FFF738BB64
:1097E000002340681A461946FFF72ABB0023406849
:1097F0001A461946FFF71CBB002240681146FFF7C6
:109800000FBB002240681146FFF7FABA40680022F9
:109810000221FFF7FDBA002340681A46FFF7E8BAB5
:10982000024B03225A60024A1A6070475CE503202B
:10983000E0D80D00006800F051B910B50446016091
:1098400002710AB1FFF7F6FF204610BD13B50446BA
:10985000019102F097FB019A01462046FFF7EDFFC8
:10986000204602B010BD006800F041B92DE9FF416B
:1098700004460D4617461E46FFF7DCFF36238DF8DB
:1098800000300023206801934FF001080A23694645
:1098900003938DF8088000F005F9206803682946D5
:1098A0009B6898472068414600F014F9054640B18E
:1098B0006FF09F052046FFF7D6FF284604B0BDE8AD
:1098C000F081022320680193694600F0BBF802286A
:1098D000EED1206803685B69984738702068036898
:1098E0005B6998473070E5E707B500238DF80630CF
:1098F0008DF807300DF106020DF107030421FFF783
:10990000B5FFB0B99DF8070002F0C2FC0A4B002277
:1099100002F028FD02F058FF9DF8063000EE103AE4
:1099200007EE900AB8EEC00A37EE800A03B05DF881
:1099300004FBBFEE000AF9E70000703F2DE9FF418C
:10994000164604461D460F46FFF774FF36238DF872
:1099500000300023206801934FF001080A23694674
:1099600003938DF8088000F09DF82068036839465D
:109970009B6898472068036831469B689847206831
:10998000036829469B6898474146206800F0A2F882
:10999000002820460CBF00256FF09F05FFF763FFEE
:1099A000284604B0BDE8F08108B540220023062116
:1099B000FFF7C4FF00EAE07008BD7047F8B506463F
:1099C00015460C468F18BC4206D0336814F8011BAC
:1099D0009B6830469847F6E72846F8BD007C002291
:1099E000FEF7F4BF007C0021FEF7F8BF007C0021E9
:1099F000FEF7FCBF007C0021FFF700B8007C0021CF
:109A0000FFF704B810B51421044602F0DFFA20462F
:109A100010BD000010B54FF47A73044608460021CB
:109A2000C4E90113034B236020741146FEF7FEFFC7
:109A3000204610BD1CD90D000023007C1A46194693
:109A4000FEF7ACBF7FB500221423CDE90122ADF8AB
:109A500004300B788DF808304B680393CB6804937F
:109A6000007C0B7A059301A9FEF7F8FF07B05DF8BB
:109A700004FB1FB5003B8DF800104FF0640103910B
:109A800018BF0123694601928DF80830FFF7DAFF0D
:109A900005B05DF804FB007C0022FEF787BFC9B269
:109AA000FFF7F9BF7FB50023CDE901334A68039280
:109AB0001423CA68ADF804300B7804920A7A059230
:109AC000007C8DF8083001AA1946FEF76FFF07B039
:109AD0005DF804FB007C0022FEF770BF08B5002192
