:02000002D0002C
:1040000000400D0018C60D00000006000D0005015F
:084010000401FD08000000009E
:04401800B8B50D002A
:1040200009480A49884208B505D0094A824202D0A7
:10403000121A07F0C7F80748074A0021121A07F0BA
:10404000E9F8014808BD00BFC8DC032024C40D0006
:1040500090DE032090DE0320EDE7032070B5074ECD
:10406000074C06F0D3FAA41BA4080025A54200D1F2
:1040700070BD56F8043B98470135F7E7E4C30D00DF
:1040800020C40D0000F086B808B500F063F9BDE863
:10409000084006F073BA03F09BBB03F099BB03F032
:1040A0009FBB000008B5034A00210C2003F05EFA14
:1040B000FEE700BFED710D000078B0FA80F0400916
:1040C0007047012303707047014B01221A7070473B
:1040D000F3DE032010B5034B0360044601F0ACFC93
:1040E000204610BD9CB60D0010B50446FFF7F2FF48
:1040F0002046102106F0E0FB204610BDF8B5037DF8
:1041000005460F4616468BB10368DB6883B19A8873
:10411000012A06D09B68F9E79B684BB19A88012A6F
:10412000FAD12BB19A89BA42F6D19E732846F8BDCE
:104130000A49102006F0C2FB044668B11022002193
:1041400007F068F8064B23600123A3802B69A36066
:10415000A781A6732C61E9E72875E7E788C20D00FF
:10416000100003000EB410B58DB00FAA016852F80C
:10417000044B039200232020CDE90403CDE9004243
:104180001E2004AA03F002FA0DB0BDE8104003B0EF
:104190007047000030B5374C89B041F2883003F0E9
:1041A0007FFB00F049FB00F05FFB00F0C5FD08233A
:1041B00001212046638101F0CBFA0021204601F065
:1041C000A9F87C21204601F021F800F005FA06F05C
:1041D0006FF810B9284B01221A7006F069F8274DC4
:1041E000274A04A9002818BF15460022032004927C
:1041F00003F0E4F9002839D1049C0CB1236923B9F8
:10420000204A00210A2003F0B1F90023ADF816304E
:104210000C23ADF814306B4406930423079305AACE
:10422000236901212046984700BBBDF80C3007EEFA
:10423000903AFBEECC7A17EE900A06F0ABFC2A46D9
:10424000CDE9000110491148FFF78CFF10481149D2
:104250000088002200924FF0FF3304F0DBF80E4B91
:104260001A780AB904221A7009B030BDFFEE007A3C
:10427000E1E700BFA0DE0320F1DE0320CCB50D0096
:10428000CEB50D00ED710D00D4B50D0074E5032021
:1042900040B80D00C9400D00F2DE0320F0B5254DF9
:1042A000254C264B2A7821788FB003EB021200921E
:1042B00003EB0113224A282104A803F0A9FA2B7862
:1042C000237003F0FDF900282ED01E4C02F096FF5B
:1042D000D4E90032C61A62EB42074FF47A72002327
:1042E000B242BB4120DA02F089FF00236360164B23
:1042F00020601B788DF8003014493C2304AA02A8E2
:1043000003F06CFD039C7CB16368013B63605BB9A7
:10431000236820469B689847A368013BA3601BB9AC
:1043200023682046DB689847094804A9FFF71AFF6D
:104330000FB0F0BDF2DE0320F0DE0320C8DC032066
:1043400009B60D0098DE032090DE032017B60D009D
:1043500074E503202DE9F0416A4D2B78032B88B0DA
:104360001ED0042B00F0A180022B40F08480664B0D
:104370001B78022B01D0FFF791FF05F0B6FF634ACF
:10438000D2E90032C61A624B4FEAE07161EB0207D4
:104390005A8B0023B242BB416DDA04232B706AE0D2
:1043A000594B1B78032B01D0FFF778FF00215948A8
:1043B00000F02CFF564B5E8B544B1C6805F095FFAC
:1043C0002644341A224654495448FFF7CBFE544B36
:1043D0001A7D0AB102221A72524B51481F880022DC
:1043E0003946FFF78BFE037D0646F3B103684FF4B1
:1043F0007A78DB6808FB04F823B19A88042A7ED017
:104400009B68F9E74849102006F058FA044600284E
:1044100073D01022002106F0FDFE444B23600423DC
:10442000A3803369C4E9023834613D4901A805F02D
:10443000C3FD38484FF0FF3100F0E8FE019B002B30
:1044400030D09A88012A2DD19B899F420DD13849BD
:1044500004A805F0EAFC04A800F07EFA04A805F020
:1044600099FC34492D48FFF77DFE019802232B70FB
:1044700008B103F0B5F9274801F04AFA00F0E4FB6F
:104480002D4B1A785AB100221A70214B23481A7208
:104490003C2159832949FFF765FE02232B7008B0A0
:1044A000BDE8F0814FF6FF73CFE7174B224C1B7826
:1044B000042B0ED0FFF7F2FE00F04EFD05F015FFC5
:1044C000124BC117C3E9000100F0B2F808B901238B
:1044D000237000F01FF968B1194B00229A830C4B2E
:1044E0001A7A2AB95A8BB2F5437F24BF01221A7275
:1044F000022353E701232370BDE7307595E7C3F826
:104500000C8092E7F2DE0320F0DE0320E8DE0320D9
:10451000C8E20320A0DE032028B60D0074E50320C6
:10452000C0DE032040B80D0088C20D00100003005B
:104530003DB60D003FB60D00F1DE032069B60D005B
:10454000A8E2032038B51D4B01251D7006F090F838
:1045500000231A460D2106F093F806F089F800238F
:104560001A46194606F094F8154A1346111D43F8E9
:10457000091B0024A2F809409C70124B157553606A
:10458000C2E90344147206F04FF90F4D01464FF48F
:1045900000522346284601F05BFA0C4B2B6006F0D4
:1045A00043F9692201460A4800F040FD05F09DFEEE
:1045B000084BC117C3E9000138BD00BF90DE0320DE
:1045C000C0DE032010000300D8DE03209CB60D00DF
:1045D000A0DE0320E8DE032010B50E4802F092F8BA
:1045E000044628B90C490D48FFF7BCFD204610BD14
:1045F0009FED0B0A0B4802F05BFB0A4800221721D3
:1046000002F0D0FC084A0949138804485288FFF791
:10461000A9FDEBE724E10320B0B60D0074E503200B
:1046200000C06444F0DF0320C8E20320BCB60D00E4
:1046300073B52C492C482D4CFFF794FD2C4B1E884C
:104640000121304606F07BF82A4A5388637019121C
:1046500013882170E3701912274BA170998BA171F7
:104660000812D98B60712172081219786172596829
:104670001B7AE0710125E3722048D368A17223738D
:104680002571657301F0B9FB0012A0731B4801F09E
:10469000B4FB1B4BE0731A7813482274511919703C
:1046A0001849FFF75FFD03230093214616480023B6
:1046B000112201F0BFFD044650B914490A48FFF722
:1046C00051FD3046214606F03AF8284602B070BD4A
:1046D0000F490548FFF746FD3046002106F02FF848
:1046E0000020F3E739B70D0074E50320F5DE032061
:1046F0003EB80D00C8E20320A8E20320F0DF03204B
:10470000F4DE032058B70D0024E103206BB70D0041
:1047100094B70D002DE9F0472C4F2D4DDFF8D4A0B4
:10472000DFF8D4902B488CB00024CDE9024A0494E1
:104730000194CDF8009040F6B8333A46294601F08E
:104740007FFE064600283BD03B78DFF8B08099F822
:104750000020EC5420489AF8003088F80030079286
:1047600001F04BFB3978019103461C4998F8000091
:10477000079A1B4F01EB001100911A481A49FFF7E5
:10478000F1FCEA792B7A43EA0223D5F801207B83F6
:1047900012BA10462146079205F091FC079A23466B
:1047A00008A805F09FFC0F487B8B089A0F49FFF77C
:1047B000D9FC08A805F0EEFA30460CB0BDE8F08749
:1047C0000B490848FFF7CEFCF6E700BF58DD032091
:1047D000F5DE032024E10320F0DF032059DD032070
:1047E000C8E2032074E50320FAB60D00B7B70D0048
:1047F000E7B70D005CE2032020E1032021E1032064
:1048000010B5084A084C094912780978084B204627
:1048100002F010FA21460748BDE810400A2201F0D4
:10482000FFBC00BF44B80D00F0DF032042B80D000C
:104830000CE3032024E1032008B509490948FFF7E8
:1048400091FC0221042005F069FF0021082005F0F9
:1048500065FF0121072005F061FF012008BD00BFB1
:104860000BB80D0074E5032010B51849184890B036
:104870002024FFF777FC22460021684606F0CAFC98
:10488000224600210DEB04008DF8054006F0C2FC25
:1048900000210DEB04008DF8254002F0F5FE41F2F9
:1048A000D833ADF806300B4B029341F27003ADF8EC
:1048B0000C30009B002143F400736846009302F023
:1048C000E3FE003818BF012010B010BD24B80D0061
:1048D00074E50320840384037047006A0368DB687F
:1048E000184700000A4B10B50446036004F054F961
:1048F000214604F016FB05F0F9FD05F0EBFD20461E
:10490000044B40F8043B04F0F9F9204610BD00BF09
:10491000BCB80D00A4B80D0010B50446FFF7E2FFC7
:104920002046242105F0C8FF204610BD38B5046894
:1049300005467CB16368013B63605BB92368204630
:104940009B689847A368013BA3601BB92368204676
:10495000DB689847284638BD30B5224995B00446F3
:1049600005F0B9FA38B120461E491F4C05F0B3FADC
:1049700048B9207233E01D49204605F0ACFA002802
:10498000F1D115B030BDA38B01250B2B25721BD99E
:10499000174B184A402104A802F03AFF164804A910
:1049A000FFF7E0FB02F08CFE60B1144B14491B785A
:1049B0008DF8003002A83C2304AA03F00FFA03A8E4
:1049C000FFF7B4FF0120DCE70E490B48FFF7CAFBF5
:1049D0000C23A3830C4B1D70237A002BD8D10B4BD7
:1049E000D7E700BF14BA0D00C8E203203DB60D00A2
:1049F00048B80D007CB80D0074E503206CE203207C
:104A000096B80D004FB80D006DE203204CB80D00B4
:104A100070B5D0E900531426044606FB0356AE4297
:104A200004D0284605F0B6F91435F8E7206802F0FE
:104A3000D7FE204670BD8842F8B504460D4616469E
:104A400016D9904215D2A2F11406751AA1F11407D5
:104A50002C44B7421CD02CB13146204605F016FA42
:104A6000337C2374304605F095F9143E143CF0E78E
:104A70000ED0B5420CD02CB12946204605F006FADE
:104A80002B7C2374284605F085F914351434F0E79F
:104A9000F8BD2DE9F0410023C0E9003383604F6881
:104AA0009F4204460E4623DD4FF0140808FB07F032
:104AB00002F08EFE0546D8B1D4E9001208FB0212BE
:104AC000FFF7B9FF206802F08BFE2560A760D6E9EA
:104AD000007308FB0378B84508D03946284605F02E
:104AE000EFF93B7C2B7414371435F4E7736863607B
:104AF0002046BDE8F081000070B5284B284A01250A
:104B00001D70284B00248CB09A601C609C809C71A6
:104B1000022002F065FD2146284602F079FD294673
:104B2000042002F053FBCDE90044029405F0DEFCC2
:104B30001D4C0546694603A8FFF7ABFF264603A9AF
:104B400006A8FFF7A6FF194B46F8043B06A909A8DB
:104B5000FFF79FFF09AA1E21304604F03CFB09A87D
:104B6000FFF756FF06A8FFF753FF114B236025629E
:104B700003A8FFF74DFF0F4B236005F0B7FC4FF480
:104B8000165105F0A3FC04F007F8214604F0B5FA2D
:104B90006846FFF73DFF0CB070BD00BF6CE203201C
:104BA0000000FFFF60E2032070E20320A4B80D00C4
:104BB00034C10D00BCB80D001FB502F081FDD8B1A5
:104BC000174B184A1B788DF8003017493C2302A870
:104BD00003F004F9039C7CB16368013B63605BB93B
:104BE000236820469B689847A368013BA3601BB9D4
:104BF00023682046DB6898470C490D48FFF7B2FA56
:104C00000C4B0D4A5A6001221A723C210022C3E962
:104C1000032299839A771A6283F8242004B010BD86
:104C200094E20320CCB80D0096B80D00E4B80D0056
:104C300074E50320C8E2032001010001014B0122B9
:104C40001A70704794E2032070B5324C05F04DFBAA
:104C5000D4E90023C117994208BF904258D005F00B
:104C600044FB2D4D2D4EC117C4E90001D5E9043494
:104C70001C442B6A1C442B881C446B881C442B79D5
:104C80001C446B791C44AB791C44EB791C442B7A93
:104C90001C44EB681C442B8B1C44AB8B1C446B8B5F
:104CA0001C44AB7F1C4495F824301C4433689C4260
:104CB0002CD01B491B48FFF755FA1B4828232A46CE
:104CC000012100F05CFF34600120184D184E6B6824
:104CD0002C781C442B7A1C442B691C442B8B1C44C1
:104CE000AB7E1C44AB8B1C44EB8B1C4433689C4256
:104CF0000BD010490B48FFF735FA0B4820232A4602
:104D0000502100F03CFF3460012070BD0020DCE742
:104D10000020FAE798E20320C8E20320A4E203207F
:104D2000FCB80D0074E50320D8DE0320A8E20320C0
:104D3000A0E2032024B90D0013B521492148FFF753
:104D400011FA214800F08EFE1F4801230DF10702E1
:104D5000002100F0C9FE9DF80740012C1CD01B4922
:104D60001848FFF7FFF9184800F086FE184A164861
:104D70000423002100F003FF134801230DF1070273
:104D8000002100F0B1FE9DF80740012C15D1FFF77E
:104D900013FF204602B010BD0E490A48FFF7E2F9A2
:104DA00021460D4A0848282300F09EFE0B4A06487B
:104DB0002023502100F098FEEBE70020EAE700BF37
:104DC0004BB90D0074E50320D8DE032069B90D004E
:104DD000CCB90D00A7B90D00C8E20320A8E203205A
:104DE00007EE900A9FED097AF8EEE77A67EE877A88
:104DF0009FED077A87EE870ADFED067A70EE677A15
:104E0000B2EE040A87EE800A704700BF00404E45AC
:104E100000F07F450000FA4310B586B0002202A9D9
:104E20000720029202F0CAFBB8B9029C0CB12369B8
:104E300023B9194A00210A2002F098FB0023ADF89B
:104E40000E300C23ADF80C3001AB04930423059312
:104E500003AA2369012120469847104A104C127A70
:104E60000028A8BF0198207232B10E4803F024FA3E
:104E70004FF4FA7002F014FD0A4803F0BDF9FDEE9C
:104E8000C07A17EE900A3C28D4BF00200120C4ED60
:104E9000017A06B010BD00BFED710D00C8E203201D
:104EA000A8E20320F0E2032037B50C4D012101A850
:104EB00004F063FD2B78252B01A84FF0010409D9DC
:104EC00004F0EEFD2C72002401A804F065FD2046DC
:104ED00003B030BD04F0CDFDF6E700BFA8E203202B
:104EE00030B5194D0FCD99B004AC0FC40FCD0FC420
:104EF00095E8030084E8030014490EA802F02AFD97
:104F00000EA802F07AFD04460EA802F091FD0EA84C
:104F100010EE105A02F0BCFD18AB10EE100A03EBB5
:104F2000840405F037FECDE90201284605F032FE83
:104F3000CDE90001064A54F8503C0648402102F0F1
:104F400067FC19B030BD00BF84BA0D0030E5032006
:104F500049BA0D00D9DD0320104B10B51888104C4C
:104F600005F019FCFFF73CFFFDEEC07A0D4A17EE85
:104F7000903A102113702046DBB20B4A02F048FC35
:104F80000A490B482246FFF7EDF8FFF745FFFFF708
:104F90008BFFFFF7A5FF012010BD00BF46B80D0035
:104FA000C9DD0320A8E2032062BA0D0067BA0D0034
:104FB00074E503200148002103F0D0B8F0E203209B
:104FC000704710B52021044605F076FC204610BD40
:104FD0000EB410B58DB00FAA016852F8044B0392BD
:104FE00000232020CDE90403CDE90042012004AADA
:104FF00002F0CCFA0DB0BDE8104003B070470EB41B
:1050000010B58DB00FAA016852F8044B039200232B
:105010002020CDE90403CDE90042322004AA02F0A9
:10502000B5FA0DB0BDE8104003B0704710B502727C
:10503000FF2242810022C0E9032242610276C2615E
:10504000024A034C1060C0E9004110BDFCE203209D
:10505000B0BC0D002DE9F8439DF820800446894638
:1050600016461F46B8F1000F02D0406803F0BEF9A3
:10507000217A606803F097F96068036849469B6885
:1050800098476068002103F0ADF9054600BB012395
:10509000217A60683A4603F074F98742034609D1E1
:1050A0003744BE421CD0606803685B69984706F8C5
:1050B000010BF6E70B490C484A46FFF7A0FFB8F191
:1050C000000F02D0606803F09AF92846BDE8F88323
:1050D0000346064904484A46FFF791FF0025EEE7DC
:1050E0000125ECE7ACBA0D00F8E20320D1BA0D00BF
:1050F00007B500930123FFF7ADFF03B05DF804FB94
:1051000073B54389FF2B044610D0194E194D02F098
:1051100075F8B0F57A7F09D2608905F029FB01287E
:1051200004D031462846FFF71DF8F0E701230DF1C2
:10513000070228212046FFF7DBFF30B90D480E4952
:10514000FFF710F8002002B070BD9DF80730182B53
:10515000F4D101230DF1070229212046FFF7C8FFF2
:105160000028EBD09DF80730052BE7D1EBE700BF17
:10517000F5BA0D00F8E203200ABB0D002DE9F0415D
:105180009DF8188004460F4615461E46B8F1000FDC
:1051900002D0406803F02AF9217A606803F003F92D
:1051A0006068036839469B6898472E44B54260683A
:1051B00005D0036815F8011B9B689847F6E70121A5
:1051C00003F010F9034670B1084909483A46FFF761
:1051D00016FF0025B8F1000F02D0606803F00FF948
:1051E0002846BDE8F0810125F4E700BF17BB0D009C
:1051F000F8E203201FB58DF80F2000930DF10F0288
:105200000123FFF7BBFF05B05DF804FBF8B50A46C4
:105210000C4605461A491B48FEF7A4FF002CB8BFF0
:10522000EC687CB9012322461B212846FFF7E2FFE8
:105230001549024606461348FFF7CAFEEC606C614A
:105240003046F8BD032C19DDA7101F2FA8BF1F275C
:10525000BA0062F07C020123D2B21B212846FFF77C
:10526000C9FF3A460346094906460648FFF7B0FE1D
:105270004FF4FA635F43EC606F61E1E70127E7E712
:105280003CBB0D00F8E2032046BB0D0062BB0D00E5
:105290000B4607490246086848B1002B08BFB2F523
:1052A000006F04D1C36813B10021FFF7AFBF70478F
:1052B000FCE203202DE9FF419DF8288005461646B3
:1052C0001F46B8F1000F04D04068019103F08EF83A
:1052D0000199019100230DF10F022846FFF708FF05
:1052E000044660B19DF80F3003EA06023A43934248
:1052F00005D0019900232846FFF77CFF0446B8F14A
:10530000000F02D0686803F07AF8204604B0BDE8C8
:10531000F081000037B504460A463F480D463F4934
:10532000FFF756FE606803F061F800231A460F216C
:105330002046FFF75FFF0023132210212046FFF7CE
:1053400059FF00233C2211212046FFF753FF002381
:10535000E02212212046FFF74DFF002326221321D1
:105360002046FFF747FF00231A4617212046FFF784
:1053700041FF15F0010348D000230093E3222323CB
:1053800018212046FFF796FF00231A4619212046D0
:10539000FFF730FF00231A461A212046FFF72AFFA5
:1053A00000231A461B212046FFF724FF15F0020FA9
:1053B0004FF000030CBF1A4688221C212046FFF73D
:1053C00019FF00231A4620212046FFF713FF002370
:1053D000F02221212046FFF70DFF00231A46262147
:1053E0002046FFF707FF0023802227212046FFF7F2
:1053F00001FF00231A4630212046FFF7FBFE6068BC
:1054000002F0FDFF012003B030BD23221821204609
:10541000FFF7F0FEB8E700BFF8E2032086BB0D00FF
:1054200013B514460DF10702FFF762FE28B19DF88F
:1054300007301C420CBF0120002002B010BD13B584
:1054400014460DF10702FFF753FE28B19DF807300F
:105450001C4214BF0120002002B010BD07B5D2438A
:105460000093D2B20023FFF725FF03B05DF804FBE1
:1054700037B501230DF107020F210446FFF738FE6F
:10548000054638B91E491F48AD22FFF7B8FD28462A
:1054900003B030BD9DF8073013F0200F4FF001032B
:1054A0000BD02022E3610F212046FFF7D7FF164AD9
:1054B00016491448FEF756FEE9E708221721204650
:1054C000FFF7BDFF18B10223114AE361F0E79DF831
:1054D00007301A0709D50323E361082201230F21AE
:1054E0002046FFF7BBFF0B4AE2E75B07CFD504225C
:1054F000E26101230F212046FFF7B0FF064AD7E7FC
:10550000CABB0D00F8E203209BBB0D00E9BB0D00F8
:10551000A4BB0D00B4BB0D00C4BB0D0007B50093C8
:105520001346FF22FFF7C6FE03B05DF804FB2DE92A
:10553000F3479DF828A005460C4691461F46BAF150
:10554000000F02D0406802F051FF07B3202F3E4603
:1055500028BF20267F2C26D83319802B01D9C4F1EF
:105560008006012304223F212846FFF777FF00230E
:1055700064F07F0100934A463346C9B22846FFF7DC
:1055800069FD804628B13444BF1BB144DDE74FF0CC
:105590000108BAF1000F02D0686802F030FF4046FF
:1055A00002B0BDE8F087012304223F212846FFF71F
:1055B000B5FFDCE72DE9F3479DF828A005460C462A
:1055C00091461F46BAF1000F02D0406802F00EFF6C
:1055D00007B31F2F3E4628BF1F267F2C26D833191E
:1055E000802B01D9C4F18006012304223F212846E3
:1055F000FFF734FF002364F07F0100934A463346EF
:10560000C9B22846FFF7BAFD804628B13444BF1B13
:10561000B144DDE74FF00108BAF1000F02D068682D
:1056200002F0EDFE404602B0BDE8F08701230422FF
:105630003F212846FFF772FFDCE7000030B585B058
:105640000D68D1E9043203954D6802958D68019586
:10565000C96800910133044902F26C72044604F0F7
:105660004DFC204605B030BDFABB0D0003110A22E7
:1056700000F00F0002FB0300704738B504460078C5
:105680001546FFF7F3FF08606078FFF7EFFF48600B
:10569000A078FFF7EBFF8860E078FFF7E7FFC860CE
:1056A0002079FFF7E3FF013808612DB9651D2878DF
:1056B000FFF7DCFF886138BD6079FFF7D7FF643002
:1056C000A51D4861F3E7000070B5012388B00D46C1
:1056D0001A4610210446FFF7A3FEF0B10823012665
:1056E000204600960DEB03020021FFF7B3FC0446B1
:1056F00098B1324629460DF10900FFF7BEFF04A814
:10570000FFF79CFF0848049A0849FEF72BFD04A800
:1057100004F040FB204608B070BD2422002128463A
:1057200005F078FD0024F5E7F8E2032018BC0D0031
:1057300030B58BB00D4601A9FFF7C6FF044620B176
:1057400001A802F0A5F8C5E9000120460BB030BD64
:1057500010B5044688B011B1406802F0F5FD20464E
:10576000FFF7CEFC70B32046FFF782FE01231A46F6
:1057700010212046FFF754FED8B104F099FDC0B9BE
:1057800002A92046FFF7D4FFDDE9020104F097FCEF
:105790000F4B10491B68009304A8DDE9022304F0B5
:1057A00045FD0D48049A0D49FEF7DCFC04A804F001
:1057B000F1FA0B4A002300214FF4006001F020FFB2
:1057C00008B010BD07490448FFF719FCF1E700BF16
:1057D00024DE0320C8E50320F8E2032026BC0D00E8
:1057E00091520D0043BC0D000A2290FBF2F302FB24
:1057F000130093FBF2F102FB113140EA0110C0B239
:10580000704770B5054600680C461646FFF7ECFF7A
:1058100020706868FFF7E8FF6070A868FFF7E4FF92
:10582000A070E868FFF7E0FFE07028690130FFF73B
:10583000DBFF20712EB9661DA869FFF7D5FF307018
:1058400070BD6A69642392FBF3F003FB1020FFF73D
:10585000CBFFA61D6071EFE7F0B587B0054602A843
:1058600016460C46FFF7EAFE1E48029A1E49FEF74E
:1058700079FC02A804F08EFA16B1686802F0B6FD51
:10588000204601220DF1090100278DF80870FFF76D
:10589000B8FF01231A4610212846FFF73FFE0446B1
:1058A000E8B1082300970DEB030239462846FFF7BD
:1058B00065FC044660B101231A4610212846FFF713
:1058C000CDFD16B1686802F09AFD204607B0F0BD24
:1058D0004FF48D7205490348FFF791FBF1E74FF450
:1058E0008F72F7E7F8E203205BBC0D0069BC0D0086
:1058F00013B504466846CDE9002305F051FC9DF838
:10590000102001462046FFF7A7FF02B010BD00009F
:10591000F0B5057E89B0044675BB04F0C9FC58B3E8
:105920000026002704A92846CDE9046701F0E0FE1F
:1059300010B30125257604F0D8FC00950246C31764
:105940002046CDE90223FFF7D3FF02A92046CDE987
:105950000267FFF7EDFE124B12491B68009304A883
:10596000DDE9022304F062FC0F48049A0F49FEF7B8
:10597000F9FB04A804F00EFA636973B101F03EFC70
:105980002369C01A6369984207D301F037FC4FF0CE
:10599000FF3120612046FFF739FC09B0F0BD00BFA0
:1059A00024DE0320C8E50320F8E2032084BC0D00B8
:1059B000014B024A1A607047F8E203209ABC0D00BE
:1059C0000B6803604B68436013B15A6801325A6038
:1059D000704737B58D6804466846FFF7F1FF6A46A1
:1059E0002946204602F0AEFE01A8FEF79FFF2046A2
:1059F00003B030BD37B5CD6804466846FFF7E0FF19
:105A00006A462946204602F079FE01A8FEF78EFF7D
:105A1000204603B030BD37B50D6904466846FFF730
:105A2000CFFF6A462946204602F011FE01A8FEF784
:105A30007DFF204603B030BD704710B510210446ED
:105A400004F03AFF204610BD0368C9B29B681847AE
:105A500030B5034DC0E90223C0E9005130BD00BF9D
:105A6000F4BC0D00406802F06FBC10B5044600683D
:105A700002F0C5FC204610BD2DE9F0418AB0044675
:105A80004068019002F0B2FC1E22002102A8A76823
:105A900005F0C0FB0026EFB123681E2FB84628BFD3
:105AA0004FF01E08DD6802AA434631462046A8474B
:105AB000054658B90A480B493246FEF753FB01A880
:105AC000FFF7D3FF28460AB0BDE8F081A7EB08072F
:105AD0004644E0E701A8FFF7C8FF0125F2E700BF51
:105AE00074E50320C0BC0D002DE9F743044640686F
:105AF00001900D4616461F4602F078FCA7B1E168FA
:105B0000606841F0500102F052FC290A6068FFF71A
:105B10009BFF29466068FFF797FF6068002102F04D
:105B200061FC48B1002400E0012401A8FFF79DFFBB
:105B3000204603B0BDE8F083202F217B6068B84683
:105B400028BF4FF020080123424641F0500102F0E7
:105B500018FC04F069FE03681B6998474045E1DBC7
:105B600006EB080904F060FE03685B69984706F8D5
:105B7000010B4E45F6D14544A7EB0807BEE72DE9DA
:105B8000F74F0446406801900E4690461D4602F0CD
:105B90002DFC4FF00109B9F1000F2AD04DB3E16897
:105BA000606841F0500102F002FC310A6068FFF7C2
:105BB0004BFF60683146FFF747FFA5F11E0A4746D5
:105BC000A6EB080B606817F8011B0368013D9B6892
:105BD000984755450BEB0706B84601D0002DF1D18B
:105BE0006068012102F0FEFB0028D7D04FF00009C9
:105BF000D1E701A8FFF739FF484603B0BDE8F08FB1
:105C00002DE9F0438BB00E46154680464068019062
:105C10001C4602F0EBFBAE4229D2264425448CB14F
:105C20001E2C2746D8F8003028BF1E27F61BD3F8B5
:105C3000089002AA3B4631464046ED1BC84748B98A
:105C4000002400E0012401A8FFF70FFF20460BB05D
:105C5000BDE8F083D8F8003002AAD3F80C902946AA
:105C60003B464046C8470028EAD0E41BD7E7E9D9BD
:105C7000002CE7D0D8F800301E2C274628BF1E275E
:105C8000D3F8089002AA3B4631464046C847002850
:105C9000D6D0D8F8003002AAD3F80C9029463B465B
:105CA0004046C8470028CBD03E443D44E41BDFE7D4
:105CB00001600271704700680368DB68184700687C
:105CC00003681B6A1847006803689B6A18470068E6
:105CD00003689B6B184737B505460C461946019279
:105CE000FFF7F5FF2868019A03685B69214603B056
:105CF000BDE83040184700680368DB6B184738B5CB
:105D00000446006803680D465B6B984729462046A9
:105D1000FFF7F1FF257138BD38B504460068036808
:105D20009B689847054618B121792046FFF7E7FFA1
:105D3000284638BD006803681B6C18470068036874
:105D40005B6C184700680368DB6C184700680368E1
:105D50001B6D1847006803685B6D1847006803688F
:105D60009B6D18472DE9F843044600680A9F1E46BC
:105D700003681B69DDE9089898470546C8B11EB15C
:105D80002046FFF7E3FF3070B9F1000F04D0204642
:105D9000FFF7D8FF89F80000B8F1000F04D02046C3
:105DA000FFF7D8FF88F800001FB12046FFF7D6FFA5
:105DB00038702846BDE8F883012070470379032B2B
:105DC000FCD00120704700207047817170474171FD
:105DD0007047C17270470173704741737047837B8E
:105DE00023EA0202114381737047C0797047007A39
:105DF0007047407A7047807A7047008A00B27047D7
:105E00000079704701717047408A80B27047808A7C
:105E100080B27047C08A80B2704738B505460C46DC
:105E20002B682846DB68984728B9002CF8D0204614
:105E300001F036FDF4E738BDF8B505460F461446C7
:105E400001F0DCF9064601F0D9F9801BB8420AD20C
:105E50002B682846DB68984730B9002CF3D02046E1
:105E600001F01EFDEFE70020F8BD70B504460E46B8
:105E700001F0C4F9054601F0C1F9401BB04204D25B
:105E80002379032BF7D0012070BD0020FCE770B50B
:105E9000C3690446B3B101F0B1F96426054623682D
:105EA00020461B6B984768B101F0A8F9E369401BD5
:105EB000984209D80A21012003F09CFE704301F0AA
:105EC000EFFCECE7012070BD0020FCE7064A026011
:105ED000FF210022027141714282C172828281815E
:105EE0008273C282C261704710BD0D007047704757
:105EF00070477047704741717047817170470171F9
:105F00007047000030B5034D056001714271837127
:105F100030BD00BF90BD0D00704710B51021044684
:105F200004F0CAFC204610BD0EB403B503AB00213B
:105F300053F8042B019303F021FE02B05DF804EB4B
:105F400003B0704773B5044608462279A36832B19E
:105F5000A3B90B4902B0BDE8704003F0DEBD094AA9
:105F6000267B094D0949647B012E18BF2946CDE9DE
:105F700000140749FFF7D8FF02B070BD054AEFE7EC
:105F8000CDBD0D00FDC00D00C9BD0D00C5BD0D008E
:105F9000E3BD0D00BCBD0D0010B50446FFF7B2FF18
:105FA000054B2360054BA36001232373002323616A
:105FB000A382204610BD00BF1CBE0D0008BE0D0010
:105FC00013B50B4C2178BFF35B8F11F001010BD19E
:105FD00020460191FEF770F8019928B1054803F0B9
:105FE0001FFE2046FEF76DF8024802B010BD00BF4C
:105FF00000E3032004E3032007B50191FFF7E0FF6E
:10600000019903B05DF804EB03F0BCBE08B5FFF7DF
:10601000D7FFBDE8084003F0BBBE08B5FFF7D0FFCF
:10602000BDE8084003F0B5BE10B50379042B20D0BD
:10603000032B20D0022B20D0114A1249012B18BF6C
:106040000A4641798379013918BF012133B1012B07
:1060500004D0022B02D0032B18BF002300240473AA
:10606000026101754375FFF7ABFFBDE8104003F017
:10607000E1BD054AE5E7054AE3E7054AE1E700BF78
:1060800080841E0040420F000024F40000127A00B9
:1060900000093D0008B5FFF793FFBDE8084003F095
:1060A000DABD10B50446FFF78BFF04F10801BDE827
:1060B000104003F0F9BD08B5FFF782FFBDE80840C6
:1060C00003F0D8BD08B5FFF77BFF08BD00230248E9
:1060D0001A461946FFF760BF0CE30320012A05D1D9
:1060E000007A0B781B1A58425841704700207047BD
:1060F0002DE9F04F264D012387B02B706B700023E4
:106100000F46A97000930322FF232946064600F09C
:10611000E7FB20B10024204607B0BDE8F08FFA234A
:106120008DF8173001F06AF806F104098046AA4696
:1061300008F57A6401F062F8201A0028EADD81B2DD
:1061400000224846FFF7BFFD0028F3D00023CDE929
:106150000233CDE900330DF117025146304600F00D
:10616000C9FB04460028E3D09DF81730012BDFD986
:1061700095F800B0BBF1020FDAD14846FFF7E6FD13
:106180005B4602463946304600F021FBC3E700BFBC
:1061900024E30320012A2DE9F34107460E46144665
:1061A0003BD94D79022D30D100F10408C979019114
:1061B0004046FFF7CBFD083C2B4602460199384686
:1061C00000F005FBE5B206F10803002422469542E3
:1061D00004F10104E4B204D913F8012B397A914295
:1061E000F4D104F108010E44A54216D916F8011B9A
:1061F00001914046FFF7AAFD0134024601990223AE
:106200003846E4B200F0E3FAEEE7032D05D18979D0
:1062100002B0BDE8F04100F0C3BA02B0BDE8F081C1
:1062200010B5044600F014FB014B2360204610BD5E
:1062300050BE0D002DE9F047F92A9DF82090064642
:106240000F4614461D4625D8FF2B14D1DFF8488091
:10625000404600232246394600F8013B04F0B2FFD5
:10626000621CCDF820902B4641463046D2B2BDE8A4
:10627000F04700F035BB194600F04EFA0028E5D192
:10628000336829469B68304698470028DED10220B3
:10629000BDE8F0870120FBE724E303202DE9F04F60
:1062A00089B09846FA238DF81A300DF11F03039335
:1062B0000DF11E03DFF880A102930DF11D03019380
:1062C00007AB0093894617460DF11B030DF11A0227
:1062D0005146DDF848B0054600F00CFB5646044632
:1062E00020B90024204609B0BDE8F08F9DF81A308F
:1062F00073B39AF800205ABBB8F1000F03D09DF891
:106300001B2088F80020BBF1000F03D09DF81C2053
:106310008BF80020139A1AB113999DF81D200A706A
:10632000149A1AB114999DF81E200A70159A1AB180
:1063300015999DF81F200A703A783D49013BDBB260
:106340009A4288BF3B703A78484604F03BFFC9E761
:106350009DF81C20FF2AC4D1012BC2D93278012A12
:10636000BFD12A7A9DF81B40A242BAD0DF1E314924
:10637000FFB200235FFA83F8474506D911F8010BF5
:10638000824203F10103F5D1ABE705F10409484668
:10639000FFF7DCFC022302462146284600F017FAEC
:1063A00095F8173193B1244CA31BDBB29F420CD953
:1063B000E17805914846FFF7C9FC0599024602239A
:1063C000284600F004FA0134EEE7B8462B687278EC
:1063D000DB681A4928469847044660B10223002426
:1063E00033709DF81A209DF81B30134900942846FD
:1063F00000F076FA76E795F8163143457FF671AFEF
:1064000095F81731002B3FF46CAF9DF81A202B7ACA
:1064100009493E440132F3709DF81B300190D2B21D
:1064200000932846FF238DF81A2000F023FA59E73D
:1064300025E3032027E3032024E3032026E30320AE
:106440002DE9F04F85B080461C46DDE91056129FBD
:106450008946924600F0D2FE08F1040B044400F095
:10646000CDFE201A002816DD81B200225846FFF723
:106470002AFC0028F3D00F9B0093CDE902670E9B06
:106480000195524649464046FFF708FF0028E6D0EE
:1064900005B0BDE8F08F0020FAE70000F0B585B048
:1064A000054604300E460392FFF750FC039A074658
:1064B0003146284600F047F90228044601D0052855
:1064C0001BD13178284600F06BF972782B7A9A420A
:1064D00013D00B4C0323237033786370717802233D
:1064E0003A46284600F073F900230093214673785A
:1064F0000222284600F0F4F90446204605B0F0BD1B
:1065000024E3032010B50446FFF7D2FBC823002183
:10651000E3810323A160217323744FF4807204F19B
:10652000110004F077FE204610BD1FB5044601920D
:10653000FFF700FC204600228021FFF7FFFB21220D
:10654000019B8DF80F200DF10F0101222046FFF76E
:10655000C2FB2046FFF7B3FB04B010BD2DE9F04F9E
:10656000057B0135EDB287B00446894692469846D0
:1065700005730027227C3B469A4207F10107FFB2D0
:106580006BD329462046FFF7D5FB012F0DBFC02254
:106590008022402100212046FFF7D0FB434652468F
:1065A00049462046FFF797FB2046FFF788FBB8F1E6
:1065B000FF0F54D0012F82BFA3680133A36000F006
:1065C0001DFE4FF4807183460020E68903F012FB24
:1065D000704348BFFF3006EB20261BFA86F600F01A
:1065E0000DFE301A0028C5DD81B200222046FFF7DB
:1065F0006AFB0028F3D00DF1170302930DF1160387
:10660000019300220DF115030093114605AB2046BE
:10661000FFF7A8FB0028E2D09DF814209DF9173061
:1066200042450ED194F804C09DF815108C4508D150
:10663000002B08DA9DF81630AB42D0D107B0BDE888
:10664000F08F002BCBDBA1189DF81630497C9942C6
:10665000C5D12046FFF769FFC1E70020EEE7012022
:10666000ECE72DE9F04389B0CDE90421DDE910988C
:10667000129F04461E46FFF71EFBDDE9042120B9E8
:106680000025284609B0BDE8F0830DF11F030293F1
:106690000DF11E0301930DF11D030093204607AB7E
:1066A000FFF760FB05460028EAD09DF91F30002B5C
:1066B000E6DB22799DF81D309A4206D19DF81C2018
:1066C0009DF81E102046FFF730FF9DF81C209DF816
:1066D0001E301444617C9942D2D006B13270B9F1B7
:1066E000000F03D09DF81D2089F80020B8F1000F9D
:1066F00001D088F8003017B19DF81F203A706374FC
:10670000BFE7704710B504460430FFF705FB10B132
:106710001E2384F8163110BD10B50246002392F8EE
:1067200018418C4208D192F81A412CB103EB430373
:1067300003F58C73184410BD01330A2B02F10302D8
:10674000EDD10020F7E737B50B78FF2B05460C4657
:1067500006D019460192FFF7DFFF58B14378019A3E
:106760002146281DFFF7FAFE002814BF002005204F
:1067700003B030BD0220FBE710B501EB4103044636
:10678000C1F1090203F58C7003F21B1102EB420206
:106790002144204404F016FD002384F8353110BD57
:1067A00038B50A46002300F58C7403EB4305D9B2D3
:1067B000655D954203D1FFF7DFFF012038BD01334E
:1067C0000A2BF2D10020F9E70021FFF7D5BFF8B579
:1067D00016461F4604460D46002300F58C7203EB57
:1067E0004300115CA94205D1204480F8196180F86A
:1067F0001A71F8BD01330A2BF1D1002304F58D7213
:1068000003EB4300115C19B9204480F81851ECE700
:1068100001330A2BF4D12046FFF7D6FF204604F1BE
:106820001E0390F81A212AB980F8185180F81961CE
:1068300080F81A7103309842F3D1DAE700F11E03B1
:10684000002280F81A2103309842FAD170470000E4
:1068500010B504460430FFF755FE054B23604FF496
:106860008F732046A4F81631FFF7E8FF204610BDCD
:1068700068BE0D002DE9F3470446406801911F46AC
:1068800003689DF828A09B699DF82C9016469847B0
:1068900006F1050880451CD8104D019985F801A026
:1068A0000023AB7094F81531EB705A1C84F8152155
:1068B000681D32462F7085F8049004F083FC23682D
:1068C0005B685FFA88F22946204602B0BDE8F047CF
:1068D0001847012002B0BDE8F08700BF1EE4032086
:1068E00013B59DF810400194047A0094FFF7C2FF9D
:1068F00002B010BD2DE9F04F87B01F46FF238DF881
:1069000013300DF117030293DFF8D0900DF1160349
:1069100001930DF11503009304468846164605AB16
:106920000DF1130249460430DDE910BAFFF799FE74
:10693000054608B9002538E023689DF813201B6838
:1069400049462046984799F80030227A9A4201D069
:10695000FF2B2ED117B1214B5B783B70BBF1000FA1
:1069600003D01E4B1B788BF80030BAF1000F03D018
:106970001A4BDB788AF80030129B1BB1174B129A26
:106980001B791370139B1BB1144B139A9B781370D4
:106990009DF8133032781249053BDBB29A4288BF2A
:1069A00033703278404604F00DFC284607B0BDE84D
:1069B000F08F99F802305A1C89F8022094F81621B9
:1069C0009A42B7D994F81731002BB3D023689DF8B9
:1069D00013205B68494620469847ABE71EE4032036
:1069E00023E4032010B50446006A0368DB68984777
:1069F00094F82400FF2802D0012103F08FFE2368C1
:106A00002046DB6F9847642000F04AFF012010BD4C
:106A100090F82400002103F092BE90F82400012198
:106A200003F08DBE70B504460D461646FFF74EFACC
:106A3000034B2360266284F82450204670BD00BFBB
:106A400078BE0D0038B50446006A03681B6A0D461F
:106A50009847236820469B6F9847206A036805F093
:106A60007F011B689847206A036800211B689847CC
:106A700023680546DB6F20469847206A03685B6AF7
:106A80009847284638BD70B50446006A03681B6AFB
:106A900016460D469847236820469B6F9847206A04
:106AA000036845F080011B6898470546206A036823
:106AB00031461B689847012000F098FB2368204668
:106AC000DB6F9847206A03685B6A9847284670BD69
:106AD000F8B50446006A1E4603681B6A0F46154651
:106AE0009847236820469B6F9847206A036807F001
:106AF0007F011B6898472E440746B54207D0206A9D
:106B0000036800211B68984705F8010BF5E7236827
:106B10002046DB6F9847206A03685B6A98473846CF
:106B2000F8BDF8B50446006A1E4603681B6A0F46A6
:106B300015469847236820469B6F9847206A03684C
:106B400047F080011B6898472E440746B54206D09F
:106B5000206A15F8011B03681B689847F6E723684D
:106B60002046DB6F9847206A03685B6A984738467F
:106B7000F8BD006A03689B6A184701207047FB2034
:106B80007047704710B50379052B044610D0036891
:106B90000521D3F880309847072201212046FFF7CE
:106BA00072FF802240212046FFF76DFF05232371ED
:106BB0002379052BFCD0207E10BD10B54FF49871C1
:106BC000044603F079FE204610BD10B50379012B71
:106BD00004460BD003680121D3F880309847002287
:106BE00001212046FFF74FFF01232371012010BD33
:106BF000F8B50368DB6804460F4615469847064615
:106C0000B0B187B17DB194F828302A78033B934224
:106C1000DEBF94F82830043B2B702A7804F12D0154
:106C2000384604F0CFFA002384F8283184F828305D
:106C30003046F8BD38B5044615461A46FFF7F2FE51
:106C4000094B2360FF22002384F82720012284F8C7
:106C5000283184F82C3184F8265084F82B2184F8CC
:106C60002530204638BD00BF10BF0D0090F82830F9
:106C7000032B1BD990F82930C37190F82A30037286
:106C800090F82B30437290F82C308372837933B9AB
:106C9000C37942799A4202D0C379FF2B06D1838A05
:106CA00001339BB28382012380F8283170470000B2
:106CB00038B504462DED028B10EE100AB0EE408A76
:106CC00003F068FF17A3D3E9002303F0BBFF17A36A
:106CD000D3E9002304F0E0F804F0C6F906210546E4
:106CE000C0F307422046FFF7CEFEC5F30722072177
:106CF0002046FFF7C8FEEAB208212046FFF7C3FE90
:106D0000DFED077AB4EEE78ABDEC028BF1EE10FA04
:106D1000ACBF01230023012084F8293138BD00BF16
:106D200000C042440000000080842E4100000000AA
:106D300080844E4010B50379022B04460BD00368C3
:106D40000221D3F880309847012211462046FFF7F0
:106D50009AFE0223237110BD70B512210446FFF77D
:106D600071FE1C2105462046FFF76CFEFF220646F9
:106D700012212046FFF787FE2379042B07D115F057
:106D8000A00F17D194F82B310BB1700612D52379CF
:106D9000042B01D1690622D42379032B01D12A07C0
:106DA00069D42379052B0ED16B070CD505F00105AD
:106DB000257659E0638A01339BB26382002384F80D
:106DC000283184F82830FF2212212046FFF75BFE8D
:106DD0002046FF22BDE870401221FFF754BE132168
:106DE0002046FFF72FFE102105462046FFF72AFE1A
:106DF0000D2102462046FFF746FE04F129022B46EC
:106E000000212046FFF764FE192184F8285020460F
:106E1000FFF718FE40B20028B8BF0330801084F896
:106E20002A011A212046FFF70DFE94F92A3100B2FB
:106E3000002B2082A9BF238A228A1BB21B01B2BF6A
:106E40009B180F2293FBF2F31BB2238294F8293193
:106E500073B1238A9D3B1BB223822046FFF706FFB6
:106E600094F82831002BAED02046FFF763FFAAE745
:106E7000238AA43BEFE7E38A01339BB2E382F3E783
:106E8000024B186808B1FFF767BF704720E5032081
:106E9000024B586808B1FFF75FBF704720E5032039
:106EA000024B986808B1FFF757BF704720E50320F1
:106EB00010B50379042B044610D003680421D3F8DD
:106EC00080309847052201212046FFF7DCFD002293
:106ED00040212046FFF7D7FD0423237110BD10B5D4
:106EE0000379032B044605D0FFF7E2FF94F828014D
:106EF000C0B210BD0020FCE710B50379032B044697
:106F000010D003680321D3F8803098470322012171
:106F10002046FFF7B8FD402211462046FFF7B3FD9B
:106F20000323237110BDFB2AF8B504460F4615460E
:106F300002D900263046F8BD03681B6A98472046F0
:106F4000FFF7F8FE23682046DB6A984706460028CC
:106F5000EFD000220D212046FFF795FDE27A0021B7
:106F60002046FFF790FD227B00212046FFF78BFD96
:106F7000627B00212046FFF786FDA27B0021204690
:106F8000FFF781FD2B463A4600212046FFF7C9FD59
:106F90002A1DD2B222212046FFF775FD2046FFF7B9
:106FA000ABFFC7E738B505460C4680F8252072B11F
:106FB00081F3040242F07002D2B20921FFF763FDAF
:106FC00004224D212846BDE83840FFF75CBD142956
:106FD00010DC012910DD11290FDD07224D21284683
:106FE000FFF751FD033C64B2A21E62F07F02D2B2F1
:106FF0000921E7E71424F0E7022404224D21284662
:10700000FFF741FDF0E738B50C4605460A781D212B
:10701000FFF739FD62781E212846FFF734FDA2787C
:1070200028462621BDE83840FFF72DBD052913B5B8
:107030000FD8094B01EB41015C185A5AA378ADF8FF
:10704000042001A98DF80630FFF7DDFF012002B012
:1070500010BD0020FBE700BFF8BE0D0038B50A0ADE
:1070600005460C462021FFF70EFDE2B228462121FD
:10707000BDE83840FFF707BD73B50446FFF7B2FC23
:10708000064618B90026304602B070BD94F8265066
:10709000FF2D52D029462046FFF76BFD80220121AB
:1070A0002046FFF7F0FC0A2000F0FAFB0121204601
:1070B000FFF7C8FC8028E5D194F82600FF281CD0F3
:1070C000002103F02BFB94F82730FF2B07D1254A32
:1070D0001378032BD6D8591C117084F8273094F8F4
:1070E0002720214B43F8224052BB204900924FF009
:1070F000FF330122A8B201F08DF900220E212046B3
:10710000FFF7C1FC00220F212046FFF7BCFC204600
:10711000FFF710FE00212046FFF788FF08212046D8
:10712000FFF79CFF9FED120A2046FFF7C1FD0022EA
:107130000D212046FFF736FFA5E74FF0FF35ADE7FD
:10714000012A4FF0000304D100930A494FF0FF33A6
:10715000D0E7022A96D1009307494FF0FF3301226E
:10716000C8E700BF1DE5032020E50320816E0D0068
:107170000000D943916E0D00A16E0D0008B5024BC1
:107180001B685B6C019308BD7402030008B5024BD9
:107190001B685B6C019308BD4802030008B5024BF5
:1071A0001B689B6C019308BD4802030008B5024BA5
:1071B0001B68DB6C019308BD4802030008B5024B55
:1071C0001B685B6D019308BD4802030008B5024BC4
:1071D0001B685B6E019308BD3402030008B5024BC7
:1071E0001B685B68019308BD1802030008B5024BD9
:1071F0001B68DB68019308BD1802030008B5024B49
:107200001B685B69019308BD1802030008B5024BB7
:107210001B689B6D019308BD1802030008B5024B63
:107220001B685B6E019308BD1802030008B5024B92
:107230001B689B6E019308BD1802030008B5024B42
:107240001B685B68019308BD2C02030008B5024B64
:107250001B689B68019308BD2C02030008B5024B14
:107260001B68DB68019308BD2C02030008B5024BC4
:107270001B681B69019308BD2C02030008B5024B73
:107280001B685B69019308BD2C02030008B5024B23
:107290001B689B69019308BD2C02030008B5024BD3
:1072A0001B68DB69019308BD2C02030008B5024B83
:1072B0001B681B6B019308BD2C02030008B5024B31
:1072C0001B68DB68019308BD2802030008B5024B68
:1072D0001B689B69019308BD2802030008B5024B97
:1072E0001B68DB69019308BD2802030008B5024B47
:1072F0001B681B6A019308BD2802030008B5024BF6
:107300001B685B6A019308BD2802030008B5024BA5
:107310001B689B6A019308BD2802030008B5024B55
:107320001B68DB6A019308BD2802030008B5024B05
:107330001B681B6B019308BD2802030008B5024BB4
:107340001B685B6B019308BD2802030008B5024B64
:107350001B681B6C019308BD2802030008B5024B93
:107360001B689B6C019308BD2802030008B5024B03
:107370001B68DB6C019308BD2802030008B5024BB3
:107380001B681B6D019308BD2802030008B5024B62
:107390001B685B69019308BD6402030008B5024BDA
:1073A0001B689B68019308BD6802030008B5024B87
:1073B0001B68DB68019308BD6802030008B5024B37
:1073C0001B681B68019308BD3002030008B5024B1F
:1073D0001B685B68019308BD3002030008B5024BCF
:1073E0001B685B69019308BD3002030008B5024BBE
:1073F0001B68DB69019308BD3002030008B5024B2E
:107400001B681B6A019308BD3002030008B5024BDC
:107410001B685B6A019308BD3002030008B5024B8C
:107420001B68DB6B019308BD3002030008B5024BFB
:107430001B681B6C019308BD3002030008B5024BAA
:107440001B685B6C019308BD3002030008B5024B5A
:107450001B681B68019308BD3C02030008B5024B82
:107460001B689B68019308BD3C02030008B5024BF2
:107470001B68DB68019308BD3C02030008B5024BA2
:107480001B681B69019308BD3C02030008B5024B51
:107490001B685B69019308BD3C02030008B5024B01
:1074A0001B689B69019308BD3C02030008B5024BB1
:1074B0001B68DB69019308BD3C02030008B5024B61
:1074C0001B681B6A019308BD3C02030008B5024B10
:1074D0001B689B6A019308BD3C02030008B5024B80
:1074E0001B68DB6A019308BD3C02030008B5024B30
:1074F0001B681B68019308BD4C02030008B5024BD2
:107500001B685B68019308BD4C02030008B5024B81
:107510001B689B68019308BD4C02030008B5024B31
:107520001B681B69019308BD4C02030008B5024BA0
:107530001B685B69019308BD4C02030008B5024B50
:107540001B689B69019308BD4C02030008B5024B00
:107550001B68DB69019308BD4C02030008B5024BB0
:107560001B681B6A019308BD4C02030008B5024B5F
:107570001B685B6B019308BD6002030008B5024BFA
:107580001B681B6D019308BD6002030008B5024B28
:107590001B685B6D019308BD6002030008B5024BD8
:1075A0001B68DB6E019308BD6002030008B5024B47
:1075B0001B681B6F019308BD6002030008B5034BF5
:1075C0001B68D3F89830019308BD000060020300E7
:1075D00008B5024B1B681B68019308BD200203001D
:1075E00008B5024B1B685B68019308BD20020300CD
:1075F00008B5024B1B685B69019308BD20020300BC
:1076000008B5024B1B681B6A019308BD20020300EA
:1076100008B5024B1B68DB6A019308BD200203001A
:1076200008B5024B1B68DB6C019308BD2002030008
:1076300008B5024B1B685B6D019308BD2002030077
:1076400008B5024B1B689B6D019308BD2002030027
:1076500008B5024B1B68DB6D019308BD20020300D7
:1076600008B5034B1B68D3F88830019308BD0000B0
:107670002002030008B5034B1B68D3F89430019334
:1076800008BD00002002030008B5034B1B68D3F8B7
:10769000A830019308BD00002002030008B5034B89
:1076A0001B68D3F8AC30019308BD00002002030032
:1076B00008B5024B1B689B68019308BD4402030098
:1076C00008B5024B1B685B69019308BD44020300C7
:1076D00008B5024B1B681B6A019308BD44020300F6
:1076E00008B5024B1B681B6B019308BD44020300E5
:1076F00008B5024B1B685B6B019308BD4402030095
:1077000008B5024B1B68DB6B019308BD4402030004
:1077100008B5024B1B685B68019308BD400203007B
:1077200008B5024B1B689B68019308BD400203002B
:1077300008B5024B1B68DB68019308BD40020300DB
:1077400008B5024B1B681B69019308BD400203008A
:1077500008B5024B1B685B69019308BD400203003A
:1077600008B5024B1B689B69019308BD40020300EA
:1077700008B5024B1B68DB69019308BD400203009A
:1077800008B5024B1B681B6A019308BD4002030049
:1077900008B5024B1B681B6B019308BD4002030038
:1077A00008B5024B1B685B6B019308BD40020300E8
:1077B00008B5024B1B681B6C019308BD4002030017
:1077C00008B5024B1B685B6C019308BD40020300C7
:1077D00008B5024B1B681B68019308BD1C0203001F
:1077E00008B5024B1B685B68019308BD1C020300CF
:1077F00008B5024B1B689B68019308BD1C0203007F
:1078000008B5024B1B681B69019308BD1C020300ED
:1078100008B5024B1B68DB69019308BD1C0203001D
:1078200008B5024B1B685B6A019308BD1C0203008C
:1078300008B5024B1B68DB6A019308BD1C020300FC
:1078400008B5024B1B681B6B019308BD1C020300AB
:1078500008B5024B1B685B6C019308BD1C0203005A
:1078600008B5024B1B689B6C019308BD1C0203000A
:1078700008B5024B1B68DB6C019308BD1C020300BA
:1078800008B5024B1B681B6D019308BD1C02030069
:1078900008B5024B1B685B6D019308BD1C02030019
:1078A0000021FFF7A5BE10B5836804460BB903F0AD
:1078B00009F8C3689847A3681BB1032221462046F4
:1078C000984720461021BDE8104002F0F5BF0B6834
:1078D000036013B15A6801325A60704702480023AE
:1078E0000360FFF753BC00BF2CE503200022406873
:1078F0001146FFF725BF002240681146FFF740BF41
:10790000002240681146FFF74BBF40680022FFF796
:107910003FBF4068002281F00101FFF729BF00232B
:1079200040681A461946FFF71BBF002340681A46F5
:107930001946FFF70DBF002240681146FFF7F0BE61
:10794000406800220221FFF7F3BE002340681A4678
:10795000FFF7DEBEF0B51B4B036000250F4630334A
:107960001826C0E9025589B04360324629460446CC
:10797000103003F04FFC78682A462946FFF7E0FEF6
:1079800018B9A060204609B0F0BD2946324602A8C9
:10799000CDE9005503F03EFC02A96846ADF8086049
:1079A000FFF7ECFB10B10123A360EBE7009B019A0A
:1079B000A360E2600BB90223A36002A9204600F095
:1079C000C0F8DFE7D8BF0D00084B10B528242246C9
:1079D0001846002103F01EFC054B04804FF0FF32D7
:1079E000426004225A60034A1A6010BD38E5032041
:1079F00030E503209CBF0D007047007D7047037D7C
:107A00004BB18369B3F1004F05D0006AB0F100407B
:107A100018BF012070470020704703681B6A184791
:107A200010B52821044602F047FF204610BD000093
:107A3000037D7BB1C369002B0CDB07EE903A9FED11
:107A4000077AF8EEE77A87EE870ADFED057A20EE0F
:107A5000270A7047BFEE000A704700BF00FF7F474C
:107A60000000C842037D63B18369B3F1004F08D0C1
:107A700007EE903A9FED047AF8EEE77A87EE870AF0
:107A800070479FED020A70470000C84200000000E6
:107A9000037D7BB1436A002B0CDB07EE903A9FED30
:107AA000077AF8EEE77A87EE870ADFED057A20EEAF
:107AB000270A7047BFEE000A704700BF00FF7F47EC
:107AC0000000C842037D63B1036AB3F1004F08D0E0
:107AD00007EE903A9FED047AF8EEE77A87EE870A90
:107AE00070479FED020A70470000C8420000000086
:107AF00070B50C1E06460ADA2D2102F012F861421A
:107B000005460A22304602F01BF8284470BD214683
:107B10000025F6E770B50C46054681682046FFF75C
:107B2000E7FF2C210646204601F0FBFFE9680644EA
:107B30002046FFF7DDFF304470BDA0F10400FFF7E1
:107B4000E9BF30B50D4600F110040FCD0FC495E824
:107B5000030084E80300012030BD70470020704717
:107B600010B51021044602F0A7FE204610BD08B54E
:107B7000FFF7F6FF08BD10B58368044613B1032272
:107B800001469847204610BD30B500224FF69C7440
:107B9000026084808D888C800C68858004600A6017
:107BA00030BD10B504460068FFF71AFE204610BD30
:107BB00038B5C468F4B12378022B03D104F10C006A
:107BC000FFF7EFFF656835B12846FFF7D4FF1021B6
:107BD000284602F071FEA56835B12846FFF7CBFFB5
:107BE0001021284602F068FE20461421BDE83840E6
:107BF00002F062BE38BD73B50E46044656F8043B2B
:107C000000930D4601A83146FFF761FE019A009BE3
:107C10006260236001A8002301930093FCF786FEB5
:107C20003046FCF783FE2846082102F045FE204638
:107C300002B070BD13B50B460246D0E900016C4698
:107C400084E8030093E8030082E8030094E803005B
:107C500083E8030002B010BD826810B50AB902F0D3
:107C600031FEBDE81040C368184708B5006800F150
:107C70001001FFF7F1FF08BD826810B50AB902F0E4
:107C800021FEBDE81040C368184708B5006800F140
:107C90001001FFF7F1FF08BD38B50023044603606B
:107CA00010200D46FCF7F7F928B10123C0E9013394
:107CB000024B0360C5602060204638BD14C00D0033
:107CC00038B5002383608B6804460D462BB1022231
:107CD0009847EB68E360AB68A360204638BD0000BE
:107CE000F0B589B004686846FFF74EFF4FF0020315
:107CF000D4E84F2F002A03D1C4E8413F0029F7D12F
:107D000025D104F10C0569462846FFF73DFFBFF376
:107D10005B8F01236370002004F10803BFF35B8FC6
:107D200053E8006F43E80002002AF9D1BFF35B8FEC
:107D30006EB1FFF775FC78B129463046FFF78CFF2E
:107D40003046FFF718FF1021304602F0B5FD6846B7
:107D5000FFF727FF09B0F0BD314602A8FFF7B0FFDB
:107D6000E068B4F9105008B103F0DEFA0690102074
:107D7000ADF81C50FCF78FF90546E8B10027876085
:107D80001820FCF788F9044688B10146876002A8EC
:107D9000FFF750FF049BA268A360059B049206A90D
:107DA000E268E36004F110000592FFF7EDFE084B76
:107DB000EB60084B2C60AB6006A8FFF7F2FE02A850
:107DC000FFF7D9FE002229460348FFF731FCB7E749
:107DD0006B7C0D00017F0D00A7780D002DE9F047A9
:107DE0008AB005469DF848900C4617469846FFF71E
:107DF00067FC07AE824638BB4FF62E73059005A987
:107E00003046ADF81830FFF7BFFE1420FCF743F9F9
:107E1000044648B1022303700123C0E901AA43705C
:107E200031460C30FFF7B0FE2846214640F8044B9F
:107E3000FFF732FF3046FFF7B4FE05A8FFF7B1FEAB
:107E400028460AB0BDE8F0870C234FF0000A142042
:107E5000CDE908AA0793FCF71EF9014628B1C0E94D
:107E600001AA80F800A080F801A004A80391FFF700
:107E700013FF224B08930820FCF70DF9824628B126
:107E8000039B40F8043B04A9FFF721FD00965FFA2D
:107E900089F3424639462046CDF824A0FFF718FC66
:107EA000B8B9039B5B7803F0FF0293B94FF69C735C
:107EB00005A903A80592ADF81830FFF711FF05A832
:107EC000FFF76FFE05A80999FFF795FE06A8FCF7D6
:107ED0002DFD039B059304A906A8FFF7F8FC059B5D
:107EE000069A2B606A60002306A806930593FCF7A8
:107EF0001DFD04A8FCF71AFDA2E700BFC57F0D0019
:107F0000022AF8B5054607D0032A18D0012A01D164
:107F10000B6803600020F8BD18200E68FCF7BBF862
:107F2000044650B13146FFF7CBFE3069B6F9147004
:107F300008B103F0F9F92061A7822C60EAE7046830
:107F4000002CE7D004F11000FFF72BFE2046FFF7CE
:107F500012FE1821204602F0AFFCDBE738B5002303
:107F600083608B6804460D462BB102229847EB686C
:107F7000E360AB68A360204638BD022A70B50446B2
:107F800007D0032A12D0012A01D10B680360002018
:107F900070BD14200E68FCF77EF8054620B131460E
:107FA000FFF7DCFF337C2B742560F0E70468002CBE
:107FB000EDD02046FFF7DFFD1421204602F07CFCC7
:107FC000E5E70000F0B589B004460D4601A811466A
:107FD000FFF711FEA4B124B21DB1284603F0A4F9A5
:107FE000054601A803A90395ADF81040FFF778FEF8
:107FF00003A8FFF7D6FD02A8FCF798FC09B0F0BD76
:10800000019D0123D5E84F2F002A03D1C5E8413F48
:108010000029F7D1EFD12B73BFF35B8F6B702B1D52
:10802000BFF35B8F53E8006F43E80042002AF9D1A9
:10803000BFF35B8F002EDED02046FFF7F1FA074634
:1080400060B105F10C013046FFF716FE3046FFF730
:1080500092FD1021304602F02FFCCCE7314603A8F8
:10806000FFF77CFF2B7B8DF81C301020FCF713F8FA
:108070000546D0B187601420FCF70DF8044678B1AE
:108080008760014603A8FFF7D5FD059BA268A360A2
:10809000069B0592E268E3609DF81C30069223740B
:1080A000064BEB60064B2C60AB6003A8FFF763FD4B
:1080B000002229460348FFF7BBFAC7E78B7C0D0077
:1080C0007B7F0D00A7780D00002240681146FFF766
:1080D00057BB002240681146FFF762BB4068002290
:1080E000FFF756BB4068002281F00101FFF740BB5B
:1080F000002340681A461946FFF732BB0023406848
:108100001A461946FFF724BB002240681146FFF7C4
:1081100017BB002240681146FFF702BB40680022EF
:108120000221FFF705BB002340681A46FFF7F0BAAB
:10813000024B03225A60024A1A60704760E503202E
:1081400030C00D00006800F051B910B50446016060
:1081500002710AB1FFF7F6FF204610BD13B50446C1
:10816000019102F085FB019A01462046FFF7EDFFE1
:10817000204602B010BD006800F041B92DE9FF4172
:1081800004460D4617461E46FFF7DCFF36238DF8E2
:1081900000300023206801934FF001080A2369464C
:1081A00003938DF8088000F005F9206803682946DC
:1081B0009B6898472068414600F014F9054640B195
:1081C0006FF09F052046FFF7D6FF284604B0BDE8B4
:1081D000F081022320680193694600F0BBF8022871
:1081E000EED1206803685B6998473870206803689F
:1081F0005B6998473070E5E707B500238DF80630D6
:108200008DF807300DF106020DF107030421FFF789
:10821000B5FFB0B99DF8070002F0AAFC0A4B002296
:1082200002F010FD02F040FF9DF8063000EE103A1B
:1082300007EE900AB8EEC00A37EE800A03B05DF888
:1082400004FBBFEE000AF9E70000703F2DE9FF4193
:10825000164604461D460F46FFF774FF36238DF879
:1082600000300023206801934FF001080A2369467B
:1082700003938DF8088000F09DF820680368394664
:108280009B6898472068036831469B689847206838
:10829000036829469B6898474146206800F0A2F889
:1082A000002820460CBF00256FF09F05FFF763FFF5
:1082B000284604B0BDE8F08108B54022002306211D
:1082C000FFF7C4FF00EAE07008BD7047F8B5064646
:1082D00015460C468F18BC4206D0336814F8011BB3
:1082E0009B6830469847F6E72846F8BD007C002298
:1082F000FEF7FCBF007C0021FFF700B8007C0021E6
:10830000FFF704B8007C0021FFF708B8007C0021CB
:10831000FFF70CB810B51421044602F0CDFA204640
:1083200010BD000010B54FF47A73044608460021D2
:10833000C4E90113034B236020741146FFF706F8CC
:10834000204610BD6CC00D000023007C1A46194663
:10835000FEF7B4BF7FB500221423CDE90122ADF8AA
:1083600004300B788DF808304B680393CB68049386
:10837000007C0B7A059301A9FFF700F807B05DF8C0
:1083800004FB1FB5003B8DF800104FF06401039112
:1083900018BF0123694601928DF80830FFF7DAFF14
:1083A00005B05DF804FB007C0022FEF78FBFC9B268
:1083B000FFF7F9BF7FB50023CDE901334A68039287
:1083C0001423CA68ADF804300B7804920A7A059237
:1083D000007C8DF8083001AA1946FEF777FF07B038
:1083E0005DF804FB007C0022FEF778BF08B5002191
:1083F000007CFEF7B3FFB0FA80F0400908BD08B575
:108400000021007CFEF7B2FFB0FA80F0400908BD01
:10841000004700002DE9FF4100241D460F4690460D
:108420000646FEF73BFFA5424FF00403ADF80D40B2
:108430008DF80C308DF80F40A2BF9DF828308DF8D4
:108440000E3003AC0749009443463A463046A8BF75
:108450008DF80D50FEF71AFFB0FA80F0400904B015
:10846000BDE8F08111840D00704710B51821044655
:1084700002F022FA204610BDF0B5037D062B8DB028
:108480000E4600F104074FF0000412D000F1080579
:1084900015F8011D0A22304601F052FBAF42044498
:1084A00019D0002CF4D02E21304601F03AFB0444C0
:1084B000EEE72F236A4639460A208DF80040FEF782
:1084C00065FF684602F04DFF33680246DB68694687
:1084D00030469847044620460DB0F0BD10B5054B18
:1084E0000446112240F8043B002102F093FE20468E
:1084F00010BD00BF94C00D000346074A10B543F8F5
:10850000042B01F1100251F8044B43F8044B914243
:10851000F9D10A781A7010BD94C00D0010B59DF8FD
:10852000084044EA032343EA024242EA0161042389
:108530004160037510BD13B5CB7800938B784A78F2
:108540000978FFF7EBFF02B010BD00F11003012224
:1085500013F8101C0129184608D153F8041C02EB2B
:108560004102013A03F11003F2D17047022904BF1E
:1085700053F8041C5218F4E70EB4F0B588B000AFFD
:1085800007F13405102155F8042B7A6004462B4678
:108590007818FD60FFF744F90F287A681AD900F1BE
:1085A000080323F007036E46ADEB030D411C2B4679
:1085B0006846FD60FFF734F9021E04DD2368694652
:1085C0009B6820469847B5462037BD46BDE8F04039
:1085D00003B070470028F7D0236802469B6807F174
:1085E000100120469847EFE710B5036804469B68E2
:1085F0009847A368013BA3602BB923682046DB683A
:10860000BDE81040184710BD07B503688DF8071086
:108610009B6801220DF10701984703B05DF804FB48
:1086200038B50B6803604D6843689D4204460CD022
:1086300015B16B6801336B60606828B14368013B1A
:1086400043600BB9FFF7D0FF6560204638BD0B468D
:108650001146002210B5C0E90022044683600BB920
:10866000204610BDFFF7DCFFFAE78368EBB11A780C
:10867000032A1AD8DFE802F00417021B052070470E
:1086800002685B685268D05C2D2812D0A0F13003DC
:10869000092B0ED974280ED066280CD0A0F16E03D9
:1086A0005842584170470620704700207047042008
:1086B0007047032070470220704710B50446FFF74B
:1086C000D4FF02280ED0C31EDBB2012B14D82268BF
:1086D000A36850685B68BDE810400A220021184476
:1086E00002F0FABE2268A36852685B68D05CA0F111
:1086F00074035842584110BD0020FCE738B50023F0
:10870000C0E9003304460E48C4E90203A9B10B785E
:10871000032B06D08BB9136858684B68C35C6E2B6B
:1087200007D013684D6858688B6828445B1BA060AD
:10873000E36011462046FFF773FF204638BD00BFB7
:10874000FDC00D0038B500250B46C0E90055C0E955
:108750000255C0E90455044611464BB11A78012A66
:1087600006D103F11002DB6882604361FFF758FF16
:10877000204638BD10B54369044663B18068E060A7
:10878000013B1030A0602061636113B1FFF7DDFE93
:10879000A060012000E0184610BD10B57D21044600
:1087A000FFF732FF01232371204610BD08B503797E
:1087B000012B02D0022B04D008BD2C21FFF724FF8F
:1087C000FAE73A21FAE710B50446FFF7EFFF204633
:1087D0007B21FFF719FF00232371204610BD000005
:1087E00013B504460191FFF7E1FF2368019ADB68A6
:1087F00003492046984701232046237102B010BD4B
:1088000043BB0D0013B504460191FFF7CFFF23686A
:10881000019ADB68034920469847012320462371CB
:1088200002B010BDE7BC0D002DE9F0410D46174622
:108830002221DFF8A08004462F44FFF7E5FE2946F9
:10884000BD422A4638D015F8016B222E03D05C2E8B
:1088500001D01F2EF4D82368521A9B6820469847EF
:108860005C212046FFF7D0FE0D2E0AD8072E1CD91A
:10887000A6F10803052B18D8DFE803F00D0F111738
:108880001315222E01D05C2E0FD131462046FFF762
:10889000BBFE2946D4E76221F8E77421F6E76E2192
:1088A000F4E76621F2E77221F0E723683246DB68DD
:1088B000414620469847ECE78D4204D023686A1A67
:1088C0009B682046984722212046FFF79DFEBDE881
:1088D000F08100BFA0C00D0013B50446CDE9002112
:1088E000FFF764FF2046DDE90021FFF79DFF02232B
:1088F0002046237102B010BD13B50446CDE9002116
:10890000FFF754FF2046DDE90021FFF78DFF01232B
:108910002046237102B010BD80680368DB681847E9
:108920007047084611B10B685B681847704770477D
:1089300070477047704738B504460D4600682E21D1
:1089400002F0D5FC2368C31A2B6023B1037803B16E
:10895000013023682060184638BD10B50C2104464C
:1089600001F0AAFF204610BD10B50421044601F015
:10897000A3FF204610BD10B50421044601F09CFF62
:10898000204610BD08B502F0BCFCB0FA80F04009EA
:1089900008BD704710B50C4601F0A8FD844210D008
:1089A00001F01CFD844205D101F018FDBDE8104026
:1089B00001F011BD2CB1236820465B68BDE8104072
:1089C000184710BD13B504460846019102F0C9FCD2
:1089D00001990246204602B0BDE81040FFF78CBF67
:1089E00013B504460846019102F0BBFC23680199C7
:1089F000DB680246204602B0BDE81040184707B5C4
:108A000003688DF80710DB6801220DF10701984714
:108A100003B05DF804FB0EB403B503AB002153F8BB
:108A2000042B006A019301F0A9F802B05DF804EB91
:108A300003B070472DE9F74FD0E900954FF01408C7
:108A400008FB05F50093AB10184D17465D434C46E7
:108A5000002D23DD6E1008FB06F004EB000A3A46F9
:108A6000BAF804B0205801915F4528BF5A4602F079
:108A700080FC0199012378B95F4503D1009A1370F6
:108A80003546E5E78CBF012000200028F8D0AE1B5A
:108A90000AF11404013EF3E7C00FF6E7A4EB090462
:108AA0000248A410604303B0BDE8F08FCDCCCCCC1D
:108AB0007FB50369067E01910BB301B3002500F178
:108AC0000C04039503A901A8FFF735FF0146B0B1D7
:108AD0000DF10B03039A8DF80B502046FFF7AAFF08
:108AE0009DF80B305BB12468142303FB004000F1B8
:108AF0000804B0F90630002BA8BFDEB2E2E730462A
:108B000004B070BD10B5094C2378BFF35B8FDB0751
:108B100009D42046FBF7D0FA28B12046FBF7D1FA5A
:108B2000034802F037FB034810BD00BF6CE503208B
:108B30002F890D001CDE032010B5094C2378BFF3EC
:108B40005B8FDB0709D42046FBF7B6FA28B1204635
:108B5000FBF7B7FA034802F01DFB034810BD00BF46
:108B600070E5032093890D0020DE032038B5002531
:108B70000446C0E90055C0E904558560856140F8A8
:108B8000245FFEF703FBFFF7BDFFE061FFF7D4FFB3
:108B900025732062204638BD10B50A4C2378BFF3F8
:108BA0005B8FDB070CD42046FBF786FA40B1064802
:108BB000FFF7DCFF2046FBF784FA044802F0EAFAEC
:108BC000014810BD68E5032078E5032001900D0001
:108BD000024A034903480023FEF7E8BC898E0D00D2
:108BE000158E0D00958D0D0000231A461946184666
:108BF000FEF7DCBC70B58AB00D46014604A8FCF750
:108C0000E8FE144E04A8FFF7B5FDE8B104A96846D4
:108C1000FCF7F0FE02983146FFF7B4FE044610B1AF
:108C20002C1E18BF012401A8FBF780FE002CE9D000
:108C300004A96846FCF7EFFE6846FFF73EFD286092
:108C400001A8FBF773FEDDE705A8FBF76FFE0AB08E
:108C500070BD00BFA6C00D0037B50C4620461249B6
:108C6000154602F04EFB48B901F040FC4FF4165196
:108C700001F02CFC01F03AFC03B030BD0B4920465A
:108C800002F03FFB70B94FF4165301A92846019337
:108C9000FFF7B0FF01F0A2FB019901F099FB01F091
:108CA0009DFBE9E70020E7E7ABC00D00B2C00D0077
:108CB00070B5D0E900531426044606FB0356AE42B5
:108CC00005D005F10800FFF7F3FF1435F7E720683A
:108CD000FEF786FD204670BD70B5D0E9005304460E
:108CE00005EB0316AE4204D0284601F053F81035C8
:108CF000F8E72068FEF774FD204670BD10B5044605
:108D00000C30FFF7D5FF2046FFF7E6FF204610BDE9
:108D100010B5044B044640F8043BFFF7EFFF204634
:108D200010BD00BFA4B80D0010B50446FFF7F0FF5A
:108D30002046242101F0C0FD204610BD10B5034B94
:108D400003600446FFF7E4FF204610BD4CC10D0050
:108D500010B50446FFF7F2FF2046242101F0ACFDD8
:108D6000204610BD0022C0E9002210B582600C68C8
:108D700004604C6844608C680A604A6084608A6061
:108D800010BD10B5036804461868FEF717FA2046B0
:108D900010BD00002DE9F04F87B0804603931C4BB7
:108DA0005B68C3F30803894616466BB9FFF7F4FE08
:108DB000044600F12403406A0593FEF7F7F9237B8C
:108DC0002BB105A8FFF7DDFF07B0BDE8F08F012349
:108DD0002373D4E900535FFA89F905EB830AAA45A6
:108DE00012D055F8047B3146381DFFF761FE8145EE
:108DF000F5D33B68039A0092D3F808B04A4633464D
:108E000041463846D847EAE700232373D9E700BF35
:108E100000ED00E02DE9F74F9B461A4B5B68C3F36A
:108E200008038046894616466BB9FFF7B5FE04462F
:108E300000F12403406A0193FEF7B8F9237B2BB1BC
:108E400001A8FFF79EFF03B0BDE8F08F0123237355
:108E5000D4E90053F6B205EB830A55450ED055F818
:108E6000047B5946381DFFF723FE8642F5D33B6845
:108E70004A46DB68414638469847EEE700232373AD
:108E8000DEE700BF00ED00E02DE9F341164B5B6823
:108E9000C3F3080305460F461BBBFFF77DFE00F139
:108EA00024030446406A0193FEF780F9D4E9006385
:108EB000462406EB8308B04509D101A8FFF761FFFE
:108EC000A542B4BF0020012002B0BDE8F08156F8F1
:108ED000040B39460430FFF7EBFD8442A8BF04467B
:108EE000E9E70020F0E700BF00ED00E070B50446C0
:108EF000D0E900020B4600EB8202824207D0014615
:108F00001D6851F8046BAE4203D00846F5E7002017
:108F100070BD521A02F064F96368013B636001207E
:108F2000F6E71FB500F124030446406A019103935C
:108F3000FEF73CF901A92046FFF7D8FF18B1636896
:108F40000BB9FFF751FE03A8FFF71BFF04B010BDDC
:108F500070B5D0E904561823044603FB0656AE420A
:108F600015D005F110012046FFF7C0FF63680BB96B
:108F7000FFF73AFEE06929690368DB689847696989
:108F800019B1206A0368DB6898471835E7E7D4E928
:108F90000453182606FB0356AE4204D0284600F0C0
:108FA000F9FE1835F8E70023636170BD73B5044618
:108FB000FFF71AFE04F12403606A0193FEF7F6F846
:108FC0002046FFF7C5FF01A8FFF7DBFE606A08B186
:108FD000FEF7E4F8D4E90453182606FB0356AE4224
:108FE00004D0284600F0D6FE1835F8E72069FEF7D1
:108FF000F7FB2068FEF7F4FB204602B070BD0000CE
:109000000148FFF7D3BF00BF78E503208842F8B5D9
:1090100006460C46154627D9904226D2A2F11405E1
:109020006C1AA1F1140704440026AF423DD0A4B14C
:109030002B682360AB88A380B5F90630E380C4E9D0
:1090400002662661AB68A360AE60E368EA68E2602E
:10905000EB6023692A6922612B6105F10800FFF7A3
:1090600027FE143D143CE0E71FD00027AC421CD083
:10907000A6B123683360A388B380B4F90630F380C7
:10908000C6E902773761A368B360A760F368E26856
:10909000F260E360336922693261236104F1080000
:1090A000FFF706FE14341436E0E7F8BDF8B5D0E952
:1090B00001539D4204460E4617460DDB0135002D37
:1090C000006804DDA900FEF793FB18B9F8BDFEF7B0
:1090D00087FB00202060A5602568626805EB86019B
:1090E0009200A2EB8602081D02F07AF845F826707D
:1090F0006368013363600120E8E737B500F12403BA
:109100000446406A01930D46FEF750F8D4E9003159
:1091100003EB810083421A460BD01268AA4203F186
:109120000403F7D101A8FFF72CFE0025284603B061
:1091300030BD2A462046FFF7B9FF05460028F1D08A
:109140006368012B01D1FFF743FD01A8FFF719FE6A
:10915000ECE78842F8B504460D46164614D990420D
:1091600013D2A2F11006751AA1F110072C44B742D0
:1091700018D01CB13146204600F088FE304600F081
:1091800009FE103E103CF2E70CD0B5420AD01CB1EB
:109190002946204600F07AFE284600F0FBFD1035F7
:1091A0001034F2E7F8BD70B50E1E054611DD300132
:1091B000FEF70EFB044658B1D5E9001201EB02128E
:1091C000FFF7C7FF2868FEF70BFB2C60AE6001209D
:1091D00070BD0024F6E72DE9F04F914697B00023CB
:1091E0000391D9F804100C9346229942C0E9003348
:1091F000C0E90233C0E90433CDE90A3304460276FC
:1092000023DCD9E90057142303FB0757AF423BD0B7
:1092100029460DA800F03AFE0DA911A80B9E00F0FA
:1092200035FEDDE90B1399421BDA0A9B0B9A03EB1F
:10923000061603EB0212314606F11000FFF789FF14
:10924000EEB90B9B01330B9311E00AA8FFF7ABFFBC
:109250000028D6D10AA8FFF73FFD204617B0BDE889
:10926000F08F01310AA8FFF79EFF0028DDD111A879
:1092700000F090FD0DA800F08DFD1435C6E711A992
:10928000304600F003FEDCE70026CDE90D660F96C0
:1092900037464FF0140ADDE90A239E4280F2978098
:1092A0003301D35808930BB90136F4E70AFB06F3F0
:1092B000099702930DAD09A908A8FFF73CFB834667
:1092C0000028F1D00146099A8DF81F700DF11F0397
:1092D0002846FFF7AFFB9DF81F800190B8F1000F03
:1092E00066D1BDF82430ADF84830CDE913884FF68B
:1092F000FF73CDF844B0ADF84A30CDF85480D5E9CD
:10930000013293421ADB03F1010BBBF1000F4ADD7E
:109310000AFB0BF0FEF75CFA0490002845D0D5E973
:1093200000120AFB0212FFF771FE049B28680493E7
:10933000FEF756FA049B2B60C5F808B0019BD5F8E0
:1093400000B06A680AFB03F30BEB030101F11400A0
:109350000AFB02B204910593FFF758FE0499A9B1E4
:10936000059B119A4BF80320BDF848308B80BDF95E
:109370004A30CB80C1E902770F61139B8B60149B4D
:109380001397CB60159B14970B6115976B6801338E
:109390006B6013A8FFF78CFCB8F1000F08D00DA884
:1093A000FFF786FC56E74346C0E74FF00108F0E7B9
:1093B000019B2D680AFB0355089B1B782BB9D9F834
:1093C0000030029A13441B7CEB80083573E7216858
:1093D000226062686360A3680B920C9A0C93E36846
:1093E000A2600D9A0D932369E2600E9A0E93636951
:1093F00022610F9A0F93039B0A9162612376CEE755
:109400007FB50546094B45F8043B04460E4601A8C6
:109410001146FBF73EFB01AA31462846FFF7DBFE6B
:1094200001A8FBF7F5FA204604B070BDA4B80D0002
:10943000F0B50F4687B026490C9C384616461D46A7
:1094400001F05FFF00BBE4B129466846FFF78AFCE4
:109450002049242001F032FA054670B1694603A87C
:10946000FBF717FB03AA31462846FFF7C9FF03A8FD
:10947000FBF7CEFA184B2C622B606846FBF7C8FA54
:109480002C46204607B0F0BD1449384601F039FF9C
:10949000E0B9002CF5D029466846FFF763FC0D497A
:1094A000242001F00BFA05460028E6D0694603A8FF
:1094B000FBF7EFFA03AA31462846FFF7A1FF03A8FE
:1094C000FBF7A6FA064B2B602C62D6E70024D8E700
:1094D000BAC00D0088C20D004CC10D00BEC00D0009
:1094E00034C10D00014B024A1A60704774E5032035
:1094F000CFC00D002DE9F047089DD0F8209004461C
:109500000E461746984600F0F1FF81454CD02B7966
:10951000190704D56A6954492046FFF77CFAB8F167
:10952000000F0DD05B212046FFF769FA4146204627
:10953000FFF756FA23684D49DB6802222046984718
:109540002B79DA0723D5D5F808802F21404601F082
:1095500035FF08B100F1010841462046FFF740FA07
:109560002B799B0708D53A212046FFF748FAEA688D
:109570003F492046FFF74FFA2A79236812F0040F7B
:10958000DB6814BF3B493C490222204698472B79AF
:1095900058071DD529690B461A4613F8010B60B10F
:1095A000202808D11946F7E7344800F066F900286A
:1095B000ADD0BDE8F0872828EED12368521ADB68C9
:1095C0002046984723682E49DB68042220469847A6
:1095D00000213846FDF7E2FF01462046FFF700FA7A
:1095E00023682549DB680222204698471EB1314690
:1095F0002046FFF7F5F92B7913F0300F2CD02368B4
:109600002049DB680222204698472B79D9060AD5E3
:1096100023681D49DB68072220469847AA691B4931
:109620002046FFF7F8F92B799A0611D5DB0605D508
:1096300023681049DB6802222046984723681449B2
:10964000DB6820460A229847E9692046FFF7C8F9F7
:109650005D212046FFF7D3F923680E49DB682046D9
:109660000222BDE8F0471847D3C00D00DAC00D0054
:1096700043BB0D00DDC00D00E2C00D00A0E50320DE
:10968000E0C00D00E5C00D00E8C00D00F7B60D000C
:10969000F0C00D00FBC00D002DE9F04385B0D0F8FF
:1096A00020900C9C05460F4690461E4600F01EFF7B
:1096B000814505D1494800F0E0F8002840F08A8053
:1096C0002B6A474A01924FF0000901A803938DF8D5
:1096D0000890FFF778F849464046FDF75FFF41499B
:1096E0008046012201A8FFF7F7F84146FFF76AF923
:1096F0003FB13D49012201A8FFF7EEF83946FFF7D7
:1097000061F93EB13949012201A8FFF7E5F8314678
:10971000FFF758F92379DF070ED5A6682F213046C9
:1097200001F04CFE00B1461C3149012201A8FFF7AF
:10973000D3F83146FFF746F923799E0707D52D491F
:10974000022201A8FFF7C8F8E168FFF749F823797A
:10975000580714D5266933461F4613F8012B2AB142
:10976000202A01D11E46F7E7282AF5D122490222F4
:1097700001A8FFF7B1F8BA1B3146FFF7BDF823790E
:10978000190707D51D49012201A8FFF7A5F861694E
:10979000FFF738F82379DA0608D5042218490DEBCB
:1097A0000200FFF799F8A169FFF71AF823799B06E1
:1097B00007D51449062201A8FFF78EF8E169FFF7E3
:1097C00001F901A8FEF7E9FF286A0F4903680222A0
:1097D000DB68984705B0BDE8F08300BFA0E5032033
:1097E0001CC10D00B0C00D00FEC00D0000C10D0079
:1097F00007B60D0002C10D0005C10D003BBA0D00FA
:1098000008C10D000DC10D00FBC00D000023406814
:109810001A46FDF77DBF406800220221FDF788BF90
:10982000002240681146FDF77BBF002240681146C8
:10983000FDF786BF002340681A461946FDF788BF2A
:10984000002340681A461946FDF78ABF4068002188
:10985000FDF7AEBF40680021FDF7B2BF40680022AF
:1098600081F00101FDF784BF40680022FDF790BF41
:10987000002240681146FDF793BF00224068114660
:10988000FDF77EBF2DE9F043002495B016460D4646
:109890000746FEF723FE214618220EA8009401F089
:1098A000B9FC4023CDE90C3421466B460CAA304666
:1098B000FDF77CFD0446002846D102460121686878
:1098C000FDF73EFF0221804622466868FDF738FF1B
:1098D000009E81462146002E36D0002934D173687F
:1098E000022B03D00A2B0BD0F669F4E7B8F1000F76
:1098F00004D0716938460431FEF71DFE4146F3E796
:10990000B9F1000F01D14946EEE77469102201A8B0
:1099100001F080FC06238DF8143001AD04F108033A
:109920001834186859682A4603C20833A3421546FA
:10993000F7D101A906A807ADFEF7DEFD0FCD3C1D4E
:109940000FC42B682370DEE70098FDF727FD38462B
:1099500015B0BDE8F0830000024B034A1A600022F4
:109960005A607047A0E5032094C10D0008B500F0CF
:109970007FFFBDE80840FEF739BD10B50446017011
:1099800009B1FFF7F3FF204610BD08B500F070FFE6
:10999000BDE80840FEF733BD10B5037804460BB1AF
:1099A000FFF7F3FF204610BD10B504460068FFF72F
:1099B000ECFF204610BD30B587B00D460190FFF793
:1099C000D5FF6B238DF808300023012403930A236D
:1099D00005938DF8104000F04BFF02A9FEF7EAFC5A
:1099E00000F046FF036829469B68984700F040FF57
:1099F0002146FEF7F7FC039400F03AFF02A9FEF7B8
:109A0000A9FC00F035FF03685B699847044601A88C
:109A1000FFF7CAFFE0B207B030BD70B586B014469C
:109A20000D460190FFF7A2FF6B238DF8083000234D
:109A3000039301260A2305938DF8106000F018FFA8
:109A400002A9FEF7B7FC00F013FF036829469B68E4
:109A5000984700F00DFF036821469B68984700F087
:109A600007FF3146FEF7BEFC01A8FFF79DFF06B0D9
:109A700070BD13B504460190FFF778FF0121204621
:109A8000FFF799FF00F0CF0040F0100201212046BF
:109A9000FFF7C3FF01A8FFF787FF012002B010BD49
:109AA00013B504460190FFF761FF01212046FFF73F
:109AB00082FF012100F0CF022046FFF7AEFF01A890
:109AC000FFF772FF012002B010BDF8B506460D4643
:109AD0008F180024BD420CD0336815F8011B9B6819
