:02000002D0002C
:1040000000400D0074CE0D00000006000D000501FB
:084010000401FD08000000009E
:04401800B0C00D0027
:1040200009480A49884208B505D0094A824202D0A7
:10403000121A07F017FE0748074A0021121A07F064
:1040400039FE014808BD00BFA4DC032048CD0D00A7
:10405000A8DD0320A8DD0320EDE7032070B5074E9F
:10406000074C07F0D9F8A41BA4080025A54200D1ED
:1040700070BD56F8043B98470135F7E710CD0D00A9
:104080003CCD0D0000F0F0BB08B500F071FDBDE8BF
:10409000084007F079B804F00DBC04F00BBC04F044
:1040A00011BC000008B5034A00210C2004F0DAFA24
:1040B000FEE700BF05830D000078B0FA80F04009EC
:1040C00070470123037070477047006A0368DB681C
:1040D00018470000014B01221A707047E0E20320EC
:1040E000014B01221A70704709E3032010B5034BFE
:1040F0000360044602F029FD204610BD88C30D0070
:1041000010B50446FFF7F2FF2046102107F06EF9C4
:10411000204610BD0A4B10B50446036005F0F0FBC5
:10412000214605F0B2FD06F0E7FF06F0D9FF204674
:10413000044B40F8043B05F095FC204610BD00BF41
:1041400070C30D0058C30D0010B50446FFF7E2FF21
:104150002046242107F04AF9204610BDF8B5037D1A
:1041600005460F4616468BB10368DB6883B19A8813
:10417000012A06D09B68F9E79B684BB19A88012A0F
:10418000FAD12BB19A89BA42F6D19E732846F8BD6E
:104190000A49102007F02CF9044668B110220021CA
:1041A00007F088FD064B23600123A3802B69A360E1
:1041B000A781A6732C61E9E72875E7E7B4CB0D006A
:1041C000100003000EB410B58DB00FAA016852F8AC
:1041D000044B039200232020CDE90403CDE90042E3
:1041E0001E2004AA04F04EFA0DB0BDE8104003B042
:1041F0007047000010B57F2404700024C0E901441A
:10420000C0E90344C0E905444968034C5268C461ED
:10421000C0E90814826210BD04C60D0010B5044642
:10422000243001F0FBF904F11C0001F0F7F92069DA
:1042300008B1FFF734FF606808B1FFF730FF204690
:1042400010BD000038B5174D174C2B78BFF35B8FAE
:1042500013F0010F0BD12846FFF72EFF38B106F0FF
:104260004AFEC117C4E900012846FFF72AFF06F0FD
:1042700042FED4E90023C117994208BF90420FD0F3
:1042800006F039FE094A138801331380084A13885F
:10429000C11701331380C4E90001064B00221A70D4
:1042A00038BD00BFB4DD0320C0DD032054E003208F
:1042B00010DF0320E0E20320F0B5254D254C264B0E
:1042C0002A7821788FB003EB0212009203EB0113DE
:1042D000224A282104A804F015FB2B78237004F04F
:1042E00061FA00282ED01E4C04F014F8D4E90032F4
:1042F000C61A62EB42074FF47A720023B242BB4106
:1043000020DA04F007F800236360164B20601B7866
:104310008DF8003014493C2304AA02A804F0EEFCF6
:10432000039C7CB16368013B63605BB923682046F2
:104330009B689847A368013BA3601BB9236820468C
:10434000DB689847094804A9FFF73CFF0FB0F0BDB0
:10435000E1E20320ACE20320A4DC0320C4C00D0092
:10436000D0DD0320B8DD0320D2C00D008CE5032092
:1043700030B585B00D4600226946009204F09AF9E6
:10438000B0B9009C0CB1236923B90A4A00210A2064
:1043900004F068F90023ADF806300C23ADF80430C2
:1043A000042303930295236901AA0121204698471B
:1043B00005B030BD05830D0007B5032001A9FFF747
:1043C000D7FF40B9BDF8043000EE103ABBEECC0A7E
:1043D00003B05DF804FBBFEE000AF9E7F0B57149E0
:1043E0007148AFB0FFF7EEFE0121072006F095FF00
:1043F000FFF7E2FFFCEEC07A1EA9CDED077A072099
:104400009DF81C50FFF7B4FF041E6848A8BF1E9C0F
:1044100002F07DFD664B0E93664B8DF843401B8882
:104420008DF83E301A12644B8DF83D201B888DF8B4
:1044300040301A1255238DF84130604B8DF83F20E3
:104440001B788DF844305E4B8DF842501B788DF808
:1044500045305C4B1A788DF84820511C40BA1970D1
:1044600000265949ADF846004F488DF83C60FFF7EB
:10447000A9FE56480096012311220EA902F064FFFE
:104480000446002840F08C80F92351494648514D9C
:104490008DF82630FFF796FE0DF127030093CDE946
:1044A0000344CDE90144494840F6B8330DF12602F2
:1044B000294603F04FF800286DD09DF826303B4880
:1044C000EC549DF82730079302F021FDAF789DF85A
:1044D00048604149414A079BB74218BF0A46CDE9A7
:1044E000000240213E4A1EA804F00CFA2E481EA9E4
:1044F000FFF768FED5F803203A492B4812BA079215
:10450000FFF760FE079A2146104606F0DEFB2346C1
:10451000079A13A806F0ECFB139B079A324922482E
:10452000FFF750FE13A806F03BFAB5F807202F4915
:104530001D4852BA92B2FFF745FEEB792C7A2C490E
:1045400044EA03242B4B0AA8DC8301F019FA2A4918
:104550000CA801F015FA0CAA0AA913A8FFF74AFE45
:1045600013AA2146254802F0D6FA13A8FFF756FEF3
:104570000CA801F053F80AA801F050F8204B0122D2
:104580001A7003F0C7FE1F4B00211860072006F0C9
:10459000C4FE2FB0F0BD1C490348FFF713FEF0E73F
:1045A0001A49F9E7F0C00D008CE5032014DF032061
:1045B0000000FFFE54E0032010DF032000F403207E
:1045C000FCDD0320C8DD032003C10D0074E10320DE
:1045D00016C10D00FDDD0320E3C00D00E5C00D0098
:1045E00023C10D004AC10D0057C10D0078C10D0057
:1045F00092C10D00E4E203209BC10D00B0E2032054
:1046000008E3032058E00320A4C10D00C8C10D0039
:1046100070B5D0E900531426044606FB0356AE429B
:1046200004D0284606F0BCF91435F8E7206804F0F9
:1046300049F9204670BD8842F8B504460D46164635
:1046400016D9904215D2A2F11406751AA1F11407D9
:104650002C44B7421CD02CB13146204606F01CFA3F
:10466000337C2374304606F09BF9143E143CF0E78B
:104670000ED0B5420CD02CB12946204606F00CFADB
:104680002B7C2374284606F08BF914351434F0E79C
:10469000F8BD2DE9F0410023C0E9003383604F6885
:1046A0009F4204460E4623DD4FF0140808FB07F036
:1046B00004F000F90546D8B1D4E9001208FB021253
:1046C000FFF7B9FF206804F0FDF82560A760D6E980
:1046D000007308FB0378B84508D03946284606F031
:1046E000F5F93B7C2B7414371435F4E77368636079
:1046F0002046BDE8F08100002DE9F041484B494AD1
:10470000494D01261E70494B00248CB09A601C60F4
:104710009C809C71032003F0DFFF2146304603F0AC
:10472000F3FF3146042003F0D5FDCDE900440294A7
:1047300006F0E2FC6946074603A8FFF7AAFFA84671
:1047400003A906A8FFF7A5FF394B48F8043B06A9C3
:1047500009A8FFF79EFF09AA1E21404605F0EFFBBE
:1047600009A8FFF755FF06A8FFF752FF314B2B6052
:104770002F6203A8FFF74CFF2F4B2B6006F0BCFC09
:104780004FF4165106F0A8FC05F0BAF8294605F0DA
:1047900068FB6846FFF73CFF284B294DA3F809400A
:1047A0001A46191D42F8091B9470264A1E75C3E962
:1047B00003445A601C7206F0F5FD234601464FF48F
:1047C0000052284602F0CEF91F4B2B6006F0EAFD9E
:1047D0001E4D014669221E4800F0DCFA1D4928469C
:1047E00006F029F900221C482C610023C5E90623A4
:1047F000C5E90844AC620623184C40F8043B01F0BC
:10480000E9F9174B02220E21204603F09DFA0A22F5
:104810002146144802F08EFD0CB0BDE8F08100BFC7
:10482000B8DD03200000FFFF50E10320A8DD0320D6
:1048300058C30D006CCA0D0070C30D00F8DE0320D4
:1048400044E003201000030088C30D00B0E2032001
:10485000DCDD032030CA0D0060E0032014DF0320FC
:1048600024E3032074E1032030B50121A1B0072027
:1048700006F042FD0321132006F03EFD0022114602
:104880000AA80A9203F02EFD0A9B142B4FF0000297
:1048900040F0C980704A13780133DBB2062B1370E5
:1048A00000F2CB806D4802F0B7FF18B96C496D4833
:1048B000FFF788FC9FED6C0A6C486D4D03F084FA9D
:1048C00000226A48172103F0F9FB6A4808230121F6
:1048D000438100F06BFD7C21664800F04BFB66488D
:1048E00002F04AF9644801230DF11702002102F099
:1048F00085F99DF81740012C00F0A3805F495948C5
:10490000FFF760FC5C4802F041F95D4A5A48042315
:10491000002102F0BEF9012357480DF117020021D2
:1049200002F06CF99DF81730012B01D001232B7098
:10493000FFF742FD10EE100A06F0CCFE0B460246D1
:10494000CDE9022306F0BAFA4E4C4F49002814BFB5
:1049500008462046DDE902234C4900904148FFF714
:1049600031FC01F0A5FB4A4904460AA801F0E4F92C
:104970000BA904F1080006F09AF8109BE36111A955
:1049800004F1200006F093F8169B6363189BE36321
:104990001A9B63641C9BE3641E9B63659DF87C30DB
:1049A00084F858300AA800F051FE06F0A4FA3949FC
:1049B0000246C3170846C1E9182301F0F1FB364B44
:1049C0003649DC8B06A800F0DBFF354908A800F06B
:1049D000D7FF08AA06A90AA8FFF70CFC21460AAAD5
:1049E000304802F098F80AA8FFF718FC08A800F071
:1049F00015FE002406A800F011FE2B4900944FF08C
:104A0000FF330122132004F0B9FB4FF0FF33274995
:104A100000942246042004F0B1FB2B780BB902234A
:104A20002B7021B030BD11460AA80A9203F05AFC3F
:104A30000A9B8C2B7FF436AF2CE71D4B0D221A708E
:104A400030E71C490748FFF7BDFB134A0A482423F7
:104A5000214602F0D3F86BE700F4032074E1032051
:104A6000FFC10D008CE5032000C0644414DF032067
:104A7000E1E20320DCDD032044E003200BC20D0053
:104A80009CC30D00F5C10D00F9C10D0034C20D002D
:104A900064C20D0060E00320E4E2032092C10D0037
:104AA0009BC10D00B0E20320D5400D00E1400D0098
:104AB000FCDD032018C20D0030B5C1B006F01BFAB2
:104AC000204C214DC117C4E91801204601F068FBB4
:104AD0002A68214604A801F045FA049A1B491C489B
:104AE000FFF770FB04A805F05BFF062305A80493FD
:104AF00001F070F806F0FFF9C117CDE91C0104A818
:104B000001F04EFB134804A901F0B0FEC0B12A68C1
:104B100004A9684601F026FA236E1C9A0E490C4837
:104B2000D31A009AFFF74EFB684605F039FF206E56
:104B30001C9C241A05A800F089FD204641B030BD18
:104B40000446F7E760E003203CDD03208BC20D0044
:104B50008CE50320B0E203209AC20D0008B506F0F0
:104B6000ADF918B1BDE80840FFF7A6BF08BD0000C9
:104B7000F0B55C4C2378032B85B02ED0072B00F0CA
:104B80008E80022B76D1584B1B78022B01D0FFF779
:104B900093FB564801F0A0FE40B155495548FFF738
:104BA00011FB554B01221A700723237006F086F97A
:104BB00000285FD1514D03F0ADFB2B68C01A4EF6B3
:104BC0006023984256D94E494A48FFF7FBFA03F052
:104BD000A1FB0723286023704CE0434B1B78032B79
:104BE00001D0FFF769FB0021464800F0C3F9FFF749
:104BF000B5FFA0F10A073A4643493E48FFF7E2FAFB
:104C0000424B1A7D0AB102221A7240480022042146
:104C1000FFF7A4FA037D0646EBB133684FF47A70D0
:104C2000DB68474323B19A88042A58D09B68F9E788
:104C30003749102006F0DCFB054600284DD0102235
:104C4000002107F037F8334B2B600423AB80336926
:104C5000C5E9023735612D4901A805F0B3FF2948A0
:104C60004FF0FF3100F086F901980223237008B15C
:104C700003F028FE234800F079FC1F4B1B780BB192
:104C8000FFF7E0FA244C23783BB12423234A24483D
:104C9000012101F0FEFF0023237005B0F0BD0A20C2
:104CA00005F0A2FD104B22781B789A42054601D0F0
:104CB000FFF702FB1B490F482A46FFF783FA4FF420
:104CC0007A70684303F066FEFFF788FB06F0F6F89B
:104CD00008B103237FE702237DE73075BBE7DF6080
:104CE000B9E700BFE1E20320ACE20320B0E2032019
:104CF000CEC20D008CE50320E0E20320D8DD0320C6
:104D0000F3C20D00DCDD032015C30D00F8DE032027
:104D1000B4CB0D001000030008E30320E4E20320FD
:104D200044E003202AC30D00704710B5202104463B
:104D300006F05CFB204610BD0EB410B58DB00FAA76
:104D4000016852F8044B039200232020CDE90403AC
:104D5000CDE90042012004AA03F094FC0DB0BDE8A7
:104D6000104003B070470EB410B58DB00FAA0168A3
:104D700052F8044B039200232020CDE90403CDE92F
:104D80000042322004AA03F07DFC0DB0BDE81040C3
:104D900003B0704710B50272FF2242810022C0E9C1
:104DA000032242610276C261024A034C1060C0E9EC
:104DB000004110BD10E303208CC50D002DE9F84320
:104DC0009DF820800446894616461F46B8F1000F1C
:104DD00002D0406804F0BEF9217A606804F0AFF9AF
:104DE0006068036849469B6898476068002104F042
:104DF000ADF9054600BB0123217A60683A4604F00C
:104E00008CF98742034609D13744BE421CD0606802
:104E100003685B69984706F8010BF6E70B490C48F5
:104E20004A46FFF7A0FFB8F1000F02D0606804F017
:104E30009AF92846BDE8F8830346064904484A46DD
:104E4000FFF791FF0025EEE70125ECE7A0C30D0079
:104E50000CE30320C5C30D0007B500930123FFF742
:104E6000ADFF03B05DF804FB73B54389FF2B044627
:104E700010D0194E194D03F04DFAB0F57A7F09D2D2
:104E8000608906F063FA012804D031462846FFF70E
:104E900099F9F0E701230DF1070228212046FFF7D9
:104EA000DBFF30B90D480E49FFF78CF9002002B046
:104EB00070BD9DF80730182BF4D101230DF10702C6
:104EC00029212046FFF7C8FF0028EBD09DF80730C6
:104ED000052BE7D1EBE700BFE9C30D000CE303208E
:104EE000FEC30D002DE9F0419DF8188004460F46E1
:104EF00015461E46B8F1000F02D0406804F02AF9AA
:104F0000217A606804F01BF96068036839469B6881
:104F100098472E44B542606805D0036815F8011B18
:104F20009B689847F6E7012104F010F9034670B139
:104F3000084909483A46FFF716FF0025B8F1000F67
:104F400002D0606804F00FF92846BDE8F081012521
:104F5000F4E700BF0BC40D000CE303201FB58DF870
:104F60000F2000930DF10F020123FFF7BBFF05B0E7
:104F70005DF804FBF8B50A460C4605461A491B487D
:104F8000FFF720F9002CB8BFEC687CB9012322465A
:104F90001B212846FFF7E2FF154902460646134843
:104FA000FFF7CAFEEC606C613046F8BD032C19DDDA
:104FB000A7101F2FA8BF1F27BA0062F07C02012391
:104FC000D2B21B212846FFF7C9FF3A4603460949DA
:104FD00006460648FFF7B0FE4FF4FA635F43EC6005
:104FE0006F61E1E70127E7E730C40D000CE3032020
:104FF0003AC40D0056C40D000B4607490246086826
:1050000048B1002B08BFB2F5006F04D1C36813B1DB
:105010000021FFF7AFBF704710E303202DE9FF41E8
:105020009DF82880054616461F46B8F1000F04D0AB
:105030004068019104F08EF80199019100230DF16F
:105040000F022846FFF708FF044660B19DF80F30B5
:1050500003EA06023A43934205D001990023284609
:10506000FFF77CFF0446B8F1000F02D0686804F037
:105070007AF8204604B0BDE8F08113B514460DF16E
:105080000702FFF7E9FE28B19DF807301C420CBF6C
:105090000120002002B010BD13B514460DF1070227
:1050A000FFF7DAFE28B19DF807301C4214BF01203B
:1050B000002002B010BD07B5D2430093D2B2002346
:1050C000FFF7ACFF03B05DF804FB000037B5012328
:1050D0000DF107020F210446FFF7BEFE054638B961
:1050E0001E491F48AD22FFF73EFE284603B030BDE3
:1050F0009DF8073013F0200F4FF001030BD0202252
:10510000E3610F212046FFF7D6FF164A16491448DF
:10511000FFF758F8E9E7082217212046FFF7BCFF00
:1051200018B10223114AE361F0E79DF807301A072E
:1051300009D50323E361082201230F212046FFF74D
:10514000BAFF0B4AE2E75B07CFD50422E2610123F5
:105150000F212046FFF7AFFF064AD7E7A9C40D008D
:105160000CE303207AC40D00C8C40D0083C40D00F5
:1051700093C40D00A3C40D0007B500931346FF228E
:10518000FFF74CFF03B05DF804FB2DE9F3479DF8F2
:1051900028A005460C4691461F46BAF1000F02D0E2
:1051A000406803F0D7FF07B3202F3E4628BF2026D4
:1051B0007F2C26D83319802B01D9C4F18006012316
:1051C00004223F212846FFF776FF002364F07F0189
:1051D00000934A463346C9B22846FFF7EFFD8046A2
:1051E00028B13444BF1BB144DDE74FF00108BAF1E8
:1051F000000F02D0686803F0B6FF404602B0BDE879
:10520000F087012304223F212846FFF7B5FFDCE7A2
:105210002DE9F3479DF828A005460C4691461F4608
:10522000BAF1000F02D0406803F094FF07B31F2FBC
:105230003E4628BF1F267F2C26D83319802B01D944
:10524000C4F18006012304223F212846FFF733FFE3
:10525000002364F07F0100934A463346C9B22846D2
:10526000FFF740FE804628B13444BF1BB144DDE760
:105270004FF00108BAF1000F02D0686803F073FF25
:10528000404602B0BDE8F087012304223F212846B2
:10529000FFF772FFDCE7000030B585B00D68D1E99B
:1052A000043203954D6802958D680195C968009197
:1052B0000133044902F26C72044605F025FC2046D5
:1052C00005B030BDD9C40D0003110A2200F00F0053
:1052D00002FB0300704738B5044600781546FFF717
:1052E000F3FF08606078FFF7EFFF4860A078FFF7F2
:1052F000EBFF8860E078FFF7E7FFC8602079FFF7F1
:10530000E3FF013808612DB9651D2878FFF7DCFF40
:10531000886138BD6079FFF7D7FF6430A51D48610B
:10532000F3E7000070B5012388B00D461A4610213E
:105330000446FFF7A2FEF0B108230126204600969E
:105340000DEB03020021FFF739FD044698B1324608
:1053500029460DF10900FFF7BEFF04A8FFF79CFFE7
:105360000848049A0849FEF72DFF04A805F018FB29
:10537000204608B070BD24220021284606F09AFC81
:105380000024F5E70CE30320F7C40D0030B58BB023
:105390000D4601A9FFF7C6FF044620B101A803F09E
:1053A000F1FAC5E9000120460BB030BD10B5044646
:1053B00088B011B1406803F093FE2046FFF754FD1A
:1053C00070B32046FFF782FE01231A4610212046C3
:1053D000FFF753FED8B105F071FDC0B902A9204610
:1053E000FFF7D4FFDDE9020105F06FFC0F4B104918
:1053F0001B68009304A8DDE9022305F01DFD0D489C
:10540000049A0D49FEF7DEFE04A805F0C9FA0B4A1E
:10541000002300214FF4006003F06EF908B010BDC6
:1054200007490448FFF79FFCF1E700BF3CDD03207C
:10543000E0E503200CE3032005C50D00F94F0D0046
:1054400022C50D000A2290FBF2F302FB130093FB2E
:10545000F2F102FB113140EA0110C0B2704770B5A1
:10546000054600680C461646FFF7ECFF207068689A
:10547000FFF7E8FF6070A868FFF7E4FFA070E86836
:10548000FFF7E0FFE07028690130FFF7DBFF2071D4
:105490002EB9661DA869FFF7D5FF307070BD6A6927
:1054A000642392FBF3F003FB1020FFF7CBFFA61D54
:1054B0006071EFE7F0B587B0054602A816460C46C6
:1054C000FFF7EAFE1E48029A1E49FEF77BFE02A87D
:1054D00005F066FA16B1686803F03CFE204601222A
:1054E0000DF1090100278DF80870FFF7B8FF0123BF
:1054F0001A4610212846FFF73FFE0446E8B108236C
:1055000000970DEB030239462846FFF7EBFC0446F3
:1055100060B101231A4610212846FFF7CCFD16B1D1
:10552000686803F020FE204607B0F0BD4FF48D728E
:1055300005490348FFF717FCF1E74FF48F72F7E7CF
:105540000CE303203AC50D0048C50D0013B5044611
:105550006846CDE9002306F073FB9DF81020014654
:105560002046FFF7A7FF02B010BD0000F0B5057E92
:1055700089B0044675BB05F0A1FC58B3002600278E
:1055800004A92846CDE9046703F024F910B30125E6
:10559000257605F0B0FC00950246C3172046CDE9FC
:1055A0000223FFF7D3FF02A92046CDE90267FFF7E8
:1055B000EDFE124B12491B68009304A8DDE902239B
:1055C00005F03AFC0F48049A0F49FEF7FBFD04A8CA
:1055D00005F0E6F9636973B102F09CFE2369C01A15
:1055E0006369984207D302F095FE4FF0FF312061C6
:1055F0002046FFF7BFFC09B0F0BD00BF3CDD032033
:10560000E0E503200CE3032063C50D00014B024AD3
:105610001A6070470CE3032079C50D00704770478E
:1056200001207047012A08BF01600020704710B5B3
:105630000821044605F0DAFE204610BD10B5102101
:10564000044605F0D3FE204610BD000010B5054B02
:10565000044640F81C3B05F0A3F9201D05F0A0F915
:10566000204610BD24C60D0010B50446FFF7EEFF1E
:105670002046582105F0BAFE204610BD10B5044B57
:10568000044640F8043BFFF7E1FF204610BD00BF91
:10569000F4C50D0010B50446FFF7F0FF2046602169
:1056A00005F0A4FE204610BD20F00203012B03D01C
:1056B000431F5842584170471846704708B1FEF7DB
:1056C000EEBC704708B548B1B0F1005F01D305F0FA
:1056D00093FEBDE808408000FEF7DDBC08BD0B6806
:1056E00003604B68436013B15A6801325A607047D7
:1056F00090F9042091F904309A4213DB10DC90F900
:10570000052091F905309A420CDB09DC90F906205E
:1057100091F906309A4205DBCCBF0120002070478A
:10572000012070474FF0FF3070470000024A0260CE
:105730004A684260704700BF04C60D0091F904201A
:10574000027191F90520427191F90620827191F957
:105750000720C271704738B50C46054600F11C01A0
:105760002046FFF7C5FF002809DB05F1240120468C
:10577000FFF7BEFF0028D4BF0020012038BD4FF046
:10578000FF30FBE738B504460D460430043105F020
:105790008EF905F1140104F11400FFF7CFFF05F1B4
:1057A0001C0104F11C0005F082F905F12C0104F143
:1057B0002C00FFF7C3FF95F9383084F8383095F99D
:1057C000393084F8393095F93A3084F83A3095F91F
:1057D0003B3084F83B3005F13C0104F13C00FFF71D
:1057E000ADFF95F9483084F8483095F9493084F890
:1057F000493095F94A3084F84A3095F94B3084F8AD
:105800004B3005F14C0104F14C00FFF797FF95F880
:10581000543084F85430204638BD4A69036862F336
:10582000160303600B695A1C438862F3CA13438052
:10583000CA68C3F3072362F3C703C370704710B588
:1058400004468CB02422002103A806F033FA236812
:10585000C3F3160308936388C3F3C313013B079391
:10586000E37803A8DB08069303F08CF8CDE9000188
:1058700003A9684603F076F809980CB010BD30B55E
:1058800004468DB024220D4603A8002106F012FA2A
:105890002368E178C3F3160308936388C3F3C31343
:1058A000013B05EBD10503A80793069503F06AF8C1
:1058B000CDE9000103A9684603F054F803A9204686
:1058C000FFF7ABFF0DB030BD0368C1F31602C3F3A1
:1058D0001603934213D310D84288C1F3C353C2F3C3
:1058E000C3129A420BD308D8C378DB08B3EBD16F4D
:1058F00005D38CBF012000207047012070474FF076
:10590000FF307047024A026000224260704700BFC9
:1059100004C60D0030B5002387B0838083710D4627
:1059200005AB00931349044604AB03AA284602F0D2
:10593000E1FF032807D1039B2371049B6371059B3F
:10594000A37107B030BD0C4904AB03AA284602F08E
:10595000D1FF022804D1039B2371049B6371F0E7FC
:10596000064903AA284602F0C5FF012804BF039B8D
:105970002371E6E79CC50D009FC50D0037C40D00DF
:1059800010B5044B0360002304464360FFF7C2FFD9
:10599000204610BD04C60D0038B500257F230446FF
:1059A0000370C0E90155C0E90355C0E905550A492E
:1059B0001C30FFF7E5FF094904F12400FFF7E0FF81
:1059C000C4E90B550649656304F1380005F033F866
:1059D000A564204638BD00BFA5C50D00AEC50D00AD
:1059E00030CA0D0090F9043090F9052090F90610A6
:1059F000002BB8BF0848C2EB02124FEA8202BDBFBB
:105A000000FB0320401840424FF46160A4BF00FB3C
:105A100003235818704700BFF0F1FFFF90F90730DB
:105A200043B990F904308B6090F905304B6090F9E0
:105A300006300B60704790F9073030B5B3B990F974
:105A400004508C682C44D1E900328C6090F90540F8
:105A5000002DB5BF121B12194A604A60B5BF90F9FC
:105A6000062090F906209B1A9B180B6030BD38B5B4
:105A700044680546AB68A34207D02046FFF724FFE1
:105A800004340028F6D1012038BD0020FCE738B5E9
:105A9000046905466B69A34207D02046FFF714FF4F
:105AA00004340028F6D1012038BD0020FCE773B58E
:105AB00005460E46FFF7EBFF90B901A80191FFF7ED
:105AC000BEFE2B78314643FA00F42846FFF7CFFF9D
:105AD00004F00104002C08BF0446204602B070BD4B
:105AE0000024FAE72DE9F84300244568804626465D
:105AF0002746D8F808309D421ED067F3160966F392
:105B0000DA5964F3DF69B9F1000F09D12F686E88A3
:105B1000EC78C7F31607C6F3C316E4080435E8E7C4
:105B200067F3160166F3DA5164F3DF612846FFF785
:105B3000CBFE0028EADCF1E7002067F3160066F3ED
:105B4000DA5064F3DF60BDE8F8830000054A08B569
:105B500002600022034642600830FFF7D3FE184679
:105B600008BD00BF14C60D0000234360838183730A
:105B70007047000030B5044687B00D4611B10B7870
:105B80004D2B03D02046FFF7EFFF1BE005AB009342
:105B90000F4904AB03AA284602F0ACFE0328F1D15A
:105BA000039B2371049B6371059BA3712F212846DE
:105BB00006F0E0F840B1411C04F10800FFF7AAFE2E
:105BC0000123E37107B030BDA081A073F8E700BFE7
:105BD000B7C50D00104B114910B5044640F8043B01
:105BE00004F029FF04F11400FFF78CFE0B4904F1C7
:105BF0001C0004F020FF04F12C00FFF783FE04F1E9
:105C00003400FFF7A3FF04F14400FFF79FFF0023D8
:105C100084F85430204610BD24C60D0030CA0D0053
:105C20002DE9F74F0446084606F0CEF80025064653
:105C3000019004F134083F49019801AA06F04AF99D
:105C40000146002862D0012D05F1010353D0022D39
:105C500056D0002D46D1024692F80090B9F1400F7F
:105C60001546174602F10102F6D800222A7004F107
:105C70001C0004F036FF012285F8009084F85420BF
:105C80002A786AB397F800A00AF1FF323F2AB94692
:105C9000BB4607F10107F5D9002304F12C0789F869
:105CA000003029463846FFF735FE89F800A0BAF1E2
:105CB000000F15D05D461BF801ABBAF1400FF9D8C3
:105CC00000222A704946201D04F00BFF85F800A031
:105CD00004F11400BAF1000F06D02946FFF71AFEAE
:105CE0000125A8E71D46A6E73946FFF727FD237ED5
:105CF000013B2376F4E74046FFF73CFF02259AE795
:105D000004F14400FFF736FF032594E794F93B3094
:105D100043B194F94B202AB904F13400FFF724FF72
:105D200084F85420304602F0CDFD94F8540003B0BE
:105D3000BDE8F08FC1C50D0038B5134B04460D46C4
:105D400040F8043B114904F076FE04F11400FFF71B
:105D5000D9FD0E4904F11C0004F06DFE04F12C0085
:105D6000FFF7D0FD04F13400FFF7F0FE04F144002A
:105D7000FFF7ECFE002384F8543029462046FFF755
:105D80004FFF204638BD00BF24C60D0030CA0D00AD
:105D900008B50346FFF7B6FD8A681A714A685A715A
:105DA0000A689A71184608BD13B5074B03600023B3
:105DB000044643606846FFF7EBFF69462046FFF75D
:105DC000BDFC204602B010BD04C60D0091F907309D
:105DD00043B991F90430836091F90530436091F93A
:105DE00006300360704707B50023014601A8019300
:105DF000FFF713FD019803B05DF804FB194B70B574
:105E000004460D4640F8043B043104F05FFE05F102
:105E1000140104F11400FFF789FC05F11C0104F1E1
:105E20001C0004F053FE05F12C0104F12C00FFF7D7
:105E30007DFC0D4EAB6BA36305F13C01666304F181
:105E40003C00FFF773FCAB6CA364666405F14C0186
:105E500004F14C00FFF76AFC95F8543084F8543094
:105E6000204670BD24C60D0014C60D00F8B50C46C2
:105E700051F8043B074640F8043BFFF7BFFFD4E965
:105E8000182304F16806C7E918230FCE07F1680547
:105E90000FC50FCE0FC533682B60D4E9242304F15E
:105EA0009806C7E924230FCE07F198050FC50FCE3A
:105EB0000FC533682B60D4E93023C834C7E93023D9
:105EC0000FCC07F1C8050FC50FCC0FC523682B6099
:105ED0003846F8BD10B50446383004F061FD20693D
:105EE000FFF7ECFB6068FFF7E9FB204610BD10B53B
:105EF000044688B00846683001A905F075FE01A87F
:105F000005F07FFF08AB1844002300F81D3C01A9F1
:105F1000204604F090FD204608B010BD38B591F839
:105F2000583005460C463BB191F93F3053B901F169
:105F30003000FFF757FD28B90949284604F07BFDDA
:105F4000284638BD2068FFF7AFFB28B104F10801EF
:105F5000284604F0BBFDF3E704F12001F8E700BF99
:105F6000C3C50D002DE9F04F8046A9B00C4615467B
:105F70002AB14B4B1046196805F013FF38B921467A
:105F80004046FFF7B4FF404629B0BDE8F08F2946F0
:105F90003F2218A805F04FFF002318A88DF89F3066
:105FA00005F02FFF2146054603A8FFF7B7FF94F839
:105FB00058303BB194F93F3083BB04F13000FFF718
:105FC00011FD58BB374907A805F0F5FE18AF0026AC
:105FD00005F1FF3BB3454ED9BA4606F101091AF85F
:105FE000013B252B17D17B787A2B36D107A805F0FA
:105FF00008FF18AB05463018ABEB0602B91C184475
:1060000005F030FE2A4607A9384605F02BFE18A8F1
:1060100005F0F7FE054657464E46D9E72068FFF7DC
:1060200043FBB8B104F11800FFF7DCFC3C2190FB06
:10603000F1F3002BB8BF5B42B3FBF1F201FB12336B
:106040000093194A194B90FBF3F3102107A802F0B3
:1060500059FCBBE704F13000E6E75A2BDBD1059D84
:1060600018AB7019ABEB0602B91C184405F0FAFD29
:1060700003992A46C8E700212E220CA80B9105F0AF
:1060800019FE04F1680318AA32210BA802F062FC81
:106090000BA9404604F0CFFC03A804F081FC72E792
:1060A0003CDD0320C3C50D00C5C50D00F0F1FFFFA9
:1060B00038B5094D2B6863B96020FDF7ECFF044645
:1060C00030B1064B40F8043BFFF784FD6423E365E1
:1060D0002C60286838BD00BF14E30320F4C50D0010
:1060E00002F050BC01390B2915D8DFE801F0160881
:1060F000160616061616061606161E207047830785
:106100000DD1642290FBF2F302FB130000280CBFB8
:106110001C201D207047002070471F2070471C2046
:106120007047F8B50123CB6090F90430013B0B6157
:106130000023C1E9003306460C4617468B60204613
:10614000FFF7CEFF96F90630A2699A4203D0E368C2
:106150000133E360F3E796F90550012D13D0E368AE
:106160006069013DC5EBC5051D44E56096F9041065
:1061700000F26C70FFF7B6FF8542C4BF073DE560D3
:106180002046FFF7ADFF214606F10800FFF746FC69
:106190003846FFF750FC2046BDE8F84002F0F2BB5D
:1061A000F0B590F8583085B004462BB9FFF780FF62
:1061B000011D201DFFF7E6FA94F93F30002B69D04E
:1061C000D4E9182304F1980739463E4602A8CDE9E0
:1061D000022302F0C7FB0FCE04F1C8050FC50FCE96
:1061E0000FC533682B6004F1300102A8FFF79EFA57
:1061F00002AA394604F13800FFF793FFC4E92401ED
:1062000004F1180102A8FFF791FA02AA04F1C801EB
:1062100004F14800FFF785FFD4E924670B46864266
:10622000024677EB0301C4E93023D4E9180124DAEC
:10623000B04271EB070519DA002323602068FFF7ED
:1062400033FA04F16801D4E91867019120BB04F125
:106250003000FFF7C7FB361A67EBE077019902A819
:10626000CDE9026702F07EFB05B0F0BD904271EB14
:106270000303B4BF01230223DFE7904271EB030362
:1062800001DA0323D9E7B04271EB0703B4BF04235B
:106290000523D2E70623D0E704F11800D9E72DE95A
:1062A000704304460E460FCCDCB001AD0FC50FCCD9
:1062B0000FC523682B6001A802F064FB044606F1B9
:1062C0002C000D46FFF78EFB96F93B3014EB0008CF
:1062D00045EBE0791BB3062321A82093FFF77AFC56
:1062E00031460AA8FFF78AFD0AA921A8FFF74AFA52
:1062F00020A8CDE93889FFF753FF0AA8FFF7A6F9D0
:106300002098FFF7D1F938B106F11400FFF76AFBC6
:1063100014EB000845EBE07921A8FFF797F9404618
:1063200049465CB0BDE8708330B591F9073097B04D
:106330000446C3B900F168056846FFF7F7F96946F6
:106340002846FFF743FD211D6846FFF757FD6946C4
:106350002846FFF7A4FFC4E918016846FFF776F95D
:106360002046FFF71DFF17B030BD000030B5D0E963
:1063700018320B4D5B194FF0000585B045EB02025A
:10638000C0E9183204460191FFF70AFF019902A8FB
:10639000FFF7CCF902A92046FFF7C6FF05B030BDD4
:1063A000805101002DE9F0418AB0174606460D469E
:1063B0002422002101A81C4605F07CFC062F29D8C8
:1063C00029463046FFF78EFE002C804624DDA6F2DB
:1063D0006C76013D06960595012301A80493FFF70D
:1063E0007FFE079A049BBA4201D00133F5E70021F2
:1063F0000122944206D101B10493049C20460AB0C4
:10640000BDE8F0810733434504DC0132062A4FF032
:106410000101EED10024F1E7F0D0013DCDE9040502
:10642000A6F26C76069601A8FFF75AFE079B049920
:10643000BB4202D001390491F5E7002001226442F9
:10644000944203DC0028D8D00491D6E7073900290C
:10645000E0DD0132062A4FF00100F1D1DAE7000059
:106460002DE9F046CDB0044610A80D46FFF7FEFC1E
:10647000002320460293FFF735FB58BB2AA8FFF7FD
:10648000B2FC0290FFF714FEC16D02A8FFF7F7F906
:10649000DFF80CA22AA8FFF7A6FC02990390064693
:1064A00003A8FFF711FA002800F3F28031462046D6
:1064B000FFF7FDFA0746002800F09480A36C013B2B
:1064C000042B00F28F80DFE813F00700070096002E
:1064D000B800D5000290DBE72AA907A8FFF758FC0F
:1064E00007A92046FFF737F900280DDA04F11C014F
:1064F00007A8FFF71BF907A910A8FFF715FFDDE9AB
:106500002823C5E9182394E06CD1A36C012B25D076
:10651000022B67D104F11C0104A8FFF707F904F16D
:106520002409494604A8FFF7E3F800285ADC04A927
:1065300007A8FFF7FBF807A910A8FFF7F5FED5E9B4
:106540001801DDE92823904271EB030341DB9DF83C
:106550001430E26A13448DF81430E2E7E26A94F9E9
:10656000213093FBF2F63C21514302FB1636DDE964
:106570002823521843EBE17310A8CDE92823FFF735
:106580000FFEDDE9282307A904A8CDE9042302F0C2
:10659000E9F92B9BE16A9B1B93FBF1F201FB1233A0
:1065A000089A07A8D21A94F922300892079302F0A9
:1065B000E9F9CDE9280110A8FFF7F2FD2AA904A8FE
:1065C000FFF7F2FB04F1240104A8FFF791F800287B
:1065D00008DA2AA8FFF707FC01462046FFF767FA0A
:1065E00000288CD1514607A8FFF7CAF907A910A8BF
:1065F000FFF7BCFE4EE72E992F98D4E90B320131FC
:1066000000F26C70FFF7CEFE2D9B9842EAD104F1A8
:106610001C0107A8FFF78AF807A910A8FFF784FE56
:10662000DDE92801D5E9182382428B41DADAC5E990
:1066300018012846FFF7B4FD2BE0E66A002E08DAC1
:106640002E992F98013100F26C70FFF74BFD30440A
:10665000461C2AA8FFF7C7FBB6EBD06FC2D12AA908
:1066600007A8FFF795FB07A92046FFF774F8002855
:10667000B8DCCCE72AA907A8FFF78AFB04F11C01C4
:1066800007A80191FFF734F800280199AADCC0E7B8
:10669000002711A8FEF7DAFF38464DB0BDE8F086B6
:1066A000A5C50D0038B5046805467CB16368013B9B
:1066B00063605BB9236820469B689847A368013BE9
:1066C000A3601BB923682046DB689847284638BD7D
:1066D00037B58D6804466846FFF701F86A462946D3
:1066E000204602F0E3FE01A8FFF7DCFF204603B0DE
:1066F00030BD37B5CD6804466846FEF7F0FF6A4600
:106700002946204602F0AEFE01A8FFF7CBFF204647
:1067100003B030BD37B50D6904466846FEF7DFFFAC
:106720006A462946204602F046FE01A8FFF7BAFF56
:10673000204603B030BD70B5D1E90036F61A00230B
:10674000C0E9003304468360B0100D46FEF7BAFF7F
:10675000D5E90053C4E900000644A6602A46014674
:10676000934205D009B116680E6004310432F7E790
:106770005B1B18446060204670BD38B50D4611F8AB
:10678000043B044600F8043BFFF7D5FF05F1100178
:1067900004F11000FFF7CFFF204638BD38B504469E
:1067A0000D46FFF7EAFF05F11C0104F11C00FEF79E
:1067B000BDFF05F1240104F12400FEF7B7FFEB6AE9
:1067C000E3622B6B23636B6B636305F1380104F1A8
:1067D000380004F07BF9AB6CA364204638BD2DE98A
:1067E000F043D0F82080D1B081460C4615460026F3
:1067F0000027D9F82430434529D0414601A8FFF7A6
:10680000CDFFAB680BB904F0FDFDEB6801A928468C
:106810009847B0B1214614A8FFF728FB14A901A896
:10682000FFF71EFEDDE92C2310B156EA070103D065
:10683000B24273EB070101DA16461F4615A8FEF7B0
:1068400005FF01A8FFF746FB08F14C08D1E756EA1F
:10685000070308D02046C4E91867FFF7A1FC012010
:1068600051B0BDE8F0830020FAE700001FB5084BE7
:1068700003936A46074B0293FFF7B1FF029B04465E
:106880001BB16946032208469847204604B010BD54
:1068900021560D0025560D0070B504460D461046D4
:1068A0001946D4E9062352EA030613D0904271EB4D
:1068B00003030FDB00220023C4E906230126294637
:1068C0002046FFF7D3FF18B1D5E91823C4E9062302
:1068D000304670BD0026F2E730B5BDB0054604F085
:1068E000EDFA0446C0B1062301A80093FFF772F940
:1068F00004F001FBC117CDE918016846FFF750FC11
:1069000004F0F9FA69460246C3172846FFF7C4FFA8
:10691000044601A8FEF79AFE20463DB030BD8142F4
:106920002DE9F04104460E4622D0D1E90058006816
:10693000A3681B1AA8EB05079B10B3EBA70F4FEA40
:10694000A70118D20846FEF7BDFE06460346A84535
:1069500005D00BB12A681A6004330435F7E72068C4
:10696000FEF7ACFE26603E44A66023681F446760C5
:106970002046BDE8F0816268121AB1EBA20F06D87A
:10698000A845F2D03A46294605F07AF9EDE712B16A
:10699000294605F075F9D4E90032D11A33680B4461
:1069A00071689942E1D00AB118681060043304326A
:1069B000F7E738B50D4611F8043B044600F8043BF0
:1069C000FFF7ADFF05F1100104F11000FFF7A7FF7D
:1069D00005F11C0104F11C00FEF7B0FE05F12401D5
:1069E00004F12400FEF7AAFE204638BD2DE9F74F3A
:1069F000D0E900693B4D3C4BA9EB0604A4106C4365
:106A00009C428A4607461146A84602D1374804F000
:106A1000F6FC012C224638BF0122A418AAEB060579
:106A20005DD254B19C4228BF1C464C20604300916B
:106A3000FDF731FB0099834600E0A3461BEB050000
:106A400001D0FFF7ABFE5B4631468A450AD033B131
:106A5000184601910093FFF7A1FEDDE900314C31AA
:106A60004C33F2E7AD0808FB05FA2AF040454FF039
:106A70004C0A0AFB05FA06EB0A050AF14C0ADA444D
:106A800053462946494513D1A9EB0505AD0808FB36
:106A900005F525F040454FF04C0808FB05A5B0462C
:106AA000C8450FD04046FFF715FA08F14C08F7E744
:106AB000184601910093FFF771FE0199009B4C313C
:106AC0004C33DFE716B13046FDF7E9FA4C2000FB06
:106AD00004B4C7E900B5BC6003B0BDE8F08F1C4644
:106AE000A3E700BF1BCA6B286B28AF01D0C50D0000
:106AF00038B5D0E90135AB4204460A4607D013B198
:106B00001846FFF74BFE63684C33636038BD194687
:106B1000FFF76CFFFAE730B597B0044603A801927F
:106B20000D46FEF739FF01230199159303A80E9531
:106B3000FFF73FFF03A904F12000FFF7D9FF03A8E7
:106B4000FFF7C8F9204617B030BD704710B51021C7
:106B5000044604F04BFC204610BD0368C9B29B6894
:106B60001847000030B5034DC0E90223C0E90051C9
:106B700030BD00BF60C60D00406802F0B1BA10B56C
:106B80000446006802F0EFFA204610BD2DE9F041FE
:106B90008AB004464068019002F0DCFA1E2200210F
:106BA00002A8A76805F086F80026EFB123681E2F1B
:106BB000B84628BF4FF01E08DD6802AA434631469A
:106BC0002046A847054658B90A480B493246FDF702
:106BD000F9FA01A8FFF7D3FF28460AB0BDE8F08113
:106BE000A7EB08074644E0E701A8FFF7C8FF012527
:106BF000F2E700BF8CE503202CC60D002DE9F7431A
:106C00000446406801900D4616461F4602F0A2FA5F
:106C1000A7B1E168606841F0500102F094FA290AD6
:106C20006068FFF79AFF29466068FFF796FF606883
:106C3000002102F08BFA48B1002400E0012401A8F1
:106C4000FFF79DFF204603B0BDE8F083202F217B96
:106C50006068B84628BF4FF020080123424641F043
:106C6000500102F05AFA04F09DFB03681B69984733
:106C70004045E1DB06EB080904F094FB03685B691F
:106C8000984706F8010B4E45F6D14544A7EB080797
:106C9000BEE72DE9F74F0446406801900E46904646
:106CA0001D4602F057FA4FF00109B9F1000F2AD042
:106CB0004DB3E168606841F0500102F044FA310AD6
:106CC0006068FFF74AFF60683146FFF746FFA5F1AD
:106CD0001E0A4746A6EB080B606817F8011B0368FD
:106CE000013D9B68984755450BEB0706B84601D018
:106CF000002DF1D16068012102F028FA0028D7D0D8
:106D00004FF00009D1E701A8FFF739FF484603B06B
:106D1000BDE8F08F2DE9F0438BB00E461546804656
:106D2000406801901C4602F015FAAE4229D2264472
:106D300025448CB11E2C2746D8F8003028BF1E27CA
:106D4000F61BD3F8089002AA3B4631464046ED1B9D
:106D5000C84748B9002400E0012401A8FFF70FFF4D
:106D600020460BB0BDE8F083D8F8003002AAD3F873
:106D70000C9029463B464046C8470028EAD0E41B11
:106D8000D7E7E9D9002CE7D0D8F800301E2C2746E9
:106D900028BF1E27D3F8089002AA3B46314640463A
:106DA000C8470028D6D0D8F8003002AAD3F80C90F3
:106DB00029463B464046C8470028CBD03E443D4488
:106DC000E41BDFE701600271704700680368DB685D
:106DD0001847006803681B6A1847006803689B6AC5
:106DE0001847006803689B6B184737B505460C4683
:106DF00019460192FFF7F5FF2868019A03685B695D
:106E0000214603B0BDE83040184700680368DB6BDB
:106E1000184738B50446006803680D465B6B984711
:106E200029462046FFF7F1FF257138BD38B50446E5
:106E3000006803689B689847054618B12179204689
:106E4000FFF7E7FF284638BD006803681B6C18474A
:106E5000006803685B6C184700680368DB6C1847C0
:106E6000006803681B6D1847006803685B6D18476E
:106E7000006803689B6D18472DE9F84304460068D5
:106E80000A9F1E4603681B69DDE908989847054676
:106E9000C8B11EB12046FFF7E3FF3070B9F1000F13
:106EA00004D02046FFF7D8FF89F80000B8F1000FA2
:106EB00004D02046FFF7D8FF88F800001FB1204615
:106EC000FFF7D6FF38702846BDE8F88301207047E9
:106ED0000379032BFCD0012070470020704781719B
:106EE000704741717047C1727047017370474173B9
:106EF0007047837B23EA0202114381737047C07994
:106F00007047007A7047407A7047807A7047008AED
:106F100000B270470079704701717047408A80B2B3
:106F20007047808A80B27047C08A80B2704738B597
:106F300005460C462B682846DB68984728B9002C84
:106F4000F8D0204601F026FDF4E738BDF8B5054637
:106F50000F46144601F0DEF9064601F0DBF9801B0E
:106F6000B8420AD22B682846DB68984730B9002C13
:106F7000F3D0204601F00EFDEFE70020F8BD70B51C
:106F800004460E4601F0C6F9054601F0C3F9401B60
:106F9000B04204D22379032BF7D0012070BD00202A
:106FA000FCE770B5C3690446B3B101F0B3F96426D8
:106FB0000546236820461B6B984768B101F0AAF983
:106FC000E369401B984209D80A21012003F017FC0D
:106FD000704301F0DFFCECE7012070BD0020FCE70E
:106FE000064A0260FF210022027141714282C17291
:106FF000828281818273C282C26170477CC60D0029
:107000007047704770477047704741717047817192
:10701000704701717047000030B5034D0560017184
:107020004271837130BD00BFFCC60D00704710B5C2
:107030001021044604F0DAF9204610BD0EB403B561
:1070400003AB002153F8042B019303F09CFB02B027
:107050005DF804EB03B0704773B504460846227927
:10706000A36832B1A3B90B4902B0BDE8704003F088
:1070700059BB094A267B094D0949647B012E18BF7B
:107080002946CDE900140749FFF7D8FF02B070BDCB
:10709000054AEFE739C70D0030CA0D0035C70D00AE
:1070A00031C70D004FC70D0028C70D0010B50446AD
:1070B000FFF7B2FF054B2360054BA3600123237349
:1070C00000232361A382204610BD00BF88C70D00A6
:1070D00074C70D0013B50B4C2178BFF35B8F11F013
:1070E00001010BD120460191FCF7E6FF019928B17F
:1070F000054803F09BFB2046FCF7E3FF024802B083
:1071000010BD00BF18E303201CE3032007B5019165
:10711000FFF7E0FF019903B05DF804EB03F038BC22
:1071200008B5FFF7D7FFBDE8084003F037BC08B546
:10713000FFF7D0FFBDE8084003F031BC10B503797C
:10714000042B20D0032B20D0022B20D0114A12492F
:10715000012B18BF0A4641798379013918BF0121F3
:1071600033B1012B04D0022B02D0032B18BF002314
:1071700000240473026101754375FFF7ABFFBDE89E
:10718000104003F05DBB054AE5E7054AE3E7054A21
:10719000E1E700BF80841E0040420F000024F4009D
:1071A00000127A0000093D0008B5FFF793FFBDE823
:1071B000084003F056BB10B50446FFF78BFF04F1FF
:1071C0000801BDE8104003F075BB08B5FFF782FF6A
:1071D000BDE8084003F054BB08B5FFF77BFF08BDCE
:1071E000002302481A461946FFF760BF24E3032034
:1071F000012A05D1007A0B781B1A58425841704772
:10720000002070472DE9F04F264D012387B02B70E9
:107210006B7000230F46A97000930322FF232946B9
:10722000064600F0E7FB20B10024204607B0BDE889
:10723000F08FFA238DF8173001F06CF806F104098D
:107240008046AA4608F57A6401F064F8201A0028FE
:10725000EADD81B200224846FFF7BFFD0028F3D0E7
:107260000023CDE90233CDE900330DF11702514679
:10727000304600F0C9FB04460028E3D09DF81730E3
:10728000012BDFD995F800B0BBF1020FDAD14846E7
:10729000FFF7E6FD5B4602463946304600F021FB2B
:1072A000C3E700BF3CE30320012A2DE9F341074671
:1072B0000E4614463BD94D79022D30D100F1040819
:1072C000C97901914046FFF7CBFD083C2B460246A9
:1072D0000199384600F005FBE5B206F108030024E9
:1072E0002246954204F10104E4B204D913F8012BBB
:1072F000397A9142F4D104F108010E44A54216D91D
:1073000016F8011B01914046FFF7AAFD0134024621
:10731000019902233846E4B200F0E3FAEEE7032DC8
:1073200005D1897902B0BDE8F04100F0C3BA02B0DE
:10733000BDE8F08110B5044600F014FB014B23605A
:10734000204610BDBCC70D002DE9F047F92A9DF875
:10735000209006460F4614461D4625D8FF2B14D113
:10736000DFF84880404600232246394600F8013BBA
:1073700004F078FC621CCDF820902B464146304644
:10738000D2B2BDE8F04700F035BB194600F04EFA26
:107390000028E5D1336829469B6830469847002885
:1073A000DED10220BDE8F0870120FBE73CE30320AB
:1073B0002DE9F04F89B09846FA238DF81A300DF177
:1073C0001F0303930DF11E03DFF880A102930DF15B
:1073D0001D03019307AB0093894617460DF11B036C
:1073E0000DF11A025146DDF848B0054600F00CFBDD
:1073F0005646044620B90024204609B0BDE8F08F67
:107400009DF81A3073B39AF800205ABBB8F1000FF8
:1074100003D09DF81B2088F80020BBF1000F03D09B
:107420009DF81C208BF80020139A1AB113999DF82F
:107430001D200A70149A1AB114999DF81E200A7022
:10744000159A1AB115999DF81F200A703A783D498E
:10745000013BDBB29A4288BF3B703A78484604F061
:1074600001FCC9E79DF81C20FF2AC4D1012BC2D919
:107470003278012ABFD12A7A9DF81B40A242BAD0A5
:10748000DF1E3149FFB200235FFA83F8474506D972
:1074900011F8010B824203F10103F5D1ABE705F1CD
:1074A00004094846FFF7DCFC022302462146284631
:1074B00000F017FA95F8173193B1244CA31BDBB2F7
:1074C0009F420CD9E17805914846FFF7C9FC059920
:1074D00002460223284600F004FA0134EEE7B846DB
:1074E0002B687278DB681A4928469847044660B1D1
:1074F0000223002433709DF81A209DF81B30134995
:107500000094284600F076FA76E795F81631434560
:107510007FF671AF95F81731002B3FF46CAF9DF8F3
:107520001A202B7A09493E440132F3709DF81B3032
:107530000190D2B200932846FF238DF81A2000F064
:1075400023FA59E73DE303203FE303203CE3032014
:107550003EE303202DE9F04F85B080461C46DDE96F
:107560001056129F8946924600F0D4FE08F1040B93
:10757000044400F0CFFE201A002816DD81B200225C
:107580005846FFF72AFC0028F3D00F9B0093CDE963
:1075900002670E9B0195524649464046FFF708FF99
:1075A0000028E6D005B0BDE8F08F0020FAE7000023
:1075B000F0B585B0054604300E460392FFF750FC47
:1075C000039A07463146284600F047F90228044648
:1075D00001D005281BD13178284600F06BF972786C
:1075E0002B7A9A4213D00B4C0323237033786370A9
:1075F000717802233A46284600F073F9002300937D
:10760000214673780222284600F0F4F90446204609
:1076100005B0F0BD3CE3032010B50446FFF7D2FBF4
:10762000C8230021E3810323A160217323744FF455
:10763000807204F1110004F03DFB204610BD1FB51F
:1076400004460192FFF700FC204600228021FFF74C
:10765000FFFB2122019B8DF80F200DF10F0101226C
:107660002046FFF7C2FB2046FFF7B3FB04B010BD76
:107670002DE9F04F057B0135EDB287B00446894610
:107680009246984605730027227C3B469A4207F1B2
:107690000107FFB26BD329462046FFF7D5FB012F28
:1076A0000DBFC0228022402100212046FFF7D0FBE1
:1076B0004346524649462046FFF797FB2046FFF7D0
:1076C00088FBB8F1FF0F54D0012F82BFA3680133AC
:1076D000A36000F01FFE4FF4807183460020E6890E
:1076E00003F08DF8704348BFFF3006EB20261BFAED
:1076F00086F600F00FFE301A0028C5DD81B20022A8
:107700002046FFF76AFB0028F3D00DF11703029320
:107710000DF11603019300220DF11503009311469C
:1077200005AB2046FFF7A8FB0028E2D09DF8142007
:107730009DF9173042450ED194F804C09DF81510FC
:107740008C4508D1002B08DA9DF81630AB42D0D119
:1077500007B0BDE8F08F002BCBDBA1189DF81630E9
:10776000497C9942C5D12046FFF769FFC1E7002057
:10777000EEE70120ECE72DE9F04389B0CDE90421E3
:10778000DDE91098129F04461E46FFF71EFBDDE957
:10779000042120B90025284609B0BDE8F0830DF189
:1077A0001F0302930DF11E0301930DF11D030093BE
:1077B000204607ABFFF760FB05460028EAD09DF99D
:1077C0001F30002BE6DB22799DF81D309A4206D14E
:1077D0009DF81C209DF81E102046FFF730FF9DF8F5
:1077E0001C209DF81E301444617C9942D2D006B111
:1077F0003270B9F1000F03D09DF81D2089F80020E8
:10780000B8F1000F01D088F8003017B19DF81F20A3
:107810003A706374BFE7704710B504460430FFF751
:1078200005FB10B11E2384F8163110BD10B50246B9
:10783000002392F818418C4208D192F81A412CB1D9
:1078400003EB430303F58C73184410BD01330A2B7B
:1078500002F10302EDD10020F7E737B50B78FF2BDB
:1078600005460C4606D019460192FFF7DFFF58B1D6
:107870004378019A2146281DFFF7FAFE002814BF1D
:107880000020052003B030BD0220FBE710B501EB5E
:1078900041030446C1F1090203F58C7003F21B1188
:1078A00002EB42022144204404F0DCF9002384F876
:1078B000353110BD38B50A46002300F58C7403EB52
:1078C0004305D9B2655D954203D1FFF7DFFF012083
:1078D00038BD01330A2BF2D10020F9E70021FFF770
:1078E000D5BFF8B516461F4604460D46002300F5E1
:1078F0008C7203EB4300115CA94205D1204480F84F
:10790000196180F81A71F8BD01330A2BF1D10023F7
:1079100004F58D7203EB4300115C19B9204480F823
:107920001851ECE701330A2BF4D12046FFF7D6FFBC
:10793000204604F11E0390F81A212AB980F8185144
:1079400080F8196180F81A7103309842F3D1DAE7B0
:1079500000F11E03002280F81A2103309842FAD168
:107960007047000010B504460430FFF755FE054B84
:1079700023604FF48F732046A4F81631FFF7E8FF19
:10798000204610BDD4C70D002DE9F34704464068DA
:1079900001911F4603689DF828A09B699DF82C90D3
:1079A0001646984706F1050880451CD8104D0199E8
:1079B00085F801A00023AB7094F81531EB705A1CC8
:1079C00084F81521681D32462F7085F8049004F064
:1079D00049F923685B685FFA88F22946204602B0BD
:1079E000BDE8F0471847012002B0BDE8F08700BFAE
:1079F00036E4032013B59DF810400194047A0094F6
:107A0000FFF7C2FF02B010BD2DE9F04F87B01F464F
:107A1000FF238DF813300DF117030293DFF8D09098
:107A20000DF1160301930DF11503009304468846EA
:107A3000164605AB0DF1130249460430DDE910BAD4
:107A4000FFF799FE054608B9002538E023689DF840
:107A500013201B6849462046984799F80030227A3F
:107A60009A4201D0FF2B2ED117B1214B5B783B708E
:107A7000BBF1000F03D01E4B1B788BF80030BAF11E
:107A8000000F03D01A4BDB788AF80030129B1BB131
:107A9000174B129A1B791370139B1BB1144B139A3B
:107AA0009B7813709DF8133032781249053BDBB296
:107AB0009A4288BF33703278404604F0D3F82846A3
:107AC00007B0BDE8F08F99F802305A1C89F80220FF
:107AD00094F816219A42B7D994F81731002BB3D0F5
:107AE00023689DF813205B68494620469847ABE71A
:107AF00036E403203BE4032010B50446006A036823
:107B0000DB68984794F82400FF2802D0012103F095
:107B1000F3FB23682046DB6F9847642000F03AFFB0
:107B2000012010BD90F82400002103F0F6BB90F86E
:107B30002400012103F0F1BB70B504460D46164642
:107B4000FFF74EFA034B2360266284F82450204648
:107B500070BD00BFE4C70D0038B50446006A036875
:107B60001B6A0D469847236820469B6F9847206AFA
:107B7000036805F07F011B689847206A03680021AD
:107B80001B68984723680546DB6F20469847206AA4
:107B900003685B6A9847284638BD70B50446006A9A
:107BA00003681B6A16460D469847236820469B6F5C
:107BB0009847206A036845F080011B68984705468E
:107BC000206A036831461B689847012000F09AFB41
:107BD00023682046DB6F9847206A03685B6A9847F2
:107BE000284670BDF8B50446006A1E4603681B6A45
:107BF0000F4615469847236820469B6F9847206A92
:107C0000036807F07F011B6898472E440746B5427A
:107C100007D0206A036800211B68984705F8010B0C
:107C2000F5E723682046DB6F9847206A03685B6AA4
:107C300098473846F8BDF8B50446006A1E46036802
:107C40001B6A0F4615469847236820469B6F984746
:107C5000206A036847F080011B6898472E44074656
:107C6000B54206D0206A15F8011B03681B689847C7
:107C7000F6E723682046DB6F9847206A03685B6A53
:107C800098473846F8BD006A03689B6A1847012088
:107C90007047FB207047704710B50379052B0446E9
:107CA00010D003680521D3F88030984707220121BE
:107CB0002046FFF772FF802240212046FFF76DFF2C
:107CC000052323712379052BFCD0207E10BD10B530
:107CD0004FF49871044603F089FB204610BD10B59F
:107CE0000379012B04460BD003680121D3F88030BF
:107CF0009847002201212046FFF74FFF01232371FF
:107D0000012010BDF8B50368DB6804460F46154630
:107D100098470646B0B187B17DB194F828302A78EB
:107D2000033B9342DEBF94F82830043B2B702A7843
:107D300004F12D01384603F095FF002384F8283123
:107D400084F828303046F8BD38B5044615461A4642
:107D5000FFF7F2FE094B2360FF22002384F827205F
:107D6000012284F8283184F82C3184F8265084F8D4
:107D70002B2184F82530204638BD00BF7CC80D007B
:107D800090F82830032B1BD990F82930C37190F854
:107D90002A30037290F82B30437290F82C308372A3
:107DA000837933B9C37942799A4202D0C379FF2BE0
:107DB00006D1838A01339BB28382012380F8283164
:107DC000704700000000000038B504462DED028B1E
:107DD00010EE100AB0EE408A03F07CFC17A3D3E942
:107DE000002303F0CFFC17A3D3E9002303F0F4FD35
:107DF00003F0DAFE06210546C0F307422046FFF7EE
:107E0000CCFEC5F3072207212046FFF7C6FEEAB2E3
:107E100008212046FFF7C1FEDFED077AB4EEE78ABE
:107E2000BDEC028BF1EE10FAACBF01230023012060
:107E300084F8293138BD00BF00C042440000000072
:107E400080842E410000000080844E4010B50379EC
:107E5000022B04460BD003680221D3F880309847E8
:107E6000012211462046FFF798FE0223237110BD20
:107E700070B512210446FFF76FFE1C21054620460F
:107E8000FFF76AFEFF22064612212046FFF785FE15
:107E90002379042B07D115F0A00F17D194F82B31BB
:107EA0000BB1700612D52379042B01D1690622D4B7
:107EB0002379032B01D12A0769D42379052B0ED10D
:107EC0006B070CD505F00105257659E0638A01336F
:107ED0009BB26382002384F8283184F82830FF2283
:107EE00012212046FFF759FE2046FF22BDE87040D0
:107EF0001221FFF752BE13212046FFF72DFE10215D
:107F000005462046FFF728FE0D2102462046FFF7D2
:107F100044FE04F129022B4600212046FFF762FEB1
:107F2000192184F828502046FFF716FE40B2002899
:107F3000B8BF0330801084F82A011A212046FFF7C9
:107F40000BFE94F92A3100B2002B2082A9BF238AAC
:107F5000228A1BB21B01B2BF9B180F2293FBF2F3C4
:107F60001BB2238294F8293173B1238A9D3B1BB243
:107F700023822046FFF704FF94F82831002BAED06F
:107F80002046FFF763FFAAE7238AA43BEFE7E38AD3
:107F900001339BB2E382F3E7024B186808B1FFF7A5
:107FA00067BF704738E50320024B586808B1FFF7F8
:107FB0005FBF704738E50320024B986808B1FFF7B0
:107FC00057BF704738E5032010B50379042B0446EA
:107FD00010D003680421D3F880309847052201218E
:107FE0002046FFF7DAFD002240212046FFF7D5FDAD
:107FF0000423237110BD10B50379032B044605D06B
:10800000FFF7E2FF94F82801C0B210BD0020FCE7A2
:1080100010B50379032B044610D003680321D3F86D
:1080200080309847032201212046FFF7B6FD402209
:1080300011462046FFF7B1FD0323237110BDFB2A33
:10804000F8B504460F46154602D900263046F8BD5D
:1080500003681B6A98472046FFF7F8FE236820460E
:10806000DB6A984706460028EFD000220D21204603
:10807000FFF793FDE27A00212046FFF78EFD227B79
:1080800000212046FFF789FD627B00212046FFF793
:1080900084FDA27B00212046FFF77FFD2B463A4658
:1080A00000212046FFF7C7FD2A1DD2B2222120461B
:1080B000FFF773FD2046FFF7ABFFC7E738B505466E
:1080C0000C4680F8252072B181F3040242F0700260
:1080D000D2B20921FFF761FD04224D212846BDE8F7
:1080E0003840FFF75ABD142910DC012910DD112991
:1080F0000FDD07224D212846FFF74FFD033C64B2F8
:10810000A21E62F07F02D2B20921E7E71424F0E751
:10811000022404224D212846FFF73FFDF0E738B541
:108120000C4605460A781D21FFF737FD62781E21AF
:108130002846FFF732FDA27828462621BDE83840C0
:10814000FFF72BBD052913B50FD8094B01EB4101F2
:108150005C185A5AA378ADF8042001A98DF80630AE
:10816000FFF7DDFF012002B010BD0020FBE700BFDC
:1081700064C80D0038B50A0A05460C462021FFF7F1
:108180000CFDE2B228462121BDE83840FFF705BDCD
:1081900073B50446FFF7B0FC064618B90026304612
:1081A00002B070BD94F82650FF2D52D029462046CB
:1081B000FFF769FD802201212046FFF7EEFC0A202F
:1081C00000F0E8FB01212046FFF7C6FC8028E5D13E
:1081D00094F82600FF281CD0002103F08DF894F8B5
:1081E0002730FF2B07D1254A1378032BD6D8591CEB
:1081F000117084F8273094F82720214B43F822404F
:1082000052BB204900924FF0FF330122A8B200F088
:10821000B5FF00220E212046FFF7BFFC00220F21F0
:108220002046FFF7BAFC2046FFF710FE002120464B
:10823000FFF788FF08212046FFF79CFF9FED120AF9
:108240002046FFF7C1FD00220D212046FFF736FF33
:10825000A5E74FF0FF35ADE7012A4FF0000304D149
:1082600000930A494FF0FF33D0E7022A96D10093DA
:1082700007494FF0FF330122C8E700BF35E503206F
:1082800038E50320997F0D000000D943A97F0D0038
:10829000B97F0D0008B5024B1B685B6C019308BDEC
:1082A0004802030008B5024B1B689B6C019308BD94
:1082B0004802030008B5024B1B68DB6C019308BD44
:1082C0004802030008B5024B1B685B6D019308BDB3
:1082D0004802030008B5024B1B685B6E019308BDA2
:1082E0003402030008B5024B1B68DB6E019308BD26
:1082F0003402030008B5024B1B685B68019308BD9C
:108300001802030008B5024B1B68DB68019308BD27
:108310001802030008B5024B1B685B69019308BD96
:108320001802030008B5024B1B689B6D019308BD42
:108330001802030008B5024B1B685B6E019308BD71
:108340001802030008B5024B1B689B6E019308BD21
:108350001802030008B5024B1B689B68019308BD17
:108360002C02030008B5024B1B68DB68019308BDB3
:108370002C02030008B5024B1B681B69019308BD62
:108380002C02030008B5024B1B685B69019308BD12
:108390002C02030008B5024B1B689B69019308BDC2
:1083A0002C02030008B5024B1B68DB69019308BD72
:1083B0002C02030008B5024B1B68DB68019308BD63
:1083C0002802030008B5024B1B689B69019308BD96
:1083D0002802030008B5024B1B68DB69019308BD46
:1083E0002802030008B5024B1B681B6A019308BDF5
:1083F0002802030008B5024B1B685B6A019308BDA5
:108400002802030008B5024B1B689B6A019308BD54
:108410002802030008B5024B1B68DB6A019308BD04
:108420002802030008B5024B1B681B6B019308BDB3
:108430002802030008B5024B1B685B6B019308BD63
:108440002802030008B5024B1B681B6C019308BD92
:108450002802030008B5024B1B689B6C019308BD02
:108460002802030008B5024B1B68DB6C019308BDB2
:108470002802030008B5024B1B681B6D019308BD61
:108480002802030008B5024B1B685B69019308BD15
:108490006402030008B5024B1B689B68019308BD8A
:1084A0006802030008B5024B1B68DB68019308BD36
:1084B0006802030008B5024B1B681B68019308BDE6
:1084C0003002030008B5024B1B685B68019308BDCE
:1084D0003002030008B5024B1B685B69019308BDBD
:1084E0003002030008B5024B1B68DB69019308BD2D
:1084F0003002030008B5024B1B681B6A019308BDDC
:108500003002030008B5024B1B685B6A019308BD8B
:108510003002030008B5024B1B68DB6B019308BDFA
:108520003002030008B5024B1B681B6C019308BDA9
:108530003002030008B5024B1B685B6C019308BD59
:108540003002030008B5024B1B681B68019308BD8D
:108550003C02030008B5024B1B689B68019308BDF1
:108560003C02030008B5024B1B68DB68019308BDA1
:108570003C02030008B5024B1B681B69019308BD50
:108580003C02030008B5024B1B685B69019308BD00
:108590003C02030008B5024B1B689B69019308BDB0
:1085A0003C02030008B5024B1B68DB69019308BD60
:1085B0003C02030008B5024B1B681B6A019308BD0F
:1085C0003C02030008B5024B1B689B6A019308BD7F
:1085D0003C02030008B5024B1B68DB6A019308BD2F
:1085E0003C02030008B5024B1B681B68019308BDE1
:1085F0004C02030008B5024B1B685B68019308BD81
:108600004C02030008B5024B1B689B68019308BD30
:108610004C02030008B5024B1B681B69019308BD9F
:108620004C02030008B5024B1B685B69019308BD4F
:108630004C02030008B5024B1B689B69019308BDFF
:108640004C02030008B5024B1B68DB69019308BDAF
:108650004C02030008B5024B1B681B6A019308BD5E
:108660004C02030008B5024B1B685B6B019308BD0D
:108670006002030008B5024B1B681B6D019308BD27
:108680006002030008B5024B1B685B6D019308BDD7
:108690006002030008B5024B1B68DB6E019308BD46
:1086A0006002030008B5024B1B681B6F019308BDF5
:1086B0006002030008B5034B1B68D3F898300193A0
:1086C00008BD00006002030008B5024B1B681B6870
:1086D000019308BD2002030008B5024B1B685B68CC
:1086E000019308BD2002030008B5024B1B685B69BB
:1086F000019308BD2002030008B5024B1B681B6AEA
:10870000019308BD2002030008B5024B1B68DB6A19
:10871000019308BD2002030008B5024B1B68DB6C07
:10872000019308BD2002030008B5024B1B685B6D76
:10873000019308BD2002030008B5024B1B689B6D26
:10874000019308BD2002030008B5024B1B68DB6DD6
:10875000019308BD2002030008B5034B1B68D3F842
:108760008830019308BD00002002030008B5034BC8
:108770001B68D3F89430019308BD00002002030069
:1087800008B5034B1B68D3F8AC30019308BD00005B
:108790002002030008B5024B1B689B68019308BDCB
:1087A0004402030008B5024B1B685B69019308BDD6
:1087B0004402030008B5024B1B681B6A019308BD05
:1087C0004402030008B5024B1B681B6B019308BDF4
:1087D0004402030008B5024B1B685B6B019308BDA4
:1087E0004402030008B5024B1B68DB6B019308BD14
:1087F0004402030008B5024B1B685B68019308BD87
:108800004002030008B5024B1B689B68019308BD3A
:108810004002030008B5024B1B68DB68019308BDEA
:108820004002030008B5024B1B681B69019308BD99
:108830004002030008B5024B1B685B69019308BD49
:108840004002030008B5024B1B689B69019308BDF9
:108850004002030008B5024B1B68DB69019308BDA9
:108860004002030008B5024B1B681B6A019308BD58
:108870004002030008B5024B1B681B6B019308BD47
:108880004002030008B5024B1B685B6B019308BDF7
:108890004002030008B5024B1B681B6C019308BD26
:1088A0004002030008B5024B1B685B6C019308BDD6
:1088B0004002030008B5024B1B681B68019308BD0A
:1088C0001C02030008B5024B1B685B68019308BDDE
:1088D0001C02030008B5024B1B689B68019308BD8E
:1088E0001C02030008B5024B1B681B69019308BDFD
:1088F0001C02030008B5024B1B685B69019308BDAD
:108900001C02030008B5024B1B68DB69019308BD1C
:108910001C02030008B5024B1B685B6A019308BD8B
:108920001C02030008B5024B1B68DB6A019308BDFB
:108930001C02030008B5024B1B681B6B019308BDAA
:108940001C02030008B5024B1B685B6C019308BD59
:108950001C02030008B5024B1B689B6C019308BD09
:108960001C02030008B5024B1B68DB6C019308BDB9
:108970001C02030008B5024B1B681B6D019308BD68
:108980001C02030008B5024B1B685B6D019308BD18
:108990001C0203000021FFF7A7BE10B58368044640
:1089A0000BB902F02FFDC3689847A3681BB10322DF
:1089B00021462046984720461021BDE8104002F08D
:1089C00015BD0B68036013B15A6801325A607047D5
:1089D000024800230360FFF75DBC00BF44E50320AD
:1089E000002240681146FFF71DBF00224068114673
:1089F000FFF738BF002240681146FFF743BF4068C9
:108A00000022FFF737BF4068002281F00101FFF725
:108A100021BF002340681A461946FFF713BF002301
:108A200040681A461946FFF705BF00224068114604
:108A3000FFF7E8BE406800220221FFF7EBBE0023EB
:108A400040681A46FFF7D6BE084B10B528242246C8
:108A50001846002103F02EF9054B04804FF0FF3239
:108A6000426004225A60034A1A6010BD50E5032098
:108A700048E5032008C90D0070470020704710B575
:108A80001021044602F0B2FC204610BD08B5FFF7E5
:108A9000F6FF08BD10B58368044613B103220146F2
:108AA0009847204610BD30B500224FF69C740260F6
:108AB00084808D888C800C68858004600A6030BD5D
:108AC00010B504460068FFF7FDFE204610BD38B51E
:108AD000C468F4B12378022B03D104F10C00FFF732
:108AE000EFFF656835B12846FFF7D4FF102128460F
:108AF00002F07CFCA56835B12846FFF7CBFF1021BA
:108B0000284602F073FC20461421BDE8384002F0EC
:108B10006DBC38BD73B50E46044656F8043B009351
:108B20000D4601A83146FFF74CFF019A009B626099
:108B3000236001A8002301930093FDF7B3FD3046A5
:108B4000FDF7B0FD2846082102F050FC204602B097
:108B500070BD13B50B460246D0E900016C4684E8AF
:108B6000030093E8030082E8030094E8030083E82D
:108B7000030002B010BD826810B50AB902F042FCD1
:108B8000BDE81040C368184708B5006800F110013F
:108B9000FFF7F1FF08BD826810B50AB902F032FC98
:108BA000BDE81040C368184708B5006800F110011F
:108BB000FFF7F1FF08BD000038B50023044603604D
:108BC00010200D46FBF767FA28B10123C0E90133F5
:108BD000024B0360C5602060204638BD44C90D00CB
:108BE00038B5002383608B6804460D462BB1022202
:108BF0009847EB68E360AB68A360204638BD00008F
:108C0000F0B589B004686846FFF74DFF4FF00203E6
:108C1000D4E84F2F002A03D1C4E8413F0029F7D1FF
:108C200025D104F10C0569462846FFF73CFFBFF348
:108C30005B8F01236370002004F10803BFF35B8F97
:108C400053E8006F43E80002002AF9D1BFF35B8FBD
:108C50006EB1FFF761FD78B129463046FFF78BFF13
:108C60003046FFF717FF1021304602F0BFFB684681
:108C7000FFF726FF09B0F0BD314602A8FFF7B0FFAD
:108C8000E068B4F9105008B103F09EF80690102087
:108C9000ADF81C50FBF7FFF90546E8B100278760E7
:108CA0001820FBF7F8F9044688B10146876002A84E
:108CB000FFF74FFF049BA268A360059B049206A9DF
:108CC000E268E36004F110000592FFF7ECFE084B48
:108CD000EB60084B2C60AB6006A8FFF7F1FE02A822
:108CE000FFF7D8FE002229460348FFF71DFDB7E72E
:108CF000898B0D00218E0D009B890D002DE9F04719
:108D00008AB005469DF848900C4617469846FFF7EE
:108D100049FD07AE824638BB4FF62E73059005A974
:108D20003046ADF81830FFF7BEFE1420FBF7B3F95C
:108D3000044648B1022303700123C0E901AA43702D
:108D400031460C30FFF7AFFE2846214640F8044B71
:108D5000FFF732FF3046FFF7B3FE05A8FFF7B0FE7E
:108D600028460AB0BDE8F0870C234FF0000A142013
:108D7000CDE908AA0793FBF78EF9014628B1C0E9AF
:108D800001AA80F800A080F801A004A80391FFF7D1
:108D900013FF224B08930820FBF77DF9824628B188
:108DA000039B40F8043B04A9FFF70BFE00965FFA13
:108DB00089F3424639462046CDF824A0FFF7FAFC55
:108DC000B8B9039B5B7803F0FF0293B94FF69C732D
:108DD00005A903A80592ADF81830FFF711FF05A803
:108DE000FFF76EFE05A80999FFF794FE06A8FDF7A8
:108DF00059FC039B059304A906A8FFF7E2FD059B18
:108E0000069A2B606A60002306A806930593FDF777
:108E100049FC04A8FDF746FCA2E700BFE58E0D0063
:108E2000022AF8B5054607D0032A18D0012A01D135
:108E30000B6803600020F8BD18200E68FBF72BF9C3
:108E4000044650B13146FFF7CBFE3069B6F91470D5
:108E500008B102F0B9FF2061A7822C60EAE704683C
:108E6000002CE7D004F11000FFF72AFE2046FFF7A0
:108E700011FE1821204602F0B9FADBE738B50023CD
:108E800083608B6804460D462BB102229847EB683D
:108E9000E360AB68A360204638BD022A70B5044683
:108EA00007D0032A12D0012A01D10B6803600020E9
:108EB00070BD14200E68FBF7EEF8054620B1314670
:108EC000FFF7DCFF337C2B742560F0E70468002C8F
:108ED000EDD02046FFF7DEFD1421204602F086FA91
:108EE000E5E70000F0B589B004460D4601A811463B
:108EF000FFF710FEA4B124B21DB1284602F064FFB2
:108F0000054601A803A90395ADF81040FFF778FEC8
:108F100003A8FFF7D5FD02A8FDF7C4FB09B0F0BD1B
:108F2000019D0123D5E84F2F002A03D1C5E8413F19
:108F30000029F7D1EFD12B73BFF35B8F6B702B1D23
:108F4000BFF35B8F53E8006F43E80042002AF9D17A
:108F5000BFF35B8F002EDED02046FFF7DDFB074618
:108F600060B105F10C013046FFF715FE3046FFF702
:108F700091FD1021304602F039FACCE7314603A8C2
:108F8000FFF77CFF2B7B8DF81C301020FBF783F85C
:108F90000546D0B187601420FBF77DF8044678B110
:108FA0008760014603A8FFF7D4FD059BA268A36074
:108FB000069B0592E268E3609DF81C3006922374DC
:108FC000064BEB60064B2C60AB6003A8FFF762FD1D
:108FD000002229460348FFF7A7FBC7E7A98B0D002E
:108FE0009B8E0D009B890D00002240681146FFF703
:108FF00039BC002240681146FFF744BC406800229B
:10900000FFF738BC4068002281F00101FFF722BC65
:10901000002340681A461946FFF714BC0023406835
:109020001A461946FFF706BC002240681146FFF7B2
:10903000F9BB002240681146FFF7E4BB40680022FC
:109040000221FFF7E7BB002340681A46FFF7D2BBB7
:10905000024B03225A60024A1A60704778E50320E7
:1090600060C90D007047F8B5064615460C468F18C6
:10907000BC4206D0336814F8011B9B683046984701
:10908000F6E72846F8BD007C0022FFF7ABB9007C6C
:109090000021FFF7AFB9007C0021FFF7B3B9007CD6
:1090A0000021FFF7B7B9007C0021FFF7BBB910B56D
:1090B0001421044602F09AF9204610BD10B54FF471
:1090C0007A73044608460021C4E90113034B236068
:1090D00020741146FFF7B6F9204610BD9CC90D005B
:1090E0000023007C1A461946FFF764B97FB50022B9
:1090F0001423CDE90122ADF804300B788DF8083047
:109100004B680393CB680493007C0B7A059301A909
:10911000FFF7B0F907B05DF804FB1FB5003B8DF811
:1091200000104FF06401039118BF012369460192BA
:109130008DF80830FFF7DAFF05B05DF804FB007C1E
:109140000022FFF73FB9C9B2FFF7F9BF007C002248
:10915000FFF740B908B50021007CFFF77BF9B0FAB2
:1091600080F0400908BD08B50021007CFFF77AF9BE
:10917000B0FA80F0400908BD004700002DE9FF412A
:1091800000241D460F4690460646FFF70BF9A54200
:109190004FF00403ADF80D408DF80C308DF80F4002
:1091A000A2BF9DF828308DF80E3003AC074900941B
:1091B00043463A463046A8BF8DF80D50FFF7EAF80F
:1091C000B0FA80F0400904B0BDE8F08179910D005B
:1091D000704710B51821044602F008F9204610BD6A
:1091E000F0B5037D062B8DB00E4600F104074FF05D
:1091F000000412D000F1080515F8011D0A223046BE
:1092000001F0A3FAAF42044419D0002CF4D02E216F
:10921000304601F08BFA0444EEE72F236A463946C4
:109220000A208DF80040FFF72DF9684602F0E9FDAD
:1092300033680246DB686946304698470446204654
:109240000DB0F0BD10B5054B0446112240F8043BAB
:10925000002102F02FFD204610BD00BFC4C90D0043
:109260000346074A10B543F8042B01F1100251F8E8
:10927000044B43F8044B9142F9D10A781A7010BD9F
:10928000C4C90D0010B59DF8084044EA032343EA21
:10929000024242EA016104234160037510BD13B527
:1092A000CB7800938B784A780978FFF7EBFF02B010
:1092B00010BD00F11003012213F8101C01291846FB
:1092C00008D153F8041C02EB4102013A03F11003E8
:1092D000F2D17047022904BF53F8041C5218F4E776
:1092E0000EB4F0B588B000AF07F13405102155F881
:1092F000042B7A6004462B467818FD60FFF70AFBC2
:109300000F287A681AD900F1080323F007036E4684
:10931000ADEB030D411C2B466846FD60FFF7FAFAE2
:10932000021E04DD236869469B6820469847B546BF
:109330002037BD46BDE8F04003B070470028F7D0A5
:10934000236802469B6807F1100120469847EFE723
:1093500010B5036804469B689847A368013BA36067
:109360002BB923682046DB68BDE81040184710BDC4
:1093700007B503688DF807109B6801220DF10701FE
:10938000984703B05DF804FB38B50B6803604D687F
:1093900043689D4204460CD015B16B6801336B6085
:1093A000606828B14368013B43600BB9FFF7D0FF09
:1093B0006560204638BD0B461146002210B5C0E955
:1093C0000022044683600BB9204610BDFFF7DCFF86
:1093D000FAE78368EBB11A78032A1AD8DFE802F0BB
:1093E0000417021B0520704702685B685268D05C56
:1093F0002D2812D0A0F13003092B0ED974280ED0DD
:1094000066280CD0A0F16E035842584170470620E0
:1094100070470020704704207047032070470220E7
:10942000704710B50446FFF7D4FF02280ED0C31EC4
:10943000DBB2012B14D82268A36850685B68BDE8D2
:1094400010400A220021184402F0C2BD2268A3681D
:1094500052685B68D05CA0F174035842584110BD5B
:109460000020FCE738B50023C0E9003304460E486D
:10947000C4E90203A9B10B78032B06D08BB913689A
:1094800058684B68C35C6E2B07D013684D685868EA
:109490008B6828445B1BA060E36011462046FFF701
:1094A00073FF204638BD00BF30CA0D0038B5002517
:1094B0000B46C0E90055C0E90255C0E90455044611
:1094C00011464BB11A78012A06D103F11002DB686C
:1094D00082604361FFF758FF204638BD10B54369ED
:1094E000044663B18068E060013B1030A0602061F9
:1094F000636113B1FFF7DDFEA060012000E01846B4
:1095000010BD10B57D210446FFF732FF0123237102
:10951000204610BD08B50379012B02D0022B04D0E0
:1095200008BD2C21FFF724FFFAE73A21FAE710B52E
:109530000446FFF7EFFF20467B21FFF719FF0023CA
:109540002371204610BD000013B504460191FFF7BA
:10955000E1FF2368019ADB6803492046984701230D
:109560002046237102B010BD37C40D0013B5044668
:109570000191FFF7CFFF2368019ADB68034920467A
:10958000984701232046237102B010BD53C60D0039
:109590002DE9F0410D4617462221DFF8A080044650
:1095A0002F44FFF7E5FE2946BD422A4638D015F87C
:1095B000016B222E03D05C2E01D01F2EF4D823681D
:1095C000521A9B68204698475C212046FFF7D0FE40
:1095D0000D2E0AD8072E1CD9A6F10803052B18D882
:1095E000DFE803F00D0F11171315222E01D05C2EAA
:1095F0000FD131462046FFF7BBFE2946D4E7622152
:10960000F8E77421F6E76E21F4E76621F2E77221AC
:10961000F0E723683246DB68414620469847ECE78E
:109620008D4204D023686A1A9B68204698472221FD
:109630002046FFF79DFEBDE8F08100BFD0C90D00B8
:1096400013B50446CDE90021FFF764FF2046DDE9AC
:109650000021FFF79DFF02232046237102B010BDB9
:1096600013B50446CDE90021FFF754FF2046DDE99C
:109670000021FFF78DFF01232046237102B010BDAA
:1096800080680368DB6818477047084611B10B68AB
:109690005B6818477047704770477047704738B528
:1096A00004460D4600682E2102F071FB2368C31AA0
:1096B0002B6023B1037803B1013023682060184682
:1096C00038BD10B50C21044601F090FE204610BDB7
:1096D00010B50421044601F089FE204610BD10B5E6
:1096E0000421044601F082FE204610BD08B502F0B8
:1096F00058FBB0FA80F0400908BD704710B50C4621
:1097000001F0FAFC844210D001F06EFC844205D1D5
:1097100001F06AFCBDE8104001F063BC2CB1236885
:1097200020465B68BDE81040184710BD13B50446DD
:109730000846019102F065FB01990246204602B0FD
:10974000BDE81040FFF78CBF13B5044608460191F1
:1097500002F057FB23680199DB680246204602B0FD
:10976000BDE81040184707B503688DF80710DB689F
:1097700001220DF10701984703B05DF804FB0EB418
:1097800003B503AB002153F8042B006A019300F0EA
:10979000FAFF02B05DF804EB03B070472DE9F74F14
:1097A000D0E900954FF0140808FB05F50093AB10C5
:1097B000184D17465D434C46002D23DD6E1008FB07
:1097C00006F004EB000A3A46BAF804B020580191BA
:1097D0005F4528BF5A4602F01CFB0199012378B966
:1097E0005F4503D1009A13703546E5E78CBF012031
:1097F00000200028F8D0AE1B0AF11404013EF3E764
:10980000C00FF6E7A4EB09040248A410604303B0BC
:10981000BDE8F08FCDCCCCCC7FB50369067E01913D
:109820000BB301B3002500F10C04039503A901A8B3
:10983000FFF735FF0146B0B10DF10B03039A8DF828
:109840000B502046FFF7AAFF9DF80B305BB1246850
:10985000142303FB004000F10804B0F90630002B8C
:10986000A8BFDEB2E2E7304604B070BD10B5094CC7
:109870002378BFF35B8FDB0709D42046FAF71CFC83
:1098800028B12046FAF71DFC034802F0D3F903483B
:1098900010BD00BF84E5032097960D0034DD032042
:1098A00010B5094C2378BFF35B8FDB0709D4204642
:1098B000FAF702FC28B12046FAF703FC034802F04D
:1098C000B9F9034810BD00BF88E50320FB960D00E1
:1098D00038DD032038B500250446C0E90055C0E94D
:1098E00004558560856140F8245FFEF7D3FCFFF7DF
:1098F000BDFFE061FFF7D4FF25732062204638BD2D
:1099000010B50A4C2378BFF35B8FDB070CD42046DD
:10991000FAF7D2FB40B10648FFF7DCFF2046FAF722
:10992000D0FB044802F086F9014810BD80E5032011
:1099300090E50320699D0D00024A03490348002376
:10994000FEF7B0BEF19B0D007D9B0D00FD9A0D0052
:1099500000231A4619461846FEF7A4BE70B58AB011
:109960000D46014604A8FCF7B3FE144E04A8FFF709
:10997000B5FDE8B104A96846FCF7BBFE0298314684
:10998000FFF7B4FE044610B12C1E18BF012401A835
:10999000FCF788FE002CE9D004A96846FCF7BAFE63
:1099A0006846FFF73EFD286001A8FCF77BFEDDE777
:1099B00005A8FCF777FE0AB070BD00BFD6C90D0040
:1099C00037B50C4620461249154602F0EAF948B967
:1099D00001F092FB4FF4165101F07EFB01F08CFB7D
:1099E00003B030BD0B49204602F0DBF970B94FF4EB
:1099F000165301A928460193FFF7B0FF01F0F4FACE
:109A0000019901F0EBFA01F0EFFAE9E70020E7E74E
:109A1000DBC90D00E2C90D0070B5D0E90053142672
:109A2000044606FB0356AE4205D005F10800FFF7D9
:109A3000F3FF1435F7E72068FEF744FF204670BDBA
:109A400070B5D0E90053044605EB0316AE4204D0CE
:109A5000284600F0A5FF1035F8E72068FEF732FF32
:109A6000204670BD10B504460C30FFF7D5FF2046E8
:109A7000FFF7E6FF204610BD10B5044B044640F842
:109A8000043BFFF7EFFF204610BD00BF58C30D0099
:109A900010B50446FFF7F0FF2046242101F0A6FC94
:109AA000204610BD10B5034B03600446FFF7E4FFEA
:109AB000204610BD84CA0D0010B50446FFF7F2FF22
:109AC0002046242101F092FC204610BD0022C0E96E
:109AD000002210B582600C6804604C6844608C6899
