:02000002D0002C
:1040000000400D00F8A70D00000006000D0005019E
:084010000401FD08000000009E
:04401800049E0D00F5
:1040200009480A49884208B505D0094A824202D0A7
:10403000121A05F0D5FC0748074A0021121A05F0AC
:10404000F7FC014808BD00BFB8DD032058A70D00EC
:1040500030DE032030DE0320EDE7032070B5074E8D
:10406000074C04F0C1FFA41BA4080025A54200D101
:1040700070BD56F8043B98470135F7E720A70D00BF
:104080004CA70D0000F03ABB08B500F009FABDE8F6
:10409000084004F061BF02F0BFBC02F0BDBC02F0FA
:1040A000C3BC000008B5034A00210C2002F0AEFB9F
:1040B000FEE700BFFD640D000078B0FA80F0400913
:1040C00070470123037070477047006A0368DB681C
:1040D00018470000014B01221A70704710E30320BB
:1040E0000A4B10B50446036003F060FC214603F060
:1040F00022FE04F0E9FE04F0D9FE2046044B40F80D
:10410000043B03F005FD204610BD00BF30A00D00AC
:1041100018A00D0010B50446FFF7E2FF2046242149
:1041200005F03AF8204610BD0EB410B58DB00FAAB8
:10413000016852F8044B039200232020CDE90403C8
:10414000CDE900421E2004AA02F068FB0DB0BDE8D4
:10415000104003B07047000038B5174D174C2B784E
:10416000BFF35B8F13F0010F0BD12846FFF7A4FFBD
:1041700038B104F0A6FDC117C4E900012846FFF7D5
:10418000A0FF04F09EFDD4E90023C117994208BFA7
:1041900090420FD004F095FD094A13880133138033
:1041A000084A1388C11701331380C4E90001064B84
:1041B00000221A7038BD00BF3CDE032048DE032019
:1041C00074E1032040E0032010E3032030B585B004
:1041D0000D4600226946009202F038FBB0B9009CFF
:1041E0000CB1236923B90A4A00210A2002F00EFB10
:1041F0000023ADF806300C23ADF8043004230393FC
:104200000295236901AA01212046984705B030BDD7
:10421000FD640D0007B5032001A9FFF7D7FF40B9E2
:10422000BDF8043000EE103ABBEECC0A03B05DF8E6
:1042300004FBBFEE000AF9E738B5046805467CB117
:104240006368013B63605BB9236820469B689847BD
:10425000A368013BA3601BB923682046DB6898472D
:10426000284638BDF0B573497348A3B0FFF75CFF2B
:104270000121072004F039FFFFF7CCFFFCEEC07AE4
:1042800012A9CDED077A07209DF81C50FFF79EFF7D
:10429000041E6A48A8BF129C00F035FF684B0D93BE
:1042A00001238DF83830674B8DF83E501B888DF810
:1042B0003A301A12644B8DF839201B888DF83C3047
:1042C0001A1255238DF83D30604B8DF83B201B783A
:1042D0008DF840305E4B8DF83F401B788DF84130B3
:1042E0005C4B1A788DF84420511C40BA1970ADF817
:1042F000420059495048FFF717FF02F00DFB60B12B
:10430000564B574A1B788DF8003012A855493C236C
:1043100002F096FD13A8FFF78FFF00230093524889
:10432000012311220DA901F00BF9044600287FD1C9
:10433000F9234E4940484E4D8DF82230FFF7F4FEE8
:104340000DF123030093CDE90344CDE90144464830
:1043500040F6B8330DF12202294601F0F7F90028A2
:1043600061D09DF822303548EC549DF823300793F6
:1043700000F0C9FEAF789DF844603E493E4A079B75
:10438000B74218BF0A46CDE9000240213B4A12A8B5
:1043900002F06AFB284812A9FFF7C6FED5F80320F1
:1043A0003749254812BA0792FFF7BEFE079A214601
:1043B000104604F01EFC079A234609A804F02CFCC2
:1043C000099B079A2F491C48FFF7AEFE09A804F085
:1043D0003DFBB5F807202C49174852BA92B2FFF7B7
:1043E000A3FEEA792B7A43EA0223284A138002F0DB
:1043F00093FA60B1194B26491B788DF8003009A853
:104400003C2312AA02F01CFD0AA8FFF715FF04F0D6
:1044100058FC204BC117C3E900010021072004F01C
:1044200064FE23B0F0BD1C490348FFF77DFEEEE7B4
:104430001A49F9E7259E0D0090E5032044E003208A
:104440000000FFFE74E1032040E0032000F403209D
:1044500051DE032050DE0320459E0D0040DE032088
:10446000589E0D006B9E0D00A4E10320739E0D006D
:1044700052DE0320189E0D001A9E0D00809E0D0036
:10448000A79E0D00B49E0D00D59E0D00B8DD032043
:10449000EF9E0D0078E10320F69E0D00479F0D0072
:1044A000F8B5134C134D2378022B07D0062B1AD0E6
:1044B0002B78E3B1BDE8F840FFF74EBE04F001FCF5
:1044C0000D4AD2E90032C61A0C4B4FEAE07161EB9B
:1044D00002071A880023B242BB41E9DA01232B709C
:1044E00006232370E4E7FFF7BDFE0223F9E7F8BDDA
:1044F00011E3032010E3032078E10320B8DD03205B
:1045000070B5D0E900531426044606FB0356AE42AC
:1045100004D0284604F09AFA1435F8E7206802F02F
:1045200083FA204670BD8842F8B504460D4616460B
:1045300016D9904215D2A2F11406751AA1F11407EA
:104540002C44B7421CD02CB13146204604F0FAFA74
:10455000337C2374304604F079FA143E143CF0E7BF
:104560000ED0B5420CD02CB12946204604F0EAFA10
:104570002B7C2374284604F069FA14351434F0E7D0
:10458000F8BD2DE9F0410023C0E9003383604F6896
:104590009F4204460E4623DD4FF0140808FB07F047
:1045A00002F03AFA0546D8B1D4E9001208FB02122B
:1045B000FFF7B9FF206802F037FA2560A760D6E957
:1045C000007308FB0378B84508D03946284604F044
:1045D000D3FA3B7C2B7414371435F4E773686360AB
:1045E0002046BDE8F0810000F0B5374B374A012581
:1045F0001D70374B00248DB09A601C609C809C71AC
:10460000032002F035F92146284602F041F92946F7
:10461000042001F05BFFCDE90044029404F054FC57
:104620002C4D0646694603A8FFF7ABFF2F4603A9AA
:1046300006A8FFF7A6FF284B47F8043B06A909A8E0
:10464000FFF79FFF09AA1E21384603F0CEFC09A8F8
:10465000FFF756FF06A8FFF753FF204B2B602E6293
:1046600003A8FFF74DFF1E4B2B6004F02DFC4FF409
:10467000165104F017FC03F099F92946194D03F07F
:1046800046FC6846FFF73CFF1749284604F029FA24
:10469000002216482C610023C5E90623C5E9084419
:1046A000AC620623124C40F8043B00F07FFA114B39
:1046B00002220E21204601F043FC022221460E4830
:1046C00000F034FF0DB0F0BD40DE03200000FFFF1E
:1046D00030DE032080E1032018A00D00ACA40D0003
:1046E00030A00D00E0E2032073A40D0050DF032092
:1046F00044E0032028E30320A4E103202DE9F04354
:1047000000209BB001F012FF4FF00009804643F6F5
:1047100097260027002001F009FFB0EB080461EBA9
:104720000905AF4208BFA64207D304F0CDFB04F051
:10473000C0FB10B902F0E8F8ECE704F0C5FB04F0A8
:10474000B8FB0121072004F0BFFC0321132004F073
:10475000BBFC0022114604A8049201F0BFFE049B9A
:10476000142B4FF0000273D1404A13780133DBB2AF
:10477000062B137075D83E4801F04AF918B93D4927
:104780003D48FFF7D1FC9FED3D0A3D483D4D01F00E
:1047900017FC3B480022172101F08CFD0023012269
:1047A0003949009313204FF0FF3302F03DFDFFF72E
:1047B00031FD10EE100A04F05DFE0B46334902464F
:1047C0000C88CDE9022304F05FFA3149002814BFB8
:1047D00008462846DDE90223CDE900402D49264858
:1047E000FFF7A2FC00F0C0FA2B49044604A800F031
:1047F0008FFA05A904F1080004F0AFF90A9BE36100
:104800000BA904F1200004F0A8F9109B6363129B2C
:10481000E363149B6364169BE364189B63659DF8D4
:10482000643084F8583004A800F056F804F049FACF
:104830001A490246C3170846C1E9182300F00CFBC9
:10484000174B1A780AB902221A701BB0BDE8F08320
:10485000114604A8049201F041FE049B8C2B8AD1DE
:1048600082E7104B0D221A7085E700BF00F4032089
:10487000A4E103208F9F0D0090E5032000C0644455
:1048800044E00320859F0D00D5400D00B8DD0320D6
:10489000899F0D009B9F0D00E69F0D0050DF0320B8
:1048A00011E3032051DE0320014B024A1A607047D6
:1048B00014E3032040A00D007047704710B5082195
:1048C000044604F069FC204610BD10B510210446D2
:1048D00004F062FC204610BD10B5054B044640F8BC
:1048E0001C3B04F0B3F8201D04F0B0F8204610BDC6
:1048F000ACA00D0010B50446FFF7EEFF204658218E
:1049000004F04AFC204610BD10B5044B044640F8A4
:10491000043BFFF7E1FF204610BD00BF7CA00D0067
:1049200010B50446FFF7F0FF2046602104F034FC88
:10493000204610BD20F00203012B03D0431F584234
:1049400058417047184670470B6803604B684360D6
:1049500013B15A6801325A6070470000024A02607F
:104960004A684260704700BF8CA00D0091F9042096
:10497000027191F90520427191F90620827191F935
:104980000720C271704738B504460D460430043123
:1049900004F0E3F805F1140104F11400FFF7E6FF59
:1049A00005F11C0104F11C0004F0D7F805F12C01FD
:1049B00004F12C00FFF7DAFF95F9383084F838302D
:1049C00095F9393084F8393095F93A3084F83A302D
:1049D00095F93B3084F83B3005F13C0104F13C0093
:1049E000FFF7C4FF95F9483084F8483095F949300D
:1049F00084F8493095F94A3084F84A3095F94B30BB
:104A000084F84B3005F14C0104F14C00FFF7AEFF88
:104A100095F8543084F85430204638BD024A02607C
:104A200000224260704700BF8CA00D0030B500230B
:104A300087B0838083710D4605AB0093134904460C
:104A400004AB03AA284602F007F8032807D1039B0A
:104A50002371049B6371059BA37107B030BD0C49A2
:104A600004AB03AA284601F0F7FF022804D1039BF8
:104A70002371049B6371F0E7064903AA284601F0FD
:104A8000EBFF012804BF039B2371E6E74BA00D0059
:104A90004EA00D00559E0D0090F9043090F90520B0
:104AA00090F90610002BB8BF0848C2EB02124FEA7B
:104AB0008202BDBF00FB0320401840424FF46160FA
:104AC000A4BF00FB03235818704700BFF0F1FFFF9D
:104AD00090F9073043B990F904308B6090F90530B4
:104AE0004B6090F906300B60704790F9073030B595
:104AF000B3B990F904508C682C44D1E900328C6031
:104B000090F90540002DB5BF121B12194A604A608A
:104B1000B5BF90F9062090F906209B1A9B180B60F0
:104B200030BD0000054A08B502600022034642601D
:104B30000830FFF773FF184608BD00BF9CA00D00AA
:104B400000234360838183737047000030B50446BF
:104B500087B00D4611B10B784D2B03D02046FFF7DF
:104B6000EFFF1BE005AB00930F4904AB03AA2846F7
:104B700001F072FF0328F1D1039B2371049B637141
:104B8000059BA3712F21284604F0B2FF40B1411CC0
:104B900004F10800FFF74AFF0123E37107B030BDBD
:104BA000A081A073F8E700BF66A00D00104B11496B
:104BB00010B5044640F8043B03F093FF04F11400E1
:104BC000FFF72CFF0B4904F11C0003F08AFF04F1EE
:104BD0002C00FFF723FF04F13400FFF7A3FF04F1DB
:104BE0004400FFF79FFF002384F85430204610BD97
:104BF000ACA00D0073A40D002DE9F74F0446084644
:104C000004F0A0FF00250646019004F134083F4956
:104C1000019801AA05F009F80146002862D0012D8B
:104C200005F1010353D0022D56D0002D46D1024686
:104C300092F80090B9F1400F1546174602F10102B3
:104C4000F6D800222A7004F11C0003F0A0FF012214
:104C500085F8009084F854202A786AB397F800A069
:104C60000AF1FF323F2AB946BB4607F10107F5D9E1
:104C7000002304F12C0789F8003029463846FFF755
:104C8000D5FE89F800A0BAF1000F15D05D461BF8DB
:104C900001ABBAF1400FF9D800222A704946201D15
:104CA00003F075FF85F800A004F11400BAF1000FBD
:104CB00006D02946FFF7BAFE0125A8E71D46A6E75C
:104CC0003946FFF753FE237E013B2376F4E7404647
:104CD000FFF73CFF02259AE704F14400FFF736FF97
:104CE000032594E794F93B3043B194F94B202AB95A
:104CF00004F13400FFF724FF84F85420304601F01B
:104D000093FE94F8540003B0BDE8F08F70A00D003E
:104D100038B5134B04460D4640F8043B114903F0E7
:104D2000E0FE04F11400FFF779FE0E4904F11C00C7
:104D300003F0D7FE04F12C00FFF770FE04F13400FD
:104D4000FFF7F0FE04F14400FFF7ECFE002384F8C7
:104D5000543029462046FFF74FFF204638BD00BF9C
:104D6000ACA00D0073A40D0038B5094D2B6863B9D4
:104D70006020FFF790F9044630B1064B40F8043B41
:104D8000FFF714FF6423E3652C60286838BD00BF7B
:104D900018E303207CA00D0001F096BE01390B2919
:104DA00015D8DFE801F016081606160616160616C0
:104DB00006161E20704783070DD1642290FBF2F384
:104DC00002FB130000280CBF1C201D207047002090
:104DD00070471F2070471C207047F8B50123CB6037
:104DE00090F90430013B0B610023C1E90033064612
:104DF0000C4617468B602046FFF7CEFF96F906302B
:104E0000A2699A4203D0E3680133E360F3E796F9BD
:104E10000550012D13D0E3686069013DC5EBC50560
:104E20001D44E56096F9041000F26C70FFF7B6FFC0
:104E30008542C4BF073DE5602046FFF7ADFF214630
:104E400006F10800FFF744FE3846FFF74EFE204605
:104E5000BDE8F84001F038BEF0B590F8583085B0A4
:104E600004462BB9FFF780FF011D201DFFF78BFDC6
:104E700094F93F30002B69D0D4E9182304F1980746
:104E800039463E4602A8CDE9022301F015FE0FCEB9
:104E900004F1C8050FC50FCE0FC533682B6004F1B0
:104EA000300102A8FFF75AFD02AA394604F1380082
:104EB000FFF793FFC4E9240104F1180102A8FFF7EA
:104EC0004DFD02AA04F1C80104F14800FFF785FF77
:104ED000D4E924670B468642024677EB0301C4E916
:104EE0003023D4E9180124DAB04271EB070519DA4E
:104EF000002323602068FFF71DFD04F16801D4E959
:104F00001867019120BB04F13000FFF7C5FD361A88
:104F100067EBE077019902A8CDE9026701F0CCFDCB
:104F200005B0F0BD904271EB0303B4BF012302232F
:104F3000DFE7904271EB030301DA0323D9E7B042C4
:104F400071EB0703B4BF04230523D2E70623D0E7A0
:104F500004F11800D9E737B58D6804466846FFF7B5
:104F6000F3FC6A462946204602F0F6FA01A8FFF74C
:104F700063F9204603B030BD37B5CD6804466846B6
:104F8000FFF7E2FC6A462946204602F0C1FA01A872
:104F9000FFF752F9204603B030BD37B50D6904461E
:104FA0006846FFF7D1FC6A462946204602F059FAC6
:104FB00001A8FFF741F9204603B030BD016002713E
:104FC000704700680368DB681847006803681B6A5D
:104FD0001847006803689B6A1847006803689B6B62
:104FE000184737B505460C4619460192FFF7F5FFFD
:104FF0002868019A03685B69214603B0BDE8304028
:10500000184700680368DB6B184738B5044600682A
:1050100003680D465B6B984729462046FFF7F1FF72
:10502000257138BD38B50446006803689B68984709
:10503000054618B121792046FFF7E7FF284638BD1D
:10504000006803681B6C1847006803685B6C1847AE
:1050500000680368DB6C1847006803681B6D18471D
:10506000006803685B6D1847006803689B6D18470C
:105070002DE9F843044600680A9F1E4603681B6931
:10508000DDE9089898470546C8B11EB12046FFF7EC
:10509000E3FF3070B9F1000F04D02046FFF7D8FFCE
:1050A00089F80000B8F1000F04D02046FFF7D8FFC0
:1050B00088F800001FB12046FFF7D6FF3870284659
:1050C000BDE8F883012070470379032BFCD0012051
:1050D0007047002070478171704741717047C172FD
:1050E00070470173704741737047837B23EA020264
:1050F000114381737047C0797047007A7047407AD6
:105100007047807A7047008A00B270470079704714
:1051100001717047408A80B27047808A80B27047C0
:10512000C08A80B2704738B505460C462B682846C1
:10513000DB68984728B9002CF8D0204601F0CCFC59
:10514000F4E738BDF8B505460F46144601F0DEF920
:10515000064601F0DBF9801BB8420AD22B682846CC
:10516000DB68984730B9002CF3D0204601F0B4FC3E
:10517000EFE70020F8BD70B504460E4601F0C6F911
:10518000054601F0C3F9401BB04204D22379032B3A
:10519000F7D0012070BD0020FCE770B5C36904465C
:1051A000B3B101F0B3F964260546236820461B6BB2
:1051B000984768B101F0AAF9E369401B984209D801
:1051C0000A21012003F071FB704301F085FCECE73C
:1051D000012070BD0020FCE7064A0260FF2100228A
:1051E000027141714282C172828281818273C28264
:1051F000C2617047BCA00D00704770477047704790
:1052000070474171704781717047017170470000AC
:1052100030B5034D056001714271837130BD00BF2F
:105220003CA10D00704710B51021044603F0B4FFF7
:10523000204610BD0EB403B503AB002153F8042B78
:10524000019303F0F6FA02B05DF804EB03B0704787
:1052500073B5044608462279A36832B1A3B90B4955
:1052600002B0BDE8704003F0B3BA094A267B094D8D
:105270000949647B012E18BF2946CDE9001407496E
:10528000FFF7D8FF02B070BD054AEFE779A10D0026
:1052900073A40D0075A10D0071A10D008FA10D006B
:1052A00068A10D0010B50446FFF7B2FF054B23605F
:1052B000054BA3600123237300232361A3822046AF
:1052C00010BD00BFC8A10D00B4A10D0013B50B4C5B
:1052D0002178BFF35B8F11F001010BD120460191C2
:1052E000FEF7EAFE019928B1054803F0F5FA2046D9
:1052F000FEF7E7FE024802B010BD00BF1CE303202A
:1053000020E3032007B50191FFF7E0FF019903B007
:105310005DF804EB03F092BB08B5FFF7D7FFBDE8DB
:10532000084003F091BB08B5FFF7D0FFBDE8084087
:1053300003F08BBB10B50379042B20D0032B20D0B6
:10534000022B20D0114A1249012B18BF0A4641797D
:105350008379013918BF012133B1012B04D0022B0D
:1053600002D0032B18BF00230024047302610175CF
:105370004375FFF7ABFFBDE8104003F0B7BA054A2D
:10538000E5E7054AE3E7054AE1E700BF80841E0040
:1053900040420F000024F40000127A0000093D0092
:1053A00008B5FFF793FFBDE8084003F0B0BA10B5A9
:1053B0000446FFF78BFF04F10801BDE8104003F03D
:1053C000CFBA08B5FFF782FFBDE8084003F0AEBAD8
:1053D00008B5FFF77BFF08BD002302481A461946AF
:1053E000FFF760BF28E30320012A05D1007A0B787C
:1053F0001B1A584258417047002070472DE9F04F62
:10540000264D012387B02B706B7000230F46A970C7
:1054100000930322FF232946064600F0E7FB20B154
:105420000024204607B0BDE8F08FFA238DF817302E
:1054300001F06CF806F104098046AA4608F57A6482
:1054400001F064F8201A0028EADD81B20022484603
:10545000FFF7BFFD0028F3D00023CDE90233CDE9EB
:1054600000330DF117025146304600F0C9FB0446E7
:105470000028E3D09DF81730012BDFD995F800B054
:10548000BBF1020FDAD14846FFF7E6FD5B46024664
:105490003946304600F021FBC3E700BF40E303205C
:1054A000012A2DE9F34107460E4614463BD94D79B2
:1054B000022D30D100F10408C97901914046FFF76F
:1054C000CBFD083C2B4602460199384600F005FB0F
:1054D000E5B206F1080300242246954204F10104D6
:1054E000E4B204D913F8012B397A9142F4D104F1D2
:1054F00008010E44A54216D916F8011B0191404639
:10550000FFF7AAFD01340246019902233846E4B2AE
:1055100000F0E3FAEEE7032D05D1897902B0BDE88A
:10552000F04100F0C3BA02B0BDE8F08110B5044606
:1055300000F014FB014B2360204610BDFCA10D00C0
:105540002DE9F047F92A9DF8209006460F461446AB
:105550001D4625D8FF2B14D1DFF848804046002394
:105560002246394600F8013B04F03AFA621CCDF8B5
:1055700020902B4641463046D2B2BDE8F04700F0BD
:1055800035BB194600F04EFA0028E5D133682946AC
:105590009B68304698470028DED10220BDE8F0879E
:1055A0000120FBE740E303202DE9F04F89B0984646
:1055B000FA238DF81A300DF11F0303930DF11E032A
:1055C000DFF880A102930DF11D03019307AB009357
:1055D000894617460DF11B030DF11A025146DDF8FD
:1055E00048B0054600F00CFB5646044620B900249E
:1055F000204609B0BDE8F08F9DF81A3073B39AF8D1
:1056000000205ABBB8F1000F03D09DF81B2088F88A
:105610000020BBF1000F03D09DF81C208BF8002068
:10562000139A1AB113999DF81D200A70149A1AB191
:1056300014999DF81E200A70159A1AB115999DF8B3
:105640001F200A703A783D49013BDBB29A4288BF7D
:105650003B703A78484604F0C3F9C9E79DF81C202E
:10566000FF2AC4D1012BC2D93278012ABFD12A7AAC
:105670009DF81B40A242BAD0DF1E3149FFB2002381
:105680005FFA83F8474506D911F8010B824203F10E
:105690000103F5D1ABE705F104094846FFF7DCFC4F
:1056A000022302462146284600F017FA95F81731E2
:1056B00093B1244CA31BDBB29F420CD9E178059136
:1056C0004846FFF7C9FC059902460223284600F028
:1056D00004FA0134EEE7B8462B687278DB681A49A1
:1056E00028469847044660B10223002433709DF891
:1056F0001A209DF81B3013490094284600F076FAD2
:1057000076E795F8163143457FF671AF95F8173176
:10571000002B3FF46CAF9DF81A202B7A09493E44C8
:105720000132F3709DF81B300190D2B200932846ED
:10573000FF238DF81A2000F023FA59E741E30320F4
:1057400043E3032040E3032042E303202DE9F04F2D
:1057500085B080461C46DDE91056129F8946924668
:1057600000F0D4FE08F1040B044400F0CFFE201A30
:10577000002816DD81B200225846FFF72AFC0028D7
:10578000F3D00F9B0093CDE902670E9B0195524623
:1057900049464046FFF708FF0028E6D005B0BDE8BF
:1057A000F08F0020FAE70000F0B585B00546043020
:1057B0000E460392FFF750FC039A074631462846EF
:1057C00000F047F90228044601D005281BD13178A2
:1057D000284600F06BF972782B7A9A4213D00B4C62
:1057E0000323237033786370717802233A46284686
:1057F00000F073F9002300932146737802222846B3
:1058000000F0F4F90446204605B0F0BD40E3032063
:1058100010B50446FFF7D2FBC8230021E381032320
:10582000A160217323744FF4807204F1110004F01D
:10583000FFF8204610BD1FB504460192FFF700FC9B
:10584000204600228021FFF7FFFB2122019B8DF8DB
:105850000F200DF10F0101222046FFF7C2FB204669
:10586000FFF7B3FB04B010BD2DE9F04F057B013508
:10587000EDB287B0044689469246984605730027E4
:10588000227C3B469A4207F10107FFB26BD32946BF
:105890002046FFF7D5FB012F0DBFC02280224021FB
:1058A00000212046FFF7D0FB43465246494620469A
:1058B000FFF797FB2046FFF788FBB8F1FF0F54D0A6
:1058C000012F82BFA3680133A36000F01FFE4FF4D5
:1058D000807183460020E68902F0E7FF704348BFED
:1058E000FF3006EB20261BFA86F600F00FFE301A7A
:1058F0000028C5DD81B200222046FFF76AFB0028A0
:10590000F3D00DF1170302930DF11603019300225A
:105910000DF115030093114605AB2046FFF7A8FBD8
:105920000028E2D09DF814209DF9173042450ED191
:1059300094F804C09DF815108C4508D1002B08DAA6
:105940009DF81630AB42D0D107B0BDE8F08F002BE8
:10595000CBDBA1189DF81630497C9942C5D1204671
:10596000FFF769FFC1E70020EEE70120ECE72DE932
:10597000F04389B0CDE90421DDE91098129F044677
:105980001E46FFF71EFBDDE9042120B9002528464D
:1059900009B0BDE8F0830DF11F0302930DF11E0362
:1059A00001930DF11D030093204607ABFFF760FB49
:1059B00005460028EAD09DF91F30002BE6DB22794E
:1059C0009DF81D309A4206D19DF81C209DF81E10AE
:1059D0002046FFF730FF9DF81C209DF81E30144430
:1059E000617C9942D2D006B13270B9F1000F03D078
:1059F0009DF81D2089F80020B8F1000F01D088F82B
:105A0000003017B19DF81F203A706374BFE77047EC
:105A100010B504460430FFF705FB10B11E2384F8CF
:105A2000163110BD10B50246002392F818418C4281
:105A300008D192F81A412CB103EB430303F58C73A0
:105A4000184410BD01330A2B02F10302EDD10020EE
:105A5000F7E737B50B78FF2B05460C4606D01946FD
:105A60000192FFF7DFFF58B14378019A2146281DC4
:105A7000FFF7FAFE002814BF0020052003B030BD58
:105A80000220FBE710B501EB41030446C1F1090216
:105A900003F58C7003F21B1102EB420221442044F7
:105AA00003F09EFF002384F8353110BD38B50A4657
:105AB000002300F58C7403EB4305D9B2655D954274
:105AC00003D1FFF7DFFF012038BD01330A2BF2D1EC
:105AD0000020F9E70021FFF7D5BFF8B516461F46AD
:105AE00004460D46002300F58C7203EB4300115C65
:105AF000A94205D1204480F8196180F81A71F8BDD7
:105B000001330A2BF1D1002304F58D7203EB43001E
:105B1000115C19B9204480F81851ECE701330A2BC5
:105B2000F4D12046FFF7D6FF204604F11E0390F87B
:105B30001A212AB980F8185180F8196180F81A7171
:105B400003309842F3D1DAE700F11E03002280F817
:105B50001A2103309842FAD17047000010B504466C
:105B60000430FFF755FE054B23604FF48F7320463A
:105B7000A4F81631FFF7E8FF204610BD14A20D006F
:105B80002DE9F3470446406801911F4603689DF8DC
:105B900028A09B699DF82C901646984706F10508A9
:105BA00080451CD8104D019985F801A00023AB70E9
:105BB00094F81531EB705A1C84F81521681D324693
:105BC0002F7085F8049003F00BFF23685B685FFA81
:105BD00088F22946204602B0BDE8F0471847012068
:105BE00002B0BDE8F08700BF3AE4032013B59DF88A
:105BF00010400194047A0094FFF7C2FF02B010BD78
:105C00002DE9F04F87B01F46FF238DF813300DF1BB
:105C100017030293DFF8D0900DF1160301930DF1F5
:105C20001503009304468846164605AB0DF1130292
:105C300049460430DDE910BAFFF799FE054608B978
:105C4000002538E023689DF813201B68494620464C
:105C5000984799F80030227A9A4201D0FF2B2ED132
:105C600017B1214B5B783B70BBF1000F03D01E4B8B
:105C70001B788BF80030BAF1000F03D01A4BDB7899
:105C80008AF80030129B1BB1174B129A1B791370C4
:105C9000139B1BB1144B139A9B7813709DF8133010
:105CA00032781249053BDBB29A4288BF33703278B2
:105CB000404603F095FE284607B0BDE8F08F99F8FE
:105CC00002305A1C89F8022094F816219A42B7D95A
:105CD00094F81731002BB3D023689DF813205B682C
:105CE000494620469847ABE73AE403203FE40320C7
:105CF00010B50446006A0368DB68984794F82400EE
:105D0000FF2802D0012103F0DFF923682046DB6F72
:105D10009847642000F0E0FE012010BD90F82400B8
:105D2000002103F0E2B990F82400012103F0DDB96D
:105D300070B504460D461646FFF74EFA034B236036
:105D4000266284F82450204670BD00BF24A20D00B6
:105D500038B50446006A03681B6A0D4698472368F5
:105D600020469B6F9847206A036805F07F011B68F7
:105D70009847206A036800211B68984723680546F6
:105D8000DB6F20469847206A03685B6A984728467D
:105D900038BD70B50446006A03681B6A16460D4696
:105DA0009847236820469B6F9847206A036845F010
:105DB00080011B6898470546206A036831461B68C6
:105DC0009847012000F09AFB23682046DB6F984734
:105DD000206A03685B6A9847284670BDF8B5044698
:105DE000006A1E4603681B6A0F46154698472368DB
:105DF00020469B6F9847206A036807F07F011B6865
:105E000098472E440746B54207D0206A0368002110
:105E10001B68984705F8010BF5E723682046DB6F00
:105E20009847206A03685B6A98473846F8BDF8B51A
:105E30000446006A1E4603681B6A0F4615469847CB
:105E4000236820469B6F9847206A036847F08001CB
:105E50001B6898472E440746B54206D0206A15F8BD
:105E6000011B03681B689847F6E723682046DB6F31
:105E70009847206A03685B6A98473846F8BD006A0D
:105E800003689B6A184701207047FB2070477047E2
:105E900010B50379052B044610D003680521D3F80B
:105EA00080309847072201212046FFF772FF8022A9
:105EB00040212046FFF76DFF052323712379052B31
:105EC000FCD0207E10BD10B54FF49871044603F04D
:105ED00063F9204610BD10B50379012B04460BD0A1
:105EE00003680121D3F88030984700220121204621
:105EF000FFF74FFF01232371012010BDF8B50368A0
:105F0000DB6804460F46154698470646B0B187B190
:105F10007DB194F828302A78033B9342DEBF94F891
:105F20002830043B2B702A7804F12D01384603F009
:105F300057FD002384F8283184F828303046F8BD16
:105F400038B5044615461A46FFF7F2FE094B2360A2
:105F5000FF22002384F82720012284F8283184F8C6
:105F60002C3184F8265084F82B2184F825302046E3
:105F700038BD00BFBCA20D0090F82830032B1BD900
:105F800090F82930C37190F82A30037290F82B30C2
:105F9000437290F82C308372837933B9C379427994
:105FA0009A4202D0C379FF2B06D1838A01339BB278
:105FB0008382012380F82831704700000000000030
:105FC00038B504462DED028B10EE100AB0EE408A73
:105FD00003F050FA17A3D3E9002303F0A3FA17A3A1
:105FE000D3E9002303F0C8FB03F0AEFC062105460D
:105FF000C0F307422046FFF7CCFEC5F30722072176
:106000002046FFF7C6FEEAB208212046FFF7C1FE90
:10601000DFED077AB4EEE78ABDEC028BF1EE10FA01
:10602000ACBF01230023012084F8293138BD00BF13
:1060300000C042440000000080842E4100000000A7
:1060400080844E4010B50379022B04460BD00368C0
:106050000221D3F880309847012211462046FFF7ED
:1060600098FE0223237110BD70B512210446FFF77C
:106070006FFE1C2105462046FFF76AFEFF220646FA
:1060800012212046FFF785FE2379042B07D115F056
:10609000A00F17D194F82B310BB1700612D52379CC
:1060A000042B01D1690622D42379032B01D12A07BD
:1060B00069D42379052B0ED16B070CD505F00105AA
:1060C000257659E0638A01339BB26382002384F80A
:1060D000283184F82830FF2212212046FFF759FE8C
:1060E0002046FF22BDE870401221FFF752BE132167
:1060F0002046FFF72DFE102105462046FFF728FE1B
:106100000D2102462046FFF744FE04F129022B46EA
:1061100000212046FFF762FE192184F8285020460E
:10612000FFF716FE40B20028B8BF0330801084F895
:106130002A011A212046FFF70BFE94F92A3100B2FA
:10614000002B2082A9BF238A228A1BB21B01B2BF67
:106150009B180F2293FBF2F31BB2238294F8293190
:1061600073B1238A9D3B1BB223822046FFF704FFB5
:1061700094F82831002BAED02046FFF763FFAAE742
:10618000238AA43BEFE7E38A01339BB2E382F3E780
:10619000024B186808B1FFF767BF70473CE5032062
:1061A000024B586808B1FFF75FBF70473CE503201A
:1061B000024B986808B1FFF757BF70473CE50320D2
:1061C00010B50379042B044610D003680421D3F8DA
:1061D00080309847052201212046FFF7DAFD002292
:1061E00040212046FFF7D5FD0423237110BD10B5D3
:1061F0000379032B044605D0FFF7E2FF94F828014A
:10620000C0B210BD0020FCE710B50379032B044693
:1062100010D003680321D3F880309847032201216E
:106220002046FFF7B6FD402211462046FFF7B1FD9C
:106230000323237110BDFB2AF8B504460F4615460B
:1062400002D900263046F8BD03681B6A98472046ED
:10625000FFF7F8FE23682046DB6A984706460028C9
:10626000EFD000220D212046FFF793FDE27A0021B6
:106270002046FFF78EFD227B00212046FFF789FD97
:10628000627B00212046FFF784FDA27B002120468F
:10629000FFF77FFD2B463A4600212046FFF7C7FD5A
:1062A0002A1DD2B222212046FFF773FD2046FFF7B8
:1062B000ABFFC7E738B505460C4680F8252072B11C
:1062C00081F3040242F07002D2B20921FFF761FDAE
:1062D00004224D212846BDE83840FFF75ABD142955
:1062E00010DC012910DD11290FDD07224D21284680
:1062F000FFF74FFD033C64B2A21E62F07F02D2B2F0
:106300000921E7E71424F0E7022404224D2128465E
:10631000FFF73FFDF0E738B50C4605460A781D212A
:10632000FFF737FD62781E212846FFF732FDA2787D
:1063300028462621BDE83840FFF72BBD052913B5B7
:106340000FD8094B01EB41015C185A5AA378ADF8FC
:10635000042001A98DF80630FFF7DDFF012002B00F
:1063600010BD0020FBE700BFA4A20D0038B50A0A4B
:1063700005460C462021FFF70CFDE2B228462121FC
:10638000BDE83840FFF705BD73B50446FFF7B0FC24
:10639000064618B90026304602B070BD94F8265063
:1063A000FF2D52D029462046FFF769FD80220121AA
:1063B0002046FFF7EEFC0A2000F08EFB012120466C
:1063C000FFF7C6FC8028E5D194F82600FF281CD0F2
:1063D000002102F079FE94F82730FF2B07D1254ADF
:1063E0001378032BD6D8591C117084F8273094F8F1
:1063F0002720214B43F8224052BB204900924FF006
:10640000FF330122A8B200F00FFF00220E21204628
:10641000FFF7BFFC00220F212046FFF7BAFC204601
:10642000FFF710FE00212046FFF788FF08212046D5
:10643000FFF79CFF9FED120A2046FFF7C1FD0022E7
:106440000D212046FFF736FFA5E74FF0FF35ADE7FA
:10645000012A4FF0000304D100930A494FF0FF33A3
:10646000D0E7022A96D1009307494FF0FF3301226B
:10647000C8E700BF39E503203CE5032091610D002A
:106480000000D943A1610D00B1610D0008B5024BB8
:106490001B685B6C019308BD4802030008B5024B02
:1064A0001B689B6C019308BD4802030008B5024BB2
:1064B0001B68DB6C019308BD4802030008B5024B62
:1064C0001B685B6D019308BD4802030008B5024BD1
:1064D0001B685B6E019308BD3402030008B5024BD4
:1064E0001B68DB6E019308BD3402030008B5024B44
:1064F0001B685B68019308BD1802030008B5024BD6
:106500001B68DB68019308BD1802030008B5024B45
:106510001B685B69019308BD1802030008B5024BB4
:106520001B689B6D019308BD1802030008B5024B60
:106530001B68DB6D019308BD1802030008B5024B10
:106540001B685B6E019308BD1802030008B5024B7F
:106550001B689B6E019308BD1802030008B5024B2F
:106560001B689B68019308BD2C02030008B5024B11
:106570001B68DB68019308BD2C02030008B5024BC1
:106580001B681B69019308BD2C02030008B5024B70
:106590001B689B69019308BD2C02030008B5024BE0
:1065A0001B68DB69019308BD2C02030008B5024B90
:1065B0001B681B6A019308BD2802030008B5024B43
:1065C0001B685B6A019308BD2802030008B5024BF3
:1065D0001B689B6A019308BD2802030008B5024BA3
:1065E0001B68DB6A019308BD2802030008B5024B53
:1065F0001B681B6B019308BD2802030008B5024B02
:106600001B685B6B019308BD2802030008B5024BB1
:106610001B681B6C019308BD2802030008B5024BE0
:106620001B685B69019308BD6402030008B5024B57
:106630001B689B68019308BD6802030008B5024B04
:106640001B68DB68019308BD6802030008B5024BB4
:106650001B681B68019308BD3002030008B5024B9C
:106660001B685B68019308BD3002030008B5024B4C
:106670001B685B69019308BD3002030008B5024B3B
:106680001B68DB69019308BD3002030008B5024BAB
:106690001B681B6A019308BD3002030008B5024B5A
:1066A0001B685B6A019308BD3002030008B5024B0A
:1066B0001B68DB6B019308BD3002030008B5024B79
:1066C0001B681B6C019308BD3002030008B5024B28
:1066D0001B685B6C019308BD3002030008B5024BD8
:1066E0001B681B68019308BD3C02030008B5024B00
:1066F0001B689B68019308BD3C02030008B5024B70
:106700001B68DB68019308BD3C02030008B5024B1F
:106710001B681B69019308BD3C02030008B5024BCE
:106720001B685B69019308BD3C02030008B5024B7E
:106730001B689B69019308BD3C02030008B5024B2E
:106740001B68DB69019308BD3C02030008B5024BDE
:106750001B681B6A019308BD3C02030008B5024B8D
:106760001B689B6A019308BD3C02030008B5024BFD
:106770001B68DB6A019308BD3C02030008B5024BAD
:106780001B681B68019308BD4C02030008B5024B4F
:106790001B685B68019308BD4C02030008B5024BFF
:1067A0001B689B68019308BD4C02030008B5024BAF
:1067B0001B681B69019308BD4C02030008B5024B1E
:1067C0001B685B69019308BD4C02030008B5024BCE
:1067D0001B689B69019308BD4C02030008B5024B7E
:1067E0001B68DB69019308BD4C02030008B5024B2E
:1067F0001B681B6A019308BD4C02030008B5024BDD
:106800001B689B6A019308BD4C02030008B5024B4C
:106810001B685B6B019308BD6002030008B5024B67
:106820001B685B6D019308BD6002030008B5024B55
:106830001B68DB6E019308BD6002030008B5024BC4
:106840001B681B6F019308BD6002030008B5034B72
:106850001B68D3F89830019308BD00006002030064
:1068600008B5024B1B681B68019308BD200203009A
:1068700008B5024B1B685B68019308BD200203004A
:1068800008B5024B1B685B69019308BD2002030039
:1068900008B5024B1B68DB6A019308BD20020300A8
:1068A00008B5024B1B68DB6C019308BD2002030096
:1068B00008B5024B1B685B6D019308BD2002030005
:1068C00008B5024B1B689B6D019308BD20020300B5
:1068D00008B5024B1B68DB6D019308BD2002030065
:1068E00008B5034B1B68D3F88830019308BD00003E
:1068F0002002030008B5034B1B68D3F894300193C2
:1069000008BD00002002030008B5024B1B689B680D
:10691000019308BD4402030008B5024B1B685B6984
:10692000019308BD4402030008B5024B1B681B6AB3
:10693000019308BD4402030008B5024B1B681B6BA2
:10694000019308BD4402030008B5024B1B68DB6BD2
:10695000019308BD4402030008B5024B1B685B6845
:10696000019308BD4002030008B5024B1B689B68F9
:10697000019308BD4002030008B5024B1B68DB68A9
:10698000019308BD4002030008B5024B1B681B6958
:10699000019308BD4002030008B5024B1B685B6908
:1069A000019308BD4002030008B5024B1B689B69B8
:1069B000019308BD4002030008B5024B1B68DB6968
:1069C000019308BD4002030008B5024B1B681B6A17
:1069D000019308BD4002030008B5024B1B681B6B06
:1069E000019308BD4002030008B5024B1B685B6BB6
:1069F000019308BD4002030008B5024B1B681B6CE5
:106A0000019308BD4002030008B5024B1B685B6C94
:106A1000019308BD4002030008B5024B1B681B68C8
:106A2000019308BD1C02030008B5024B1B685B689C
:106A3000019308BD1C02030008B5024B1B689B684C
:106A4000019308BD1C02030008B5024B1B681B69BB
:106A5000019308BD1C02030008B5024B1B685B696B
:106A6000019308BD1C02030008B5024B1B68DB69DB
:106A7000019308BD1C02030008B5024B1B685B6A4A
:106A8000019308BD1C02030008B5024B1B68DB6ABA
:106A9000019308BD1C02030008B5024B1B681B6B69
:106AA000019308BD1C02030008B5024B1B685B6C18
:106AB000019308BD1C02030008B5024B1B68DB6C88
:106AC000019308BD1C02030008B5024B1B685B6DF7
:106AD000019308BD1C0203000021FFF7D1BE10B5D1
:106AE000836804460BB902F05DFBC3689847A3684E
:106AF0001BB1032221462046984720461021BDE8BD
:106B0000104002F049BB0B68036013B15A680132B0
:106B10005A607047024800230360FFF7B7BC00BF0C
:106B200048E50320002240681146FFF72DBF0022F0
:106B300040681146FFF748BF002240681146FFF742
:106B400053BF40680022FFF747BF4068002281F032
:106B50000101FFF731BF002340681A461946FFF7CD
:106B600023BF002340681A461946FFF715BF0022CD
:106B700040681146FFF7F8BE406800220221FFF787
:106B8000FBBE002340681A46FFF7E6BE084B10B56F
:106B9000282422461846002102F04AFF054B0480B3
:106BA0004FF0FF32426004225A60034A1A6010BD5F
:106BB00054E503204CE5032048A30D007047002056
:106BC000704710B51021044602F0E6FA204610BDC9
:106BD00008B5FFF7F6FF08BD10B58368044613B18A
:106BE000032201469847204610BD30B500224FF6DB
:106BF0009C74026084808D888C800C688580046021
:106C00000A6030BD10B504460068FFF70DFF20464E
:106C100010BD38B5C468F4B12378022B03D104F158
:106C20000C00FFF7EFFF656835B12846FFF7D4FF8A
:106C30001021284602F0B0FAA56835B12846FFF7C2
:106C4000CBFF1021284602F0A7FA20461421BDE808
:106C5000384002F0A1BA38BD73B50E46044656F866
:106C6000043B00930D4601A83146FFF74CFF019A03
:106C7000009B6260236001A8002301930093FDF74D
:106C8000DBFA3046FDF7D8FA2846082102F084FAEC
:106C9000204602B070BD13B50B460246D0E9000194
:106CA0006C4684E8030093E8030082E8030094E85C
:106CB000030083E8030002B010BD826810B50AB972
:106CC00002F070FABDE81040C368184708B50068C4
:106CD00000F11001FFF7F1FF08BD826810B50AB995
:106CE00002F060FABDE81040C368184708B50068B4
:106CF00000F11001FFF7F1FF08BD000038B50023D7
:106D00000446036010200D46FDF7C5F928B10123A4
:106D1000C0E90133024B0360C5602060204638BDE6
:106D200084A30D0038B5002383608B6804460D46AC
:106D30002BB102229847EB68E360AB68A360204662
:106D400038BD0000F0B589B004686846FFF74DFF14
:106D50004FF00203D4E84F2F002A03D1C4E8413F8B
:106D60000029F7D125D104F10C0569462846FFF723
:106D70003CFFBFF35B8F01236370002004F1080325
:106D8000BFF35B8F53E8006F43E80002002AF9D19C
:106D9000BFF35B8F6EB1FFF783FD78B129463046B4
:106DA000FFF78BFF3046FFF717FF1021304602F048
:106DB000F3F96846FFF726FF09B0F0BD314602A897
:106DC000FFF7B0FFE068B4F9105008B102F0BAFE66
:106DD00006901020ADF81C50FDF75DF90546E8B1AE
:106DE000002787601820FDF756F9044688B1014650
:106DF000876002A8FFF74FFF049BA268A360059B72
:106E0000049206A9E268E36004F110000592FFF71E
:106E1000ECFE084BEB60084B2C60AB6006A8FFF75C
:106E2000F1FE02A8FFF7D8FE002229460348FFF72B
:106E30003FFDB7E7CD6C0D00656F0D00DF6A0D00FB
:106E40002DE9F0478AB005469DF848900C46174654
:106E50009846FFF761FD07AE824638BB4FF62E73AA
:106E6000059005A93046ADF81830FFF7BEFE142096
:106E7000FDF711F9044648B1022303700123C0E96C
:106E800001AA437031460C30FFF7AFFE2846214679
:106E900040F8044BFFF732FF3046FFF7B3FE05A87A
:106EA000FFF7B0FE28460AB0BDE8F0870C234FF08C
:106EB000000A1420CDE908AA0793FDF7ECF8014673
:106EC00028B1C0E901AA80F800A080F801A004A8B8
:106ED0000391FFF713FF224B08930820FDF7DBF81F
:106EE000824628B1039B40F8043B04A9FFF70BFE40
:106EF00000965FFA89F3424639462046CDF824A031
:106F0000FFF712FDB8B9039B5B7803F0FF0293B95A
:106F10004FF69C7305A903A80592ADF81830FFF74A
:106F200011FF05A8FFF76EFE05A80999FFF794FE6B
:106F300006A8FDF781F9039B059304A906A8FFF7AE
:106F4000E2FD059B069A2B606A60002306A8069363
:106F50000593FDF771F904A8FDF76EF9A2E700BFEC
:106F600029700D00022AF8B5054607D0032A18D06B
:106F7000012A01D10B6803600020F8BD18200E68BB
:106F8000FDF789F8044650B13146FFF7CBFE306972
:106F9000B6F9147008B102F0D5FD2061A7822C600B
:106FA000EAE70468002CE7D004F11000FFF72AFE9E
:106FB0002046FFF711FE1821204602F0EDF8DBE72E
:106FC00038B5002383608B6804460D462BB102223E
:106FD0009847EB68E360AB68A360204638BD022A9F
:106FE00070B5044607D0032A12D0012A01D10B68DC
:106FF0000360002070BD14200E68FDF74CF80546B4
:1070000020B13146FFF7DCFF337C2B742560F0E7BD
:107010000468002CEDD02046FFF7DEFD1421204649
:1070200002F0BAF8E5E70000F0B589B004460D4675
:1070300001A81146FFF710FEA4B124B21DB12846E5
:1070400002F080FD054601A803A90395ADF81040A4
:10705000FFF778FE03A8FFF7D5FD02A8FDF7ECF8CF
:1070600009B0F0BD019D0123D5E84F2F002A03D1BF
:10707000C5E8413F0029F7D1EFD12B73BFF35B8FF8
:107080006B702B1DBFF35B8F53E8006F43E800422A
:10709000002AF9D1BFF35B8F002EDED02046FFF728
:1070A000FFFB074660B105F10C013046FFF715FE06
:1070B0003046FFF791FD1021304602F06DF8CCE725
:1070C000314603A8FFF77CFF2B7B8DF81C30102086
:1070D000FCF7E1FF0546D0B187601420FCF7DBFF29
:1070E000044678B18760014603A8FFF7D4FD059BED
:1070F000A268A360069B0592E268E3609DF81C30DD
:1071000006922374064BEB60064B2C60AB6003A821
:10711000FFF762FD002229460348FFF7C9FBC7E7D6
:10712000ED6C0D00DF6F0D00DF6A0D00002240687E
:107130001146FFF749BC002240681146FFF754BCD6
:1071400040680022FFF748BC4068002281F001013E
:10715000FFF732BC002340681A461946FFF724BCEB
:10716000002340681A461946FFF716BC0022406803
:107170001146FFF709BC002240681146FFF7F4BB37
:10718000406800220221FFF7F7BB002340681A463F
:10719000FFF7E2BB024B03225A60024A1A607047B3
:1071A0007CE50320A0A30D007047F8B50646154600
:1071B0000C468F18BC4206D0336814F8011B9B683C
:1071C00030469847F6E72846F8BD007C0022FFF7D6
:1071D000EDB9007C0021FFF7F1B9007C0021FFF739
:1071E000F5B9007C0021FFF7F9B9007C0021FFF719
:1071F000FDB910B51421044601F0CEFF204610BDA4
:1072000010B54FF47A73044608460021C4E901130F
:10721000034B236020741146FFF7F8F9204610BD98
:10722000DCA30D00004700002DE9FF4100241D46AE
:107230000F4690460646FFF7B1F9A5424FF004030A
:10724000ADF80D408DF80C308DF80F40A2BF9DF8C1
:1072500028308DF80E3003AC0749009443463A4677
:107260003046A8BF8DF80D50FFF790F9B0FA80F0C6
:10727000400904B0BDE8F08125720D00704710B5DB
:107280001821044601F088FF204610BDF0B5037DAB
:10729000062B8DB00E4600F104074FF0000412D00B
:1072A00000F1080515F8011D0A22304601F0A3FA85
:1072B000AF42044419D0002CF4D02E21304601F006
:1072C0008BFA0444EEE72F236A4639460A208DF8EC
:1072D0000040FFF7A3F9684602F051FC336802460C
:1072E000DB68694630469847044620460DB0F0BD3D
:1072F00010B5054B0446112240F8043B002102F072
:1073000097FB204610BD00BF04A40D000346074AAA
:1073100010B543F8042B01F1100251F8044B43F867
:10732000044B9142F9D10A781A7010BD04A40D00E3
:1073300010B59DF8084044EA032343EA024242EABA
:10734000016104234160037510BD13B5CB78009330
:107350008B784A780978FFF7EBFF02B010BD00F197
:107360001003012213F8101C0129184608D153F804
:10737000041C02EB4102013A03F11003F2D1704701
:10738000022904BF53F8041C5218F4E70EB4F0B5F8
:1073900088B000AF07F13405102155F8042B7A604E
:1073A00004462B467818FD60FFF766FB0F287A68C5
:1073B0001AD900F1080323F007036E46ADEB030D65
:1073C000411C2B466846FD60FFF756FB021E04DD9C
:1073D000236869469B6820469847B5462037BD46D6
:1073E000BDE8F04003B070470028F7D0236802469C
:1073F0009B6807F1100120469847EFE710B5036836
:1074000004469B689847A368013BA3602BB9236897
:107410002046DB68BDE81040184710BD07B503687B
:107420008DF807109B6801220DF10701984703B002
:107430005DF804FB38B50B6803604D6843689D42F6
:1074400004460CD015B16B6801336B60606828B1DD
:107450004368013B43600BB9FFF7D0FF65602046EE
:1074600038BD0B461146002210B5C0E90022044683
:1074700083600BB9204610BDFFF7DCFFFAE7836895
:10748000EBB11A78032A1AD8DFE802F00417021BBE
:107490000520704702685B685268D05C2D2812D0C6
:1074A000A0F13003092B0ED974280ED066280CD019
:1074B000A0F16E03584258417047062070470020E3
:1074C000704704207047032070470220704710B5B2
:1074D0000446FFF7D4FF02280ED0C31EDBB2012BF7
:1074E00014D82268A36850685B68BDE810400A227F
:1074F0000021184402F016BC2268A36852685B6839
:10750000D05CA0F174035842584110BD0020FCE744
:1075100038B50023C0E9003304460E48C4E902032D
:10752000A9B10B78032B06D08BB9136858684B6848
:10753000C35C6E2B07D013684D6858688B6828446D
:107540005B1BA060E36011462046FFF773FF2046F7
:1075500038BD00BF73A40D0038B500250B46C0E947
:107560000055C0E90255C0E90455044611464BB127
:107570001A78012A06D103F11002DB6882604361A8
:10758000FFF758FF204638BD10B54369044663B184
:107590008068E060013B1030A0602061636113B13E
:1075A000FFF7DDFEA060012000E0184610BD10B519
:1075B0007D210446FFF732FF01232371204610BDD1
:1075C00008B50379012B02D0022B04D008BD2C2171
:1075D000FFF724FFFAE73A21FAE710B50446FFF770
:1075E000EFFF20467B21FFF719FF00232371204680
:1075F00010BD000013B504460191FFF7E1FF2368B9
:10760000019ADB68034920469847012320462371ED
:1076100002B010BD559E0D0013B504460191FFF751
:10762000CFFF2368019ADB6803492046984701236E
:107630002046237102B010BD10A40D002DE9F041C9
:107640000D4617462221DFF8A08004462F44FFF79D
:10765000E5FE2946BD422A4638D015F8016B222E98
:1076600003D05C2E01D01F2EF4D82368521A9B68D9
:10767000204698475C212046FFF7D0FE0D2E0AD801
:10768000072E1CD9A6F10803052B18D8DFE803F054
:107690000D0F11171315222E01D05C2E0FD131467C
:1076A0002046FFF7BBFE2946D4E76221F8E77421A4
:1076B000F6E76E21F4E76621F2E77221F0E723682E
:1076C0003246DB68414620469847ECE78D4204D0BD
:1076D00023686A1A9B682046984722212046FFF7B4
:1076E0009DFEBDE8F08100BF13A40D0013B5044654
:1076F000CDE90021FFF764FF2046DDE90021FFF717
:107700009DFF02232046237102B010BD13B504462D
:10771000CDE90021FFF754FF2046DDE90021FFF706
:107720008DFF01232046237102B010BD80680368DD
:10773000DB6818477047084611B10B685B6818474B
:107740007047704770477047704738B504460D461C
:1077500000682E2102F0D9F92368C31A2B6023B1E7
:10776000037803B1013023682060184638BD10B596
:107770000C21044601F010FD204610BD10B5042177
:10778000044601F009FD204610BD10B50421044651
:1077900001F002FD204610BD08B502F0C0F9B0FAB4
:1077A00080F0400908BD704710B50C4601F08CFB15
:1077B000844210D001F0FEFA844205D101F0FAFAB9
:1077C000BDE8104001F0F3BA2CB1236820465B6895
:1077D000BDE81040184710BD13B504460846019196
:1077E00002F0CDF901990246204602B0BDE81040F2
:1077F000FFF78CBF13B504460846019102F0BFF9AC
:1078000023680199DB680246204602B0BDE81040BB
:10781000184707B503688DF80710DB6801220DF1E2
:107820000701984703B05DF804FB0EB403B503AB42
:10783000002153F8042B006A019300F0FAFF02B014
:107840005DF804EB03B070472DE9F74FD0E90095E0
:107850004FF0140808FB05F50093AB10184D1746C0
:107860005D434C46002D23DD6E1008FB06F004EB53
:10787000000A3A46BAF804B0205801915F4528BF83
:107880005A4602F084F90199012378B95F4503D182
:10789000009A13703546E5E78CBF012000200028D0
:1078A000F8D0AE1B0AF11404013EF3E7C00FF6E76F
:1078B000A4EB09040248A410604303B0BDE8F08FB4
:1078C000CDCCCCCC7FB50369067E01910BB301B35F
:1078D000002500F10C04039503A901A8FFF735FF6B
:1078E0000146B0B10DF10B03039A8DF80B50204601
:1078F000FFF7AAFF9DF80B305BB12468142303FB4C
:10790000004000F10804B0F90630002BA8BFDEB239
:10791000E2E7304604B070BD10B5094C2378BFF3E0
:107920005B8FDB0709D42046FCF7C6FB28B1204655
:10793000FCF7C7FB034802F04DF8034810BD00BF39
:1079400088E5032043770D00BCDD032010B5094C0A
:107950002378BFF35B8FDB0709D42046FCF7ACFB31
:1079600028B12046FCF7ADFB034802F033F803488A
:1079700010BD00BF8CE50320A7770D00C0DD0320FC
:1079800038B500250446C0E90055C0E904558560B6
:10799000856140F8245FFEF779FDFFF7BDFFE061E8
:1079A000FFF7D4FF25732062204638BD10B50A4C7E
:1079B0002378BFF35B8FDB070CD42046FCF77CFBFE
:1079C00040B10648FFF7DCFF2046FCF77AFB04488D
:1079D00002F000F8014810BD84E5032094E503207F
:1079E000157E0D00024A034903480023FEF726BF17
:1079F0009D7C0D00297C0D00A97B0D0000231A46FB
:107A000019461846FEF71ABF70B58AB00D460146F2
:107A100004A8FDF7A0FA144E04A8FFF7B5FDE8B1DD
:107A200004A96846FDF7A8FA02983146FFF7B4FEAC
:107A3000044610B12C1E18BF012401A8FCF7FCFB62
:107A4000002CE9D004A96846FDF7A7FA6846FFF7BD
:107A50003EFD286001A8FCF7EFFBDDE705A8FCF779
:107A6000EBFB0AB070BD00BF19A40D0037B50C4682
:107A700020461249154602F052F848B901F024FA9E
:107A80004FF4165101F00EFA01F01EFA03B030BDAA
:107A90000B49204602F043F870B94FF4165301A980
:107AA00028460193FFF7B0FF01F084F9019901F036
:107AB0007BF901F07FF9E9E70020E7E71EA40D005C
:107AC00025A40D0070B5D0E900531426044606FB2A
:107AD0000356AE4205D005F10800FFF7F3FF143559
:107AE000F7E72068FEF7A0FF204670BD70B5D0E92B
:107AF0000053044605EB0316AE4204D0284600F0BE
:107B0000A5FF1035F8E72068FEF78EFF204670BD10
:107B100010B504460C30FFF7D5FF2046FFF7E6FF0F
:107B2000204610BD10B5044B044640F8043BFFF757
:107B3000EFFF204610BD00BF18A00D0010B5044691
:107B4000FFF7F0FF2046242101F026FB204610BD60
:107B500010B5034B03600446FFF7E4FF204610BD59
:107B6000C4A40D0010B50446FFF7F2FF20462421FF
:107B700001F012FB204610BD0022C0E9002210B522
:107B800082600C6804604C6844608C680A604A60DB
:107B900084608A6010BD10B5036804461868FEF75B
:107BA0008DFC204610BD00002DE9F04F87B08046C7
:107BB00003931C4B5B68C3F30803894616466BB9F5
:107BC000FFF7F4FE044600F12403406A0593FEF734
:107BD0006DFC237B2BB105A8FFF7DDFF07B0BDE8E7
:107BE000F08F01232373D4E900535FFA89F905EB81
:107BF000830AAA4512D055F8047B3146381DFFF799
:107C000061FE8145F5D33B68039A0092D3F808B032
:107C10004A46334641463846D847EAE700232373AD
:107C2000D9E700BF00ED00E02DE9F74F9B461A4B66
:107C30005B68C3F308038046894616466BB9FFF7B5
:107C4000B5FE044600F12403406A0193FEF72EFCC2
:107C5000237B2BB101A8FFF79EFF03B0BDE8F08F97
:107C600001232373D4E90053F6B205EB830A55458B
:107C70000ED055F8047B5946381DFFF723FE864287
:107C8000F5D33B684A46DB68414638469847EEE7FD
:107C900000232373DEE700BF00ED00E02DE9F34190
:107CA000164B5B68C3F3080305460F461BBBFFF783
:107CB0007DFE00F124030446406A0193FEF7F6FBC3
:107CC000D4E90063462406EB8308B04509D101A836
:107CD000FFF761FFA542B4BF0020012002B0BDE85C
:107CE000F08156F8040B39460430FFF7EBFD84426F
:107CF000A8BF0446E9E70020F0E700BF00ED00E080
:107D000070B50446D0E900020B4600EB82028242C5
:107D100007D001461D6851F8046BAE4203D00846F7
:107D2000F5E7002070BD521A01F068FE6368013B60
:107D300063600120F6E71FB500F124030446406AA2
:107D400001910393FEF7B2FB01A92046FFF7D8FF8C
:107D500018B163680BB9FFF751FE03A8FFF71BFFCB
:107D600004B010BD70B5D0E904561823044603FBD7
:107D70000656AE4215D005F110012046FFF7C0FFB0
:107D800063680BB9FFF73AFEE06929690368DB68AD
:107D90009847696919B1206A0368DB689847183504
:107DA000E7E7D4E90453182606FB0356AE4204D095
:107DB000284600F04BFE1835F8E70023636170BDDC
:107DC00073B50446FFF71AFE04F12403606A0193B9
:107DD000FEF76CFB2046FFF7C5FF01A8FFF7DBFEAF
:107DE000606A08B1FEF75AFBD4E90453182606FB73
:107DF0000356AE4204D0284600F028FE1835F8E7B6
:107E00002069FEF711FE2068FEF70EFE204602B044
:107E100070BD00000148FFF7D3BF00BF94E5032009
:107E20008842F8B506460C46154627D9904226D218
:107E3000A2F114056C1AA1F1140704440026AF4204
:107E40003DD0A4B12B682360AB88A380B5F9063080
:107E5000E380C4E902662661AB68A360AE60E368B4
:107E6000EA68E260EB6023692A6922612B6105F10F
:107E70000800FFF727FE143D143CE0E71FD0002761
:107E8000AC421CD0A6B123683360A388B380B4F998
:107E90000630F380C6E902773761A368B360A76054
:107EA000F368E268F260E36033692269326123615A
:107EB00004F10800FFF706FE14341436E0E7F8BDBD
:107EC000F8B5D0E901539D4204460E4617460DDB36
:107ED0000135002D006804DDA900FEF7ADFD18B9DD
:107EE000F8BDFEF7A1FD00202060A560256862684E
:107EF00005EB86019200A2EB8602081D01F07EFDD3
:107F000045F826706368013363600120E8E737B500
:107F100000F124030446406A01930D46FEF7C6FAB9
:107F2000D4E9003103EB810083421A460BD012687A
:107F3000AA4203F10403F7D101A8FFF72CFE0025A4
:107F4000284603B030BD2A462046FFF7B9FF054654
:107F50000028F1D06368012B01D1FFF743FD01A890
:107F6000FFF719FEECE78842F8B504460D461646C1
:107F700014D9904213D2A2F11006751AA1F110077C
:107F80002C44B74218D01CB13146204600F0DAFD2F
:107F9000304600F05BFD103E103CF2E70CD0B542DD
:107FA0000AD01CB12946204600F0CCFD284600F03E
:107FB0004DFD10351034F2E7F8BD70B50E1E0546C4
:107FC00011DD3001FEF728FD044658B1D5E9001255
:107FD00001EB0212FFF7C7FF2868FEF725FD2C60B2
:107FE000AE60012070BD0024F6E72DE9F04F914608
:107FF00097B000230391D9F804100C9346229942BC
:10800000C0E90033C0E90233C0E90433CDE90A33E3
:108010000446027623DCD9E90057142303FB0757F3
:10802000AF423BD029460DA800F08CFD0DA911A848
:108030000B9E00F087FDDDE90B1399421BDA0A9BCA
:108040000B9A03EB061603EB0212314606F1100001
:10805000FFF789FFEEB90B9B01330B9311E00AA8E0
:10806000FFF7ABFF0028D6D10AA8FFF73FFD204657
:1080700017B0BDE8F08F01310AA8FFF79EFF002876
:10808000DDD111A800F0E2FC0DA800F0DFFC1435F2
:10809000C6E711A9304600F055FDDCE70026CDE922
:1080A0000D660F9637464FF0140ADDE90A239E420B
:1080B00080F297803301D35808930BB90136F4E767
:1080C0000AFB06F3099702930DAD09A908A8FFF76B
:1080D0003CFB83460028F1D00146099A8DF81F70B9
:1080E0000DF11F032846FFF7AFFB9DF81F8001909D
:1080F000B8F1000F66D1BDF82430ADF84830CDE9B5
:1081000013884FF6FF73CDF844B0ADF84A30CDF880
:108110005480D5E9013293421ADB03F1010BBBF124
:10812000000F4ADD0AFB0BF0FEF776FC04900028F6
:1081300045D0D5E900120AFB0212FFF771FE049B3D
:1081400028680493FEF770FC049B2B60C5F808B008
:10815000019BD5F800B06A680AFB03F30BEB03013F
:1081600001F114000AFB02B204910593FFF758FED7
:108170000499A9B1059B119A4BF80320BDF848302A
:108180008B80BDF94A30CB80C1E902770F61139B28
:108190008B60149B1397CB60159B14970B611597FD
:1081A0006B6801336B6013A8FFF78CFCB8F1000F0C
:1081B00008D00DA8FFF786FC56E74346C0E74FF00E
:1081C0000108F0E7019B2D680AFB0355089B1B780B
:1081D0002BB9D9F80030029A13441B7CEB80083588
:1081E00073E72168226062686360A3680B920C9A4F
:1081F0000C93E368A2600D9A0D932369E2600E9AD6
:108200000E93636922610F9A0F93039B0A91626137
:108210002376CEE77FB50546094B45F8043B044677
:108220000E4601A81146FCF7ACF901AA31462846D2
:10823000FFF7DBFE01A8FCF763F9204604B070BD30
:1082400018A00D00F0B50F4687B026490C9C3846A3
:1082500016461D4601F063FC00BBE4B129466846A2
:10826000FFF78AFC2049242000F098FF054670B1F2
:10827000694603A8FCF785F903AA31462846FFF7AB
:10828000C9FF03A8FCF73CF9184B2C622B60684629
:10829000FCF736F92C46204607B0F0BD14493846A5
:1082A00001F03DFCE0B9002CF5D029466846FFF707
:1082B00063FC0D49242000F071FF05460028E6D03C
:1082C000694603A8FCF75DF903AA31462846FFF783
:1082D000A1FF03A8FCF714F9064B2B602C62D6E72C
:1082E0000024D8E72DA40D00C4A50D00C4A40D00E2
:1082F00031A40D00ACA40D00014B024A1A60704776
:1083000090E5032042A40D002DE9F047089DD0F828
:10831000209004460E461746984600F0D5FD81454C
:108320004CD02B79190704D56A6954492046FFF7C8
:108330007CFAB8F1000F0DD05B212046FFF769FAF7
:1083400041462046FFF756FA23684D49DB68022272
:10835000204698472B79DA0723D5D5F808802F21B6
:10836000404601F026FC08B100F1010841462046D4
:10837000FFF740FA2B799B0708D53A212046FFF7F3
:1083800048FAEA683F492046FFF74FFA2A792368FE
:1083900012F0040FDB6814BF3B493C49022220461F
:1083A00098472B7958071DD529690B461A4613F8AB
:1083B000010B60B1202808D11946F7E7344800F0D6
:1083C00066F90028ADD0BDE8F0872828EED12368F3
:1083D000521ADB682046984723682E49DB6804223E
:1083E0002046984700213846FEF720FA01462046ED
:1083F000FFF700FA23682549DB68022220469847E8
:108400001EB131462046FFF7F5F92B7913F0300FF6
:108410002CD023682049DB680222204698472B791C
:10842000D9060AD523681D49DB68072220469847EC
:10843000AA691B492046FFF7F8F92B799A0611D54E
:10844000DB0605D523681049DB68022220469847E1
:1084500023681449DB6820460A229847E9692046C8
:10846000FFF7C8F95D212046FFF7D3F923680E49CD
:10847000DB6820460222BDE8F047184746A40D00FD
:108480004DA40D00559E0D0050A40D0055A40D00E7
:10849000BCE5032053A40D0058A40D005BA40D00FF
:1084A00063A40D0066A40D0071A40D002DE9F04336
:1084B00085B0D0F820900C9C05460F4690461E468D
:1084C00000F002FD814505D1494800F0E0F80028A0
:1084D00040F08A802B6A474A01924FF0000901A8B8
:1084E00003938DF80890FFF778F849464046FEF769
:1084F0009DF941498046012201A8FFF7F7F841465E
:10850000FFF76AF93FB13D49012201A8FFF7EEF8F4
:108510003946FFF761F93EB13949012201A8FFF759
:10852000E5F83146FFF758F92379DF070ED5A6683D
:108530002F21304601F03DFB00B1461C314901229C
:1085400001A8FFF7D3F83146FFF746F923799E07D4
:1085500007D52D49022201A8FFF7C8F8E168FFF707
:1085600049F82379580714D5266933461F4613F86E
:10857000012B2AB1202A01D11E46F7E7282AF5D17E
:108580002249022201A8FFF7B1F8BA1B3146FFF7D2
:10859000BDF82379190707D51D49012201A8FFF766
:1085A000A5F86169FFF738F82379DA0608D50422BF
:1085B00018490DEB0200FFF799F8A169FFF71AF8C7
:1085C00023799B0607D51449062201A8FFF78EF8E8
:1085D000E169FFF701F901A8FEF7E9FF286A0F49F1
:1085E00003680222DB68984705B0BDE8F08300BF4E
:1085F000BCE5032094A40D0023A40D0074A40D0079
:1086000076A40D0078A40D007AA40D007DA40D00C1
:108610007E9E0D0080A40D0085A40D0071A40D00A8
:10862000002340681A46FEF797B9406800220221ED
:10863000FEF7A2B9002240681146FEF795B9002264
:1086400040681146FEF7A0B9002340681A46194653
:10865000FEF7A2B9002340681A461946FEF7A4B9EE
:1086600040680021FEF7C8B940680021FEF7CCB988
:108670004068002281F00101FEF79EB940680022A7
:10868000FEF7AAB9002240681146FEF7ADB90022F4
:1086900040681146FEF798B92DE9F043002495B0E3
:1086A00016460D460746FEF723FE214618220EA861
:1086B000009401F0BDF94023CDE90C3421466B460E
:1086C0000CAA3046FDF7BAFF0446002846D1024600
:1086D00001216868FEF758F9022180462246686841
:1086E000FEF752F9009E81462146002E36D0002921
:1086F00034D17368022B03D00A2B0BD0F669F4E750
:10870000B8F1000F04D0716938460431FEF71DFE40
:108710004146F3E7B9F1000F01D14946EEE774692C
:10872000102201A801F084F906238DF8143001AD60
:1087300004F108031834186859682A4603C208333C
:10874000A3421546F7D101A906A807ADFEF7DEFD45
:108750000FCD3C1D0FC42B682370DEE70098FDF79A
:1087600065FF384615B0BDE8F0830000024B034AB0
:108770001A6000225A607047BCE503200CA50D006A
:10878000F8B506460D468F180024BD420CD033685C
:1087900015F8011B9B6830469847031E01DB1C44FB
:1087A000F3E7002C08BF1C462046F8BD13B504466D
:1087B000084659B1019101F0E2F923680199DB689B
:1087C0000246204602B0BDE81040184702B010BD76
:1087D00008B5FFF7EBFF08BD03689B68184738B57D
:1087E0000D210546FFF7F8FF0A2104462846FFF74A
:1087F000F3FF204438BD30B58BB000238DF8243012
:10880000012A98BF0A2209AC0D46B1FBF2F101FB27
:10881000125303F0FF03092B94BF30333733DBB21D
:10882000AA4204F8013DEFD92146FFF7BFFF0BB084
:1088300030BD2DE9F04186B000AF05460E46381D2B
:10884000142114463B60FEF717F913280ED8391D82
:108850002846FFF7ABFF04461EB12846FFF7BFFFCF
:10886000044420461837BD46BDE8F08100F10803F6
:1088700023F00703E846ADEB030D2246411C3B689D
:108880006846FEF7F9F869462846FFF78FFF044669
:10889000C546E1E710B5044628B101F0F5F890FBB4
:1088A000F4F303FB1404204610BD884210B50446BF
:1088B00003DA081AFFF7EEFF0444204610BD00005B
:1088C000014B00229A607047C4E503200021FDF7A8
:1088D000F5BE0021FDF7FABE10B50446084621702A
:1088E000FDF7CCFE00236360204610BD10B50446A2
:1088F0000078FFF7EBFF48B920784FF6FF71FDF7DE
:10890000A5FE2078BDE81040FFF7E3BF10BD10B50D
:1089100004460078FFF7DAFF38B92078FDF79EFEAD
:108920002078BDE81040FFF7D4BF10BD0078FFF7F6
:10893000D0BF0000400830B5186000241868884295
:10894000E5B206D90134082C02D040081860F5E7DA
:108950000725024B5B5D137030BD00BF40A50D00C5
:108960002DE9F04306468FB000780C46FFF7AEFFC6
:1089700000281BDB35781422002109A801F058F8E3
:108980000B23002209A92846ADF82430FDF786FE06
:108990009DF82D3013B19DF82C5055B10027B946E4
:1089A000B846012523795DB1C3B100200FB0BDE801
:1089B000F083DDF830809DF834909DF83570F1E754
:1089C000002B35D1A368434508D18DF820908DF850
:1089D0002170BDF82020A3899A42E6D00023A16827
:1089E0008DF80F300A9804AB0DF10F02FFF7A2FFCC
:1089F000217985B989B9A36843450ED38DF82090B4
:108A00008DF82170BDF82020A3899A4205D1049BDE
:108A1000434502D1C9E70029F9D100230193637BC3
:108A200000939DF80F20237B3078FDF73FFEBCE7D5
:108A3000CDE900552B462A460121F5E708B5007817
:108A4000FDF714FEC0B208BD7047704710B504466C
:108A50000068FDF7E9FF204610BD10B50446006828
:108A600008B1FDF7E1FF0023C4E90133236010BD25
:108A700038B504460D4600680131FDF7DDFF10B141
:108A8000C4E90005012038BD10B50368044623B1D0
:108A900043688B4201D3012010BD2046FFF7E8FF59
:108AA0000028F9D0A368002BF5D122681370F2E7F3
:108AB00037B50D46114601920446FFF7E5FF019ACE
:108AC00028B92046FFF7C9FF204603B030BDA26099
:108AD0002946206800F084FF2268A3680021D15451
:108AE000F2E7002313B5C0E9003304468360037343
:108AF00041B10846019101F042F801990246204631
:108B0000FFF7D6FF204602B010BD38B50546006815
:108B10000C4668B16A688B689A4207D3096801F00D
:108B200008F8A368AB600023A36038BDFDF77CFFA5
:108B300023682B6063686B60A368AB600023C4E9A3
:108B40000033F1E710B50023C0E900330446836029
:108B50000373FFF7DAFF204610BD884210B50446C4
:108B600005D00B682BB18A681946FFF7A1FF204694
:108B700010BDFFF772FFFAE710B500230446C0E905
:108B8000003383600373FFF7E8FF204610BD13B581
:108B9000044659B10846019100F0F1FF01990246DF
:108BA0002046FFF785FF204602B010BDFFF755FFB6
:108BB000F9E70000054B02221A60054B054A9A604E
:108BC0000020186098809871FDF752BEE0E5032000
:108BD000D4E503200000FFFF08B50020FDF7ACFE40
:108BE00028B1FDF799FE80F00100C0B208BD012058
:108BF000FCE71FB502460B4668460021CDE900237D
:108C0000CDE90211FDF7A2FC024610B90146FDF7BD
:108C10005FFE05B05DF804FB30B504461848D0E9A6
:108C20000010521840EB03031648D0E90010521808
:108C300093B040EB0303CDE9002324220DEB0200A7
:108C4000002100F0F5FE002509A96846FDF734FF74
:108C50001622294603A8029500F0EAFE02A909A8F7
:108C600000F092FE02A800F08AFF12AB184402A99D
:108C700000F8415C2046FFF734FF204613B030BDBA
:108C8000F0E50320E8E5032010B50020FDF746FCE1
:108C90000446A0B9FDF7E4FD012810D12046FDF7F8
:108CA0000FFE60B9FFF798FF10B9FDF72DFEF9E749
:108CB000FFF792FFBDE810400020FDF72FBC2046D3
:108CC00010BD1FB5FFF7E0FF10220021684600F03D
:108CD000AFFE00216846FDF731FC009805B05DF855
:108CE00004FB0000024B1A68024B1A60704700BF79
:108CF000C4DD0320E4E503207047417470477047EA
:108D000008B5007CFDF72AFD20EAE07008BD08B533
:108D1000007CFDF7FBFC20EAE07008BD08B5007C94
:108D2000FDF704FD40EAE07008BD08B5007CFDF7E2
:108D3000F5FC40EAE07008BD007CFDF7FFBC37B5EC
:108D4000457C04462DB1207C03B0BDE83040FDF7E2
:108D5000D5BC007C0191FDF701FD00280199F2DCF2
:108D6000284603B030BD10B51421044600F014FAB3
:108D7000204610BD10B54FF0000C044608461146C1
:108D80004FF47A72C4E901C2044A226001222074BD
:108D900062741A46FDF7A2FC204610BD6CA50D00BA
:108DA000007C0023FDF7E2BC0022FFF7F9BF007C46
:108DB000FDF79CBC13B50D4C2178BFF35B8F11F010
:108DC000010110D120460191FBF776F9019950B1CC
:108DD000074B084A0848FFF7CDFF2046FBF771F91B
:108DE000064800F0F7FD044802B010BDF8E5032086
:108DF00080E60320FCE5032004E70320FF8C0D0040
:108E0000417470477047704708B50021007CFDF73A
:108E1000DDFC40EAE07008BD08B50121007CFDF7EB
:108E2000D5FC40EAE07008BD08B5007CFDF7C6FC43
:108E300020EAE07008BD08B5007CFDF7B7FC20EA29
:108E4000E07008BD13B50446007C0191FDF7B6FC47
:108E50000028019901DC607C20B1207CFDF7BEFC7C
:108E600020EAE07002B010BD007CFDF7BFBC10B579
:108E70001421044600F090F9204610BD10B54FF4BF
:108E80007A73044608460021C4E90113044B2360A9
:108E90000123207463741146FDF770FC204610BD59
:108EA0009CA50D00007C0022FDF770BC007CFDF746
:108EB00075BC007CFDF7A2BC10B51422044600214D
:108EC00000F0B6FD204610BD10B50F4C88B003A8C9
:108ED000FFF7F2FF2178BFF35B8F11F001010FD193
:108EE00020460191FBF7E8F8019948B103AA074829
:108EF000FFF7C4FF2046FBF7E4F8054800F06AFDE1
:108F0000024808B010BD00BF18E703201CE703208B
:108F1000058E0D00014B1860704700BFC8DD0320AF
:108F200008B50B4B43B1FFF7CFFF03681B699847A8
:108F3000002801DDAFF30080064B43B1FFF73AFF95
:108F400003681B699847002801DDAFF3008008BD66
:108F5000000000000000000008B5FFF7E1FFFDF78A
:108F6000D5FA014B186008BD38E703200548064ACA
:108F7000064908B5121A00F033FD054B054A1A6080
:108F800008BD00BF00F4032008F4032050A70D0023
:108F900004F403201E1C279A07B5002300931A46E9
:108FA0006FF07701FDF7A6FC03B05DF804FB00004D
:108FB00007B543880A2B08D0502B0BD1094B1B68EF
:108FC0004BB103B05DF804EB1847FFF7E5FF03B0C2
:108FD0005DF804FB002300931A466FF07701FDF75C
:108FE00089FCF4E734E7032010B512480021FDF7AF
:108FF0005BFD114B1A68114B9A42114B0CBF0122B9
:1090000000221A7001D0FFF7B1FFFDF76FFA044696
:1090100000F016FD0B4B13B12046AFF3008000218A
:109020000848FDF791FCBDE8104007480021FDF716
:1090300057BC00BF158F0D0004F403201E1C279A97
:1090400030E7032000000000B18F0D00232813B586
:1090500002D9002002B010BDA0F10B03022B1AD8D8
:10906000174C2178BFF35B8F11F001010BD1204623
:109070000191FBF721F8019928B11248FFF72CFC68
:109080002046FBF71EF80F4B1878FDF7FFFA002873
:10909000DFD10120DEE7012809D800F059F80021CE
:1090A000007CFDF7ABFA80F00100C0B2D2E70938CE
:1090B0000128EED8FFF77EFE007CFDF747FBF2E7C4
:1090C0001CE3032020E30320232838B504460D4683
:1090D0000AD8FF2908D0FFF7B9FF28B12946204652
:1090E000BDE83840FDF73ABA38BD38B504460D46FC
:1090F000FDF73CFAFF2810D0062804D84D2323FAA8
:1091000000F0C30709D42046FFF7A0FF28B1294685
:109110002046BDE83840FDF731BA38BD7047000041
:1091200038B500232025438014230446038085603E
:1091300005610649284600F033F804496060284676
:1091400000F02EF8E060204638BD00BFC4A50D0039
:1091500030B50E4D2978BFF35B8F11F0010487B055
:1091600011D12846FAF7A8FF68B101A8FFF7D8FF88
:1091700001AA21460648FEF743F82846FAF7A1FF60
:10918000044800F027FC024807B030BD3CE703204C
:1091900040E703201D910D00FAF781BFFAF77BBF6E
:1091A000FAF77BBF08B5FDF76FFC000081F00041C6
:1091B00002E000BF83F0004330B54FEA41044FEABC
:1091C000430594EA050F08BF90EA020F1FBF54EA57
:1091D000000C55EA020C7FEA645C7FEA655C00F0F3
:1091E000E2804FEA5454D4EB5555B8BF6D420CDDC4
:1091F0002C4480EA020281EA030382EA000083EA47
:10920000010180EA020281EA0303362D88BF30BDE6
:1092100011F0004F4FEA01314FF4801C4CEA11313C
:1092200002D0404261EB410113F0004F4FEA03339B
:109230004CEA133302D0524263EB430394EA050F26
:1092400000F0A780A4F10104D5F1200E0DDB02FA95
:109250000EFC22FA05F2801841F1000103FA0EF229
:10926000801843FA05F359410EE0A5F120050EF1EF
:10927000200E012A03FA0EFC28BF4CF0020C43FA20
:1092800005F3C01851EBE37101F0004507D54FF02D
:10929000000EDCF1000C7EEB00006EEB0101B1F57D
:1092A000801F1BD3B1F5001F0CD349085FEA3000C3
:1092B0004FEA3C0C04F101044FEA445212F5800FCE
:1092C00080F09A80BCF1004F08BF5FEA500C50F16B
:1092D000000041EB045141EA050130BD5FEA4C0C4E
:1092E000404141EB0101013C28BFB1F5801FE9D2AB
:1092F00091F0000F04BF01460020B1FA81F308BFCE
:109300002033A3F10B03B3F120020CDA0C3208DD99
:1093100002F1140CC2F10C0201FA0CF021FA02F174
:109320000CE002F11402D8BFC2F1200C01FA02F1E4
:1093300020FA0CFCDCBF41EA0C019040E41AA2BF09
:1093400001EB0451294330BD6FEA04041F3C1CDAD1
:109350000C340EDC04F11404C4F1200220FA04F0F1
:1093600001FA02F340EA030021FA04F345EA03019B
:1093700030BDC4F10C04C4F1200220FA02F001FA5D
:1093800004F340EA0300294630BD21FA04F02946DF
:1093900030BD94F0000F83F4801306BF81F4801178
:1093A0000134013D4EE77FEA645C18BF7FEA655CEB
:1093B00029D094EA050F08BF90EA020F05D054EABD
:1093C000000C04BF1946104630BD91EA030F1EBFC2
:1093D0000021002030BD5FEA545C05D140004941C6
:1093E00028BF41F0004130BD14F580043CBF01F5B9
:1093F000801130BD01F0004545F0FE4141F470019F
:109400004FF0000030BD7FEA645C1ABF1946104679
:109410007FEA655C1CBF0B46024650EA013406BF7A
:1094200052EA033591EA030F41F4002130BD00BF39
:1094300090F0000F04BF0021704730B54FF48064F6
:1094400004F132044FF000054FF0000150E700BF77
:1094500090F0000F04BF0021704730B54FF48064D6
:1094600004F1320410F0004548BF40424FF00001C3
:109470003EE700BF42004FEAE2014FEA31014FEA06
:1094800002701FBF12F07F4393F07F4F81F0605155
:10949000704732F07F4208BF704793F07F4F04BFA0
:1094A00041F40021704730B54FF4607401F000457D
:1094B00021F000411CE700BF50EA010208BF7047DD
:1094C00030B54FF000050AE050EA010208BF7047CE
:1094D00030B511F0004502D5404261EB41014FF437
:1094E000806404F132045FEA915C3FF4D8AE4FF03F
:1094F00003025FEADC0C18BF03325FEADC0C18BF22
:10950000033202EBDC02C2F1200300FA03FC20FA72
:1095100002F001FA03FE40EA0E0021FA02F11444BF
:10952000BDE600BF70B54FF0FF0C4CF4E06C1CEAD8
:1095300011541DBF1CEA135594EA0C0F95EA0C0F49
:1095400000F0DEF82C4481EA030621EA4C5123EABC
:109550004C5350EA013518BF52EA033541F48011EB
:1095600043F4801338D0A0FB02CE4FF00005E1FB9E
:1095700002E506F00042E0FB03E54FF00006E1FBE8
:1095800003569CF0000F18BF4EF0010EA4F1FF042B
:10959000B6F5007F64F5407404D25FEA4E0E6D416B
:1095A00046EB060642EAC62141EA55514FEAC5207C
:1095B00040EA5E504FEACE2EB4F1FD0C88BFBCF5F8
:1095C000E06F1ED8BEF1004F08BF5FEA500E50F1A9
:1095D000000041EB045170BD06F0004646EA01016F
:1095E00040EA020081EA0301B4EB5C04C2BFD4EBA1
:1095F0000C0541EA045170BD41F480114FF0000E9A
:10960000013C00F3AB8014F1360FDEBF002001F007
:10961000004170BDC4F10004203C35DA0C341BDC81
:1096200004F11404C4F1200500FA05F320FA04F053
:1096300001FA05F240EA020001F0004221F0004187
:1096400010EBD37021FA04F642EB06015EEA430EFA
:1096500008BF20EAD37070BDC4F10C04C4F120052A
:1096600000FA04F320FA05F001FA04F240EA0200DD
:1096700001F0004110EBD37041F100015EEA430EAE
:1096800008BF20EAD37070BDC4F1200500FA05F2CE
:109690004EEA020E20FA04F301FA05F243EA02034D
:1096A00021FA04F001F0004121FA04F220EA02005C
:1096B00000EBD3705EEA430E08BF20EAD37070BDA2
:1096C00094F0000F0FD101F00046400041EB010182
:1096D00011F4801F08BF013CF7D041EA060195F064
:1096E000000F18BF704703F00046520043EB03031E
:1096F00013F4801F08BF013DF7D043EA060370470B
:1097000094EA0C0F0CEA135518BF95EA0C0F0CD015
:1097100050EA410618BF52EA4306D1D181EA03015B
:1097200001F000414FF0000070BD50EA410606BF55
:109730001046194652EA430619D094EA0C0F02D19A
:1097400050EA013613D195EA0C0F05D152EA0336DF
:109750001CBF104619460AD181EA030101F00041FD
:1097600041F0FE4141F470014FF0000070BD41F046
:10977000FE4141F4780170BD70B54FF0FF0C4CF420
:10978000E06C1CEA11541DBF1CEA135594EA0C0F3F
:1097900095EA0C0F00F0A7F8A4EB050481EA030E8C
:1097A00052EA03354FEA013100F088804FEA033373
:1097B0004FF0805545EA131343EA12634FEA022241
:1097C00045EA111545EA10654FEA00260EF0004102
:1097D0009D4208BF964244F1FD0404F5407402D254
:1097E0005B084FEA3202B61A65EB03055B084FEAE5
:1097F00032024FF480104FF4002CB6EB020E75EBE2
:10980000030E22BFB61A754640EA0C005B084FEA09
:109810003202B6EB020E75EB030E22BFB61A754686
:1098200040EA5C005B084FEA3202B6EB020E75EBD1
:10983000030E22BFB61A754640EA9C005B084FEA49
:109840003202B6EB020E75EB030E22BFB61A754656
:1098500040EADC0055EA060E18D04FEA051545EA45
:1098600016754FEA06164FEAC30343EA52734FEAEE
:10987000C2025FEA1C1CC0D111F4801F0BD141EA67
:1098800000014FF000004FF0004CB6E711F4801FCC
:1098900004BF01430020B4F1FD0C88BFBCF5E06FAC
:1098A0003FF6AFAEB5EB030C04BFB6EB020C5FEABC
:1098B000500C50F1000041EB045170BD0EF0004E11
:1098C0004EEA113114EB5C04C2BFD4EB0C0541EA43
:1098D000045170BD41F480114FF0000E013C90E640
:1098E00045EA060E8DE60CEA135594EA0C0F08BF04
:1098F00095EA0C0F3FF43BAF94EA0C0F0AD150EA03
:1099000001347FF434AF95EA0C0F7FF425AF104695
:1099100019462CE795EA0C0F06D152EA03353FF4BD
:10992000FDAE1046194622E750EA410618BF52EA3A
:1099300043067FF4C5AE50EA41047FF40DAF52EA0E
:1099400043057FF4EBAE12E74A0011D212F5001284
:1099500011D20DD56FF47873B3EB62520ED44FEA87
:10996000C12343F0004343EA505323FA02F0704707
:109970004FF00000704750EA013002D14FF0FF3045
:1099800070474FF00000704710B50C4641690369FD
:10999000826986B001F26C7104910168039141689B
:1099A000029181680191C1680091074903EB43036B
:1099B0000B44064902EB42020A4420460449FDF7E3
:1099C00043F8204606B010BDFAA50D00E5A50D0030
:1099D000C5A50D00002301461A46184600F0ACB993
:1099E0000A44914200F1FF3300D1704710B511F8DD
:1099F000014B03F8014F9142F9D110BD884210B5D7
:109A000001EB020402D98442234607D8431EA14237
:109A100008D011F8012B03F8012FF8E702440146A2
:109A20008A4200D110BD13F8014D02F8014DF7E74D
:109A300002440346934200D1704703F8011BF9E743
:109A400038B50D4B1D68AB6B04467BB91820FCF78D
:109A5000E3FF0A4A0A4BA863C0E90023094B83606D
:109A60000B23838101220023C0E90423AB6B002276
:109A70001C615A6138BD00BFC8DD03200E33CDAB79
:109A800034126DE6ECDE0500134B10B51C68A36BB9
:109A90007BB91820FCF7C0FF104A114BA063C0E946
:109AA0000023104B83600B23838101220023C0E934
:109AB0000423A16B0C480A694B690C4C504304FB0E
:109AC0000300A2FB04345A1C044444F10000C1E921
:109AD000042020F0004010BDC8DD03200E33CDABC4
